:100000000C94E30B0C94D6B20C9407B30C9438B355
:100010000C9469B30C949AB30C94CBB30C94FCB3CA
:100020000C942DB40C940E0C0C94EFAC0C940E0CA0
:100030000C940E0C0C940E0C0C940E0C0C94557D20
:100040000C940E0C0C940E0C0C940E0C0C940E0CC8
:100050000C94837D0C940E0C0C940E0C0C945EB4DA
:100060000C940E0C0C9499B60C9492B80C940E0C43
:100070000C940E0C0C940E0C0C940E0C0C94397FFA
:100080000C94A67E0C94EC7F0C940E0C0C940E0C2D
:100090000C940E0C0C940E0C23543F54695485544C
:1000A000AB54E15407552B5543557455A455CA55C7
:1000B00026564A56C756ED5613577057A257CA5779
:1000C000EE5712581D582858285E4F5888589A588D
:1000D000B758D458ED581359285E285E285E285E1C
:1000E000285E285E32595B597F59285E285E285E5B
:1000F000285E285E285E285EA359BB59E959285E10
:10010000285E285E285E285E285E285E285E285EBF
:10011000285E285E285E285E285E285E285E285EAF
:10012000285E285E285E285E285E285E285E285E9F
:10013000285E285E285E285E285E285E285E285E8F
:10014000285E285E285E285E285E285E285E285E7F
:10015000285E285E285E285E285E285E8B5AB15A8B
:10016000D65AFC5A225B4B5B6B5BAC5BD25BF15BA0
:10017000145C3A5C5B5C815CA25CC35CE45C055D26
:10018000205D375D585D6B5D915DA95DD45D476510
:100190006E2E004D6F742E0043616D2E004B662E47
:1001A0000056656C206F66207265717565737465A5
:1001B00064204B463A2000506F73206F66207265B2
:1001C00071756573746564204B463A200054696DFF
:1001D00065206F6620726571756573746564204B68
:1001E000463A200050726F672E202520636F6D7095
:1001F0006C6574653A20004D61782070726F67728B
:10020000616D2074696D652028696E636C2E2073A2
:10021000746172742064656C6179293A20004B46E0
:100220002043757272656E742072756E2074696DEC
:10023000653A200052756E2073746174653A20002F
:10024000436F6E742E2076696420647572617469E0
:100250006F6E3A2000416363656C2076616C69645F
:100260003A200056656C2076616C69643A20004142
:100270006363656C2061742074696D6520783A2031
:100280000056656C2061742074696D6520783A2091
:1002900000506F736974696F6E2061742074696DAA
:1002A0006520783A20004D6F746F722076656C205F
:1002B000757064617465207261746520286D73299E
:1002C0003A20004B6579206672616D6520636F7519
:1002D0006E743A200054616B696E672075702062FD
:1002E00061636B6C6173680053746F7070696E67E3
:1002F000206B662070726F6772616D00506175735C
:10030000696E67206B662070726F6772616D005254
:10031000756E6E696E672F726573756D696E672095
:100320006B662070726F6772616D005365747469DB
:100330006E6720636F6E742E207669642E206D6F59
:1003400076652074696D653A2000456E64696E6754
:10035000204B46207472616E736D697373696F6EA2
:100360000053657474696E672075647061746520EC
:10037000726174653A200053657474696E67207603
:10038000656C6F636974793A200053657474696EA3
:100390006720706F736974696F6E3A2000536574DB
:1003A00074696E672061627363697373613A2000D8
:1003B00053657474696E67206B6579206672616D30
:1003C0006520636F756E743A200053656C656374C5
:1003D000696E6720617869733A200041766F6964BD
:1003E000206F66667365743A2000496E7465727694
:1003F000616C6F6D65746572206D6F64653F203A46
:1004000020004B6565702D616C6976653F203A2050
:100410000054657374206D6F64653F203A2000536B
:10042000686F74732066697265643A2000496E745F
:10043000657276616C2074696D653A20004D697251
:10044000726F722075703F203A2000466F6375739B
:1004500020772F20736875747465723F203A2000EE
:1004600044656C61792074696D653A20004D61784E
:100470002073686F74733A2000466F63757320743D
:10048000696D653A20005472696767657220746906
:100490006D653A200042757379206578706F7369D5
:1004A0006E673F203A2000456E61626C65643F20B4
:1004B0003A200053657474696E6720696E746572C2
:1004C00076616C6F6D65746572206D6F64653A203E
:1004D0000053657474696E67206B6565702D616C7F
:1004E0006976653A200053657474696E6720746597
:1004F0007374206D6F64653A200053657474696E7F
:100500006720696E74657276616C2074696D653AF6
:10051000200053657474696E67207265706561743C
:10052000206379636C65733A200053657474696E57
:100530006720666F63757320772F206578706F73FF
:100540007572653A200053657474696E672064653E
:100550006C61792074696D653A2000536574746923
:100560006E67206D61782073686F74733A20005352
:10057000657474696E6720666F6375732074696D46
:10058000653A200053657474696E672074726967F8
:100590006765722074696D653A20004578706F73E5
:1005A000696E67206E6F77210053657420656E61F8
:1005B000626C65643A200049732073656E64696EED
:1005C000673F3A2000506C6174666F726D207261F3
:1005D00074696F3A200047656172626F78207261BA
:1005E00074696F3A2000556E697420636F64653AD0
:1005F0002000436865636B696E6720322D7074203C
:1006000076656C2076616C69646974793A20004C77
:100610006561642D6F75743A200049732070726FA4
:100620006772616D2076616C69643F203A200053E7
:100630006C6565703A200050726F6772616D20645E
:100640006563656C206C656E6774683A2000507253
:100650006F6772616D20616363656C206C656E67A6
:1006600074683A20004C6561642D696E3A2000542C
:10067000726176656C206C656E6774683A20005311
:10068000746F7020706F733A20005374617274201D
:10069000706F733A2000456173696E673A200041BC
:1006A0006363656C3A200053706565643A200052BC
:1006B000756E6E696E673F203A20004375727265F1
:1006C0006E7420706F733A2000456E6420706F73F3
:1006D0003A20004D61782073706565643A200044CB
:1006E0006972656374696F6E3A20004D6963726F59
:1006F00073746570733A20004261636B6C61736858
:100700003A2000456E61626C65643A20005365745E
:1007100074696E672073746F702D6D6F74696F6E7E
:10072000206D6F64653A200053657474696E6720AC
:10073000706C6174666F726D20726174696F3A20BB
:100740000053657474696E672067656172626F78C3
:1007500020726174696F3A200053657474696E6722
:1007600020756E6974733A200053657474696E67FE
:1007700020656E6420706F736974696F6E20746F8A
:100780003A200053657474696E67206375727265F0
:100790006E7420706F736974696F6E20746F3A2085
:1007A0000053656E64696E6720746F3A200053656C
:1007B0007474696E672073746F7020686572650069
:1007C00053657474696E6720737461727420686510
:1007D0007265004175746F2D73657474696E67205E
:1007E0006D6963726F7374657073005265736574BD
:1007F000696E67206C696D69747320616E64207323
:10080000746172742F73746F7020706F696E74737B
:100810000053657474696E67206C656164206F7540
:10082000743A200053656E64696E6720746F20739C
:10083000746F70200053656E64696E6720746F205A
:1008400073746172740053657474696E67206465B3
:1008500063656C206C656E6774683A20005365743C
:1008600074696E6720616363656C206C656E677484
:10087000683A200053657474696E672074726176FB
:10088000656C206C656E6774683A200053657474FB
:10089000696E67206C6561642D696E3A200053654E
:1008A0007474696E6720656173696E67206D6F642B
:1008B000653A200053657474696E672073746F70B5
:1008C0003A200053657474696E67207374617274A2
:1008D0003A2000436F6D6D616E64656420737465CA
:1008E00070733A200053657474696E6720616363A6
:1008F000656C65726174696F6E3A2000536574743B
:10090000696E6720636F6E742E2073706565643A3C
:10091000200053657474696E67206A6F7973746917
:10092000636B2073706565643A200053656E64697B
:100930006E6720746F20656E640053656E64696E27
:100940006720746F20686F6D650053657474696EFD
:100950006720656E6420686572653A20005365748F
:1009600074696E6720686F6D6520686572650053F5
:10097000657474696E6720646972656374696F6E0B
:100980003A200053657474696E67206D6178207336
:10099000706565643A200053657474696E67206DF4
:1009A0006963726F73746570733A20005365747471
:1009B000696E67206261636B6C6173683A200053F3
:1009C000746F7070696E67206D6F746F720053651D
:1009D0007474696E6720656E61626C653A200053BD
:1009E000657474696E6720736C6565703A20005297
:1009F000756E696E672073656C6620646961676EE9
:100A00006F737469630046726565206D656D6F7202
:100A1000793A20004772616666696B206D6F646584
:100A20003A200050726F6772616D2072756E20738C
:100A300074617475733A2000436F6E74726F6C6CDE
:100A4000657220636F756E743A2000456E64207085
:100A50006F7320726573746F72653A20005374610E
:100A600072742F73746F7020706F7320726573745B
:100A70006F72653A200043757220706F7320726543
:100A800073746F72653A2000416C6C206D6F746FE7
:100A90007220736C656570207374617465733A209D
:100AA0000050726F6772616D2076616C69643F3AC5
:100AB0002000416E79206D6F746F72732072756EB5
:100AC0006E696E673F3A200046505320666C61673E
:100AD0003A200049732070726F6772616D20636FF6
:100AE0006D706C6574653F3A2000546F74616C20C2
:100AF00070726F6772616D2074696D653A20005481
:100B00006F74616C2070726F6772616D2074696DB3
:100B1000653A20002520436F6D706C6574653A203E
:100B2000005761746368646F67206D6F64653F2070
:100B30003A200050696E67706F6E67206D6F646554
:100B40003A20004A6F79737469636B206D6F646536
:100B50003A2000506C616E20747970653A20005321
:100B6000746172742064656C61793A2000416C7420
:100B700020696E70757420656467652064657465AE
:100B80006374696F6E3A2000537570706C792063DE
:100B9000757272656E743A2000537570706C7920AE
:100BA000766F6C746167653A200043757272656E8A
:100BB000742072756E2074696D653A200052756EEE
:100BC000207374617475733A200053657474696E90
:100BD0006720617070206D6F64653A200053657402
:100BE00074696E67204772616666696B206D6F6419
:100BF000653A200053657474696E6720636F6E7484
:100C0000726F6C6C657220636F756E743A2000535E
:100C1000657474696E6720656E6420706F732072EE
:100C20006573746F72653A200053657474696E67FA
:100C30002073746172742F73746F7020706F7320DF
:100C4000726573746F72653A200053657474696ECF
:100C5000672063757220706F7320726573746F7292
:100C6000653A2000526576657273696E6720737409
:100C70006172742F73746F7020706F696E7473007B
:100C800053657474696E672046505320666C6167C3
:100C90003A200053657474696E672073746F702016
:100CA000706F73206865726520666F7220616C6C6E
:100CB000206D6F746F72732E2E2E0053656E6469F3
:100CC0006E67206D6F746F727320746F2073746120
:100CD000727420706F736974696F6E0053657474F9
:100CE000696E672070696E672D706F6E67206D6F1B
:100CF00064650053657474696E67206A6F797374F4
:100D000069636B206D6F64650053657474696E6709
:100D10002070726F6772616D206D6F64653A20009C
:100D200053657474696E67207374617274206465AE
:100D30006C61793A200053657474696E672077613D
:100D4000746368646F67206D6F64653A2000536553
:100D50007474696E67206C696D6974207377697447
:100D600063682065646765206D6F64653A20005391
:100D7000656E64696E6720616C6C206D6F746F7254
:100D80007320686F6D650053657474696E672061C8
:100D90006464726573733A2000546F67676C696EA0
:100DA00067206465627567204C45440053746F701A
:100DB00070696E672070726F6772616D0050617547
:100DC00073696E672070726F6772616D0053746132
:100DD0007274696E67202F20726573756D696E6716
:100DE0002070726F6772616D0053657474696E670D
:100DF000206E657720616464726573732100426CB4
:100E00007565746F6F746820004D6F636F42757302
:100E10002000537562616464723A0020636F6D6DE7
:100E2000616E643A00206275665B305D3A20002096
:100E30006275665B315D3A2000206275665B325DEB
:100E40003A2000206275665B335D3A2000206275AF
:100E5000665B345D3A200074696D65200053656EF1
:100E600064696E67206D6F746F72200072657665BD
:100E7000727365537461727453746F702829004DD6
:100E80006F742E3133202D204175746F2D73746172
:100E90007274696E6720636F6E74696E756F7573B7
:100EA000206D6F7665004A6F79737469636B3A20C1
:100EB000004D6F746F7273206172652072756E6E73
:100EC000696E672C2063616E2774206175746F2DC5
:100ED000736574206D6963726F737465707300520B
:100EE0006571756573746564204D6963726F7374A1
:100EF0006570733A2000547279696E6720746F20B0
:100F00006175746F2D736574206D6963726F73748E
:100F100065707300457863657373697665207370D7
:100F20006565642072657175657374656400546FDE
:100F30007020737065656420726571756573746582
:100F4000643A20004D6963726F73746570733A2060
:100F5000004F7574206F66206C6F6F7020616E6437
:100F6000206D6F76696E67206F6E21004D69637228
:100F70006F73746570733A200047657474696E67A7
:100F800020766964206D6F76652074696D653A20FE
:100F90000047657474696E6720544C206D6F7665E8
:100FA0002074696D653A2000536875747465722009
:100FB000646F6E652C20726561647920666F7220A3
:100FC0006D6F76650054696D652061742065787079
:100FD0006F737572653A200054696D6520617420E5
:100FE000666F6375733A20006B665F43616D65726F
:100FF00061436865636B2829202D204261696C6913
:101000006E672066726F6D2063616D65726120632B
:1010100079636C6520617420706F696E7420320092
:101020006B665F43616D657261436865636B282918
:10103000202D20536B697070696E672073686F7420
:101040002C2077616974696E6720666F72206578FD
:101050007465726E616C20747269676765720053A3
:10106000656E64696E6720746F200041626F7574ED
:1010700020746F2073656E6420746F206C6F6361E1
:1010800074696F6E20233A200053656E64696E6741
:10109000206D6F746F727320746F206E6577206C93
:1010A0006F636174696F6E73005374617274696EFB
:1010B00067206E6577206B6620626F756E636520B2
:1010C00070726F6772616D00526576657273696EDA
:1010D00067206B657920706F696E7473005374615B
:1010E0007274696E672070696E672D706F6E67200D
:1010F00070686173650053746F7070696E67206B00
:10110000662070726F6772616D00537461727469EA
:101110006E67206B65657020616C6976652070680C
:10112000617365005061757365206C656E677468E6
:101130003A200053544F5050494E47204B462050C0
:10114000524F4752414D0053746F7070696E672063
:101150006D6F746F72200050415553494E47204BBC
:10116000462050524F4752414D00204B462070724E
:101170006F6772616D005374617274696E67206E7F
:101180006577207479706520002A2A2A2056656CBC
:101190006F636974696573202A2A2A002A2A2A2023
:1011A000506F736974696F6E73202A2A2A002A2A85
:1011B0002A20416273636973736173202A2A2A00AB
:1011C000207E7E7E7E7E7E007E7E7E7E7E7E2041B6
:1011D0005849532000436F6E742E20766964656F02
:1011E0002074696D653A200050726F6772616D20DE
:1011F0006D6F64653A200050657263656E7420639C
:101200006F6D706C6574653A200043757272656E1F
:10121000742072756E2074696D653A200052756E87
:10122000207374617475733A20004D6178206D6F7E
:1012300076652074696D653A20004D6178206361A0
:101240006D6572612074696D653A20007E7E7E7ED8
:101250007E7E2047656E6572616C2050726F67728A
:10126000616D20506172616D73207E7E7E7E7E7E18
:10127000004175746F2070617573696E672121215B
:10128000006379636C6553686F744F4B2829202D78
:1012900020616C74466F72636553686F74206E6F63
:1012A00074206465746563746564006379636C6558
:1012B00053686F744F4B2829202D20616C74466F42
:1012C00072636553686F74206465746563746564E4
:1012D000202A2A2A2A2A2A2A2A2A2A2A2A0063791A
:1012E000636C6553686F744F4B2829202D20457817
:1012F000742E20696E74657276616C206D6F646502
:1013000020616374697665006379636C6553686F07
:10131000744F4B2829202D20456E74657220667508
:101320006E6374696F6E006379636C6543616D65AC
:1013300072612829202D205374617274696E6720B0
:101340006578706F73757265206379636C6500638F
:1013500079636C6543616D6572612829202D204396
:10136000616D65726120627573793A2000637963FB
:101370006C6543616D6572612829202D2042616989
:101380006C696E672066726F6D2063616D65726156
:10139000206379636C6520617420706F696E7420BE
:1013A00033004D6F746F7220006379636C65436125
:1013B0006D6572612829202D2053686F74733A205F
:1013C000006379636C6543616D6572612829202D26
:1013D000204261696C696E672066726F6D2063617F
:1013E0006D657261206379636C6520617420706F34
:1013F000696E742032006379636C6543616D657258
:10140000612829202D20536B697070696E672073E5
:10141000686F742C2077616974696E6720666F72DB
:101420002065787465726E616C2074726967676597
:1014300072006379636C6543616D65726128292070
:101440002D204261696C696E672066726F6D206342
:10145000616D657261206379636C652061742070D1
:101460006F696E742031006D73206F66206C65614A
:10147000642D6F75742072656D61696E696E6700A9
:101480006379636C6543616D6572612829202D2045
:1014900054686572652061726520006379636C65CC
:1014A00043616D6572612829202D20416C6C206D8F
:1014B0006F7420646F6E65206D6F76696E67006370
:1014C00079636C6543616D6572612829202D205018
:1014D000617573696E67006379636C6543616D65FF
:1014E00072612829202D2053746172740063616D2C
:1014F00043616C6C4261636B2829202D2053746F0B
:10150000700063616D43616C6C4261636B282920DC
:101510002D20537461727400206C656164496E3AC9
:1015200020002073686F74733A200020547970652E
:101530003A200020656E61626C653A200020727569
:101540006E6E696E673A200020656E64506F733A64
:1015500020002073746F70506F733A2000207374F2
:10156000617274506F733A2000206261636B6C612A
:1015700073683A200020636F6E74696E696F7573CB
:101580002053706565643A200043757272656E740D
:1015900020537465707320004F4D43616D65726117
:1015A0003A3A73746F702829202D2053657474693A
:1015B0006E672077616974207374617465004F4DA4
:1015C00043616D6572613A3A73746F702829202DFA
:1015D0002053746F7070696E6720666F6375730057
:1015E0004F4D43616D6572613A3A73746F7028298B
:1015F000202D2053746F7070696E67206578706F4E
:1016000073757265004F4D43616D6572613A3A734F
:10161000746F702829202D20456E746572696E677D
:101620002066756E6374696F6E001201100102000E
:101630000008EB03442001000102030109023E00FF
:10164000020100C032090400000102020100052469
:101650000010010424020605240600010705820388
:101660000800FF09040100020A0000000705040247
:1016700010000507058302100005040309042E036A
:10168000440079006E0061006D0069006300200075
:10169000500065007200630065007000740069000E
:1016A0006F006E0020004C004C00430000003C0323
:1016B000440079006E0061006D0069006300200045
:1016C00050006500720063006500700074006900DE
:1016D0006F006E00200043004400430020005300D0
:1016E00065007200690061006C0000000E033000AC
:1016F00030003400350037003300000000002100C6
:10170000240027002A002D003000000022002500C0
:1017100028002B002E0031000000200023002600AE
:1017200029002C002F000101010101010101020229
:10173000020202020202030303030303030304047D
:10174000040404040404050505050505050506064D
:101750000606060606060102040810204080010263
:10176000040810204080010204081020408001027B
:10177000040810204080010204081020408001026B
:10178000040810204080000000000000000000005D
:10179000000007030401000000000B0A0900020812
:1017A0000000000000000000000000000000000039
:1017B0000000000000000001020304050607CD1729
:1017C0004DB875BCC61711241FBECFEFD0E2DEBFE7
:1017D000CDBF14E0A0E0B1E0E8EAFEE801E00BBF15
:1017E00002C007900D92A630B107D9F71BBE12E1D7
:1017F000A6E0B4E001C01D92A53DB107E1F717E1F5
:10180000C4ECD7E104C02297FE010E940CC7CE3B76
:10181000D107C9F70E9468B90C9447C70C9400001F
:10182000CF93DF93BC018230910510F462E070E049
:10183000A091CD12B091CE12ED01E0E0F0E040E0D9
:1018400050E021C0888199818617970769F48A81C1
:101850009B81309719F09383828304C09093CE12BA
:101860008093CD12FE0134C06817790738F4411512
:10187000510519F08417950708F4AC01FE018A811F
:101880009B819C01E9012097E9F641155105A9F1D9
:10189000CA01861B970B049708F4BA01E0E0F0E058
:1018A0002AC08D919C91119784179507F9F46417BC
:1018B000750781F412968D919C911397309719F0CA
:1018C0009383828304C09093CE128093CD12FD0146
:1018D00032964CC0CA01861B970BFD01E80FF91F19
:1018E0006193719302978D939C9340C0FD01828117
:1018F00093819C01D9011097A1F68091CB12909110
:10190000CC12892B41F48091120390911303909390
:10191000CC128093CB1240911403509115034115C2
:10192000510541F44DB75EB78091100390911103BA
:10193000481B590B2091CB123091CC12CA01821B4B
:10194000930B8617970780F0AB014E5F5F4F8417AC
:10195000950750F0420F531F5093CC124093CB1277
:10196000F9016193719302C0E0E0F0E0CF01DF91F3
:10197000CF910895CF93DF93009709F450C0EC0105
:1019800022971B821A82A091CD12B091CE1210978D
:1019900009F140E050E0AC17BD0708F1BB83AA8312
:1019A000FE0121913191E20FF31FAE17BF0779F4C9
:1019B0008D919C911197280F391F2E5F3F4F3983CE
:1019C000288312968D919C9113979B838A8341154E
:1019D000510571F4D093CE12C093CD1220C012964F
:1019E0008D919C911397AD01009711F0DC01D3CF3D
:1019F000FA01D383C28321913191E20FF31FCE17F5
:101A0000DF0769F488819981280F391F2E5F3F4FC6
:101A1000FA01318320838A819B8193838283DF91C2
:101A2000CF910895A0E0B0E0E8E1FDE00C9412C78A
:101A30006C01009729F4CB010E94100C6C01C1C00D
:101A40008EEF882E8FEF982E8C0C9D1C8601060F32
:101A5000171F0815190508F4B2C0F401A081B1815F
:101A6000A617B707B8F0A530B10508F4AAC0CD0194
:101A700004978617970708F4A4C01297A61BB70B04
:101A8000F801A193B193D4016D937C93CF010E948F
:101A9000BA0C97C07B01EA1AFB0AEEEFFFEFEE0EDD
:101AA000FF1E36016A0E7B1EC091CD12D091CE1260
:101AB00044245524AA24BB244AC0C615D705E1F501
:101AC000488159814E155F05B8F1CA0104978E15FA
:101AD0009F05B0F41296A40FB51FF401B183A08343
:101AE0002A813B814114510431F0D20113963C9379
:101AF0002E93129766C03093CE122093CD1261C000
:101B00008A819B81F80193838283425050404E1911
:101B10005F09518340834114510431F0D20113967F
:101B20001C930E93129704C01093CE120093CD1203
:101B3000F4017183608345C088819981A816B90634
:101B400008F45C012E018A819B819C01E9012097A8
:101B500009F0B3CF8091CB129091CC1286159705E6
:101B6000E9F4A616B706D0F42091140330911503BA
:101B70002115310541F42DB73EB7809110039091A6
:101B80001103281B390B02171307C8F41093CC124A
:101B90000093CB12D4016D937C9313C0CB010E94B0
:101BA000100CEC01009759F0F40140815181B6010D
:101BB0000E94EE0DC6010E94BA0C6E0102C0CC2438
:101BC000DD24C601CDB7DEB7E0E10C942EC7FB01E2
:101BD000DC0105900D920020E1F70895FB01DC0186
:101BE00002C001900D9241505040D8F70895FB017A
:101BF000DC0101900D920020E1F70895FB019F01A7
:101C0000E8944230C4F04532B4F44A3029F497FBEA
:101C10001EF4909581959F4F642F77270E94A6C64A
:101C2000805D8A330CF0895D8193CB010097A1F729
:101C300016F45DE251931082C9010C946110FA010F
:101C4000CF93FF93EF932230CCF02532BCF4C22F18
:101C50002C2F332744275527FF93EF930E94CDC69F
:101C6000EF91FF91605D6A330CF0695D6193B9019A
:101C7000CA01605070408040904051F710828F91AF
:101C80009F91CF910C946110FB019F01423074F041
:101C9000453264F4642F77270E94A6C6805D8A339C
:101CA0000CF0895D8193CB010097A1F71082C901E7
:101CB0000C946110A0E0B0E0E0E6FEE00C9420C7D8
:101CC0009E01275F3F4F8D819E816F817885A9019D
:101CD0000E946E0E2096E2E00C943CC7ABE0B0E0B0
:101CE000E4E7FEE00C9410C73C012B015A01FC0113
:101CF00017821682838181FD03C06FEF7FEFC6C11B
:101D00009AE0892E1E010894211C311CF3012381C5
:101D1000F20123FD859123FF81912F01882309F48E
:101D2000B2C1853239F423FD859123FF81912F01C2
:101D3000853229F490E0B3010E947110E7CF982F0B
:101D4000FF24EE249924FFE1FF15D0F09B3269F0C7
:101D50009C3228F4903259F0933291F40EC09D32A7
:101D600049F0903369F441E024C052E0F52A84E060
:101D7000F82A28C098E0F92A25C0E0E1FE2A22C00E
:101D8000F7FC29C0892F80538A3070F4F6FE05C015
:101D9000989C902C1124980E15C0E89CE02C1124DE
:101DA000E80EF0E2FF2A0EC09E3229F4F6FC6BC169
:101DB00040E4F42A07C09C3619F450E8F52A02C022
:101DC000983649F4F20123FD959123FF91912F015B
:101DD000992309F0B8CF892F8554833018F08052A9
:101DE000833038F444E050E0A40EB51E5FE359831D
:101DF0000FC0933631F0933779F0933509F056C020
:101E000020C0F5018081898342E050E0A40EB51E18
:101E1000610101E010E012C0F501C080D180F6FC44
:101E200003C06FEF7FEF02C0692D70E042E050E029
:101E3000A40EB51EC6010E9456108C015FE7F52264
:101E400014C0F501C080D180F6FC03C06FEF7FEFB6
:101E500002C0692D70E042E050E0A40EB51EC6013C
:101E60000E944B108C0150E8F52AF3FE07C01AC0FF
:101E700080E290E0B3010E947110EA948E2D90E010
:101E800008171907A8F30EC0F601F7FC8591F7FEB5
:101E900081916F0190E0B3010E947110E110EA940A
:101EA000015010400115110579F7EAC0943611F080
:101EB000993669F5F7FE08C0F5012081318142812C
:101EC000538184E090E00AC0F501808191819C01FA
:101ED000442737FD4095542F82E090E0A80EB91EAC
:101EE0009FE6F92257FF09C05095409530952195FE
:101EF0003F4F4F4F5F4FE0E8FE2ACA01B901A101F1
:101F00002AE030E00E949D10D82ED21840C09537AC
:101F100029F41F2D1F7E2AE030E01DC01F2D197FE0
:101F20009F3661F0903720F4983509F0ACC00FC0AF
:101F3000903739F0983709F0A6C004C028E030E0A7
:101F40000AC0106114FD146020E130E004C014FDEB
:101F5000166020E132E017FF08C0F5016081718151
:101F60008281938144E050E008C0F5018081918135
:101F7000BC0180E090E042E050E0A40EB51EA1015B
:101F80000E949D10D82ED2188FE7F82EF122F6FE6F
:101F90000BC05EEFF522D91438F4F4FE07C0F2FC52
:101FA00005C08FEEF82202C01D2D01C0192DF4FED0
:101FB0000DC0FE01ED0DF11D8081803319F499EE05
:101FC000F92208C01F5FF2FE05C003C08F2D86787E
:101FD00009F01F5F0F2DF3FC14C0F0FE0FC01E159B
:101FE00010F09D2C0BC09D2C9E0C911A1E2D06C02E
:101FF00080E290E0B3010E9471101F5F1E15C0F3D4
:1020000004C01E1510F4E11A01C0EE2404FF0FC035
:1020100080E390E0B3010E94711002FF1DC001FD3A
:1020200003C088E790E00EC088E590E00BC0802FE9
:10203000867891F001FF02C08BE201C080E2F7FCDC
:102040008DE290E0B3010E94711006C080E390E041
:10205000B3010E9471109A94D914C0F3DA94F1017B
:10206000ED0DF11D808190E0B3010E947110DD2023
:10207000A9F706C080E290E0B3010E947110EA94D3
:10208000EE20C1F743CEF30166817781CB012B9619
:10209000E2E10C942CC7FC010590615070400110E6
:1020A000D8F7809590958E0F9F1F0895FC01615081
:1020B000704001900110D8F7809590958E0F9F1F6A
:1020C0000895DC01FC01672F71917723E1F73297C6
:1020D00004C07C916D9370836291AE17BF07C8F303
:1020E00008950F931F93CF93DF938C01EB018B81A6
:1020F00081FF1BC082FF0DC02E813F818C819D819D
:102100002817390764F4E881F9810193F983E8839A
:1021100006C0E885F985802F0995892B31F48E81D9
:102120009F8101969F838E8302C00FEF1FEFC8012E
:10213000DF91CF911F910F910895FA01AA272830BE
:1021400051F1203181F1E8946F936E7F6E5F7F4F84
:102150008F4F9F4FAF4FB1E03ED0B4E03CD0670F00
:10216000781F891F9A1FA11D680F791F8A1F911D53
:10217000A11D6A0F711D811D911DA11D20D009F4A3
:1021800068943F912AE0269F11243019305D3193E5
:10219000DEF6CF010895462F4770405D4193B3E0CE
:1021A0000FD0C9F7F6CF462F4F70405D4A3318F075
:1021B000495D31FD4052419302D0A9F7EACFB4E026
:1021C000A6959795879577956795BA95C9F70097DE
:1021D0006105710508959B01AC010A2E069457957F
:1021E000479537952795BA95C9F7620F731F841FD6
:1021F000951FA01D0895FC011082118281E0828349
:102200000895FC01748363830E94FB100895FC0110
:1022100080810895FC016183862F0895FC0162830B
:10222000862F08951F93CF93DF93EC01162F6883B9
:102230008981882399F088EA92E160E071E00E9448
:102240004DBB88EA92E1612F42E050E00E94C2BAA1
:1022500088EA92E167E171E00E94FDBB8A818823F0
:1022600099F08B819C8160E071E00E944DBB8B8175
:102270009C81612F42E050E00E94C2BA8B819C8118
:1022800067E171E00E94FDBBDF91CF911F9108953E
:102290008091100408958091480410924804089594
:1022A0008091740310927403089580930904882325
:1022B00011F010920A040895809109040895809302
:1022C0000A04882311F010920904089580910A04E9
:1022D00008958093490480934A04089580914904A5
:1022E000811181E0089581E08093020D08950F939C
:1022F0001F93CF93DF93EC018EE46132780718F0DF
:1023000060E27EE405C06436710510F464E670E0B6
:1023100080E090E00E9409C52FEF30E0C29F80016D
:10232000C39F100DD29F100D1124075F124F0F5045
:102330001F4FF80161937193819391938F0120E076
:1023400030E040E05FE30E94BFC5F8016083718325
:1023500082839383DF91CF911F910F9108952F92E4
:102360003F924F925F926F927F928F929F92AF9225
:10237000BF92CF92DF92EF92FF920F931F93DF9362
:10238000CF9300D000D0CDB7DEB73C018FEF90E007
:10239000689EB001699E700D789E700D1124FB013E
:1023A000E75FF24FDF01A751BF4FE351FF4F20819D
:1023B0003181428153818D919D910D90BC91A02DD1
:1023C000281739074A075B0709F43FC1FB01E55F9E
:1023D000F24F80E090E020E030E040E050E02083E9
:1023E00031834283538320AF31AF42AF53AF148E5A
:1023F000158E168E178E019634968730910579F7D3
:102400008FEF90E0689E8001699E100D789E100D00
:102410001124075F124F05501F4FD8016D917D9118
:102420008D919C9120E030E040EA51E40E94BFC5CC
:102430002FE632E143E852E40E9470C46B017C0154
:1024400006501040D8018D919D910D90BC91A02D0A
:1024500089839A83AB83BC83F801B290A290929057
:102460008290C701B601A50194010E94BBC5181650
:1024700014F4750164018FEF90E0689EF001699E8D
:10248000F00D789EF00D1124EF50F24F80818823DB
:1024900021F4F7FAF094F7F8F094C701B601298116
:1024A0003A814B815C810E9470C41B012C01E8942D
:1024B00057F88FEF90E0689EF001699EF00D789ECE
:1024C000F00D1124E75FF24F22823382448255825D
:1024D000E751FF4F80819181A281B381E95EF04095
:1024E000868F978FA0A3B1A3C2AED3AEE4AEF5AEF4
:1024F000C701B60120E030E040E050E00E94BBC5DB
:1025000018164CF489819A81AB81BC81B0588983BB
:102510009A83AB83BC838FEF90E0689E8001699EB5
:10252000100D789E100D1124075F124F86E5682E5E
:10253000712C600E711E89819A81AB81BC81F3017F
:1025400080839183A283B3830F2EF0E08F2EF0E07F
:102550009F2EF0E0AF2EF0E0BF2EF02DD8011696A2
:102560008D929D92AD92BC9219975E966D917D91E0
:102570008D919C9191970E940BC56B017C01C201CA
:10258000B101F80122AD33AD44AD55AD0E94BFC5D8
:102590009B01AC01C701B6010E9408C46B017C011C
:1025A00069817A818B819C8120E030E040E05FE3AB
:1025B0000E94BFC5A20191010E94BFC5A201910165
:1025C0000E94BFC59B01AC01C701B6010E9408C4AF
:1025D0000E94D8C46B017C01D80192966D937D93C3
:1025E0008D939C939597025C1F4FF8018082918296
:1025F000A282B382045E1F4FD8018D929D92AD924C
:10260000BC921397F301608171818281938120E0F4
:1026100030E040E05FE30E94BFC5D3016D937D933E
:102620008D939C9313970D561F4FF801C082D18252
:10263000E282F38209501040D8018D929D92AD92B2
:10264000BC921397F801129212920F900F900F9074
:102650000F90CF91DF911F910F91FF90EF90DF903E
:10266000CF90BF90AF909F908F907F906F905F9032
:102670004F903F902F90089580E090E00E94AF111E
:1026800081E090E00E94AF1182E090E00E94AF11E3
:10269000089520E0039708F421E0822F08952F92F7
:1026A0003F924F925F926F927F928F929F92AF92E2
:1026B000BF92CF92DF92EF92FF920F931F93DF931F
:1026C000CF93CDB7DEB760970FB6F894DEBF0FBEDD
:1026D000CDBF8C0149875A876B877C873E872D87C2
:1026E0008FEF90E0089FF001099FF00D189FF00D0B
:1026F0001124EF50F24F8081882359F40F2EF0E01F
:10270000CF2EF0E0DF2EF0EAEF2EF1ECFF2EF02DD1
:102710000AC00F2EF0E0CF2EF0E0DF2EF0EAEF2E11
:10272000F1E4FF2EF02D8FEF90E0089F9001099FBC
:10273000300D189F300D1124275F324F25503F4F29
:10274000D9012D903D904D905C9022513040D9019F
:102750008D919D910D90BC91A02D8D839E83AF8313
:10276000B88729853A854B855C8582179307A4072E
:10277000B5072CF04FEF5FEF588B4F8704C081E017
:1027800090E0988B8F87C201B10120E030E040E0FB
:1027900050E00E946CC4882309F44BC18FEF90E095
:1027A000089FF001099FF00D189FF00D1124EF50C4
:1027B000F24F808190E0AF85B889FC01AE9FC001E7
:1027C000AF9F900DBE9F900D112497FF32C1C8019D
:1027D0000E94AF113CC18FEF90E0089FF001099F6C
:1027E000F00D189FF00D1124E75FF24FEF50FF4FEF
:1027F000619071908190919080819181A281B3814B
:1028000089839A83AB83BC83C701B601A20191017E
:102810000E94BFC52FE632E143E852E40E9470C433
:102820007B018C01E89417F9C801B701A401930159
:102830000E946CC487FD15C00F2EF0E06F2EF0E0F3
:102840007F2EF0E08F2EF0E09F2EF02D0F2EF0E087
:102850002F2EF0E03F2EF0E04F2EFFE35F2EF02D05
:1028600035C0C401B301A80197010E9407C42981A2
:102870003A814B815C810E9470C43B014C0120E095
:1028800030E040E05FE30E946CC487FD15C00F2E6E
:10289000F0E06F2EF0E07F2EF0E08F2EFFE39F2E12
:1028A000F02D0F2EF0E02F2EF0E03F2EF0E04F2E17
:1028B000F0E05F2EF02D0AC060E070E080E09FE362
:1028C000A40193010E9407C41B012C0169817A8134
:1028D0008B819C81A40193010E94BFC59B01AC0127
:1028E000C801B7010E9408C45B016C01C801B701AF
:1028F000A40193010E94BFC57B018C0169817A818B
:102900008B819C8120E030E040E05FE30E94BFC506
:10291000A40193010E94BFC5A40193010E94BFC5F9
:102920009B01AC01C801B7010E9408C40E94D8C431
:102930000E940BC57B018C01C201B101A60195016A
:102940000E94BFC59B01AC01C801B7010E9408C429
:102950000E94D8C40E940BC57B018C01C601B50141
:10296000A60195010E94BFC520E030E040E05FE392
:102970000E94BFC529813A814B815C810E9470C44D
:102980009B01AC01C801B7010E9408C40E94D8C4D1
:10299000EF85F8899F01442737FD4095542F0E9409
:1029A00087C62D813E814F815885620F731F841F1A
:1029B000951F4F8558894130510551F429853A8535
:1029C0004B855C8526173707480759078CF40EC0DE
:1029D0004F8558894F5F5F4F59F429853A854B855C
:1029E0005C85621773078407950714F4CA01B9015F
:1029F000AD85BE856D937D938D939C93139781E0F8
:102A000060960FB6F894DEBF0FBECDBFCF91DF91B9
:102A10001F910F91FF90EF90DF90CF90BF90AF90FC
:102A20009F908F907F906F905F904F903F902F90EE
:102A3000089529853A854B855C858D819E81AF817E
:102A4000B885281739074A075B0709F0C4CE80E02C
:102A5000D7CF80911304089580912F04882339F4EF
:102A60008091BA04882319F420E030E00AC0209154
:102A70003A0430913B048091110490911204280F84
:102A8000391FC90108951092120410921104109276
:102A90003B0410923A04089520913204309133049B
:102AA000409134045091350480912704909128047A
:102AB000A0912904B0912A04280F391F4A1F5B1FD7
:102AC000B901CA0108958091BA04882319F420E05D
:102AD00030E00BC08091BB04882319F421E030E082
:102AE00004C0813011F422E030E0C9010895209142
:102AF0003604309137044091380450913904809164
:102B0000A6049091A704A091A804B091A904280F4D
:102B1000391F4A1F5B1FB901CA010895813039F07E
:102B2000813018F0823051F406C083E001C082E0A9
:102B300080932E03089581E080932E030895E09101
:102B40001A10F0911B10309709F0099508958091A3
:102B50004F040895823010F48093310408958091D9
:102B6000310408958091140408951F9380912F04D7
:102B7000882311F011E007C08091BA04882311F076
:102B800015E001C010E080914504882311F0136026
:102B900004C08091BB0481111660809144048111AE
:102BA00018600E94B215811110610E94AF15811149
:102BB0001062812F1F910895FC0110820895FC017D
:102BC00080810895FC0180E88093861080938710AF
:102BD00080938810809389101286138608951F931E
:102BE000FC018081882309F455C070E06150704079
:102BF0002581368147815085DA01C901062E04C03E
:102C0000B695A795979587950A94D2F7182F1170C6
:102C100081819281A381B481062E04C0B695A795C7
:102C2000979587950A94D2F780FF17C081E090E0CE
:102C3000A0E0B0E004C0880F991FAA1FBB1F6A95CF
:102C4000D2F7822B932BA42BB52B85839683A78356
:102C5000B0871130E9F481E01EC081E090E0A0E08F
:102C6000B0E004C0880F991FAA1FBB1F6A95D2F756
:102C700080959095A095B09582239323A423B523A6
:102C800085839683A783B087113021F482E003C047
:102C900083E001C080E01F910895FC0180818823BA
:102CA00041F1862F90E0019725813681478150853B
:102CB000082E04C056954795379527950A94D2F764
:102CC000922F9170218132814381548104C05695A5
:102CD0004795379527958A95D2F720FF06C0913002
:102CE00011F481E0089583E00895913011F482E0B9
:102CF000089580E00895FC01E45BFF4F8081089512
:102D0000FC01E25BFF4F80810895FC01E15BFF4F16
:102D100080810895089510923A1008950895AF9211
:102D2000BF92CF92DF92EF92FF920F931F935A01BF
:102D30006B01CB01BA0120E030E040E053E40E9497
:102D400007C47B018C0120E030E040E050E00E94AD
:102D5000BBC518165CF4C801B70120E030E040E2C2
:102D600051E40E946CC41816ACF00AC0C801B70147
:102D700020E030E040E251EC0E94BBC5882354F0D3
:102D80000F2EF0E0AF2EF0E0BF2EF0E0CF2EF3E4F8
:102D9000DF2EF02DB501C6011F910F91FF90EF902E
:102DA000DF90CF90BF90AF9008958F929F92AF9297
:102DB000BF92CF92DF92EF92FF920F931F938130D9
:102DC000910509F0B3C06F5F7F4F09F0D4C080E573
:102DD00094E00E94C1848AE694E00E94C18484E861
:102DE00094E00E94C1841092BF041092BE0488EE49
:102DF00093E0A0E0B0E08093C0049093C104A0935E
:102E0000C204B093C30488EC93E09093BD04809314
:102E1000BC04409122035091230388EC94E06CEBB6
:102E200074E026E430E00AEA13E00E94E1A9409150
:102E30002203509123038AE295E068EA72E126E4D6
:102E400030E00E94E1A940912203509123038CE8D5
:102E500095E066E872E126E430E00E94E1A98EEE9A
:102E600095E00E9409888FEE95E00E94F8A4A1B237
:102E700084E096E06DE270E040E150E020E230E076
:102E800001E110E0E2E1EE2EF12CB3E1CB2ED12CEA
:102E9000BB24A5E08A2E912C0E941AA1A1B28FEF2B
:102EA00097E06EE270E045E150E024E130E00DE1B2
:102EB00010E0FEE1EF2EF12CEFE1CE2ED12CB6E0AA
:102EC0008B2E912C0E941AA1A1B28AEF99E06FE299
:102ED00070E042E250E021E230E00FE010E0ABE2CF
:102EE000EA2EF12CFCE2CF2ED12CE7E08E2E912C95
:102EF0000E941AA185EF9BE067E00E945AA388E137
:102F00009CE06CE875E00E94967C8EE19CE068E1B4
:102F10007CE00E9401110E94A6B460931610709389
:102F20001710809318109093191025C0892B19F54C
:102F30006F5F7F4F01F58AEF99E00E9466888FEFFF
:102F400097E00E94668884E096E00E94668888EC9C
:102F500093E09093BD048093BC040E94768084E843
:102F600094E00E946C878AE694E00E946C8780E57A
:102F700094E00E946C871F910F91FF90EF90DF907B
:102F8000CF90BF90AF909F908F90089580E090E099
:102F90006FEF7FEF0E94D516089581E090E06FEF0C
:102FA0007FEF0E94D51608950F931F938C0184E044
:102FB00096E0F80163850E949B998FEF97E0F801F6
:102FC00064850E949B998AEF99E0F80165850E94CB
:102FD0009B991F910F910895AF92BF92CF92DF926C
:102FE000EF92FF920F931F938C01B4E0AB2EB6E0EB
:102FF000BB2EC5010E946788F8018387AFEFCA2EF8
:10300000A7E0DA2EC6010E946788F8018487FAEFEC
:10301000EF2EF9E0FF2EC7010E946788F80185872F
:10302000C50164E00E949B99C60160E10E949B99E2
:10303000C70160E10E949B991F910F91FF90EF9053
:10304000DF90CF90BF90AF90089541E00E940EAA0C
:10305000089542E00E940EAA089541E00E940EAA3F
:10306000089541E00E940EAA089544E00E940EAA2D
:10307000089541E00E9469AA08950F931F93CF938A
:10308000DF938FE0689F800111240E5B1F4FCEEB12
:10309000D0E107C0C801BE010E9439180F5F1F4F61
:1030A000219680E1CD3CD807A9F7DF91CF911F9100
:1030B0000F91089541E00E9469AA089542E00E949C
:1030C00069AA0895809322031092230380E090E080
:1030D00062E273E00E945E18089541E00E9469AACE
:1030E000089544E00E9469AA08950E94B5AB08952E
:1030F00021E22093C21229E02093C31221E032E0A2
:103100003093C5122093C4121092C7121092C612A7
:1031100020E330E03093C9122093C8121092A70028
:103120000E947DB090E0882309F491E0892F0895F2
:10313000FC0180818823C9F062874387409345035F
:103140008285813021F48FEF8093460302C0109274
:1031500046031092470310924803818580934D03E4
:1031600084E493E060E30E9478180895CF93DF939E
:10317000EC018BA1882309F454C00E94A6B49B01E2
:10318000AC0188A999A9AAA9BBA9281B390B4A0B8C
:103190005B0B6EA57FA561157105D1F0CB01A0E099
:1031A000B0E0281739074A075B0768F01FA61EA67C
:1031B00088A599A59DA78CA78FA18F5F8FA38AE370
:1031C00090E161E020C0621B730B7FA76EA723C054
:1031D0006CA57DA561157105F1F0CB01A0E0B0E013
:1031E000281739074A075B0790F08EA181508EA3FC
:1031F000882311F41BA204C08AA59BA59FA78EA7B4
:103200008AE390E160E04EEF0E94981804C0621BD0
:10321000730B7DA76CA70E94A6B468AB79AB8AAB91
:103220009BABDF91CF910895FC0113A28AE390E15B
:1032300060E040E00E9498180895CF93DF93EC017E
:10324000222319F40E94141912C081E08BA32EA32B
:103250001FA25FA74EA75BA74AA779A768A71DA6CD
:103260001CA60E94A6B468AB79AB8AAB9BABDF917E
:10327000CF91089566E970E044E650E021E00E94B5
:103280001D1908957F928F929F92AF92BF92CF9215
:10329000DF92EF92FF920F931F93CF93DF934C0136
:1032A000742EE9018AE390E10E94EF15833019F54D
:1032B000BE0180E090E00E9409C57B018C012AE9F3
:1032C00039E949E15EE30E94BFC50E94DDC45B01AC
:1032D0006C01C801B7012AE939E949E55FE30E94B9
:1032E000BFC50E94DDC49B01AC01C401B501A901A9
:1032F000272D0E941D19DF91CF911F910F91FF90F3
:10330000EF90DF90CF90BF90AF909F908F907F9085
:1033100008959F92AF92BF92CF92DF92EF92FF9269
:103320000F931F93CF93DF93EC01162FA42E690107
:10333000902E8AE390E1642F0E94EF15982F8091E0
:10334000D210882329F08091D110A81609F078C0F6
:10335000933009F060C0112399F5A092D11081E05B
:103360008093D2100E94A6B46093CD107093CE10BB
:103370008093CF109093D010B70180E090E00E942E
:1033800009C57B018C012AE939E949E15EE30E9424
:10339000BFC50E94DDC45B016C01C801B7012AE909
:1033A00039E949E55FE30E94BFC50E94DDC49B0186
:1033B000AC01CE01B501A9012FEF0E941D1940C03B
:1033C000133011F01130E1F5B70180E090E00E9478
:1033D00009C57B018C012AE939E949E15EE30E94D4
:1033E000BFC50E94DDC45B016C01C801B7012AE9B9
:1033F00039E949E55FE30E94BFC50E94DDC49B0136
:10340000AC01CE01B501A901292D0E941D1981E051
:103410008093D31015C0923099F48091D3108130ED
:1034200019F41092D3100CC0882351F4CE010E94DD
:1034300014191092D2108FA1F601808381E001C08F
:1034400080E0DF91CF911F910F91FF90EF90DF907F
:10345000CF90BF90AF909F900895FC01808188230A
:10346000F1F02185413049F481E090E002C0880FFD
:10347000991F6A95E2F7282B09C081E090E002C00D
:10348000880F991F6A95E2F7809528232187818507
:1034900080934D0384E493E060E30E9478180895DC
:1034A000EF92FF920F931F93CF93DF937C018FE0F6
:1034B000689F800111240E5B1F4FCEEBD0E107C047
:1034C000C801BE010E9425180F5F1F4F219680E1A1
:1034D000CD3CD807A9F740E0F70184A9882309F477
:1034E00041E08AE390E162E00E942D1ADF91CF91E2
:1034F0001F910F91FF90EF900895FC018AE085AB3A
:1035000016AA17AA10AE81E084AB83AF15AE82E095
:1035100081AF12AE16AE17AE14AEEE5BFF4F8083D6
:1035200012921292E054F04080E883838483858372
:103530008AE390E162E040E00E942D1A08950F9323
:103540001F938C018AE390E10E94DC15F80111823F
:1035500080E883838483858312A21186128613A256
:10356000C8010E947D1AF80112828FEE95E060E09A
:103570000E949DA381E080930306F80110821F91B1
:103580000F9108950F931F93CF93DF93EC018B015D
:10359000888184FF0FC08981882321F088EA92E125
:1035A0000E94FDBB8A81882329F08B819C81B80110
:1035B0000E94FDBBDF91CF911F910F9108950F9352
:1035C0001F93CF93DF93EC018B01888183FF0FC0A2
:1035D0008981882321F088EA92E10E94FDBB8A81DB
:1035E000882329F08B819C81B8010E94FDBBDF916B
:1035F000CF911F910F9108959C0181E08093A700C6
:103600008091A9008F7B8093A9008091A60080FD06
:1036100006C08091A90080648093A9000BC06091CE
:10362000F6007091F700C90140E050E00E945CABE9
:10363000882311F080E008958091A6008E77809312
:10364000A6008091A90080648093A90081E008957C
:10365000CF93DF93EC018091CA128B3051F58881B2
:10366000882339F11FC08E859F85A889B9898983F0
:103670009A83AB83BC838A89C45BDF4F8883CC5435
:10368000D0408B89C35BDF4F8883CD54D0408C8979
:10369000C25BDF4F8883CE54D0408D89C15BDF4F42
:1036A000888307C0CE010C9660E30E94FC1A882331
:1036B000D1F6DF91CF9108950F9381E863E041E067
:1036C00020E430E000E00E94B0AA82E063E042E043
:1036D00020E430E00E94B0AA0F910895DF93CF93C9
:1036E000CDB7DEB7C851D2400FB6F894DEBF0FBEDB
:1036F000CDBF81E060E0AE01495F5F4F22E10E94F3
:103700008DB1882309F050C081E0BE016F5F7F4F0B
:10371000AE01475E5F4F20E032E00E9477AE882323
:1037200009F042C08F8598898C549540E9F58989C4
:103730009A8988569240C1F581E00E94AAB18823F7
:1037400099F50E945C1B82E48B838CE08C831D8244
:103750001E8281E28093C21289E08093C31284EFBB
:1037600093E09093C5128093C4121092C7121092E6
:10377000C61284E090E09093C9128093C812109210
:10378000A700CE0103960E947DB0882369F48AE3E6
:1037900090E10E94E21581E080933A108EE19CE076
:1037A00068E171E00E94C21AC85EDD4F0FB6F8945E
:1037B000DEBF0FBECDBFCF91DF910895A82FFB01D3
:1037C0009A0180911603823041F0833019F08130E4
:1037D00089F40AC08AE295E002C088EC94E06A2F7E
:1037E000AF010E944EA808958CE895E06A2FAF01C2
:1037F0000E944EA80895E82F9A01AB01809116030C
:10380000823041F0833019F0813079F409C08AE2C6
:1038100095E002C088EC94E06E2F0E94C6A808953F
:103820008CE895E06E2F0E94C6A80895E82F9A01B3
:10383000AB0180911603823041F0833019F0813062
:1038400079F409C08AE295E002C088EC94E06E2F1A
:103850000E949FA808958CE895E06E2F0E949FA873
:103860000895282FAB0180911603823041F08330F8
:1038700019F0813079F409C08AE295E002C088EC41
:1038800094E0622F0E94EDA808958CE895E0622FE5
:103890000E94EDA80895282FAB0180911603823075
:1038A00041F0833019F0813079F409C08AE295E063
:1038B00002C088EC94E0622F0E940EA908958CE863
:1038C00095E0622F0E940EA90895282F462F80911F
:1038D0001603823041F0833019F0813079F409C049
:1038E0008AE295E002C088EC94E0622F0E947AA8F8
:1038F00008958CE895E0622F0E947AA80895682FB9
:1039000080911603823041F0833019F0813069F4E0
:1039100008C08AE295E002C088EC94E00E9499A871
:1039200008958CE895E00E9499A808950F931F933D
:10393000CF93DF93EC018B01888183FF0FC08981D6
:10394000882321F088EA92E10E9411BC8A818823B1
:1039500029F08B819C81B8010E9411BCDF91CF912D
:103960001F910F910895EF92FF920F931F93CF93A2
:10397000DF93EC017A018B01888184FF14C0898177
:10398000882331F088EA92E122E030E00E94E9BB2E
:103990008A81882341F08B819C81B801A70122E0B4
:1039A00030E00E94E9BBDF91CF911F910F91FF9012
:1039B000EF9008959C01C397C197E0F484E096E0EE
:1039C00060E021E030E040E050E00E94209E8FEF78
:1039D00097E060E021E030E040E050E00E94209E6F
:1039E0008AEF99E060E021E030E040E050E00E94A2
:1039F000209E089525363105D8F084E096E061E0F8
:103A000021E030E040E050E00E94209E8FEF97E000
:103A100061E021E030E040E050E00E94209E8AEF2B
:103A200099E061E021E030E040E050E00E94209E1B
:103A300008952F923F924F925F926F927F928F9252
:103A40009F92AF92BF92CF92DF92EF92FF920F932D
:103A50001F93CF93DF930E94A6B46624772443017B
:103A6000442455244BEF242E41E0342E429CE001A7
:103A7000439CD00D529CD00D1124CC5FD94FCE0168
:103A80000E9493888823F1F0CE010E94FE8A5B0198
:103A90006C01CE010E94D58A7B018C01CE010E946F
:103AA000FE8AA80197012A0D3B1D4C1D5D1D260FA6
:103AB000371F481F591F621673068406950610F4B7
:103AC00039014A010894411C511C83E048165104F5
:103AD00069F60E94CC8A882391F48FEE95E00E94CB
:103AE000AAA3A0E0B0E086159705A805B90538F4AB
:103AF0008FEE95E00E94AAA33C01882499240E949D
:103B0000CC8A882339F4609111047091120480E00A
:103B100090E014C0609123047091240480912504E6
:103B20009091260420914004309141044091420438
:103B300050914304621B730B840B950B0E9409C5C3
:103B40007B018C01C401B3010E9409C59B01AC013A
:103B5000C801B7010E9470C420E030E048EC52E494
:103B60000E94BFC57B018C0120E030E040E050E0C6
:103B70000E94BBC588234CF0C801B70120E030E0AB
:103B800040E05FE30E9408C408C0C801B70120E01C
:103B900030E040E05FE30E9407C40E94D8C4162FC3
:103BA000662301F58091FF108823E1F00E945C11EB
:103BB0008823C1F484E68093FF108091FF10DF9189
:103BC000CF911F910F91FF90EF90DF90CF90BF901A
:103BD000AF909F908F907F906F905F904F903F90AD
:103BE0002F9008951093FF10E8CF4F925F926F923D
:103BF0007F928F929F92AF92BF92CF92DF92EF927D
:103C0000FF920F931F93CF93DF930E94CC8A882358
:103C100081F566247724C0E0D0E05BEF452E51E0CB
:103C2000552EC49D8001C59D100DD49D100D1124ED
:103C30000C5F194FC8010E94FE8A4B015C01C8014C
:103C40000E94D58A6B017C01C8010E94118BC601BC
:103C5000880D991D860F971F6816790608F43C0198
:103C60002196C330D105E9F68FEE95E0B3010E94AD
:103C7000A6A3DF91CF911F910F91FF90EF90DF905E
:103C8000CF90BF90AF909F908F907F906F905F90FC
:103C90004F9008952F923F924F925F926F927F9232
:103CA0008F929F92AF92BF92CF92DF92EF92FF924C
:103CB0000F931F93DF93CF9300D000D0CDB7DEB723
:103CC0002224332421011A82198249815A818BEFDF
:103CD00091E0489F9001499F300D589F300D11246D
:103CE0002C5F394F3C832B83C9010E949388882322
:103CF00009F44CC00E94CC8A882339F58FEE95E0F8
:103D00000E947BA33B014C018B819C810E94FE8A17
:103D10005B016C018B819C810E94D58A7B018C01A7
:103D20008B819C810E94118BEA0CFB1C0C1D1D1DBC
:103D3000E60EF71E081F191FC801B701A401930161
:103D40000E9487C69B01AC011AC08B819C810E9496
:103D5000FE8A5B016C018B819C810E94D58A7B016C
:103D60008C018B819C810E94118BA80197012A0DE7
:103D70003B1D4C1D5D1D260F371F481F591F221666
:103D800033064406550610F419012A01E981FA8127
:103D90003196FA83E983339709F097CF2091400455
:103DA000309141044091420450914304220D331D4F
:103DB000441D551DB901CA010F900F900F900F902F
:103DC000CF91DF911F910F91FF90EF90DF90CF90F7
:103DD000BF90AF909F908F907F906F905F904F902B
:103DE0003F902F90089584E096E00E94F188882308
:103DF00071F48FEF97E00E94F188882341F48AEFF5
:103E000099E00E94F188882319F081E0089581E00B
:103E100008951F93CF93DF93EC01162F888184FFC1
:103E200013C08981882331F088EA92E14AE050E0AA
:103E30000E94C2BA8A81882339F08B819C81612FCC
:103E40004AE050E00E94C2BADF91CF911F910895DD
:103E50001F93CF93DF93EC01162F888183FF13C04C
:103E60008981882331F088EA92E14AE050E00E949B
:103E7000B0BA8A81882339F08B819C81612F4AE016
:103E800050E00E94B0BADF91CF911F9108951F9327
:103E9000CF93DF93EC01162F888180FF13C08981B7
:103EA000882331F088EA92E14AE050E00E94B0BAFB
:103EB0008A81882339F08B819C81612F4AE050E010
:103EC0000E94B0BADF91CF911F910895FF920F9396
:103ED0001F93CF93DF93EC01F62E8A01888180FF38
:103EE00010C08981882321F088EA92E10E94B0BA4B
:103EF0008A81882331F08B819C816F2DA8010E94DB
:103F0000B0BADF91CF911F910F91FF9008951F9349
:103F1000CF93DF93EC01162F888184FF13C0898132
:103F2000882331F088EA92E14AE050E00E94B0BA7A
:103F30008A81882339F08B819C81612F4AE050E08F
:103F40000E94B0BADF91CF911F9108950F931F93F4
:103F5000CF93DF93EC018B01888183FF0FC08981B0
:103F6000882321F088EA92E10E944DBB8A81882350
:103F700029F08B819C81B8010E944DBBDF91CF91CC
:103F80001F910F9108950F931F93CF93DF93EC012F
:103F90008B01888180FF0FC08981882321F088EA06
:103FA00092E10E944DBB8A81882329F08B819C81FC
:103FB000B8010E944DBBDF91CF911F910F910895E1
:103FC0000F931F93CF93DF93EC018B01888180FFC8
:103FD0000FC08981882321F088EA92E10E944DBBBD
:103FE0008A81882329F08B819C81B8010E944DBB76
:103FF000DF91CF911F910F9108950F931F93CF934E
:10400000DF93EC018B01888184FF0FC089818823B5
:1040100021F088EA92E10E944DBB8A81882329F031
:104020008B819C81B8010E944DBBDF91CF911F9184
:104030000F910895DF92EF92FF920F931F93CF930A
:10404000DF93D82E8091460C9091470C82309105D9
:1040500009F49FC08330910534F4009769F001970B
:1040600009F046C128C08330910509F42EC1843679
:10407000910509F03DC12EC18DE0D81609F43CC16F
:104080009AE0D91609F438C181E090E09093470C8A
:104090008093460C9093490C8093480C10924A0CE4
:1040A00010924B0C10924C0C10924D0C10924E0C26
:1040B00010924F0C21C18091450C883631F4E9E60D
:1040C000DE1609F015C18AE00DC08D3629F4F3E73C
:1040D000DF1659F48EE106C0833761F481E6D81605
:1040E00009F582E380934A0CF2C09DE6D91651F49B
:1040F00088E246C08E3661F4E0E7DE1609F0F8C0CB
:104100008FE13EC0F0E7DF1609F0F2C08BE238C065
:104110008A3731F48DE6D81609F0EAC08CE230C057
:10412000833731F49DE6D91609F0E2C08AE228C04F
:10413000803731F4E2E7DE1609F0DAC089E220C008
:10414000823631F4F6E6DF1609F0D2C08CE318C0EF
:10415000873631F48FE6D81609F0CAC08DE3C2CF96
:104160008A3631F49DE6D91609F0C2C086E408C04B
:10417000893609F0BDC0EDE6DE1609F0B9C087E466
:1041800080934A0C82E090E09093470C8093460C19
:10419000B3C09D2D90539A3020F0FDE2DF1609F058
:1041A00065C08091450C8032C1F580914B0C8F5FCA
:1041B00080934B0C883248F088EA92E168E271E023
:1041C0000E944DBB83E090E0DFCFE82FF0E0EE0FE0
:1041D000FF1FEE0FFF1FE85BF34F10821182128268
:1041E00013828DE2D81639F48FEF9FEF9093490C2C
:1041F0008093480C81C081E090E09093490C8093BB
:10420000480C8D2D90E0C097AA2797FDA095BA2F56
:1042100080839183A283B3836FC09A3038F5609115
:104220004B0CC62FD0E0CC0FDD1FCC0FDD1FC85BC1
:10423000D34FED2CFF24E0EDFFEFEE0EFF1E002725
:10424000F7FC0095102F688179818A819B812AE093
:1042500030E040E050E00E9487C6E60EF71E081FDF
:10426000191FE882F9820A831B8346C0F0E2DF1639
:1042700021F08DE0D81609F03FC08091450C8053A5
:104280008A30F8F400914B0C0023D9F010E0000FB5
:10429000111F000F111F085B134F2091480C309124
:1042A000490C442737FD4095542FF80160817181F6
:1042B000828193810E9487C6F80160837183828323
:1042C0009383FDE0DF16C1F402C010924A0C84E62D
:1042D00090E05ACF8AE0D81679F48091450C8D3061
:1042E00059F480914A0C1092470C1092460C05C06C
:1042F0001092470C1092460C80E0D092450CDF9152
:10430000CF911F910F91FF90EF90DF900895EF9262
:10431000FF920F931F93CF93DF93EC017A018B01F0
:10432000888183FF14C08981882331F088EA92E173
:104330002AE030E00E9412BB8A81882341F08B8101
:104340009C81B801A7012AE030E00E9412BBDF91F6
:10435000CF911F910F91FF90EF900895EF92FF92F0
:104360000F931F93CF93DF93EC017A018B01888128
:1043700084FF14C08981882331F088EA92E12AE021
:1043800030E00E9412BB8A81882341F08B819C819E
:10439000B801A7012AE030E00E9412BBDF91CF9163
:1043A0001F910F91FF90EF900895EF92FF920F935E
:1043B0001F93CF93DF93EC017A018B01888184FFF7
:1043C00014C08981882331F088EA92E12AE030E044
:1043D0000E948BBA8A81882341F08B819C81B8012D
:1043E000A7012AE030E00E948BBADF91CF911F91A4
:1043F0000F91FF90EF900895EF92FF920F931F930C
:10440000382F562F742FE22F78018CE895E0632F18
:10441000452F272F0E2F0E9429A81F910F91FF9043
:10442000EF900895EF92FF920F931F93382F562F1E
:10443000742FE22F78018CE895E0632F452F272F0A
:104440000E2F0E9429A81F910F91FF90EF900895C1
:104450008F929F92AF92BF92CF92DF92EF92FF9294
:104460000F931F93B82EA62E942E822E680188ECEF
:1044700094E06B2D4A2D292D082D76010E9429A844
:104480008AE295E06B2D4A2D292D0E9429A81F91C3
:104490000F91FF90EF90DF90CF90BF90AF909F90E3
:1044A0008F9008950F931F93BC010CE110E1C80198
:1044B0000E94E70DC8011F910F9108954F925F92DE
:1044C0007F928F929F92AF92BF92CF92DF92EF92A4
:1044D000FF920F931F93DF93CF93CDB7DEB7CB57E8
:1044E000D0400FB6F894DEBF0FBECDBF782E4B0183
:1044F0002A01EC960CAF1DAF2EAF3FAFEC97F8E062
:10450000CF2ED12CCC0EDD1EC6016FE371E00E94D0
:10451000F5BD0E94A6B4AB01BC017E010894E11C6C
:10452000F11CC7012AE00E9428BEC601B7010E9403
:10453000A4BD66E471E00E9488BDBC018E01015FEC
:104540001F4FC8010E94D4BE8EE19CE0B8010E94BA
:10455000961CC8010E94E5BEC7010E94DFBEC601CD
:104560000E94E5BE83E0871520F081E07816B0F563
:1045700009C084E0781609F473C085E0781609F064
:10458000FEC0A9C08EE891E00E945222BC01EDE17C
:10459000CE2ED12CCC0EDD1EC6010E94F5BD56E1FB
:1045A000E52EF12CEC0EFD1EC701B4014AE00E947D
:1045B0005ABEC601B7010E94A4BD66E471E00E9424
:1045C00088BD8C01C2010E945222BC01C8010E9418
:1045D00088BDBC018E010C5D1F4F6DC083E991E069
:1045E0000E945222BC0142E3A42EB12CAC0EBD1E8F
:1045F000C5010E94F5BD3BE2C32ED12CCC0EDD1EC1
:10460000C601B4014AE00E945ABEC501B6010E942B
:10461000A4BD6AE471E00E9488BD8C0129E3E22E0A
:10462000F12CEC0EFD1E672D70E061507040C7014B
:104630004AE00E945ABEC801B7010E94A4BD66E4C8
:1046400071E00E9488BD8C01C2010E945222BC010F
:10465000C8010E9488BDBC018E01005C1F4F7BC059
:1046600088E991E00E945222BC019EE4C92ED12C1F
:10467000CC0EDD1EC6010E94F5BD87E4E82EF12CAC
:10468000EC0EFD1EC701B4014AE00E945ABEC601ED
:10469000B7010E94A4BD66E471E00E9488BD8C0150
:1046A000C2010E945222BC01C8010E9488BDBC0107
:1046B0008E010B5A1F4FC8010E94D4BE8EE19CE0B0
:1046C000B8010E94961CC8010E94E5BEC7010E9465
:1046D000DFBEC60152C08DE991E00E945222BC01AA
:1046E00003E6A02EB12CAC0EBD1EC5010E94F5BD87
:1046F0001CE5C12ED12CCC0EDD1EC601B4014AE052
:104700000E945ABEC501B6010E94A4BD64E571E0D5
:104710000E9488BD8C010E94F184BC01BAE6EB2E98
:10472000F12CEC0EFD1EC7014AE00E945ABEC801E2
:10473000B7010E94A4BD66E471E00E9488BD8C01AF
:10474000C2010E945222BC01C8010E9488BDBC0166
:104750008E010F581F4FC8010E94D4BE8EE19CE00D
:10476000B8010E94961CC8010E94E5BEC7010E94C4
:10477000DFBEC6010E94DFBEC5010E94E5BEEC9609
:104780006CAD7DAD8EAD9FADEC9728E23BE64EE67D
:104790005EEC0E946CC4882339F48EE19CE06DE5E8
:1047A00071E00E94DF1A26C080911E0C83FF22C098
:1047B00080911F0C882361F088EA92E1EC964CAD61
:1047C0005DAD6EAD7FADEC9722E030E00E94E9BBBD
:1047D0008091200C882371F08091210C9091220C03
:1047E000EC964CAD5DAD6EAD7FADEC9722E030E068
:1047F0000E94E9BBC558DF4F0FB6F894DEBF0FBE6D
:10480000CDBFCF91DF911F910F91FF90EF90DF907F
:10481000CF90BF90AF909F908F907F905F904F9080
:1048200008950F931F9308E21BE62EE63EEC0E94CC
:104830005E221F910F910895EF92FF920F931F93A5
:10484000F82EE62E8A0182E19EE00E945222BC01EF
:104850008EE19CE00E94E01F8EE19CE06F2D0E94A3
:10486000471F8BE19EE00E945222BC018EE19CE03A
:104870000E94E01F8EE19CE06E2D0E94471F85E2A2
:104880009EE00E945222BC018EE19CE00E94E01F4B
:104890008EE19CE0F801608140E150E00E94661FDB
:1048A0008FE29EE00E945222BC018EE19CE00E94B9
:1048B000E01F8EE19CE0F801618140E150E00E9440
:1048C000661F89E39EE00E945222BC018EE19CE0BB
:1048D0000E94E01F8EE19CE0F801628140E150E01F
:1048E0000E94661F83E49EE00E945222BC018EE17A
:1048F0009CE00E94E01F8EE19CE0F801638140E1B2
:1049000050E00E94661F8DE49EE00E945222BC018E
:104910008EE19CE00E94E01F8EE19CE0F801648142
:1049200040E150E00E94661F87E59EE00E9452220F
:10493000BC018EE19CE00E94E01FE0904B04F090EF
:104940004C0400914D0410914E0480911E0C80FF88
:104950001AC080911F0C882341F088EA92E1B801C7
:10496000A7012AE030E00E948BBA8091200C8823B6
:1049700051F08091210C9091220CB801A7012AE0FE
:1049800030E00E948BBA80911E0C80FF16C080918F
:104990001F0C882331F088EA92E16DE571E00E94F6
:1049A000FDBB8091200C882341F08091210C9091D7
:1049B000220C6DE571E00E94FDBB1F910F91FF90ED
:1049C000EF9008950F931F93CF93DF93EC018B012A
:1049D000888184FF0FC08981882321F088EA92E1D1
:1049E0000E94AFB98A81882329F08B819C81B8010C
:1049F0000E94AFB9DF91CF911F910F9108950F934E
:104A00001F93CF93DF93EC018B01888183FF0FC04D
:104A10008981882321F088EA92E10E94F0B98A8195
:104A2000882329F08B819C81B8010E94F0B9DF9125
:104A3000CF911F910F9108952F923F924F925F92C5
:104A40006F927F928F929F92AF92BF92CF92DF929E
:104A5000EF92FF920F931F93DF93CF93CDB7DEB703
:104A60002E970FB6F894DEBF0FBECDBF8EE19CE04F
:104A70006CE67EE00E94FF2488249924BBEFAB2ED5
:104A8000B1E0BB2E8A9C80018B9C100D9A9C100D6E
:104A900011240C5F194FC8010E949F8A6B017C0191
:104AA000C8010E94AF8AAB01BC01C8010E94978A6D
:104AB000C801B701A6010E94A78A0894811C911C15
:104AC00023E082169104F1F61E821D828D819E8163
:104AD0000E94EC848D819E81EAE1F0E08E9F70015E
:104AE0008F9FF00C9E9FF00C112420E534E0E20E25
:104AF000F31EC7010E9405852C01009709F4AAC086
:104B00009E878D878C01000F111F000F111FC80198
:104B10000E94100C9A873C018987C8010E94100CE2
:104B20009B874C018887C8010E94100C9C875C0100
:104B30008F83B20161507040C7010E942A8569834A
:104B40007A838B839C8322243324CC24DD2435C0B8
:104B5000C7016D857E850E942A859B01AC0183017A
:104B60000C0D1D1D69817A818B819C810E9407C477
:104B7000F8016083718382839383C7016D857E858D
:104B80000E946585F401EC0DFD1D608371838283B5
:104B90009383C7016D857E850E94A085F501EC0D8C
:104BA000FD1D905860837183828393830894211C38
:104BB000311C24E030E0C20ED31E8D859E85019706
:104BC0009E878D87241435041CF2C7010E94268518
:104BD000C7010E946185C7010E949C85C701B2017F
:104BE0000E946F8700E010E0CC24DD2424C0F30194
:104BF000EC0DFD1D4081518162817381C7010E94CE
:104C00000985F401EC0DFD1D4081518162817381A4
:104C1000C7010E943C85F501EC0DFD1D40815181CD
:104C200062817381C7010E9477850F5F1F4FE4E0A7
:104C3000F0E0CE0EDF1E04151505CCF289859A85AD
:104C40000E94BA0C88859B850E94BA0C8F819C8536
:104C50000E94BA0C2D813E812F5F3F4F3E832D83F2
:104C60002330310509F032CF2E960FB6F894DEBF0F
:104C70000FBECDBFCF91DF911F910F91FF90EF90AD
:104C8000DF90CF90BF90AF909F908F907F906F906C
:104C90005F904F903F902F9008950F931F93CF9365
:104CA000DF93EC018B01888184FF0FC08981882309
:104CB00021F088EA92E10E94F0B98A81882329F0E4
:104CC0008B819C81B8010E94F0B9DF91CF911F9137
:104CD0000F910895EF92FF920F931F93E82E8EE1AC
:104CE0009CE068E073E10E944D2680910F048823C8
:104CF000F1F08EE19CE06EED72E10E944D26EE2017
:104D000021F080910B10882371F580910E04813081
:104D100039F48EE19CE06BEA72E10E944D261AC0E4
:104D20008EE19CE061E872E10E944D261CC0E0909B
:104D30002603F090270300E010E08FEE95E00E943C
:104D40007BA3E616F7060807190798F080910B1069
:104D5000882379F481E008C090910B10911191E0C3
:104D600081E0892701C080E01F910F91FF90EF90B3
:104D700008950E94A6B47B018C0180910710909148
:104D80000810A0910910B0910A10E81AF90A0A0B4C
:104D90001B0B8FEE95E00E947BA3209126033091A0
:104DA000270340E050E0621B730B840B950BE61663
:104DB000F70608071907B8F2CFCF0F931F93DF93B9
:104DC000CF93CDB7DEB727970FB6F894DEBF0FBEEF
:104DD000CDBF80934F0480911E0C83FF16C080913D
:104DE0001F0C882331F088EA92E166EA7EE00E9497
:104DF000AFB98091200C882341F08091210C9091D3
:104E0000220C66EA7EE00E94AFB98E010F5F1F4F51
:104E1000C80160914F044AE00E948BBE80911E0C35
:104E200083FF16C080911F0C882329F088EA92E145
:104E3000B8010E9444BC8091200C882349F08091E5
:104E4000210C9091220CBE016F5F7F4F0E9444BCE9
:104E5000CE0101960E94DFBE80914F048823C9F0E5
:104E600084E096E040E050E060E070E00E946189FC
:104E70008FEF97E040E050E060E070E00E946189D1
:104E80008AEF99E040E050E060E070E00E946189C4
:104E900003C080E00E94691127960FB6F894DEBF28
:104EA0000FBECDBFCF91DF911F910F9108950F934A
:104EB0001F93CF93DF93EC018B01888184FF0FC098
:104EC0008981882321F088EA92E10E9444BC8A818A
:104ED000882329F08B819C81B8010E9444BCDF911A
:104EE000CF911F910F9108952F923F924F925F9211
:104EF0006F927F928F929F92AF92BF92CF92DF92EA
:104F0000EF92FF920F931F93DF93CF9300D000D0C7
:104F10000F92CDB7DEB7D82E6D8380911004882311
:104F200009F455C02D2D30E08BEF91E0AC01249FAA
:104F3000C001259F900D349F900D11248C5F994FD7
:104F40000E9418933B014C018FEE95E00E948FA3C5
:104F50007C018FEE95E00E9497A31B012C018FEE40
:104F600095E00E9493A35C01C401B30120E030E00E
:104F70004AEF55E40E9470C420E030E04AE754E470
:104F80000E94BFC53B014C0100E010E0CC24DD24B1
:104F9000EA0CFB1C0C1D1D1DE20CF31C041D151D51
:104FA000C801B7010E9409C59B01AC01C401B3014E
:104FB0000E9407C40E94DDC4AB01BC018FEE95E0E6
:104FC0000E9475A35D81552309F0B4C0B5C00E944D
:104FD000CC8A882309F04DC08FEE95E00E947BA318
:104FE0007B018C018FEE95E00E948FA33C018FEE38
:104FF00095E00E9497A31B012C018FEE95E00E9483
:1050000093A35C012D2D30E08BEF91E0FC012E9FEE
:10501000C0012F9F900D3E9F900D11248C5F994FE2
:105020000E94189369837A838B839C8388249924B4
:10503000E618F70808091909E218F3080409150920
:10504000CC24DD24EA18FB080C091D09C801B701AE
:105050000E9409C520E030E04AE754E40E9470C491
:105060009B01AC0169817A818B819C810E9470C413
:1050700014C00E94CC8A882391F08D2D90E02BEFF4
:1050800031E0AC01429FC001439F900D529F900DB3
:1050900011248C5F994F0E9418937B018C018EE143
:1050A0009CE06EE27FE00E94E2248EE19CE0B80189
:1050B000A7010E94B31CC801B70120E030E04AE715
:1050C00056E40E94BBC5882344F08EE19CE064E175
:1050D0007FE00E944D2680E032C05D81552361F162
:1050E000C801B70120E030E04AEF55E40E94BBC59B
:1050F000882364F0C801B70120E030E04AE756E4B5
:105100000E946CC4882314F484E019C0C801B7015C
:1051100020E030E04AEF55E40E946CC4882374F428
:10512000C801B70120E030E04AE755E40E94BBC562
:10513000181624F488E003C081E001C080E10F90DC
:105140000F900F900F900F90CF91DF911F910F91C3
:10515000FF90EF90DF90CF90BF90AF909F908F9097
:105160007F906F905F904F903F902F900895CF92D7
:10517000DF92EF92FF920F931F93DF93CF930F92E3
:10518000CDB7DEB7D82EC62E8EE19CE066EF7EE06E
:105190000E944D260E94A6B480912F04882309F016
:1051A0004DC0ED2CFF248BEF91E0E89E8001E99E3D
:1051B000100DF89E100D11240C5F194FC8010E94AC
:1051C000F1888823D9F58D2D61E00E947427682F1E
:1051D000CC2021F0882339F161E025C0882311F427
:1051E0006FEF21C08983C8010E949B99C701880F76
:1051F000991F9C0113E0220F331F1A95E1F7820FCC
:10520000931F4C96BE016F5F7F4F0E945A188EE12C
:105210009CE06FED7EE00E94E2248EE19CE06981DB
:105220000E94091F6981862F0F90CF91DF911F91F6
:105230000F91FF90EF90DF90CF9008958EE19CE06A
:1052400061EB7EE00E944D2660E0EDCF60E00E94C1
:10525000B728089560E00E9474270895EF92FF92A6
:105260001F93CF93DF9310E0C0E0D0E081E0E82E01
:10527000F12C8C2F0E942A29813041F4C7010C2E79
:1052800002C0880F991F0A94E2F7182B2196C330A9
:10529000D10579F7812FDF91CF911F91FF90EF908A
:1052A000089590E02BEF31E0AC01429FC001439F95
:1052B000900D529F900D11248C5F994F0E949888F9
:1052C0000895EF92FF921F93CF93DF9310E0C0E019
:1052D000D0E091E0E92EF12C8C2F0E9451298130F1
:1052E00041F4C7010C2E02C0880F991F0A94E2F7FF
:1052F000182B2196C330D10579F7812FDF91CF91FB
:105300001F91FF90EF9008950F931F93DF93CF931A
:105310000F92CDB7DEB76983082F10E08BEF91E0D5
:10532000AC01049FC001059F900D149F900D1124A6
:105330008C5F994F0E948195000F111FC80123E0D7
:10534000880F991F2A95E1F7080F191FC8014D967C
:10535000BE016F5F7F4F0E946D180F90CF91DF915C
:105360001F910F9108952F923F924F925F926F92EB
:105370007F928F929F92AF92BF92CF92DF92EF92E5
:10538000FF920F931F93DF93CF93CDB7DEB7629752
:105390000FB6F894DEBF0FBECDBF80E090E062E2B2
:1053A00073E00E94291882E090E067E173E04AE030
:1053B0000E940EAA82E490E066E074E00E942D183C
:1053C00083E490E068E074E00E942D1884E490E0AB
:1053D00067E074E00E942D1880910604823010F07E
:1053E0001092060480910804823010F01092080494
:1053F00080910704823010F01092070419821A82FB
:105400001B821C821D821E821F82188619861A86A4
:105410001B861C861D861E861F86188A198A1A8A74
:10542000F7E1AF2EF4E0BF2ECC24DD24ECE1EE2E2C
:10543000F12C77E0272E312C2C0E3D1E6BE0462EF2
:10544000512C4C0E5D1E5FE0652E712C6C0E7D1E86
:105450004BEF842E41E0942EC701BE016F5F7F4F5A
:105460000E942D18C7010196BE016E5F7F4F0E94FA
:105470003118C7014097BE016D5F7F4F0E943518FC
:10548000C7010897B1010E943518C7010497B201FE
:105490000E943518C7010C97B3010E943518C89CAB
:1054A0008001C99C100DD89C100D11240C5F194F60
:1054B000C80169810E949B99C8016A810E948195F7
:1054C00080910604882339F04B815C816D817E8157
:1054D000C8010E94B78A80910804882371F04F8127
:1054E000588569857A85C8010E94978A4B855C85B5
:1054F0006D857E85C8010E94A78A80910704882354
:1055000049F08F859889A989BA89F50180839183AB
:10551000A283B3830894C11CD11C82E190E0E80E01
:10552000F91EE4E0F0E0AE0EBF1EF3E0CF16D104AA
:1055300009F092CF02E410E0B80164587F4EC80130
:105540000E9425180F5F1F4F01351105A9F76296BC
:105550000FB6F894DEBF0FBECDBFCF91DF911F9184
:105560000F91FF90EF90DF90CF90BF90AF909F9002
:105570008F907F906F905F904F903F902F90089505
:1055800080910206882331F08091FE10882391F0EB
:105590001092FE1080910C04873041F080910D0430
:1055A000873021F085EF9BE062E00AC085EF9BE049
:1055B00066E006C081E08093FE1085EF9BE064E02A
:1055C0000E9433A30895843051F48EE19CE062E0A0
:1055D00075E10E944D2685EF9BE064E014C08230A7
:1055E000A9F48EE19CE06DEE74E10E944D2680915D
:1055F0001104909112040196909312048093110467
:1056000085EF9BE065E00E9433A30895863011F496
:105610000E94C02A089585EF9BE060E00E9433A3BA
:105620008FEE95E00E9454A4089584E096E00E94D5
:10563000F188882361F48FEF97E00E94F188882336
:1056400031F48AEF99E00E94F1888823F9F0809183
:1056500015048823D9F482E00E949F1584E096E027
:105660000E943789AC0160E070E082E291E10E9423
:10567000227E82E291E16DEF71E32FEF3FEF4FEF7A
:105680005FEF0E94397E81E08093150408954F9268
:105690005F926F927F928F929F92AF92BF92CF92C2
:1056A000DF92EF92FF920F931F93CF93DF93582EC9
:1056B0003A014B01422E222309F042C0282F30E04C
:1056C0008BEF91E0289F6001299FD00C389FD00C70
:1056D000112484E096E0C80ED91EC60164E00E9441
:1056E0009B99C6010E946788E82EC6010E946C88BB
:1056F0005C01C401B3010E940BC53B014C01FF24B6
:1057000000E010E0C801B7010E9409C57B018C01CF
:10571000CC24B7FCC094DC2CC601B5010E940BC59B
:105720009B01AC01C801B7010E9470C49B01AC0190
:10573000C401B3010E94BFC50E94D8C43B014C0103
:105740008EE19CE06DE57EE00E94E2248EE19CE02B
:10575000652D0E94871F8EE19CE06EE571E00E943E
:10576000FD1F8EE19CE0B401A3010E94AE21252D16
:1057700030E08BEF91E0289FE001299FD00D389F0A
:10578000D00D1124CC5FD94FCE010E940689A0E034
:10579000B0E0BC01CD010E9409C5AB01BC01CE0146
:1057A0000E946189CE01B401A30121E00E94B09D55
:1057B0008EE19CE06CE671E00E94FD1FCE010E942C
:1057C000A788AB01BC018EE19CE00E94B31C8EE176
:1057D0009CE064E771E00E94FD1FCE010E94B68844
:1057E000682F8EE19CE00E94091F0E94152B442027
:1057F00021F4CE0161E00E947994DF91CF911F9155
:105800000F91FF90EF90DF90CF90BF90AF909F905F
:105810008F907F906F905F904F90089520E00E944E
:10582000472B08950F931F9390E02BEF31E0829F59
:105830008001839F100D929F100D11240C5F194F52
:10584000C80164E00E949B99C8010E940689A0E0FB
:10585000B0E0BC01CD010E9409C5AB01BC01C8018B
:105860000E946189C8010E94FC9D0E94152BC801FD
:1058700061E00E9479941F910F91089584E096E071
:105880000E94F1888823A1F48FEF97E00E94F188AD
:10589000882371F48AEF99E00E94F188882341F40B
:1058A0000E94122C81E00E94122C82E00E94122C95
:1058B00008956F927F928F929F92AF92BF92CF92F4
:1058C000DF92EF92FF920F931F93CF93DF9390E0BD
:1058D0002BEF31E0829FE001839FD00D929FD00D8E
:1058E0001124CC5FD94FCE010E94AF8A7B018C017D
:1058F000CE010E949F8A5B016C01CE010E949F8AAB
:105900003B014C01CE010E94BF8A30E0EA18FB083F
:105910000C091D091E141F04100611060CF431E0B9
:1059200020E0661A770A880A990A161417041804E0
:1059300019040CF421E0321719F0CE0161E002C025
:10594000CE0160E00E943994CE0164E00E949B99F0
:10595000CE010E940689A0E0B0E0BC01CD010E940A
:1059600009C5AB01BC01CE010E946189CE010E9434
:105970000A9E0E94152BCE0161E00E947994DF916E
:10598000CF911F910F91FF90EF90DF90CF90BF903C
:10599000AF909F908F907F906F90089584E096E0F5
:1059A0000E94F1888823A1F48FEF97E00E94F1888C
:1059B000882371F48AEF99E00E94F188882341F4EA
:1059C0000E94592C81E00E94592C82E00E94592C9F
:1059D00008952F923F924F925F926F927F928F9293
:1059E0009F92AF92BF92CF92DF92EF92FF920F936E
:1059F0001F93DF93CF9300D000D000D0CDB7DEB798
:105A000049835A836B837C832BEF31E0829FA00113
:105A1000839F500D929F500D11244C5F594F5E8310
:105A20004D83CA010E949D887B018C0169817A8126
:105A30008B819C8120E030E040E050E00E94BBC5BB
:105A400018162CF4A980BA80CB80DC8008C0A9800D
:105A5000BA80CB80DC80D7FAD094D7F8D0948D81EF
:105A60009E810E940689A0E0B0E0BC01CD010E94A9
:105A700009C59B01AC01C601B5010E94BBC5181642
:105A80002CF0A980BA80CB80DC8029C069817A8122
:105A90008B819C8120E030E040E050E00E946CC4AB
:105AA00088238CF48D819E810E940689A0E0B0E05D
:105AB000BC01CD010E9409C55B016C01D7FAD094ED
:105AC000D7F8D0940CC08D819E810E940689A0E0F9
:105AD000B0E0BC01CD010E9409C55B016C018D8164
