:100000000C94E30B0C9499B30C94CAB30C94FBB30B
:100010000C942CB40C945DB40C948EB40C94BFB4BA
:100020000C94F0B40C940E0C0C94B2AD0C940E0C19
:100030000C940E0C0C940E0C0C940E0C0C94187E5C
:100040000C940E0C0C940E0C0C940E0C0C940E0CC8
:100050000C94467E0C940E0C0C940E0C0C9421B552
:100060000C940E0C0C945CB70C9455B90C940E0CBB
:100070000C940E0C0C940E0C0C940E0C0C94FC7F37
:100080000C94697F0C94AF800C940E0C0C940E0CA5
:100090000C940E0C0C940E0C9554B154DB54F75484
:1000A0001D558455AA55CE55E655175647566D56DB
:1000B000C956ED566A579057B657135845586D585C
:1000C0009158B558C058CB58CE5EF2582C593E596D
:1000D0005B5978599159B759CE5ECE5ECE5ECE5EF1
:1000E000CE5ECE5ED659FF59235ACE5ECE5ECE5E30
:1000F000CE5ECE5ECE5ECE5E475A5F5A8E5ACE5EE2
:10010000CE5ECE5ECE5ECE5ECE5ECE5ECE5ECE5E8F
:10011000CE5ECE5ECE5ECE5ECE5ECE5ECE5ECE5E7F
:10012000CE5ECE5ECE5ECE5ECE5ECE5ECE5ECE5E6F
:10013000CE5ECE5ECE5ECE5ECE5ECE5ECE5ECE5E5F
:10014000CE5ECE5ECE5ECE5ECE5ECE5ECE5ECE5E4F
:10015000CE5ECE5ECE5ECE5ECE5ECE5E315B575B59
:100160007C5BA25BC85BF15B115C525C785C975C6A
:10017000BA5CE05C015D275D485D695D8A5DAB5DF1
:10018000C65DDD5DFE5D115E375E4F5E7A5E476582
:100190006E2E004D6F742E0043616D2E004B662E47
:1001A0000056656C206F66207265717565737465A5
:1001B00064204B463A2000506F73206F66207265B2
:1001C00071756573746564204B463A200054696DFF
:1001D00065206F6620726571756573746564204B68
:1001E000463A200050726F672E202520636F6D7095
:1001F0006C6574653A20004D61782070726F67728B
:10020000616D2074696D652028696E636C2E2073A2
:10021000746172742064656C6179293A20004B46E0
:100220002043757272656E742072756E2074696DEC
:10023000653A200052756E2073746174653A20002F
:10024000436F6E742E2076696420647572617469E0
:100250006F6E3A2000416363656C2076616C69645F
:100260003A200056656C2076616C69643A20004142
:100270006363656C2061742074696D6520783A2031
:100280000056656C2061742074696D6520783A2091
:1002900000506F736974696F6E2061742074696DAA
:1002A0006520783A20004D6F746F722076656C205F
:1002B000757064617465207261746520286D73299E
:1002C0003A20004B6579206672616D6520636F7519
:1002D0006E743A200054616B696E672075702062FD
:1002E00061636B6C6173680053746F7070696E67E3
:1002F000206B662070726F6772616D00506175735C
:10030000696E67206B662070726F6772616D005254
:10031000756E6E696E672F726573756D696E672095
:100320006B662070726F6772616D005365747469DB
:100330006E6720636F6E742E207669642E206D6F59
:1003400076652074696D653A2000456E64696E6754
:10035000204B46207472616E736D697373696F6EA2
:100360000053657474696E672075647061746520EC
:10037000726174653A200053657474696E67207603
:10038000656C6F636974793A200053657474696EA3
:100390006720706F736974696F6E3A2000536574DB
:1003A00074696E672061627363697373613A2000D8
:1003B00053657474696E67206B6579206672616D30
:1003C0006520636F756E743A200053656C656374C5
:1003D000696E6720617869733A200041766F6964BD
:1003E000206F66667365743A2000496E7465727694
:1003F000616C6F6D65746572206D6F64653F203A46
:1004000020004B6565702D616C6976653F203A2050
:100410000054657374206D6F64653F203A2000536B
:10042000686F74732066697265643A2000496E745F
:10043000657276616C2074696D653A20004D697251
:10044000726F722075703F203A2000466F6375739B
:1004500020772F20736875747465723F203A2000EE
:1004600044656C61792074696D653A20004D61784E
:100470002073686F74733A2000466F63757320743D
:10048000696D653A20005472696767657220746906
:100490006D653A200042757379206578706F7369D5
:1004A0006E673F203A2000456E61626C65643F20B4
:1004B0003A200053657474696E6720696E746572C2
:1004C00076616C6F6D65746572206D6F64653A203E
:1004D0000053657474696E67206B6565702D616C7F
:1004E0006976653A200053657474696E6720746597
:1004F0007374206D6F64653A200053657474696E7F
:100500006720696E74657276616C2074696D653AF6
:10051000200053657474696E67207265706561743C
:10052000206379636C65733A200053657474696E57
:100530006720666F63757320772F206578706F73FF
:100540007572653A200053657474696E672064653E
:100550006C61792074696D653A2000536574746923
:100560006E67206D61782073686F74733A20005352
:10057000657474696E6720666F6375732074696D46
:10058000653A200053657474696E672074726967F8
:100590006765722074696D653A20004578706F73E5
:1005A000696E67206E6F77210053657420656E61F8
:1005B000626C65643A200049732073656E64696EED
:1005C000673F3A2000506C6174666F726D207261F3
:1005D00074696F3A200047656172626F78207261BA
:1005E00074696F3A2000556E697420636F64653AD0
:1005F0002000436865636B696E6720322D7074203C
:1006000076656C2076616C69646974793A20004C77
:100610006561642D6F75743A200049732070726FA4
:100620006772616D2076616C69643F203A200053E7
:100630006C6565703A200050726F6772616D20645E
:100640006563656C206C656E6774683A2000507253
:100650006F6772616D20616363656C206C656E67A6
:1006600074683A20004C6561642D696E3A2000542C
:10067000726176656C206C656E6774683A20005311
:10068000746F7020706F733A20005374617274201D
:10069000706F733A2000456173696E673A200041BC
:1006A0006363656C3A200053706565643A200052BC
:1006B000756E6E696E673F203A20004375727265F1
:1006C0006E7420706F733A2000456E6420706F73F3
:1006D0003A20004D61782073706565643A200044CB
:1006E0006972656374696F6E3A20004D6963726F59
:1006F00073746570733A20004261636B6C61736858
:100700003A2000456E61626C65643A20005365745E
:1007100074696E672073746F702D6D6F74696F6E7E
:10072000206D6F64653A200053657474696E6720AC
:10073000706C6174666F726D20726174696F3A20BB
:100740000053657474696E672067656172626F78C3
:1007500020726174696F3A200053657474696E6722
:1007600020756E6974733A200053657474696E67FE
:1007700020656E6420706F736974696F6E20746F8A
:100780003A200053657474696E67206375727265F0
:100790006E7420706F736974696F6E20746F3A2085
:1007A0000053656E64696E6720746F3A200053656C
:1007B0007474696E672073746F7020686572650069
:1007C00053657474696E6720737461727420686510
:1007D0007265004175746F2D73657474696E67205E
:1007E0006D6963726F7374657073005265736574BD
:1007F000696E67206C696D69747320616E64207323
:10080000746172742F73746F7020706F696E74737B
:100810000053657474696E67206C656164206F7540
:10082000743A200053656E64696E6720746F20739C
:10083000746F70200053656E64696E6720746F205A
:1008400073746172740053657474696E67206465B3
:1008500063656C206C656E6774683A20005365743C
:1008600074696E6720616363656C206C656E677484
:10087000683A200053657474696E672074726176FB
:10088000656C206C656E6774683A200053657474FB
:10089000696E67206C6561642D696E3A200053654E
:1008A0007474696E6720656173696E67206D6F642B
:1008B000653A200053657474696E672073746F70B5
:1008C0003A200053657474696E67207374617274A2
:1008D0003A2000436F6D6D616E64656420737465CA
:1008E00070733A200053657474696E6720616363A6
:1008F000656C65726174696F6E3A2000536574743B
:10090000696E6720636F6E742E2073706565643A3C
:10091000200053657474696E67206A6F7973746917
:10092000636B2073706565643A200053656E64697B
:100930006E6720746F20656E640053656E64696E27
:100940006720746F20686F6D650053657474696EFD
:100950006720656E6420686572653A20005365748F
:1009600074696E6720686F6D6520686572650053F5
:10097000657474696E6720646972656374696F6E0B
:100980003A200053657474696E67206D6178207336
:10099000706565643A200053657474696E67206DF4
:1009A0006963726F73746570733A20005365747471
:1009B000696E67206261636B6C6173683A200053F3
:1009C000746F7070696E67206D6F746F720053651D
:1009D0007474696E6720656E61626C653A200053BD
:1009E000657474696E6720736C6565703A20005297
:1009F000756E696E672073656C6620646961676EE9
:100A00006F737469630046726565206D656D6F7202
:100A1000793A20004772616666696B206D6F646584
:100A20003A200050726F6772616D2072756E20738C
:100A300074617475733A2000436F6E74726F6C6CDE
:100A4000657220636F756E743A2000456E64207085
:100A50006F7320726573746F72653A20005374610E
:100A600072742F73746F7020706F7320726573745B
:100A70006F72653A200043757220706F7320726543
:100A800073746F72653A2000416C6C206D6F746FE7
:100A90007220736C656570207374617465733A209D
:100AA0000050726F6772616D2076616C69643F3AC5
:100AB0002000416E79206D6F746F72732072756EB5
:100AC0006E696E673F3A200046505320666C61673E
:100AD0003A200049732070726F6772616D20636FF6
:100AE0006D706C6574653F3A2000546F74616C20C2
:100AF00070726F6772616D2074696D653A20005481
:100B00006F74616C2070726F6772616D2074696DB3
:100B1000653A20002520436F6D706C6574653A203E
:100B2000005761746368646F67206D6F64653F2070
:100B30003A200050696E67706F6E67206D6F646554
:100B40003A20004A6F79737469636B206D6F646536
:100B50003A2000506C616E20747970653A20005321
:100B6000746172742064656C61793A2000416C7420
:100B700020696E70757420656467652064657465AE
:100B80006374696F6E3A2000537570706C792063DE
:100B9000757272656E743A2000537570706C7920AE
:100BA000766F6C746167653A200043757272656E8A
:100BB000742072756E2074696D653A200052756EEE
:100BC000207374617475733A200053657474696E90
:100BD0006720617070206D6F64653A200053657402
:100BE00074696E67204772616666696B206D6F6419
:100BF000653A200053657474696E6720636F6E7484
:100C0000726F6C6C657220636F756E743A2000535E
:100C1000657474696E6720656E6420706F732072EE
:100C20006573746F72653A200053657474696E67FA
:100C30002073746172742F73746F7020706F7320DF
:100C4000726573746F72653A200053657474696ECF
:100C5000672063757220706F7320726573746F7292
:100C6000653A2000526576657273696E6720737409
:100C70006172742F73746F7020706F696E7473007B
:100C800053657474696E672046505320666C6167C3
:100C90003A200053657474696E672073746F702016
:100CA000706F73206865726520666F7220616C6C6E
:100CB000206D6F746F72732E2E2E0053656E6469F3
:100CC0006E67206D6F746F727320746F2073746120
:100CD000727420706F736974696F6E0053657474F9
:100CE000696E672070696E672D706F6E67206D6F1B
:100CF00064650053657474696E67206A6F797374F4
:100D000069636B206D6F64650053657474696E6709
:100D10002070726F6772616D206D6F64653A20009C
:100D200053657474696E67207374617274206465AE
:100D30006C61793A200053657474696E672077613D
:100D4000746368646F67206D6F64653A2000536553
:100D50007474696E67206C696D6974207377697447
:100D600063682065646765206D6F64653A20005391
:100D7000656E64696E6720616C6C206D6F746F7254
:100D80007320686F6D650053657474696E672061C8
:100D90006464726573733A2000546F67676C696EA0
:100DA00067206465627567204C45440053746F701A
:100DB00070696E672070726F6772616D0050617547
:100DC00073696E672070726F6772616D0053746132
:100DD0007274696E67202F20726573756D696E6716
:100DE0002070726F6772616D0053657474696E670D
:100DF000206E657720616464726573732100426CB4
:100E00007565746F6F746820004D6F636F42757302
:100E10002000537562616464723A0020636F6D6DE7
:100E2000616E643A00206275665B305D3A20002096
:100E30006275665B315D3A2000206275665B325DEB
:100E40003A2000206275665B335D3A2000206275AF
:100E5000665B345D3A200074696D65200053656EF1
:100E600064696E67206D6F746F72200072657665BD
:100E7000727365537461727453746F702829004DD6
:100E80006F742E3133202D204175746F2D73746172
:100E90007274696E6720636F6E74696E756F7573B7
:100EA000206D6F7665004A6F79737469636B3A20C1
:100EB000004D6F746F7273206172652072756E6E73
:100EC000696E672C2063616E2774206175746F2DC5
:100ED000736574206D6963726F737465707300520B
:100EE0006571756573746564204D6963726F7374A1
:100EF0006570733A2000547279696E6720746F20B0
:100F00006175746F2D736574206D6963726F73748E
:100F100065707300457863657373697665207370D7
:100F20006565642072657175657374656400546FDE
:100F30007020737065656420726571756573746582
:100F4000643A20004D6963726F73746570733A2060
:100F5000004F7574206F66206C6F6F7020616E6437
:100F6000206D6F76696E67206F6E21004D69637228
:100F70006F73746570733A200047657474696E67A7
:100F800020766964206D6F76652074696D653A20FE
:100F90000047657474696E6720544C206D6F7665E8
:100FA0002074696D653A2000536875747465722009
:100FB000646F6E652C20726561647920666F7220A3
:100FC0006D6F76650054696D652061742065787079
:100FD0006F737572653A200054696D6520617420E5
:100FE000666F6375733A20006B665F43616D65726F
:100FF00061436865636B2829202D204261696C6913
:101000006E672066726F6D2063616D65726120632B
:1010100079636C6520617420706F696E7420320092
:101020006B665F43616D657261436865636B282918
:10103000202D20536B697070696E672073686F7420
:101040002C2077616974696E6720666F72206578FD
:101050007465726E616C20747269676765720053A3
:10106000656E64696E6720746F200041626F7574ED
:1010700020746F2073656E6420746F206C6F6361E1
:1010800074696F6E20233A200053656E64696E6741
:10109000206D6F746F727320746F206E6577206C93
:1010A0006F636174696F6E73005374617274696EFB
:1010B00067206E6577206B6620626F756E636520B2
:1010C00070726F6772616D00526576657273696EDA
:1010D00067206B657920706F696E7473005374615B
:1010E0007274696E672070696E672D706F6E67200D
:1010F00070686173650053746F7070696E67206B00
:10110000662070726F6772616D00537461727469EA
:101110006E67206B65657020616C6976652070680C
:10112000617365005061757365206C656E677468E6
:101130003A200053544F5050494E47204B462050C0
:10114000524F4752414D0053746F7070696E672063
:101150006D6F746F72200050415553494E47204BBC
:10116000462050524F4752414D00204B462070724E
:101170006F6772616D005374617274696E67206E7F
:101180006577207479706520002A2A2A2056656CBC
:101190006F636974696573202A2A2A002A2A2A2023
:1011A000506F736974696F6E73202A2A2A002A2A85
:1011B0002A20416273636973736173202A2A2A00AB
:1011C000207E7E7E7E7E7E007E7E7E7E7E7E2041B6
:1011D0005849532000436F6E742E20766964656F02
:1011E0002074696D653A200050726F6772616D20DE
:1011F0006D6F64653A200050657263656E7420639C
:101200006F6D706C6574653A200043757272656E1F
:10121000742072756E2074696D653A200052756E87
:10122000207374617475733A20004D6178206D6F7E
:1012300076652074696D653A20004D6178206361A0
:101240006D6572612074696D653A20007E7E7E7ED8
:101250007E7E2047656E6572616C2050726F67728A
:10126000616D20506172616D73207E7E7E7E7E7E18
:10127000004175746F2070617573696E672121215B
:10128000006379636C6553686F744F4B2829202D78
:1012900020616C74466F72636553686F74206E6F63
:1012A00074206465746563746564006379636C6558
:1012B00053686F744F4B2829202D20616C74466F42
:1012C00072636553686F74206465746563746564E4
:1012D000202A2A2A2A2A2A2A2A2A2A2A2A0063791A
:1012E000636C6553686F744F4B2829202D20457817
:1012F000742E20696E74657276616C206D6F646502
:1013000020616374697665006379636C6553686F07
:10131000744F4B2829202D20456E74657220667508
:101320006E6374696F6E006379636C6543616D65AC
:1013300072612829202D205374617274696E6720B0
:101340006578706F73757265206379636C6500638F
:1013500079636C6543616D6572612829202D204396
:10136000616D65726120627573793A2000637963FB
:101370006C6543616D6572612829202D2042616989
:101380006C696E672066726F6D2063616D65726156
:10139000206379636C6520617420706F696E7420BE
:1013A00033004D6F746F7220006379636C65436125
:1013B0006D6572612829202D2053686F74733A205F
:1013C000006379636C6543616D6572612829202D26
:1013D000204261696C696E672066726F6D2063617F
:1013E0006D657261206379636C6520617420706F34
:1013F000696E742032006379636C6543616D657258
:10140000612829202D20536B697070696E672073E5
:10141000686F742C2077616974696E6720666F72DB
:101420002065787465726E616C2074726967676597
:1014300072006379636C6543616D65726128292070
:101440002D204261696C696E672066726F6D206342
:10145000616D657261206379636C652061742070D1
:101460006F696E742031006D73206F66206C65614A
:10147000642D6F75742072656D61696E696E6700A9
:101480006379636C6543616D6572612829202D2045
:1014900054686572652061726520006379636C65CC
:1014A00043616D6572612829202D20416C6C206D8F
:1014B0006F7420646F6E65206D6F76696E67006370
:1014C00079636C6543616D6572612829202D205018
:1014D000617573696E67006379636C6543616D65FF
:1014E00072612829202D2053746172740063616D2C
:1014F00043616C6C4261636B2829202D2053746F0B
:10150000700063616D43616C6C4261636B282920DC
:101510002D20537461727400206C656164496E3AC9
:1015200020002073686F74733A200020547970652E
:101530003A200020656E61626C653A200020727569
:101540006E6E696E673A200020656E64506F733A64
:1015500020002073746F70506F733A2000207374F2
:10156000617274506F733A2000206261636B6C612A
:1015700073683A200020636F6E74696E696F7573CB
:101580002053706565643A200043757272656E740D
:1015900020537465707320004F4D43616D65726117
:1015A0003A3A73746F702829202D2053657474693A
:1015B0006E672077616974207374617465004F4DA4
:1015C00043616D6572613A3A73746F702829202DFA
:1015D0002053746F7070696E6720666F6375730057
:1015E0004F4D43616D6572613A3A73746F7028298B
:1015F000202D2053746F7070696E67206578706F4E
:1016000073757265004F4D43616D6572613A3A734F
:10161000746F702829202D20456E746572696E677D
:101620002066756E6374696F6E001201100102000E
:101630000008EB03442001000102030109023E00FF
:10164000020100C032090400000102020100052469
:101650000010010424020605240600010705820388
:101660000800FF09040100020A0000000705040247
:1016700010000507058302100005040309042E036A
:10168000440079006E0061006D0069006300200075
:10169000500065007200630065007000740069000E
:1016A0006F006E0020004C004C00430000003C0323
:1016B000440079006E0061006D0069006300200045
:1016C00050006500720063006500700074006900DE
:1016D0006F006E00200043004400430020005300D0
:1016E00065007200690061006C0000000E033000AC
:1016F00030003400350037003300000000002100C6
:10170000240027002A002D003000000022002500C0
:1017100028002B002E0031000000200023002600AE
:1017200029002C002F000101010101010101020229
:10173000020202020202030303030303030304047D
:10174000040404040404050505050505050506064D
:101750000606060606060102040810204080010263
:10176000040810204080010204081020408001027B
:10177000040810204080010204081020408001026B
:10178000040810204080000000000000000000005D
:10179000000007030401000000000B0A0900020812
:1017A0000000000000000000000000000000000039
:1017B0000000000000000001020304050607F61700
:1017C00010B938BDEF1711241FBECFEFD0E2DEBF36
:1017D000CDBF14E0A0E0B1E0EEE2F0E901E00BBF24
:1017E00002C007900D92A034B107D9F71BBE13E1D8
:1017F000A0E4B4E001C01D92AF30B107E1F717E1FA
:10180000C4ECD7E104C02297FE010E94CFC7CE3BB3
:10181000D107C9F70E942BBA0C940AC80C94000097
:10182000CF93DF93BC018230910510F462E070E049
:10183000A0910713B0910813ED01E0E0F0E040E063
:1018400050E021C0888199818617970769F48A81C1
:101850009B81309719F09383828304C0909308137F
:1018600080930713FE0134C06817790738F44115D7
:10187000510519F08417950708F4AC01FE018A811F
:101880009B819C01E9012097E9F641155105A9F1D9
:10189000CA01861B970B049708F4BA01E0E0F0E058
:1018A0002AC08D919C91119784179507F9F46417BC
:1018B000750781F412968D919C911397309719F0CA
:1018C0009383828304C09093081380930713FD01D0
:1018D00032964CC0CA01861B970BFD01E80FF91F19
:1018E0006193719302978D939C9340C0FD01828117
:1018F00093819C01D9011097A1F6809105139091D5
:101900000613892B41F480914C0390914D039093E1
:1019100006138093051340914E0350914F034115D8
:10192000510541F44DB75EB780914A0390914B0346
:10193000481B590B2091051330910613CA01821BD5
:10194000930B8617970780F0AB014E5F5F4F8417AC
:10195000950750F0420F531F509306134093051301
:10196000F9016193719302C0E0E0F0E0CF01DF91F3
:10197000CF910895CF93DF93009709F450C0EC0105
:1019800022971B821A82A0910713B0910813109717
:1019900009F140E050E0AC17BD0708F1BB83AA8312
:1019A000FE0121913191E20FF31FAE17BF0779F4C9
:1019B0008D919C911197280F391F2E5F3F4F3983CE
:1019C000288312968D919C9113979B838A8341154E
:1019D000510571F4D0930813C093071320C01296D9
:1019E0008D919C911397AD01009711F0DC01D3CF3D
:1019F000FA01D383C28321913191E20FF31FCE17F5
:101A0000DF0769F488819981280F391F2E5F3F4FC6
:101A1000FA01318320838A819B8193838283DF91C2
:101A2000CF910895A0E0B0E0E8E1FDE00C94D5C7C7
:101A30006C01009729F4CB010E94100C6C01C1C00D
:101A40008EEF882E8FEF982E8C0C9D1C8601060F32
:101A5000171F0815190508F4B2C0F401A081B1815F
:101A6000A617B707B8F0A530B10508F4AAC0CD0194
:101A700004978617970708F4A4C01297A61BB70B04
:101A8000F801A193B193D4016D937C93CF010E948F
:101A9000BA0C97C07B01EA1AFB0AEEEFFFEFEE0EDD
:101AA000FF1E36016A0E7B1EC0910713D0910813EA
:101AB00044245524AA24BB244AC0C615D705E1F501
:101AC000488159814E155F05B8F1CA0104978E15FA
:101AD0009F05B0F41296A40FB51FF401B183A08343
:101AE0002A813B814114510431F0D20113963C9379
:101AF0002E93129766C0309308132093071361C08A
:101B00008A819B81F80193838283425050404E1911
:101B10005F09518340834114510431F0D20113967F
:101B20001C930E93129704C010930813009307138D
:101B3000F4017183608345C088819981A816B90634
:101B400008F45C012E018A819B819C01E9012097A8
:101B500009F0B3CF80910513909106138615970570
:101B6000E9F4A616B706D0F420914E0330914F0346
:101B70002115310541F42DB73EB780914A0390916C
:101B80004B03281B390B02171307C8F410930613D5
:101B900000930513D4016D937C9313C0CB010E9475
:101BA000100CEC01009759F0F40140815181B6010D
:101BB0000E94EE0DC6010E94BA0C6E0102C0CC2438
:101BC000DD24C601CDB7DEB7E0E10C94F1C7FB011F
:101BD000DC0105900D920020E1F70895FB01DC0186
:101BE00002C001900D9241505040D8F70895FB017A
:101BF000DC0101900D920020E1F70895FB019F01A7
:101C0000E8944230C4F04532B4F44A3029F497FBEA
:101C10001EF4909581959F4F642F77270E9469C786
:101C2000805D8A330CF0895D8193CB010097A1F729
:101C300016F45DE251931082C9010C948510FA01EB
:101C4000CF93FF93EF932230CCF02532BCF4C22F18
:101C50002C2F332744275527FF93EF930E9490C7DB
:101C6000EF91FF91605D6A330CF0695D6193B9019A
:101C7000CA01605070408040904051F710828F91AF
:101C80009F91CF910C948510FB019F01423074F01D
:101C9000453264F4642F77270E9469C7805D8A33D8
:101CA0000CF0895D8193CB010097A1F71082C901E7
:101CB0000C948510A0E0B0E0E0E6FEE00C94E3C7F1
:101CC0009E01275F3F4F8D819E816F817885A9019D
:101CD0000E94920E2096E2E00C94FFC7AEE0B0E0C6
:101CE000E4E7FEE00C94E1C70D891E8986E08C8351
:101CF0001A8309838FEF9FE79E838D839E01275E62
:101D00003F4FCE0101966F89788DA9010E94920EF6
:101D10002F813885020F131FF80110822E96E4E000
:101D20000C94FDC7ABE0B0E0E8E9FEE00C94D3C74B
:101D30003C012B015A01FC0117821682838181FD2F
:101D400003C06FEF7FEFC6C19AE0892E1E01089491
:101D5000211C311CF3012381F20123FD859123FF16
:101D600081912F01882309F4B2C1853239F423FD12
:101D7000859123FF81912F01853229F490E0B301F1
:101D80000E949510E7CF982FFF24EE249924FFE1BD
:101D9000FF15D0F09B3269F09C3228F4903259F054
:101DA000933291F40EC09D3249F0903369F441E0D2
:101DB00024C052E0F52A84E0F82A28C098E0F92AE5
:101DC00025C0E0E1FE2A22C0F7FC29C0892F8053FC
:101DD0008A3070F4F6FE05C0989C902C1124980E61
:101DE00015C0E89CE02C1124E80EF0E2FF2A0EC09A
:101DF0009E3229F4F6FC6BC140E4F42A07C09C36FD
:101E000019F450E8F52A02C0983649F4F20123FD8E
:101E1000959123FF91912F01992309F0B8CF892F34
:101E20008554833018F08052833038F444E050E019
:101E3000A40EB51E5FE359830FC0933631F093377C
:101E400079F0933509F056C020C0F501808189836F
:101E500042E050E0A40EB51E610101E010E012C0A6
:101E6000F501C080D180F6FC03C06FEF7FEF02C0A8
:101E7000692D70E042E050E0A40EB51EC6010E943C
:101E80007A108C015FE7F52214C0F501C080D18083
:101E9000F6FC03C06FEF7FEF02C0692D70E042E0F7
:101EA00050E0A40EB51EC6010E946F108C0150E8D0
:101EB000F52AF3FE07C01AC080E290E0B3010E9449
:101EC0009510EA948E2D90E008171907A8F30EC01C
:101ED000F601F7FC8591F7FE81916F0190E0B30167
:101EE0000E949510E110EA9401501040011511056F
:101EF00079F7EAC0943611F0993669F5F7FE08C013
:101F0000F501208131814281538184E090E00AC053
:101F1000F501808191819C01442737FD4095542F24
:101F200082E090E0A80EB91E9FE6F92257FF09C093
:101F300050954095309521953F4F4F4F5F4FE0E8CA
:101F4000FE2ACA01B901A1012AE030E00E94C110B5
:101F5000D82ED21840C0953729F41F2D1F7E2AE0B5
:101F600030E01DC01F2D197F9F3661F0903720F49F
:101F7000983509F0ACC00FC0903739F0983709F0A8
:101F8000A6C004C028E030E00AC0106114FD14604F
:101F900020E130E004C014FD166020E132E017FFBC
:101FA00008C0F501608171818281938144E050E035
:101FB00008C0F50180819181BC0180E090E042E0A1
:101FC00050E0A40EB51EA1010E94C110D82ED21857
:101FD0008FE7F82EF122F6FE0BC05EEFF522D91442
:101FE00038F4F4FE07C0F2FC05C08FEEF82202C000
:101FF0001D2D01C0192DF4FE0DC0FE01ED0DF11DCA
:102000008081803319F499EEF92208C01F5FF2FE37
:1020100005C003C08F2D867809F01F5F0F2DF3FCDC
:1020200014C0F0FE0FC01E1510F09D2C0BC09D2C8F
:102030009E0C911A1E2D06C080E290E0B3010E9412
:1020400095101F5F1E15C0F304C01E1510F4E11A91
:1020500001C0EE2404FF0FC080E390E0B3010E94B2
:10206000951002FF1DC001FD03C088E790E00EC07F
:1020700088E590E00BC0802F867891F001FF02C0C8
:102080008BE201C080E2F7FC8DE290E0B3010E9498
:10209000951006C080E390E0B3010E9495109A94D9
:1020A000D914C0F3DA94F101ED0DF11D808190E0B7
:1020B000B3010E949510DD20A9F706C080E290E0F0
:1020C000B3010E949510EA94EE20C1F743CEF301CC
:1020D00066817781CB012B96E2E10C94EFC7FC017E
:1020E0000590615070400110D8F7809590958E0F43
:1020F0009F1F0895FC016150704001900110D8F7B6
:10210000809590958E0F9F1F0895DC01FC01672F2D
:1021100071917723E1F7329704C07C916D937083BE
:102120006291AE17BF07C8F308950F931F93CF9323
:10213000DF938C01EB018B8181FF1BC082FF0DC0FF
:102140002E813F818C819D812817390764F4E881B5
:10215000F9810193F983E88306C0E885F985802F2A
:102160000995892B31F48E819F8101969F838E83FF
:1021700002C00FEF1FEFC801DF91CF911F910F91A8
:102180000895FA01AA27283051F1203181F1E8940D
:102190006F936E7F6E5F7F4F8F4F9F4FAF4FB1E05A
:1021A0003ED0B4E03CD0670F781F891F9A1FA11D55
:1021B000680F791F8A1F911DA11D6A0F711D811D56
:1021C000911DA11D20D009F468943F912AE0269F1B
:1021D00011243019305D3193DEF6CF010895462F7A
:1021E0004770405D4193B3E00FD0C9F7F6CF462F5B
:1021F0004F70405D4A3318F0495D31FD40524193C4
:1022000002D0A9F7EACFB4E0A69597958795779580
:102210006795BA95C9F700976105710508959B0107
:10222000AC010A2E06945795479537952795BA9590
:10223000C9F7620F731F841F951FA01D0895FC012D
:102240001082118281E082830895FC01748363838C
:102250000E941F110895FC0180810895FC01618393
:10226000862F0895FC016283862F08951F93CF93D4
:10227000DF93EC01162F68838981882399F082EE21
:1022800092E160E071E00E9410BC82EE92E1612F69
:1022900042E050E00E9485BB82EE92E167E171E08E
:1022A0000E94C0BC8A81882399F08B819C8160E068
:1022B00071E00E9410BC8B819C81612F42E050E054
:1022C0000E9485BB8B819C8167E171E00E94C0BC4C
:1022D000DF91CF911F91089580914A0408958091D4
:1022E00082041092820408958091AE031092AE038E
:1022F000089580934304882311F0109244040895B4
:1023000080914304089580934404882311F010922F
:102310004304089580914404089580938304809336
:102320008404089580918304811181E0089581E0FF
:1023300080933C0D08950F931F93CF93DF93EC018F
:102340008EE46132780718F060E27EE405C06436FE
:10235000710510F464E670E080E090E00E94CCC566
:102360002FEF30E0C29F8001C39F100DD29F100D50
:1023700011240D5B124F0F501F4FF80161937193A1
:10238000819391938F0120E030E040E05FE30E9471
:1023900082C6F8016083718382839383DF91CF913A
:1023A0001F910F9108952F923F924F925F926F92DB
:1023B0007F928F929F92AF92BF92CF92DF92EF92D5
:1023C000FF920F931F93DF93CF9300D000D0CDB730
:1023D000DEB73C018FEF90E0689EB001699E700D02
:1023E000789E700D1124FB01ED5BF24FDF01A751C8
:1023F000BF4FE351FF4F20813181428153818D9145
:102400009D910D90BC91A02D281739074A075B07B5
:1024100009F43FC1FB01EB5BF24F80E090E020E06C
:1024200030E040E050E0208331834283538320AF8B
:1024300031AF42AF53AF148E158E168E178E0196A4
:1024400034968730910579F78FEF90E0689E800190
:10245000699E100D789E100D11240D5B124F0550D2
:102460001F4FD8016D917D918D919C9120E030E0BE
:1024700040EA51E40E9482C62FE632E143E852E48A
:102480000E9433C56B017C0106501040D8018D912C
:102490009D910D90BC91A02D89839A83AB83BC83C1
:1024A000F801B290A29092908290C701B601A50166
:1024B00094010E947EC6181614F4750164018FEF12
:1024C00090E0689EF001699EF00D789EF00D112459
:1024D000E55DF14F8081882321F4F7FAF094F7F855
:1024E000F094C701B60129813A814B815C810E9439
:1024F00033C51B012C01E89457F88FEF90E0689EDC
:10250000F001699EF00D789EF00D1124ED5BF24F05
:102510002282338244825582E751FF4F808191812C
:10252000A281B381E95EF040868F978FA0A3B1A30B
:10253000C2AED3AEE4AEF5AEC701B60120E030E0E6
:1025400040E050E00E947EC618164CF489819A81C2
:10255000AB81BC81B05889839A83AB83BC838FEFF6
:1025600090E0689E8001699E100D789E100D1124E8
:102570000D5B124F86E5682E712C600E711E8981ED
:102580009A81AB81BC81F30180839183A283B38361
:102590000F2EF0E08F2EF0E09F2EF0E0AF2EF0E057
:1025A000BF2EF02DD80116968D929D92AD92BC92C1
:1025B00019975E966D917D918D919C9191970E9456
:1025C000CEC56B017C01C201B101F80122AD33AD72
:1025D00044AD55AD0E9482C69B01AC01C701B60156
:1025E0000E94CBC46B017C0169817A818B819C81C3
:1025F00020E030E040E05FE30E9482C6A20191014A
:102600000E9482C6A20191010E9482C69B01AC0178
:10261000C701B6010E94CBC40E949BC56B017C011F
:10262000D80192966D937D938D939C939597025CC0
:102630001F4FF80180829182A282B382045E1F4FF5
:10264000D8018D929D92AD92BC921397F301608157
:1026500071818281938120E030E040E05FE30E945D
:1026600082C6D3016D937D938D939C9313970D56E2
:102670001F4FF801C082D182E282F38209501040DC
:10268000D8018D929D92AD92BC921397F80112924F
:1026900012920F900F900F900F90CF91DF911F919A
:1026A0000F91FF90EF90DF90CF90BF90AF909F90F1
:1026B0008F907F906F905F904F903F902F900895F4
:1026C00080E090E00E94D31181E090E00E94D3115D
:1026D00082E090E00E94D311089520E0039708F46F
:1026E00021E0822F08952F923F924F925F926F9236
:1026F0007F928F929F92AF92BF92CF92DF92EF9292
:10270000FF920F931F93DF93CF93CDB7DEB7609700
:102710000FB6F894DEBF0FBECDBF8C0149875A8734
:102720006B877C873E872D878FEF90E0089FF001B5
:10273000099FF00D189FF00D1124E55DF14F808188
:10274000882359F40F2EF0E0CF2EF0E0DF2EF0EAD0
:10275000EF2EF1ECFF2EF02D0AC00F2EF0E0CF2E61
:10276000F0E0DF2EF0EAEF2EF1E4FF2EF02D8FEFF8
:1027700090E0089F9001099F300D189F300D1124A3
:102780002D5B324F25503F4FD9012D903D904D90FC
:102790005C9022513040D9018D919D910D90BC915A
:1027A000A02D8D839E83AF83B88729853A854B857D
:1027B0005C8582179307A407B5072CF04FEF5FEFF6
:1027C000588B4F8704C081E090E0988B8F87C201BF
:1027D000B10120E030E040E050E00E942FC58823A6
:1027E00009F44BC18FEF90E0089FF001099FF00DB5
:1027F000189FF00D1124E55DF14F808190E0AF85C9
:10280000B889FC01AE9FC001AF9F900DBE9F900D97
:10281000112497FF32C1C8010E94D3113CC18FEF30
:1028200090E0089FF001099FF00D189FF00D112412
:10283000ED5BF24FEF50FF4F61907190819091905E
:1028400080819181A281B38189839A83AB83BC8388
:10285000C701B601A20191010E9482C62FE632E1B2
:1028600043E852E40E9433C57B018C01E89417F9D8
:10287000C801B701A40193010E942FC587FD15C0AF
:102880000F2EF0E06F2EF0E07F2EF0E08F2EF0E0C4
:102890009F2EF02D0F2EF0E02F2EF0E03F2EF0E0D7
:1028A0004F2EFFE35F2EF02D35C0C401B301A80108
:1028B00097010E94CAC429813A814B815C810E94A0
:1028C00033C53B014C0120E030E040E05FE30E9473
:1028D0002FC587FD15C00F2EF0E06F2EF0E07F2E84
:1028E000F0E08F2EFFE39F2EF02D0F2EF0E02F2E25
:1028F000F0E03F2EF0E04F2EF0E05F2EF02D0AC00A
:1029000060E070E080E09FE3A40193010E94CAC4EC
:102910001B012C0169817A818B819C81A401930127
:102920000E9482C69B01AC01C801B7010E94CBC4C2
:102930005B016C01C801B701A40193010E9482C62A
:102940007B018C0169817A818B819C8120E030E060
:1029500040E05FE30E9482C6A40193010E9482C608
:10296000A40193010E9482C69B01AC01C801B7017A
:102970000E94CBC40E949BC50E94CEC57B018C01E6
:10298000C201B101A60195010E9482C69B01AC0162
:10299000C801B7010E94CBC40E949BC50E94CEC54E
:1029A0007B018C01C601B501A60195010E9482C67A
:1029B00020E030E040E05FE30E9482C629813A8156
:1029C0004B815C810E9433C59B01AC01C801B701FA
:1029D0000E94CBC40E949BC5EF85F8899F014427C4
:1029E00037FD4095542F0E944AC72D813E814F816B
:1029F0005885620F731F841F951F4F85588941307A
:102A0000510551F429853A854B855C852617370792
:102A1000480759078CF40EC04F8558894F5F5F4FA8
:102A200059F429853A854B855C85621773078407BD
:102A3000950714F4CA01B901AD85BE856D937D93E8
:102A40008D939C93139781E060960FB6F894DEBF48
:102A50000FBECDBFCF91DF911F910F91FF90EF90EF
:102A6000DF90CF90BF90AF909F908F907F906F90AE
:102A70005F904F903F902F90089529853A854B8520
:102A80005C858D819E81AF81B885281739074A07FB
:102A90005B0709F0C4CE80E0D7CF80914D04089544
:102AA00080916904882339F48091F404882319F40F
:102AB00020E030E00AC020917404309175048091C8
:102AC0004B0490914C04280F391FC90108951092AE
:102AD0004C0410924B0410927504109274040895E3
:102AE00020916C0430916D0440916E0450916F04FC
:102AF0008091610490916204A0916304B091640498
:102B0000280F391F4A1F5B1FB901CA010895809120
:102B1000F404882319F420E030E00BC08091F50420
:102B2000882319F421E030E004C0813011F422E060
:102B300030E0C901089520917004309171044091F2
:102B40007204509173048091E0049091E104A0918B
:102B5000E204B091E304280F391F4A1F5B1FB9013B
:102B6000CA010895813039F0813018F0823051F473
:102B700006C083E001C082E080936803089581E08D
:102B8000809368030895E0915410F09155103097A8
:102B900009F009950895809189040895823010F410
:102BA00080936B04089580916B04089580914E0486
:102BB00008951F9380916904882311F011E007C0E4
:102BC0008091F404882311F015E001C010E0809199
:102BD0007F04882311F0136004C08091F5048111F3
:102BE000166080917E04811118600E94D6158111B3
:102BF00010610E94D31581111062812F1F910895D9
:102C0000FC0110820895FC0180810895FC0180E898
:102C10008093C0108093C1108093C2108093C31022
:102C20001286138608951F93FC018081882309F47E
:102C300055C070E0615070402581368147815085D4
:102C4000DA01C901062E04C0B695A7959795879518
:102C50000A94D2F7182F117081819281A381B481D7
:102C6000062E04C0B695A795979587950A94D2F736
:102C700080FF17C081E090E0A0E0B0E004C0880FC2
:102C8000991FAA1FBB1F6A95D2F7822B932BA42BE7
:102C9000B52B85839683A783B0871130E9F481E053
:102CA0001EC081E090E0A0E0B0E004C0880F991F52
:102CB000AA1FBB1F6A95D2F780959095A095B095F5
:102CC00082239323A423B52385839683A783B08788
:102CD000113021F482E003C083E001C080E01F9145
:102CE0000895FC018081882341F1862F90E00197AF
:102CF0002581368147815085082E04C05695479519
:102D0000379527950A94D2F7922F917021813281BD
:102D10004381548104C056954795379527958A95E8
:102D2000D2F720FF06C0913011F481E0089583E0CE
:102D30000895913011F482E0089580E00895FC0137
:102D4000E45BFF4F80810895FC01E25BFF4F8081CF
:102D50000895FC01E15BFF4F808108950895109272
:102D6000741008950895AF92BF92CF92DF92EF92C0
:102D7000FF920F931F935A016B01CB01BA0120E020
:102D800030E040E053E40E94CAC47B018C0120E0A3
:102D900030E040E050E00E947EC618165CF4C801A6
:102DA000B70120E030E040E251E40E942FC5181640
:102DB000ACF00AC0C801B70120E030E040E251ECBD
:102DC0000E947EC6882354F00F2EF0E0AF2EF0E074
:102DD000BF2EF0E0CF2EF3E4DF2EF02DB501C601BB
:102DE0001F910F91FF90EF90DF90CF90BF90AF9029
:102DF0000895FC01E60FF11D438708958F929F927D
:102E0000AF92BF92CF92DF92EF92FF920F931F93F8
:102E10008130910509F0B3C06F5F7F4F09F0D4C0D6
:102E20008AE894E00E94848584EA94E00E94848584
:102E30008EEB94E00E9484851092F9041092F804BD
:102E400088EE93E0A0E0B0E08093FA049093FB0456
:102E5000A093FC04B093FD0482E094E09093F70407
:102E60008093F60440915C0350915D0382E095E00D
:102E700066EF74E026E430E004EE13E00E94A4AABA
:102E800040915C0350915D0384E695E062EE72E14F
:102E900026E430E00E94A4AA40915C0350915D03B7
:102EA00086EC95E060EC72E126E430E00E94A4AA92
:102EB00088E296E00E94CC8889E296E00E94BBA559
:102EC000A1B28EE396E06DE270E040E150E020E2D6
:102ED00030E001E110E0E2E1EE2EF12CB3E1CB2E87
:102EE000D12CBB24A5E08A2E912C0E94DDA1A1B299
:102EF00089E398E06EE270E045E150E024E130E0E3
:102F00000DE110E0FEE1EF2EF12CEFE1CE2ED12C01
:102F1000B6E08B2E912C0E94DDA1A1B284E39AE051
:102F20006FE270E042E250E021E230E00FE010E0BA
:102F3000ABE2EA2EF12CFCE2CF2ED12CE7E08E2E74
:102F4000912C0E94DDA18FE29CE067E00E941DA40D
:102F500082E59CE066EC75E00E94597D88E59CE086
:102F600062E57CE00E9425110E9469B560935010D3
:102F700070935110809352109093531025C0892B59
:102F800019F56F5F7F4F01F584E39AE00E9429896C
:102F900089E398E00E9429898EE396E00E942989BE
:102FA00082E094E09093F7048093F6040E943981C4
:102FB0008EEB94E00E942F8884EA94E00E942F8890
:102FC0008AE894E00E942F881F910F91FF90EF9064
:102FD000DF90CF90BF90AF909F908F90089580E04A
:102FE00090E06FEF7FEF0E94FE16089581E090E081
:102FF0006FEF7FEF0E94FE1608958EE396E00E9429
:10300000DF8B882389F089E398E00E94DF8B882397
:1030100059F084E39AE00E94DF8B90E0882309F462
:1030200091E081E0982701C090E0892F089541E068
:103030000E94D1AA089542E00E94D1AA089541E0D9
:103040000E94D1AA089541E00E94D1AA089544E0C7
:103050000E94D1AA089541E00E942CAB08950F93DD
:103060001F93CF93DF938FE0689F800111240E5B45
:103070001F4FC8EFD0E107C0C801BE010E942B1846
:103080000F5F1F4F219681E1C730D807A9F7DF9165
:10309000CF911F910F91089541E00E942CAB0895AC
:1030A00042E00E942CAB089580935C0310925D0374
:1030B00080E090E06CE573E00E945018089541E0D4
:1030C0000E942CAB089544E00E942CAB0895CF934E
:1030D000DF93EC018EE396E00E94B489882369F4C3
:1030E00089E398E00E94B489882339F484E39AE064
:1030F0000E94B489882309F41882DF91CF91089542
:103100008EE396E00E94B489882371F489E398E005
:103110000E94B489882341F484E39AE00E94B48930
:10312000882319F081E0089581E008950E9478AC29
:10313000089521E22093FC1229E02093FD1221E062
:1031400032E03093FF122093FE121092011310927E
:10315000001320E330E03093031320930213109206
:10316000A7000E9440B190E0882309F491E0892FE4
:103170000895FC0180818823C9F0628743874093CA
:103180007F038285813021F48FEF8093800302C01A
:1031900010928003109281031092820381858093A4
:1031A00087038EE793E060E30E9499180895CF9318
:1031B000DF93EC018BA1882309F454C00E9469B508
:1031C0009B01AC0188A999A9AAA9BBA9281B390B05
:1031D0004A0B5B0B6EA57FA561157105D1F0CB0184
:1031E000A0E0B0E0281739074A075B0768F01FA680
:1031F0001EA688A599A59DA78CA78FA18F5F8FA3D9
:1032000084E790E161E020C0621B730B7FA76EA78B
:1032100023C06CA57DA561157105F1F0CB01A0E07F
:10322000B0E0281739074A075B0790F08EA181505C
:103230008EA3882311F41BA204C08AA59BA59FA777
:103240008EA784E790E160E04EEF0E94B91804C0B9
:10325000621B730B7DA76CA70E9469B568AB79AB45
:103260008AAB9BABDF91CF910895FC0113A284E759
:1032700090E160E040E00E94B9180895CF93DF9399
:10328000EC01222319F40E94351912C081E08BA3AE
:103290002EA31FA25FA74EA75BA74AA779A768A77F
:1032A0001DA61CA60E9469B568AB79AB8AAB9BAB27
:1032B000DF91CF91089566E970E044E650E021E0A7
:1032C0000E943E1908957F928F929F92AF92BF9273
:1032D000CF92DF92EF92FF920F931F93CF93DF93E2
:1032E0004C01742EE90184E790E10E9413168330AB
:1032F00019F5BE0180E090E00E94CCC57B018C01F5
:103300002AE939E949E15EE30E9482C60E94A0C52C
:103310005B016C01C801B7012AE939E949E55FE3BE
:103320000E9482C60E94A0C59B01AC01C401B501E8
:10333000A901272D0E943E19DF91CF911F910F9176
:10334000FF90EF90DF90CF90BF90AF909F908F90C5
:103350007F9008959F92AF92BF92CF92DF92EF92AB
:10336000FF920F931F93CF93DF93EC01162FA42EA0
:103370006901902E84E790E1642F0E941316982F24
:1033800080910C11882329F080910B11A81609F067
:1033900078C0933009F060C0112399F5A0920B1109
:1033A00081E080930C110E9469B5609307117093BE
:1033B00008118093091190930A11B70180E090E001
:1033C0000E94CCC57B018C012AE939E949E15EE321
:1033D0000E9482C60E94A0C55B016C01C801B701B2
:1033E0002AE939E949E55FE30E9482C60E94A0C547
:1033F0009B01AC01CE01B501A9012FEF0E943E193E
:1034000040C0133011F01130E1F5B70180E090E0D9
:103410000E94CCC57B018C012AE939E949E15EE3D0
:103420000E9482C60E94A0C55B016C01C801B70161
:103430002AE939E949E55FE30E9482C60E94A0C5F6
:103440009B01AC01CE01B501A901292D0E943E19B5
:1034500081E080930D1115C0923099F480910D1187
:10346000813019F410920D110CC0882351F4CE0153
:103470000E94351910920C118FA1F601808381E012
:1034800001C080E0DF91CF911F910F91FF90EF90ED
:10349000DF90CF90BF90AF909F900895FC01808106
:1034A0008823F1F02185413049F481E090E002C0A9
:1034B000880F991F6A95E2F7282B09C081E090E0F8
:1034C00002C0880F991F6A95E2F78095282321870B
:1034D0008185809387038EE793E060E30E949918CB
:1034E0000895EF92FF920F931F93CF93DF937C0188
:1034F0008FE0689F800111240E5B1F4FC8EFD0E161
:1035000007C0C801BE010E9417180F5F1F4F219608
:1035100081E1C730D807A9F740E0F70184A98823E3
:1035200009F441E084E790E162E00E944E1ADF91E5
:10353000CF911F910F91FF90EF900895FC018AE0C9
:1035400085AB16AA17AA10AE81E084AB83AF15AE87
:1035500082E081AF12AE16AE17AE14AEEE5BFF4F37
:10356000808312921292E054F04080E88383848337
:10357000858384E790E162E040E00E944E1A08955E
:103580000F931F938C0184E790E10E940016F801CD
:10359000118280E883838483858312A21186128638
:1035A00013A2C8010E949E1AF801128289E296E0D5
:1035B00060E00E9460A481E080933D06F8011082E3
:1035C0001F910F9108950F931F93CF93DF93EC01F9
:1035D0008B01888184FF0FC08981882321F082EECE
:1035E00092E10E94C0BC8A81882329F08B819C8152
:1035F000B8010E94C0BCDF91CF911F910F91089537
:103600000F931F93CF93DF93EC018B01888183FF8E
:103610000FC08981882321F082EE92E10E94C0BC14
:103620008A81882329F08B819C81B8010E94C0BCCB
:10363000DF91CF911F910F9108950F931F93CF9317
:10364000DF93EC018B01888184FF0FC0898188237F
:1036500021F082EE92E10E94C0BC8A81882329F089
:103660008B819C81B8010E94C0BCDF91CF911F91DA
:103670000F9108959C0181E08093A7008091A9009B
:103680008F7B8093A9008091A60080FD06C0809169
:10369000A90080648093A9000BC06091F60070912E
:1036A000F700C90140E050E00E941FAC882311F0F0
:1036B00080E008958091A6008E778093A600809187
:1036C000A90080648093A90081E00895CF93DF93DF
:1036D000EC01809104138B3051F58881882339F1F6
:1036E0001FC08E859F85A889B98989839A83AB83FA
:1036F000BC838A89C45BDF4F8883CC54D0408B89DC
:10370000C35BDF4F8883CD54D0408C89C25BDF4FD1
:103710008883CE54D0408D89C15BDF4F888307C03A
:10372000CE010C9660E30E943A1B8823D1F6DF910C
:10373000CF9108950F9381E863E041E020E430E009
:1037400000E00E9473AB82E063E042E020E430E0FE
:103750000E9473AB0F910895DF93CF93CDB7DEB77F
:10376000C851D2400FB6F894DEBF0FBECDBF81E086
:1037700060E0AE01495F5F4F22E10E9450B28823B2
:1037800009F050C081E0BE016F5F7F4FAE01475E20
:103790005F4F20E032E00E943AAF882309F042C038
:1037A0008F8598898C549540E9F589899A8988563E
:1037B0009240C1F581E00E946DB2882399F50E9484
:1037C0009A1B82E48B838CE08C831D821E8281E2B3
:1037D0008093FC1289E08093FD1284EF93E0909334
:1037E000FF128093FE12109201131092001384E0D6
:1037F00090E090930313809302131092A700CE01E0
:1038000003960E9440B1882369F484E790E10E9406
:10381000061681E08093741088E59CE068E171E011
:103820000E94E31AC85EDD4F0FB6F894DEBF0FBEEC
:10383000CDBFCF91DF910895A82FFB019A01809110
:103840005003823041F0833019F0813089F40AC08E
:1038500084E695E002C082E095E06A2FAF010E9405
:1038600011A9089586EC95E06A2FAF010E9411A975
:103870000895E82F9A01AB0180915003823041F006
:10388000833019F0813079F409C084E695E002C0F4
:1038900082E095E06E2F0E9489A9089586EC95E05C
:1038A0006E2F0E9489A90895E82F9A01AB0180919B
:1038B0005003823041F0833019F0813079F409C02F
:1038C00084E695E002C082E095E06E2F0E9462A936
:1038D000089586EC95E06E2F0E9462A90895282F26
:1038E000AB0180915003823041F0833019F0813078
:1038F00079F409C084E695E002C082E095E0622F89
:103900000E94B0A9089586EC95E0622F0E94B0A9AC
:103910000895282FAB0180915003823041F083300D
:1039200019F0813079F409C084E695E002C082E0A4
:1039300095E0622F0E94D1A9089586EC95E0622F50
:103940000E94D1A90895282F462F809150038230DC
:1039500041F0833019F0813079F409C084E695E0B4
:1039600002C082E095E0622F0E943DA9089586EC96
:1039700095E0622F0E943DA90895682F8091500321
:10398000823041F0833019F0813069F408C084E658
:1039900095E002C082E095E00E945CA9089586EC63
:1039A00095E00E945CA908950F931F93CF93DF9336
:1039B000EC018B01888183FF0FC08981882321F06E
:1039C00082EE92E10E94D4BC8A81882329F08B8107
:1039D0009C81B8010E94D4BCDF91CF911F910F91BF
:1039E0000895EF92FF920F931F93CF93DF93EC0113
:1039F0007A018B01888184FF14C08981882331F08A
:103A000082EE92E122E030E00E94ACBC8A81882301
:103A100041F08B819C81B801A70122E030E00E9437
:103A2000ACBCDF91CF911F910F91FF90EF90089563
:103A30009C01C397C197E0F48EE396E060E021E03B
:103A400030E040E050E00E94E39E89E398E060E0CF
:103A500021E030E040E050E00E94E39E84E39AE001
:103A600060E021E030E040E050E00E94E39E0895F5
:103A700025363105D8F08EE396E061E021E030E0B4
:103A800040E050E00E94E39E89E398E061E021E09D
:103A900030E040E050E00E94E39E84E39AE061E081
:103AA00021E030E040E050E00E94E39E08952F9234
:103AB0003F924F925F926F927F928F929F92AF92BE
:103AC000BF92CF92DF92EF92FF920F931F93CF930B
:103AD000DF930E9469B5662477244301442455246A
:103AE0008BEF282E81E0382E429CE001439CD00DC4
:103AF000529CD00D1124C25CD94FCE010E94568930
:103B00008823F1F0CE010E94C18B5B016C01CE01D4
:103B10000E94988B7B018C01CE010E94C18BA80171
:103B200097012A0D3B1D4C1D5D1D260F371F481F99
:103B3000591F621673068406950610F439014A016E
:103B40000894411C511C83E04816510469F60E94F8
:103B50008F8B882391F489E296E00E946DA4A0E007
:103B6000B0E086159705A805B90538F489E296E016
:103B70000E946DA43C01882499240E948F8B882385
:103B800039F460914B0470914C0480E090E014C0D3
:103B900060915D0470915E0480915F049091600477
:103BA00020917A0430917B0440917C0450917D04F3
:103BB000621B730B840B950B0E94CCC57B018C019F
:103BC000C401B3010E94CCC59B01AC01C801B7017F
:103BD0000E9433C520E030E048EC52E40E9482C6E7
:103BE0007B018C0120E030E040E050E00E947EC686
:103BF00088234CF0C801B70120E030E040E05FE3EB
:103C00000E94CBC408C0C801B70120E030E040E00A
:103C10005FE30E94CAC40E949BC5162F662301F56C
:103C2000809139118823E1F00E9480118823C1F42A
:103C300084E68093391180913911DF91CF911F91E2
:103C40000F91FF90EF90DF90CF90BF90AF909F903B
:103C50008F907F906F905F904F903F902F9008953E
:103C600010933911E8CF4F925F926F927F928F92AB
:103C70009F92AF92BF92CF92DF92EF92FF920F93FB
:103C80001F93CF93DF930E948F8B882381F5662447
:103C90007724C0E0D0E09BEF492E91E0592EC49DDF
:103CA0008001C59D100DD49D100D1124025C194F8B
:103CB000C8010E94C18B4B015C01C8010E94988B16
:103CC0006B017C01C8010E94D48BC601880D991D2F
:103CD000860F971F6816790608F43C012196C330B9
:103CE000D105E9F689E296E0B3010E9469A4DF916B
:103CF000CF911F910F91FF90EF90DF90CF90BF90E9
:103D0000AF909F908F907F906F905F904F900895AD
:103D10002F923F924F925F926F927F928F929F92DB
:103D2000AF92BF92CF92DF92EF92FF920F931F93C9
:103D3000DF93CF9300D000D0CDB7DEB72224332459
:103D400021011A82198249815A818BEF91E0489FA3
:103D50009001499F300D589F300D1124225C394F3E
:103D60003C832B83C9010E945689882309F44CC0E7
:103D70000E948F8B882339F589E296E00E943EA449
:103D80003B014C018B819C810E94C18B5B016C01CA
:103D90008B819C810E94988B7B018C018B819C8103
:103DA0000E94D48BEA0CFB1C0C1D1D1DE60EF71E99
:103DB000081F191FC801B701A40193010E944AC737
:103DC0009B01AC011AC08B819C810E94C18B5B015D
:103DD0006C018B819C810E94988B7B018C018B8173
:103DE0009C810E94D48BA80197012A0D3B1D4C1D7C
:103DF0005D1D260F371F481F591F22163306440624
:103E0000550610F419012A01E981FA813196FA83E5
:103E1000E983339709F097CF20917A0430917B049E
:103E200040917C0450917D04220D331D441D551D8D
:103E3000B901CA010F900F900F900F90CF91DF91B1
:103E40001F910F91FF90EF90DF90CF90BF90AF90B8
:103E50009F908F907F906F905F904F903F902F90AA
:103E600008951F93CF93DF93EC01162F888184FF71
:103E700013C08981882331F082EE92E14AE050E05C
:103E80000E9485BB8A81882339F08B819C81612FB8
:103E90004AE050E00E9485BBDF91CF911F910895C9
:103EA0001F93CF93DF93EC01162F888183FF13C0FC
:103EB0008981882331F082EE92E14AE050E00E944D
:103EC00073BB8A81882339F08B819C81612F4AE002
:103ED00050E00E9473BBDF91CF911F9108951F9313
:103EE000CF93DF93EC01162F888180FF13C0898167
:103EF000882331F082EE92E14AE050E00E9473BBE9
:103F00008A81882339F08B819C81612F4AE050E0BF
:103F10000E9473BBDF91CF911F910895FF920F9381
:103F20001F93CF93DF93EC01F62E8A01888180FFE7
:103F300010C08981882321F082EE92E10E9473BB38
:103F40008A81882331F08B819C816F2DA8010E948A
:103F500073BBDF91CF911F910F91FF9008951F9335
:103F6000CF93DF93EC01162F888184FF13C08981E2
:103F7000882331F082EE92E14AE050E00E9473BB68
:103F80008A81882339F08B819C81612F4AE050E03F
:103F90000E9473BBDF91CF911F9108950F931F93E0
:103FA000CF93DF93EC018B01888183FF0FC0898160
:103FB000882321F082EE92E10E9410BC8A8188233E
:103FC00029F08B819C81B8010E9410BCDF91CF91B8
:103FD0001F910F9108950F931F93CF93DF93EC01DF
:103FE0008B01888180FF0FC08981882321F082EEB8
:103FF00092E10E9410BC8A81882329F08B819C81E8
:10400000B8010E9410BCDF91CF911F910F910895CC
:104010000F931F93CF93DF93EC018B01888180FF77
:104020000FC08981882321F082EE92E10E9410BCAA
:104030008A81882329F08B819C81B8010E9410BC61
:10404000DF91CF911F910F9108950F931F93CF93FD
:10405000DF93EC018B01888184FF0FC08981882365
:1040600021F082EE92E10E9410BC8A81882329F01F
:104070008B819C81B8010E9410BCDF91CF911F9170
:104080000F910895DF92EF92FF920F931F93CF93BA
:10409000DF93D82E8091800C9091810C8230910515
:1040A00009F49FC08330910534F4009769F00197BB
:1040B00009F046C128C08330910509F42EC1843629
:1040C000910509F03DC12EC18DE0D81609F43CC11F
:1040D0009AE0D91609F438C181E090E09093810C00
:1040E0008093800C9093830C8093820C1092840CAC
:1040F0001092850C1092860C1092870C1092880CEE
:104100001092890C21C180917F0C883631F4E9E648
:10411000DE1609F015C18AE00DC08D3629F4F3E7EB
:10412000DF1659F48EE106C0833761F481E6D816B4
:1041300009F582E38093840CF2C09DE6D91651F410
:1041400088E246C08E3661F4E0E7DE1609F0F8C07A
:104150008FE13EC0F0E7DF1609F0F2C08BE238C015
:104160008A3731F48DE6D81609F0EAC08CE230C007
:10417000833731F49DE6D91609F0E2C08AE228C0FF
:10418000803731F4E2E7DE1609F0DAC089E220C0B8
:10419000823631F4F6E6DF1609F0D2C08CE318C09F
:1041A000873631F48FE6D81609F0CAC08DE3C2CF46
:1041B0008A3631F49DE6D91609F0C2C086E408C0FB
:1041C000893609F0BDC0EDE6DE1609F0B9C087E416
:1041D0008093840C82E090E09093810C8093800C1B
:1041E000B3C09D2D90539A3020F0FDE2DF1609F008
:1041F00065C080917F0C8032C1F58091850C8F5F06
:104200008093850C883248F082EE92E168E271E09A
:104210000E9410BC83E090E0DFCFE82FF0E0EE0FCB
:10422000FF1FEE0FFF1FEE57F34F10821182128215
:1042300013828DE2D81639F48FEF9FEF9093830CA1
:104240008093820C81C081E090E09093830C8093F6
:10425000820C8D2D90E0C097AA2797FDA095BA2FCC
:1042600080839183A283B3836FC09A3038F56091C5
:10427000850CC62FD0E0CC0FDD1FCC0FDD1FCE5735
:10428000D34FED2CFF24E0EDFFEFEE0EFF1E0027D5
:10429000F7FC0095102F688179818A819B812AE043
:1042A00030E040E050E00E944AC7E60EF71E081FCB
:1042B000191FE882F9820A831B8346C0F0E2DF16E9
:1042C00021F08DE0D81609F03FC080917F0C80531B
:1042D0008A30F8F40091850C0023D9F010E0000F2B
:1042E000111F000F111F0E57134F2091820C309198
:1042F000830C442737FD4095542FF801608171816C
:10430000828193810E944AC7F8016083718382830E
:104310009383FDE0DF16C1F402C01092840C84E6A2
:1043200090E05ACF8AE0D81679F480917F0C8D30D6
:1043300059F48091840C1092810C1092800C05C06D
:104340001092810C1092800C80E0D0927F0CDF9153
:10435000CF911F910F91FF90EF90DF900895EF9212
:10436000FF920F931F93CF93DF93EC017A018B01A0
:10437000888183FF14C08981882331F082EE92E125
:104380002AE030E00E94D5BB8A81882341F08B81EE
:104390009C81B801A7012AE030E00E94D5BBDF91E3
:1043A000CF911F910F91FF90EF900895EF92FF92A0
:1043B0000F931F93CF93DF93EC017A018B018881D8
:1043C00084FF14C08981882331F082EE92E12AE0D3
:1043D00030E00E94D5BB8A81882341F08B819C818B
:1043E000B801A7012AE030E00E94D5BBDF91CF9150
:1043F0001F910F91FF90EF900895EF92FF920F930E
:104400001F93CF93DF93EC017A018B01888184FFA6
:1044100014C08981882331F082EE92E12AE030E0F5
:104420000E944EBB8A81882341F08B819C81B80118
:10443000A7012AE030E00E944EBBDF91CF911F918F
:104440000F91FF90EF900895EF92FF920F931F93BB
:10445000382F562F742FE22F780186EC95E0632FCA
:10446000452F272F0E2F0E94ECA81F910F91FF9030
:10447000EF900895EF92FF920F931F93382F562FCE
:10448000742FE22F780186EC95E0632F452F272FBC
:104490000E2F0E94ECA81F910F91FF90EF900895AE
:1044A0008F929F92AF92BF92CF92DF92EF92FF9244
:1044B0000F931F93B82EA62E942E822E680182E0B1
:1044C00095E06B2D4A2D292D082D76010E94ECA830
:1044D00084E695E06B2D4A2D292D0E94ECA81F91B2
:1044E0000F91FF90EF90DF90CF90BF90AF909F9093
:1044F0008F9008950F931F93BC0106E510E1C8014A
:104500000E94E70DC8011F910F9108954F925F928D
:104510007F928F929F92AF92BF92CF92DF92EF9253
:10452000FF920F931F93DF93CF93CDB7DEB7CB5797
:10453000D0400FB6F894DEBF0FBECDBF782E4B0132
:104540002A01EC960CAF1DAF2EAF3FAFEC9728E0E1
:10455000C22ED12CCC0EDD1EC6016FE371E00E948D
:10456000B8BE0E9469B5AB01BC017E010894E11C94
:10457000F11CC7012AE00E94EBBEC601B7010E94F0
:1045800067BE66E471E00E944BBEBC018E01015F14
:104590001F4FC8010E9497BF88E59CE0B8010E94A8
:1045A000D41CC8010E94A8BFC7010E94A2BFC601B7
:1045B0000E94A8BF83E0871520F081E07816B0F54F
:1045C00009C084E0781609F473C085E0781609F014
:1045D000FEC0A9C08EE891E00E947A22BC019DE154
:1045E000C92ED12CCC0EDD1EC6010E94B8BE86E1BC
:1045F000E82EF12CEC0EFD1EC701B4014AE00E942A
:104600001DBFC601B7010E9467BE66E471E00E944B
:104610004BBE8C01C2010E947A22BC01C8010E94DB
:104620004BBEBC018E010C5D1F4F6DC083E991E054
:104630000E947A22BC0102E3A02EB12CAC0EBD1E5A
:10464000C5010E94B8BE1BE2C12ED12CCC0EDD1ECE
:10465000C601B4014AE00E941DBFC501B6010E9417
:1046600067BE6AE471E00E944BBE8C01B9E3EB2E99
:10467000F12CEC0EFD1E672D70E061507040C701FB
:104680004AE00E941DBFC801B7010E9467BE66E4F0
:1046900071E00E944BBE8C01C2010E947A22BC01D3
:1046A000C8010E944BBEBC018E01005C1F4F7BC045
:1046B00088E991E00E947A22BC01AEE4CA2ED12C96
:1046C000CC0EDD1EC6010E94B8BEF7E4EF2EF12C21
:1046D000EC0EFD1EC701B4014AE00E941DBFC601D9
:1046E000B7010E9467BE66E471E00E944BBE8C0178
:1046F000C2010E947A22BC01C8010E944BBEBC01CB
:104700008E010B5A1F4FC8010E9497BF88E59CE09D
:10471000B8010E94D41CC8010E94A8BFC7010E9412
:10472000A2BFC60152C08DE991E00E947A22BC016D
:10473000E3E6AE2EB12CAC0EBD1EC5010E94B8BE84
:104740006CE5C62ED12CCC0EDD1EC601B4014AE0AC
:104750000E941DBFC501B6010E9467BE64E571E0FD
:104760000E944BBE8C010E94B485BC015AE6E52E26
:10477000F12CEC0EFD1EC7014AE00E941DBFC801CE
:10478000B7010E9467BE66E471E00E944BBE8C01D7
:10479000C2010E947A22BC01C8010E944BBEBC012A
:1047A0008E010F581F4FC8010E9497BF88E59CE0FB
:1047B000B8010E94D41CC8010E94A8BFC7010E9472
:1047C000A2BFC6010E94A2BFC5010E94A8BFEC966D
:1047D0006CAD7DAD8EAD9FADEC9728E23BE64EE62D
:1047E0005EEC0E942FC5882339F488E59CE06DE5D6
:1047F00071E00E94001B26C08091580C83FF22C0EC
:104800008091590C882361F082EE92E1EC964CADD8
:104810005DAD6EAD7FADEC9722E030E00E94ACBCA8
:1048200080915A0C882371F080915B0C90915C0C04
:10483000EC964CAD5DAD6EAD7FADEC9722E030E017
:104840000E94ACBCC558DF4F0FB6F894DEBF0FBE58
:10485000CDBFCF91DF911F910F91FF90EF90DF902F
:10486000CF90BF90AF909F908F907F905F904F9030
:1048700008950F931F9308E21BE62EE63EEC0E947C
:1048800086221F910F910895EF92FF920F931F932D
:10489000F82EE62E8A0182E19EE00E947A22BC0177
:1048A00088E59CE00E94082088E59CE06F2D0E942E
:1048B0006F1F8BE19EE00E947A22BC0188E59CE09C
:1048C0000E94082088E59CE06E2D0E946F1F85E203
:1048D0009EE00E947A22BC0188E59CE00E940820AC
:1048E00088E59CE0F801608140E150E00E948E1F65
:1048F0008FE29EE00E947A22BC0188E59CE00E9443
:10490000082088E59CE0F801618140E150E00E94C8
:104910008E1F89E39EE00E947A22BC0188E59CE01C
:104920000E94082088E59CE0F801628140E150E0A7
:104930000E948E1F83E49EE00E947A22BC0188E5DB
:104940009CE00E94082088E59CE0F801638140E13A
:1049500050E00E948E1F8DE49EE00E947A22BC01EE
:1049600088E59CE00E94082088E59CE0F8016481CD
:1049700040E150E00E948E1F87E59EE00E947A226F
:10498000BC0188E59CE00E940820E0908504F0903E
:10499000860400918704109188048091580C80FF50
:1049A0001AC08091590C882341F082EE92E1B8013F
:1049B000A7012AE030E00E944EBB80915A0C882368
:1049C00051F080915B0C90915C0CB801A7012AE03A
:1049D00030E00E944EBB8091580C80FF16C0809141
:1049E000590C882331F082EE92E16DE571E00E946E
:1049F000C0BC80915A0C882341F080915B0C90914F
:104A00005C0C6DE571E00E94C0BC1F910F91FF909E
:104A1000EF9008950F931F93CF93DF93EC018B01D9
:104A2000888184FF0FC08981882321F082EE92E182
:104A30000E9472BA8A81882329F08B819C81B801F7
:104A40000E9472BADF91CF911F910F9108950F9339
:104A50001F93CF93DF93EC018B01888183FF0FC0FD
:104A60008981882321F082EE92E10E94B3BA8A8183
:104A7000882329F08B819C81B8010E94B3BADF9111
:104A8000CF911F910F9108952F923F924F925F9275
:104A90006F927F928F929F92AF92BF92CF92DF924E
:104AA000EF92FF920F931F93DF93CF93CDB7DEB7B3
:104AB0002E970FB6F894DEBF0FBECDBF88E59CE001
:104AC0006CE67EE00E942725882499244BEFA42ED3
:104AD00041E0B42E8A9C80018B9C100D9A9C100D95
:104AE0001124025C194FC8010E94628B6B017C018A
:104AF000C8010E94728BAB01BC01C8010E945A8B95
:104B0000C801B701A6010E946A8B0894811C911C00
:104B100023E082169104F1F61E821D828D819E8112
:104B20000E94AF858D819E81EAE1F0E08E9F700149
:104B30008F9FF00C9E9FF00C11242AE834E0E20EC7
:104B4000F31EC7010E94C8852C01009709F4AAC072
:104B50009E878D878C01000F111F000F111FC80148
:104B60000E94100C9A873C018987C8010E94100C92
:104B70009B874C018887C8010E94100C9C875C01B0
:104B80008F83B20161507040C7010E94ED85698337
:104B90007A838B839C8322243324CC24DD2435C068
:104BA000C7016D857E850E94ED859B01AC01830167
:104BB0000C0D1D1D69817A818B819C810E94CAC464
:104BC000F8016083718382839383C7016D857E853D
:104BD0000E942886F401EC0DFD1D608371838283A1
:104BE0009383C7016D857E850E946386F501EC0D78
:104BF000FD1D905860837183828393830894211CE8
:104C0000311C24E030E0C20ED31E8D859E850197B5
:104C10009E878D87241435041CF2C7010E94E98504
:104C2000C7010E942486C7010E945F86C701B201A6
:104C30000E94328800E010E0CC24DD2424C0F3017F
:104C4000EC0DFD1D4081518162817381C7010E947D
:104C5000CC85F401EC0DFD1D408151816281738191
:104C6000C7010E94FF85F501EC0DFD1D40815181BA
:104C700062817381C7010E943A860F5F1F4FE4E093
:104C8000F0E0CE0EDF1E04151505CCF289859A855D
:104C90000E94BA0C88859B850E94BA0C8F819C85E6
:104CA0000E94BA0C2D813E812F5F3F4F3E832D83A2
:104CB0002330310509F032CF2E960FB6F894DEBFBF
:104CC0000FBECDBFCF91DF911F910F91FF90EF905D
:104CD000DF90CF90BF90AF909F908F907F906F901C
:104CE0005F904F903F902F9008950F931F93CF9315
:104CF000DF93EC018B01888184FF0FC089818823B9
:104D000021F082EE92E10E94B3BA8A81882329F0D1
:104D10008B819C81B8010E94B3BADF91CF911F9122
:104D20000F910895EF92FF920F931F93E82E88E55D
:104D30009CE068E073E10E94752680914904882315
:104D4000F1F088E59CE06EED72E10E947526EE20A0
:104D500021F080914510882371F5809148048130BD
:104D600039F488E59CE06BEA72E10E9475261AC06E
:104D700088E59CE061E872E10E9475261CC0E09025
:104D80006003F090610300E010E089E296E00E9489
:104D90003EA4E616F7060807190798F0809145101B
:104DA000882379F481E008C090914510911191E039
:104DB00081E0892701C080E01F910F91FF90EF9063
:104DC00008950E9469B57B018C01809141109091FA
:104DD0004210A0914310B0914410E81AF90A0A0B4E
:104DE0001B0B89E296E00E943EA420916003309163
:104DF000610340E050E0621B730B840B950BE616D9
:104E0000F70608071907B8F2CFCF0F931F93DF9368
:104E1000CF93CDB7DEB727970FB6F894DEBF0FBE9E
:104E2000CDBF809389048091580C83FF16C0809178
:104E3000590C882331F082EE92E166EA7EE00E940E
:104E400072BA80915A0C882341F080915B0C90914A
:104E50005C0C66EA7EE00E9472BA8E010F5F1F4F03
:104E6000C801609189044AE00E944EBF8091580CAD
:104E700083FF16C08091590C882329F082EE92E1BD
:104E8000B8010E9407BD80915A0C882349F0809197
:104E90005B0C90915C0CBE016F5F7F4F0E9407BD61
:104EA000CE0101960E94A2BF809189048823C9F097
:104EB0008EE396E040E050E060E070E00E94248ADB
:104EC00089E398E040E050E060E070E00E94248ACE
:104ED00084E39AE040E050E060E070E00E94248AC1
:104EE00003C080E00E948D1127960FB6F894DEBFB4
:104EF0000FBECDBFCF91DF911F910F9108950F93FA
:104F00001F93CF93DF93EC018B01888184FF0FC047
:104F10008981882321F082EE92E10E9407BD8A8177
:104F2000882329F08B819C81B8010E9407BDDF9105
:104F3000CF911F910F9108952F923F924F925F92C0
:104F40006F927F928F929F92AF92BF92CF92DF9299
:104F5000EF92FF920F931F93DF93CF9300D000D077
:104F60000F92CDB7DEB7D82E6D8380914A04882387
:104F700009F455C02D2D30E08BEF91E0AC01249F5A
:104F8000C001259F900D349F900D1124825C994F94
:104F90000E94DB933B014C0189E296E00E9452A4FF
:104FA0007C0189E296E00E945AA41B012C0189E24F
:104FB00096E00E9456A45C01C401B30120E030E0F9
:104FC0004AEF55E40E9433C520E030E04AE754E45C
:104FD0000E9482C63B014C0100E010E0CC24DD249D
:104FE000EA0CFB1C0C1D1D1DE20CF31C041D151D01
:104FF000C801B7010E94CCC59B01AC01C401B3013B
:105000000E94CAC40E94A0C5AB01BC0189E296E01F
:105010000E9438A45D81552309F0B4C0B5C00E9438
:105020008F8B882309F04DC089E296E00E943EA450
:105030007B018C0189E296E00E9452A43C0189E246
:1050400096E00E945AA41B012C0189E296E00E947E
:1050500056A45C012D2D30E08BEF91E0FC012E9FDA
:10506000C0012F9F900D3E9F900D1124825C994F9F
:105070000E94DB9369837A838B839C8388249924A1
:10508000E618F70808091909E218F30804091509D0
:10509000CC24DD24EA18FB080C091D09C801B7015E
:1050A0000E94CCC520E030E04AE754E40E9433C5BA
:1050B0009B01AC0169817A818B819C810E9433C5FF
:1050C00014C00E948F8B882391F08D2D90E02BEFE0
:1050D00031E0AC01429FC001439F900D529F900D63
:1050E0001124825C994F0E94DB937B018C0188E53F
:1050F0009CE06EE27FE00E940A2588E59CE0B80112
:10510000A7010E94F11CC801B70120E030E04AE786
:1051100056E40E947EC6882344F088E59CE064E162
:105120007FE00E94752680E032C05D81552361F1E9
:10513000C801B70120E030E04AEF55E40E947EC686
:10514000882364F0C801B70120E030E04AE756E464
:105150000E942FC5882314F484E019C0C801B70148
:1051600020E030E04AEF55E40E942FC5882374F414
:10517000C801B70120E030E04AE755E40E947EC64E
:10518000181624F488E003C081E001C080E10F908C
:105190000F900F900F900F90CF91DF911F910F9173
:1051A000FF90EF90DF90CF90BF90AF909F908F9047
:1051B0007F906F905F904F903F902F9008950F9346
:1051C0001F93CF93DF93182F062F88E59CE066EF9F
:1051D0007EE00E9475260E9469B58091690488234B
:1051E000B1F5212F30E08BEF91E0289FE001299F5E
:1051F000D00D389FD00D1124C25CD94FCE010E9432
:10520000B489882321F5812F61E00E949C27182F03
:10521000002321F08823A9F011E013C0882311F4A2
:105220001FEF0FC0CE01612F0E945E9A88E59CE0BF
:105230006FED7EE00E940A2588E59CE0612F0E94C8
:10524000311F812FDF91CF911F910F91089588E534
:105250009CE061EB7EE00E94752610E0F2CF60E0FA
:105260000E94DF28089560E00E949C270895EF9235
:10527000FF921F93CF93DF9310E0C0E0D0E051E0A6
:10528000E52EF12C8C2F0E943329813041F4C70187
:105290000C2E02C0880F991F0A94E2F7182B219652
:1052A000C330D10579F7812FDF91CF911F91FF9006
:1052B000EF90089590E02BEF31E0AC01429FC001E8
:1052C000439F900D529F900D1124825C994F0E9434
:1052D0005B890895EF92FF921F93CF93DF9310E0C5
:1052E000C0E0D0E061E0E62EF12C8C2F0E945A291C
:1052F000813041F4C7010C2E02C0880F991F0A9417
:10530000E2F7182B2196C330D10579F7812FDF9171
:10531000CF911F91FF90EF9008950F931F93DF930C
:10532000CF930F92CDB7DEB76983082F10E08BEFD4
:1053300091E0AC01049FC001059F900D149F900D5A
:105340001124825C994F0E944496000F111FC801DE
:1053500073E0880F991F7A95E1F7080F191FC801AC
:105360004D96BE016F5F7F4F0E945F180F90CF91E7
:10537000DF911F910F9108952F923F924F925F926C
:105380006F927F928F929F92AF92BF92CF92DF9255
:10539000EF92FF920F931F93DF93CF93CDB7DEB7BA
:1053A000A2970FB6F894DEBF0FBECDBF88E59CE094
:1053B0006EE571E00E94E31A80E090E06CE573E036
:1053C0000E941B1882E090E061E573E04AE00E94D1
:1053D000D1AA82E490E060E474E00E941F1883E4A4
:1053E00090E062E474E00E941F1884E490E061E4BD
:1053F00074E00E941F1880914004823010F01092D7
:10540000400480914204823010F010924204809156
:105410004104823010F01092410419821A821B82DA
:105420001C821D821E821F82188619861A861B8680
:105430001C861D861E861F86188A198A1A8A81E58F
:10544000A82E84E0B82ECC24DD240CE1E02EF12C33
:105450001FE0212E312C2C0E3D1EB3E18B2E912C02
:105460008C0E9D1EAAE64A2EA1E05A2EFBEF6F2E4F
:10547000F1E07F2EC701BE016F5F7F4F0E941F18B2
:10548000C7010196BE016E5F7F4F0E942318C701BE
:105490004097BE016D5F7F4F0E942718C701089794
:1054A000BE01695F7F4F0E942718C7010497BE01A4
:1054B000655F7F4F0E942718C7010C97B1010E94BA
:1054C0002718C114D10401F500D000D000D0EDB7E9
:1054D000FEB73196ADB7BEB712969C928E921197D9
:1054E000538242828981848315820E946E0EEDB7B9
:1054F000FEB736960FB6F894FEBF0FBEEDBF88E537
:105500009CE0B4010E941D1BC69C8001C79C100D2D
:10551000D69C100D1124025C194FC80169810E94AC
:105520005E9A84EC90E16C2D49810E94F916C801C5
:105530006A810E94449680914004882339F04B810F
:105540005C816D817E81C8010E947A8B80914204CA
:10555000882371F04F81588569857A85C8010E943A
:105560005A8B4B855C856D857E85C8010E946A8B50
:1055700080914104882349F08F859889A989BA8947
:10558000F50180839183A283B3830894C11CD11C4D
:1055900082E190E0E80EF91EA4E0B0E0AA0EBB1E86
:1055A000B3E0CB16D10409F065CF02E410E0B801F6
:1055B0006A547F4EC8010E9417180F5F1F4F0135B4
:1055C0001105A9F7A2960FB6F894DEBF0FBECDBFA6
:1055D000CF91DF911F910F91FF90EF90DF90CF90CF
:1055E000BF90AF909F908F907F906F905F904F9003
:1055F0003F902F90089580913C06882331F0809150
:105600003811882391F01092381180914604873028
:1056100041F080914704873021F08FE29CE062E006
:105620000AC08FE29CE066E006C081E080933811FA
:105630008FE29CE064E00E94F6A30895843051F468
:1056400088E59CE062E075E10E9475268FE29CE0AF
:1056500064E014C08230A9F488E59CE06DEE74E14A
:105660000E94752680914B0490914C040196909372
:105670004C0480934B048FE29CE065E00E94F6A30B
:105680000895863011F40E94FB2A08958FE29CE071
:1056900060E00E94F6A389E296E00E9417A50895B3
:1056A0008EE396E00E94B489882361F489E398E050
:1056B0000E94B489882331F484E39AE00E94B4897B
:1056C0008823F9F080914F048823D9F482E00E9466
:1056D000C3158EE396E00E94FA89AC0160E070E0A9
:1056E0008CE591E10E94E57E8CE591E16BE372E34C
:1056F0002FEF3FEF4FEF5FEF0E94FC7E81E0809342
:105700004F0408954F925F926F927F928F929F9273
:10571000AF92BF92CF92DF92EF92FF920F931F93BF
:10572000CF93DF93582E3A014B01422E222309F0EA
:1057300042C0282F30E08BEF91E0289F6001299F25
:10574000D00C389FD00C11248EE396E0C80ED91EE1
:10575000C60164E00E945E9AC6010E942A89E82E72
:10576000C6010E942F895C01C401B3010E94CEC50D
:105770003B014C01FF2400E010E0C801B7010E948A
:10578000CCC57B018C01CC24B7FCC094DC2CC601B9
:10579000B5010E94CEC59B01AC01C801B7010E94B2
:1057A00033C59B01AC01C401B3010E9482C60E94B3
:1057B0009BC53B014C0188E59CE06DE57EE00E94C5
:1057C0000A2588E59CE0652D0E94AF1F88E59CE0D6
:1057D00063E771E00E94252088E59CE0B401A30105
:1057E0000E94D621252D30E08BEF91E0289FE0012B
:1057F000299FD00D389FD00D1124C25CD94FCE0106
:105800000E94C989A0E0B0E0BC01CD010E94CCC5D6
:10581000AB01BC01CE010E94248ACE01B401A301D8
:1058200021E00E94739E88E59CE061E871E00E949F
:105830002520CE010E946A89AB01BC0188E59CE06D
:105840000E94F11C88E59CE069E871E00E94252037
:10585000CE010E947989682F88E59CE00E94311F63
:105860000E94502B442021F4CE0161E00E943C951F
:10587000DF91CF911F910F91FF90EF90DF90CF902C
:10588000BF90AF909F908F907F906F905F904F9060
:10589000089520E00E94822B08950F931F9390E0BB
:1058A0002BEF31E0829F8001839F100D929F100D9E
:1058B0001124025C194FC80164E00E945E9AC8017D
:1058C0000E94C989A0E0B0E0BC01CD010E94CCC516
:1058D000AB01BC01C8010E94248AC8010E94BF9E7E
:1058E0000E94502BC80161E00E943C951F910F91CE
:1058F00008958EE396E00E94B4898823A1F489E399
:1059000098E00E94B489882371F484E39AE00E94AD
:10591000B489882341F40E944D2C81E00E944D2CD3
:1059200082E00E944D2C08956F927F928F929F92F9
:10593000AF92BF92CF92DF92EF92FF920F931F939D
:10594000CF93DF9390E02BEF31E0829FE001839FC4
:10595000D00D929FD00D1124C25CD94FCE010E9470
:10596000728B7B018C01CE010E94628B5B016C010A
:10597000CE010E94628B3B014C01CE010E94828BC2
:1059800030E0EA18FB080C091D091E141F0410065C
:1059900011060CF431E020E0661A770A880A990AA9
:1059A00016141704180419040CF421E0321719F026
:1059B000CE0161E002C0CE0160E00E94FC94CE0105
:1059C00064E00E945E9ACE010E94C989A0E0B0E026
:1059D000BC01CD010E94CCC5AB01BC01CE010E942F
:1059E000248ACE010E94CD9E0E94502BCE0161E000
:1059F0000E943C95DF91CF911F910F91FF90EF9006
:105A0000DF90CF90BF90AF909F908F907F906F90DE
:105A100008958EE396E00E94B4898823A1F489E377
:105A200098E00E94B489882371F484E39AE00E948C
:105A3000B489882341F40E94942C81E00E94942C24
:105A400082E00E94942C08952F923F924F925F9291
:105A50006F927F928F929F92AF92BF92CF92DF927E
:105A6000EF92FF920F931F93DF93CF9300D000D05C
:105A700000D0CDB7DEB749835A836B837C832BEF8D
:105A800031E0829FA001839F500D929F500D112401
:105A9000425C594F5E834D83CA010E9460897B013D
:105AA0008C0169817A818B819C8120E030E040E02B
:105AB00050E00E947EC618162CF4A980BA80CB80D4
:105AC000DC8008C0A980BA80CB80DC80D7FAD09473
:105AD000D7F8D0948D819E810E94C989A0E0B0E062
