:100000000C94E30B0C94EDB20C941EB30C944FB310
:100010000C9480B30C94B1B30C94E2B30C9413B46D
:100020000C9444B40C940E0C0C9406AD0C940E0C71
:100030000C940E0C0C940E0C0C940E0C0C946C7D09
:100040000C940E0C0C940E0C0C940E0C0C940E0CC8
:100050000C949A7D0C940E0C0C940E0C0C9475B4AC
:100060000C940E0C0C94B0B60C94A9B80C940E0C15
:100070000C940E0C0C940E0C0C940E0C0C94507FE3
:100080000C94BD7E0C9403800C940E0C0C940E0CFE
:100090000C940E0C0C940E0C1E543A546454805460
:1000A000A654E6540C55305548557955A955CF55A9
:1000B0002B564F56CC56F25618577557A757CF5751
:1000C000F357175822582D582D5E54588D589F5865
:1000D000BC58D958F25818592D5E2D5E2D5E2D5EF4
:1000E0002D5E2D5E3759605984592D5E2D5E2D5E33
:1000F0002D5E2D5E2D5E2D5EA859C059EE592D5EE8
:100100002D5E2D5E2D5E2D5E2D5E2D5E2D5E2D5E97
:100110002D5E2D5E2D5E2D5E2D5E2D5E2D5E2D5E87
:100120002D5E2D5E2D5E2D5E2D5E2D5E2D5E2D5E77
:100130002D5E2D5E2D5E2D5E2D5E2D5E2D5E2D5E67
:100140002D5E2D5E2D5E2D5E2D5E2D5E2D5E2D5E57
:100150002D5E2D5E2D5E2D5E2D5E2D5E905AB65A63
:10016000DB5A015B275B505B705BB15BD75BF65B77
:10017000195C3F5C605C865CA75CC85CE95C0A5DFE
:10018000255D3C5D5D5D705D965DAE5DD95D4765ED
:100190006E2E004D6F742E0043616D2E004B662E47
:1001A0000056656C206F66207265717565737465A5
:1001B00064204B463A2000506F73206F66207265B2
:1001C00071756573746564204B463A200054696DFF
:1001D00065206F6620726571756573746564204B68
:1001E000463A200050726F672E202520636F6D7095
:1001F0006C6574653A20004D61782070726F67728B
:10020000616D2074696D652028696E636C2E2073A2
:10021000746172742064656C6179293A20004B46E0
:100220002043757272656E742072756E2074696DEC
:10023000653A200052756E2073746174653A20002F
:10024000436F6E742E2076696420647572617469E0
:100250006F6E3A2000416363656C2076616C69645F
:100260003A200056656C2076616C69643A20004142
:100270006363656C2061742074696D6520783A2031
:100280000056656C2061742074696D6520783A2091
:1002900000506F736974696F6E2061742074696DAA
:1002A0006520783A20004D6F746F722076656C205F
:1002B000757064617465207261746520286D73299E
:1002C0003A20004B6579206672616D6520636F7519
:1002D0006E743A200054616B696E672075702062FD
:1002E00061636B6C6173680053746F7070696E67E3
:1002F000206B662070726F6772616D00506175735C
:10030000696E67206B662070726F6772616D005254
:10031000756E6E696E672F726573756D696E672095
:100320006B662070726F6772616D005365747469DB
:100330006E6720636F6E742E207669642E206D6F59
:1003400076652074696D653A2000456E64696E6754
:10035000204B46207472616E736D697373696F6EA2
:100360000053657474696E672075647061746520EC
:10037000726174653A200053657474696E67207603
:10038000656C6F636974793A200053657474696EA3
:100390006720706F736974696F6E3A2000536574DB
:1003A00074696E672061627363697373613A2000D8
:1003B00053657474696E67206B6579206672616D30
:1003C0006520636F756E743A200053656C656374C5
:1003D000696E6720617869733A200041766F6964BD
:1003E000206F66667365743A2000496E7465727694
:1003F000616C6F6D65746572206D6F64653F203A46
:1004000020004B6565702D616C6976653F203A2050
:100410000054657374206D6F64653F203A2000536B
:10042000686F74732066697265643A2000496E745F
:10043000657276616C2074696D653A20004D697251
:10044000726F722075703F203A2000466F6375739B
:1004500020772F20736875747465723F203A2000EE
:1004600044656C61792074696D653A20004D61784E
:100470002073686F74733A2000466F63757320743D
:10048000696D653A20005472696767657220746906
:100490006D653A200042757379206578706F7369D5
:1004A0006E673F203A2000456E61626C65643F20B4
:1004B0003A200053657474696E6720696E746572C2
:1004C00076616C6F6D65746572206D6F64653A203E
:1004D0000053657474696E67206B6565702D616C7F
:1004E0006976653A200053657474696E6720746597
:1004F0007374206D6F64653A200053657474696E7F
:100500006720696E74657276616C2074696D653AF6
:10051000200053657474696E67207265706561743C
:10052000206379636C65733A200053657474696E57
:100530006720666F63757320772F206578706F73FF
:100540007572653A200053657474696E672064653E
:100550006C61792074696D653A2000536574746923
:100560006E67206D61782073686F74733A20005352
:10057000657474696E6720666F6375732074696D46
:10058000653A200053657474696E672074726967F8
:100590006765722074696D653A20004578706F73E5
:1005A000696E67206E6F77210053657420656E61F8
:1005B000626C65643A200049732073656E64696EED
:1005C000673F3A2000506C6174666F726D207261F3
:1005D00074696F3A200047656172626F78207261BA
:1005E00074696F3A2000556E697420636F64653AD0
:1005F0002000436865636B696E6720322D7074203C
:1006000076656C2076616C69646974793A20004C77
:100610006561642D6F75743A200049732070726FA4
:100620006772616D2076616C69643F203A200053E7
:100630006C6565703A200050726F6772616D20645E
:100640006563656C206C656E6774683A2000507253
:100650006F6772616D20616363656C206C656E67A6
:1006600074683A20004C6561642D696E3A2000542C
:10067000726176656C206C656E6774683A20005311
:10068000746F7020706F733A20005374617274201D
:10069000706F733A2000456173696E673A200041BC
:1006A0006363656C3A200053706565643A200052BC
:1006B000756E6E696E673F203A20004375727265F1
:1006C0006E7420706F733A2000456E6420706F73F3
:1006D0003A20004D61782073706565643A200044CB
:1006E0006972656374696F6E3A20004D6963726F59
:1006F00073746570733A20004261636B6C61736858
:100700003A2000456E61626C65643A20005365745E
:1007100074696E672073746F702D6D6F74696F6E7E
:10072000206D6F64653A200053657474696E6720AC
:10073000706C6174666F726D20726174696F3A20BB
:100740000053657474696E672067656172626F78C3
:1007500020726174696F3A200053657474696E6722
:1007600020756E6974733A200053657474696E67FE
:1007700020656E6420706F736974696F6E20746F8A
:100780003A200053657474696E67206375727265F0
:100790006E7420706F736974696F6E20746F3A2085
:1007A0000053656E64696E6720746F3A200053656C
:1007B0007474696E672073746F7020686572650069
:1007C00053657474696E6720737461727420686510
:1007D0007265004175746F2D73657474696E67205E
:1007E0006D6963726F7374657073005265736574BD
:1007F000696E67206C696D69747320616E64207323
:10080000746172742F73746F7020706F696E74737B
:100810000053657474696E67206C656164206F7540
:10082000743A200053656E64696E6720746F20739C
:10083000746F70200053656E64696E6720746F205A
:1008400073746172740053657474696E67206465B3
:1008500063656C206C656E6774683A20005365743C
:1008600074696E6720616363656C206C656E677484
:10087000683A200053657474696E672074726176FB
:10088000656C206C656E6774683A200053657474FB
:10089000696E67206C6561642D696E3A200053654E
:1008A0007474696E6720656173696E67206D6F642B
:1008B000653A200053657474696E672073746F70B5
:1008C0003A200053657474696E67207374617274A2
:1008D0003A2000436F6D6D616E64656420737465CA
:1008E00070733A200053657474696E6720616363A6
:1008F000656C65726174696F6E3A2000536574743B
:10090000696E6720636F6E742E2073706565643A3C
:10091000200053657474696E67206A6F7973746917
:10092000636B2073706565643A200053656E64697B
:100930006E6720746F20656E640053656E64696E27
:100940006720746F20686F6D650053657474696EFD
:100950006720656E6420686572653A20005365748F
:1009600074696E6720686F6D6520686572650053F5
:10097000657474696E6720646972656374696F6E0B
:100980003A200053657474696E67206D6178207336
:10099000706565643A200053657474696E67206DF4
:1009A0006963726F73746570733A20005365747471
:1009B000696E67206261636B6C6173683A200053F3
:1009C000746F7070696E67206D6F746F720053651D
:1009D0007474696E6720656E61626C653A200053BD
:1009E000657474696E6720736C6565703A20005297
:1009F000756E696E672073656C6620646961676EE9
:100A00006F737469630046726565206D656D6F7202
:100A1000793A20004772616666696B206D6F646584
:100A20003A200050726F6772616D2072756E20738C
:100A300074617475733A2000436F6E74726F6C6CDE
:100A4000657220636F756E743A2000456E64207085
:100A50006F7320726573746F72653A20005374610E
:100A600072742F73746F7020706F7320726573745B
:100A70006F72653A200043757220706F7320726543
:100A800073746F72653A2000416C6C206D6F746FE7
:100A90007220736C656570207374617465733A209D
:100AA0000050726F6772616D2076616C69643F3AC5
:100AB0002000416E79206D6F746F72732072756EB5
:100AC0006E696E673F3A200046505320666C61673E
:100AD0003A200049732070726F6772616D20636FF6
:100AE0006D706C6574653F3A2000546F74616C20C2
:100AF00070726F6772616D2074696D653A20005481
:100B00006F74616C2070726F6772616D2074696DB3
:100B1000653A20002520436F6D706C6574653A203E
:100B2000005761746368646F67206D6F64653F2070
:100B30003A200050696E67706F6E67206D6F646554
:100B40003A20004A6F79737469636B206D6F646536
:100B50003A2000506C616E20747970653A20005321
:100B6000746172742064656C61793A2000416C7420
:100B700020696E70757420656467652064657465AE
:100B80006374696F6E3A2000537570706C792063DE
:100B9000757272656E743A2000537570706C7920AE
:100BA000766F6C746167653A200043757272656E8A
:100BB000742072756E2074696D653A200052756EEE
:100BC000207374617475733A200053657474696E90
:100BD0006720617070206D6F64653A200053657402
:100BE00074696E67204772616666696B206D6F6419
:100BF000653A200053657474696E6720636F6E7484
:100C0000726F6C6C657220636F756E743A2000535E
:100C1000657474696E6720656E6420706F732072EE
:100C20006573746F72653A200053657474696E67FA
:100C30002073746172742F73746F7020706F7320DF
:100C4000726573746F72653A200053657474696ECF
:100C5000672063757220706F7320726573746F7292
:100C6000653A2000526576657273696E6720737409
:100C70006172742F73746F7020706F696E7473007B
:100C800053657474696E672046505320666C6167C3
:100C90003A200053657474696E672073746F702016
:100CA000706F73206865726520666F7220616C6C6E
:100CB000206D6F746F72732E2E2E0053656E6469F3
:100CC0006E67206D6F746F727320746F2073746120
:100CD000727420706F736974696F6E0053657474F9
:100CE000696E672070696E672D706F6E67206D6F1B
:100CF00064650053657474696E67206A6F797374F4
:100D000069636B206D6F64650053657474696E6709
:100D10002070726F6772616D206D6F64653A20009C
:100D200053657474696E67207374617274206465AE
:100D30006C61793A200053657474696E672077613D
:100D4000746368646F67206D6F64653A2000536553
:100D50007474696E67206C696D6974207377697447
:100D600063682065646765206D6F64653A20005391
:100D7000656E64696E6720616C6C206D6F746F7254
:100D80007320686F6D650053657474696E672061C8
:100D90006464726573733A2000546F67676C696EA0
:100DA00067206465627567204C45440053746F701A
:100DB00070696E672070726F6772616D0050617547
:100DC00073696E672070726F6772616D0053746132
:100DD0007274696E67202F20726573756D696E6716
:100DE0002070726F6772616D0053657474696E670D
:100DF000206E657720616464726573732100426CB4
:100E00007565746F6F746820004D6F636F42757302
:100E10002000537562616464723A0020636F6D6DE7
:100E2000616E643A00206275665B305D3A20002096
:100E30006275665B315D3A2000206275665B325DEB
:100E40003A2000206275665B335D3A2000206275AF
:100E5000665B345D3A200074696D65200053656EF1
:100E600064696E67206D6F746F72200072657665BD
:100E7000727365537461727453746F702829004DD6
:100E80006F742E3133202D204175746F2D73746172
:100E90007274696E6720636F6E74696E756F7573B7
:100EA000206D6F7665004A6F79737469636B3A20C1
:100EB000004D6F746F7273206172652072756E6E73
:100EC000696E672C2063616E2774206175746F2DC5
:100ED000736574206D6963726F737465707300520B
:100EE0006571756573746564204D6963726F7374A1
:100EF0006570733A2000547279696E6720746F20B0
:100F00006175746F2D736574206D6963726F73748E
:100F100065707300457863657373697665207370D7
:100F20006565642072657175657374656400546FDE
:100F30007020737065656420726571756573746582
:100F4000643A20004D6963726F73746570733A2060
:100F5000004F7574206F66206C6F6F7020616E6437
:100F6000206D6F76696E67206F6E21004D69637228
:100F70006F73746570733A200047657474696E67A7
:100F800020766964206D6F76652074696D653A20FE
:100F90000047657474696E6720544C206D6F7665E8
:100FA0002074696D653A2000536875747465722009
:100FB000646F6E652C20726561647920666F7220A3
:100FC0006D6F76650054696D652061742065787079
:100FD0006F737572653A200054696D6520617420E5
:100FE000666F6375733A20006B665F43616D65726F
:100FF00061436865636B2829202D204261696C6913
:101000006E672066726F6D2063616D65726120632B
:1010100079636C6520617420706F696E7420320092
:101020006B665F43616D657261436865636B282918
:10103000202D20536B697070696E672073686F7420
:101040002C2077616974696E6720666F72206578FD
:101050007465726E616C20747269676765720053A3
:10106000656E64696E6720746F200041626F7574ED
:1010700020746F2073656E6420746F206C6F6361E1
:1010800074696F6E20233A200053656E64696E6741
:10109000206D6F746F727320746F206E6577206C93
:1010A0006F636174696F6E73005374617274696EFB
:1010B00067206E6577206B6620626F756E636520B2
:1010C00070726F6772616D00526576657273696EDA
:1010D00067206B657920706F696E7473005374615B
:1010E0007274696E672070696E672D706F6E67200D
:1010F00070686173650053746F7070696E67206B00
:10110000662070726F6772616D00537461727469EA
:101110006E67206B65657020616C6976652070680C
:10112000617365005061757365206C656E677468E6
:101130003A200053544F5050494E47204B462050C0
:10114000524F4752414D0053746F7070696E672063
:101150006D6F746F72200050415553494E47204BBC
:10116000462050524F4752414D00204B462070724E
:101170006F6772616D005374617274696E67206E7F
:101180006577207479706520002A2A2A2056656CBC
:101190006F636974696573202A2A2A002A2A2A2023
:1011A000506F736974696F6E73202A2A2A002A2A85
:1011B0002A20416273636973736173202A2A2A00AB
:1011C000207E7E7E7E7E7E007E7E7E7E7E7E2041B6
:1011D0005849532000436F6E742E20766964656F02
:1011E0002074696D653A200050726F6772616D20DE
:1011F0006D6F64653A200050657263656E7420639C
:101200006F6D706C6574653A200043757272656E1F
:10121000742072756E2074696D653A200052756E87
:10122000207374617475733A20004D6178206D6F7E
:1012300076652074696D653A20004D6178206361A0
:101240006D6572612074696D653A20007E7E7E7ED8
:101250007E7E2047656E6572616C2050726F67728A
:10126000616D20506172616D73207E7E7E7E7E7E18
:10127000004175746F2070617573696E672121215B
:10128000006379636C6553686F744F4B2829202D78
:1012900020616C74466F72636553686F74206E6F63
:1012A00074206465746563746564006379636C6558
:1012B00053686F744F4B2829202D20616C74466F42
:1012C00072636553686F74206465746563746564E4
:1012D000202A2A2A2A2A2A2A2A2A2A2A2A0063791A
:1012E000636C6553686F744F4B2829202D20457817
:1012F000742E20696E74657276616C206D6F646502
:1013000020616374697665006379636C6553686F07
:10131000744F4B2829202D20456E74657220667508
:101320006E6374696F6E006379636C6543616D65AC
:1013300072612829202D205374617274696E6720B0
:101340006578706F73757265206379636C6500638F
:1013500079636C6543616D6572612829202D204396
:10136000616D65726120627573793A2000637963FB
:101370006C6543616D6572612829202D2042616989
:101380006C696E672066726F6D2063616D65726156
:10139000206379636C6520617420706F696E7420BE
:1013A00033004D6F746F7220006379636C65436125
:1013B0006D6572612829202D2053686F74733A205F
:1013C000006379636C6543616D6572612829202D26
:1013D000204261696C696E672066726F6D2063617F
:1013E0006D657261206379636C6520617420706F34
:1013F000696E742032006379636C6543616D657258
:10140000612829202D20536B697070696E672073E5
:10141000686F742C2077616974696E6720666F72DB
:101420002065787465726E616C2074726967676597
:1014300072006379636C6543616D65726128292070
:101440002D204261696C696E672066726F6D206342
:10145000616D657261206379636C652061742070D1
:101460006F696E742031006D73206F66206C65614A
:10147000642D6F75742072656D61696E696E6700A9
:101480006379636C6543616D6572612829202D2045
:1014900054686572652061726520006379636C65CC
:1014A00043616D6572612829202D20416C6C206D8F
:1014B0006F7420646F6E65206D6F76696E67006370
:1014C00079636C6543616D6572612829202D205018
:1014D000617573696E67006379636C6543616D65FF
:1014E00072612829202D2053746172740063616D2C
:1014F00043616C6C4261636B2829202D2053746F0B
:10150000700063616D43616C6C4261636B282920DC
:101510002D20537461727400206C656164496E3AC9
:1015200020002073686F74733A200020547970652E
:101530003A200020656E61626C653A200020727569
:101540006E6E696E673A200020656E64506F733A64
:1015500020002073746F70506F733A2000207374F2
:10156000617274506F733A2000206261636B6C612A
:1015700073683A200020636F6E74696E696F7573CB
:101580002053706565643A200043757272656E740D
:1015900020537465707320004F4D43616D65726117
:1015A0003A3A73746F702829202D2053657474693A
:1015B0006E672077616974207374617465004F4DA4
:1015C00043616D6572613A3A73746F702829202DFA
:1015D0002053746F7070696E6720666F6375730057
:1015E0004F4D43616D6572613A3A73746F7028298B
:1015F000202D2053746F7070696E67206578706F4E
:1016000073757265004F4D43616D6572613A3A734F
:10161000746F702829202D20456E746572696E677D
:101620002066756E6374696F6E001201100102000E
:101630000008EB03442001000102030109023E00FF
:10164000020100C032090400000102020100052469
:101650000010010424020605240600010705820388
:101660000800FF09040100020A0000000705040247
:1016700010000507058302100005040309042E036A
:10168000440079006E0061006D0069006300200075
:10169000500065007200630065007000740069000E
:1016A0006F006E0020004C004C00430000003C0323
:1016B000440079006E0061006D0069006300200045
:1016C00050006500720063006500700074006900DE
:1016D0006F006E00200043004400430020005300D0
:1016E00065007200690061006C0000000E033000AC
:1016F00030003400350037003300000000002100C6
:10170000240027002A002D003000000022002500C0
:1017100028002B002E0031000000200023002600AE
:1017200029002C002F000101010101010101020229
:10173000020202020202030303030303030304047D
:10174000040404040404050505050505050506064D
:101750000606060606060102040810204080010263
:10176000040810204080010204081020408001027B
:10177000040810204080010204081020408001026B
:10178000040810204080000000000000000000005D
:10179000000007030401000000000B0A0900020812
:1017A0000000000000000000000000000000000039
:1017B00000000000000000010203040506070119F3
:1017C00064B88CBCFA1811241FBECFEFD0E2DEBF84
:1017D000CDBF14E0A0E0B1E0E6EDFEE801E00BBF14
:1017E00002C007900D92A630B107D9F71BBE12E1D7
:1017F000A6E0B4E001C01D92A73DB107E1F717E1F3
:10180000C4ECD7E104C02297FE010E9423C7CE3B5F
:10181000D107C9F70E947FB90C945EC70C940000F1
:10182000CF93DF93BC018230910510F462E070E049
:10183000A091CF12B091D012ED01E0E0F0E040E0D5
:1018400050E021C0888199818617970769F48A81C1
:101850009B81309719F09383828304C09093D012B8
:101860008093CF12FE0134C06817790738F4411510
:10187000510519F08417950708F4AC01FE018A811F
:101880009B819C01E9012097E9F641155105A9F1D9
:10189000CA01861B970B049708F4BA01E0E0F0E058
:1018A0002AC08D919C91119784179507F9F46417BC
:1018B000750781F412968D919C911397309719F0CA
:1018C0009383828304C09093D0128093CF12FD0142
:1018D00032964CC0CA01861B970BFD01E80FF91F19
:1018E0006193719302978D939C9340C0FD01828117
:1018F00093819C01D9011097A1F68091CD1290910E
:10190000CE12892B41F4809112039091130390938E
:10191000CE128093CD1240911403509115034115BE
:10192000510541F44DB75EB78091100390911103BA
:10193000481B590B2091CD123091CE12CA01821B47
:10194000930B8617970780F0AB014E5F5F4F8417AC
:10195000950750F0420F531F5093CE124093CD1273
:10196000F9016193719302C0E0E0F0E0CF01DF91F3
:10197000CF910895CF93DF93009709F450C0EC0105
:1019800022971B821A82A091CF12B091D012109789
:1019900009F140E050E0AC17BD0708F1BB83AA8312
:1019A000FE0121913191E20FF31FAE17BF0779F4C9
:1019B0008D919C911197280F391F2E5F3F4F3983CE
:1019C000288312968D919C9113979B838A8341154E
:1019D000510571F4D093D012C093CF1220C012964B
:1019E0008D919C911397AD01009711F0DC01D3CF3D
:1019F000FA01D383C28321913191E20FF31FCE17F5
:101A0000DF0769F488819981280F391F2E5F3F4FC6
:101A1000FA01318320838A819B8193838283DF91C2
:101A2000CF910895A0E0B0E0E8E1FDE00C9429C773
:101A30006C01009729F4CB010E94100C6C01C1C00D
:101A40008EEF882E8FEF982E8C0C9D1C8601060F32
:101A5000171F0815190508F4B2C0F401A081B1815F
:101A6000A617B707B8F0A530B10508F4AAC0CD0194
:101A700004978617970708F4A4C01297A61BB70B04
:101A8000F801A193B193D4016D937C93CF010E948F
:101A9000BA0C97C07B01EA1AFB0AEEEFFFEFEE0EDD
:101AA000FF1E36016A0E7B1EC091CF12D091D0125C
:101AB00044245524AA24BB244AC0C615D705E1F501
:101AC000488159814E155F05B8F1CA0104978E15FA
:101AD0009F05B0F41296A40FB51FF401B183A08343
:101AE0002A813B814114510431F0D20113963C9379
:101AF0002E93129766C03093D0122093CF1261C0FC
:101B00008A819B81F80193838283425050404E1911
:101B10005F09518340834114510431F0D20113967F
:101B20001C930E93129704C01093D0120093CF12FF
:101B3000F4017183608345C088819981A816B90634
:101B400008F45C012E018A819B819C01E9012097A8
:101B500009F0B3CF8091CD129091CE1286159705E2
:101B6000E9F4A616B706D0F42091140330911503BA
:101B70002115310541F42DB73EB7809110039091A6
:101B80001103281B390B02171307C8F41093CE1248
:101B90000093CD12D4016D937C9313C0CB010E94AE
:101BA000100CEC01009759F0F40140815181B6010D
:101BB0000E94EE0DC6010E94BA0C6E0102C0CC2438
:101BC000DD24C601CDB7DEB7E0E10C9445C7FB01CB
:101BD000DC0105900D920020E1F70895FB01DC0186
:101BE00002C001900D9241505040D8F70895FB017A
:101BF000DC0101900D920020E1F70895FB019F01A7
:101C0000E8944230C4F04532B4F44A3029F497FBEA
:101C10001EF4909581959F4F642F77270E94BDC633
:101C2000805D8A330CF0895D8193CB010097A1F729
:101C300016F45DE251931082C9010C946110FA010F
:101C4000CF93FF93EF932230CCF02532BCF4C22F18
:101C50002C2F332744275527FF93EF930E94E4C688
:101C6000EF91FF91605D6A330CF0695D6193B9019A
:101C7000CA01605070408040904051F710828F91AF
:101C80009F91CF910C946110FB019F01423074F041
:101C9000453264F4642F77270E94BDC6805D8A3385
:101CA0000CF0895D8193CB010097A1F71082C901E7
:101CB0000C946110A0E0B0E0E0E6FEE00C9437C7C1
:101CC0009E01275F3F4F8D819E816F817885A9019D
:101CD0000E946E0E2096E2E00C9453C7ABE0B0E099
:101CE000E4E7FEE00C9427C73C012B015A01FC01FC
:101CF00017821682838181FD03C06FEF7FEFC6C11B
:101D00009AE0892E1E010894211C311CF3012381C5
:101D1000F20123FD859123FF81912F01882309F48E
:101D2000B2C1853239F423FD859123FF81912F01C2
:101D3000853229F490E0B3010E947110E7CF982F0B
:101D4000FF24EE249924FFE1FF15D0F09B3269F0C7
:101D50009C3228F4903259F0933291F40EC09D32A7
:101D600049F0903369F441E024C052E0F52A84E060
:101D7000F82A28C098E0F92A25C0E0E1FE2A22C00E
:101D8000F7FC29C0892F80538A3070F4F6FE05C015
:101D9000989C902C1124980E15C0E89CE02C1124DE
:101DA000E80EF0E2FF2A0EC09E3229F4F6FC6BC169
:101DB00040E4F42A07C09C3619F450E8F52A02C022
:101DC000983649F4F20123FD959123FF91912F015B
:101DD000992309F0B8CF892F8554833018F08052A9
:101DE000833038F444E050E0A40EB51E5FE359831D
:101DF0000FC0933631F0933779F0933509F056C020
:101E000020C0F5018081898342E050E0A40EB51E18
:101E1000610101E010E012C0F501C080D180F6FC44
:101E200003C06FEF7FEF02C0692D70E042E050E029
:101E3000A40EB51EC6010E9456108C015FE7F52264
:101E400014C0F501C080D180F6FC03C06FEF7FEFB6
:101E500002C0692D70E042E050E0A40EB51EC6013C
:101E60000E944B108C0150E8F52AF3FE07C01AC0FF
:101E700080E290E0B3010E947110EA948E2D90E010
:101E800008171907A8F30EC0F601F7FC8591F7FEB5
:101E900081916F0190E0B3010E947110E110EA940A
:101EA000015010400115110579F7EAC0943611F080
:101EB000993669F5F7FE08C0F5012081318142812C
:101EC000538184E090E00AC0F501808191819C01FA
:101ED000442737FD4095542F82E090E0A80EB91EAC
:101EE0009FE6F92257FF09C05095409530952195FE
:101EF0003F4F4F4F5F4FE0E8FE2ACA01B901A101F1
:101F00002AE030E00E949D10D82ED21840C09537AC
:101F100029F41F2D1F7E2AE030E01DC01F2D197FE0
:101F20009F3661F0903720F4983509F0ACC00FC0AF
:101F3000903739F0983709F0A6C004C028E030E0A7
:101F40000AC0106114FD146020E130E004C014FDEB
:101F5000166020E132E017FF08C0F5016081718151
:101F60008281938144E050E008C0F5018081918135
:101F7000BC0180E090E042E050E0A40EB51EA1015B
:101F80000E949D10D82ED2188FE7F82EF122F6FE6F
:101F90000BC05EEFF522D91438F4F4FE07C0F2FC52
:101FA00005C08FEEF82202C01D2D01C0192DF4FED0
:101FB0000DC0FE01ED0DF11D8081803319F499EE05
:101FC000F92208C01F5FF2FE05C003C08F2D86787E
:101FD00009F01F5F0F2DF3FC14C0F0FE0FC01E159B
:101FE00010F09D2C0BC09D2C9E0C911A1E2D06C02E
:101FF00080E290E0B3010E9471101F5F1E15C0F3D4
:1020000004C01E1510F4E11A01C0EE2404FF0FC035
:1020100080E390E0B3010E94711002FF1DC001FD3A
:1020200003C088E790E00EC088E590E00BC0802FE9
:10203000867891F001FF02C08BE201C080E2F7FCDC
:102040008DE290E0B3010E94711006C080E390E041
:10205000B3010E9471109A94D914C0F3DA94F1017B
:10206000ED0DF11D808190E0B3010E947110DD2023
:10207000A9F706C080E290E0B3010E947110EA94D3
:10208000EE20C1F743CEF30166817781CB012B9619
:10209000E2E10C9443C7FC010590615070400110CF
:1020A000D8F7809590958E0F9F1F0895FC01615081
:1020B000704001900110D8F7809590958E0F9F1F6A
:1020C0000895DC01FC01672F71917723E1F73297C6
:1020D00004C07C916D9370836291AE17BF07C8F303
:1020E00008950F931F93CF93DF938C01EB018B81A6
:1020F00081FF1BC082FF0DC02E813F818C819D819D
:102100002817390764F4E881F9810193F983E8839A
:1021100006C0E885F985802F0995892B31F48E81D9
:102120009F8101969F838E8302C00FEF1FEFC8012E
:10213000DF91CF911F910F910895FA01AA272830BE
:1021400051F1203181F1E8946F936E7F6E5F7F4F84
:102150008F4F9F4FAF4FB1E03ED0B4E03CD0670F00
:10216000781F891F9A1FA11D680F791F8A1F911D53
:10217000A11D6A0F711D811D911DA11D20D009F4A3
:1021800068943F912AE0269F11243019305D3193E5
:10219000DEF6CF010895462F4770405D4193B3E0CE
:1021A0000FD0C9F7F6CF462F4F70405D4A3318F075
:1021B000495D31FD4052419302D0A9F7EACFB4E026
:1021C000A6959795879577956795BA95C9F70097DE
:1021D0006105710508959B01AC010A2E069457957F
:1021E000479537952795BA95C9F7620F731F841FD6
:1021F000951FA01D0895FC011082118281E0828349
:102200000895FC01748363830E94FB100895FC0110
:1022100080810895FC016183862F0895FC0162830B
:10222000862F08951F93CF93DF93EC01162F6883B9
:102230008981882399F08AEA92E160E071E00E9446
:1022400064BB8AEA92E1612F42E050E00E94D9BA71
:102250008AEA92E167E171E00E9414BC8A818823D6
:1022600099F08B819C8160E071E00E9464BB8B815E
:102270009C81612F42E050E00E94D9BA8B819C8101
:1022800067E171E00E9414BCDF91CF911F91089526
:102290008091100408958091480410924804089594
:1022A0008091740310927403089580930904882325
:1022B00011F010920A040895809109040895809302
:1022C0000A04882311F010920904089580910A04E9
:1022D00008958093490480934A04089580914904A5
:1022E000811181E0089581E08093020D08950F939C
:1022F0001F93CF93DF93EC018EE46132780718F0DF
:1023000060E27EE405C06436710510F464E670E0B6
:1023100080E090E00E9420C52FEF30E0C29F800156
:10232000C39F100DD29F100D1124075F124F0F5045
:102330001F4FF80161937193819391938F0120E076
:1023400030E040E05FE30E94D6C5F801608371830E
:1023500082839383DF91CF911F910F9108952F92E4
:102360003F924F925F926F927F928F929F92AF9225
:10237000BF92CF92DF92EF92FF920F931F93DF9362
:10238000CF9300D000D0CDB7DEB73C018FEF90E007
:10239000689EB001699E700D789E700D1124FB013E
:1023A000E75FF24FDF01A751BF4FE351FF4F20819D
:1023B0003181428153818D919D910D90BC91A02DD1
:1023C000281739074A075B0709F43FC1FB01E55F9E
:1023D000F24F80E090E020E030E040E050E02083E9
:1023E00031834283538320AF31AF42AF53AF148E5A
:1023F000158E168E178E019634968730910579F7D3
:102400008FEF90E0689E8001699E100D789E100D00
:102410001124075F124F05501F4FD8016D917D9118
:102420008D919C9120E030E040EA51E40E94D6C5B5
:102430002FE632E143E852E40E9487C46B017C013D
:1024400006501040D8018D919D910D90BC91A02D0A
:1024500089839A83AB83BC83F801B290A290929057
:102460008290C701B601A50194010E94D2C5181639
:1024700014F4750164018FEF90E0689EF001699E8D
:10248000F00D789EF00D1124EF50F24F80818823DB
:1024900021F4F7FAF094F7F8F094C701B601298116
:1024A0003A814B815C810E9487C41B012C01E89416
:1024B00057F88FEF90E0689EF001699EF00D789ECE
:1024C000F00D1124E75FF24F22823382448255825D
:1024D000E751FF4F80819181A281B381E95EF04095
:1024E000868F978FA0A3B1A3C2AED3AEE4AEF5AEF4
:1024F000C701B60120E030E040E050E00E94D2C5C4
:1025000018164CF489819A81AB81BC81B0588983BB
:102510009A83AB83BC838FEF90E0689E8001699EB5
:10252000100D789E100D1124075F124F86E5682E5E
:10253000712C600E711E89819A81AB81BC81F3017F
:1025400080839183A283B3830F2EF0E08F2EF0E07F
:102550009F2EF0E0AF2EF0E0BF2EF02DD8011696A2
:102560008D929D92AD92BC9219975E966D917D91E0
:102570008D919C9191970E9422C56B017C01C201B3
:10258000B101F80122AD33AD44AD55AD0E94D6C5C1
:102590009B01AC01C701B6010E941FC46B017C0105
:1025A00069817A818B819C8120E030E040E05FE3AB
:1025B0000E94D6C5A20191010E94D6C5A201910137
:1025C0000E94D6C59B01AC01C701B6010E941FC481
:1025D0000E94EFC46B017C01D80192966D937D93AC
:1025E0008D939C939597025C1F4FF8018082918296
:1025F000A282B382045E1F4FD8018D929D92AD924C
:10260000BC921397F301608171818281938120E0F4
:1026100030E040E05FE30E94D6C5D3016D937D9327
:102620008D939C9313970D561F4FF801C082D18252
:10263000E282F38209501040D8018D929D92AD92B2
:10264000BC921397F801129212920F900F900F9074
:102650000F90CF91DF911F910F91FF90EF90DF903E
:10266000CF90BF90AF909F908F907F906F905F9032
:102670004F903F902F90089580E090E00E94AF111E
:1026800081E090E00E94AF1182E090E00E94AF11E3
:10269000089520E0039708F421E0822F08952F92F7
:1026A0003F924F925F926F927F928F929F92AF92E2
:1026B000BF92CF92DF92EF92FF920F931F93DF931F
:1026C000CF93CDB7DEB760970FB6F894DEBF0FBEDD
:1026D000CDBF8C0149875A876B877C873E872D87C2
:1026E0008FEF90E0089FF001099FF00D189FF00D0B
:1026F0001124EF50F24F8081882359F40F2EF0E01F
:10270000CF2EF0E0DF2EF0EAEF2EF1ECFF2EF02DD1
:102710000AC00F2EF0E0CF2EF0E0DF2EF0EAEF2E11
:10272000F1E4FF2EF02D8FEF90E0089F9001099FBC
:10273000300D189F300D1124275F324F25503F4F29
:10274000D9012D903D904D905C9022513040D9019F
:102750008D919D910D90BC91A02D8D839E83AF8313
:10276000B88729853A854B855C8582179307A4072E
:10277000B5072CF04FEF5FEF588B4F8704C081E017
:1027800090E0988B8F87C201B10120E030E040E0FB
:1027900050E00E9483C4882309F44BC18FEF90E07E
:1027A000089FF001099FF00D189FF00D1124EF50C4
:1027B000F24F808190E0AF85B889FC01AE9FC001E7
:1027C000AF9F900DBE9F900D112497FF32C1C8019D
:1027D0000E94AF113CC18FEF90E0089FF001099F6C
:1027E000F00D189FF00D1124E75FF24FEF50FF4FEF
:1027F000619071908190919080819181A281B3814B
:1028000089839A83AB83BC83C701B601A20191017E
:102810000E94D6C52FE632E143E852E40E9487C405
:102820007B018C01E89417F9C801B701A401930159
:102830000E9483C487FD15C00F2EF0E06F2EF0E0DC
:102840007F2EF0E08F2EF0E09F2EF02D0F2EF0E087
:102850002F2EF0E03F2EF0E04F2EFFE35F2EF02D05
:1028600035C0C401B301A80197010E941EC429818B
:102870003A814B815C810E9487C43B014C0120E07E
:1028800030E040E05FE30E9483C487FD15C00F2E57
:10289000F0E06F2EF0E07F2EF0E08F2EFFE39F2E12
:1028A000F02D0F2EF0E02F2EF0E03F2EF0E04F2E17
:1028B000F0E05F2EF02D0AC060E070E080E09FE362
:1028C000A40193010E941EC41B012C0169817A811D
:1028D0008B819C81A40193010E94D6C59B01AC0110
:1028E000C801B7010E941FC45B016C01C801B70198
:1028F000A40193010E94D6C57B018C0169817A8174
:102900008B819C8120E030E040E05FE30E94D6C5EF
:10291000A40193010E94D6C5A40193010E94D6C5CB
:102920009B01AC01C801B7010E941FC40E94EFC403
:102930000E9422C57B018C01C201B101A601950153
:102940000E94D6C59B01AC01C801B7010E941FC4FB
:102950000E94EFC40E9422C57B018C01C601B50113
:10296000A60195010E94D6C520E030E040E05FE37B
:102970000E94D6C529813A814B815C810E9487C41F
:102980009B01AC01C801B7010E941FC40E94EFC4A3
:10299000EF85F8899F01442737FD4095542F0E9409
:1029A0009EC62D813E814F815885620F731F841F03
:1029B000951F4F8558894130510551F429853A8535
:1029C0004B855C8526173707480759078CF40EC0DE
:1029D0004F8558894F5F5F4F59F429853A854B855C
:1029E0005C85621773078407950714F4CA01B9015F
:1029F000AD85BE856D937D938D939C93139781E0F8
:102A000060960FB6F894DEBF0FBECDBFCF91DF91B9
:102A10001F910F91FF90EF90DF90CF90BF90AF90FC
:102A20009F908F907F906F905F904F903F902F90EE
:102A3000089529853A854B855C858D819E81AF817E
:102A4000B885281739074A075B0709F0C4CE80E02C
:102A5000D7CF80911304089580912F04882339F4EF
:102A60008091BA04882319F420E030E00AC0209154
:102A70003A0430913B048091110490911204280F84
:102A8000391FC90108951092120410921104109276
:102A90003B0410923A04089520913204309133049B
:102AA000409134045091350480912704909128047A
:102AB000A0912904B0912A04280F391F4A1F5B1FD7
:102AC000B901CA0108958091BA04882319F420E05D
:102AD00030E00BC08091BB04882319F421E030E082
:102AE00004C0813011F422E030E0C9010895209142
:102AF0003604309137044091380450913904809164
:102B0000A6049091A704A091A804B091A904280F4D
:102B1000391F4A1F5B1FB901CA010895813039F07E
:102B2000813018F0823051F406C083E001C082E0A9
:102B300080932E03089581E080932E030895E09101
:102B40001A10F0911B10309709F0099508958091A3
:102B50004F040895823010F48093310408958091D9
:102B6000310408958091140408951F9380912F04D7
:102B7000882311F011E007C08091BA04882311F076
:102B800015E001C010E080914504882311F0136026
:102B900004C08091BB0481111660809144048111AE
:102BA00018600E94B215811110610E94AF15811149
:102BB0001062812F1F910895FC0110820895FC017D
:102BC00080810895FC0180E88093861080938710AF
:102BD00080938810809389101286138608951F931E
:102BE000FC018081882309F455C070E06150704079
:102BF0002581368147815085DA01C901062E04C03E
:102C0000B695A795979587950A94D2F7182F1170C6
:102C100081819281A381B481062E04C0B695A795C7
:102C2000979587950A94D2F780FF17C081E090E0CE
:102C3000A0E0B0E004C0880F991FAA1FBB1F6A95CF
:102C4000D2F7822B932BA42BB52B85839683A78356
:102C5000B0871130E9F481E01EC081E090E0A0E08F
:102C6000B0E004C0880F991FAA1FBB1F6A95D2F756
:102C700080959095A095B09582239323A423B523A6
:102C800085839683A783B087113021F482E003C047
:102C900083E001C080E01F910895FC0180818823BA
:102CA00041F1862F90E0019725813681478150853B
:102CB000082E04C056954795379527950A94D2F764
:102CC000922F9170218132814381548104C05695A5
:102CD0004795379527958A95D2F720FF06C0913002
:102CE00011F481E0089583E00895913011F482E0B9
:102CF000089580E00895FC01E45BFF4F8081089512
:102D0000FC01E25BFF4F80810895FC01E15BFF4F16
:102D100080810895089510923A1008950895AF9211
:102D2000BF92CF92DF92EF92FF920F931F935A01BF
:102D30006B01CB01BA0120E030E040E053E40E9497
:102D40001EC47B018C0120E030E040E050E00E9496
:102D5000D2C518165CF4C801B70120E030E040E2AB
:102D600051E40E9483C41816ACF00AC0C801B70130
:102D700020E030E040E251EC0E94D2C5882354F0BC
:102D80000F2EF0E0AF2EF0E0BF2EF0E0CF2EF3E4F8
:102D9000DF2EF02DB501C6011F910F91FF90EF902E
:102DA000DF90CF90BF90AF900895FC0113A20895DB
:102DB000FC01E60FF11D43870895CF93DF93EC01EB
:102DC000222319F40E94D51612C081E08BA32EA3F2
:102DD0001FA25FA74EA75BA74AA779A768A71DA652
:102DE0001CA60E94BDB468AB79AB8AAB9BABDF91EC
:102DF000CF91089566E970E044E650E021E00E943A
:102E0000DD1608957F928F929F92AF92BF92CF92DC
:102E1000DF92EF92FF920F931F93CF93DF934C01BA
:102E2000742EE9018AE390E10E94EF15833019F5D1
:102E3000BE0180E090E00E9420C57B018C012AE960
:102E400039E949E15EE30E94D6C50E94F4C45B0102
:102E50006C01C801B7012AE939E949E55FE30E943D
:102E6000D6C50E94F4C49B01AC01C401B501A901FF
:102E7000272D0E94DD16DF91CF911F910F91FF90BA
:102E8000EF90DF90CF90BF90AF909F908F907F900A
:102E900008956F927F928F929F92AF92BF92CF923E
:102EA000DF92EF92FF920F931F93CF93DF93EC018A
:102EB000162FA42E4901702E6C2C8AE390E1642F0A
:102EC0000E94EF15982F8091D410882329F08091CB
:102ED000D310A81609F08DC0933009F063C01123F8
:102EE000A9F5A092D31081E08093D4100E94BDB4C4
:102EF0006093CF107093D0108093D1109093D21024
:102F00001092CE10B70180E090E00E9420C57B01B6
:102F10008C012AE939E949E15EE30E94D6C50E94A5
:102F2000F4C45B016C01C801B7012AE939E949E53C
:102F30005FE30E94D6C50E94F4C49B01AC01CE01A0
:102F4000B501A9012FEF0E94DD1645C0133019F01D
:102F5000113009F040C0B70180E090E00E9420C528
:102F60007B018C012AE939E949E15EE30E94D6C57B
:102F70000E94F4C45B016C01C801B7012AE939E978
:102F800049E55FE30E94D6C50E94F4C49B01AC01F1
:102F9000CE01B501A901272D0E94DD1681E08093A5
:102FA000D51027C09230B9F48091D510813019F432
:102FB0001092D5101EC0882371F48091CE10882302
:102FC00019F4CE010E94D5161092D4108FA1F401ED
:102FD000808381E00FC08FA1861558F08091CE10BC
:102FE000882339F4CE010E94D51681E08093CE105B
:102FF0006FA280E0DF91CF911F910F91FF90EF9032
:10300000DF90CF90BF90AF909F908F907F906F9008
:1030100008958F929F92AF92BF92CF92DF92EF92DC
:10302000FF920F931F938130910509F0B3C06F5F3A
:103030007F4F09F0D4C080E594E00E94D8848AE6EE
:1030400094E00E94D88484E894E00E94D88410928E
:10305000BF041092BE0488EE93E0A0E0B0E080933D
:10306000C0049093C104A093C204B093C30488EC3D
:1030700093E09093BD048093BC044091220350914F
:10308000230388EC94E06CEB74E026E430E00AEA79
:1030900013E00E94F8A940912203509123038AE291
:1030A00095E06AEA72E126E430E00E94F8A94091D6
:1030B0002203509123038CE895E068E872E126E44E
:1030C00030E00E94F8A98EEE95E00E9420888FEEF5
:1030D00095E00E940FA5A1B284E096E06DE270E059
:1030E00040E150E020E230E001E110E0E2E1EE2ECC
:1030F000F12CB3E1CB2ED12CBB24A5E08A2E912C50
:103100000E9431A1A1B28FEF97E06EE270E045E13D
:1031100050E024E130E00DE110E0FEE1EF2EF12C73
:10312000EFE1CE2ED12CB6E08B2E912C0E9431A156
:10313000A1B28AEF99E06FE270E042E250E021E252
:1031400030E00FE010E0ABE2EA2EF12CFCE2CF2EF3
:10315000D12CE7E08E2E912C0E9431A185EF9BE0CF
:1031600067E00E9471A388E19CE06CE875E00E9432
:10317000AD7C8EE19CE068E17CE00E9401110E9440
:10318000BDB460931610709317108093181090932D
:10319000191025C0892B19F56F5F7F4F01F58AEF54
:1031A00099E00E947D888FEF97E00E947D8884E0FF
:1031B00096E00E947D8888EC93E09093BD04809314
:1031C000BC040E948D8084E894E00E9483878AE694
:1031D00094E00E94838780E594E00E9483871F919A
:1031E0000F91FF90EF90DF90CF90BF90AF909F90A6
:1031F0008F90089580E090E06FEF7FEF0E940918B4
:10320000089581E090E06FEF7FEF0E940918089524
:1032100084E096E00E94338B882389F08FEF97E05B
:103220000E94338B882359F08AEF99E00E94338BF8
:1032300090E0882309F491E081E0982701C090E0B4
:10324000892F089541E00E9425AA089542E00E9436
:1032500025AA089541E00E9425AA089541E00E9410
:1032600025AA089544E00E9425AA089541E00E94FD
:1032700080AA08950F931F93CF93DF938FE0689FE9
:10328000800111240E5B1F4FCEEBD0E107C0C801B7
:10329000BE010E9436190F5F1F4F219680E1CD3C81
:1032A000D807A9F7DF91CF911F910F91089541E0C1
:1032B0000E9480AA089542E00E9480AA0895809307
:1032C00022031092230380E090E062E273E00E9408
:1032D0005B19089541E00E9480AA089544E00E948D
:1032E00080AA0895CF93DF93EC0184E096E00E94DA
:1032F0000889882369F48FEF97E00E940889882362
:1033000039F48AEF99E00E940889882309F4188229
:10331000DF91CF91089584E096E00E940889882388
:1033200071F48FEF97E00E940889882341F48AEFB7
:1033300099E00E940889882319F081E0089581E0CE
:1033400008950E94CCAB089521E22093C41229E095
:103350002093C51221E032E03093C7122093C612A9
:103360001092C9121092C81220E330E03093CB12B1
:103370002093CA121092A7000E9494B090E0882374
:1033800009F491E0892F0895FC0180818823C9F018
:1033900062874387409345038285813021F48FEF14
:1033A0008093460302C01092460310924703109286
:1033B0004803818580934D0384E493E060E30E9499
:1033C000A4190895CF93DF93EC018BA1882329F4EE
:1033D0008091CD10813009F05CC00E94BDB49B018A
:1033E000AC0188A999A9AAA9BBA9281B390B4A0B2A
:1033F0005B0B6EA57FA56115710501F1CB01A0E006
:10340000B0E0281739074A075B0798F01FA61EA6E9
:1034100088A599A59DA78CA78FA18F5F8FA381E019
:103420008093CD108AE390E161E04EEF0E94C419D1
:103430002AC0621B730B7FA76EA725C06CA57DA554
:103440006115710501F1CB01A0E0B0E02817390743
:103450004A075B07A0F08EA181508EA3882311F448
:103460001BA204C08AA59BA59FA78EA78AE390E113
:1034700060E04EEF0E94C4191092CD1004C0621B90
:10348000730B7DA76CA70E94BDB468AB79AB8AAB08
:103490009BABDF91CF910895FC0180818823F1F0EF
:1034A0002185413049F481E090E002C0880F991FE6
:1034B0006A95E2F7282B09C081E090E002C0880FEE
:1034C000991F6A95E2F7809528232187818580934B
:1034D0004D0384E493E060E30E94A4190895EF9201
:1034E000FF920F931F93CF93DF937C018FE0689F30
:1034F000800111240E5B1F4FCEEBD0E107C0C80145
:10350000BE010E9422190F5F1F4F219680E1CD3C22
:10351000D807A9F740E0F70184A9882309F441E01E
:103520008AE390E162E00E944C1ADF91CF911F91F3
:103530000F91FF90EF900895FC018AE085AB16AAE9
:1035400017AA10AE81E084AB83AF15AE82E081AFE5
:1035500012AE16AE17AE14AEEE5BFF4F8083129222
:103560001292E054F04080E88383848385838AE369
:1035700090E162E040E00E944C1A08950F931F937F
:103580008C018AE390E10E94DC15F801118280E849
:1035900083838483858312A21186128613A2C801B5
:1035A0000E949C1AF80112828FEE95E060E00E9462
:1035B000B4A381E080930306F80110821F910F915C
:1035C00008950F931F93CF93DF93EC018B018881B4
:1035D00084FF0FC08981882321F08AEA92E10E944A
:1035E00014BC8A81882329F08B819C81B8010E94B8
:1035F00014BCDF91CF911F910F9108950F931F93EA
:10360000CF93DF93EC018B01888183FF0FC0898109
:10361000882321F08AEA92E10E9414BC8A818823DF
:1036200029F08B819C81B8010E9414BCDF91CF915D
:103630001F910F9108959C0181E08093A7008091D4
:10364000A9008F7B8093A9008091A60080FD06C011
:103650008091A90080648093A9000BC06091F6005E
:103660007091F700C90140E050E00E9473AB8823DD
:1036700011F080E008958091A6008E778093A600D7
:103680008091A90080648093A90081E00895CF9380
:10369000DF93EC018091CC128B3051F58881882327
:1036A00039F11FC08E859F85A889B98989839A833E
:1036B000AB83BC838A89C45BDF4F8883CC54D04002
:1036C0008B89C35BDF4F8883CD54D0408C89C25B2C
:1036D000DF4F8883CE54D0408D89C15BDF4F888314
:1036E00007C0CE010C9660E30E941B1B8823D1F615
:1036F000DF91CF9108950F9381E863E041E020E4EA
:1037000030E000E00E94C7AA82E063E042E020E4EB
:1037100030E00E94C7AA0F910895DF93CF93CDB7F1
:10372000DEB7C851D2400FB6F894DEBF0FBECDBF92
:1037300081E060E0AE01495F5F4F22E10E94A4B1E9
:10374000882309F050C081E0BE016F5F7F4FAE015A
:10375000475E5F4F20E032E00E948EAE882309F082
:1037600042C08F8598898C549540E9F589899A895A
:1037700088569240C1F581E00E94C1B1882399F535
:103780000E947B1B82E48B838CE08C831D821E82D3
:1037900081E28093C41289E08093C51284EF93E0A4
:1037A0009093C7128093C6121092C9121092C81239
:1037B00084E090E09093CB128093CA121092A700FD
:1037C000CE0103960E9494B0882369F48AE390E1C5
:1037D0000E94E21581E080933A108EE19CE068E15E
:1037E00071E00E94E11AC85EDD4F0FB6F894DEBFAB
:1037F0000FBECDBFCF91DF910895A82FFB019A0195
:1038000080911603823041F0833019F0813089F4C1
:103810000AC08AE295E002C088EC94E06A2FAF010A
:103820000E9465A808958CE895E06A2FAF010E9478
:1038300065A80895E82F9A01AB01809116038230A4
:1038400041F0833019F0813079F409C08AE295E0C3
:1038500002C088EC94E06E2F0E94DDA808958CE8E9
:1038600095E06E2F0E94DDA80895E82F9A01AB0124
:1038700080911603823041F0833019F0813079F461
:1038800009C08AE295E002C088EC94E06E2F0E94A5
:10389000B6A808958CE895E06E2F0E94B6A808950A
:1038A000282FAB0180911603823041F0833019F04C
:1038B000813079F409C08AE295E002C088EC94E096
:1038C000622F0E9404A908958CE895E0622F0E945F
:1038D00004A90895282FAB0180911603823041F08E
:1038E000833019F0813079F409C08AE295E002C092
:1038F00088EC94E0622F0E9425A908958CE895E059
:10390000622F0E9425A90895282F462F8091160323
:10391000823041F0833019F0813079F409C08AE2B5
:1039200095E002C088EC94E0622F0E9491A808956F
:103930008CE895E0622F0E9491A80895682F8091ED
:103940001603823041F0833019F0813069F408C0E9
:103950008AE295E002C088EC94E00E94B0A8089545
:103960008CE895E00E94B0A808950F931F93CF9321
:10397000DF93EC018B01888183FF0FC0898188234D
:1039800021F08AEA92E10E9428BC8A81882329F0EA
:103990008B819C81B8010E9428BCDF91CF911F913F
:1039A0000F910895EF92FF920F931F93CF93DF93A0
:1039B000EC017A018B01888184FF14C089818823FE
:1039C00031F08AEA92E122E030E00E9400BC8A8174
:1039D000882341F08B819C81B801A70122E030E06F
:1039E0000E9400BCDF91CF911F910F91FF90EF904B
:1039F00008959C01C397C197E0F484E096E060E0ED
:103A000021E030E040E050E00E94379E8FEF97E0E9
:103A100060E021E030E040E050E00E94379E8AEF15
:103A200099E060E021E030E040E050E00E94379E05
:103A3000089525363105D8F084E096E061E021E074
:103A400030E040E050E00E94379E8FEF97E061E069
:103A500021E030E040E050E00E94379E8AEF99E09C
:103A600061E021E030E040E050E00E94379E0895A0
:103A70002F923F924F925F926F927F928F929F927E
:103A8000AF92BF92CF92DF92EF92FF920F931F936C
:103A9000CF93DF930E94BDB466247724430144246E
:103AA00055248BEF282E81E0382E429CE001439C68
:103AB000D00D529CD00D1124CC5FD94FCE010E9465
:103AC000AA888823F1F0CE010E94158B5B016C015E
:103AD000CE010E94EC8A7B018C01CE010E94158BE5
:103AE000A80197012A0D3B1D4C1D5D1D260F371F98
:103AF000481F591F621673068406950610F4390193
:103B00004A010894411C511C83E04816510469F68F
:103B10000E94E38A882391F48FEE95E00E94C1A36E
:103B2000A0E0B0E086159705A805B90538F48FEE3A
:103B300095E00E94C1A33C01882499240E94E38A55
:103B4000882339F4609111047091120480E090E0B0
:103B500014C06091230470912404809125049091F5
:103B60002604209140043091410440914204509138
:103B70004304621B730B840B950B0E9420C57B01D1
:103B80008C01C401B3010E9420C59B01AC01C80196
:103B9000B7010E9487C420E030E048EC52E40E9464
:103BA000D6C57B018C0120E030E040E050E00E946F
:103BB000D2C588234CF0C801B70120E030E040E0D6
:103BC0005FE30E941FC408C0C801B70120E030E0D5
:103BD00040E05FE30E941EC40E94EFC4162F6623DC
:103BE00001F5809101118823E1F00E945C11882386
:103BF000C1F484E68093011180910111DF91CF918E
:103C00001F910F91FF90EF90DF90CF90BF90AF90FA
:103C10009F908F907F906F905F904F903F902F90EC
:103C2000089510930111E8CF4F925F926F927F92A7
:103C30008F929F92AF92BF92CF92DF92EF92FF92BC
:103C40000F931F93CF93DF930E94E38A882381F51C
:103C500066247724C0E0D0E09BEF492E91E0592EF6
:103C6000C49D8001C59D100DD49D100D11240C5FC5
:103C7000194FC8010E94158B4B015C01C8010E94BD
:103C8000EC8A6B017C01C8010E94288BC601880D5B
:103C9000991D860F971F6816790608F43C01219636
:103CA000C330D105E9F68FEE95E0B3010E94BDA3C4
:103CB000DF91CF911F910F91FF90EF90DF90CF9008
:103CC000BF90AF909F908F907F906F905F904F903C
:103CD00008952F923F924F925F926F927F928F92B0
:103CE0009F92AF92BF92CF92DF92EF92FF920F938B
:103CF0001F93DF93CF9300D000D0CDB7DEB722243F
:103D0000332421011A82198249815A818BEF91E073
:103D1000489F9001499F300D589F300D11242C5F12
:103D2000394F3C832B83C9010E94AA88882309F458
:103D30004CC00E94E38A882339F58FEE95E00E94FB
:103D400092A33B014C018B819C810E94158B5B01EE
:103D50006C018B819C810E94EC8A7B018C018B81A0
:103D60009C810E94288BEA0CFB1C0C1D1D1DE60E7D
:103D7000F71E081F191FC801B701A40193010E9473
:103D80009EC69B01AC011AC08B819C810E94158B41
:103D90005B016C018B819C810E94EC8A7B018C0110
:103DA0008B819C810E94288BA80197012A0D3B1DC5
:103DB0004C1D5D1D260F371F481F591F2216330645
:103DC0004406550610F419012A01E981FA81319659
:103DD000FA83E983339709F097CF2091400430911B
:103DE00041044091420450914304220D331D441D6F
:103DF000551DB901CA010F900F900F900F90CF91F0
:103E0000DF911F910F91FF90EF90DF90CF90BF90C7
:103E1000AF909F908F907F906F905F904F903F906A
:103E20002F9008951F93CF93DF93EC01162F888175
:103E300084FF13C08981882331F08AEA92E14AE045
:103E400050E00E94D9BA8A81882339F08B819C8105
:103E5000612F4AE050E00E94D9BADF91CF911F91C3
:103E600008951F93CF93DF93EC01162F888183FF72
:103E700013C08981882331F08AEA92E14AE050E058
:103E80000E94C7BA8A81882339F08B819C81612F77
:103E90004AE050E00E94C7BADF91CF911F91089588
:103EA0001F93CF93DF93EC01162F888180FF13C0FF
:103EB0008981882331F08AEA92E14AE050E00E9449
:103EC000C7BA8A81882339F08B819C81612F4AE0AF
:103ED00050E00E94C7BADF91CF911F910895FF92E1
:103EE0000F931F93CF93DF93EC01F62E8A01888105
:103EF00080FF10C08981882321F08AEA92E10E9424
:103F0000C7BA8A81882331F08B819C816F2DA801EB
:103F10000E94C7BADF91CF911F910F91FF90089532
:103F20001F93CF93DF93EC01162F888184FF13C07A
:103F30008981882331F08AEA92E14AE050E00E94C8
:103F4000C7BA8A81882339F08B819C81612F4AE02E
:103F500050E00E94C7BADF91CF911F9108950F934F
:103F60001F93CF93DF93EC018B01888183FF0FC0F8
:103F70008981882321F08AEA92E10E9464BB8A81C8
:103F8000882329F08B819C81B8010E9464BBDF915A
:103F9000CF911F910F9108950F931F93CF93DF93AC
:103FA000EC018B01888180FF0FC08981882321F07B
:103FB0008AEA92E10E9464BB8A81882329F08B817E
:103FC0009C81B8010E9464BBDF91CF911F910F913A
:103FD00008950F931F93CF93DF93EC018B0188819A
:103FE00080FF0FC08981882321F08AEA92E10E9434
:103FF00064BB8A81882329F08B819C81B8010E944F
:1040000064BBDF91CF911F910F9108950F931F9380
:10401000CF93DF93EC018B01888184FF0FC08981EE
:10402000882321F08AEA92E10E9464BB8A81882376
:1040300029F08B819C81B8010E9464BBDF91CF91F4
:104040001F910F910895DF92EF92FF920F931F93AC
:10405000CF93DF93D82E8091460C9091470C8230FD
:10406000910509F49FC08330910534F4009769F0FD
:10407000019709F046C128C08330910509F42EC18B
:104080008436910509F03DC12EC18DE0D81609F4A2
:104090003CC19AE0D91609F438C181E090E09093D0
:1040A000470C8093460C9093490C8093480C1092D7
:1040B0004A0C10924B0C10924C0C10924D0C10921A
:1040C0004E0C10924F0C21C18091450C883631F472
:1040D000E9E6DE1609F015C18AE00DC08D3629F437
:1040E000F3E7DF1659F48EE106C0833761F481E609
:1040F000D81609F582E380934A0CF2C09DE6D916E2
:1041000051F488E246C08E3661F4E0E7DE1609F02D
:10411000F8C08FE13EC0F0E7DF1609F0F2C08BE295
:1041200038C08A3731F48DE6D81609F0EAC08CE23F
:1041300030C0833731F49DE6D91609F0E2C08AE237
:1041400028C0803731F4E2E7DE1609F0DAC089E2F0
:1041500020C0823631F4F6E6DF1609F0D2C08CE3D7
:1041600018C0873631F48FE6D81609F0CAC08DE33F
:10417000C2CF8A3631F49DE6D91609F0C2C086E472
:1041800008C0893609F0BDC0EDE6DE1609F0B9C0F9
:1041900087E480934A0C82E090E09093470C8093F0
:1041A000460CB3C09D2D90539A3020F0FDE2DF16EF
:1041B00009F065C08091450C8032C1F580914B0CAF
:1041C0008F5F80934B0C883248F08AEA92E168E274
:1041D00071E00E9464BB83E090E0DFCFE82FF0E065
:1041E000EE0FFF1FEE0FFF1FE85BF34F10821182EF
:1041F000128213828DE2D81639F48FEF9FEF9093DD
:10420000490C8093480C81C081E090E09093490C68
:104210008093480C8D2D90E0C097AA2797FDA0951C
:10422000BA2F80839183A283B3836FC09A3038F50D
:1042300060914B0CC62FD0E0CC0FDD1FCC0FDD1FE3
:10424000C85BD34FED2CFF24E0EDFFEFEE0EFF1E19
:104250000027F7FC0095102F688179818A819B8166
:104260002AE030E040E050E00E949EC6E60EF71ED5
:10427000081F191FE882F9820A831B8346C0F0E2F7
:10428000DF1621F08DE0D81609F03FC08091450C73
:1042900080538A30F8F400914B0C0023D9F010E0E1
:1042A000000F111F000F111F085B134F2091480CC6
:1042B0003091490C442737FD4095542FF801608117
:1042C0007181828193810E949EC6F801608371830F
:1042D00082839383FDE0DF16C1F402C010924A0C82
:1042E00084E690E05ACF8AE0D81679F48091450CA4
:1042F0008D3059F480914A0C1092470C1092460C64
:1043000005C01092470C1092460C80E0D092450CEC
:10431000DF91CF911F910F91FF90EF90DF90089563
:10432000EF92FF920F931F93CF93DF93EC017A01EB
:104330008B01888183FF14C08981882331F08AEA48
:1043400092E12AE030E00E9429BB8A81882341F073
:104350008B819C81B801A7012AE030E00E9429BB33
:10436000DF91CF911F910F91FF90EF900895EF9201
:10437000FF920F931F93CF93DF93EC017A018B0190
:10438000888184FF14C08981882331F08AEA92E110
:104390002AE030E00E9429BB8A81882341F08B818A
:1043A0009C81B801A7012AE030E00E9429BBDF917F
:1043B000CF911F910F91FF90EF900895EF92FF9290
:1043C0000F931F93CF93DF93EC017A018B018881C8
:1043D00084FF14C08981882331F08AEA92E12AE0BF
:1043E00030E00E94A2BA8A81882341F08B819C81AF
:1043F000B801A7012AE030E00E94A2BADF91CF9174
:104400001F910F91FF90EF900895EF92FF920F93FD
:104410001F93382F562F742FE22F78018CE895E0E8
:10442000632F452F272F0E2F0E9440A81F910F9119
:10443000FF90EF900895EF92FF920F931F93382F04
:10444000562F742FE22F78018CE895E0632F452FCB
:10445000272F0E2F0E9440A81F910F91FF90EF90E1
:1044600008958F929F92AF92BF92CF92DF92EF9278
:10447000FF920F931F93B82EA62E942E822E6801C2
:1044800088EC94E06B2D4A2D292D082D76010E9491
:1044900040A88AE295E06B2D4A2D292D0E9440A864
:1044A0001F910F91FF90EF90DF90CF90BF90AF9052
:1044B0009F908F9008950F931F93BC010CE110E122
:1044C000C8010E94E70DC8011F910F9108954F92F6
:1044D0005F927F928F929F92AF92BF92CF92DF9224
:1044E000EF92FF920F931F93DF93CF93CDB7DEB779
:1044F000CB57D0400FB6F894DEBF0FBECDBF782E9D
:104500004B012A01EC960CAF1DAF2EAF3FAFEC97DD
:1045100028E0C22ED12CCC0EDD1EC6016FE371E067
:104520000E940CBE0E94BDB4AB01BC017E01089488
:10453000E11CF11CC7012AE00E943FBEC601B70181
:104540000E94BBBD66E471E00E949FBDBC018E016C
:10455000015F1F4FC8010E94EBBE8EE19CE0B801D5
:104560000E94B51CC8010E94FCBEC7010E94F6BE95
:10457000C6010E94FCBE83E0871520F081E078161A
:10458000B0F509C084E0781609F473C085E07816A8
:1045900009F0FEC0A9C08EE891E00E945B22BC0138
:1045A0009DE1C92ED12CCC0EDD1EC6010E940CBE91
:1045B00086E1E82EF12CEC0EFD1EC701B4014AE0A5
:1045C0000E9471BEC601B7010E94BBBD66E471E0E6
:1045D0000E949FBD8C01C2010E945B22BC01C801E8
:1045E0000E949FBDBC018E010C5D1F4F6DC083E911
:1045F00091E00E945B22BC0102E3A02EB12CAC0E24
:10460000BD1EC5010E940CBE1BE2C12ED12CCC0EDA
:10461000DD1EC601B4014AE00E9471BEC501B601AB
:104620000E94BBBD6AE471E00E949FBD8C01B9E3AA
:10463000EB2EF12CEC0EFD1E672D70E061507040EA
:10464000C7014AE00E9471BEC801B7010E94BBBD0C
:1046500066E471E00E949FBD8C01C2010E945B2252
:10466000BC01C8010E949FBDBC018E01005C1F4FB0
:104670007BC088E991E00E945B22BC01AEE4CA2EB7
:10468000D12CCC0EDD1EC6010E940CBEF7E4EF2E2D
:10469000F12CEC0EFD1EC701B4014AE00E9471BE70
:1046A000C601B7010E94BBBD66E471E00E949FBDD8
:1046B0008C01C2010E945B22BC01C8010E949FBD07
:1046C000BC018E010B5A1F4FC8010E94EBBE8EE148
:1046D0009CE0B8010E94B51CC8010E94FCBEC70145
:1046E0000E94F6BEC60152C08DE991E00E945B2295
:1046F000BC01E3E6AE2EB12CAC0EBD1EC5010E947E
:104700000CBE6CE5C62ED12CCC0EDD1EC601B4014C
:104710004AE00E9471BEC501B6010E94BBBD64E5BE
:1047200071E00E949FBD8C010E940885BC015AE681
:10473000E52EF12CEC0EFD1EC7014AE00E9471BE71
:10474000C801B7010E94BBBD66E471E00E949FBD35
:104750008C01C2010E945B22BC01C8010E949FBD66
:10476000BC018E010F581F4FC8010E94EBBE8EE1A5
:104770009CE0B8010E94B51CC8010E94FCBEC701A4
:104780000E94F6BEC6010E94F6BEC5010E94FCBE94
:10479000EC966CAD7DAD8EAD9FADEC9728E23BE61F
:1047A0004EE65EEC0E9483C4882339F48EE19CE0DF
:1047B0006DE571E00E94FE1A26C080911E0C83FFF9
:1047C00022C080911F0C882361F08AEA92E1EC9666
:1047D0004CAD5DAD6EAD7FADEC9722E030E00E9458
:1047E00000BC8091200C882371F08091210C909165
:1047F000220CEC964CAD5DAD6EAD7FADEC9722E03A
:1048000030E00E9400BCC558DF4F0FB6F894DEBF01
:104810000FBECDBFCF91DF911F910F91FF90EF9011
:10482000DF90CF90BF90AF909F908F907F905F90E0
:104830004F9008950F931F9308E21BE62EE63EEC7F
:104840000E9467221F910F910895EF92FF920F939C
:104850001F93F82EE62E8A0182E19EE00E945B22E1
:10486000BC018EE19CE00E94E91F8EE19CE06F2D6F
:104870000E94501F8BE19EE00E945B22BC018EE1F2
:104880009CE00E94E91F8EE19CE06E2D0E94501F6B
:1048900085E29EE00E945B22BC018EE19CE00E94CA
:1048A000E91F8EE19CE0F801608140E150E00E9448
:1048B0006F1F8FE29EE00E945B22BC018EE19CE0B4
:1048C0000E94E91F8EE19CE0F801618140E150E027
:1048D0000E946F1F89E39EE00E945B22BC018EE173
:1048E0009CE00E94E91F8EE19CE0F801628140E1BA
:1048F00050E00E946F1F83E49EE00E945B22BC0197
:104900008EE19CE00E94E91F8EE19CE0F80163814A
:1049100040E150E00E946F1F8DE49EE00E945B2208
:10492000BC018EE19CE00E94E91F8EE19CE0F80151
:10493000648140E150E00E946F1F87E59EE00E9485
:104940005B22BC018EE19CE00E94E91FE0904B04D9
:10495000F0904C0400914D0410914E0480911E0C77
:1049600080FF1AC080911F0C882341F08AEA92E1EF
:10497000B801A7012AE030E00E94A2BA8091200C81
:10498000882351F08091210C9091220CB801A7014D
:104990002AE030E00E94A2BA80911E0C80FF16C06F
:1049A00080911F0C882331F08AEA92E16DE571E075
:1049B0000E9414BC8091200C882341F08091210C2E
:1049C0009091220C6DE571E00E9414BC1F910F9133
:1049D000FF90EF9008950F931F93CF93DF93EC0117
:1049E0008B01888184FF0FC08981882321F08AEAA6
:1049F00092E10E94C6B98A81882329F08B819C812B
:104A0000B8010E94C6B9DF91CF911F910F9108950F
:104A10000F931F93CF93DF93EC018B01888183FF6A
:104A20000FC08981882321F08AEA92E10E9407BAA7
:104A30008A81882329F08B819C81B8010E9407BA62
:104A4000DF91CF911F910F9108952F923F924F9236
:104A50005F926F927F928F929F92AF92BF92CF920E
:104A6000DF92EF92FF920F931F93DF93CF93CDB717
:104A7000DEB72E970FB6F894DEBF0FBECDBF8EE126
:104A80009CE06CE67EE00E940825882499244BEF88
:104A9000A42E41E0B42E8A9C80018B9C100D9A9C20
:104AA000100D11240C5F194FC8010E94B68A6B01CA
:104AB0007C01C8010E94C68AAB01BC01C8010E94EA
:104AC000AE8AC801B701A6010E94BE8A0894811C63
:104AD000911C23E082169104F1F61E821D828D81C5
:104AE0009E810E9403858D819E81EAE1F0E08E9F88
:104AF00070018F9FF00C9E9FF00C112420E534E094
:104B0000E20EF31EC7010E941C852C01009709F4D8
:104B1000AAC09E878D878C01000F111F000F111FE7
:104B2000C8010E94100C9A873C018987C8010E9425
:104B3000100C9B874C018887C8010E94100C9C8731
:104B40005C018F83B20161507040C7010E944185B2
:104B500069837A838B839C8322243324CC24DD24B1
:104B600035C0C7016D857E850E9441859B01AC01E2
:104B700083010C0D1D1D69817A818B819C810E94AE
:104B80001EC4F8016083718382839383C7016D859E
:104B90007E850E947C85F401EC0DFD1D6083718390
:104BA00082839383C7016D857E850E94B785F50159
:104BB000EC0DFD1D9058608371838283938308946C
:104BC000211C311C24E030E0C20ED31E8D859E8551
:104BD00001979E878D87241435041CF2C7010E941B
:104BE0003D85C7010E947885C7010E94B385C70132
:104BF000B2010E94868700E010E0CC24DD2424C0AE
:104C0000F301EC0DFD1D4081518162817381C7016B
:104C10000E942085F401EC0DFD1D408151816281CF
:104C20007381C7010E945385F501EC0DFD1D408184
:104C3000518162817381C7010E948E850F5F1F4F72
:104C4000E4E0F0E0CE0EDF1E04151505CCF28985F8
:104C50009A850E94BA0C88859B850E94BA0C8F8128
:104C60009C850E94BA0C2D813E812F5F3F4F3E8371
:104C70002D832330310509F032CF2E960FB6F894EC
:104C8000DEBF0FBECDBFCF91DF911F910F91FF907F
:104C9000EF90DF90CF90BF90AF909F908F907F90DC
:104CA0006F905F904F903F902F9008950F931F93B8
:104CB000CF93DF93EC018B01888184FF0FC0898142
:104CC000882321F08AEA92E10E9407BA8A81882328
:104CD00029F08B819C81B8010E9407BADF91CF91A6
:104CE0001F910F910895EF92FF920F931F93E82E5B
:104CF0008EE19CE068E073E10E94562680910F04EB
:104D00008823F1F08EE19CE06EED72E10E94562660
:104D1000EE2021F080910B10882371F580910E0414
:104D2000813039F48EE19CE06BEA72E10E945626F4
:104D30001AC08EE19CE061E872E10E9456261CC018
:104D4000E0902603F090270300E010E08FEE95E05E
:104D50000E9492A3E616F7060807190798F08091BB
:104D60000B10882379F481E008C090910B10911109
:104D700091E081E0892701C080E01F910F91FF90B1
:104D8000EF9008950E94BDB47B018C0180910710C3
:104D900090910810A0910910B0910A10E81AF90A30
:104DA0000A0B1B0B8FEE95E00E9492A32091260325
:104DB0003091270340E050E0621B730B840B950B8E
:104DC000E616F70608071907B8F2CFCF0F931F931F
:104DD000DF93CF93CDB7DEB727970FB6F894DEBF3A
:104DE0000FBECDBF80934F0480911E0C83FF16C071
:104DF00080911F0C882331F08AEA92E166EA7EE016
:104E00000E94C6B98091200C882341F08091210C2A
:104E10009091220C66EA7EE00E94C6B98E010F5F77
:104E20001F4FC80160914F044AE00E94A2BE8091CA
:104E30001E0C83FF16C080911F0C882329F08AEA7C
:104E400092E1B8010E945BBC8091200C882349F05C
:104E50008091210C9091220CBE016F5F7F4F0E94C8
:104E60005BBCCE0101960E94F6BE80914F04882360
:104E7000C9F084E096E040E050E060E070E00E941D
:104E800078898FEF97E040E050E060E070E00E94AA
:104E900078898AEF99E040E050E060E070E00E949D
:104EA000788903C080E00E94691127960FB6F894B4
:104EB000DEBF0FBECDBFCF91DF911F910F9108953F
:104EC0000F931F93CF93DF93EC018B01888184FFB5
:104ED0000FC08981882321F08AEA92E10E945BBC9D
:104EE0008A81882329F08B819C81B8010E945BBC58
:104EF000DF91CF911F910F9108952F923F924F9282
:104F00005F926F927F928F929F92AF92BF92CF9259
:104F1000DF92EF92FF920F931F93DF93CF9300D016
:104F200000D00F92CDB7DEB7D82E6D8380911004DC
:104F3000882309F455C02D2D30E08BEF91E0AC01B2
:104F4000249FC001259F900D349F900D11248C5FEC
:104F5000994F0E942F933B014C018FEE95E00E94E8
:104F6000A6A37C018FEE95E00E94AEA31B012C014D
:104F70008FEE95E00E94AAA35C01C401B30120E07A
:104F800030E04AEF55E40E9487C420E030E04AE771
:104F900054E40E94D6C53B014C0100E010E0CC2453
:104FA000DD24EA0CFB1C0C1D1D1DE20CF31C041D72
:104FB000151DC801B7010E9420C59B01AC01C401A9
:104FC000B3010E941EC40E94F4C4AB01BC018FEE69
:104FD00095E00E948CA35D81552309F0B4C0B5C053
:104FE0000E94E38A882309F04DC08FEE95E00E946D
:104FF00092A37B018C018FEE95E00E94A6A33C0159
:105000008FEE95E00E94AEA31B012C018FEE95E080
:105010000E94AAA35C012D2D30E08BEF91E0FC01F2
:105020002E9FC0012F9F900D3E9F900D11248C5FED
:10503000994F0E942F9369837A838B839C83882462
:105040009924E618F70808091909E218F308040971
:105050001509CC24DD24EA18FB080C091D09C80138
:10506000B7010E9420C520E030E04AE754E40E94E6
:1050700087C49B01AC0169817A818B819C810E94EC
:1050800087C414C00E94E38A882391F08D2D90E09C
:105090002BEF31E0AC01429FC001439F900D529F26
:1050A000900D11248C5F994F0E942F937B018C01EE
:1050B0008EE19CE06EE27FE00E94EB248EE19CE0BA
:1050C000B801A7010E94D21CC801B70120E030E05E
:1050D0004AE756E40E94D2C5882344F08EE19CE062
:1050E00064E17FE00E94562680E032C05D81552356
:1050F00061F1C801B70120E030E04AEF55E40E94B9
:10510000D2C5882364F0C801B70120E030E04AE747
:1051100056E40E9483C4882314F484E019C0C801B3
:10512000B70120E030E04AEF55E40E9483C48823B1
:1051300074F4C801B70120E030E04AE755E40E946A
:10514000D2C5181624F488E003C081E001C080E1D4
:105150000F900F900F900F900F90CF91DF911F91B4
:105160000F91FF90EF90DF90CF90BF90AF909F9006
:105170008F907F906F905F904F903F902F90089509
:105180000F931F93CF93DF93182F062F8EE19CE090
:1051900066EF7EE00E9456260E94BDB480912F04E7
:1051A0008823B1F5212F30E08BEF91E0289FE001BB
:1051B000299FD00D389FD00D1124CC5FD94FCE013F
:1051C0000E940889882321F5812F61E00E947D27B4
:1051D000182F002321F08823A9F011E013C08823A1
:1051E00011F41FEF0FC0CE01612F0E94B2998EE122
:1051F0009CE06FED7EE00E94EB248EE19CE0612F4D
:105200000E94121F812FDF91CF911F910F9108955E
:105210008EE19CE061EB7EE00E94562610E0F2CF2A
:1052200060E00E94C028089560E00E947D270895F4
:10523000EF92FF921F93CF93DF9310E0C0E0D0E096
:1052400051E0E52EF12C8C2F0E941429813041F47D
:10525000C7010C2E02C0880F991F0A94E2F7182B81
:105260002196C330D10579F7812FDF91CF911F911E
:10527000FF90EF90089590E02BEF31E0AC01429F5A
:10528000C001439F900D529F900D11248C5F994F48
:105290000E94AF880895EF92FF921F93CF93DF9300
:1052A00010E0C0E0D0E061E0E62EF12C8C2F0E94EF
:1052B0003B29813041F4C7010C2E02C0880F991F91
:1052C0000A94E2F7182B2196C330D10579F7812F84
:1052D000DF91CF911F91FF90EF9008950F931F934F
:1052E000DF93CF930F92CDB7DEB76983082F10E01D
:1052F0008BEF91E0AC01049FC001059F900D149FBE
:10530000900D11248C5F994F0E949895000F111FEA
:10531000C80173E0880F991F7A95E1F7080F191FEC
:10532000C8014D96BE016F5F7F4F0E946A190F90B2
:10533000CF91DF911F910F9108952F923F924F923D
:105340005F926F927F928F929F92AF92BF92CF9215
:10535000DF92EF92FF920F931F93DF93CF93CDB71E
:10536000DEB762970FB6F894DEBF0FBECDBF80E008
:1053700090E062E273E00E94261982E090E067E12B
:1053800073E04AE00E9425AA82E490E066E074E0BF
:105390000E942A1983E490E068E074E00E942A19D0
:1053A00084E490E067E074E00E942A19809106048A
:1053B000823010F01092060480910804823010F0C0
:1053C0001092080480910704823010F010920704B4
:1053D00019821A821B821C821D821E821F821886DD
:1053E00019861A861B861C861D861E861F86188AAD
:1053F000198A1A8A87E1A82E84E0B82ECC24DD24ED
:105400000CE1E02EF12C17E0212E312C2C0E3D1E4C
:10541000BBE04B2E512C4C0E5D1EAFE06A2E712C62
:105420006C0E7D1EFBEF8F2EF1E09F2EC701BE019B
:105430006F5F7F4F0E942A19C7010196BE016E5F00
:105440007F4F0E942E19C7014097BE016D5F7F4FAD
:105450000E943219C7010897B1010E943219C70191
:105460000497B2010E943219C7010C97B3010E9440
:105470003219C89C8001C99C100DD89C100D1124B4
:105480000C5F194FC80169810E94B2998AE890E1C6
:105490006C2D49810E94D816C8016A810E94989596
:1054A00080910604882339F04B815C816D817E8177
:1054B000C8010E94CE8A80910804882371F04F8130
:1054C000588569857A85C8010E94AE8A4B855C85BE
:1054D0006D857E85C8010E94BE8A8091070488235D
:1054E00049F08F859889A989BA89F50180839183CC
:1054F000A283B3830894C11CD11C82E190E0E80E22
:10550000F91EE4E0F0E0AE0EBF1EF3E0CF16D104CA
:1055100009F08CCF02E410E0B80164587F4EC80156
:105520000E9422190F5F1F4F01351105A9F76296DE
:105530000FB6F894DEBF0FBECDBFCF91DF911F91A4
:105540000F91FF90EF90DF90CF90BF90AF909F9022
:105550008F907F906F905F904F903F902F90089525
:1055600080910206882331F080910011882391F008
:105570001092001180910C04873041F080910D044D
:10558000873021F085EF9BE062E00AC085EF9BE069
:1055900066E006C081E08093001185EF9BE064E047
:1055A0000E944AA30895843051F48EE19CE062E0A9
:1055B00075E10E94562685EF9BE064E014C08230BE
:1055C000A9F48EE19CE06DEE74E10E945626809174
:1055D0001104909112040196909312048093110487
:1055E00085EF9BE065E00E944AA30895863011F4A0
:1055F0000E94B02A089585EF9BE060E00E944AA3D4
:105600008FEE95E00E946BA4089584E096E00E94DE
:105610000889882361F48FEF97E00E940889882326
:1056200031F48AEF99E00E9408898823F9F080918B
:1056300015048823D9F482E00E949F1584E096E047
:105640000E944E89AC0160E070E084E291E10E942A
:10565000397E84E291E160EF71E32FEF3FEF4FEF8E
:105660005FEF0E94507E81E08093150408954F9271
:105670005F926F927F928F929F92AF92BF92CF92E2
:10568000DF92EF92FF920F931F93CF93DF93582EE9
:105690003A014B01422E222309F042C0282F30E06C
:1056A0008BEF91E0289F6001299FD00C389FD00C90
:1056B000112484E096E0C80ED91EC60164E00E9461
:1056C000B299C6010E947E88E82EC6010E94838896
:1056D0005C01C401B3010E9422C53B014C01FF24BF
:1056E00000E010E0C801B7010E9420C57B018C01D9
:1056F000CC24B7FCC094DC2CC601B5010E9422C5A5
:105700009B01AC01C801B7010E9487C49B01AC0199
:10571000C401B3010E94D6C50E94EFC43B014C01F5
:105720008EE19CE06DE57EE00E94EB248EE19CE042
:10573000652D0E94901F8EE19CE06EE571E00E9455
:1057400006208EE19CE0B401A3010E94B721252D23
:1057500030E08BEF91E0289FE001299FD00D389F2A
:10576000D00D1124CC5FD94FCE010E941D89A0E03D
:10577000B0E0BC01CD010E9420C5AB01BC01CE014F
:105780000E947889CE01B401A30121E00E94C79D47
:105790008EE19CE06CE671E00E940620CE010E9442
:1057A000BE88AB01BC018EE19CE00E94D21C8EE160
:1057B0009CE064E771E00E940620CE010E94CD8843
:1057C000682F8EE19CE00E94121F0E94052B44204E
:1057D00021F4CE0161E00E949094DF91CF911F915E
:1057E0000F91FF90EF90DF90CF90BF90AF909F9080
:1057F0008F907F906F905F904F90089520E00E946F
:10580000372B08950F931F9390E02BEF31E0829F89
:105810008001839F100D929F100D11240C5F194F72
:10582000C80164E00E94B299C8010E941D89A0E0ED
:10583000B0E0BC01CD010E9420C5AB01BC01C80194
:105840000E947889C8010E94139E0E94052BC801FE
:1058500061E00E9490941F910F91089584E096E07A
:105860000E9408898823A1F48FEF97E00E9408899D
:10587000882371F48AEF99E00E940889882341F413
:105880000E94022C81E00E94022C82E00E94022CE5
:1058900008956F927F928F929F92AF92BF92CF9214
:1058A000DF92EF92FF920F931F93CF93DF9390E0DD
:1058B0002BEF31E0829FE001839FD00D929FD00DAE
:1058C0001124CC5FD94FCE010E94C68A7B018C0186
:1058D000CE010E94B68A5B016C01CE010E94B68A9D
:1058E0003B014C01CE010E94D68A30E0EA18FB0849
:1058F0000C091D091E141F04100611060CF431E0DA
:1059000020E0661A770A880A990A16141704180400
:1059100019040CF421E0321719F0CE0161E002C045
:10592000CE0160E00E945094CE0164E00E94B299E2
:10593000CE010E941D89A0E0B0E0BC01CD010E9413
:1059400020C5AB01BC01CE010E947889CE010E9426
:10595000219E0E94052BCE0161E00E949094DF9170
:10596000CF911F910F91FF90EF90DF90CF90BF905C
:10597000AF909F908F907F906F90089584E096E015
:105980000E9408898823A1F48FEF97E00E9408897C
:10599000882371F48AEF99E00E940889882341F4F2
:1059A0000E94492C81E00E94492C82E00E94492CEF
:1059B00008952F923F924F925F926F927F928F92B3
:1059C0009F92AF92BF92CF92DF92EF92FF920F938E
:1059D0001F93DF93CF9300D000D000D0CDB7DEB7B8
:1059E00049835A836B837C832BEF31E0829FA00134
:1059F000839F500D929F500D11244C5F594F5E8331
:105A00004D83CA010E94B4887B018C0169817A812F
:105A10008B819C8120E030E040E050E00E94D2C5C4
:105A200018162CF4A980BA80CB80DC8008C0A9802D
:105A3000BA80CB80DC80D7FAD094D7F8D0948D810F
:105A40009E810E941D89A0E0B0E0BC01CD010E94B2
:105A500020C59B01AC01C601B5010E94D2C5181634
:105A60002CF0A980BA80CB80DC8029C069817A8142
:105A70008B819C8120E030E040E050E00E9483C4B4
:105A800088238CF48D819E810E941D89A0E0B0E066
:105A9000BC01CD010E9420C55B016C01D7FAD094F6
:105AA000D7F8D0940CC08D819E810E941D89A0E002
:105AB000B0E0BC01CD010E9420C55B016C018D816D
:105AC0009E81B601A5010E947889C801B70120E036
:105AD00030E040E050E00E94D2C518165CF4C801E6
