:100000000C941A010C94B92F0C94EA2F0C941B3009
:100010000C944C300C947D300C94AE300C94DF304A
:100020000C9410310C9445010C94A33F0C944501A1
:100030000C9445010C9445010C9445010C94111647
:100040000C9445010C9445010C9445010C94450118
:100050000C943F160C9445010C9445010C944131CD
:100060000C9445010C944C330C9445350C9445018B
:100070000C9445010C9445010C9445010C94F51722
:100080000C9462170C94A8180C9445010C9445012B
:100090000C9445010C944501000021002400270028
:1000A0002A002D00300000002200250028002B002F
:1000B0002E003100000020002300260029002C0023
:1000C0002F000101010101010101020202020202ED
:1000D00002020303030303030303040404040404EC
:1000E00004040505050505050505060606060606BC
:1000F00006060102040810204080010204081020B6
:1001000040800102040810204080010204081020F1
:1001100040800102040810204080010204081020E1
:100120004080000000000000000000000000070305
:100130000401000000000B0A090002080000000092
:1001400000000000000000000000000000000000AF
:10015000000000010203040506071201100102005D
:100160000008EB03442001000102030109023E00E4
:10017000020100C03209040000010202010005244E
:10018000001001042402060524060001070582036D
:100190000800FF09040100020A000000070504022C
:1001A00010000507058302100005040309042E034F
:1001B000440079006E0061006D006900630020005A
:1001C00050006500720063006500700074006900F3
:1001D0006F006E0020004C004C00430000003C0308
:1001E000440079006E0061006D006900630020002A
:1001F00050006500720063006500700074006900C3
:100200006F006E00200043004400430020005300B4
:1002100065007200690061006C0000000E03300090
:10022000300034003500370033000000890200350B
:100230004938820211241FBECFEFD0E2DEBFCDBF0E
:1002400012E0A0E0B1E0EEE6FDE800E00BBF02C086
:1002500007900D92AC32B107D9F71BBE17E0ACE2A4
:10026000B2E001C01D92A236B107E1F712E0C2E38D
:10027000D2E004C02297FE010E94A646CC32D107EC
:10028000C9F70E941B360C94AA460C9400008130DA
:1002900039F0813018F0823051F406C083E001C09B
:1002A00082E08093B701089581E08093B7010895BB
:1002B000E0919A05F0919B05309709F00995089512
:1002C000EF92FF920F931F93982F8091240588231C
:1002D00071F0992329F080919505882309F04CC08D
:1002E00090E080912305813009F047C017C08091CC
:1002F000AF019091B001A0E0B0E0209158023091A0
:10030000590240915A0250915B0282179307A40749
:10031000B50730F080919505882311F491E02DC048
:100320000E94893120919105309192054091930569
:1003300050919405621B730B840B950BE090AF01F9
:10034000F090B00100E010E0209158023091590285
:1003500040915A0250915B022E193F09400B510BFC
:10036000621773078407950738F08091950581110E
:1003700081E091E0982701C090E0892F1F910F91B3
:10038000FF90EF9008958F929F92AF92BF92CF927D
:10039000DF92EF92FF920F931F938130910509F046
:1003A0008DC06F5F7F4F09F0A2C087E492E00E948A
:1003B0008A29A1B28EE592E06DE270E040E150E062
:1003C00020E230E001E110E0E2E1EE2EF12CB3E1B9
:1003D000CB2ED12CBB24A5E08A2E912C0E948E26F8
:1003E000A1B28EE193E06EE270E045E150E024E1DD
:1003F00030E00DE110E0FEE1EF2EF12CEFE1CE2E2A
:10040000D12CB6E08B2E912C0E948E26A1B28EEDBF
:1004100093E06FE270E042E250E021E230E00FE072
:1004200010E0ABE2EA2EF12CFCE2CF2ED12CE7E07B
:100430008E2E912C0E948E2640919C018EE994E094
:100440006CE177E050E026E030E000EE11E00E9441
:10045000422E8EEF94E00E94061A8FEF94E067E040
:100460000E942E28109228051092270588EE93E00E
:10047000A0E0B0E08093290590932A05A0932B0576
:10048000B0932C058DEE91E0909326058093250581
:1004900040919C0181E395E065E275E050E026E043
:1004A00030E00E94422E0E9489316093960570933D
:1004B0009705809398059093990519C0892BB9F4F5
:1004C0006F5F7F4FA1F48DEE91E0909326058093AE
:1004D00025050E9432198EED93E00E94631A8EE189
:1004E00093E00E94631A8EE592E00E94631A1F91C6
:1004F0000F91FF90EF90DF90CF90BF90AF909F90C3
:100500008F90089580E090E06FEF7FEF0E94C3012D
:10051000089581E090E06FEF7FEF0E94C30108959E
:10052000A82FFB019A018091AE01823019F481E37A
:1005300095E002C08EE994E06A2FAF010E94A22CE0
:100540000895E82F9A01AB018091AE01823019F431
:1005500081E395E002C08EE994E06E2F0E94EE2CBC
:100560000895E82F9A01AB018091AE01823019F411
:1005700081E395E002C08EE994E06E2F0E94362D53
:100580000895E82F9A01AB018091AE01823019F4F1
:1005900081E395E002C08EE994E06E2F0E94142D55
:1005A0000895282FAB018091AE01823019F481E3C8
:1005B00095E002C08EE994E0622F0E94582D0895C4
:1005C000282FAB018091AE01823019F481E395E0D0
:1005D00002C08EE994E0622F0E94742D0895282FA6
:1005E000462F8091AE01823019F481E395E002C07C
:1005F0008EE994E0622F0E94CE2C0895682F80919E
:10060000AE01823019F481E395E002C08EE994E0F6
:100610000E94E82C08952F923F924F925F926F9222
:100620007F928F929F92AF92BF92CF92DF92EF9282
:10063000FF920F931F93DF93CF9300D000D000D091
:10064000CDB7DEB7182F7B01FB01B080018123E01D
:1006500030E0E20EF31E8EE994E0B7010E94B72964
:1006600069837A838B839C8345E050E0E40EF51E1A
:100670008EE994E0B7010E94B7293B014C0185E067
:1006800090E0E80EF91E8EE994E0B7010E94B729C8
:100690001B012C01E5E0F0E0EE0EFF1E8EE994E078
:1006A000B7010E94B7296B017C01212F30E00023A4
:1006B00009F452C0A901415050405E834D8300D0DF
:1006C00000D0EDB7FEB7319680EC90E09A01289FFC
:1006D000A001299F500D389F500D1124425A5D4FA3
:1006E00020E0B11021E0C082D182E282F382CA010F
:1006F000B401A301E980FA800B811C8162015101E0
:100700000E94B71FED81FE81EE0FFF1F4D815E81BC
:10071000E40FF51F86E0EE0FFF1F8A95E1F7E25820
:10072000FD4F81E080836092540270925502809266
:1007300056029092570280EC90E0489FF001499F4A
:10074000F00D589FF00D1124E25AFD4F168E0F90B8
:100750000F900F900F903DC02150304080EC90E002
:10076000289FD001299FB00D389FB00D1124A25AA7
:10077000BD4F81E05E968C935E97F901EE0FFF1FEF
:10078000E20FF31F16E0EE0FFF1F1A95E1F7E25894
:10079000FD4F10825196BC92519756962D923D92E4
:1007A0004D925C9259975A96CD92DD92ED92FC92C1
:1007B0005D9752966D927D928D929C92559729816C
:1007C0003A814B815C811D962D933D934D935C93B3
:1007D000509726960FB6F894DEBF0FBECDBFCF91CF
:1007E000DF911F910F91FF90EF90DF90CF90BF901E
:1007F000AF909F908F907F906F905F904F903F90C1
:100800002F9008954F925F926F927F928F929F9256
:10081000AF92BF92CF92DF92EF92FF920F931F930E
:10082000DF93CF9300D000D0CDB7DEB7E82E8B0199
:10083000FB01D1908EE994E0BF010E94B729698342
:100840007A838B839C830A5F1F4F8EE994E0B80103
:100850000E94B7292B013C010B5F1F4F8EE994E0EA
:10086000B8010E94B7294B015C010B5F1F4F8EE955
:1008700094E0B8010E94B729AB01BC0100D000D0C0
:10088000ADB7BEB71196FF240894E108F10880ECDB
:1008900090E0E89E9001E99E300DF89E300D112405
:1008A000225A3D4FE0E0D110E1E04D935D936D930E
:1008B0007C931397C9016E2F29813A814B815C810A
:1008C00083017201650154010E94E6240F900F908C
:1008D0000F900F900F900F900F900F90CF91DF918E
:1008E0001F910F91FF90EF90DF90CF90BF90AF904E
:1008F0009F908F907F906F905F904F900895FA0136
:100900006A3009F495C06B30D8F4653009F45AC0E8
:10091000663048F46330E9F1643008F047C0623073
:1009200009F0D5C02FC0673009F467C0673008F4FC
:1009300054C0683009F46CC0693009F0C8C071C097
:10094000683609F496C0693680F4653609F482C0C9
:10095000663620F4643609F0BAC078C0663609F409
:100960007CC0673609F0B3C07FC06A3609F493C013
:100970006A3608F487C06B3609F496C06C3609F005
:10098000A6C099C090E08081811191E090935D02B2
:100990000BC08EE994E0BA010E94B729AB01BC01FB
:1009A00087E492E00E94CC2881E092C08EE994E036
:1009B000BA010E94B729AB01BC0187E492E00E9412
:1009C0004D28F2CF8EE994E0BA010E94AF29BC0114
:1009D00087E492E00E944928E7CF8EE994E0BA01CB
:1009E0000E94AF29A0E0B0E080935402909355029A
:1009F000A0935602B0935702D7CF8EE994E0BA0184
:100A00000E94AF29BC0187E492E00E945328CCCF1A
:100A100060E08081811161E087E492E00E946528B6
:100A2000089590E08081811191E090935C02BCCFA9
:100A30008EE994E0BA010E94B7296093580270933E
:100A4000590280935A0290935B02AECF81E060918D
:100A50005D0227C00E94412822C087E492E00E94E4
:100A60005F28AB01BC012FC087E492E00E945B28A5
:100A70000DC0409154025091550260915602709100
:100A8000570221C087E492E00E945728BC0181E010
:100A90000E94E002089587E492E00E946828682F8F
:100AA00081E00E94EF02089560915C0281E070E0B5
:100AB0000E94D102089540915802509159026091CC
:100AC0005A0270915B0281E00E94C102089580E0A9
:100AD0000E94FE0208959C01C397C197E0F48EE541
:100AE00092E060E021E030E040E050E00E94D72258
:100AF0008EE193E060E021E030E040E050E00E94D1
:100B0000D7228EED93E060E021E030E040E050E05D
:100B10000E94D722089525363105D8F08EE592E05F
:100B200061E021E030E040E050E00E94D7228EE119
:100B300093E061E021E030E040E050E00E94D72205
:100B40008EED93E061E021E030E040E050E00E9473
:100B5000D722089541E00E94CA2E089580939C01F7
:100B600080E090E06CE971E00E94AA050895EF92A0
:100B7000FF920F931F93382F562F742FE22F780177
:100B80008EE994E0632F452F272F0E2F0E947D2C96
:100B90001F910F91FF90EF900895EF92FF920F93A6
:100BA0001F93382F562F742FE22F780181E395E0A1
:100BB000632F452F272F0E2F0E947D2C1F910F9101
:100BC000FF90EF90089580915C02882331F080912E
:100BD000A905882331F01092A9058FEF94E066E013
:100BE00006C081E08093A9058FEF94E064E00E9445
:100BF00007280895843021F48FEF94E064E00EC05C
:100C0000823079F480913D0290913E02019690935A
:100C10003E0280933D028FEF94E065E00E9407283A
:100C20000895863011F40E94E305089580912C0206
:100C30008823D9F482E00E9458018EE592E00E9458
:100C4000FD1AAC0160E070E087EB95E00E94DE16D3
:100C500087EB95E065E377E02FEF3FEF4FEF5FEF36
:100C60000E94F51681E080932C0208952F923F9206
:100C70005F926F927F928F929F92AF92BF92CF922C
:100C8000DF92EF92FF920F931F93DF93CF9300D0E9
:100C900000D0CDB7DEB78EEF94E00E94AB19582E8E
:100CA0008EE592E00E94881A882309F0A8C08EE1A0
:100CB00093E00E94881A882309F0A1C08EED93E08A
:100CC0000E94881A882309F09AC08FEF94E0652D5E
:100CD0000E9407289EC0629CC001639C900D729C7C
:100CE000900D1124825A9D4F9C838B830E94881AF9
:100CF000882309F475C08B819C810E94971A8823F0
:100D0000A9F08B819C810E94A71A882309F05BC0FF
:100D10008B819C810E94691A682F8B819C8120E0C5
:100D200030E040E050E00E94D7224DC0D4015396FD
:100D30008C91813029F48B819C810E9417264BC0B5
:100D4000F40191899130B1F582898823E1F5928B84
:100D500000D000D08DB79EB701969A83898360E05A
:100D60008481811161E0D4012D913D914D915C917F
:100D700013971596ED90FD900D911C91189719966B
:100D8000AD90BD90CD90DC901C971D968D919D915E
:100D90000D90BC91A02DE981FA8180839183A2837B
:100DA000B3838B819C810E94E6240F900F900F905B
:100DB0000F9009C08B819C810E94B41A6115710546
:100DC0008105910521F48FEF94E0652D07C08B819B
:100DD0009C810E94D2248FEF94E063E00E94072858
:100DE0000894611C711C80EC90E0880E991E93E0C1
:100DF0006916710409F06FCF0E9416060AC03BE61F
:100E0000832E32E0932E6624772420EC222E312C80
:100E100062CF0F900F900F900F90CF91DF911F91A5
:100E20000F91FF90EF90DF90CF90BF90AF909F9089
:100E30008F907F906F905F903F902F9008958EE5F8
:100E400092E00E947F208EE193E00E947F208EED51
:100E500093E00E947F2010922C0281E00E945801B2
:100E600087EB95E00E94E6160895AF92BF92CF926D
:100E7000DF92EF92FF920F931F93CF93DF9381B393
:100E800090919C05892B81BB81E090E00E941632F5
:100E900091B380919C058095892381BB10929C051C
:100EA00064E6E62E62E0F62E00E010E050ECA52E9F
:100EB000B12C41E0C42ED12C0A9DE0010B9DD00D38
:100EC0001A9DD00D1124C25ADD4FCE010E94A71ADF
:100ED0008823A9F0CE010E943020CE010E94A120DB
:100EE000882369F09601F701008002C0220F331FAA
:100EF0000A94E2F780919C05822B80939C050F5FFA
:100F00001F4F80EC90E0E80EF91E03301105A1F6AA
:100F10008EE592E00E94A71A882371F48EE193E097
:100F20000E94A71A882341F48EED93E00E94A71A2D
:100F3000882311F40E941F07DF91CF911F910F9119
:100F4000FF90EF90DF90CF90BF90AF9008958EE527
:100F500092E00E94A71A882361F48EE193E00E9438
:100F6000A71A882331F48EED93E00E94A71A8823F4
:100F700011F00E941F078EE592E00E94C51B8EE1D2
:100F800093E00E94C51B8EED93E00E94C51B08955F
:100F9000CF93DF93EC0187E2C031D80791F083E172
:100FA000C838D80771F08FE0C03AD80751F087E011
:100FB000C03DD80731F083E0C83ED80711F080E08B
:100FC00010C08EE592E0BE010E94D21A8EE193E03D
:100FD000BE010E94D21A8EED93E0BE010E94D21A89
:100FE00081E0DF91CF9108950E94C0158091210585
:100FF0008650823048F460E08091B801882309F47B
:1010000061E088E10E941833809122058650823089
:1010100048F460E08091B801882309F461E089E137
:101020000E94183380919505863021F48FEF94E06B
:1010300061E003C08FEF94E062E00E94072808950A
:101040008CE060E00E94183308958CE061E00E941B
:10105000183308950E9489316093310270933202EF
:10106000809333029093340281E080933502809123
:101070003602813031F48CE060E00E941833109227
:1010800036028EEF94E00E94AB19882329F08FEF8F
:1010900094E061E00E94072808956F927F928F92FA
:1010A0009F92AF92BF92CF92DF92EF92FF920F93F7
:1010B0001F93CF93DF93E82EEA01623109F4F3C165
:1010C0006331A0F5693009F42CC16A30B0F46530A1
:1010D00009F4AEC0663050F4633009F47AC064306D
:1010E00008F08DC0623009F001C45EC0673009F4B9
:1010F000C2C0683008F0D8C0ACC06D3009F46EC111
:101100006E3038F46B3009F441C16C3008F060C1C6
:1011100021C16F3009F488C16F3008F463C16031B8
:1011200009F494C1613109F0E1C3A5C1683609F43D
:1011300031C36936F0F4663109F42BC2673148F4E3
:10114000643109F4D2C1282F30E0653108F0EBC1D9
:10115000BBC1653609F4EBC2663620F4643609F08B
:10116000C5C3D4C2663609F4F3C2673609F0BEC3FC
:1011700000C36C3609F453C36D3648F46A3609F47B
:101180002BC3282F30E06B3608F037C314C36E36FC
:1011900009F471C36E3608F458C36F3609F47EC380
:1011A000603709F0A3C38DC390E0019720EC30E0D5
:1011B000829FD001839FB00D929FB00D1124A25A3F
:1011C000BD4F60E08881811161E0CD010E94831AEA
:1011D00014C090E0019720EC30E0829FD001839F03
:1011E000B00D929FB00D1124A25ABD4F60E08881CE
:1011F000811161E0CD010E945E2081E078C38EE91B
:1012000094E0BA010E94B729AB01BC018E2D90E099
:10121000019720EC30E0FC01E29FC001E39F900DBC
:10122000F29F900D1124825A9D4F0E94BC1AE5CF67
:1012300090E0019720EC30E0AC01429FC001439F59
:10124000900D529F900D1124825A9D4F0E941C1C9C
:10125000D4CF90E0019720EC30E0BC01629FC00148
:10126000639F900D729F900D1124825A9D4F68814B
:101270000E947E1AC2CF8EE994E0BA010E94D3295F
:10128000AB01BC018E2D90E0019720EC30E0FC0119
:10129000E29FC001E39F900DF29F900D1124825AAE
:1012A0009D4F0E94271BA9CF4881413081F490E0D7
:1012B000019720EC30E0AC01429FC001439F900DAC
:1012C000529F900D1124825A9D4F64E011C042300C
:1012D00091F490E0019720EC30E0BC01629FC001E6
:1012E000639F900D729F900D1124825A9D4F65E06F
:1012F0000E948C1B82CF433081F490E0019720EC58
:1013000030E0FC01E29FC001E39F900DF29F900D41
:101310001124825A9D4F66E0EBCF80E00E94FE02CE
:101320006CCF8EE994E0BA010E94B7292E2D30E0EF
:101330002150304040EC50E0249FF001259FF00DFB
:10134000349FF00D1124E25AFD4F60837183828334
:10135000938353CF8EE994E0BA010E94AF292E2DDA
:1013600030E02150304040EC50E0B901649F9001E2
:10137000659F300D749F300D1124AC0160E070E06A
:10138000C901825A9D4F0E94AC1A37CFFA011191C0
:101390008EE994E0BF010E94B729AB01BC018E2DFC
:1013A00090E0019720EC30E0829FF001839FF00DE8
:1013B000929FF00D1124E25AFD4FA0E01111A1E01F
:1013C0009A0140E050E0CF016A2F0E94D72203C06B
:1013D000BA010E9402040E9416060FCFBA010E94B1
:1013E0000B030BCFFF240894E108F10880EC90E098
:1013F000E89E8001E99E100DF89E100D1124025AFE
:101400001D4FC8010E94C51BF801168EF701EE0F93
:10141000FF1FEE0DFF1D66E0EE0FFF1F6A95E1F75F
:10142000E258FD4F1082E9CE90E0019720EC30E0C9
:10143000AC01429FC001439F900D529F900D11241B
:10144000825A9D4F68810E942522D7CE90E0019755
:1014500020EC30E0829FD001839FB00D929FB00DB1
:101460001124A25ABD4F60E08881811161E0CD0155
:101470000E945420C2CE8EE994E0BA010E94AF29A6
:10148000BC018E2D90E0019720EC30E0FC01E29F42
:10149000C001E39F900DF29F900D1124825A9D4F41
:1014A0000E94101BAACE90E0019720EC30E0AC0126
:1014B000429FC001439F900D529F900D1124825A6C
:1014C0009D4F0E94AA2487CF2150304080EC90E0AD
:1014D000BC01269FC001279F900D369F900D1124BF
:1014E000825A9D4F0E947F2088CE90E001979C01F8
:1014F000220F331F280F391FF90146E0EE0FFF1F9F
:101500004A95E1F7E258FD4F8081882309F4EFC145
:10151000F90136E0EE0FFF1F3A95E1F7EA59FD4F6A
:10152000888180836ACEC90101978C01000F111F49
:10153000080F191FF80186E0EE0FFF1F8A95E1F7EB
:10154000E258FD4F8081882309F4D1C10E9489317E
:10155000209158023091590240915A0250915B02F9
:10156000621B730B840B950B60939105709392052E
:101570008093930590939405F80106E0EE0FFF1F0A
:101580000A95E1F7EA59FD4F81E080830E942A081D
:1015900034CE282F30E021503040F901EE0FFF1FEC
:1015A000E20FF31FB6E0EE0FFF1FBA95E1F7E25826
:1015B000FD4F8081882309F49AC180EC90E0289F38
:1015C000F001299FF00D389FF00D1124E25AFD4FD4
:1015D0004081518162817381411551056105710519
:1015E00059F080913D0290913E02A0E0B0E0841756
:1015F0009507A607B707D8F080913D0290913E026B
:10160000009729F0019790933E0280933D0280EC71
:1016100090E0FC012E9FC0012F9F900D3E9F900DEA
:101620001124825A9D4F0E94AA250E94160660909E
:1016300058027090590280905A0290905B0287E4A1
:1016400092E00E945F285B016C0187E492E00E94B7
:101650005B287C0187E492E00E94572800E010E0BC
:10166000A0E0B0E0E80EF91E0A1F1B1FEA0CFB1CED
:101670000C1D1D1DE614F7040805190548F400911A
:1016800058021091590220915A0230915B021BC0FE
:1016900087E492E00E945F286B017C0187E492E07E
:1016A0000E945B288C0187E492E00E94572820E08A
:1016B00030E0A0E0B0E0080F191F2A1F3B1F0C0DFF
:1016C0001D1D2E1D3F1D80912D0290912E02A09177
:1016D0002F02B091300280179107A207B30768F07C
:1016E000801B910BA20BB30B80932D0290932E02C3
:1016F000A0932F02B093300280CD10922D02109251
:101700002E0210922F021092300277CD90E00197B6
:1017100020EC30E0AC01429FC001439F900D529FEE
:10172000900D1124825A9D4F0E94881AB4C090E0F7
:10173000019720EC30E0BC01629FC001639F900DD7
:10174000729F900D1124825A9D4F0E94691AA3C066
:1017500090E0019720EC30E0FC01E29FC001E39FA4
:10176000900DF29F900D1124825A9D4F0E94C41A31
:1017700066C090E0019720EC30E0AC01429FC001D0
:10178000439F900D529F900D1124825A9D4F0E94AD
:10179000821B55C090E0019720EC30E0BC01629FB5
:1017A000C001639F900D729F900D1124825A9D4F2E
:1017B0000E94791A70C02150304080EC90E0FC010A
:1017C0002E9FC0012F9F900D3E9F900D1124825A95
:1017D0009D4F0E949C1A85C090E0019720EC30E05C
:1017E000AC01429FC001439F900D529F900D112468
:1017F000825A9D4F0E94C01B4EC02150304080EC49
:1018000090E0289FF001299FF00D389FF00D1124E2
:10181000E25AFD4F408151816281738112C090E094
:10182000019720EC30E0BC01629FC001639F900DE6
:10183000729F900D1124825A9D4F0E94B41AAB01E1
:10184000BC0181E00E94C10254C090E0019720ECED
:1018500030E0FC01E29FC001E39F900DF29F900DEC
:101860001124825A9D4F0E94241CAB01BC0181E0CF
:101870000E94B1023EC090E0019720EC30E0AC0144
:10188000429FC001439F900D529F900D1124825A98
:101890009D4F0E94641A682F81E010C090E001976C
:1018A000FC01EE0FFF1FE80FF91F76E0EE0FFF1FA0
:1018B0007A95E1F7EA59FD4F81E060810E94EF02DD
:1018C00018C090E0019720EC30E0BC01629FC0019D
:1018D000639F900D729F900D1124825A9D4F0E941C
:1018E000CC1ABC0181E00E94E00203C080E00E94AB
:1018F000FE02DF91CF911F910F91FF90EF90DF904B
:10190000CF90BF90AF909F908F907F906F900895F1
:101910001F93CF93DF93182F863029F4C091B30122
:10192000D091B40104C0C091B501D091B6018091AD
:101930002105181711F090E006C088E16091B80108
:101940000E94183391E080912205181731F489E143
:101950006091B8010E94183302C0992369F0BE015A
:1019600080E090E044EF57E00E9462150E94AA15C3
:101970008FEF94E060E009C0163021F48FEF94E01F
:1019800061E003C08FEF94E062E00E940728DF91DE
:10199000CF911F910895FF920F931F93F82E062F5A
:1019A000E82FF0E0EF5DFA4F608381E0F816D9F19F
:1019B000FF2019F482E00E948D2F18E1002329F402
:1019C000812F60E00E94953233C006500230E8F06B
:1019D000812F60E00E949532812F61E00E941833D0
:1019E000FF2021F081E0F81619F506C04091B701FB
:1019F00082E063EB7FE005C04091B70183E069EAD4
:101A00007FE050E00E94112F13C0812F61E00E94FF
:101A1000953260E08091B801882309F461E0812F5C
:101A20000E94183305C083E00E948D2F19E1C6CFB4
:101A30001F910F91FF90089580E0609121050E9411
:101A4000CB0C81E0609122050E94CB0C90E080914C
:101A50002105843009F491E080912205843009F455
:101A600091E090932405089541E00E946F2E08951F
:101A700080E090E06CE971E00E94340D82E090E03B
:101A80006EE971E040E10E946F2E089582E090E0DF
:101A90000E94F92E80E090E06CE971E00E94AA05B6
:101AA00082E090E06EE971E040E10E94CA2E089564
:101AB0000E94B52E882339F00E949B2E029719F4BC
:101AC0000E94380D08950E94460D089580919D054D
:101AD0008823A1F48DE995E00E942A36892B71F0C4
:101AE0000E9489316093A5057093A6058093A70590
:101AF0009093A8058DE995E00E94343680912105E8
:101B0000873051F080912205873031F08FEF94E0DB
:101B100062E00E940728089580919505882371F45A
:101B200087E0809395050E9489316093A5057093A5
:101B3000A6058093A7059093A80508950E94893172
:101B40002091A5053091A6054091A7055091A805C3
:101B5000621B730B840B950B2091B1013091B20184
:101B600040E050E0261737074807590728F410923D
:101B7000950587E00E94880C0895CF92DF92EF923E
:101B8000FF920F931F93CF93DF938EEF94E00E9409
:101B9000E2190EE512E0EE24FF24E0ECCE2ED12C6B
:101BA000EC9CE001ED9CD00DFC9CD00D1124C25AA0
:101BB000DD4FCE010E94881A8823C1F0F80180A170
:101BC0008130A1F420813181428153812115310579
:101BD0004105510559F080913D0290913E02A0E0EF
:101BE000B0E082179307A407B507F8F0CE010E9472
:101BF000881A882319F1F80180A18823F9F420813B
:101C00003181428153812115310541055105B1F0E2
:101C100080912D0290912E02A0912F02B09130025E
:101C200082179307A407B50748F48FEF94E061E0AB
:101C30000E9407280EC00E9436060BC00894E11CC3
:101C4000F11C00541F4FF3E0EF16F10409F0A8CF88
:101C5000F2CFDF91CF911F910F91FF90EF90DF9026
:101C6000CF9008950F931F930FEF14E0C80161E028
:101C70004DEB5FE00E941E28C80162E04DEB5DE085
:101C80000E941E28C80163E044ED52E10E941E2814
:101C9000C80164E047E65EE00E941E28C80165E0D6
:101CA0004DE55EE00E941E28C80166E046E65DE064
:101CB0000E941E281F910F9108958FEF94E060E01D
:101CC0000E94072887E492E00E948E2808958FEFF3
:101CD00094E060E00E94072887E492E00E941129C6
:101CE0000895FF920F931F93CF93DF93F82E8B01EC
:101CF000C0E0D0E015C08F2D61E00E9418336AEF7C
:101D000070E080E090E00E94BD318F2D60E00E9485
:101D100018336AEF70E080E090E00E94BD312196B8
:101D2000C017D10744F3DF91CF911F910F91FF901E
:101D300008951F93182F0E941F07113091F41092DD
:101D40002D0210922E0210922F0210923002109249
:101D50003E0210923D0210927D0210923D031092BD
:101D6000FD03109235020E94A7070E9419291F91B6
:101D700008951F93182F0E94893120919605309164
:101D800097054091980550919905621B730B840B40
:101D9000950B6E5E72408040904008F4D8C00E945F
:101DA0008931609396057093970580939805909379
:101DB00099058EE397E060E071E00E947C378EE346
:101DC00097E0612F4AE050E00E941937E12FF0E0E0
:101DD000EF5DFA4F60816130B1F0683041F480917D
:101DE0003502813009F0B3C00E941F07B0C06230D5
:101DF00031F0633059F480913502882321F081E07D
:101E00000E94990EA4C00E942A08A1C0643021F447
:101E100081E0809323059BC0653001F58EE592E05B
:101E20000E94691A11E0682F61278EE592E00E94F6
:101E30005E208EE193E00E94691A682F61278EE18F
:101E400093E00E945E208EED93E00E94691A1827AD
:101E50008EED93E0612F0E945E2079C0693079F4A5
:101E60000E941F078EE592E00E941C1C8EE193E009
:101E70000E941C1C8EED93E00E941C1C68C06A30FE
:101E800009F065C00E941F078EE592E00E94241CA5
:101E900016161706180619063CF48EE592E00E9405
:101EA000241C9B01AC010BC08EE592E00E94241C17
:101EB00022273327A901261B370B480B590B8EE528
:101EC00092E0BA01A9010E94BC1A8EE193E00E943F
:101ED000241C16161706180619063CF48EE193E02A
:101EE0000E94241C9B01AC010BC08EE193E00E9478
:101EF000241C22273327A901261B370B480B590B1B
:101F00008EE193E0BA01A9010E94BC1A8EED93E024
:101F10000E94241C16161706180619063CF48EEDAE
:101F200093E00E94241C9B01AC010BC08EED93E05A
:101F30000E94241C22273327A901261B370B480B9C
:101F4000590B8EED93E0BA01A9010E94BC1A1F91B2
:101F500008958EE397E060E271E00E94183881E016
:101F60000E94B90E08958EE397E061E371E00E944C
:101F7000183880E00E94B90E0895209154023091E3
:101F800055024091560250915702211531054105E5
:101F9000510579F080913D0290913E02A0E0B0E0C1
:101FA00082179307A407B50720F080E00E94990EDE
:101FB000089580912405882329F0809123058823A2
:101FC00009F467C080912105863029F080912205AF
:101FD000863009F057C081E00E946001882309F42F
:101FE00051C086E0809395050E94880C08950E9458
:101FF000893120919105309192054091930550913E
:102000009405621B730B840B950B20915802309141
:10201000590240915A0250915B026217730784077C
:102020009507B8F180915D02882381F48FEF94E0E9
:1020300062E00E9407280E948931609391057093A5
:102040009205809393059093940508950E944128EA
:102050008823F9F48FEF94E060E00E940728109243
:102060009505109223050E94893160939105709324
:102070009205809393059093940587E492E00E94E3
:10208000C62808958EEF94E00E94AB19882351F280
:10209000AECF08950E9419290E941F0710923502A1
:1020A0000895CF93DF93EB01843109F453C1853157
:1020B00008F040C08A3009F4E1C08B30E0F485308C
:1020C00009F483C0863050F4833009F476C084303C
:1020D00008F077C0823009F0DBC16CC0873009F4AA
:1020E00088C0873008F47CC0883009F48FC08930FC
:1020F00009F0CEC1AAC08F3009F402C1803168F462
:102100008C3009F4D9C08C3008F4C7C08D3009F484
:10211000DAC08E3009F0BCC1EFC0813109F4FFC0D4
:10212000813108F4F8C0823109F402C1833109F029
:10213000AFC107C18C3609F463C18D3610F58736FF
:1021400009F431C1883680F4843609F419C1853622
:1021500020F4853109F09CC106C1853609F413C10C
:10216000863609F095C113C1893609F425C189362F
:1021700008F41EC18A3609F427C18B3609F088C1DC
:1021800029C1813709F467C1823738F48E3609F4E2
:102190005EC18F3608F07FC150C1833709F465C135
:1021A000833708F45DC1843709F464C1853709F0C9
:1021B0006FC168C10E942A0802C00E944A1081E0D3
:1021C00068C181E00E94990EFACF888180933C0219
:1021D000882319F40E942008F2CF0E942508EFCF2F
:1021E00060E08881811161E08EEF94E00E94591ACD
:1021F000E6CF8EE994E00E94B72960933F02709386
:1022000040028093410290934202D9CF80E1EEE9EF
:10221000F1E0DF011D928A95E9F780E090E0FE0190
:10222000E80FF91F2081222321F0FC01E256FE4F26
:10223000208301968031910591F782E090E06EE96C
:1022400071E040E10E94CA2EBACF6881623008F482
:102250001FC160939C018EE994E070E00E94922976
:1022600060919C0181E395E070E00E94922980E0FA
:1022700090E06CE971E00E94AA05A1CF88818330CB
:1022800020F080E00E94FE029ACF882319F40E9479
:10229000F51995CF0E94211A92CF8EE592E00E9407
:1022A000AA248EE193E00E94AA248EED93E00E947E
:1022B000AA240E94160683CF8EE994E00E94AF29DB
:1022C0000E94C807E6C060E08881811161E08EE568
:1022D00092E00E94921A60E08881811161E08EE1B3
:1022E00093E00E94921A60E08881811161E08EED96
:1022F00093E00E94921A63CF88810E94470108C030
:1023000080E068810E94CB0C81E069810E94CB0C47
:102310000E941C0D54CF88818093370250CF8EE9E4
:1023200094E00E94AF299093B0018093AF01F0CF69
:102330008EE994E00E94AF299093B2018093B1019D
:10234000E7CF8EE994E00E94AF299093B401809387
:10235000B301DECF8EE994E00E94AF299093B601DD
:102360008093B501D5CF6881613021F481E08093FD
:10237000B8018FC0662309F08BC01092B8011FCF3F
:1023800081E066E082C081E0609135027EC04091CC
:102390002D0250912E0260912F027091300281E047
:1023A0000E94C10278C00E944128682F81E06DC060
:1023B00081E060919D0169C081E06EE971E040E1DA
:1023C00050E00E94900267C08EE592E00E94021BDE
:1023D000BC0154C08AE20E946632AA2797FDA095EC
:1023E000BA2FBC01CD010E941D4520E030EC4FE723
:1023F00054E40E94824420E030E048EC51E415C0EF
:1024000089E20E946632AA2797FDA095BA2FBC01E7
:10241000CD010E941D4520E030EC4FE754E40E94BE
:10242000824420E030E040EA50E40E94D145AB0114
:10243000BC0181E00E94A1022EC08EE592E00E94C4
:10244000971A682F81E070E00E94D10224C081E0D9
:102450006091B7011AC06091AF017091B0010EC0D8
:102460006091B1017091B20109C06091B3017091A6
:10247000B40104C06091B5017091B60181E00E9481
:10248000E00209C081E06091B8010E94EF0203C040
:1024900080E00E94FE02DF91CF910895843018F40D
:1024A000813048F403C0843069F408C0862FBA0133
:1024B0000E94511008950E944D08089584E00E94E2
:1024C0007F04089580E00E94FE020895EF92FF923B
:1024D0000F931F93F82EE62E8A0182E08093AE01BF
:1024E0000E948931609338027093390280933A02D6
:1024F00090933B028F2D6E2DA8010E944E121F91CA
:102500000F91FF90EF900895EF92FF920F931F931A
:10251000F82EE62E8A0181E08093AE010E94893177
:10252000609338027093390280933A0290933B0291
:102530008F2D6E2DA8010E944E121F910F91FF90BA
:10254000EF900895FA01623069F0633018F4613059
:1025500051F505C0633051F0643029F50AC00E947E
:102560002A08089581E00E94990E08950E944A1059
:10257000089540814230B8F040939C010E94460D7E
:1025800060919C018EE994E070E00E949229609134
:102590009C0181E395E070E00E9492298CE065E067
:1025A00070E00E94710E0895CF92DF92EF92FF9239
:1025B0000F931F93CF93DF93ACE7EA2EA2E0FA2E9E
:1025C00000E010E0F0ECCF2ED12C0C9DE0010D9D31
:1025D000D00D1C9DD00D1124C25ADD4FCE010E949A
:1025E000971A882351F5F7018081882331F5CE01B0
:1025F0000E94A71A882309F12BC08EEF94E00E9455
:10260000AB198823A1F08FEF94E061E00E940728C6
:1026100080916602813041F080912603813021F063
:102620008091E6038130A1F40E944A1011C08FEF1F
:1026300094E060E00E9407280BC00F5F1F4F80EC02
:1026400090E0E80EF91E0330110509F0BECFD5CF9A
:10265000DF91CF911F910F91FF90EF90DF90CF907E
:102660000895EF92FF920F931F938EE994E00E94DA
:10267000CB2D81E395E00E94CB2D0E9489312091E2
:102680004302309144024091450250914602621B40
:10269000730B840B950B655F71408040904008F48C
:1026A0007DC08EE397E00E94C538892B31F08EE122
:1026B00093E060ED77E00E94D21A0E948931609326
:1026C00043027093440280934502909346028AE24B
:1026D0000E9466327C0189E20E9466328EE397E0B6
:1026E00062E471E00E947C370027F7FC0095102F10
:1026F000C801B7010E941D4520E030EC4FE754E4CB
:102700000E94824420E030E040EA50E40E94D1453B
:1027100020E030E040EA50E40E94D145AB01BC012A
:102720008EE397E022E030E00E9415388EE397E0D8
:102730006EE471E00E947C378EE397E060912305A0
:102740004AE050E00E9407378EE397E060E671E0D0
:102750000E947C378EE397E0609121054AE050E0CB
:102760000E9407378EE397E06FE671E00E947C37A6
:102770008EE397E0609122054AE050E00E9407371F
:102780008EE397E06EE771E00E947C378EE397E07E
:10279000609124054AE050E00E9419378EE592E0EE
:1027A0000E94A71A882361F48EE193E00E94A71A81
:1027B000882331F48EED93E00E94A71A8823C9F094
:1027C000809137028823A9F00E9489312091380234
:1027D0003091390240913A0250913B02621B730BD7
:1027E000840B950B695E73408040904010F00E940E
:1027F0001F0780913502882309F467C00E94893140
:1028000020912D0230912E0240912F0250913002E2
:10281000E0903102F09032020091330210913402C4
:102820002E193F09400B510B260F371F481F591F08
:1028300020932D0230932E0240932F0250933002AA
:10284000609331027093320280933302909334028A
:1028500080913602813019F480E00E94990E8EEF4B
:1028600094E00E94AB198823E9F020913F02309157
:10287000400240914102509142022115310541052B
:10288000510581F080912D0290912E02A0912F028E
:10289000B0913002281739074A075B0718F481E026
:1028A0000E94990E8EEF94E00E94AB19882349F4A0
:1028B0000E94AE19882329F08FEF94E061E00E9416
:1028C00007288FEF94E00E940A281F910F91FF9034
:1028D000EF900895EF92FF920F931F93CF93DF93A2
:1028E0008EE397E040E855E260E070E00E94CC386B
:1028F00064E670E080E090E00E94BD3163E876E03D
:1029000080E090E00E94481985E295E06BE871E074
:102910000E9418388EE397E067E971E00E9418384A
:102920000E94893160934302709344028093450270
:10293000909346028CE061E00E94953280E061E075
:102940000E94953280E061E00E9418338AE260E0E4
:102950000E94953289E260E00E9495320E94580DF3
:102960000E94320E8FEF94E060E00E9407288EEF05
:1029700094E061E00E94591A8BE695E00E94A61946
:1029800087E492E048E750E060E070E00E944D2864
:1029900087E492E060E070E00E94532887E492E0D0
:1029A00060E070E00E94492887E492E06AEF75E0F9
:1029B0000E9444288CE197E040E051EE60E070E036
:1029C0000E94C13360919C018EE994E070E00E9406
:1029D00092298EE994E064E872E10E94652C8EE908
:1029E00094E06DEC75E00E94712C8EE994E062EA4F
:1029F00072E10E946B2C8EE994E060E00E948D29C8
:102A000060919C0181E395E070E00E94922981E34E
:102A100095E066E672E10E94652C81E395E067EB44
:102A200075E00E94712C81E395E062EA72E10E94F8
:102A30006B2C81E395E061E00E948D298EE994E0A2
:102A40006EEA75E00E94A12981E395E06EEA75E0E7
:102A50000E94A129C0E0D0E0B0ECEB2EF12CCE9D7D
:102A60008001CF9D100DDE9D100D1124025A1D4FC7
:102A7000C80160E00E94831AC80160E00E94921AB7
:102A8000C80160EA7FE00E94D21AC80160E273E0E8
:102A90000E94101BC80161E00E945420C80164E03C
:102AA0000E9425222196C330D105C9F68CE065E04D
:102AB00070E00E94710EDF91CF911F910F91FF90F6
:102AC000EF900895611571058105910569F481E024
:102AD00090E0A0E0B0E08093AA059093AB05A093AE
:102AE000AC05B093AD0508C06093AA057093AB0523
:102AF0008093AC059093AD055093AF054093AE0520
:102B0000809170008E7F809370008091B0008C7FE8
:102B10008093B0008091B100877F8093B100809155
:102B2000B6008F7D8093B600809170008D7F80937A
:102B300070008091B10084608093B1008091B100F9
:102B40008C7F8093B10086E090E09093B6058093EF
:102B5000B50508951092B0051092B1051092B20516
:102B60001092B3051092B4058091B5059091B60509
:102B70008093B200E0E7F0E0808181608083089577
:102B8000E0E7F0E080818E7F808308958091B0053A
:102B90009091B105A091B205B091B3050196A11D28
:102BA000B11D8093B0059093B105A093B205B09389
:102BB000B3058091B0059091B105A091B205B09197
:102BC000B3052091AA053091AB054091AC05509119
:102BD000AD0582179307A407B50710F18091B405DE
:102BE0008823F1F481E08093B4058091B005909141
:102BF000B105A091B205B091B305821B930BA40B54
:102C0000B50B8093B0059093B105A093B205B09336
:102C1000B305E091AE05F091AF0509951092B405AA
:102C200008951F920F920FB60F920BB60F921124B8
:102C30002F933F934F935F936F937F938F939F93C4
:102C4000AF93BF93EF93FF938091B5059091B60535
:102C50008093B2000E94C615FF91EF91BF91AF9192
:102C60009F918F917F916F915F914F913F912F91A4
:102C70000F900BBE0F900FBE0F901F9018951F92D4
:102C80000F920FB60F920BB60F9211242F933F9312
:102C90004F935F936F937F938F939F93AF93BF9364
:102CA000EF93FF93E091BB05F091BC050995FF916F
:102CB000EF91BF91AF919F918F917F916F915F91B4
:102CC0004F913F912F910F900BBE0F900FBE0F9021
:102CD0001F901895FC01A3E0440F551F661F771F36
:102CE000AA95D1F7403080E0580781E0680780E07E
:102CF000780714F481E010C033E075956795579517
:102D000047953A95D1F7403080E0580781E0680751
:102D100080E078071CF482E0828339C023E0759557
:102D20006795579547952A95D1F7403080E0580729
:102D300081E0680780E0780714F483E0EDCF92E04B
:102D400075956795579547959A95D1F7403080E0EE
:102D5000580781E0680780E0780714F484E0DCCF4E
:102D600082E075956795579547958A95D1F74030DC
:102D700080E0580781E0680780E0780714F485E078
:102D8000CBCF85E082834FEF5FEF60E070E08FB7DD
:102D90008383F89451834083509387004093860047
:102DA00083818FBF80918100887F80938100809193
:102DB00081009281892B8093810008951092800078
:102DC00020E1209381000E946A160895EFE6F0E06A
:102DD00080818E7F80830895E1E8F0E02081DC012E
:102DE00012968C91282B208308950F931F93CF93D5
:102DF000DF93EC018B01121613061406150624F45A
:102E0000BA01A9010E946A161D830C8381E0809398
:102E10006F00CE010E94EC16DF91CF911F910F91B0
:102E20000895F999FECF72BD61BDF89A80B50895F5
:102E3000F999FECF1FBA72BD61BD40BD0FB6F894BF
:102E4000FA9AF99A0FBE0895282F90911C069F5F59
:102E5000943408F090E080911D068917E1F33FB7A4
:102E6000F89480911906882341F0E92FF0E0E25EA2
:102E7000F94F208390931C061DC081E080931906B2
:102E800020931A0610921B0682E088BB8091710085
:102E9000826080937100809190008F73806880932E
:102EA00090008091940090919500409690939900A5
:102EB000809398003FBF0895862F0E94241781E0D9
:102EC00090E008951F920F920FB60F920BB60F92DB
:102ED00011242F933F934F935F936F937F938F931F
:102EE0009F93EF93FF934091190650911A062091FA
:102EF00098003091990060911506709116068091A6
:102F00001B061FC0260F371F952F917056954F5FD8
:102F10009817B9F0992321F080919000806C04C03B
:102F2000809190008F738068809390003093990017
:102F30002093980090931B0650931A06409319060D
:102F40003BC04930F8F2493039F48AE080931906E1
:102F500080919000806C28C080911C06E0911D0635
:102F60008E1769F410921906809190008F738093E8
:102F70009000809171008D7F809371001DC081E071
:102F800080931906EF5FE43408F0E0E0E0931D065B
:102F9000F0E0E25EF94F808180931A0610921B06E2
:102FA000809190008F73806880939000260F371F68
:102FB0003093990020939800FF91EF919F918F910A
:102FC0007F916F915F914F913F912F910F900BBE29
:102FD0000F900FBE0F901F901895809119068823AF
:102FE000E1F708950E94ED1708951F920F920FB612
:102FF0000F920BB60F9211241F932F933F934F9371
:103000005F936F937F938F939F93AF93BF93EF9350
:10301000FF9320919600309197009091110699238B
:1030200041F0809191008F7B809391001092110666
:1030300008C08091910080648093910080E8809323
:10304000110670911006772331F5992309F06CC0B1
:103050008091130690911406820F931F90939B000A
:1030600080939A0084E088BB809171008460809393
:1030700071008091150690911606280F391F9695BC
:103080008795280F391F309318062093170681E083
:103090008093100649C04091170650911806109170
:1030A0001106E0911506F091160660911206AA2706
:1030B000BB27AE1BBF0BC901841B950B97FD2CC012
:1030C0006695612B7F5F8A0F9B1F793018F44E0F36
:1030D0005F1FF4CF60931206809171008B7F809305
:1030E00071009091BF059F5F903508F090E080914E
:1030F000BE05981739F0E92FF0E0E054FA4F6083ED
:103100009093BF05809191008F7B809391001092E6
:1031100011061092100608C060931206509318060C
:103120004093170670931006FF91EF91BF91AF91F6
:103130009F918F917F916F915F914F913F912F91CF
:103140001F910F900BBE0F900FBE0F901F90189500
:103150001F920F920FB60F920BB60F9211242F935E
:103160008F939F93EF93FF93809171008B7F809358
:103170007100809191008F7B809391009091100657
:103180008091110680582091120603C02695282BA5
:103190009F5F9930D8F3209312069091BF059F5FEF
:1031A000903508F090E08091BE05981739F0E92F2E
:1031B000F0E0E054FA4F20839093BF051092100680
:1031C000809191008F7B8093910010921106FF9166
:1031D000EF919F918F912F910F900BBE0F900FBE8B
:1031E0000F901F9018958091BF05E091BE058E1736
:1031F00019F42FEF3FEF0EC02E2F2F5F203508F070
:1032000020E0E22FF0E0E054FA4F80812093BE05E9
:10321000282F30E0C90108958091BF05E091BE05D7
:103220008E1719F4EFEFFFEF06C0F0E0E054FA4F0D
:103230008081E82FF0E0CF0108959091BF05809143
:10324000BE05292F30E0482F50E0981710F4205B7E
:103250003F4F241B350BC90108958091BE05809313
:10326000BF0508950F931F9301E710E0F8018081D7
:103270008B7F808380818F7D80830E942D190E94A7
:10328000ED17F80180818D7F80831F910F91089544
:103290009B01AC012D3A8BE1380780E0480780E0C4
:1032A000580730F4109271001092900081E814C019
:1032B00063E056954795379527956A95D1F72D3A4E
:1032C0008BE1380780E0480780E05807D0F510927E
:1032D00071001092900082E880939100309316065E
:1032E00020931506CA01B90125E230E040E050E024
:1032F0000E94344652E096958795779567955A9542
:10330000D1F7709314066093130687E162E00E9480
:10331000953286E161E00E94183386E161E00E9407
:103320009532109210061092BF051092BE051092B1
:10333000190610921C0610921D0680E288BB80932D
:103340007100089581E080936E0608959093700651
:1033500080936F060895FC018081089580916E0628
:1033600010926E06811181E0089580917106882384
:1033700019F089B1847002C089B18870882359F42A
:103380000E9497316093720670937306809374065F
:103390009093750608950E9497312091720630919E
:1033A00073064091740650917506E0916F06F09196
:1033B0007006309731F0621B730B840B950BCB01B9
:1033C00009950895FC018081882371F083E160E014
:1033D0000E94183365E070E080E090E00E94BD310B
:1033E00083E161E00E9418330895809171060E9484
:1033F0008D2F089580E00E948D2F83E161E00E946F
:10340000953283E161E00E9418330895FC01108237
:1034100082E060E00E94953283E060E00E94953295
:1034200083E160E00E94953282E061E00E941833FF
:1034300083E061E00E94183383E161E00E94183369
:1034400008950F931F93082F01500230F8F48091D4
:1034500071060E948D2F10927106002319F081E0F1
:1034600080937106002311F013E001C012E0812F58
:1034700060E00E949532812F61E00E941833802F16
:1034800065EB79E141E050E00E94112F1F910F910F
:10349000089583E160E00E94953283E161E00E943B
:1034A000183380E062EA79E142E050E00E94112F97
:1034B0000895FC016083662319F00E94FA190895AB
:1034C0000E94491A08950895FC01EA54FF4F808133
:1034D0000895FC01EB59FF4F80810895FC01E754EA
:1034E000FF4F0190F081E02D309711F0862F099564
:1034F0000895FC01E954FF4F80810895FC01E954CF
:10350000FF4F60830895FC01E05AFF4F60830895E8
:10351000FC01E05AFF4F80810895FC01EE59FF4FF6
:1035200080810895FC01EF59FF4F60830895FC01ED
:10353000EF59FF4F80810895FC01E255FF4F6081F4
:103540007181828193810E94EF44CB010895FC0137
:10355000ED59FF4F80810895FC01E855FF4F4083EE
:103560005183628373830895FC01E855FF4F6081A6
:103570007181828193810895FC01ED57FF4F408353
:103580005183628373830895FC01ED57FF4F60817F
:103590007181828193810895FC01E35AFF4F8081FC
:1035A0009181089587E26031780781F083E168387E
:1035B000780761F08FE0603A780741F087E0603D7E
:1035C000780721F083E0683E7807B1F49B0140E082
:1035D00050E060E472E48FE090E00E946746309330
:1035E000BA012093B90188EE93E0B9010E945346D5
:1035F0007093BC016093BB0108958091B9019091D3
:10360000BA0108952091B9013091BA0140E050E02B
:1036100060E472E48FE090E00E948946C901089559
:103620000F931F93CF93DF93EC018B010E94021B3A
:103630008017910738F00115110521F0C35ADF4FAB
:1036400019830883DF91CF911F910F910895AF9255
:10365000BF92CF92DF92EF92FF920F931F93CF937F
:10366000DF93EC015A016B010E94021BA0E0B0E065
:10367000BC01CD010E941B459B01AC01C601B501F7
:103680000E94CD4518169CF1C255DF4FA882B98221
:10369000CA82DB826091BB017091BC0180E090E046
:1036A0000E941B457B018C01C601B50120E030E082
:1036B0004AE754E40E9482449B01AC01C801B7016F
:1036C0000E9482447B018C010E94EF44A79769937A
:1036D0007993899399930E941B459B01AC01C80182
:1036E000B7010E941944688379838A839B83DF91A1
:1036F000CF911F910F91FF90EF90DF90CF90BF90EF
:10370000AF900895FC01E158FF4F20813181428143
:103710005381B901CA0108951F93CF93DF93EC0140
:10372000162F0E94A71A882339F5143049F4C5547E
:10373000DF4F8EE29CE199838883CB5BD04019C038
:10374000153049F4C554DF4F8DE19DE1899399937C
:103750008AEC9DE10AC0163079F4C554DF4F8DE143
:103760009DE18993999382E39EE199838883CD5B60
:10377000D040C854DF4F1883DF91CF911F91089537
:10378000FC01E854FF4F80810895FC01E158FF4F90
:103790001082118212821382789610821182128214
:1037A00013823C9680E090E0A0E0B0E080839183BB
:1037B000A283B383389711921192119211921082C1
:1037C0001182128213820895CF93DF93EC01FC01E2
:1037D000E158FF4F2081318142815381CB01AA27DB
:1037E00097FDA095BA2F820F931FA41FB51F80834A
:1037F0009183A283B383CB59DF4F8881C556D040D4
:10380000882319F4709561957F4FFE01EE54FF4FA8
:103810002081318142815381CB01AA2797FDA09558
:10382000BA2F820F931FA41FB51F80839183A28399
:10383000B383DF91CF910895FC01EE54FF4F1082C6
:103840001182128213820895FC01EE54FF4F2081F1
:10385000318142815381B901CA0108956F927F92EB
:103860008F929F92AF92BF92CF92DF92EF92FF9290
:103870000F931F93CF93DF93782E5A016B01490169
:10388000882321F0E901CB5BDF4F02C0E901AD964F
:10389000E880F9800A811B81C601B501A801970162
:1038A0000E947E4418163CF0C601B501A80197019C
:1038B0000E94824429C0C601B501288939894A89F4
:1038C0005B890E947E4418162CF0EC84FD840E85E2
:1038D0001F8522C0C601B501A80197010E941944A5
:1038E000288539854A855B850E9419442C813D8154
:1038F0004E815F810E9482449B01AC0160E070E0D8
:1039000080E89FE30E9419442C853D854E855F85A4
:103910000E94D1457B018C017720C9F56091BB01E4
:103920007091BC0180E090E00E941B45A8019701C6
:103930000E9482447B018C010E94EF4427E830E022
:10394000820E931EF40161937193819391934F01C1
:103950000E941B459B01AC01C801B7010E9419449C
:10396000E401688379838A839B8320E030E040E828
:103970005FE30E94CD4518160CF050C080E090E047
:10398000A0E0B0E088839983AA83BB8347C0C801C5
:10399000B7010E94EF445B016C0187E9682E712C2E
:1039A000680C791CF301A082B182C282D382E40147
:1039B000CD55DF4FC601B5010E941B459B01AC01EF
:1039C000C801B7010E941944288139814A815B816D
:1039D0000E941A447B018C01688379838A839B83CC
:1039E00020E030E040E85FE30E94CD458823B4F05A
:1039F000C801B70120E030E040E85FE30E941944CD
:103A0000688379838A839B83D601C5010196A11DB2
:103A1000B11DF30180839183A283B383DF91CF91A2
:103A20001F910F91FF90EF90DF90CF90BF90AF90DC
:103A30009F908F907F906F9008958F929F92AF92FA
:103A4000BF92CF92DF92EF92FF920F931F93CF938B
:103A5000DF93D82EE901882321F0C9018B5B9F4FAA
:103A600002C0C9018D96C354DF4FE881F981CD5B57
:103A7000D04009957B018C01DD20D9F56091BB0117
:103A80007091BC0180E090E00E941B45A801970165
:103A90000E9482447B018C010E94EF44FE01E957A1
:103AA000FF4F608371838283938360817181828100
:103AB00093810E941B459B01AC01C801B7010E9484
:103AC0001944C557DF4F688379838A839B8320E03D
:103AD00030E040E85FE30E94CD4518160CF04DC081
:103AE00080E090E0A0E0B0E088839983AA83BB8364
:103AF00044C00E94EF445B016C0197E9892E912C30
:103B00008C0E9D1EF401A082B182C282D382CD555B
:103B1000DF4FC601B5010E941B459B01AC01C801E6
:103B2000B7010E941944288139814A815B810E9432
:103B30001A447B018C01688379838A839B8320E00C
:103B400030E040E85FE30E94CD458823B4F0C8012F
:103B5000B70120E030E040E85FE30E941944688349
:103B600079838A839B83D601C5010196A11DB11D6E
:103B7000F40180839183A283B383DF91CF911F915E
:103B80000F91FF90EF90DF90CF90BF90AF909F90FC
:103B90008F900895AF92BF92CF92DF92EF92FF92F3
:103BA0000F931F93CF93DF93EC017A018B01A880D1
:103BB000B980CA80DB80CB01BA01A60195010E94C1
:103BC0007E4488233CF4C801B701A60195010E94F8
:103BD000824429C0C801B701288939894A895B898B
:103BE0000E947E4418162CF0EC857D858E856F85AD
:103BF00028C0C801B701A60195010E941944288573
:103C000039854A855B850E9419442C813D814E810E
:103C10005F810E9482449B01AC0160E070E080E81B
:103C20009FE30E9419447B018C012C853D854E85C4
:103C30005F850E94D145A80197010E94D145E62FDA
:103C4000692F2E2F372F482F562FB901CA01DF9128
:103C5000CF911F910F91FF90EF90DF90CF90BF9089
:103C6000AF900895AF92BF92CF92DF92EF92FF9202
:103C70000F931F93CF93DF93EC017A018B01A88000
:103C8000B980CA80DB80CB01BA01A60195010E94F0
:103C90007E4488237CF4C801B701A60195010E94E7
:103CA00082449B01AC0160E070E080E89FE30E94E9
:103CB000194421C0C801B701288939894A895B891B
:103CC0000E947E4418162CF0EC857D858E856F85CC
:103CD0002AC0C801B701A60195010E941944288590
:103CE00039854A855B850E9419442C813D814E812E
:103CF0005F810E9482447B018C01AC84BD84CE84B0
:103D0000DF84C601B501A80197010E94D145A80131
:103D100097010E94D1459B01AC01C601B5010E94EB
:103D20001944E62F692F2E2F372F482F562FB90110
:103D3000CA01DF91CF911F910F91FF90EF90DF901B
:103D4000CF90BF90AF900895CF93DF93EB0120E029
:103D500030E040E050E42C8B3D8B4E8B5F8BFC01C0
:103D6000E854FF4FE081E53029F48AEF9FEFAFE39D
:103D7000B0E406C0E63041F485EF91E0A0ECBFE38B
:103D80008C8B9D8BAE8BBF8BDF91CF9108952F9243
:103D90003F924F925F926F927F928F929F92AF92DB
:103DA000BF92CF92DF92EF92FF920F931F93DF9318
:103DB000CF93CDB7DEB72A970FB6F894DEBF0FBE0C
:103DC000CDBFFC012F83388749875A8735014601CB
:103DD000ED56FF4F80819181A281B38189839A83BF
:103DE000AB83BC83E359F040662329F4DF019D9641
:103DF000BE83AD8311C0CF018B5B9F4F9E838D83AC
:103E0000E556FF4F80819181A281B38189839A8396
:103E1000AB83BC83EB59F040CF016D817E810E9462
:103E2000A41EC801B7010E941B455B016C01C401BF
:103E3000B3010E941B45A60195010E9482447B01AB
:103E40008C01AD81BE816D937D938D939C9313976F
:103E50006F8D78A189A19AA10E941B45A6019501A9
:103E60000E9482443B014C01ED81FE816483758395
:103E700086839783A80197010E941A449B01AC0195
:103E800060E070E080E89FE30E9419445B016C01F0
:103E9000AD81BE8118966D937D938D939C931B97F6
:103EA000C801B701A60195010E941A44ED81FE8167
:103EB000608B718B828B938B2488358846885788DA
:103EC000C801B701A20191010E948244A601950197
:103ED0000E941A447B018C01C401B301A20191012B
:103EE0000E9482449B01AC01C801B7010E941A44A0
:103EF0009B01AC016F81788589859A850E948244F7
:103F0000A60195010E94D1457B018C0169817A81CE
:103F10008B819C810E941B45A60195010E94D14581
:103F20009B01AC01C801B7010E948244AD81BE81F2
:103F30001C966D937D938D939C931F972A960FB635
:103F4000F894DEBF0FBECDBFCF91DF911F910F91CF
:103F5000FF90EF90DF90CF90BF90AF909F908F90A9
:103F60007F906F905F904F903F902F9008954F9269
:103F70005F926F927F928F929F92AF92BF92CF92F9
:103F8000DF92EF92FF920F931F93DF93CF93CDB702
:103F9000DEB74C012A013B01C801B70147E950E0F7
:103FA000840E951EF40110821182128213824CE05D
:103FB00050E0840E951E0F2EF0E0EF2EF0E0FF2E65
:103FC000F0E00F2FF0E01F2FF02DF401E082F182DE
:103FD0000283138348EF5FEF840E951EF401419234
:103FE0005192619271924F0110821182128213825A
:103FF00048E050E0840E951EF401208329E53FEF50
:10400000820E931E00D000D00DB71EB70F5F1F4F5A
:104010000E941B459B01AC018B899C89AD89BE899F
:10402000F80180839183A283B383C40161E083019B
:1040300072010E94C71E0F900F900F900F90CF91AA
:10404000DF911F910F91FF90EF90DF90CF90BF9085
:10405000AF909F908F907F906F905F904F9008955A
:10406000CF93DF93FC01EC01CA59DF4F888188238D
:10407000C1F0E559FF4F11921192119211921192D4
:1040800011921192119210821182128213823C9726
:1040900080E090E0A0E0B0E080839183A283B383CE
:1040A0001882DF91CF910895FC01EE59FF4F608394
:1040B000E256F04083A10E9418330895EF92FF92D8
:1040C0001F93CF93DF93EC01162F25E6E22EF12C00
:1040D000E80EF91EF7018081681759F08DA10E9442
:1040E0001833C15ADF4F81E08883F701108325968A
:1040F0001883DF91CF911F91FF90EF900895CF9398
:10410000DF93EC01CD59DF4F1882239681E088833D
:10411000C656D040CE010E948D1A882321F08BA173
:1041200061E00E941833FE01EC59FF4FCE0160811F
:104130000E945E20CE0161E00E946E1ADF91CF9155
:1041400008958F929F92AF92BF92CF92DF92EF929B
:10415000FF920F931F93CF93DF93EC01C958DF4F6A
:10416000E880F9800A811B81C757D040E114F1042F
:104170000105110509F491C0F3E78F2E912C8C0EE7
:104180009D1EF40120813181428153818091BB01C8
:104190009091BC01A0E0B0E0281739074A075B07FF
:1041A00008F47BC0BE0161577F4FFB018081918184
:1041B000A281B381CD56DF4FA880B980CA80DB8051
:1041C000C359D0408A159B05AC05BD05C1F5EFE686
:1041D000CE2ED12CCC0EDD1EF60180819181A281E4
:1041E000B3818E159F05A007B107B8F42150304068
:1041F00040405040F4012083318342835383019631
:10420000A11DB11DF60180839183A283B383CE01EA
:1042100061E070E00E94E41B16C1F6011082118279
:1042200012821382FB011082118212821382F40126
:104230001082118212821382C959DF4FB5C0FB016F
:1042400080819181A281B3810196A11DB11D8083DE
:104250009183A283B3836081718182819381C554EC
:10426000DF4F0E941B457B018C01C601B5010E94F6
:104270001B459B01AC01C801B7010E948244AB0100
:10428000BC01E881F981CB5BD04080E09E010995BB
:10429000F4011082118212821382FE01ED58FF4F49
:1042A00080819181A281B3810196A11DB11D80837E
:1042B0009183A283B38337E6C32ED12CCC0EDD1EAF
:1042C000F601E080F18002811381C801B70120E08E
:1042D00030E040E85FE30E94CD45882374F0C801D8
:1042E000B70120E030E040E85FE30E941944F601A6
:1042F000608371838283938368C0FE01E559FF4F19
:1043000080819181A281B3810196A11DB11D80831D
:104310009183A283B383C957DF4F288139814A81B2
:104320005B81C758D04082179307A407B50708F4EC
:104330004CC0CD57DF4F288139814A815B81C358FA
:10434000D040211531054105510569F0C158DF4FB5
:1043500088819981AA81BB81CF57D040821793076A
:10436000A407B507D0F4C958DF4F288139814A81A5
:104370005B81C757D040211531054105510599F1A1
:10438000C159DF4F88819981AA81BB81CF56D04026
:1043900082179307A407B50730F1C159DF4F188280
:1043A00019821A821B82289780E090E0A0E0B0E09A
:1043B00089939993A993B993188219821A821B82BF
:1043C000CB56D040CE010E947F2080E0DF91CF917C
:1043D0001F910F91FF90EF90DF90CF90BF90AF9023
:1043E0009F908F900895C559DF4F188219821A82C5
:1043F0001B82CB56D040FE01E159FF4F8081918155
:10440000A281B3810196A11DB11D80839183A283F6
:10441000B383CE0161E070E00E94E41B8E01095974
:104420001F4FC557DF4FF8016081718182819381F1
:10443000288139814A815B810E941A44F801608396
:1044400071838283938381E0C1CFDF92EF92FF92E9
:104450000F931F93CF93DF93EC01FC01EA54FF4FBE
:10446000D0806083643081F0653018F4623041F4AC
:1044700005C0683059F0603119F40BC061E001C02B
:1044800060E010E000E008C060E001C061E011E021
:10449000F9CF61E011E001E08FA10E94183389A5F6
:1044A000612F0E9418338BA5602F0E941833CA54C5
:1044B000DF4F6881C65BD040D61699F1CE54DF4FEE
:1044C0006D15C8F4E880F9800A811B818D2D90E07C
:1044D00070E00E9453469B01442737FD4095542FBE
:1044E000C801B7010E948946C901DA01888399830E
:1044F000AA83BB8316C0088119812A813B81862F3C
:1045000090E06D2D70E00E945346882777FD8095DE
:10451000982FA90198010E943446688379838A8381
:104520009B83DF91CF911F910F91FF90EF90DF90D0
:104530000895CF92DF92EF92FF921F93CF93DF9374
:10454000EC01162F69017A010E94691ACC59DF4FDC
:104550008883C456D040CE01612F0E945E20CE01D8
:104560000E94A71A8823D9F4C958DF4FC882D9827C
:10457000EA82FB82C757D040CE010E948D1A882361
:1045800051F08BA160E00E9418336AE070E080E097
:1045900090E00E94BD31CD59DF4F81E08883DF91EB
:1045A000CF911F91FF90EF90DF90CF9008953F92B1
:1045B0004F925F926F927F928F929F92AF92BF9233
:1045C000CF92DF92EF92FF920F931F93DF93CF93DF
:1045D000CDB7DEB72A970FB6F894DEBF0FBECDBFBA
:1045E0009A878987362E29013A010E94881A8823E2
:1045F00009F45FC089859A850E94C41A6115710506
:104600008105910509F497C189859A850E94821BCD
:104610007B018C0189859A850E94C41AE616F706EB
:104620000807190708F487C144C089859A850E9444
:10463000971A882309F485C189859A850E94A71A4B
:104640008823B1F429853A8529583F4FD9011D9215
:104650001D921D921C921397A757B040BA87A98745
:10466000CD01632D20E030E040E050E00E9499222F
:1046700089859A8563E045C189859A8568E873E1F3
:104680000E94D21A09851A85015A1F4FF8018081AC
:10469000882351F089859A850E94791A480E511C09
:1046A000611C711CD8011C924114510461047104F5
:1046B00021F489859A8561E024C1E985FA85E15470
:1046C000FF4F8081EF5BF040FA87E987882309F08C
:1046D000FFC0BF01635D7F4FCF010E94A41E89858B
:1046E0009A850E94021B8C0189859A850E94CC1AAA
:1046F000F82EE92EF0E24F16F3E05F06F0E06F06C9
:10470000F0E07F0628F020E030E048E453E40DC0FC
:10471000C301B201B2E09695879577956795BA95F2
:10472000D1F70E941B459B01AC01CA01B9010E944F
:104730001A4469837A838B839C83C301B2010E94EC
:104740001B456D837E838F8398878F2D9E2D9C01C3
:104750000217130708F49801B90180E090E00E9465
:104760001B457B018C0169817A818B819C81A80129
:1047700097010E94824420E030E04AE754E40E941E
:10478000D145E985FA85EF5BFF4F20813181428178
:1047900053810E94D1455B016C016D817E818F81C7
:1047A000988529813A814B815C810E941944A80136
:1047B00097010E94824420E030E04AE754E40E94DE
:1047C000D145A60195010E941A4420E030E040E85E
:1047D0005FE30E941A447B018C0120E030E048E452
:1047E00052E40E947E44882354F40F2EF0E0EF2E12
:1047F000F0E0FF2EF8E40F2FF2E41F2FF02DC80198
:10480000B7010E94EF447B018C01A3E98A2E912C11
:1048100029853A85820E931ED4016D937D938D93E5
:104820009C931397C601B50120E030E040E05FE3C0
:104830000E94D1450E94EF445B016C0100D000D082
:10484000EDB7FEB7618372838383948389859A85EC
:1048500060E02D813E814F8158850E94C71EE98509
:10486000FA85E157FF4F81E090E0A0E0B0E080835F
:104870009183A283B38360817181828193810F9040
:104880000F900F900F9029853A8525543F4F3A8716
:1048900029870E941B457B018C01D4016D917D917C
:1048A0008D919C910E941B459B01AC01C801B701F1
:1048B0000E948244AB01BC01A985BA85ED91FC91AF
:1048C0001197AB5BB040BA87A98780E09D0109953D
:1048D000E985FA85E958FF4FDF0140825182628203
:1048E0007382A85BBF4F1C92AF5BB040BA87A987A9
:1048F000CD01632DA30192010E94992289859A8599
:1049000062E00E946E1A2A960FB6F894DEBF0FBEC0
:10491000CDBFCF91DF911F910F91FF90EF90DF906E
:10492000CF90BF90AF909F908F907F906F905F904F
:104930004F903F900895411451046104710409F4AB
:1049400074CE89859A850E94021B8958934108F488
:1049500099CE92CECF93DF93EC010E94241C611577
:10496000710581059105D9F0CA59DF4F81E088832F
:10497000C45BDF4F288139814A815B81C25BD040B3
:1049800057FD02C060E008C05095409530952195D4
:104990003F4F4F4F5F4F61E0CE010E94D722DF9122
:1049A000CF910895FF920F931F938C010E94691A73
:1049B000F82EC8010E94B41A9B01AC01C8016F2DEA
:1049C0000E94D7221F910F91FF9008952F923F923E
:1049D0004F925F926F927F928F929F92AF92BF920F
:1049E000CF92DF92EF92FF920F931F93DF93CF93BB
:1049F00000D000D00F92CDB7DEB73C0169832A8387
:104A00003B834C835D83170128010E94881A882309
:104A1000A9F0C3010E94C41A6115710581059105B1
:104A200091F0C3010E94821B7B018C01C3010E9493
:104A3000C41AE616F7060807190728F0C30161E053
:104A40000E946E1A6FC013E9812E912C860C971C60
:104A5000D4012D923D924D925C92139700D000D0DC
:104A60000DB71EB70F5F1F4F6A817B818C819D81BF
:104A70000E941B459B01AC018A8D9B8DAC8DBD8D29
:104A8000F80180839183A283B383C30160E0820134
:104A900071010E94C71EF301E157FF4F81E090E0D2
:104AA000A0E0B0E080839183A283B38360817181B1
:104AB000828193810F900F900F900F902BEB30E03D
:104AC000620E731E0E941B457B018C01D4016D9107
:104AD0007D918D919C910E941B459B01AC01C80169
:104AE000B7010E948244AB01BC01D301ED91FC915E
:104AF00025E43FEF620E731E80E0930109958FEB72
:104B000090E0680E791E81E0D3018C93E1E4FFEF21
:104B10006E0E7F1EC30169812A813B814C815D81BC
:104B20000E94D7220F900F900F900F900F90CF916F
:104B3000DF911F910F91FF90EF90DF90CF90BF908A
:104B4000AF909F908F907F906F905F904F903F902D
:104B50002F900895CF92DF92EF92FF920F931F93C1
:104B6000CF93DF93EC010E94881A882379F00FE934
:104B7000C02ED12CCC0EDD1EF601608171818281A8
:104B80009381611571058105910579F4CE0161E08C
:104B90000E946E1A43C00197A109B109C156DF4FA7
:104BA00088839983AA83BB8339C00E941B457B01FC
:104BB0008C01C556DF4F688179818A819B810E9473
:104BC0001B459B01AC01C801B7010E948244AB01A7
:104BD000BC01A096E881F981CB5BD04081E09E01C9
:104BE0000995C955DF4F688181E068276097288162
:104BF00039814A815B81C759D040CE010E94D722BA
:104C0000F60180819181A281B3810097A105B10550
:104C100011F680E090E0A0E0B0E0C0CFDF91CF914E
:104C20001F910F91FF90EF90DF90CF900895AF927A
:104C3000BF92CF92DF92EF92FF920F931F93CF9389
:104C4000DF93EC010E94881A882349F1CE010E946B
:104C5000C41A611571058105910569F0CE010E94A4
:104C6000821B7B018C01CE010E94C41AE616F70656
:104C700008071907A0F4FE01E156FF4F608171811A
:104C800082819381C556DF4FA880B980CA80DB80BE
:104C9000CB59D0406A157B058C059D0528F0CE01C7
:104CA00061E00E946E1A2FC06F5F7F4F8F4F9F4F42
:104CB0006083718382839383C554DF4F0E941B45B9
:104CC0007B018C01C601B5010E941B459B01AC0113
:104CD000C801B7010E948244AB01BC01E881F9819F
:104CE000CB5BD04081E09E010995C956DF4F2881FA
:104CF00039814A815B81C759D040CE01C955DF4F08
:104D000068810E94D722DF91CF911F910F91FF9070
:104D1000EF90DF90CF90BF90AF9008952F923F9289
:104D20004F925F926F927F928F929F92AF92BF92BB
:104D3000CF92DF92EF92FF920F931F93DF93CF9367
:104D4000CDB7DEB73C01862FE7E7F0E06E0E7F1EA1
:104D5000F3011082118212821382E7E3F0E06E0EFB
:104D60007F1E0F2EF0E02F2EF0E03F2EF8EC4F2E9E
:104D7000F2E45F2EF02DF3012082318242825382D1
:104D8000E1EDFFEF6E0E7F1EF301108211821282A1
:104D90001382E9E2F0E06E0E7F1EF30110821182B1
:104DA00012821382EBEDFFEF6E0E7F1EF301108275
:104DB000118212821382ECE0F0E06E0E7F1EF3018E
:104DC00011921192119211923F011082118212825E
:104DD0001382E4EFFFEF6E0E7F1EF301119211922A
:104DE000119211923F010F2EF0E02F2EF0E03F2E96
:104DF000F0E04F2EF0E05F2EF02D208231824282D3
:104E00005382E7E2F0E06E0E7F1EF3011082118202
:104E100012821382E5EEFFEF6E0E7F1EF301108209
:104E2000118212821382ECE0F0E06E0E7F1EF3011D
:104E30002082318242825382E8EFFFEF6E0E7F1EA6
:104E4000F30111921192119211923F01108211827D
:104E500012821382E8E0F0E06E0E7F1EF3011082F2
:104E6000EDEBFFEF6E0E7F1EF30111923F011082FA
:104E7000EAEFFFEF6E0E7F1EF30111921192119275
:104E800011923F011082E3E5F0E06E0E7F1E61E0BB
:104E9000F301619311923F0194E09083E8E4FFEF06
:104EA0006E0E7F1EF30125A636A647A650AA21AA9C
:104EB00032AA43AA54AA25AA36AA47AA50AE21AEBE
:104EC00032AE43AE54AEEDE3F0E06E0E7F1EF30162
:104ED000219231924192519221923192419251927A
:104EE000219231924192519221923192419251926A
:104EF000219231924192519221923192419251925A
:104F000021923192419251923F012082318242821C
:104F10005382EDE0F0E06E0E7F1EF3016083EAE95C
:104F2000FFEF6E0E7F1EF30181A372A334A323A3B0
:104F300056A345A310A707A3F2A6E1A6D4A6C3A62D
:104F4000B582A48297828682158616861786108A75
:104F5000118A128A138A148A158A168A178A108E61
:104F6000118E128E138E148E158E168E178E10A221
:104F7000108211821282138210860E949532F301F0
:104F800083A161E00E949532F30185A161E00E9456
:104F90009532F30187A161E00E949532F30181A56A
:104FA00061E00E949532F30183A561E00E94953291
:104FB0008FEB90E0680E791EF30110828EE99FEF6F
:104FC000680E791E88EE93E0F301918380838EE56D
:104FD00090E0680E791E8EE29CE1F301819391933B
:104FE0008AEC9DE191838083CF91DF911F910F9196
:104FF000FF90EF90DF90CF90BF90AF909F908F90F9
:105000007F906F905F904F903F902F900895FC019C
:1050100060830895DC01EC9111968C911197E8174B
:1050200060F4F0E03196EE0FFF1FEA0FFB1F0190D6
:10503000F081E02D309709F009950895DC01119673
:105040008C911197681748F4E62FF0E03196EE0F37
:10505000FF1FEA0FFB1F518340830895CF93DF9317
:10506000DC010296FC0180E2EF0119928A95E9F7D2
:105070001C92613108F060E111966C93DF91CF9141
:105080000895809176060895709378066093770668
:105090000895FC01718760870895FC01448355835E
:1050A000668377830895FC01738762870895FC0106
:1050B000828593850895FC01808591850895FC0182
:1050C00064817581868197810895FC0164870895C4
:1050D000FC01848508956115710549F4E091770616
:1050E000F09178063097C9F086E00995089583E03D
:1050F0008093790680E090E049E159E20E946215D0
:105100000E94AA1581E080937606E0917706F091DF
:105110007806309711F085E009950895FC016285C5
:1051200073850E946B280895CF93DF93EB0161157F
:10513000710541F4E0917706F0917806309719F106
:1051400084E020C08091BF0161E00E94183380910B
:10515000C00161E00E94183382E080937906BE01AD
:1051600080E090E049E159E20E9462150E94AA1590
:1051700081E080937606E0917706F091780630978B
:1051800011F083E00995DF91CF910895FC016085CE
:1051900071850E9494280895EF92FF920F931F93B8
:1051A000FC017A018B01411551056105710541F43E
:1051B000E0917706F0917806309771F182E02BC08C
:1051C00081E0809379068485882351F08091BF0126
:1051D00061E00E9418338091C00161E00E941833A1
:1051E0008091BD0161E00E9418338091BE0161E0B1
:1051F0000E941833C801B70149E159E20E946215C3
:105200000E94AA1581E080937606E0917706F091DE
:105210007806309709F009951F910F91FF90EF9054
:105220000895FC0144815581668177810E94CC28D4
:1052300008950E94C015809179068130B1F4809163
:10524000BD0160E00E9418338091BE0160E00E94C1
:1052500018338091BF0160E00E9418338091C00133
:1052600060E00E94183382E00FC0823011F086E0C7
:105270000BC08091BF0160E00E9418338091C00193
:1052800060E00E94183384E010927906109276064E
:10529000E0917706F0917806309709F00995089526
:1052A0000F931F938C018091BD0161E00E949532A4
:1052B0008091BE0161E00E9495328091BF0161E062
:1052C0000E9495328091C00161E00E949532F80100
:1052D0001082118212821382148681E090E0A0E095
:1052E000B0E0818B928BA38BB48B168A15861686C1
:1052F0001786108A158A84E690E0A0E0B0E08483E7
:105300009583A683B78311861086138612861F9114
:105310000F9108950E9450290895FC01EB5AFF4F08
:1053200060830895FC01DC01A05BBF4F6C93119674
:105330007C930280F381E02D309711F0862F099540
:105340000895FC017383628308959C012A5F3F4F97
:10535000C9010895FC01EE5AFF4F80810895FB01B9
:105360008181308120E0280F311DC9010895FB01A2
:10537000818190E0A0E0B0E0DC01992788272281BC
:1053800030E040E050E0542F432F322F222763813A
:10539000260F311D411D511D282B392B4A2B5B2B0C
:1053A000B901CA010895DF93CF9300D000D0CDB7E3
:1053B000DEB7FB012181808190E0A0E0B0E0BA2F50
:1053C000A92F982F8827820F911DA11DB11DDC01E7
:1053D00099278827228130E040E050E0542F432F66
:1053E000322F22276381260F311D411D511D282B8D
:1053F000392B4A2B5B2B29833A834B835C83E22F27
:10540000FA81AB81BC81BF01CD010F900F900F904D
:105410000F90CF91DF910895FC01ED5AFF4F8081ED
:105420000895FC01EC5AFF4F80810895FC01EB5A6E
:10543000FF4F8081E555F040882369F45C9A048031
:10544000F581E02DA081B1812D913C91CF01F90131
:1054500009955C9808950480F581E02DA081B181C3
:105460002D913C91CF01F90109950895EF92FF929A
:105470000F931F93CF93DF93EC01062FF42EE22EB0
:10548000FC01ED5AFF4F613011F4608301C01082BE
:1054900010E0CE0160E00E94162A1F5F1530C9F7A8
:1054A000CE016FEF0E94162ACE01602F0E94162AAD
:1054B000CE0160E00E94162ACE016F2D0E94162AAE
:1054C000CE016E2D0E94162ADF91CF911F910F9170
:1054D000FF90EF900895DF92EF92FF920F931F934A
:1054E000CF93DF93EC01F62EE42ED22EFC01ED5A81
:1054F000FF4F81E0681711F4608301C0108210E053
:10550000CE0160E00E94162A1F5F1530C9F7CE0158
:105510006FEF0E94162ACE016F2D0E94162ACE012F
:105520006E2D0E94162ACE016D2D0E94162ACE01E4
:10553000602F0E94162ADF91CF911F910F91FF904B
:10554000EF90DF900895FF920F931F938C01F62E3A
:10555000672F0E94162AC8016F2D0E94162A1F91DC
:105560000F91FF900895EF92FF920F931F938C017C
:105570007B01672F770F770B0E94162AC8016E2DCB
:105580000E94162A1F910F91FF90EF900895CF92DD
:10559000DF92EF92FF920F931F936C017A018B01C0
:1055A000212F332744275527622F0E94162A98015E
:1055B00044275527C601622F0E94162A5527412FDE
:1055C000302F2F2DC601622F0E94162AC6016E2D84
:1055D0000E94162A1F910F91FF90EF90DF90CF90BD
:1055E0000895CF92DF92EF92FF920F931F936C0179
:1055F0007A018B01272F552727FD5095352F452FF1
:10560000622F0E94162A9801552737FD5095452F85
:10561000C601622F0E94162A552717FD5A95412F61
:10562000302F2F2DC601622F0E94162AC6016E2D23
:105630000E94162A1F910F91FF90EF90DF90CF905C
:105640000895FC01DC01969690E0953021F08C9154
:10565000882321F01BC083A58F3FC1F49F5F119663
:10566000963099F724A5208385A58183213011F4F4
:1056700085E0089530E0E05BFF4F8081918128173D
:10568000390711F481E0089584E0089583E00895D6
:10569000CF93DF93EC010BC0EC81FD81A081B18140
:1056A0001A962D913C911B97CF01F9010995EC8138
:1056B000FD81A081B18114962D913C911597CF0168
:1056C000F9010995181619063CF3DF91CF91089559
:1056D000CF92DF92EF92FF920F931F93CF93DF93BE
:1056E000EC016B01EC81FD81A081B18114962D91BB
:1056F0003C911597CF01F90109951816190604F187
:105700000E9489317B018C010DC00E9489316E1984
:105710007F09800B910B653671058105910510F0AD
:1057200082E01CC0EC81FD81A081B18114962D9195
:105730003C911597CF01F9010995181619062CF718
:10574000EC81FD81A081B18116962D913C91179736
:10575000CF01F9010995F601808381E0DF91CF91B6
:105760001F910F91FF90EF90DF90CF900895CF920F
:10577000DF92EF92FF920F931F93CF93DF93EC0191
:10578000CD5ADF4F19921882C455D040EC81FD816B
:10579000A081B18114962D913C911597CF01F9010B
:1057A000099518161906BCF4CE018696FC018AE20A
:1057B000DF011D928A95E9F700E010E0B8016A5D0B
:1057C0007F4F6C0F7D1FCE010E94682B813029F026
:1057D000CE010E94482B40E059C00F5F1F4F0A3096
:1057E000110561F78FA51AE0C82EDD24B9E0EB2E74
:1057F000F12CEC0CFD1C0AC06A5D7F4F6C0F7D1F05
:10580000CE010E94682B813019F71F5F612F70E075
:10581000E616F7068CF7CE010E94212B982F8250B6
:105820008230B0F2953039F4CD5ADF4F81E0888371
:10583000C355D04008C0913031F0CC5ADF4F81E0E1
:105840008883C455D040CE010E94482B4EA5CE017E
:105850000696FC0180E2DF011D928A95E9F7FE01C0
:10586000EE5AFF4F1082DE0120E030E00BC09F9621
:105870008C919F9715968C93159780818F5F80836D
:105880002F5F3F4F11962C153D058CF3842FDF9130
:10589000CF911F910F91FF90EF90DF90CF900895DF
:1058A000FC0175836483E05BFF4F41935193108249
:1058B000E255F040138212828CE161E00E94953241
:1058C0008CE160E00E9418330895FC01EA5AFF4F12
:1058D000718360830895FC01E65AFF4F71836083F2
:1058E0000895FC01E85AFF4F718360830895FC011D
:1058F000E25AFF4F808191810895CF92DF92EF921B
:10590000FF920F931F93CF93DF936C01102F0E9490
:105910006B2AC0E0D0E0012F10E008C0F701EC0FC7
:10592000FD1FC60160810E94162A2196C017D1076B
:10593000ACF3DF91CF911F910F91FF90EF90DF902B
:10594000CF900895CF92DF92EF92FF920F931F9323
:10595000CF93DF938C01762F6A0179012F5F60E08E
:10596000472F0E94362AC80166E00E94162AC0E02E
:10597000D0E008C0F601EC0FFD1FC80160810E9455
:10598000162A2196CE15DF05ACF3DF91CF911F913A
:105990000F91FF90EF90DF90CF900895FF920F93BB
:1059A0001F93182F092F262FF42E60E0422F22E09C
:1059B0000E94362A812F902F60E00E94162A812FA4
:1059C000902F6F2D0E94162A1F910F91FF9008951E
:1059D000462F60E020E00E94362A0895CF92DF92A1
:1059E000EF92FF920F931F93D82EC92E762F790135
:1059F0008A0160E0472F25E00E94362A8D2D9C2DDC
:105A000065E00E94162AC801B7010E94EF44AB016D
:105A1000BC018D2D9C2D0E94C72A1F910F91FF90D4
:105A2000EF90DF90CF900895CF92DF92EF92FF92A8
:105A30000F931F93D82EC92E762F79018A0160E02B
:105A4000472F25E00E94362A8D2D9C2D64E00E9470
:105A5000162A8D2D9C2DB801A7010E94C72A1F91DF
:105A60000F91FF90EF90DF90CF900895CF92DF924B
:105A7000EF92FF920F931F93D82EC92E762F7901A4
:105A80008A0160E0472F25E00E94362A8D2D9C2D4B
:105A900063E00E94162A8D2D9C2DB801A7010E945B
:105AA000F12A1F910F91FF90EF90DF90CF90089512
:105AB000EF92FF920F931F93182F092F262F7A0131
:105AC00060E0422F23E00E94362A812F902F62E06F
:105AD0000E94162A812F902FB7010E94B32A1F918E
