:100000000C941A010C942F2B0C94602B0C94912BB4
:100010000C94C22B0C94F32B0C94242C0C94552C84
:100020000C94862C0C9445010C94B83A0C94450120
:100030000C9445010C9445010C9445010C946A11F3
:100040000C9445010C9445010C9445010C94450118
:100050000C9498110C9445010C9445010C94B72C08
:100060000C9445010C94C22E0C94BB300C944501A9
:100070000C9445010C9445010C9445010C944E13CD
:100080000C94BB120C9401140C9445010C94450182
:100090000C9445010C944501000021002400270028
:1000A0002A002D00300000002200250028002B002F
:1000B0002E003100000020002300260029002C0023
:1000C0002F000101010101010101020202020202ED
:1000D00002020303030303030303040404040404EC
:1000E00004040505050505050505060606060606BC
:1000F00006060102040810204080010204081020B6
:1001000040800102040810204080010204081020F1
:1001100040800102040810204080010204081020E1
:100120004080000000000000000000000000070305
:100130000401000000000B0A090002080000000092
:1001400000000000000000000000000000000000AF
:10015000000000010203040506071201100102005D
:100160000008EB03442001000102030109023E00E4
:10017000020100C03209040000010202010005244E
:10018000001001042402060524060001070582036D
:100190000800FF09040100020A000000070504022C
:1001A00010000507058302100005040309042E034F
:1001B000440079006E0061006D006900630020005A
:1001C00050006500720063006500700074006900F3
:1001D0006F006E0020004C004C00430000003C0308
:1001E000440079006E0061006D006900630020002A
:1001F00050006500720063006500700074006900C3
:100200006F006E00200043004400430020005300B4
:1002100065007200690061006C0000000E03300090
:100220003000340035003700330000000B02763018
:100230009F33040211241FBECFEFD0E2DEBFCDBF3B
:1002400011E0A0E0B1E0E8E9F3E800E00BBF02C094
:1002500007900D92AA3EB107D9F71BBE17E0AAEE90
:10026000B1E001C01D92A230B107E1F712E0C2E394
:10027000D2E004C02297FE010E94BB41CC32D107DC
:10028000C9F70E9491310C94BF410C940000E09199
:100290004605F0914705309709F0099508958F922A
:1002A0009F92AF92BF92CF92DF92EF92FF920F9305
:1002B0001F938130910509F083C06F5F7F4F09F074
:1002C00098C08CEF91E00E940025A1B283E192E0FA
:1002D0006DE270E040E150E020E230E001E110E04A
:1002E000E2E1EE2EF12CB3E1CB2ED12CBB24A5E024
:1002F0008A2E912C0E940422A1B283ED92E06EE23C
:1003000070E045E150E024E130E00DE110E0FEE175
:10031000EF2EF12CEFE1CE2ED12CB6E08B2E912CCE
:100320000E940422A1B283E993E06FE270E042E20E
:1003300050E021E230E00FE010E0ABE2EA2EF12CD9
:10034000FCE2CF2ED12CE7E08E2E912C0E940422CD
:100350004091650183E594E06CEB76E050E025E0A8
:1003600030E00FE911E00E94B82983EB94E00E948D
:10037000051584EB94E066E00E94A4231092D90452
:100380001092D80488EE93E0A0E0B0E08093DA0405
:100390009093DB04A093DC04B093DD048CEA91E03D
:1003A0009093D7048093D6044091650182EE94E047
:1003B00066ED74E050E025E030E00E94B82919C0F5
:1003C000892BB9F46F5F7F4FA1F48CEA91E0909391
:1003D000D7048093D6040E948B1483E993E00E9493
:1003E000621583ED92E00E94621583E192E00E9423
:1003F00062151F910F91FF90EF90DF90CF90BF900B
:10040000AF909F908F90089580E090E06FEF7FEF26
:100410000E944F01089581E090E06FEF7FEF0E940E
:100420004F010895A82FFB019A0180917701823036
:1004300019F482EE94E002C083E594E06A2FAF01E4
:100440000E9418280895E82F9A01AB018091770146
:10045000823019F482EE94E002C083E594E06E2FBE
:100460000E9464280895E82F9A01AB0180917701DA
:10047000823019F482EE94E002C083E594E06E2F9E
:100480000E94AC280895E82F9A01AB018091770172
:10049000823019F482EE94E002C083E594E06E2F7E
:1004A0000E948A280895282FAB018091770182301D
:1004B00019F482EE94E002C083E594E0622F0E947A
:1004C000CE280895282FAB0180917701823019F44E
:1004D00082EE94E002C083E594E0622F0E94EA2855
:1004E0000895282F462F80917701823019F482EEEB
:1004F00094E002C083E594E0622F0E9444280895AE
:10050000682F80917701823019F482EE94E002C066
:1005100083E594E00E945E2808953F924F925F9297
:100520006F927F928F929F92AF92BF92CF92DF9203
:10053000EF92FF920F931F93DF93CF9300D000D0E1
:1005400000D0CDB7DEB7182F7B01FB0130800181D1
:1005500023E030E0E20EF31E83E594E0B7010E9451
:100560002D2569837A838B839C8345E050E0E40EDC
:10057000F51E83E594E0B7010E942D252B013C0177
:1005800085E090E0E80EF91E83E594E0B7010E9453
:100590002D254B015C01E5E0F0E0EE0EFF1E83E54A
:1005A00094E0B7010E942D256B017C01212F30E0E2
:1005B000002309F44AC0A901415050405E834D8395
:1005C00000D000D0EDB7FEB7319680EC90E09A01F4
:1005D000289FA001299F500D389F500D11244D5E7A
:1005E0005D4F20E0311021E0C082D182E282F382AF
:1005F000CA01B301A201E980FA800B811C81650167
:1006000054010E94511BED81FE81EE0FFF1F4D81B1
:100610005E81E40FF51F86E0EE0FFF1F8A95E1F77C
:10062000ED5CFD4F81E0808380EC90E0489FF0011D
:10063000499FF00D589FF00D1124ED5EFD4F168E71
:100640000F900F900F900F903DC02150304080ECE4
:1006500090E0289FD001299FB00D389FB00D112444
:10066000AD5EBD4F81E05E968C935E97F901EE0F13
:10067000FF1FE20FF31F16E0EE0FFF1F1A95E1F7C1
:10068000ED5CFD4F108251963C92519756968D929B
:100690009D92AD92BC9259975A96CD92DD92ED9271
:1006A000FC925D9752964D925D926D927C92559719
:1006B00029813A814B815C811D962D933D934D9309
:1006C0005C93509726960FB6F894DEBF0FBECDBF51
:1006D000CF91DF911F910F91FF90EF90DF90CF901E
:1006E000BF90AF909F908F907F906F905F904F9052
:1006F0003F9008954F925F926F927F928F929F9258
:10070000AF92BF92CF92DF92EF92FF920F931F931F
:10071000DF93CF9300D000D0CDB7DEB7E82E8B01AA
:10072000FB01D19083E594E0BF010E942D256983F0
:100730007A838B839C830A5F1F4F83E594E0B80123
:100740000E942D252B013C010B5F1F4F83E594E098
:10075000B8010E942D254B015C010B5F1F4F83E503
:1007600094E0B8010E942D25AB01BC0100D000D05F
:10077000ADB7BEB71196FF240894E108F10880ECEC
:1007800090E0E89E9001E99E300DF89E300D112416
:100790002D5E3D4FE0E0D110E1E04D935D936D9310
:1007A0007C931397C9016E2F29813A814B815C811B
:1007B00083017201650154010E945C200F900F902B
:1007C0000F900F900F900F900F900F90CF91DF919F
:1007D0001F910F91FF90EF90DF90CF90BF90AF905F
:1007E0009F908F907F906F905F904F900895FA0147
:1007F0006A3009F495C06B30D8F4653009F45AC0FA
:10080000663048F46330E9F1643008F047C0623084
:1008100009F0D5C02FC0673009F467C0673008F40D
:1008200054C0683009F46CC0693009F0C8C071C0A8
:10083000683609F496C0693680F4653609F482C0DA
:10084000663620F4643609F0BAC078C0663609F41A
:100850007CC0673609F0B3C07FC06A3609F493C024
:100860006A3608F487C06B3609F496C06C3609F016
:10087000A6C099C090E08081811191E0909312020E
:100880000BC083E594E0BA010E942D25AB01BC01A9
:100890008CEF91E00E94422481E092C083E594E0D5
:1008A000BA010E942D25AB01BC018CEF91E00E94A2
:1008B000C323F2CF83E594E0BA010E942525BC0151
:1008C0008CEF91E00E94BF23E7CF83E594E0BA016B
:1008D0000E942525A0E0B0E08093090290930A02CF
:1008E000A0930B02B0930C02D7CF83E594E0BA013A
:1008F0000E942525BC018CEF91E00E94C923CCCF3A
:1009000060E08081811161E08CEF91E00E94DB2347
:10091000089590E08081811191E090931102BCCF05
:1009200083E594E0BA010E942D2560930D02709337
:100930000E0280930F0290931002AECF81E060917F
:10094000120227C00E94B72322C08CEF91E00E94C0
:10095000D523AB01BC012FC08CEF91E00E94D123C5
:100960000DC04091090250910A0260910B027091F2
:100970000C0221C08CEF91E00E94CD23BC0181E0EC
:100980000E94620208958CEF91E00E94DE23682F9E
:1009900081E00E94710208956091110281E070E08F
:1009A0000E945302089540910D0250910E026091F1
:1009B0000F027091100281E00E944302089580E0CE
:1009C0000E94800208959C01C397C197E0F483E1DF
:1009D00092E060E021E030E040E050E00E944D1EF7
:1009E00083ED92E060E021E030E040E050E00E94E2
:1009F0004D1E83E993E060E021E030E040E050E00C
:100A00000E944D1E089525363105D8F083E192E00D
:100A100061E021E030E040E050E00E944D1E83EDB7
:100A200092E061E021E030E040E050E00E944D1EA5
:100A300083E993E061E021E030E040E050E00E9493
:100A40004D1E089541E00E94402A0895809365015B
:100A500080E090E065E671E00E9422050895EF9243
:100A6000FF920F931F93382F562F742FE22F780188
:100A700083E594E0632F452F272F0E2F0E94F32745
:100A80001F910F91FF90EF900895EF92FF920F93B7
:100A90001F93382F562F742FE22F780182EE94E0A7
:100AA000632F452F272F0E2F0E94F3271F910F91A1
:100AB000FF90EF90089580911102882331F080918A
:100AC0004905882331F01092490584EB94E062E0F7
:100AD00006C081E08093490584EB94E064E00E94C5
:100AE0007D230895843021F484EB94E064E00EC00B
:100AF000823079F48091F6019091F70101969093FC
:100B0000F7018093F60184EB94E065E00E947D2379
:100B10000895863011F40E945B0508958091EA01E2
:100B20008823D9F482E00E94470183E192E00E9489
:100B3000FC15AC0160E070E087E595E00E9437129B
:100B400087E595E063EB76E02FEF3FEF4FEF5FEF48
:100B50000E944E1281E08093EA0108952F923F9205
:100B60005F926F927F928F929F92AF92BF92CF923D
:100B7000DF92EF92FF920F931F93DF93CF9300D0FA
:100B800000D0CDB7DEB78EED96E060E071E00E9458
:100B90006E3383EB94E00E94AA14582E83E192E016
:100BA0000E948715882309F0A8C083ED92E00E9477
:100BB0008715882309F0A1C083E993E00E94871577
:100BC000882309F09AC084EB94E0652D0E947D2370
:100BD0009EC0629CC001639C900D729C900D11247C
:100BE0008D5E9D4F9C838B830E948715882309F41B
:100BF00075C08B819C810E9496158823A9F08B81FA
:100C00009C810E94A615882309F05BC08B819C8182
:100C10000E946815682F8B819C8120E030E040E0C5
:100C200050E00E944D1E4DC0D40153968C918130EE
:100C300029F48B819C810E948D214BC0F401918904
:100C40009130B1F582898823E1F5928B00D000D0F4
:100C50008DB79EB701969A83898360E08481811164
:100C600061E0D4012D913D914D915C9113971596C2
:100C7000ED90FD900D911C9118971996AD90BD9037
:100C8000CD90DC901C971D968D919D910D90BC91FF
:100C9000A02DE981FA8180839183A283B3838B8124
:100CA0009C810E945C200F900F900F900F9009C0C4
:100CB0008B819C810E94B315611571058105910599
:100CC00021F484EB94E0652D07C08B819C810E9408
:100CD000482084EB94E063E00E947D230894611C2B
:100CE000711C80EC90E0880E991E93E069167104E7
:100CF00009F06FCF0E948E050AC030E2832E32E0E9
:100D0000932E6624772420EC222E312C62CF0F9074
:100D10000F900F900F90CF91DF911F910F91FF9047
:100D2000EF90DF90CF90BF90AF909F908F907F908B
:100D30006F905F903F902F90089583E192E00E9422
:100D4000F51B83ED92E00E94F51B83E993E00E947E
:100D5000F51B1092EA0181E00E94470187E595E0CA
:100D60000E943F120895AF92BF92CF92DF92EF920E
:100D7000FF920F931F93CF93DF9381B39091480518
:100D8000892B81BB81E090E00E948C2D91B38091F2
:100D900048058095892381BB1092480569E1E62EBC
:100DA00062E0F62E00E010E050ECA52EB12C41E000
:100DB000C42ED12C0A9DE0010B9DD00D1A9DD00DA3
:100DC0001124CD5EDD4FCE010E94A6158823A9F027
:100DD000CE010E94C619CE010E94171C882369F01B
:100DE0009601F701008002C0220F331F0A94E2F738
:100DF00080914805822B809348050F5F1F4F80EC40
:100E000090E0E80EF91E03301105A1F683E192E0AF
:100E10000E94A615882371F483ED92E00E94A61526
:100E2000882341F483E993E00E94A615882311F4F6
:100E30000E949D06DF91CF911F910F91FF90EF903F
:100E4000DF90CF90BF90AF900895CF93DF93EC01E8
:100E500087E2C031D80791F083E1C838D80771F034
:100E60008FE0C03AD80751F087E0C03DD80731F095
:100E700083E0C83ED80711F080E010C083E192E023
:100E8000BE010E94D11583ED92E0BE010E94D115F2
:100E900083E993E0BE010E94D11581E0DF91CF91FB
:100EA000089541E00E94E529089580E090E065E61C
:100EB00071E00E94510782E090E067E671E040E156
:100EC0000E94E529089582E090E00E946F2A80E068
:100ED00090E065E671E00E94220582E090E067E61E
:100EE00071E040E10E94402A08950E942B2A882345
:100EF00039F00E94112A029719F40E9455070895AB
:100F00000E94630708958CE060E00E948E2E089591
:100F10008CE061E00E948E2E08950E94FF2C609369
:100F2000EF017093F0018093F1019093F20181E061
:100F30008093F3018091F401813031F48CE060E022
:100F40000E948E2E1092F40183EB94E00E94AA146A
:100F5000882329F084EB94E061E00E947D230895CA
:100F60006F927F928F929F92AF92BF92CF92DF92B9
:100F7000EF92FF920F931F93CF93DF93E82EEA0136
:100F8000623109F4F3C16331A0F5693009F42CC171
:100F90006A30B0F4653009F4AEC0663050F46330A6
:100FA00009F47AC0643008F08DC0623009F001C4E1
:100FB0005EC0673009F4C2C0683008F0D8C0ACC069
:100FC0006D3009F46EC16E3038F46B3009F441C1F4
:100FD0006C3008F060C121C16F3009F488C16F30F6
:100FE00008F463C1603109F494C1613109F0E1C3CF
:100FF000A5C1683609F431C36936F0F4663109F4E5
:101000002BC2673148F4643109F4D2C1282F30E093
:10101000653108F0EBC1BBC1653609F4EBC2663639
:1010200020F4643609F0C5C3D4C2663609F4F3C2AD
:10103000673609F0BEC300C36C3609F453C36D367E
:1010400048F46A3609F42BC3282F30E06B3608F0D9
:1010500037C314C36E3609F471C36E3608F458C32F
:101060006F3609F47EC3603709F0A3C38DC390E0E7
:10107000019720EC30E0829FD001839FB00D929FBA
:10108000B00D1124AD5EBD4F60E08881811161E03B
:10109000CD010E94821514C090E0019720EC30E051
:1010A000829FD001839FB00D929FB00D1124AD5E41
:1010B000BD4F60E08881811161E0CD010E94D41BA9
:1010C00081E078C383E594E0BA010E942D25AB014D
:1010D000BC018E2D90E0019720EC30E0FC01E29FF6
:1010E000C001E39F900DF29F900D11248D5E9D4FE6
:1010F0000E94BB15E5CF90E0019720EC30E0AC01F9
:10110000429FC001439F900D529F900D11248D5E10
:101110009D4F0E941B17D4CF90E0019720EC30E048
:10112000BC01629FC001639F900D729F900D1124BE
:101130008D5E9D4F68810E947D15C2CF83E594E04E
:10114000BA010E944925AB01BC018E2D90E00197A8
:1011500020EC30E0FC01E29FC001E39F900DF29F84
:10116000900D11248D5E9D4F0E942616A9CF4881B7
:10117000413081F490E0019720EC30E0AC01429FD7
:10118000C001439F900D529F900D11248D5E9D4F85
:1011900064E011C0423091F490E0019720EC30E01F
:1011A000BC01629FC001639F900D729F900D11243E
:1011B0008D5E9D4F65E00E948B1682CF433081F497
:1011C00090E0019720EC30E0FC01E29FC001E39F3A
:1011D000900DF29F900D11248D5E9D4F66E0EBCF38
:1011E00080E00E9480026CCF83E594E0BA010E9407
:1011F0002D252E2D30E02150304040EC50E0249F32
:10120000F001259FF00D349FF00D1124ED5EFD4F90
:10121000608371838283938353CF83E594E0BA0123
:101220000E9425252E2D30E02150304040EC50E02A
:10123000B901649F9001659F300D749F300D11249A
:10124000AC0160E070E0C9018D5E9D4F0E94AB155E
:1012500037CFFA01119183E594E0BF010E942D255B
:10126000AB01BC018E2D90E0019720EC30E0829F15
:10127000F001839FF00D929FF00D1124ED5EFD4F64
:10128000A0E01111A1E09A0140E050E0CF016A2FE7
:101290000E944D1E03C0BA010E947A030E948E056F
:1012A0000FCFBA010E948D020BCFFF240894E108F2
:1012B000F10880EC90E0E89E8001E99E100DF89E18
:1012C000100D11240D5E1D4FC8010E94C416F801B7
:1012D000168EF701EE0FFF1FEE0DFF1D66E0EE0FFD
:1012E000FF1F6A95E1F7ED5CFD4F1082E9CE90E0BB
:1012F000019720EC30E0AC01429FC001439F900D6C
:10130000529F900D11248D5E9D4F68810E949B1D00
:10131000D7CE90E0019720EC30E0829FD001839FF0
:10132000B00D929FB00D1124AD5EBD4F60E088817D
:10133000811161E0CD010E94CA1BC2CE83E594E019
:10134000BA010E942525BC018E2D90E0019720EC6A
:1013500030E0FC01E29FC001E39F900DF29F900DF1
:1013600011248D5E9D4F0E940F16AACE90E001972A
:1013700020EC30E0AC01429FC001439F900D529F92
:10138000900D11248D5E9D4F0E94202087CF21500B
:10139000304080EC90E0BC01269FC001279F900D5B
:1013A000369F900D11248D5E9D4F0E94F51B88CEB7
:1013B00090E001979C01220F331F280F391FF9017C
:1013C00046E0EE0FFF1F4A95E1F7ED5CFD4F80818F
:1013D000882309F4EFC1F90136E0EE0FFF1F3A95BB
:1013E000E1F7E55EFD4F888180836ACEC9010197F0
:1013F0008C01000F111F080F191FF80186E0EE0F76
:10140000FF1F8A95E1F7ED5CFD4F8081882309F489
:10141000D1C10E94FF2C20910D0230910E0240910B
:101420000F0250911002621B730B840B950B60939B
:101430004205709343058093440590934505F80158
:1014400006E0EE0FFF1F0A95E1F7E55EFD4F81E034
:1014500080830E948D0734CE282F30E02150304009
:10146000F901EE0FFF1FE20FF31FB6E0EE0FFF1FB3
:10147000BA95E1F7ED5CFD4F8081882309F49AC1AC
:1014800080EC90E0289FF001299FF00D389FF00D2F
:101490001124ED5EFD4F40815181628173814115C0
:1014A00051056105710559F08091F6019091F701A0
:1014B000A0E0B0E084179507A607B707D8F08091A1
:1014C000F6019091F701009729F001979093F701A9
:1014D0008093F60180EC90E0FC012E9FC0012F9FCD
:1014E000900D3E9F900D11248D5E9D4F0E942021F6
:1014F0000E948E0560900D0270900E0280900F0287
:10150000909010028CEF91E00E94D5235B016C015A
:101510008CEF91E00E94D1237C018CEF91E00E943E
:10152000CD2300E010E0A0E0B0E0E80EF91E0A1FB5
:101530001B1FEA0CFB1C0C1D1D1DE614F7040805FF
:10154000190548F400910D0210910E0220910F022E
:10155000309110021BC08CEF91E00E94D5236B01EB
:101560007C018CEF91E00E94D1238C018CEF91E003
:101570000E94CD2320E030E0A0E0B0E0080F191F6A
:101580002A1F3B1F0C0D1D1D2E1D3F1D8091EB01C1
:101590009091EC01A091ED01B091EE0180179107BF
:1015A000A207B30768F0801B910BA20BB30B8093CB
:1015B000EB019093EC01A093ED01B093EE0180CD8F
:1015C0001092EB011092EC011092ED011092EE01DD
:1015D00077CD90E0019720EC30E0AC01429FC00154
:1015E000439F900D529F900D11248D5E9D4F0E9440
:1015F0008715B4C090E0019720EC30E0BC01629FF9
:10160000C001639F900D729F900D11248D5E9D4FC0
:101610000E946815A3C090E0019720EC30E0FC0127
:10162000E29FC001E39F900DF29F900D11248D5E0B
:101630009D4F0E94C31566C090E0019720EC30E0FA
:10164000AC01429FC001439F900D529F900D112409
:101650008D5E9D4F0E94811655C090E0019720EC51
:1016600030E0BC01629FC001639F900D729F900D9E
:1016700011248D5E9D4F0E94781570C0215030401E
:1016800080EC90E0FC012E9FC0012F9F900D3E9FAB
:10169000900D11248D5E9D4F0E949B1585C090E09A
:1016A000019720EC30E0AC01429FC001439F900DB8
:1016B000529F900D11248D5E9D4F0E94BF164EC00B
:1016C0002150304080EC90E0289FF001299FF00DE0
:1016D000389FF00D1124ED5EFD4F408151816281F4
:1016E000738112C090E0019720EC30E0BC01629F52
:1016F000C001639F900D729F900D11248D5E9D4FD0
:101700000E94B315AB01BC0181E00E94430254C0AA
:1017100090E0019720EC30E0FC01E29FC001E39FE4
:10172000900DF29F900D11248D5E9D4F0E94231706
:10173000AB01BC0181E00E9433023EC090E0019702
:1017400020EC30E0AC01429FC001439F900D529FBE
:10175000900D11248D5E9D4F0E946315682F81E0CE
:1017600010C090E00197FC01EE0FFF1FE80FF91F7A
:1017700076E0EE0FFF1F7A95E1F7E55EFD4F81E021
:1017800060810E94710218C090E0019720EC30E067
:10179000BC01629FC001639F900D729F900D112448
:1017A0008D5E9D4F0E94CB15BC0181E00E946202BC
:1017B00003C080E00E948002DF91CF911F910F91C2
:1017C000FF90EF90DF90CF90BF90AF909F908F9061
:1017D0007F906F900895CF92DF92EF92FF920F93D8
:1017E0001F93CF93DF9383EB94E00E94E1148EED7F
:1017F00096E06BE071E00E946E3303E112E0EE24AC
:10180000FF24E0ECCE2ED12CEC9CE001ED9CD00D21
:10181000FC9CD00D1124CD5EDD4FCE010E948715BA
:101820008823C1F0F80180A18130A1F420813181A9
:1018300042815381211531054105510559F08091AF
:10184000F6019091F701A0E0B0E082179307A4079A
:10185000B507F8F0CE010E948715882319F1F80129
:1018600080A18823F9F4208131814281538121159F
:10187000310541055105B1F08091EB019091EC01EA
:10188000A091ED01B091EE0182179307A407B5076F
:1018900048F484EB94E061E00E947D230EC00E9436
:1018A000AE050BC00894E11CF11C00541F4FF3E07F
:1018B000EF16F10409F0A8CFF2CFDF91CF911F917D
:1018C0000F91FF90EF90DF90CF9008950F931F93AB
:1018D00004EB14E0C80161E041EF5CE00E94942356
:1018E000C80162E04BEE5BE00E949423C80163E014
:1018F00043E15FE00E949423C80164E045E95CE0B5
:101900000E949423C80165E04BE85CE00E949423A8
:101910001F910F91089584EB94E060E00E947D2375
:101920008CEF91E00E940424089584EB94E060E041
:101930000E947D238CEF91E00E9487240895FF92FE
:101940000F931F93CF93DF93F82E8B01C0E0D0E06D
:1019500015C08F2D61E00E948E2E6AEF70E080E04E
:1019600090E00E94332D8F2D60E00E948E2E6AEF52
:1019700070E080E090E00E94332D2196C017D107DF
:1019800044F3DF91CF911F910F91FF9008951F9322
:10199000182F0E949D06113091F41092EB011092C5
:1019A000EC011092ED011092EE011092F7011092ED
:1019B000F601109232021092F2021092B2031092CB
:1019C000F30183E192E00E94C41683ED92E00E944D
:1019D000C41683E993E00E94C4160E948F241F91CD
:1019E00008952091090230910A0240910B02509112
:1019F0000C02211531054105510579F08091F60160
:101A00009091F701A0E0B0E082179307A407B50713
:101A100020F080E00E94C70C089583EB94E00E94C0
:101A2000AA148823D9F00E94FF2C209142053091FE
:101A300043054091440550914505621B730B840B8F
:101A4000950B20910D0230910E0240910F025091A2
:101A50001002621773078407950758F180911202EC
:101A6000882381F484EB94E062E00E947D230E944D
:101A7000FF2C609342057093430580934405909337
:101A8000450508950E94B723882399F484EB94E0D8
:101A900060E00E947D230E94FF2C609342057093BA
:101AA000430580934405909345058CEF91E00E9497
:101AB0003C2408950E948F240E949D061092F301F9
:101AC0000895CF93DF93EB018C3009F4D7C08D30AC
:101AD00040F5863009F466C0873080F4833009F41D
:101AE0004EC0843020F4823009F054C145C08430A7
:101AF00009F449C0853009F04DC149C0893009F465
:101B000086C08A3038F4873009F455C0883009F02F
:101B100041C15EC08A3009F493C08B3009F03AC1EC
:101B20009EC0883609F4E2C0893698F4853609F4F7
:101B3000C8C0863638F48D3009F4A7C0843609F061
:101B400029C1BCC0863609F4C0C0873609F022C15D
:101B5000C8C08B3609F4E1C08C3638F4893609F4F4
:101B6000CBC08A3609F016C1CFC08C3609F4EBC061
:101B70008D3609F00FC104C10E948D0702C00E947A
:101B80005A0D81E008C181E00E94C70CFACF88811C
:101B90008093F501882319F40E948307F2CF0E94F5
:101BA0008807EFCF60E08881811161E083EB94E0EA
:101BB0000E945815E6CF83E594E00E942D2560939E
:101BC000F8017093F9018093FA019093FB01D9CF4A
:101BD00080E1E7E6F1E0DF011D928A95E9F780E018
:101BE00090E0FE01E80FF91F2081222321F0FC0183
:101BF000E959FE4F208301968031910591F782E0EB
:101C000090E067E671E040E10E94402ABACF688127
:101C1000623008F4BFC06093650183E594E070E032
:101C20000E9408256091650182EE94E070E00E94B8
:101C3000082580E090E065E671E00E942205A1CFD2
:101C40008881833020F080E00E9480029ACF882330
:101C500019F40E94F41495CF0E94201592CF83E1CD
:101C600092E00E94202083ED92E00E94202083E9F0
:101C700093E00E9420200E948E0583CF83E594E0AC
:101C80000E9425250E94250786C060E08881811179
:101C900061E083E192E00E94911560E0888181110A
:101CA00061E083ED92E00E94911560E088818111EE
:101CB00061E083E993E00E94911563CF81E065E0E4
:101CC00018C081E06091F30114C04091EB01509184
:101CD000EC016091ED017091EE0181E00E94430200
:101CE0005CC00E94B723682F81E003C081E060914F
:101CF00066010E94710251C081E067E671E040E137
:101D000050E00E94120249C083E192E00E94011655
:101D1000BC0181E00E94620240C08AE20E94DC2D88
:101D2000AA2797FDA095BA2FBC01CD010E94324091
:101D300020E030EC4FE754E40E94973F20E030E091
:101D400048EC51E415C089E20E94DC2DAA2797FDDA
:101D5000A095BA2FBC01CD010E94324020E030ECAA
:101D60004FE754E40E94973F20E030E040EA50E41F
:101D70000E94E640AB01BC0181E00E9423020DC03D
:101D800083E192E00E949615682F81E070E00E9446
:101D9000530203C080E00E948002DF91CF9108953A
:101DA000843018F4813048F403C0843069F408C0EA
:101DB000862FBA010E94610D08950E94B007089510
:101DC00084E00E94F703089580E00E948002089555
:101DD00092E0909377010E94D00E089591E0909345
:101DE00077010E94D00E0895623069F0633018F4D4
:101DF0006130C1F405C0633051F0643099F40AC019
:101E00000E948D07089581E00E94C70C08950E94EA
:101E10005A0D089580E00E94372A8CE06AE070E055
:101E20000E949F0C0895CF92DF92EF92FF920F9342
:101E30001F93CF93DF93A1E3EA2EA2E0FA2E00E0F6
:101E400010E0F0ECCF2ED12C0C9DE0010D9DD00DBB
:101E50001C9DD00D1124CD5EDD4FCE010E94961544
:101E6000882351F5F7018081882331F5CE010E9446
:101E7000A615882309F12BC083EB94E00E94AA14D5
:101E80008823A1F084EB94E061E00E947D2380919F
:101E90001B02813041F08091DB02813021F0809182
:101EA0009B038130A1F40E945A0D11C084EB94E091
:101EB00060E00E947D230BC00F5F1F4F80EC90E01D
:101EC000E80EF91E0330110509F0BECFD5CFDF9122
:101ED000CF911F910F91FF90EF90DF90CF900895D9
:101EE000EF92FF920F931F9383E594E00E944129A4
:101EF00082EE94E00E9441298091F301882309F445
:101F000067C00E94FF2C2091EB013091EC014091C1
:101F1000ED015091EE01E090EF01F090F0010091A1
:101F2000F1011091F2012E193F09400B510B260FC0
:101F3000371F481F591F2093EB013093EC0140934A
:101F4000ED015093EE016093EF017093F0018093E7
:101F5000F1019093F2018091F401813019F480E055
:101F60000E94C70C83EB94E00E94AA148823E9F036
:101F70002091F8013091F9014091FA015091FB0153
:101F8000211531054105510581F08091EB019091BA
:101F9000EC01A091ED01B091EE01281739074A0735
:101FA0005B0718F481E00E94C70C83EB94E00E9469
:101FB000AA14882349F40E94AD14882329F084EBE5
:101FC00094E061E00E947D2384EB94E00E948023F2
:101FD0001F910F91FF90EF900895EF92FF920F9352
:101FE0001F93CF93DF938CE061E00E940B2E80E083
:101FF00061E00E940B2E80E061E00E948E2E8AE25A
:1020000060E00E940B2E89E260E00E940B2E0E948D
:1020100075070E94660C84EB94E060E00E947D23CB
:1020200083EB94E061E00E94581583EE94E00E94F7
:10203000A5148CEF91E048E750E060E070E00E946A
:10204000C3238CEF91E060E070E00E94C9238CEF25
:1020500091E060E070E00E94BF238CEF91E062E7C6
:1020600075E00E94BA238CEB96E040E051EE60E010
:1020700070E00E94372F6091650183E594E070E085
:102080000E94082583E594E06EEE7EE00E94DB2747
:1020900083E594E065E475E00E94E72783E594E03A
:1020A00064EF7EE00E94E12783E594E060E00E9417
:1020B00003256091650182EE94E070E00E9408259E
:1020C00082EE94E068EE7EE00E94DB2782EE94E0F0
:1020D0006FE275E00E94E72782EE94E064EF7EE015
:1020E0000E94E12782EE94E061E00E94032583E5EF
:1020F00094E066E275E00E94172582EE94E066E2C5
:1021000075E00E941725C0E0D0E0B0ECEB2EF12C7A
:10211000CE9D8001CF9D100DDE9D100D11240D5E12
:102120001D4FC80160E00E948215C80160E00E9456
:102130009115C80160EA7FE00E94D115C80160E2F4
:1021400073E00E940F16C80161E00E94CA1BC8011B
:1021500064E00E949B1D2196C330D105C9F68CE036
:1021600065E070E00E949F0CDF91CF911F910F916D
:10217000FF90EF900895611571058105910569F44F
:1021800081E090E0A0E0B0E080934A0590934B0599
:10219000A0934C05B0934D0508C060934A05709319
:1021A0004B0580934C0590934D0550934F054093FC
:1021B0004E05809170008E7F809370008091B000FA
:1021C0008C7F8093B0008091B100877F8093B100B5
:1021D0008091B6008F7D8093B600809170008D7FD6
:1021E000809370008091B10084608093B1008091F1
:1021F000B1008C7F8093B10086E090E0909356050B
:102200008093550508951092500510925105109233
:1022100052051092530510925405809155059091E6
:1022200056058093B200E0E7F0E080818160808312
:102230000895E0E7F0E080818E7F808308958091AB
:10224000500590915105A0915205B091530501960A
:10225000A11DB11D8093500590935105A093520587
:10226000B09353058091500590915105A09152056E
:10227000B091530520914A0530914B0540914C0592
:1022800050914D0582179307A407B50710F180916F
:1022900054058823F1F481E0809354058091500522
:1022A00090915105A0915205B0915305821B930B5B
:1022B000A40BB50B8093500590935105A093520544
:1022C000B0935305E0914E05F0914F05099510929A
:1022D000540508951F920F920FB60F920BB60F92EE
:1022E00011242F933F934F935F936F937F938F931B
:1022F0009F93AF93BF93EF93FF9380915505909178
:1023000056058093B2000E941F11FF91EF91BF917B
:10231000AF919F918F917F916F915F914F913F917D
:102320002F910F900BBE0F900FBE0F901F9018951E
:102330001F920F920FB60F920BB60F9211242F938C
:102340003F934F935F936F937F938F939F93AF933D
:10235000BF93EF93FF93E0915B05F0915C050995C6
:10236000FF91EF91BF91AF919F918F917F916F916D
:102370005F914F913F912F910F900BBE0F900FBE29
:102380000F901F901895FC01A3E0440F551F661F86
:10239000771FAA95D1F7403080E0580781E06807A1
:1023A00080E0780714F481E010C033E075956795FC
:1023B000579547953A95D1F7403080E0580781E02E
:1023C000680780E078071CF482E0828339C023E04C
:1023D00075956795579547952A95D1F7403080E0D8
:1023E000580781E0680780E0780714F483E0EDCFB8
:1023F00092E075956795579547959A95D1F7403036
:1024000080E0580781E0680780E0780714F484E0F2
:10241000DCCF82E075956795579547958A95D1F7FA
:10242000403080E0580781E0680780E0780714F4C6
:1024300085E0CBCF85E082834FEF5FEF60E070E017
:102440008FB78383F89451834083509387004093E0
:10245000860083818FBF80918100887F8093810077
:10246000809181009281892B809381000895109240
:10247000800020E1209381000E94C3110895EFE6BF
:10248000F0E080818E7F80830895E1E8F0E0208194
:10249000DC0112968C91282B208308950F931F93B3
:1024A000CF93DF93EC018B01121613061406150669
:1024B00024F4BA01A9010E94C3111D830C8381E099
:1024C00080936F00CE010E944512DF91CF911F9142
:1024D0000F910895F999FECF72BD61BDF89A80B54C
:1024E0000895F999FECF1FBA72BD61BD40BD0FB608
:1024F000F894FA9AF99A0FBE0895282F9091BC0586
:102500009F5F943408F090E08091BD058917E1F356
:102510003FB7F8948091B905882341F0E92FF0E0A6
:10252000E254FA4F20839093BC051DC081E0809354
:10253000B9052093BA051092BB0582E088BB809153
:102540007100826080937100809190008F73806829
:102550008093900080919400909195004096909384
:102560009900809398003FBF0895862F0E947D12A6
:1025700081E090E008951F920F920FB60F920BB674
:102580000F9211242F933F934F935F936F937F93F9
:102590008F939F93EF93FF934091B9055091BA05A4
:1025A00020919800309199006091B5057091B60521
:1025B0008091BB051FC0260F371F952F9170569530
:1025C0004F5F9817B9F0992321F080919000806CAB
:1025D00004C0809190008F73806880939000309346
:1025E0009900209398009093BB055093BA054093AF
:1025F000B9053BC04930F8F2493039F48AE080939C
:10260000B90580919000806C28C08091BC05E09154
:10261000BD058E1769F41092B905809190008F73F3
:1026200080939000809171008D7F809371001DC018
:1026300081E08093B905EF5FE43408F0E0E0E093D7
:10264000BD05F0E0E254FA4F80818093BA05109204
:10265000BB05809190008F73806880939000260F57
:10266000371F3093990020939800FF91EF919F912D
:102670008F917F916F915F914F913F912F910F902B
:102680000BBE0F900FBE0F901F9018958091B9054B
:102690008823E1F708950E94461308951F920F9230
:1026A0000FB60F920BB60F9211241F932F933F93E7
:1026B0004F935F936F937F938F939F93AF93BF934A
:1026C000EF93FF9320919600309197009091B10580
:1026D000992341F0809191008F7B8093910010921B
:1026E000B10508C08091910080648093910080E8DA
:1026F0008093B1057091B005772331F5992309F0E6
:102700006CC08091B3059091B405820F931F909394
:102710009B0080939A0084E088BB80917100846064
:10272000809371008091B5059091B605280F391FEF
:1027300096958795280F391F3093B8052093B705D4
:1027400081E08093B00549C04091B7055091B8052C
:102750001091B105E091B505F091B6056091B20513
:10276000AA27BB27AE1BBF0BC901841B950B97FD86
:102770002CC06695612B7F5F8A0F9B1F793018F400
:102780004E0F5F1FF4CF6093B205809171008B7F75
:102790008093710090915F059F5F903508F090E005
:1027A00080915E05981739F0E92FF0E0E05AFA4F72
:1027B000608390935F05809191008F7B809391005F
:1027C0001092B1051092B00508C06093B205509305
:1027D000B8054093B7057093B005FF91EF91BF9195
:1027E000AF919F918F917F916F915F914F913F91A9
:1027F0002F911F910F900BBE0F900FBE0F901F9047
:1028000018951F920F920FB60F920BB60F921124CC
:102810002F938F939F93EF93FF93809171008B7F02
:1028200080937100809191008F7B809391009091B3
:10283000B0058091B10580582091B20503C026955E
:10284000282B9F5F9930D8F32093B20590915F05B4
:102850009F5F903508F090E080915E05981739F001
:10286000E92FF0E0E05AFA4F208390935F05109231
:10287000B005809191008F7B809391001092B105FB
:10288000FF91EF919F918F912F910F900BBE0F9021
:102890000FBE0F901F90189580915F05E0915E0527
:1028A0008E1719F42FEF3FEF0EC02E2F2F5F20351C
:1028B00008F020E0E22FF0E0E05AFA4F8081209308
:1028C0005E05282F30E0C901089580915F05E091F1
:1028D0005E058E1719F4EFEFFFEF06C0F0E0E05A47
:1028E000FA4F8081E82FF0E0CF01089590915F05C5
:1028F00080915E05292F30E0482F50E0981710F4A2
:10290000205B3F4F241B350BC901089580915E0564
:1029100080935F0508950F931F9301E710E0F8017E
:1029200080818B7F808380818F7D80830E9486144D
:102930000E944613F80180818D7F80831F910F9143
:10294000089581E080930E06089590931006809379
:102950000F060895FC018081089580910E06109263
:102960000E06811181E0089580911106882319F0E7
:1029700089B1847002C089B18870882359F40E949B
:102980000D2D609312067093130680931406909396
:10299000150608950E940D2D209112063091130600
:1029A0004091140650911506E0910F06F091100623
:1029B000309731F0621B730B840B950BCB0109959B
:1029C0000895FC018081882371F083E160E00E941A
:1029D0008E2E65E070E080E090E00E94332D83E170
:1029E00061E00E948E2E0895809111060E94032BB3
:1029F000089580E00E94032B83E161E00E940B2E8A
:102A000083E161E00E948E2E0895FC01108282E035
:102A100060E00E940B2E83E060E00E940B2E83E1B9
:102A200060E00E940B2E82E061E00E948E2E83E027
:102A300061E00E948E2E83E161E00E948E2E089557
:102A40000F931F93082F01500230F8F48091110664
:102A50000E94032B10921106002319F081E080934D
:102A60001106002311F013E001C012E0812F60E095
:102A70000E940B2E812F61E00E948E2E802F64EB2E
:102A800074E141E050E00E94872A1F910F91089560
:102A900083E160E00E940B2E83E161E00E948E2EB4
:102AA00080E061EA74E142E050E00E94872A0895E4
:102AB000FC016083662319F00E94F91408950E94B6
:102AC000481508950895FC01EA54FF4F8081089548
:102AD000FC01EB59FF4F80810895FC01E754FF4F43
:102AE0000190F081E02D309711F0862F099508951F
:102AF000FC01E954FF4F80810895FC01E954FF4F28
:102B000060830895FC01E05AFF4F60830895FC0143
:102B1000E05AFF4F80810895FC01EE59FF4F8081FC
:102B20000895FC01EF59FF4F60830895FC01EF59B0
:102B3000FF4F80810895FC01E255FF4F6081718154
:102B4000828193810E940440CB010895FC01ED59DC
:102B5000FF4F80810895FC01E855FF4F408351836A
:102B6000628373830895FC01E855FF4F6081718192
:102B7000828193810895FC01ED57FF4F408351837B
:102B8000628373830895FC01ED57FF4F608171816B
:102B9000828193810895FC01E35AFF4F80819181E6
:102BA000089587E26031780781F083E1683878071B
:102BB00061F08FE0603A780741F087E0603D780788
:102BC00021F083E0683E7807B1F49B0140E050E0DB
:102BD00060E472E48FE090E00E947C4130937901E0
:102BE0002093780188EE93E0B9010E9468417093C8
:102BF0007B0160937A010895809178019091790129
:102C00000895209178013091790140E050E060E42E
:102C100072E48FE090E00E949E41C90108950F93F5
:102C20001F93CF93DF93EC018B010E940116801755
:102C3000910738F00115110521F0C35ADF4F1983B0
:102C40000883DF91CF911F910F910895AF92BF92AA
:102C5000CF92DF92EF92FF920F931F93CF93DF9368
:102C6000EC015A016B010E940116A0E0B0E0BC012A
:102C7000CD010E9430409B01AC01C601B5010E940C
:102C8000E24018169CF1C255DF4FA882B982CA8271
:102C9000DB8260917A0170917B0180E090E00E947C
:102CA00030407B018C01C601B50120E030E04AE7ED
:102CB00054E40E94973F9B01AC01C801B7010E94F8
:102CC000973F7B018C010E940440A79769937993F9
:102CD000899399930E9430409B01AC01C801B701D0
:102CE0000E942E3F688379838A839B83DF91CF91F3
:102CF0001F910F91FF90EF90DF90CF90BF90AF901A
:102D00000895FC01E158FF4F2081318142815381B8
:102D1000B901CA0108951F93CF93DF93EC01162FD9
:102D20000E94A615882339F5143049F4C554DF4FA5
:102D30008DE297E199838883CB5BD04019C0153031
:102D400049F4C554DF4F8CE198E18993999389EC5C
:102D500098E10AC0163079F4C554DF4F8CE198E150
:102D60008993999381E399E199838883CD5BD040DE
:102D7000C854DF4F1883DF91CF911F910895FC0154
:102D8000E854FF4F80810895FC01E158FF4F108205
:102D9000118212821382789610821182128213821B
:102DA0003C9680E090E0A0E0B0E080839183A28335
:102DB000B38338971192119211921192108211825D
:102DC000128213820895CF93DF93EC01FC01E15846
:102DD000FF4F2081318142815381CB01AA2797FD8A
:102DE000A095BA2F820F931FA41FB51F80839183D4
:102DF000A283B383CB59DF4F8881C556D040882347
:102E000019F4709561957F4FFE01EE54FF4F2081BC
:102E1000318142815381CB01AA2797FDA095BA2F1A
:102E2000820F931FA41FB51F80839183A283B38356
:102E3000DF91CF910895FC01EE54FF4F1082118273
:102E4000128213820895FC01EE54FF4F20813181DC
:102E500042815381B901CA0108956F927F928F9286
:102E60009F92AF92BF92CF92DF92EF92FF920F9319
:102E70001F93CF93DF93782E5A016B01490188236A
:102E800021F0E901CB5BDF4F02C0E901AD96E8809C
:102E9000F9800A811B81C601B501A80197010E9432
:102EA000933F18163CF0C601B501A80197010E9496
:102EB000973F29C0C601B501288939894A895B89AC
:102EC0000E94933F18162CF0EC84FD840E851F851C
:102ED00022C0C601B501A80197010E942E3F288596
:102EE00039854A855B850E942E3F2C813D814E812C
:102EF0005F810E94973F9B01AC0160E070E080E839
:102F00009FE30E942E3F2C853D854E855F850E9464
:102F1000E6407B018C017720C9F560917A017091C0
:102F20007B0180E090E00E943040A80197010E9460
:102F3000973F7B018C010E94044027E830E0820E1D
:102F4000931EF40161937193819391934F010E94B9
:102F500030409B01AC01C801B7010E942E3FE40143
:102F6000688379838A839B8320E030E040E85FE3D5
:102F70000E94E24018160CF050C080E090E0A0E003
:102F8000B0E088839983AA83BB8347C0C801B70197
:102F90000E9404405B016C0187E9682E712C680C6B
:102FA000791CF301A082B182C282D382E401CD55A3
:102FB000DF4FC601B5010E9430409B01AC01C80142
:102FC000B7010E942E3F288139814A815B810E948E
:102FD0002F3F7B018C01688379838A839B8320E068
:102FE00030E040E85FE30E94E2408823B4F0C8018B
:102FF000B70120E030E040E85FE30E942E3F6883A5
:1030000079838A839B83D601C5010196A11DB11DD9
:10301000F30180839183A283B383DF91CF911F91CA
:103020000F91FF90EF90DF90CF90BF90AF909F9067
:103030008F907F906F9008958F929F92AF92BF92E2
:10304000CF92DF92EF92FF920F931F93CF93DF9374
:10305000D82EE901882321F0C9018B5B9F4F02C064
:10306000C9018D96C354DF4FE881F981CD5BD04013
:1030700009957B018C01DD20D9F560917A01709171
:103080007B0180E090E00E943040A80197010E94FF
:10309000973F7B018C010E940440FE01E957FF4FDE
:1030A0006083718382839383608171818281938144
:1030B0000E9430409B01AC01C801B7010E942E3F25
:1030C000C557DF4F688379838A839B8320E030E094
:1030D00040E85FE30E94E24018160CF04DC080E02B
:1030E00090E0A0E0B0E088839983AA83BB8344C0CA
:1030F0000E9404405B016C0197E9892E912C8C0E93
:103100009D1EF401A082B182C282D382CD55DF4FD1
:10311000C601B5010E9430409B01AC01C801B70156
:103120000E942E3F288139814A815B810E942F3F76
:103130007B018C01688379838A839B8320E030E064
:1031400040E85FE30E94E2408823B4F0C801B70181
:1031500020E030E040E85FE30E942E3F68837983FF
:103160008A839B83D601C5010196A11DB11DF4017F
:1031700080839183A283B383DF91CF911F910F91BD
:10318000FF90EF90DF90CF90BF90AF909F908F9087
:103190000895AF92BF92CF92DF92EF92FF920F937A
:1031A0001F93CF93DF93EC017A018B01A880B98044
:1031B000CA80DB80CB01BA01A60195010E94933F32
:1031C00088233CF4C801B701A60195010E94973FEE
:1031D00029C0C801B701288939894A895B890E94B9
:1031E000933F18162CF0EC857D858E856F8528C061
:1031F000C801B701A60195010E942E3F2885398597
:103200004A855B850E942E3F2C813D814E815F81E6
:103210000E94973F9B01AC0160E070E080E89FE373
:103220000E942E3F7B018C012C853D854E855F855C
:103230000E94E640A80197010E94E640E62F692F10
:103240002E2F372F482F562FB901CA01DF91CF916A
:103250001F910F91FF90EF90DF90CF90BF90AF90B4
:103260000895AF92BF92CF92DF92EF92FF920F93A9
:103270001F93CF93DF93EC017A018B01A880B98073
:10328000CA80DB80CB01BA01A60195010E94933F61
:1032900088237CF4C801B701A60195010E94973FDD
:1032A0009B01AC0160E070E080E89FE30E942E3F4C
:1032B00021C0C801B701288939894A895B890E94E0
:1032C000933F18162CF0EC857D858E856F852AC07E
:1032D000C801B701A60195010E942E3F28853985B6
:1032E0004A855B850E942E3F2C813D814E815F8106
:1032F0000E94973F7B018C01AC84BD84CE84DF8427
:10330000C601B501A80197010E94E640A8019701F6
:103310000E94E6409B01AC01C601B5010E942E3F10
:10332000E62F692F2E2F372F482F562FB901CA01AC
:10333000DF91CF911F910F91FF90EF90DF90CF9091
:10334000BF90AF900895CF93DF93EB0120E030E082
:1033500040E050E42C8B3D8B4E8B5F8BFC01E8549E
:10336000FF4FE081E53029F48AEF9FEFAFE3B0E44F
:1033700006C0E63041F485EF91E0A0ECBFE38C8B12
:103380009D8BAE8BBF8BDF91CF910895CF93DF9351
:10339000FC01EC01CA59DF4F88818823C1F0E5594F
:1033A000FF4F11921192119211921192119211925A
:1033B000119210821182128213823C9780E090E079
:1033C000A0E0B0E080839183A283B3831882DF9171
:1033D000CF9108952F923F924F925F926F927F927A
:1033E0008F929F92AF92BF92CF92DF92EF92FF9215
:1033F0000F931F93DF93CF9300D000D0CDB7DEB7EC
:103400004C0129833A834B835C8383E990E0880EE7
:10341000991EF40120803180428053808DE69FEF19
:10342000880E991E662331F43DE2632E712C680CE0
:10343000791C12C025E4622E712C680C791CEBE912
:10344000F0E08E0E9F1EF401208031804280538078
:1034500085E69FEF880E991E8EED96E06FE171E094
:103460000E94BE328EED96E0B801A7012AE030E05E
:103470000E946032C401B3010E94A319C801B701C0
:103480000E9430407B018C01C601B5010E94304092
:10349000A80197010E94973FF301608371838283A3
:1034A00093838EED96E068E271E00E94BE32F301F4
:1034B00040815181628173818EED96E022E030E09F
:1034C0000E945733698D7A8D8B8D9C8D0E94304080
:1034D000A80197010E94973FF30164837583868357
:1034E00097838EED96E060E371E00E94BE32F301B7
:1034F00044815581668177818EED96E022E030E04F
:103500000E945733F301608171818281938124810C
:103510003581468157810E942F3F9B01AC0160E0BD
:1035200070E080E89FE30E942E3FF301608771877F
:10353000828793878EED96E068E371E00E94BE3249
:10354000F30140855185628573858EED96E022E01A
:1035500030E00E945733F301608171818281938151
:1035600020853185428553850E942F3FF301608B72
:10357000718B828B938B8EED96E060E471E00E94FC
:10358000BE32F30140895189628973898EED96E0DC
:1035900022E030E00E945733F301A488B588C68842
:1035A000D7886081718182819381A60195010E94F3
:1035B000973FF30120853185428553850E942F3F37
:1035C0007B018C01F3016481758186819781A6015D
:1035D00095010E94973F9B01AC01C801B7010E9471
:1035E0002F3F9B01AC0169817A818B819C810E9474
:1035F000973F7B018C018EED96E06BE471E00E94B9
:10360000BE328EED96E0B801A70122E030E00E94C4
:103610005733F301A084B184C284D384C801B701B5
:10362000A60195010E94E6407B018C01C201B10117
:103630000E943040A60195010E94E6409B01AC012A
:10364000C801B7010E94973FF30164877587868799
:1036500097878EED96E067E571E00E94BE32F30138
:1036600044855585668577858EED96E022E030E0CD
:103670000E945A330F900F900F900F90CF91DF91CF
:103680001F910F91FF90EF90DF90CF90BF90AF9080
:103690009F908F907F906F905F904F903F902F9072
:1036A00008954F925F926F927F928F929F92AF9206
:1036B000BF92CF92DF92EF92FF920F931F93DF930F
:1036C000CF93CDB7DEB74C012A013B01C801B7014A
:1036D00047E950E0840E951EF40110821182128297
:1036E00013824CE050E0840E951E0F2EF0E0EF2E7A
:1036F000F0E0FF2EF0E00F2FF0E01F2FF02DF4018F
:10370000E082F1820283138348EF5FEF840E951EFF
:10371000F40141925192619271924F011082118293
:103720001282138248E050E0840E951EF40120833B
:1037300029E53FEF820E931E00D000D00DB71EB7D3
:103740000F5F1F4F0E9430409B01AC018B899C8909
:10375000AD89BE89F80180839183A283B383C401BC
:1037600061E0830172010E94EA190F900F900F909F
:103770000F90CF91DF911F910F91FF90EF90DF900D
:10378000CF90BF90AF909F908F907F906F905F9001
:103790004F900895FC01EE59FF4F6083E256F040D0
:1037A00083A10E948E2E0895EF92FF921F93CF93D4
:1037B000DF93EC01162F45E6E42EF12CE80EF91EFE
:1037C000F7018081681759F08DA10E948E2EC15A91
:1037D000DF4F81E08883F701108325961883DF91FE
:1037E000CF911F91FF90EF900895CF93DF93EC015D
:1037F000CD59DF4F1882239681E08883C656D0408A
:10380000CE010E948C15882321F08BA161E00E94DB
:103810008E2EFE01EC59FF4FCE0160810E94D41B19
:10382000CE0161E00E946D15DF91CF9108958F92D6
:103830009F92AF92BF92CF92DF92EF92FF920F933F
:103840001F93CF93DF93EC01C958DF4FE880F980D5
:103850000A811B81C757D040E114F104010511050D
:1038600009F491C0F3E78F2E912C8C0E9D1EF4016C
:10387000208131814281538180917A0190917B0135
:10388000A0E0B0E0281739074A075B0708F47BC0BF
:10389000BE0161577F4FFB0180819181A281B3817D
:1038A000CD56DF4FA880B980CA80DB80C359D04095
:1038B0008A159B05AC05BD05C1F5EFE6CE2ED12CD2
:1038C000CC0EDD1EF60180819181A281B3818E151F
:1038D0009F05A007B107B8F4215030404040504048
:1038E000F40120833183428353830196A11DB11DCE
:1038F000F60180839183A283B383CE0161E070E0FF
:103900000E94E31616C1F601108211821282138200
:10391000FB011082118212821382F4011082118243
:1039200012821382C959DF4FB5C0FB01808191819A
:10393000A281B3810196A11DB11D80839183A283D1
:10394000B3836081718182819381C554DF4F0E946E
:1039500030407B018C01C601B5010E9430409B01C3
:10396000AC01C801B7010E94973FAB01BC01E881DF
:10397000F981CB5BD04080E09E010995F401108273
:10398000118212821382FE01ED58FF4F80819181D6
:10399000A281B3810196A11DB11D80839183A28371
:1039A000B38357E6C52ED12CCC0EDD1EF601E08088
:1039B000F18002811381C801B70120E030E040E8C6
:1039C0005FE30E94E240882374F0C801B70120E061
:1039D00030E040E85FE30E942E3FF6016083718390
:1039E0008283938368C0FE01E559FF4F80819181F6
:1039F000A281B3810196A11DB11D80839183A28311
:103A0000B383C957DF4F288139814A815B81C75809
:103A1000D04082179307A407B50708F44CC0CD57D0
:103A2000DF4F288139814A815B81C358D0402115FD
:103A300031054105510569F0C158DF4F88819981F1
:103A4000AA81BB81CF57D04082179307A407B5073F
:103A5000D0F4C958DF4F288139814A815B81C7572B
:103A6000D040211531054105510599F1C159DF4F6C
:103A700088819981AA81BB81CF56D0408217930754
:103A8000A407B50730F1C159DF4F188219821A8295
:103A90001B82289780E090E0A0E0B0E089939993A2
:103AA000A993B993188219821A821B82CB56D040EF
:103AB000CE010E94F51B80E0DF91CF911F910F9105
:103AC000FF90EF90DF90CF90BF90AF909F908F903E
:103AD0000895C559DF4F188219821A821B82CB566E
:103AE000D040FE01E159FF4F80819181A281B381D5
:103AF0000196A11DB11D80839183A283B383CE0162
:103B000061E070E00E94E3168E0109591F4FC5570E
:103B1000DF4FF80160817181828193812881398131
:103B20004A815B810E942F3FF80160837183828309
:103B3000938381E0C1CFDF92EF92FF920F931F93A7
:103B4000CF93DF93EC01FC01EA54FF4FD0806083F8
:103B5000643081F0653018F4623041F405C068309B
:103B600059F0603119F40BC061E001C060E010E071
:103B700000E008C060E001C061E011E0F9CF61E061
:103B800011E001E08FA10E948E2E89A5612F0E9475
:103B90008E2E8BA5602F0E948E2ECA54DF4F688117
:103BA000C65BD040D61699F1CE54DF4F6D15C8F4E0
:103BB000E880F9800A811B818D2D90E070E00E94E1
:103BC00068419B01442737FD4095542FC801B70138
:103BD0000E949E41C901DA0188839983AA83BB832D
:103BE00016C0088119812A813B81862F90E06D2DB6
:103BF00070E00E946841882777FD8095982FA90181
:103C000098010E944941688379838A839B83DF916D
:103C1000CF911F910F91FF90EF90DF900895CF9279
:103C2000DF92EF92FF921F93CF93DF93EC01162F59
:103C300069017A010E946815CC59DF4F8883C45608
:103C4000D040CE01612F0E94D41BCE010E94A61548
:103C50008823D9F4C958DF4FC882D982EA82FB820F
:103C6000C757D040CE010E948C15882351F08BA1FC
:103C700060E00E948E2E6AE070E080E090E00E949A
:103C8000332DCD59DF4F81E08883DF91CF911F9194
:103C9000FF90EF90DF90CF9008953F924F925F9208
:103CA0006F927F928F929F92AF92BF92CF92DF924C
:103CB000EF92FF920F931F93DF93CF93CDB7DEB7B1
:103CC0002A970FB6F894DEBF0FBECDBF9A878987BB
:103CD000362E29013A010E948715882309F45FC016
:103CE00089859A850E94C315611571058105910525
:103CF00009F497C189859A850E9481167B018C0100
:103D000089859A850E94C315E616F70608071907E4
:103D100008F487C144C089859A850E949615882336
:103D200009F485C189859A850E94A6158823B1F476
:103D300029853A8529583F4FD9011D921D921D9220
:103D40001C921397A757B040BA87A987CD01632D5E
:103D500020E030E040E050E00E940F1E89859A8507
:103D600063E045C189859A8568E873E10E94D115B1
:103D700009851A85015A1F4FF8018081882351F067
:103D800089859A850E947815480E511C611C711C0A
:103D9000D8011C92411451046104710421F48985F5
:103DA0009A8561E024C1E985FA85E154FF4F80815D
:103DB000EF5BF040FA87E987882309F0FFC0BF0175
:103DC000635D7F4FCF010E94A31989859A850E9468
:103DD00001168C0189859A850E94CB15F82EE92E53
:103DE000F0E24F16F3E05F06F0E06F06F0E07F06CA
:103DF00028F020E030E048E453E40DC0C301B201F4
:103E0000B2E09695879577956795BA95D1F70E9418
:103E100030409B01AC01CA01B9010E942F3F698368
:103E20007A838B839C83C301B2010E9430406D83EF
:103E30007E838F8398878F2D9E2D9C0102171307F9
:103E400008F49801B90180E090E00E9430407B01C5
:103E50008C0169817A818B819C81A80197010E94E4
:103E6000973F20E030E04AE754E40E94E640E985CD
:103E7000FA85EF5BFF4F20813181428153810E949F
:103E8000E6405B016C016D817E818F81988529817F
:103E90003A814B815C810E942E3FA80197010E94CC
:103EA000973F20E030E04AE754E40E94E640A60154
:103EB00095010E942F3F20E030E040E85FE30E9440
:103EC0002F3F7B018C0120E030E048E452E40E9467
:103ED000933F882354F40F2EF0E0EF2EF0E0FF2EF6
:103EE000F8E40F2FF2E41F2FF02DC801B7010E9454
:103EF00004407B018C01A3E98A2E912C29853A8507
:103F0000820E931ED4016D937D938D939C93139792
:103F1000C601B50120E030E040E05FE30E94E640EA
:103F20000E9404405B016C0100D000D0EDB7FEB7E9
:103F3000618372838383948389859A8560E02D8170
:103F40003E814F8158850E94EA19E985FA85E1573B
:103F5000FF4F81E090E0A0E0B0E080839183A283F6
:103F6000B38360817181828193810F900F900F9054
:103F70000F9029853A8525543F4F3A8729870E941B
:103F800030407B018C01D4016D917D918D919C918C
:103F90000E9430409B01AC01C801B7010E94973FCD
:103FA000AB01BC01A985BA85ED91FC911197AB5B82
:103FB000B040BA87A98780E09D010995E985FA8517
:103FC000E958FF4FDF014082518262827382A85B11
:103FD000BF4F1C92AF5BB040BA87A987CD01632D5C
:103FE000A30192010E940F1E89859A8562E00E94BA
:103FF0006D152A960FB6F894DEBF0FBECDBFCF91D8
:10400000DF911F910F91FF90EF90DF90CF90BF90C5
:10401000AF909F908F907F906F905F904F903F9068
:104020000895411451046104710409F474CE898522
:104030009A850E9401168958934108F499CE92CE30
:10404000CF93DF93EC010E94231761157105810561
:104050009105D9F0CA59DF4F81E08883C45BDF4FF7
:10406000288139814A815B81C25BD04057FD02C003
:1040700060E008C050954095309521953F4F4F4FD7
:104080005F4F61E0CE010E944D1EDF91CF910895F8
:10409000FF920F931F938C010E946815F82EC801A0
:1040A0000E94B3159B01AC01C8016F2D0E944D1EEB
:1040B0001F910F91FF9008952F923F924F925F9220
:1040C0006F927F928F929F92AF92BF92CF92DF9228
:1040D000EF92FF920F931F93DF93CF9300D000D006
:1040E0000F92CDB7DEB73C0169832A833B834C83B3
:1040F0005D83170128010E9487158823A9F0C30159
:104100000E94C315611571058105910591F0C301E8
:104110000E9481167B018C01C3010E94C315E61623
:10412000F7060807190728F0C30161E00E946D1522
:104130006FC013E9812E912C860C971CD4012D920F
:104140003D924D925C92139700D000D00DB71EB7F0
:104150000F5F1F4F6A817B818C819D810E9430405F
:104160009B01AC018A8D9B8DAC8DBD8DF801808348
:104170009183A283B383C30160E0820171010E9435
:10418000EA19F301E157FF4F81E090E0A0E0B0E0D1
:1041900080839183A283B3836081718182819381C3
:1041A0000F900F900F900F902BEB30E0620E731E6C
:1041B0000E9430407B018C01D4016D917D918D91E5
:1041C0009C910E9430409B01AC01C801B7010E9444
:1041D000973FAB01BC01D301ED91FC9125E43FEF8A
:1041E000620E731E80E0930109958FEB90E0680EDC
:1041F000791E81E0D3018C93E1E4FFEF6E0E7F1E08
:10420000C30169812A813B814C815D810E944D1EE1
:104210000F900F900F900F900F90CF91DF911F9103
:104220000F91FF90EF90DF90CF90BF90AF909F9055
:104230008F907F906F905F904F903F902F90089558
:10424000CF92DF92EF92FF920F931F93CF93DF9362
:10425000EC010E948715882379F00FE9C02ED12C3C
:10426000CC0EDD1EF6016081718182819381611522
:1042700071058105910579F4CE0161E00E946D150B
:1042800043C00197A109B109C156DF4F88839983C3
:10429000AA83BB8339C00E9430407B018C01C55684
:1042A000DF4F688179818A819B810E9430409B0128
:1042B000AC01C801B7010E94973FAB01BC01A096B9
:1042C000E881F981CB5BD04081E09E010995C95519
:1042D000DF4F688181E068276097288139814A81B2
:1042E0005B81C759D040CE010E944D1EF6018081EE
:1042F0009181A281B3810097A105B10511F680E0FB
:1043000090E0A0E0B0E0C0CFDF91CF911F910F917E
:10431000FF90EF90DF90CF900895AF92BF92CF9231
:10432000DF92EF92FF920F931F93CF93DF93EC01F5
:104330000E948715882349F1CE010E94C31561159B
:1043400071058105910569F0CE010E9481167B01FE
:104350008C01CE010E94C315E616F706080719075F
:10436000A0F4FE01E156FF4F60817181828193814B
:10437000C556DF4FA880B980CA80DB80CB59D040BA
:104380006A157B058C059D0528F0CE0161E00E9431
:104390006D152FC06F5F7F4F8F4F9F4F608371836D
:1043A00082839383C554DF4F0E9430407B018C0190
:1043B000C601B5010E9430409B01AC01C801B701A4
:1043C0000E94973FAB01BC01E881F981CB5BD040F3
:1043D00081E09E010995C956DF4F288139814A81C4
:1043E0005B81C759D040CE01C955DF4F68810E941B
:1043F0004D1EDF91CF911F910F91FF90EF90DF90B5
:10440000CF90BF90AF9008952F923F924F925F92BE
:104410006F927F928F929F92AF92BF92CF92DF92D4
:10442000EF92FF920F931F93DF93CF93CDB7DEB739
:104430003C01862FE7E7F0E06E0E7F1EF30110824D
:10444000118212821382E7E3F0E06E0E7F1E0F2EC0
:10445000F0E02F2EF0E03F2EF8EC4F2EF2E45F2E2E
:10446000F02DF3012082318242825382E1EDFFEF91
:104470006E0E7F1EF3011082118212821382E9E216
:10448000F0E06E0E7F1EF301108211821282138201
:10449000EBEDFFEF6E0E7F1EF30110821182128290
:1044A0001382ECE0F0E06E0E7F1EF3011192119288
:1044B000119211923F011082118212821382E4EF55
:1044C000FFEF6E0E7F1EF301119211921192119265
:1044D0003F010F2EF0E02F2EF0E03F2EF0E04F2EA8
:1044E000F0E05F2EF02D2082318242825382E7E29B
:1044F000F0E06E0E7F1EF301108211821282138291
:10450000E5EEFFEF6E0E7F1EF30110821182128224
:104510001382ECE0F0E06E0E7F1EF3012082318208
:1045200042825382E8EFFFEF6E0E7F1EF30111927D
:104530001192119211923F01108211821282138204
:10454000E8E0F0E06E0E7F1EF3011082EDEBFFEF6E
:104550006E0E7F1EF30111923F011082EAEFFFEF12
:104560006E0E7F1EF30111921192119211923F0172
:104570001082E3E5F0E06E0E7F1E61E0F3016193CF
:1045800011923F0194E09083E8E4FFEF6E0E7F1EEE
:10459000F30125A636A647A650AA21AA32AA43AA05
:1045A00054AA25AA36AA47AA50AE21AE32AE43AECF
:1045B00054AEEDE3F0E06E0E7F1EF30121923192D6
:1045C0004192519221923192419251922192319293
:1045D0004192519221923192419251922192319283
:1045E0004192519221923192419251922192319273
:1045F000419251923F012082318242825382EDE00A
:10460000F0E06E0E7F1EF3016083EAE9FFEF6E0EAD
:104610007F1EF30181A372A334A323A356A345A352
:1046200010A707A3F2A6E1A6D4A6C3A6B582A482CA
:1046300097828682158616861786108A118A128AB4
:10464000138A148A158A168A178A108E118E128E72
:10465000138E148E158E168E178E10A21082118254
:104660001282138210860E940B2EF30183A161E057
:104670000E940B2EF30185A161E00E940B2EF30135
:1046800087A161E00E940B2EF30181A561E00E94E9
:104690000B2EF30183A561E00E940B2E8FEB90E0BF
:1046A000680E791EF30110828EE99FEF680E791E65
:1046B00088EE93E0F301918380838EE590E0680EAD
:1046C000791E8DE297E1F3018193919389EC98E152
:1046D00091838083CF91DF911F910F91FF90EF9095
:1046E000DF90CF90BF90AF909F908F907F906F9012
:1046F0005F904F903F902F900895FC016083089544
:10470000DC01EC9111968C911197E81760F4F0E0C0
:104710003196EE0FFF1FEA0FFB1F0190F081E02D95
:10472000309709F009950895DC0111968C91119745
:10473000681748F4E62FF0E03196EE0FFF1FEA0FFE
:10474000FB1F518340830895CF93DF93DC010296D2
:10475000FC0180E2EF0119928A95E9F71C92613120
:1047600008F060E111966C93DF91CF9108958091EC
:104770001606089570931806609317060895FC01B5
:10478000718760870895FC0144835583668377832E
:104790000895FC01738762870895FC0182859385E3
:1047A0000895FC01808591850895FC0164817581DF
:1047B000868197810895FC0164870895FC018485B2
:1047C00008956115710549F4E0911706F0911806F6
:1047D0003097C9F086E00995089583E08093190623
:1047E00080E090E04FE854E20E94BB100E94031169
:1047F00081E080931606E0911706F0911806309735
:1048000011F085E009950895FC01628573850E9489
:10481000E1230895CF93DF93EB016115710541F416
:10482000E0911706F0911806309719F184E020C046
:1048300080917E0161E00E948E2E80917F0161E077
:104840000E948E2E82E080931906BE0180E090E0E7
:104850004FE854E20E94BB100E94031181E0809354
:104860001606E0911706F0911806309711F083E0D4
:104870000995DF91CF910895FC01608571850E94B3
:104880000A240895EF92FF920F931F93FC017A017F
:104890008B01411551056105710541F4E091170641
:1048A000F0911806309771F182E02BC081E080937F
:1048B00019068485882351F080917E0161E00E9471
:1048C0008E2E80917F0161E00E948E2E80917C016E
:1048D00061E00E948E2E80917D0161E00E948E2E0B
:1048E000C801B7014FE854E20E94BB100E940311B7
:1048F00081E080931606E0911706F0911806309734
:1049000009F009951F910F91FF90EF900895FC0118
:1049100044815581668177810E94422408950E94D6
:104920001911809119068130B1F480917C0160E009
:104930000E948E2E80917D0160E00E948E2E8091DB
:104940007E0160E00E948E2E80917F0160E00E94D7
:104950008E2E82E00FC0823011F086E00BC0809175
:104960007E0160E00E948E2E80917F0160E00E94B7
:104970008E2E84E01092190610921606E09117060A
:10498000F0911806309709F0099508950F931F9339
:104990008C0180917C0161E00E940B2E80917D0151
:1049A00061E00E940B2E80917E0161E00E940B2E3F
:1049B00080917F0161E00E940B2EF801108211822C
:1049C00012821382148681E090E0A0E0B0E0818B37
:1049D000928BA38BB48B168A158616861786108A3F
:1049E000158A84E690E0A0E0B0E084839583A683F6
:1049F000B78311861086138612861F910F91089532
:104A00000E94C6240895FC01EB5AFF4F608308956D
:104A1000FC01DC01A05BBF4F6C9311967C9302807C
:104A2000F381E02D309711F0862F09950895FC0150
:104A30007383628308959C012A5F3F4FC9010895E3
:104A4000FC01EE5AFF4F80810895FB018181308186
:104A500020E0280F311DC9010895FB01818190E0FC
:104A6000A0E0B0E0DC0199278827228130E040E017
:104A700050E0542F432F322F22276381260F311D00
:104A8000411D511D282B392B4A2B5B2BB901CA0123
:104A90000895DF93CF9300D000D0CDB7DEB7FB01F0
:104AA0002181808190E0A0E0B0E0BA2FA92F982F5B
:104AB0008827820F911DA11DB11DDC019927882730
:104AC000228130E040E050E0542F432F322F222744
:104AD0006381260F311D411D511D282B392B4A2B77
:104AE0005B2B29833A834B835C83E22FFA81AB8172
:104AF000BC81BF01CD010F900F900F900F90CF910F
:104B0000DF910895FC01ED5AFF4F80810895FC016B
:104B1000EC5AFF4F80810895FC01EB5AFF4F8081D2
:104B2000E555F040882369F45C9A0480F581E02D16
:104B3000A081B1812D913C91CF01F90109955C983B
:104B400008950480F581E02DA081B1812D913C91E3
:104B5000CF01F90109950895EF92FF920F931F93EA
:104B6000CF93DF93EC01062FF42EE22EFC01ED5AD9
:104B7000FF4F613011F4608301C0108210E0CE015C
:104B800060E00E948C251F5F1530C9F7CE016FEFE2
:104B90000E948C25CE01602F0E948C25CE0160E002
:104BA0000E948C25CE016F2D0E948C25CE016E2D8A
:104BB0000E948C25DF91CF911F910F91FF90EF9074
:104BC0000895DF92EF92FF920F931F93CF93DF939D
:104BD000EC01F62EE42ED22EFC01ED5AFF4F81E0BF
:104BE000681711F4608301C0108210E0CE0160E00C
:104BF0000E948C251F5F1530C9F7CE016FEF0E9410
:104C00008C25CE016F2D0E948C25CE016E2D0E9429
:104C10008C25CE016D2D0E948C25CE01602F0E9427
:104C20008C25DF91CF911F910F91FF90EF90DF9036
:104C30000895FF920F931F938C01F62E672F0E9409
:104C40008C25C8016F2D0E948C251F910F91FF901C
:104C50000895EF92FF920F931F938C017B01672FB2
:104C6000770F770B0E948C25C8016E2D0E948C2532
:104C70001F910F91FF90EF900895CF92DF92EF92E6
:104C8000FF920F931F936C017A018B01212F332721
:104C900044275527622F0E948C25980144275527C9
:104CA000C601622F0E948C255527412F302F2F2DB2
:104CB000C601622F0E948C25C6016E2D0E948C2594
:104CC0001F910F91FF90EF90DF90CF900895CF92BA
:104CD000DF92EF92FF920F931F936C017A018B0189
:104CE000272F552727FD5095352F452F622F0E94DE
:104CF0008C259801552737FD5095452FC601622F09
:104D00000E948C25552717FD5A95412F302F2F2DA6
:104D1000C601622F0E948C25C6016E2D0E948C2533
:104D20001F910F91FF90EF90DF90CF900895FC01BD
:104D3000DC01969690E0953021F08C91882321F04B
:104D40001BC083A58F3FC1F49F5F1196963099F7E2
:104D500024A5208385A58183213011F485E0089561
:104D600030E0E05BFF4F808191812817390711F413
:104D700081E0089584E0089583E00895CF93DF9360
:104D8000EC010BC0EC81FD81A081B1811A962D91BF
:104D90003C911B97CF01F9010995EC81FD81A08120
:104DA000B18114962D913C911597CF01F901099588
:104DB000181619063CF3DF91CF910895CF92DF9238
:104DC000EF92FF920F931F93CF93DF93EC016B0150
:104DD000EC81FD81A081B18114962D913C911597B4
:104DE000CF01F90109951816190604F10E94FF2C4C
:104DF0007B018C010DC00E94FF2C6E197F09800B76
:104E0000910B653671058105910510F082E01CC09B
:104E1000EC81FD81A081B18114962D913C91159773
:104E2000CF01F9010995181619062CF7EC81FD81BF
:104E3000A081B18116962D913C911797CF01F90170
:104E40000995F601808381E0DF91CF911F910F9149
:104E5000FF90EF90DF90CF900895CF92DF92EF9286
:104E6000FF920F931F93CF93DF93EC01CD5ADF4F47
:104E700019921882C455D040EC81FD81A081B18186
:104E800014962D913C911597CF01F90109951816AB
:104E90001906BCF4CE018696FC018AE2DF011D9260
:104EA0008A95E9F700E010E0B8016A5D7F4F6C0F6A
:104EB0007D1FCE010E94DE26813029F0CE010E94A6
:104EC000BE2640E059C00F5F1F4F0A30110561F741
:104ED0008FA51AE0C82EDD24B9E0EB2EF12CEC0CE6
:104EE000FD1C0AC06A5D7F4F6C0F7D1FCE010E94C2
:104EF000DE26813019F71F5F612F70E0E616F70696
:104F00008CF7CE010E949726982F82508230B0F203
:104F1000953039F4CD5ADF4F81E08883C355D040B6
:104F200008C0913031F0CC5ADF4F81E08883C455FE
:104F3000D040CE010E94BE264EA5CE010696FC01B1
:104F400080E2DF011D928A95E9F7FE01EE5AFF4FDC
:104F50001082DE0120E030E00BC09F968C919F977D
:104F600015968C93159780818F5F80832F5F3F4FBD
:104F700011962C153D058CF3842FDF91CF911F9155
:104F80000F91FF90EF90DF90CF900895FC01758313
:104F90006483E05BFF4F419351931082E255F040F0
:104FA000138212828CE161E00E940B2E8CE160E0A2
:104FB0000E948E2E0895FC01EA5AFF4F7183608390
:104FC0000895FC01E65AFF4F718360830895FC0148
:104FD000E85AFF4F718360830895FC01E25AFF4F46
:104FE000808191810895CF92DF92EF92FF920F938B
:104FF0001F93CF93DF936C01102F0E94E125C0E037
:10500000D0E0012F10E008C0F701EC0FFD1FC60132
:1050100060810E948C252196C017D107ACF3DF91E7
:10502000CF911F910F91FF90EF90DF90CF90089557
:10503000CF92DF92EF92FF920F931F93CF93DF9364
:105040008C01762F6A0179012F5F60E0472F0E9463
:10505000AC25C80166E00E948C25C0E0D0E008C005
:10506000F601EC0FFD1FC80160810E948C2521967E
:10507000CE15DF05ACF3DF91CF911F910F91FF901B
:10508000EF90DF90CF900895FF920F931F93182F0A
:10509000092F262FF42E60E0422F22E00E94AC253B
:1050A000812F902F60E00E948C25812F902F6F2DF3
:1050B0000E948C251F910F91FF900895462F60E06C
:1050C00020E00E94AC250895CF92DF92EF92FF92EC
:1050D0000F931F93D82EC92E762F79018A0160E095
:1050E000472F25E00E94AC258D2D9C2D65E00E9468
:1050F0008C25C801B7010E940440AB01BC018D2D75
:105100009C2D0E943D261F910F91FF90EF90DF9004
:10511000CF900895CF92DF92EF92FF920F931F935B
:10512000D82EC92E762F79018A0160E0472F25E01D
:105130000E94AC258D2D9C2D64E00E948C258D2D28
:105140009C2DB801A7010E943D261F910F91FF9051
:10515000EF90DF90CF900895CF92DF92EF92FF9281
:105160000F931F93D82EC92E762F79018A0160E004
:10517000472F25E00E94AC258D2D9C2D63E00E94D9
:105180008C258D2D9C2DB801A7010E9467261F91AB
:105190000F91FF90EF90DF90CF900895EF92FF92E4
:1051A0000F931F93182F092F262F7A0160E0422FAB
:1051B00023E00E94AC25812F902F62E00E948C2575
:1051C000812F902FB7010E9429261F910F91FF90E8
:1051D000EF900895EF92FF920F931F93182F092FCE
:1051E000262F7A0160E0422F23E00E94AC25812F18
:1051F000902F61E00E948C25812F902FB7010E9493
:1052000019261F910F91FF90EF900895CF93DF9390
:10521000EC01FB018081823079F0833018F4813019
:1052200049F505C0833099F0843021F51BC0CE01CB
:1052300061E041E050E013C0CE010E94ED27AC01D7
:10524000CE0161E028E030E00E94182817C0C45A5F
:10525000DF4F48815981CC55D040CE0161E00E949A
:10526000EA280CC06181CE0170E00E940825CE01C1
:1052700061E002C0CE0160E00E945E28DF91CF9124
:105280000895AF92BF92CF92DF92EF92FF920F9369
:105290001F93CF93DF93EC01E82ECD2E0E942D2794
:1052A000A82E882309F447C0CE010E9487258823B1
:1052B000B9F0C85ADF4FC880D980C855D040E880BF
:1052C000B980CE010E942025F82ECE010E941B2518
:1052D0008C018E2D6B2D4A2D2F2DF60109950FC0B7
:1052E000CE010E948225882391F581E0A81679F5E8
:1052F000CE010E941B25BC01CE010E940629AA24D2
:105300001AC08E2D9C2D0E948225882341F106C053
:105310008E2D9C2D0E948225882369F4F80100813E
:105320001181F9808E2D9C2D0E941B25AC018F2DA3
:105330006A2DF80109958A2DDF91CF911F910F9168
:10534000FF90EF90DF90CF90BF90AF9008958E01C7
:10535000065A1F4FF80180819181892B91F68E01A9
:105360000A5A1F4FF80180819181892B89F6E3CF7A
:10537000CF92DF92EF92FF920F931F937C0169010E
:105380000E94C62786E590E0E80EF91EF70111821B
:10539000108286E090E0E80EF91EF701C192D192EA
:1053A00000831183F80120E09081892F80528F358E
:1053B00008F090E391932F5F2830B1F71F910F9180
:1053C000FF90EF90DF90CF900895DF92EF92FF92E1
:1053D0000F931F93CF93DF93EC019B01D42E809109
:1053E000800181112396BE0179010BC08B010F5FF3
:1053F0001F4F8DE595E00E946A12F70181937F01AE
:10540000B801862F8C1B8D1588F3DF91CF911F91EA
:105410000F91FF90EF90DF90089542E00E94E52900
:105420000895DF93CF9300D0CDB7DEB71A821982EB
:105430001092800181E090E0BE016F5F7F4F0E947B
:105440000D2A81E08093800189819A810F900F90CD
:10545000CF91DF9108958DE595E060E070E00E94C6
:105460006A1290E0882309F491E0892F089541E0C1
:1054700048278DE595E060E070E00E947112089584
:10548000DF92EF92FF920F931F93CF93DF93EC0184
:105490009B01D42E8091800181112396BE01790158
:1054A0000BC08B010F5F1F4FF70141917F018DE50D
:1054B00095E00E947112B801862F8C1B8D1588F320
:1054C00081E00E94372ADF91CF911F910F91FF90C9
:1054D000EF90DF90089542E00E94402A0895DF9304
:1054E000CF9300D0CDB7DEB79A8389831092800125
:1054F00081E090E0BE016F5F7F4F0E946B2A81E0E8
:10550000809380010F900F90CF91DF9108958830A4
:1055100008F078C0E82FF0E0EE0FFF1FE65EF94FCD
:10552000718360838330D9F0843030F4813009F4A2
:1055300044C0823060F439C0853051F18530D8F0F4
:10554000863009F446C0873009F05CC04FC08091B6
:1055500069008C7F842B80936900E89A089580917C
:105560006900440F551F440F551F837F842B809380
:105570006900E99A08958091690074E0440F551F0D
:105580007A95E1F78F7C842B80936900EA9A0895DD
:105590008091690066E0440F551F6A95E1F78F73AB
:1055A000842B80936900EB9A089580916A008C7F28
:1055B000842B80936A00EC9A089580916A00440FCE
:1055C000551F440F551F837F842B80936A00ED9AEB
:1055D000089580916A0024E0440F551F2A95E1F751
:1055E0008F7C842B80936A00EE9A089580916A00E4
:1055F00096E0440F551F9A95E1F78F73842B8093A3
:105600006A00EF9A0895883048F5833091F084302D
:1056100028F48130B1F0823050F411C0853069F047
:10562000853048F0863079F0873081F40EC0E898F4
:105630000DC0E9980BC0EA9809C0EB9807C0EC9838
:1056400005C0ED9803C0EE9801C0EF98E82FF0E098
:10565000EE0FFF1FE65EF94F1182108208951F9230
:105660000F920FB60F920BB60F9211242F933F9308
:105670004F935F936F937F938F939F93AF93BF935A
:10568000EF93FF9380911E0690911F06892B29F0BE
:10569000E0911E06F0911F060995FF91EF91BF91D1
:1056A000AF919F918F917F916F915F914F913F91BA
:1056B0002F910F900BBE0F900FBE0F901F9018955B
:1056C0001F920F920FB60F920BB60F9211242F93C9
:1056D0003F934F935F936F937F938F939F93AF937A
:1056E000BF93EF93FF938091200690912106892B21
:1056F00029F0E0912006F09121060995FF91EF91A4
:10570000BF91AF919F918F917F916F915F914F91D9
:105710003F912F910F900BBE0F900FBE0F901F90D7
:1057200018951F920F920FB60F920BB60F9211247D
:105730002F933F934F935F936F937F938F939F9399
:10574000AF93BF93EF93FF9380912206909123062E
:10575000892B29F0E0912206F09123060995FF910B
:10576000EF91BF91AF919F918F917F916F915F91D9
:105770004F913F912F910F900BBE0F900FBE0F9046
:105780001F9018951F920F920FB60F920BB60F92A3
:1057900011242F933F934F935F936F937F938F9336
:1057A0009F93AF93BF93EF93FF93809124069091C3
:1057B0002506892B29F0E0912406F091250609950C
:1057C000FF91EF91BF91AF919F918F917F916F91D9
:1057D0005F914F913F912F910F900BBE0F900FBE95
:1057E0000F901F9018951F920F920FB60F920BB645
:1057F0000F9211242F933F934F935F936F937F9357
:105800008F939F93AF93BF93EF93FF9380911A066B
:1058100090911B06892B29F0E0911A06F0911B0646
:105820000995FF91EF91BF91AF919F918F917F91DA
:105830006F915F914F913F912F910F900BBE0F9001
:105840000FBE0F901F9018951F920F920FB60F92D8
:105850000BB60F9211242F933F934F935F936F9347
:105860007F938F939F93AF93BF93EF93FF93809119
:105870001C0690911D06892B29F0E0911C06F091E1
:105880001D060995FF91EF91BF91AF919F918F9167
:105890007F916F915F914F913F912F910F900BBE30
:1058A0000F900FBE0F901F9018951F920F920FB67A
:1058B0000F920BB60F9211242F933F934F935F9348
:1058C0006F937F938F939F93AF93BF93EF93FF93C8
:1058D0008091260690912706892B29F0E0912606D3
:1058E000F09127060995FF91EF91BF91AF919F919C
:1058F0008F917F916F915F914F913F912F910F9079
:105900000BBE0F900FBE0F901F9018951F920F9215
:105910000FB60F920BB60F9211242F933F934F9314
:105920005F936F937F938F939F93AF93BF93EF9307
:10593000FF938091280690912906892B29F0E09108
:105940002806F09129060995FF91EF91BF91AF913B
:105950009F918F917F916F915F914F913F912F9187
:105960000F900BBE0F900FBE0F901F9018951F92B7
:105970000F920FB60F9211242F933F938F939F9303
:10598000AF93BF9380912E0690912F06A091300681
:10599000B0913106309132060196A11DB11D232F21
:1059A0002D5F2D3720F02D570196A11DB11D20939D
:1059B000320680932E0690932F06A0933006B09364
:1059C000310680912A0690912B06A0912C06B09169
:1059D0002D060196A11DB11D80932A0690932B06DA
:1059E000A0932C06B0932D06BF91AF919F918F91FC
:1059F0003F912F910F900FBE0F901F9018958FB76A
:105A0000F89420912E0630912F0640913006509147
:105A100031068FBFB901CA0108959FB7F89420914C
:105A20002A0630912B0640912C0650912D0686B502
:105A3000A89B06C08F3F21F02F5F3F4F4F4F5F4F16
:105A40009FBF542F432F322F2227280F311D411D76
:105A5000511D82E0220F331F441F551F8A95D1F735
:105A6000B901CA0108959B01AC017FB7F8948091F8
:105A70002A0690912B06A0912C06B0912D0666B5B2
:105A8000A89B05C06F3F19F00196A11DB11D7FBFF6
:105A9000BA2FA92F982F8827860F911DA11DB11D00
:105AA00062E0880F991FAA1FBB1F6A95D1F7BC013E
:105AB0002DC0FFB7F89480912A0690912B06A091F3
:105AC0002C06B0912D06E6B5A89B05C0EF3F19F056
:105AD0000196A11DB11DFFBFBA2FA92F982F8827AE
