:100000000C9403020C94BE3E0C94EF3E0C94203FE3
:100010000C94513F0C94823F0C94B33F0C94E43FFA
:100020000C9415400C942E020C94C34E0C942E028A
:100030000C942E020C942E020C942E020C944B184D
:100040000C942E020C942E020C942E020C942E0270
:100050000C9479180C942E020C942E020C944640A9
:100060000C942E020C9481420C947A440C942E022F
:100070000C942E020C942E020C942E020C942F1A27
:100080000C949C190C94E21A0C942E020C942E02DF
:100090000C942E020C942E02ED0B020C180C290C61
:1000A000410C650C7D0C920CA30CCF0CE00CF30CF6
:1000B0000C0D250D5C0D8C0DB80DF50D0D0E260EDD
:1000C0003F0E580E690E7A0EA60E430FA810A81008
:1000D000A810A810A810A810A810A810A810A81060
:1000E000A810A810A810A810A810A810A810A81050
:1000F000A810A810A810A810A810A810A810A81040
:10010000A810A810A810A810A810A810A810A8102F
:10011000A810A810A810A810A810A810A810A8101F
:10012000A810A810A810A810A810A810A810A8100F
:10013000A810A810A810A810A810A810A810A810FF
:10014000A810A810A810A810A810A810A810A810EF
:10015000A810A810A810A810A810A8106B0F7C0F4A
:100160008D0F9E0FAF0FC00FD10FE20FF70F0910C9
:100170001F10341045105B106C10811092104C123F
:100180004F125312571262126B128A12A612B51234
:10019000C412CB12CF12DA12DE12E712F012F912E9
:1001A00002130E131B132E13FF13FF13FF13FF1362
:1001B000FF13FF13FF13FF13FF13FF13FF13FF13AF
:1001C000FF13FF13FF13FF13FF13FF13FF13FF139F
:1001D000FF13FF13FF13FF13FF13FF13FF13FF138F
:1001E000FF13FF13FF13FF13FF13FF13FF13FF137F
:1001F000FF13FF13FF13FF13FF13FF13FF13FF136F
:10020000FF13FF13FF13FF13FF13FF13FF13FF135E
:10021000FF13FF13FF13FF13FF13FF13FF13FF134E
:10022000FF13FF13FF13FF13FF13FF13FF13FF133E
:10023000FF13FF13FF13FF13FF13FF13FF13FF132E
:10024000FF133E13411345134F13521356135E13FE
:1002500064137A1397139B13A913C413C913CE13F2
:10026000D313DB13DF13F313F81300002100240072
:1002700027002A002D003000000022002500280061
:100280002B002E0031000000200023002600290052
:100290002C002F00010101010101010102020202F3
:1002A000020202020303030303030303040404041E
:1002B00004040404050505050505050506060606EE
:1002C0000606060601020408102040800102040808
:1002D0001020408001020408102040800102040820
:1002E0001020408001020408102040800102040810
:1002F000102040800000000000000000000000000E
:1003000007030401000000000B0A090002080000B6
:1003100000000000000000000000000000000000DD
:10032000000000000001020304050607120110018D
:1003300002000008EB03442001000102030109024E
:100340003E00020100C03209040000010202010067
:1003500005240010010424020605240600010705F7
:1003600082030800FF09040100020A0000000705DB
:1003700004021000050705830210000504030904A8
:100380002E03440079006E0061006D006900630077
:10039000200050006500720063006500700074006A
:1003A00069006F006E0020004C004C00430000000C
:1003B0003C03440079006E0061006D006900630039
:1003C000200050006500720063006500700074003A
:1003D00069006F006E0020004300440043002000CD
:1003E000530065007200690061006C0000000E039C
:1003F0003000300034003500370033000000850342
:10040000354469477E0311241FBECFEFD0E2DEBF23
:10041000CDBF11E0A0E0B1E0EEEAFBEA00E00BBFE7
:1004200002C007900D92AE3DB107D9F71BBE18E090
:10043000AEEDB1E001C01D92AE36B107E1F713E0B9
:10044000C4E0D4E004C02297FE010E94C655CE3F0E
:10045000D107C9F70E9450450C94CA550C9400006E
:1004600080916B0110926B010895813039F08130D9
:1004700018F0823051F406C083E001C082E080931E
:100480006901089581E0809369010895E091A706CC
:10049000F091A806309709F009950895EF92FF9220
:1004A0000F931F93982F80919B06882371F09923B7
:1004B00029F08091A206882309F04CC090E0809139
:1004C0009A06813009F047C017C080916101909170
:1004D0006201A0E0B0E02091140230911502409139
:1004E00016025091170282179307A407B50730F040
:1004F0008091A206882311F491E02DC00E948E40C5
:1005000020919E0630919F064091A0065091A10631
:10051000621B730B840B950BE0906101F0906201FC
:1005200000E010E020911402309115024091160273
:10053000509117022E193F09400B510B6217730798
:100540008407950738F08091A206811181E091E03F
:10055000982701C090E0892F1F910F91FF90EF9095
:1005600008958F929F92AF92BF92CF92DF92EF92B7
:10057000FF920F931F938130910509F09BC06F5F2D
:100580007F4F09F0B0C083E092E00E943238A1B200
:100590008AE192E06DE270E040E150E020E230E07C
:1005A00001E110E0E2E1EE2EF12CB3E1CB2ED12CF3
:1005B000BB24A5E08A2E912C0E94AD34A1B289E221
:1005C00093E06EE270E045E150E024E130E00DE1BF
:1005D00010E0FEE1EF2EF12CEFE1CE2ED12CB6E0B3
:1005E0008B2E912C0E94AD34A1B288E394E06FE28F
:1005F00070E042E250E021E230E00FE010E0ABE2D8
:10060000EA2EF12CFCE2CF2ED12CE7E08E2E912C9D
:100610000E94AD34409152015091530187E495E01E
:1006200068E278E026E030E003E911E00E94473D0F
:1006300087EA95E00E94401C88EA95E067E00E9406
:10064000D63640915201509153018CEC95E06AE40A
:1006500078E026E030E00E94473D10922F0610928D
:100660002E0688EE93E0A0E0B0E0809330069093F1
:100670003106A0933206B093330680EA91E090935E
:100680002D0680932C06409152015091530188E32E
:1006900096E06CE276E026E030E00E94473D0E9462
:1006A0008E406093A3067093A4068093A506909352
:1006B000A60619C0892BB9F46F5F7F4FA1F480EAB9
:1006C00091E090932D0680932C060E946C1B88E38A
:1006D00094E00E949D1C89E293E00E949D1C8AE1A7
:1006E00092E00E949D1C1F910F91FF90EF90DF9070
:1006F000CF90BF90AF909F908F90089580E090E052
:100700006FEF7FEF0E94B102089581E090E06FEFFC
:100710007FEF0E94B1020895A82FFB019A018091FA
:100720006001823041F0833019F0813089F40AC0D1
:100730008CEC95E002C088E396E06A2FAF010E943E
:10074000AB3B089587E495E06A2FAF010E94AB3B75
:100750000895E82F9A01AB0180916001823041F049
:10076000833019F0813079F409C08CEC95E002C037
:1007700088E396E06E2F0E94F73B089587E495E0AA
:100780006E2F0E94F73B0895E82F9A01AB018091EC
:100790006001823041F0833019F0813079F409C072
:1007A0008CEC95E002C088E396E06E2F0E943B3C03
:1007B000089587E495E06E2F0E943B3C0895E82F52
:1007C0009A01AB0180916001823041F0833019F0D1
:1007D000813079F409C08CEC95E002C088E396E0A2
:1007E0006E2F0E94193C089587E495E06E2F0E94B9
:1007F000193C0895282FAB0180916001823041F0AF
:10080000833019F0813079F409C08CEC95E002C096
:1008100088E396E0622F0E945D3C089587E495E0AE
:10082000622F0E945D3C0895282FAB0180916001EA
:10083000823041F0833019F0813079F409C08CECBA
:1008400095E002C088E396E0622F0E94793C08950B
:1008500087E495E0622F0E94793C0895282F462F67
:1008600080916001823041F0833019F0813079F459
:1008700009C08CEC95E002C088E396E0622F0E94EC
:10088000D73B089587E495E0622F0E94D73B0895F7
:10089000682F80916001823041F0833019F08130FF
:1008A00069F408C08CEC95E002C088E396E00E94F1
:1008B000F13B089587E495E00E94F13B0895FA0129
:1008C0006A3009F495C06B30D8F4653009F45AC029
:1008D000663048F46330E9F1643008F047C06230B4
:1008E00009F0D5C02FC0673009F467C0673008F43D
:1008F00054C0683009F46CC0693009F0C8C071C0D8
:10090000683609F496C0693680F4653609F482C009
:10091000663620F4643609F0BAC078C0663609F449
:100920007CC0673609F0B3C07FC06A3609F493C053
:100930006A3608F487C06B3609F496C06C3609F045
:10094000A6C099C090E08081811191E09093190236
:100950000BC087E495E0BA010E946738AB01BC0187
:1009600083E092E00E94743781E092C087E495E0D2
:10097000BA010E946738AB01BC0183E092E00E949B
:10098000F536F2CF87E495E0BA010E945F38BC01EA
:1009900083E092E00E94F136E7CF87E495E0BA0168
:1009A0000E945F38A0E0B0E08093100290931102A3
:1009B000A0931202B0931302D7CF87E495E0BA0157
:1009C0000E945F38BC0183E092E00E94FB36CCCFEE
:1009D00060E08081811161E083E092E00E940D3748
:1009E000C3CF90E08081811191E090931802BCCF39
:1009F00087E495E0BA010E9467386093140270930F
:100A000015028093160290931702AECF81E0609199
:100A1000190227C00E94E93622C083E092E00E94BA
:100A20000737AB01BC012FC083E092E00E9403377F
:100A30000DC040911002509111026091120270910C
:100A4000130221C083E092E00E94FF36BC0181E0E6
:100A50000E941404089583E092E00E941037682FEA
:100A600081E00E942E0408956091180281E070E0F8
:100A70000E94FA030895409114025091150260916A
:100A800016027091170281E00E94DF03089580E052
:100A90000E94480408959C01C397C197E0F48AE13D
:100AA00092E060E021E030E040E050E00E94A32FBF
:100AB00089E293E060E021E030E040E050E00E9415
:100AC000A32F88E394E060E021E030E040E050E0D4
:100AD0000E94A32F089525363105D8F08AE192E0CF
:100AE00061E021E030E040E050E00E94A32F89E285
:100AF00093E061E021E030E040E050E00E94A32F6D
:100B000088E394E061E021E030E040E050E00E94C2
:100B1000A32F089541E00E94CF3D089544E00E9434
:100B2000CF3D089542E00E94CF3D08958093520149
:100B30001092530180E090E062E571E00E9492051E
:100B40000895EF92FF920F931F93382F562F742F13
:100B5000E22F780187E495E0632F452F272F0E2F92
:100B60000E94863B1F910F91FF90EF900895EF92A6
:100B7000FF920F931F93382F562F742FE22F780177
:100B800087E495E0632F452F272F0E2F0E94863B89
:100B90001F910F91FF90EF9008958F929F92AF92C7
:100BA000BF92CF92DF92EF92FF920F931F93B82ED6
:100BB000A62E942E822E680188E396E06B2D4A2D96
:100BC000292D082D76010E94863B8CEC95E06B2D3B
:100BD0004A2D292D0E94863B1F910F91FF90EF9087
:100BE000DF90CF90BF90AF909F908F9008958091AD
:100BF0001802882331F08091B506882331F01092D5
:100C0000B50688EA95E066E006C081E08093B50607
:100C100088EA95E064E00E94AF360895843021F4BC
:100C200088EA95E064E00EC0823079F48091F501A5
:100C30009091F60101969093F6018093F50188EA70
:100C400095E065E00E94AF360895863011F40E9469
:100C5000F70508958AE192E00E94181D882361F447
:100C600089E293E00E94181D882331F488E394E020
:100C70000E94181D8823F9F08091E3018823D9F49C
:100C800082E00E9446028AE192E00E945E1DAC0171
:100C900060E070E083EC96E00E94181983EC96E027
:100CA00062E377E02FEF3FEF4FEF5FEF0E942F19E6
:100CB00081E08093E30108959F92AF92BF92CF921B
:100CC000DF92EF92FF920F931F93CF93DF9387EA08
:100CD00095E00E94E51B982E8AE192E00E94C41CD8
:100CE000882309F04FC089E293E00E94C41C882346
:100CF00009F048C088E394E00E94C41C882309F0EE
:100D000041C088EA95E0692D0E94AF3646C0EA9C52
:100D1000E001EB9CD00DFA9CD00D1124C65EDD4F96
:100D2000CE010E94C41C8823F9F0CE010E94291F25
:100D3000892B51F00091F5011091F601CE010E942E
:100D4000291F8017910780F4CE010E941634F60106
:100D50008081882321F488EA95E063E003C088EA73
:100D600095E0692D0E94AF360894E11CF11C8FE0DC
:100D700091E0C80ED91E93E0E916F10441F60E94F5
:100D80002A060BC0A4E3CA2EA2E0DA2EEE24FF242A
:100D9000FFE0AF2EF1E0BF2EBACFDF91CF911F91D0
:100DA0000F91FF90EF90DF90CF90BF90AF909F900A
:100DB00008958F929F92AF92BF92CF92DF92EF925F
:100DC000FF920F931F93DF93CF9300D000D0CDB746
:100DD000DEB7EE24FF241CE0C12ED12CBFE08B2E09
:100DE000B1E09B2E5E010894A11CB11CE89C80011F
:100DF000E99C100DF89C100D1124065E1D4FC801D2
:100E00000E94392AC8010E94EB1E69837A838B8372
:100E10009C83C601B5010E948E050894E11CF11C5B
:100E200081E190E0C80ED91E93E0E916F104F1F6D5
:100E30001092E30181E00E94460283EC96E00E945A
:100E400020190F900F900F900F90CF91DF911F916D
:100E50000F91FF90EF90DF90CF90BF90AF909F9059
:100E60008F900895AF92BF92CF92DF92EF92FF9250
:100E70000F931F93CF93DF932CE1E22E22E0F22E0B
:100E800000E010E09FE0A92E91E0B92E81E0C82E8D
:100E9000D12C0A9DE0010B9DD00D1A9DD00D11247F
:100EA000C65EDD4FCE010E94181D8823A9F0CE0139
:100EB0000E94152ACE010E942B2C882369F09601EE
:100EC000F701008002C0220F331F0A94E2F78091DD
:100ED000F401822B8093F4010F5F1F4F8FE091E0AC
:100EE000E80EF91E03301105A1F681B39091F401CB
:100EF000892B81BB81E090E00E941B4191B38091DE
:100F0000F4018095892381BB1092F4018AE192E07B
:100F10000E94181D882371F489E293E00E94181D35
:100F2000882341F488E394E00E94181D882311F47B
:100F30000E94D906DF91CF911F910F91FF90EF9002
:100F4000DF90CF90BF90AF9008958AE192E00E9429
:100F5000181D882361F489E293E00E94181D8823FC
:100F600031F488E394E00E94181D882311F00E9458
:100F7000D9068AE192E00E940A1E89E293E00E946B
:100F80000A1E88E394E00E940A1E0895CF93DF931F
:100F9000EC0187E2C031D80791F083E1C838D80767
:100FA00071F08FE0C03AD80751F087E0C03DD80714
:100FB00031F083E0C83ED80711F080E010C08AE12C
:100FC00092E0BE010E94331D89E293E0BE010E94BF
:100FD000331D88E394E0BE010E94331D81E0DF9160
:100FE000CF9108950E94FA1780919806865082301A
:100FF00048F460E080916A01882309F461E088E1A7
:101000000E941D42809199068650823048F460E02B
:1010100080916A01882309F461E089E10E941D4200
:101020008091A206863021F488EA95E061E003C051
:1010300088EA95E062E00E94AF3608958CE060E0B7
:101040000E941D4208958CE061E00E941D420895B7
:101050001F93CF93DF93182F863029F4C091650139
:10106000D091660104C0C0916701D0916801809160
:101070009806181711F090E006C088E160916A01A7
:101080000E941D4291E080919906181731F489E180
:1010900060916A010E941D4202C0992369F0BE015D
:1010A00080E090E042EF57E00E949C170E94E41716
:1010B00088EA95E060E009C0163021F488EA95E0FE
:1010C00061E003C088EA95E062E00E94AF36DF91FC
:1010D000CF911F910895FF920F931F93F82E062F23
:1010E000E82FF0E0E856F94F608381E0F816D9F177
:1010F000FF2019F482E00E94923E18E1002329F4B7
:10110000812F60E00E949A4133C006500230E8F01F
:10111000812F60E00E949A41812F61E00E941D4270
:10112000FF2021F081E0F81619F506C04091690111
:1011300082E064E871E105C04091690183E060E804
:1011400071E150E00E94163E13C0812F61E00E94C1
:101150009A4160E080916A01882309F461E0812F5F
:101160000E941D4205C083E00E94923E19E1C6CF55
:101170001F910F91FF90089580E0609198060E9462
:101180006B0881E0609199060E946B0890E0809165
:101190009806843009F491E080919906843009F42E
:1011A00091E090939B06089542E00E94743D08955B
:1011B00044E00E94743D089541E00E94743D08950A
:1011C0002F923F924F925F926F927F928F929F9257
:1011D000AF92BF92CF92DF92EF92FF920F931F9345
:1011E000DF93CF93CDB7DEB761970FB6F894DEBF2C
:1011F0000FBECDBF80E090E062E571E00E94D408B0
:1012000082E090E065E571E04AE00E94743D1A8258
:101210001B821C821D821E821F82188619861A86D6
:101220001B861C861D861E861F86188A198A1982AF
:10123000CC24DD247CE0E72EF12C66E0262E312C38
:101240002C0E3D1E5AE0452E512C4C0E5D1E4EE0DC
:10125000642E712C6C0E7D1E4E010894811C911C15
:101260003FE0A32E31E0B32EC701BE016E5F7F4F7A
:101270000E94D808C7010496B1010E94D808C7018E
:101280000896B2010E94D808C7010C96B3010E94CB
:10129000D808C7014096B4010E94DC08CA9C8001AE
:1012A000CB9C100DDA9C100D1124065E1D4FC80159
:1012B00069810E94162E4A815B816C817D81C80103
:1012C0000E94E31E4E815F8168857985C8010E9476
:1012D000B31E4A855B856C857D85C8010E94C31E4F
:1012E0004E855F8568897989C8010E94D31E08945C
:1012F000C11CD11C81E190E0E80EF91E93E0C916F3
:10130000D10409F0B1CF61960FB6F894DEBF0FBEDD
:10131000CDBFCF91DF911F910F91FF90EF90DF90A4
:10132000CF90BF90AF909F908F907F906F905F9085
:101330004F903F902F9008952F923F924F925F923F
:101340006F927F928F929F92AF92BF92CF92DF92D5
:10135000EF92FF920F931F93DF93CF93CDB7DEB73A
:1013600061970FB6F894DEBF0FBECDBF83E090E06B
:101370000E94FE3D80E090E062E571E00E949205EF
:1013800082E090E065E571E04AE00E94CF3D1A827C
:101390001B821C821D821E821F82188619861A8655
:1013A0001B861C861D861E861F86188A198A19822E
:1013B000CC24DD241CE0E12EF12CB2E02B2E312CCC
:1013C0002C0E3D1EA6E04A2E512C4C0E5D1EFAE05E
:1013D0006F2E712C6C0E7D1EEEE08E2E912C8C0EDD
:1013E0009D1E5E010894A11CB11C8FE091E0C89E77
:1013F0008001C99E100DD89E100D1124065E1D4F50
:10140000C8010E94EB1E6A837B838C839D83C80185
:101410000E94BB1E6E837F8388879987C8010E94C4
:10142000CB1E6A877B878C879D87C8010E94DB1E45
:101430006E877F87888B998BC8010E949E1C898349
:10144000C701B1010E948E05C7010496B2010E9436
:101450008E05C7010896B3010E948E05C7010C9640
:10146000B4010E948E05C7014096B5010E948A050D
:101470000894C11CD11C81E190E0E80EF91E93E0B4
:10148000C916D10409F0B1CF61960FB6F894DEBF4A
:101490000FBECDBFCF91DF911F910F91FF90EF90C5
:1014A000DF90CF90BF90AF909F908F907F906F9084
:1014B0005F904F903F902F9008950E94BA3D8823EF
:1014C00039F00E94A03D039719F40E94E0080895A6
:1014D0000E949C0908958091A9068823A1F489EAB5
:1014E00096E00E945F45892B71F00E948E406093C8
:1014F000B1067093B2068093B3069093B40689EA5E
:1015000096E00E94694580919806873051F080915D
:101510009906873031F088EA95E062E00E94AF36A4
:1015200008958091A206882371F487E08093A20633
:101530000E948E406093B1067093B2068093B3060A
:101540009093B40608950E948E402091B106309188
:10155000B2064091B3065091B406621B730B840B24
:10156000950B209163013091640140E050E0261713
:1015700037074807590728F41092A20687E00E940F
:1015800028080895CF92DF92EF92FF920F931F9356
:10159000CF93DF9387EA95E00E941C1C00E010E0E7
:1015A000EE24FF248FE0C82E81E0D82EEC9CE001D1
:1015B000ED9CD00DFC9CD00D1124C65EDD4FCE01FC
:1015C0000E94C41C8823A9F0CE010E94291F892BE8
:1015D00081F00115110531F0CE010E94291F8017FD
:1015E000910718F0E114F10421F4CE010E94291FA3
:1015F0008C010894E11CF11C83E0E816F104B1F6BB
:10160000101611066CF48091F5019091F6010817FF
:10161000190730F088EA95E061E00E94AF3602C019
:101620000E945C06DF91CF911F910F91FF90EF9088
:10163000DF90CF9008950F931F9308EA15E0C8013B
:1016400061E048E851E10E94C636C80162E042EC20
:101650005AE00E94C636C80163E041EB54E10E94A3
:10166000C636C80164E040E55BE00E94C636C801AA
:1016700065E046E45BE00E94C636C80166E04BE6E2
:101680005AE00E94C6361F910F91089588EA95E0AE
:1016900060E00E94AF3683E092E00E943637089502
:1016A00088EA95E060E00E94AF3683E092E00E9415
:1016B000B9370895FF920F931F93CF93DF93F82EBE
:1016C0008B01C0E0D0E015C08F2D61E00E941D426B
:1016D0006AEF70E080E090E00E94C2408F2D60E0F1
:1016E0000E941D426AEF70E080E090E00E94C240DC
:1016F0002196C017D10744F3DF91CF911F910F912D
:10170000FF900895EF92FF920F931F93CF93DF9373
:101710000E948E406093E8017093E9018093EA0192
:101720009093EB0181E08093EC0100E010E09FE0FA
:10173000E92E91E0F92E0E9DE0010F9DD00D1E9D2A
:10174000D00D1124C65EDD4FCE010E94C41C88233B
:1017500021F0CE0160E00E942F1F0F5F1F4F03306A
:10176000110549F78091ED01813031F48CE060E0A2
:101770000E941D421092ED0187EA95E00E94E51B50
:10178000882329F088EA95E061E00E94AF36DF9176
:10179000CF911F910F91FF90EF9008956F927F92DC
:1017A0008F929F92AF92BF92CF92DF92EF92FF9271
:1017B0000F931F93CF93DF93082FDA0170E0FB01A3
:1017C0003297E337F10508F0C3C4E45BFF4FEE0F37
:1017D000FF1F0590F491E02D099490E001972FE010
:1017E00031E0829FA001839F500D929F500D1124E4
:1017F000465E5D4F60E08C91811161E0CA010E94FC
:101800005B2A14C090E001972FE031E0829FA00195
:10181000839F500D929F500D1124465E5D4F60E0F6
:101820008C91811161E0CA010E94BF1C81E091C4CA
:1018300090E001972FE031E0AC01429FC001439F4F
:10184000900D529F900D1124865E9D4F0E94392A63
:10185000EDCF87E495E0BA010E945F38BC01802F8C
:1018600090E001972FE031E0FC01E29FC001E39F8F
:10187000900DF29F900D1124865E9D4F0E94B91C21
:10188000D5CF6C916093E20110E0015010408FE0E1
:1018900091E09C01029FC001039F900D129F900D4B
:1018A00011240F5F1F4F865E9D4F0E94162EC801A8
:1018B00054E0880F991F5A95E1F7800F911F0B96FE
:1018C00062EE71E00E948A05B1CF87E495E0BA012B
:1018D0000E945F38BC01802F90E001972FE031E03B
:1018E000AC01429FC001439F900D529F900D112467
:1018F000865E9D4F0E94711D99CF90E001972FE069
:1019000031E0829FA001839F500D929F500D1124C2
:10191000465E5D4F60E08C91811161E0CA010E94DA
:10192000652A84CF90E001972FE031E0FC01E29F2F
:10193000C001E39F900DF29F900D1124865E9D4F94
:101940000E94611EC5C210E0015010408FE091E07E
:10195000089F7001099FF00C189FF00C11240F5F75
:101960001F4F2AE132E0E20EF31EC7010E94EB1E78
:10197000AB01BC014093DE015093DF016093E001B5
:101980007093E101C7010E94B31EC80144E0880FB3
:10199000991F4A95E1F7800F911F0197B8C090E019
:1019A00001972FE031E0AC01429FC001439F900DB1
:1019B000529F900D1124865E9D4F0E945C3210C094
:1019C00090E001972FE031E0FC01E29FC001E39F2E
:1019D000900DF29F900D1124865E9D4F0E94303233
:1019E0000E942A0623CF87E495E0BA010E94B3380B
:1019F000AB01BC01802F90E001972FE031E0FC01AA
:101A0000E29FC001E39F900DF29F900D1124865E2E
:101A10009D4F0E94881D0ACF87E495E0BA010E947D
:101A2000B338AB01BC01802F90E001972FE031E08B
:101A3000FC01E29FC001E39F900DF29F900D1124E5
:101A4000865E9D4F0E94E21CF1CEFA01A19087E4D0
:101A500095E0BF010E9467386B017C01611571053B
:101A60008105910591F4802F90E001972FE031E0FE
:101A7000AC01429FC001439F900D529F900D1124D5
:101A8000865E9D4F61E00E94D81C802F90E00197F8
:101A90002FE031E0829FA001839F500D929F500D57
:101AA0001124465E5D4F60E0A11061E0CA01A7010C
:101AB00096010E94A32F94CF87E495E0BA010E947B
:101AC0008338AB01BC014093DE015093DF0160938A
:101AD000E0017093E10110E0015010408FE091E0CF
:101AE000FC010E9FC0010F9F900D1E9F900D1124B1
:101AF0000F5F1F4F865E9D4F0E94C31EC80134E0DA
:101B0000880F991F3A95E1F7800F911F03966EEDAC
:101B100071E00E948E058ACE87E495E0BA010E94AA
:101B20008338AB01BC014093DE015093DF01609329
:101B3000E0017093E10110E0015010408FE091E06E
:101B40009C01029FC001039F900D129F900D1124D4
:101B50000F5F1F4F865E9D4F0E94D31EC80124E079
:101B6000880F991F2A95E1F7800F911F0796CFCF15
:101B70004C91413081F490E001972FE031E0AC01CD
:101B8000429FC001439F900D529F900D1124865E8D
:101B90009D4F64E011C0423091F490E001972FE036
:101BA00031E0FC01E29FC001E39F900DF29F900D98
:101BB0001124865E9D4F65E00E94D11D37CE4330D3
:101BC00081F490E001972FE031E0AC01429FC00129
:101BD000439F900D529F900D1124865E9D4F66E0AD
:101BE000EBCF80E00E94480421CE87E495E0BA0163
:101BF0000E945738BC01802F90E001972FE031E020
:101C0000FC01E29FC001E39F900DF29F900D112413
:101C1000865E9D4F0E94231F09CE87E495E0BA019E
:101C20000E946738AB01BC01802F90E001972FE044
:101C300031E0FC01E29FC001E39F900DF29F900D07
:101C40001124865E9D4F0E94FF1EF0CD87E495E033
:101C5000BA010E946738AB01BC01802F90E0019768
:101C60002FE031E0FC01E29FC001E39F900DF29F65
:101C7000900D1124865E9D4F0E940B1FD7CD87E4E7
:101C800095E0BA010E946738AB01BC01802F90E05B
:101C900001972FE031E0FC01E29FC001E39F900D2E
:101CA000F29F900D1124865E9D4F0E94171FBECD9E
:101CB00090E001972FE031E0AC01429FC001439FCB
:101CC000900D529F900D1124865E9D4F0E944F32C1
:101CD00087CE90E001972FE031E0FC01E29FC00148
:101CE000E39F900DF29F900D1124865E9D4F0E9400
:101CF000423276CE90E001972FE031E0829FE00102
:101D0000839FD00D929FD00D1124C65EDD4F8C8D28
:101D1000882309F41EC20E948E4020911402309143
:101D200015024091160250911702621B730B840B2F
:101D3000950B60939E0670939F068093A0069093E8
:101D4000A10681E08C830E94820B70CD90E0019708
:101D50002FE031E0829FE001839FD00D929FD00D54
:101D60001124C65EDD4F8C8D882309F4F2C1CE01AB
:101D70000E94291F892B09F4EFC10091F5011091F0
:101D8000F601CE010E94291F0817190708F0E4C1C7
:101D90000AC001979093F6018093F501CE010E944D
:101DA0002F330E942A0660901402709015028090D2
:101DB00016029090170283E092E00E9407375B01C1
:101DC0006C0183E092E00E9403377C0183E092E0A3
:101DD0000E94FF3600E010E0A0E0B0E0E80EF91E3F
:101DE0000A1F1B1FEA0CFB1C0C1D1D1DE614F7042B
:101DF0000805190548F4209114023091150240910C
:101E00001602509117021CC083E092E00E9407372F
:101E10006B017C0183E092E00E9403378C0183E038
:101E200092E00E94FF36980140E050E0A0E0B0E070
:101E3000280F391F4A1F5B1F2C0D3D1D4E1D5F1DB6
:101E40008091E4019091E501A091E601B091E70154
:101E500082179307A407B50768F0821B930BA40BA6
:101E6000B50B8093E4019093E501A093E601B09354
:101E7000E701DCCC1092E4011092E5011092E6013A
:101E80001092E701D3CC90E001972FE031E0829FE0
:101E90008001839F100D929F100D1124065E1D4F2F
:101EA000C8010E94611EC80140E050E060E070E09F
:101EB0000E94B31EC80140E050E060E070E00E9464
:101EC000C31EC80140E050E060E070E00E94D31EF5
:101ED0000E949C09ABCC90E001972FE031E0AC016F
:101EE000429FC001439F900D529F900D1124865E2A
:101EF0009D4F0E94C41CB3C090E001972FE031E0D9
:101F0000FC01E29FC001E39F900DF29F900D112410
:101F1000865E9D4F0E94B31CEFC090E001972FE0BA
:101F200031E0AC01429FC001439F900D529F900D44
:101F30001124865E9D4F0E949E1C91C090E00197E7
:101F40002FE031E0FC01E29FC001E39F900DF29F82
:101F5000900D1124865E9D4F0E94A31C80C090E0CE
:101F600001972FE031E0AC01429FC001439F900DEB
:101F7000529F900D1124865E9D4F0E942D1DBCC066
:101F800090E001972FE031E0FC01E29FC001E39F68
:101F9000900DF29F900D1124865E9D4F0E94BB1EF6
:101FA00084C090E001972FE031E0AC01429FC00176
:101FB000439F900D529F900D1124865E9D4F0E946D
:101FC000EB1E73C090E001972FE031E0FC01E29F2F
:101FD000C001E39F900DF29F900D1124865E9D4FEE
:101FE0000E94181D682F81E070E00E94FA03802F84
:101FF00090E001972FE031E0AC01429FC001439F88
:10200000900D529F900D1124865E9D4F0E94CE1C14
:1020100010C090E001972FE031E0FC01E29FC00189
:10202000E39F900DF29F900D1124865E9D4F0E94BC
:102030000A1DAB01BC0181E00E94A90395C090E09C
:1020400001972FE031E0AC01429FC001439F900D0A
:10205000529F900D1124865E9D4F0E94051E682F91
:1020600081E00E942E0480C090E001972FE031E0D3
:10207000FC01E29FC001E39F900DF29F900D11249F
:10208000865E9D4F0E94CB1E10C090E001972FE00E
:1020900031E0AC01429FC001439F900D529F900DD3
:1020A0001124865E9D4F0E94DB1EAB01BC0181E0C6
:1020B0000E94C40359C090E001972FE031E0FC0179
:1020C000E29FC001E39F900DF29F900D1124865E68
:1020D0009D4F0E94051F36C090E001972FE031E030
:1020E000AC01429FC001439F900D529F900D11245F
:1020F000865E9D4F0E94291FBC0181E00E9414044E
:1021000033C090E001972FE031E0FC01E29FC00175
:10211000E39F900DF29F900D1124865E9D4F0E94CB
:10212000111F10C090E001972FE031E0AC01429FF9
:10213000C001439F900D529F900D1124865E9D4FCC
:102140000E941D1FAB01BC0181E00E94DF030CC097
:1021500080E00E94480408C08091F5019091F6014A
:10216000009709F016CE1ACEDF91CF911F910F91F3
:10217000FF90EF90DF90CF90BF90AF909F908F90A7
:102180007F906F9008951F93182F0E94D9061130E9
:1021900091F41092E4011092E5011092E601109280
:1021A000E7011092F6011092F5011092350210929B
:1021B0004403109253041092EC010E94A5070E9460
:1021C000C1371F9108951F93182F0E948E402091B0
:1021D000A3063091A4064091A5065091A606621B65
:1021E000730B840B950B6E5E72408040904008F438
:1021F00085C00E948E406093A3067093A4068093CE
:10220000A5069093A606E12FF0E0E856F94F8081ED
:102210008130B1F0883041F48091EC01813009F0D7
:102220006DC00E94D9066AC0823031F0833059F403
:102230008091EC01882321F081E00E94C3105EC0F0
:102240000E94820B5BC0843021F481E080939A0667
:1022500055C0853001F58AE192E00E94A31C11E08F
:10226000682F61278AE192E00E94652A89E293E063
:102270000E94A31C682F612789E293E00E94652ACF
:1022800088E394E00E94A31C182788E394E0612F60
:102290000E94652A33C0893079F40E94D9068AE108
:1022A00092E00E94611E89E293E00E94611E88E331
:1022B00094E00E94611E22C08A3001F50E94D90676
:1022C0008AE192E00E94EB1EAB01BC018AE192E040
:1022D0000E941D1D89E293E00E94EB1EAB01BC0130
:1022E00089E293E00E941D1D88E394E00E94EB1EAA
:1022F000AB01BC0188E394E00E941D1D1F9108956D
:1023000081E00E94E310089580E00E94E3100895A8
:10231000209110023091110240911202509113024B
:10232000211531054105510559F08091F501909134
:10233000F601A0E0B0E082179307A407B507D0F438
:1023400080911902882309F07EC08AE192E00E9400
:10235000321F882309F477C089E293E00E94321F7C
:10236000882309F470C088E394E00E94321F882318
:1023700009F469C081E00E94C310089580919A0613
:10238000882309F46DC080919806863029F08091E9
:102390009906863009F05DC081E00E944E028823D4
:1023A00009F457C086E08093A2060E942808089589
:1023B0000E948E4020919E0630919F064091A0067B
:1023C0005091A106621B730B840B950B2091140294
:1023D000309115024091160250911702621773074F
:1023E00084079507E8F180911902882381F488EA2F
:1023F00095E062E00E94AF360E948E4060939E0698
:1024000070939F068093A0069093A10608950E9462
:10241000E936882329F588EA95E060E00E94AF3626
:102420001092A20610929A060E948E4060939E0619
:1024300070939F068093A0069093A10683E092E09C
:102440000E946E37089580919B06882309F096CFED
:102450009ACF87EA95E00E94E51B882321F2A8CF56
:1024600008950E94C1370E94D9061092EC01089588
:102470000F931F93CF93DF93EB0190E0FC01329712
:10248000E637F10508F0BBC1E154FF4FEE0FFF1F27
:102490000590F491E02D09940E94820B02C00E94E5
:1024A000311281E0ADC181E00E94C310FACF888172
:1024B0008093F301882319F40E941E08F2CF0E9432
:1024C0002308EFCF60E08881811161E087EA95E021
:1024D0000E94931CE6CF8AE0E5E5F1E0DF011D9262
:1024E0008A95E9F780E090E0FE01E80FF91F20816E
:1024F000222321F0FC01EB5AFE4F208301968B3002
:10250000910591F782E090E065E571E04AE00E9474
:10251000CF3DC7CF6881623008F471C1609352012A
:102520001092530187E495E070E00E943A38609180
:1025300052017091530188E396E00E943A3880E09E
:1025400090E062E571E00E949205ABCF8881833014
:1025500020F080E00E944804A4CF882319F40E9450
:102560002F1C9FCF0E945B1C9CCF8AE192E00E94AF
:102570005C3289E293E00E945C3288E394E00E943E
:102580005C320E942A068DCF87E495E00E945F3876
:102590000E94C60786CF88810E94350208C080E06D
:1025A00068810E946B0881E069810E946B080E942B
:1025B000BC0877CF88818093EE0173CF87E495E0E4
:1025C0000E945F389093620180936101F0CF87E4AD
:1025D00095E00E945F389093640180936301E7CF98
:1025E00087E495E00E945F389093660180936501CF
:1025F000DECF87E495E00E945F3890936801809376
:102600006701D5CF6881613019F460936A0149CFC1
:10261000662309F0F4C010926A0143CF87E495E085
:102620000E9467386093F7017093F8018093F90175
:102630009093FA0136CF87E495E00E94673828EE40
:1026400033E040E050E00E9454556093FB017093EA
:10265000FC018093FD019093FE0123CF8AE192E07B
:1026600068810E94F51E89E293E068810E94F51E50
:1026700088E394E068810E94F51E13CF81E066E054
:10268000BBC081E06091EC01B7C04091E401509182
:10269000E5016091E6017091E70181E0A1C00E942F
:1026A000E936A8C081E060915401A6C081E065E5EB
:1026B00071E04AE050E00E948C03A4C08AE192E0FD
:1026C0000E94631DBC0173C08AE20E946B41AA276D
:1026D00097FDA095BA2FBC01CD010E943D5420E08A
:1026E00030EC4FE754E40E94A25320E030E048EC85
:1026F00051E415C089E20E946B41AA2797FDA0957D
:10270000BA2FBC01CD010E943D5420E030EC4FE7D0
:1027100054E40E94A25320E030E040EA50E40E94DA
:10272000F154AB01BC0181E00E94A9036BC081E0C0
:102730006091690161C09091980680E0609199066E
:1027400070E0682B792B70939D0660939C0681E066
:1027500018C010929D0610929C0688E10E9450427B
:10276000182F00E010939D0600939C0689E10E94BB
:102770005042082B192B10939D0600939C0681E074
:10278000B8010E94FA033EC060916101709162013C
:102790000EC0609163017091640109C06091650190
:1027A0007091660104C0609167017091680181E0D9
:1027B0000E94140427C081E060916A011DC06091ED
:1027C000FB017091FC018091FD019091FE0128EECA
:1027D00033E040E050E00E94875581E0BA01A90152
:1027E0000E94DF030FC08AE192E00E94FC1E02C03B
:1027F0000E943002682F81E00E942E0403C080E016
:102800000E944804DF91CF911F910F9108950F937B
:102810001F93CF93DF93182F062FEA010E948E405B
:102820006093EF017093F0018093F1019093F201B6
:10283000143018F4113048F403C0143091F40BC074
:10284000802FBE010E9438120FC0812F602FAE0171
:102850000E94CE0B09C084E0602FAE010E945F048D
:1028600003C080E00E944804DF91CF911F910F9137
:10287000089593E0909360010E9407140895EF92E9
:10288000FF920F931F93F82EE62E8A0182E0809329
:1028900060010E948E406093EF017093F00180937D
:1028A000F1019093F2018F2D6E2DA8010E94071463
:1028B0001F910F91FF90EF900895EF92FF920F9369
:1028C0001F93F82EE62E8A0181E0809360010E941A
:1028D0008E406093EF017093F0018093F10190932B
:1028E000F2018F2D6E2DA8010E9407141F910F91E8
:1028F000FF90EF900895FA01623069F0633018F4A8
:10290000613071F505C0633051F0643049F50AC09B
:102910000E94820B089581E00E94C31008950E94D6
:102920003112089540814230D8F040935201109204
:1029300053010E949C09609152017091530187E4F8
:1029400095E00E943A38609152017091530188E3FA
:1029500096E00E943A388CE065E070E00E945A0BE5
:102960000895EF92FF920F931F93CF93DF9304E3A9
:1029700012E0C0E0D0E06FE0E62E61E0F62EF80154
:102980008081882371F5CE9DC001CF9D900DDE9D85
:10299000900D1124865E9D4F0E94181D882309F119
:1029A00027C087EA95E00E94E51B8823A1F088EA0A
:1029B00095E061E00E94AF3680911E02813041F0C7
:1029C00080912D03813021F080913C04813081F48D
:1029D0000E9431120DC088EA95E060E00E94AF3697
:1029E00007C02196015F1E4FC330D10541F6D9CFF4
:1029F000DF91CF911F910F91FF90EF9008958091FB
:102A0000EC01882319F00E94311208950E94D90622
:102A10000895EF92FF920F931F93CF93DF938AE471
:102A200098E00E94E547892B31F081E090E0909397
:102A3000CB058093CA0587E495E00E94D03C88E3EB
:102A400096E00E94D03C8CEC95E00E94D03C0E9425
:102A50008E402091FF01309100024091010250917F
:102A60000202621B730B840B950B655F7140804003
:102A7000904008F475C08AE498E060E071E00E943C
:102A8000B04688E394E00E94EB1EAB01BC018AE4EF
:102A900098E02AE030E00E944D468AE498E06FE03A
:102AA00071E00E94B04688E394E00E94CE1CAB0126
:102AB000BC018AE498E022E030E00E9449478AE4C1
:102AC00098E063E271E00E94B04688E394E00E94DF
:102AD000B31CBC018AE498E04AE050E00E943C4606
:102AE0008AE498E06FE271E00E94B04688E394E0E7
:102AF0000E94CB1EAB01BC018AE498E02AE030E0E2
:102B00000E944D468AE498E06BE371E00E94B04673
:102B100088E394E00E94DB1EAB01BC018AE498E0EC
:102B20002AE030E00E944D468AE498E066E471E0D5
:102B30000E94B04688E394E00E94BB1EAB01BC013A
:102B40008AE498E02AE030E00E9489460E948E40A4
:102B50006093FF0170930002809301029093020240
:102B60008AE192E00E94181D882361F489E293E0D3
:102B70000E94181D882331F488E394E00E94181DF8
:102B80008823C9F08091EE018823A9F00E948E402D
:102B90002091EF013091F0014091F1015091F2014B
:102BA000621B730B840B950B695E734080409040F1
:102BB00010F00E94D90600E010E07FE0E72E71E0FF
:102BC000F72E0E9DE0010F9DD00D1E9DD00D1124FE
:102BD000C65EDD4FCE010E94181D882319F0CE017C
:102BE0000E94C82B0F5F1F4F0330110551F78091D2
:102BF000EC01882309F47BC00E948E402091E401FF
:102C00003091E5014091E6015091E701E090E80143
:102C1000F090E9010091EA011091EB012E193F09B2
:102C2000400B510B260F371F481F591F2093E401FB
:102C30003093E5014093E6015093E7016093E8018A
:102C40007093E9018093EA019093EB018091ED018B
:102C5000813011F40E94C31087EA95E00E94E51BC1
:102C60008823E9F02091F7013091F8014091F901B2
:102C70005091FA01211531054105510581F08091EE
:102C8000E4019091E501A091E601B091E7012817D8
:102C900039074A075B0718F481E00E94C31087EAEE
:102CA00095E00E94E51B882349F40E94E81B8823D5
:102CB00029F088EA95E061E00E94AF362091E401B6
:102CC0003091E5014091E6015091E7018091FB01CF
:102CD0009091FC01A091FD01B091FE0128173907E8
:102CE0004A075B0720F088EA95E00E94B236DF9140
:102CF000CF911F910F91FF90EF900895EF92FF9267
:102D00000F931F93CF93DF938AE498E040E855E256
:102D100060E070E00E94EC4764E670E080E090E0E4
:102D20000E94C24063E876E080E090E00E94821B4F
:102D30000E948E406093FF01709300028093010215
:102D4000909302028CE061E00E949A4180E061E091
:102D50000E949A4180E061E00E941D428AE260E0A8
:102D60000E949A4189E260E00E949A410E941B0BF6
:102D700088EA95E060E00E94AF3687EA95E061E07E
:102D80000E94931C8BE495E00E94E01B83E092E09C
:102D900048E750E060E070E00E94F53683E092E0A2
:102DA00060E070E00E94FB3683E092E060E070E05B
:102DB0000E94F13683E092E06EE076E00E94EC360D
:102DC00088E298E040E051EE60E070E00E94F64258
:102DD000609152017091530187E495E00E943A3866
:102DE00087E495E06DE574E10E946E3B87E495E031
:102DF0006DEC75E00E947A3B87E495E06BE774E147
:102E00000E94743B87E495E060E00E943538609151
:102E100052017091530188E396E00E943A3888E3AA
:102E200096E06FE374E10E946E3B88E396E067EB07
:102E300075E00E947A3B88E396E06BE774E10E94BC
:102E4000743B88E396E061E00E943538609152015E
:102E5000709153018CEC95E00E943A388CEC95E02F
:102E600069E374E10E946E3B8CEC95E061EA75E0E9
:102E70000E947A3B8CEC95E06BE774E10E94743B16
:102E80008CEC95E061E00E94353887E495E066E9D6
:102E900075E00E94493888E396E066E975E00E9493
:102EA00049388CEC95E066E975E00E944938C0E04D
:102EB000D0E0EFE0EE2EE1E0FE2ECE9D8001CF9D32
:102EC000100DDE9D100D1124065E1D4FC80160E03F
:102ED0000E94BF1CC80168E873E10E94331DC8014D
:102EE00040E050E86BEB74E40E94881DC80161E08B
:102EF0000E945B2AC80160E670E00E94B91CC8010C
:102F000064E00E94162E2196C330D105B1F60E94CE
:102F10005D0A8CE065E070E00E945A0B81E06FEF83
:102F200074E142E050E00E94163EDF91CF911F9184
:102F30000F91FF90EF90089561157105810591053E
:102F400069F481E090E0A0E0B0E08093B606909351
:102F5000B706A093B806B093B90608C06093B6064A
:102F60007093B7068093B8069093B9065093BB064A
:102F70004093BA06809170008E7F8093700080919C
:102F8000B0008C7F8093B0008091B100877F8093E8
:102F9000B1008091B6008F7D8093B6008091700063
:102FA0008D7F809370008091B10084608093B10028
:102FB0008091B1008C7F8093B10086E090E0909387
:102FC000C2068093C10608951092BC061092BD06F9
:102FD0001092BE061092BF061092C0068091C106E4
:102FE0009091C2068093B200E0E7F0E080818160BA
:102FF00080830895E0E7F0E080818E7F80830895EC
:103000008091BC069091BD06A091BE06B091BF060E
:103010000196A11DB11D8093BC069093BD06A0939F
:10302000BE06B093BF068091BC069091BD06A091EC
:10303000BE06B091BF062091B6063091B70640910A
:10304000B8065091B90682179307A407B50710F187
:103050008091C0068823F1F481E08093C0068091BE
:10306000BC069091BD06A091BE06B091BF06821B22
:10307000930BA40BB50B8093BC069093BD06A09355
:10308000BE06B093BF06E091BA06F091BB06099563
:103090001092C00608951F920F920FB60F920BB6B2
:1030A0000F9211242F933F934F935F936F937F93CE
:1030B0008F939F93AF93BF93EF93FF938091C1063C
:1030C0009091C2068093B2000E940018FF91EF9188
:1030D000BF91AF919F918F917F916F915F914F9130
:1030E0003F912F910F900BBE0F900FBE0F901F902E
:1030F00018951F920F920FB60F920BB60F921124D4
:103100002F933F934F935F936F937F938F939F93EF
:10311000AF93BF93EF93FF93E091C706F091C8067A
:103120000995FF91EF91BF91AF919F918F917F9101
:103130006F915F914F913F912F910F900BBE0F9028
:103140000FBE0F901F901895FC01A3E0440F551F70
:10315000661F771FAA95D1F7403080E0580781E0BD
:10316000680780E0780714F481E010C033E07595BB
:103170006795579547953A95D1F7403080E05807C5
:1031800081E0680780E078071CF482E0828339C020
:1031900023E075956795579547952A95D1F7403067
:1031A00080E0580781E0680780E0780714F483E046
:1031B000EDCF92E075956795579547959A95D1F71C
:1031C000403080E0580781E0680780E0780714F419
:1031D00084E0DCCF82E075956795579547958A9591
:1031E000D1F7403080E0580781E0680780E0780739
:1031F00014F485E0CBCF85E082834FEF5FEF60E092
:1032000070E08FB78383F894518340835093870095
:103210004093860083818FBF80918100887F809357
:103220008100809181009281892B80938100089593
:103230001092800020E1209381000E94A41808953C
:10324000EFE6F0E080818E7F80830895E1E8F0E092
:103250002081DC0112968C91282B208308950F93F6
:103260001F93CF93DF93EC018B0112161306140604
:10327000150624F4BA01A9010E94A4181D830C8329
:1032800081E080936F00CE010E942619DF91CF91DB
:103290001F910F910895F999FECF72BD61BDF89A03
:1032A00080B50895F999FECF1FBA72BD61BD40BDCA
:1032B0000FB6F894FA9AF99A0FBE0895282F9091B4
:1032C00028079F5F943408F090E0809129078917C0
:1032D000E1F33FB7F89480912507882341F0E92F67
:1032E000F0E0E65DF84F2083909328071DC081E051
:1032F00080932507209326071092270782E088BB3A
:1033000080917100826080937100809190008F7332
:1033100080688093900080919400909195004096F1
:1033200090939900809398003FBF0895862F0E9444
:103330005E1981E090E008951F920F920FB60F92F0
:103340000BB60F9211242F933F934F935F936F937C
:103350007F938F939F93EF93FF9340912507509115
:103360002607209198003091990060912107709173
:103370002207809127071FC0260F371F952F9170B6
:1033800056954F5F9817B9F0992321F080919000DE
:10339000806C04C0809190008F738068809390004F
:1033A0003093990020939800909327075093260715
:1033B000409325073BC04930F8F2493039F48AE0A0
:1033C0008093250780919000806C28C08091280709
:1033D000E09129078E1769F41092250780919000DB
:1033E0008F7380939000809171008D7F8093710026
:1033F0001DC081E080932507EF5FE43408F0E0E032
:10340000E0932907F0E0E65DF84F8081809326077E
:1034100010922707809190008F73806880939000AE
:10342000260F371F3093990020939800FF91EF915A
:103430009F918F917F916F915F914F913F912F91CC
:103440000F900BBE0F900FBE0F901F90189580919C
:1034500025078823E1F708950E94271A08951F92EF
:103460000F920FB60F920BB60F9211241F932F934A
:103470003F934F935F936F937F938F939F93AF93FC
:10348000BF93EF93FF932091960030919700909116
:103490001D07992341F0809191008F7B80939100CB
:1034A00010921D0708C08091910080648093910064
:1034B00080E880931D0770911C07772331F59923CD
:1034C00009F06CC080911F0790912007820F931F15
:1034D00090939B0080939A0084E088BB8091710058
:1034E0008460809371008091210790912207280FBA
:1034F000391F96958795280F391F309324072093FD
:10350000230781E080931C0749C040912307509115
:10351000240710911D07E0912107F0912207609187
:103520001E07AA27BB27AE1BBF0BC901841B950B27
:1035300097FD2CC06695612B7F5F8A0F9B1F7930AA
:1035400018F44E0F5F1FF4CF60931E078091710037
:103550008B7F809371009091CB069F5F903508F030
:1035600090E08091CA06981739F0E92FF0E0E45313
:10357000F94F60839093CB06809191008F7B80936D
:10358000910010921D0710921C0708C060931E073F
:10359000509324074093230770931C07FF91EF91EA
:1035A000BF91AF919F918F917F916F915F914F915B
:1035B0003F912F911F910F900BBE0F900FBE0F9058
:1035C0001F9018951F920F920FB60F920BB60F9285
:1035D00011242F938F939F93EF93FF93809171000A
:1035E0008B7F80937100809191008F7B80939100FD
:1035F00090911C0780911D07805820911E0703C0E1
:103600002695282B9F5F9930D8F320931E07909121
:10361000CB069F5F903508F090E08091CA0698171E
:1036200039F0E92FF0E0E453F94F20839093CB0673
:1036300010921C07809191008F7B809391001092D3
:103640001D07FF91EF919F918F912F910F900BBECE
:103650000F900FBE0F901F9018958091CB06E091B0
:10366000CA068E1719F42FEF3FEF0EC02E2F2F5FD3
:10367000203508F020E0E22FF0E0E453F94F80819C
:103680002093CA06282F30E0C90108958091CB0607
:10369000E091CA068E1719F4EFEFFFEF06C0F0E0D5
:1036A000E453F94F8081E82FF0E0CF010895909125
:1036B000CB068091CA06292F30E0482F50E098179A
:1036C00010F4205B3F4F241B350BC90108958091F6
:1036D000CA068093CB0608950F931F9301E710E06D
:1036E000F80180818B7F808380818F7D80830E9421
:1036F000671B0E94271AF80180818D7F80831F91AC
:103700000F9108959B01AC012D3A8BE1380780E0C1
:10371000480780E0580730F4109271001092900032
:1037200081E814C063E056954795379527956A95CB
:10373000D1F72D3A8BE1380780E0480780E0580741
:10374000D0F5109271001092900082E88093910061
:103750003093220720932107CA01B90125E230E006
:1037600040E050E00E94545552E096958795779539
:1037700067955A95D1F77093200760931F0787E1EB
:1037800062E00E949A4186E161E00E941D4286E16A
:1037900061E00E949A4110921C071092CB06109291
:1037A000CA0610922507109228071092290780E276
:1037B00088BB80937100089581E080937A07089513
:1037C00090937C0780937B070895FC018081089586
:1037D00080917A0710927A07811181E00895809193
:1037E0007D07882319F089B1847002C089B188707F
:1037F000882359F40E949C4060937E0770937F0752
:10380000809380079093810708950E949C402091A7
:103810007E0730917F074091800750918107E091AA
:103820007B07F0917C07309731F0621B730B840BA0
:10383000950BCB0109950895FC018081882371F0D7
:1038400083E160E00E941D4265E070E080E090E06E
:103850000E94C24083E161E00E941D420895809170
:103860007D070E94923E089580E00E94923E83E18F
:1038700061E00E949A4183E161E00E941D42089547
:10388000FC01108282E060E00E949A4183E060E0E7
:103890000E949A4183E160E00E949A4182E061E0E7
:1038A0000E941D4283E061E00E941D4283E161E0CD
:1038B0000E941D4208950F931F93082F015002305C
:1038C000F8F480917D070E94923E10927D070023BC
:1038D00019F081E080937D07002311F013E001C00F
:1038E00012E0812F60E00E949A41812F61E00E94E6
:1038F0001D42802F6FEE7BE141E050E00E94163EBA
:103900001F910F91089583E160E00E949A4183E145
:1039100061E00E941D4280E06CED7BE142E050E0FE
:103920000E94163E0895FC016083662319F00E94F0
:10393000341C08950E94831C08950895FC01EC5FD7
:10394000FE4F80810895FC01E557FF4F8081089567
:10395000FC01E85FFE4F0190F081E02D309711F0FF
:10396000862F09950895FC01EB5FFE4F80819181C0
:103970000895FC01EB5FFE4F718360830895FC01A5
:10398000E957FF4F60830895FC01E957FF4F80819D
:103990000895FC01E857FF4F80810895FC01EA512A
:1039A000FF4F2081318142815381B901CA010895BD
:1039B000FC01E257FF4F60830895FC01E257FF4F7F
:1039C00080810895EF92FF920F931F93CF93DF931F
:1039D000EC017A018B01CB01BA0120E030E040E03C
:1039E00050E00E949E53181674F4C251DF4FC80174
:1039F000B70120E030E048EC52E40E94A253688313
:103A000079838A839B83DF91CF911F910F91FF90E0
:103A1000EF900895FC01E251FF4F60817181828136
:103A2000938120E030E048EC52E40E94F154089584
:103A3000FC01E757FF4F80810895FC01E555FF4FDA
:103A400040835183628373830895FC01E555FF4FE2
:103A500060817181828193810895FC01EC57FF4F51
:103A600080819181089587E26031780781F083E158
:103A70006838780761F08FE0603A780741F087E0B6
:103A8000603D780721F083E0683E7807B1F49B0140
:103A900040E050E060E472E48FE090E00E948755DF
:103AA00030936D0120936C0180E197E2B9010E948F
:103AB000735570936F0160936E01089580916C014E
:103AC00090916D01089520916C0130916D0140E05D
:103AD00050E060E472E48FE090E00E94A955C901D3
:103AE00008950F931F93CF93DF93EC018B010E94F6
:103AF000631D8017910738F00115110521F0CC578F
:103B0000DF4F19830883DF91CF911F910F910895A3
:103B1000EF92FF920F931F93CF93DF93EC017A0103
:103B20008B010E94631DA0E0B0E0BC01CD010E94AA
:103B30003B549B01AC01C801B7010E94ED5418161B
:103B4000FCF0C801B70120E030E040E050E00E9406
:103B50009E53882364F414C0CA51DF4FE882F9826F
:103B60000A831B83E082F1820283138309C0CE01A2
:103B70000E94181DFE01E651FF4F882399F7ECCFF4
:103B8000DF91CF911F910F91FF90EF900895FC016D
:103B9000E955FF4F2081318142815381B901CA012A
:103BA00008951F93CF93DF93EC01162F0E94181DE9
:103BB000882339F5143049F4C65FDE4F85E39FE171
:103BC00099838883CA50D14019C0153049F4C65F23
:103BD000DE4F89E692E2899399938EED94E20AC0D2
:103BE000163079F4C65FDE4F89E692E289939993A5
:103BF00088EA95E299838883CC50D140C95FDE4F33
:103C00001883DF91CF911F910895FC01E95FFE4F6A
:103C100080810895FC01E955FF4F108211821282C4
:103C20001382B89610821182128213823C9680E031
:103C300090E0A0E0B0E080839183A283B3833897C3
:103C4000119211921192119210821182128213829A
:103C50000895CF93DF93EC01FC01E955FF4F2081DC
:103C6000318142815381CB01AA2797FDA095BA2FBC
:103C7000820F931FA41FB51F80839183A283B383F8
:103C8000C557DF4F8881CB58D040882319F47095F1
:103C900061957F4FFE01EE50FF4F208131814281BF
:103CA0005381CB01AA2797FDA095BA2F820F931FAE
:103CB000A41FB51F80839183A283B383DF91CF912B
:103CC0000895CF93DF93EC01FC01EA50FF4F208170
:103CD000318142815381211531054105510581F022
:103CE000CE50DF4F88819981AA81BB81C25FD040CD
:103CF000281B390B4A0B5B0B208331834283538390
:103D0000BE016E507F4FFB01208131814281538182
:103D1000FE01E650FF4F80819181A281B381821B19
:103D2000930BA40BB50B80839183A283B383FB0118
:103D30002081318142815381FE01E250FF4F808119
:103D40009181A281B381821B930BA40BB50B80835D
:103D50009183A283B383FB011082118212821382AA
:103D6000DF91CF910895FC01EA50FF4F40835183CA
:103D7000628373830895FC01EA50FF4F6081718173
:103D8000828193810895FC01E650FF4F4083518367
:103D9000628373830895FC01E650FF4F6081718157
:103DA000828193810895FC01E250FF4F408351834B
:103DB000628373830895FC01E250FF4F608171813B
:103DC000828193810895FC01EE50FF4F408351831F
:103DD000628373830895FC01EE50FF4F208131818F
:103DE00042815381B901CA010895FC01128E6623F4
:103DF00011F081E0828F0895FC01828D0895FC010D
:103E000046875787608B718B0895FC01668577859F
:103E1000808991890895FC01428B538B648B758B4B
:103E20000895FC0162897389848995890895FC014C
:103E3000468B578B608F718F0895FC016689778957
:103E4000808D918D0895FC01EE5FFE4F718360833C
:103E50000895FC01EE5FFE4F808191810895FC0181
:103E600063A70895FC0183A508952F923F924F9276
:103E70005F926F927F928F929F92AF92BF92CF92FA
:103E8000DF92EF92FF920F931F93DF93CF93CDB703
:103E9000DEB768970FB6F894DEBF0FBECDBF182F00
:103EA0003A014B01388F2F8B882319F0285A3F4F46
:103EB00004C02F89388D245D3F4F3A872987A98513
:103EC000BA852D903D904D905C90C401B301A20144
:103ED00091010E949E5318166CF0C401B301A20117
:103EE00091010E94A253E985FA852485358546858E
:103EF00057853DC0C401B301A985BA8550962D915F
:103F00003D914D915C9153970E949E5388233CF4C0
:103F1000E985FA85A484B584C684D7842CC0C401FD
:103F2000B301A20191010E943953A985BA8518965F
:103F30002D913D914D915C911B970E943953E985DC
:103F4000FA8524813581468157810E94A2539B01C5
:103F5000AC0160E070E080E89FE30E943953A985DE
:103F6000BA851C962D913D914D915C911F970E94B1
:103F7000F1545B016C011123E9F560916E017091C0
:103F80006F0180E090E00E943B54A60195010E94E1
:103F9000A2537B018C010E940F54EF89F88DE155EB
:103FA000FF4FDF016D937D938D939D93B88FAF8B02
:103FB0000E943B549B01AC01C801B7010E943953D8
:103FC0000F89188DF801608371838283938320E0C9
:103FD00030E040E85FE30E94ED5418160CF060C238
:103FE00080E090E0A0E0B0E0F80180839183A283BC
:103FF000B38356C2C401B301A20191010E949E5332
:1040000018160CF4B5C0A985BA8558968D919D9166
:104010000D90BC91A02D8B8B9C8BAD8BBE8BEF89B3
:10402000F88DE952FF4FA080B180C280D3803897CD
:1040300080819181A281B381EF5CF040F88FEF8B9A
:10404000E985FA85E0A0F1A002A113A18E159F05D4
:10405000A007B107A8F4C401B301A20191010E9415
:104060009E53882369F0C601B5010E943B549B0111
:10407000AC016B897C898D899E890E94F15404C0B2
:10408000C801B7010E943B545B016C010E940F54B0
:10409000EFEC6E2E712C2F89388D620E731ED301BA
:1040A0006D937D938D939C9313976BED862E912C3E
:1040B000820E931EF401E080F180028113816D91E4
:1040C0007D918D919C910E943B549B01AC01C60156
:1040D000B5010E9439539B01AC01C801B7010E9490
:1040E0003A53D4016D937D938D939C9313976D9167
:1040F0007D918D919C9120E030E040E85FE30E944B
:10410000ED548823ECF0F401608171818281938108
:1041100020E030E040E85FE30E943953D4016D9322
:104120007D938D939C931397F30180819181A2815C
:10413000B3810196A11DB11D80839183A283B383B6
:104140002F89388D21533F4FD9012D913D914D91AC
:104150005C91E985FA8580A191A1A2A1B3A1821BFE
:10416000930BA40BB50B80A391A3A2A3B3A398C1F7
:10417000A985BA8550962D903D904D905C905397AF
:10418000C401B301A20191010E949E532F89388D71
:1041900021533F4F18160CF492C0F9018081918190
:1041A000A281B381E985FA85E0A4F1A402A513A553
:1041B000E816F9060A071B0740F0C401B301A20183
:1041C00091010E949E53882331F4C801B7010E94D7
:1041D0003B545B016C01C601B5010E940F545FECBA
:1041E000652E712C2F89388D620E731ED3016D934D
:1041F0007D938D939C9313974BED842E912C820E7F
:10420000931EF401E080F180028113816D917D9114
:104210008D919C910E943B549B01AC01C601B5015C
:104220000E9439539B01AC01C801B7010E943A5367
:10423000D4016D937D938D939C9313976D917D9194
:104240008D919C9120E030E040E85FE30E94ED54C6
:104250008823ECF0F401608171818281938120E0F8
:1042600030E040E85FE30E943953D4016D937D93C1
:104270008D939C931397F30180819181A281B381E7
:104280000196A11DB11D80839183A283B3832F89E1
:10429000388D21533F4FD9012D913D914D915C9126
:1042A000E985FA8580A591A5A2A5B3A5821B930BEC
:1042B000A40BB50B80A791A7A2A7B3A7F1C0A985AE
:1042C000BA851C968D919D910D90BC91A02D8D83EA
:1042D0009E83AF83B887A985BA855C968D919D91A1
:1042E0000D90BC91A02D8F87988BA98BBA8BEF89ED
:1042F000F88DE952FF4FF88FEF8B80819181A28179
:10430000B38189839A83AB83BC83E75DF040F88FE8
:10431000EF8BE688F788008D118D82899389A489B7
:10432000B5898B879C87AD87BE8726843784408874
:104330005188F90180819181A281B381E985FA8553
:10434000A4A0B5A0C6A0D7A0A816B906CA06DB06C9
:1043500098F1C401B30120E030E040E85FE30E943F
:104360009E53882349F189819A81AB81BC81E80EF3
:10437000F91E0A1F1B1F8B859C85AD85BE85E80E27
:10438000F91E0A1F1B1FE218F30804091509C801CA
:10439000B7010E943B549B01AC016F8578898989E4
:1043A0009A890E94F1549B01AC016D817E818F81BD
:1043B00098850E94395304C0C601B5010E943B5440
:1043C0005B016C010E940F542FEC622E712CAF899F
:1043D000B88D6A0E7B1EF3016083718382839383A1
:1043E0008BED882E912C8A0E9B1ED401ED90FD90B2
:1043F0000D911C9160817181828193810E943B5457
:104400009B01AC01C601B5010E9439539B01AC016F
:10441000C801B7010E943A53F4016083718382831B
:104420009383608171818281938120E030E040E854
:104430005FE30E94ED548823E4F0D4016D917D91F7
:104440008D919C9120E030E040E85FE30E94395379
:10445000F4016083718382839383F301808191816E
:10446000A281B3810196A11DB11D80839183A28396
:10447000B3832F89388D21533F4FD9012D913D9121
:104480004D915C91E985FA8584A195A1A6A1B7A17A
:10449000821B930BA40BB50B84A395A3A6A3B7A370
:1044A00068960FB6F894DEBF0FBECDBFCF91DF91F7
:1044B0001F910F91FF90EF90DF90CF90BF90AF9042
:1044C0009F908F907F906F905F904F903F902F9034
:1044D00008952F923F924F925F926F927F928F92A8
:1044E0009F92AF92BF92CF92DF92EF92FF920F9383
:1044F0001F93DF93CF9300D000D0CDB7DEB7182F36
:104500003A014B013C832B83882319F0285A3F4FF3
:1045100004C02B813C81245D3F4F3A8329838B81EA
:104520009C81845F9E4F9C838B83DC01ED91FC9189
:104530001197AC50B140BC83AB8389819A81B4019F
:10454000A3019D01012F09955B016C01112309F065
:1045500048C060916E0170916F0180E090E00E9410
:104560003B54A60195010E94A2537B018C01EB8173
:10457000FC81E155FF4FFC83EB830E940F54AB811C
:10458000BC816D937D938D939C9313975096BC83C0
:10459000AB836D917D918D919C910E943B549B01C9
:1045A000AC01C801B7010E9439530B811C810C502A
:1045B0001040F801608371838283938320E030E0B0
:1045C00040E85FE30E94ED5418160CF0E0C180E073
:1045D00090E0A0E0B0E0F80180839183A283B383F0
:1045E000D6C1A981BA812D903D904D905C90C401B7
:1045F000B301A20191010E949E5318160CF491C0C0
:10460000E981FA81E0A0F1A002A113A1C601B501E0
:104610000E940F546E157F058007910740F4C40176
:10462000B301A20191010E949E53882331F4C80175
:10463000B7010E943B545B016C01C601B5010E94A9
:104640000F545FEC652E712C2B813C81620E731E22
:10465000D3016D937D938D939C9313974BED842E93
:10466000912C820E931EF401E080F180028113816F
:104670006D917D918D919C910E943B549B01AC0169
:10468000C601B5010E9439539B01AC01C801B701B5
:104690000E943A53D4016D937D938D939C9313970D
:1046A0006D917D918D919C9120E030E040E85FE339
:1046B0000E94ED548823ECF0F401608171818281C5
:1046C000938120E030E040E85FE30E943953D40159
:1046D0006D937D938D939C931397F30180819181CA
:1046E000A281B3810196A11DB11D80839183A28314
:1046F000B3832B813C8121533F4FD9012D913D91B3
:104700004D915C91E981FA8180A191A1A2A1B3A10F
:10471000821B930BA40BB50B80A391A3A2A3B3A3FD
:1047200036C1A981BA8150962D903D904D905C90F4
:104730005397C401B301A20191010E949E53181620
:104740000CF491C0E981FA81E0A4F1A402A513A5BB
:10475000C601B5010E940F54E616F70608071907AF
:1047600040F0C401B301A20191010E949E5388232D
:1047700031F4C801B7010E943B545B016C01C601D2
:10478000B5010E940F542FEC622E712C2B813C81BD
:10479000620E731ED3016D937D938D939C9313973B
:1047A0008BED882E912C820E931EF401E080F18017
:1047B000028113816D917D918D919C910E943B545A
:1047C0009B01AC01C601B5010E9439539B01AC01AC
:1047D000C801B7010E943A53D4016D937D938D9324
:1047E0009C9313976D917D918D919C9120E030E089
:1047F00040E85FE30E94ED548823ECF0F40160810F
:1048000071818281938120E030E040E85FE30E9483
:104810003953D4016D937D938D939C931397F3013A
:1048200080819181A281B3810196A11DB11D8083F8
:104830009183A283B3832B813C8121533F4FD901C4
:104840002D913D914D915C91E981FA8180A591A5D1
:10485000A2A5B3A5821B930BA40BB50B80A791A7B0
:10486000A2A7B3A794C0A981BA819496ED90FD90B8
:104870000D911C919797C601B5010E940F54E61641
:10488000F7060807190750F0C401B30120E030E033
:1048900040E85FE30E949E53882331F4C801B701CA
:1048A0000E943B545B016C01C601B5010E940F548C
:1048B0000FEC602E712CEB81FC816E0E7F1ED301FC
:1048C0006D937D938D939C9313971BED812E912C6B
:1048D0008E0E9F1EF401E080F180028113816D91A4
:1048E0007D918D919C910E943B549B01AC01C6012E
:1048F000B5010E9439539B01AC01C801B7010E9468
:104900003A53D4016D937D938D939C9313976D913E
:104910007D918D919C9120E030E040E85FE30E9422
:10492000ED548823ECF0F4016081718182819381E0
:1049300020E030E040E85FE30E943953D4016D93FA
:104940007D938D939C931397F30180819181A28134
:10495000B3810196A11DB11D80839183A283B3838E
:104960002B813C8121533F4FD9012D913D914D9198
:104970005C91E981FA8184A195A1A6A1B7A1821BCE
:10498000930BA40BB50B84A395A3A6A3B7A30F9079
:104990000F900F900F90CF91DF911F910F91FF908B
:1049A000EF90DF90CF90BF90AF909F908F907F90CF
:1049B0006F905F904F903F902F9008956F927F92ED
:1049C0008F929F92AF92BF92CF92DF92EF92FF921F
:1049D0000F931F93CF93DF933C016A017B01E901A1
:1049E000002309F445C0CB01BA01D3012D913D91BB
:1049F0004D915C910E949E53882384F4C952DF4FED
:104A0000688179818A819B810E943B547B018C0162
:104A1000F301208D318D428D538D7DC0C701B601CC
:104A2000D30150962D913D914D915C9153970E94E9
:104A30009E5318160CF03DC0CD52DF4F699179910D
:104A4000899199916F5F7F4F8F4F9F4F2881398157
:104A50004A815B81621B730B840B950B0E943B5454
:104A60007B018C01F301248D358D468D578D53C00C
:104A7000DC018D909D90AD90BC90CB01BA01A50159
:104A800094010E949E5388233CF4C701B601A501FE
:104A900094010E94A25338C0C701B601D3015096B9
:104AA0002D913D914D915C9153970E949E53882387
:104AB0006CF4D3011C96EC911C971D967C911D976C
:104AC0001E968C911E971F966C912DC0C701B60142
:104AD000A50194010E943953F30120853185428557
:104AE00053850E943953D30114962D913D914D91D8
:104AF0005C9117970E94A2539B01AC0160E070E0AB
:104B000080E89FE30E9439537B018C01F3012485E7
:104B10003585468557850E94F154A80197010E946A
:104B2000F154E62F692F2E2F372F482F562FB9011A
:104B3000CA01DF91CF911F910F91FF90EF90DF900D
:104B4000CF90BF90AF909F908F907F906F9008957F
:104B50006F927F928F929F92AF92BF92CF92DF928D
:104B6000EF92FF920F931F93CF93DF933C016A0163
:104B70007B01E901002309F463C0CB01BA01D30131
:104B80002D913D914D915C910E949E538823E4F4B8
:104B90006A897B898C899D896F5F7F4F8F4F9F4F7B
:104BA000C952DF4F288139814A815B81621B730BB7
:104BB000840B950B0E943B547B018C01F301208DEB
:104BC000318D428D538D2CC0C701B601F301208970
:104BD0003189428953890E949E5318160CF060C097
:104BE0006E897F89888D998DC952DF4F28813981DF
:104BF0004A815B81620F731F841F951FFE015291D2
:104C0000429132912291621B730B840B950B0E948F
:104C10003B547B018C01F301248D358D468D578DDE
:104C20000E94F154A80197010E94F1549B01AC012C
:104C3000D3011C966D917D918D919C911F9768C0B9
:104C4000FC0180809180A280B380CB01BA01A501D4
:104C500094010E949E538823C4F4C701B601A501A4
:104C600094010E94A2539B01AC0160E070E080E8D7
:104C70009FE30E9439537B018C01D3011C96AD90B8
:104C8000BD90CD90DC901F9735C0C701B601F301F0
:104C900020893189428953890E949E5388236CF46C
:104CA000D3011C96EC911C971D967C911D971E9626
:104CB0008C911E971F966C912FC0C701B601A5015C
:104CC00094010E943953F301208531854285538533
:104CD0000E943953D30114962D913D914D915C91D1
:104CE00017970E94A2537B018C01F301A484B58421
:104CF000C684D784C601B501A80197010E94F1546A
:104D0000A80197010E94F1549B01AC01C601B501B5
:104D10000E943953E62F692F2E2F372F482F562FF9
:104D2000B901CA01DF91CF911F910F91FF90EF90D0
:104D3000DF90CF90BF90AF909F908F907F906F90BB
:104D40000895CF93DF93EB0120E030E040E050E4A2
:104D50002C8B3D8B4E8B5F8BFC01E95FFE4FE0811E
:104D6000E53029F480E090E0A0E4B0E406C0E6304D
:104D700041F480E090E0A0ECBFE38C8B9D8BAE8B88
:104D8000BF8BDF91CF9108952F923F924F925F9208
:104D90006F927F928F929F92AF92BF92CF92DF924B
:104DA000EF92FF920F931F93DF93CF93CDB7DEB7B0
:104DB0006D970FB6F894DEBF0FBECDBF4C01698B67
:104DC0002A8B3B8B4C8B5D8BAE8ABF8AC88ED98E6B
:104DD0002BEC30E0820E931ED4018D919D910D90AD
:104DE000BC91A02D8D879E87AF87B88BE5E3FFEF41
:104DF0008E0E9F1E662331F4BCE22B2E312C280C24
:104E0000391C17C0A8E52A2E312C280C391C23ED9B
:104E100030E0820E931ED4018D919D910D90BC9136
:104E2000A02D8D879E87AF87B88BEDE2FFEF8E0EAA
:104E30009F1EC401B1010E94A126C801B7010E94B2
:104E40003B547B018C016E897F89888D998D0E94EE
:104E50003B54A80197010E94A2532B013C01D101B0
:104E60006D937D938D939C9313976AA97BA98CA9CD
:104E70009DA90E943B54A80197010E94A2535B0187
:104E80006C01F1016483758386839783A30192018A
:104E90000E943A539B01AC0160E070E080E89FE320
:104EA0000E9439537B018C01D10118966D937D933B
:104EB0008D939C931B97C301B201A80197010E9497
:104EC0003A53F101608B718B828B938BD101549695
:104ED0002D913D914D915C9157972A8F3B8F4C8F2F
:104EE0005D8FB989BB2309F4D7C1C301B2010E9408
:104EF000A253A80197010E943A537B018C01C6017D
:104F0000B5012A8D3B8D4C8D5D8D0E94A2539B0176
:104F1000AC01C801B7010E943A539B01AC016A89F8
:104F20007B898C899D890E94A25369877A878B87A8
:104F30009C871D821E821F821886F1E0EF2EF12CC5
:104F4000012D112DE7E0CE2EE1E0DE2EC80CD91C9C
:104F500024C0F6018081843049F42D813E814F8147
:104F600058852E0D3F1D401F511F0EC0C801B701AF
:104F7000A80197010E9454552D813E814F8158858B
:104F8000260F371F481F591F2D833E834F83588795
:104F90000894E11CF11C011D111D8E899F89A88DAB
:104FA000B98D8E159F05A007B10798F619821A8250
:104FB0001B821C8271E0E72EF12C012D112D67E080
:104FC000C62E61E0D62EC80CD91C24C0D6018C9107
:104FD000843049F429813A814B815C812E0D3F1D3B
:104FE000401F511F0EC0C801B701A80197010E94C0
:104FF000545529813A814B815C81260F371F481F08
:10500000591F29833A834B835C830894E11CF11C6C
:10501000011D111D8AA99BA9ACA9BDA98E159F05CB
:10502000A007B10798F6D6018C91863009F090C0A0
:1050300069857A858B859C85A30192010E94F15434
:1050400020E030E040E450E40E94A2530E940F545C
:105050007B018C01F10160A371A382A393A36985F5
:105060007A858B859C8524813581468157810E9474
:10507000F1543B014C0120E030E040E450E40E9458
:10508000A2530E940F545B016C01D10194966D9361
:105090007D938D939C939797C801B7010E943B54D1
:1050A0007B018C016D817E818F8198850E943B54AC
:1050B0009B01AC01C801B7010E94A253F101608FAE
:1050C000718F828F938FC601B5010E943B547B0183
:1050D0008C0169817A818B819C810E943B549B0168
:1050E000AC01C801B7010E94A253D1015C966D9337
:1050F0007D938D939C935F9769857A858B859C853D
:105100002D913D914D915C910E94F154F1012489C2
:105110003589468957890E94A2530E940F54D101B4
:1051200090966D937D938D939C939397C401B30157
:1051300054962D913D914D915C9157970E94A253A9
:105140000E940F54F10164A375A386A397A367C0BF
:1051500069857A858B859C85A30192010E94F15413
:105160002A8D3B8D4C8D5D8D0E94A2530E940F5461
:105170007B018C01D10190966D937D938D939C93CF
:10518000939769857A858B859C8514962D913D91A1
:105190004D915C9117970E94F154F1012489358952
:1051A000468957890E94A2530E940F545B016C01EB
:1051B000D10194966D937D938D939C939797C8019D
:1051C000B7010E943B547B018C016D817E818F81F0
:1051D00098850E943B549B01AC01C801B7010E9415
:1051E000A253F101608F718F828F938FC601B50139
:1051F0000E943B547B018C0169817A818B819C8167
:105200000E943B549B01AC01C801B7010E94A2530C
:10521000D1015C966D937D938D939C935F97F10183
:1052200060A171A182A193A10E943B549B01AC019A
:105230006A897B898C899D890E9439537B018C0105
:10524000D10194966D917D918D919C9197970E943B
:105250003B549B01AC01C801B7010E9439530E9425
:105260000F54F10160A771A782A793A76D857E8572
:105270008F8598890E943B549B01AC0169857A8592
:105280008B859C850E94A253D1011C966D937D93C2
:105290008D939C931F9737C0C301B2012A8D3B8D1C
:1052A0004C8D5D8D0E94A253A80197010E943A5334
:1052B0007B018C01C601B5012A8D3B8D4C8D5D8D26
:1052C0000E94A2539B01AC01C801B7010E943A534E
:1052D0009B01AC016A897B898C899D890E94A253BC
:1052E0007B018C016D857E858F8598890E943B545A
:1052F0009B01AC01C801B7010E94A253F101648770
:105300007587868797876D960FB6F894DEBF0FBEB8
:10531000CDBFCF91DF911F910F91FF90EF90DF9064
:10532000CF90BF90AF909F908F907F906F905F9045
:105330004F903F902F9008954F925F926F927F927F
:105340008F929F92AF92BF92CF92DF92EF92FF9295
:105350000F931F93DF93CF93CDB7DEB74C012A0194
:105360003B01C801B7014FEC50E0840E951EF401DB
:1053700010821182128213824CE050E0840E951E3E
:105380000F2EF0E0EF2EF0E0FF2EF0E00F2FF0E018
:105390001F2FF02DF401E082F1820283138348EF86
:1053A0005FEF840E951EF4014192519261927192C9
:1053B0004F01108211821282138248E050E0840E65
:1053C000951EF401208321E23FEF820E931E00D050
:1053D00000D00DB71EB70F5F1F4F0E943B549B01BB
:1053E000AC018B899C89AD89BE89F801808391834A
:1053F000A283B383C40161E0830172010E94C426C9
:105400000F900F900F900F90CF91DF911F910F9100
:10541000FF90EF90DF90CF90BF90AF909F908F90D4
:105420007F906F905F904F900895CF93DF93FC0132
:10543000EC01C357DF4F88818823C1F0ED56FF4F41
:105440001192119211921192119211921192119244
:1054500010821182128213823C9780E090E0A0E0DB
:10546000B0E080839183A283B3831882DF91CF91D0
:105470000895CF93DF93EC01C757DF4F188224962E
:1054800081E08883CD58D0401E8E1D8EC257DF4FDD
:105490001882CE58D040CE010E94C91C882321F02A
:1054A00089A161E00E941D42CE0161E00E94A81C1A
:1054B000DF91CF910895FC01E857FF4F6083E858D2
:1054C000F04081A10E941D420895EF92FF921F9328
:1054D000CF93DF93EC01162F8BE8E82EF12CEC0E26
:1054E000FD1EF7018081681759F08BA10E941D42B3
:1054F000CA57DF4F81E08883F70110832496188311
:10550000DF91CF911F91FF90EF9008954F925F929E
:105510006F927F928F929F92AF92BF92CF92DF92C3
:10552000EF92FF920F931F93CF93DF93EC015CE810
:10553000852E912C880E991EF4018081882309F410
:1055400047C046EEA42EB12CAC0EBD1E3EEEC32EBF
:10555000D12CCC0EDD1EF501608171818281938199
:10556000F60120813181428153810E9439537B01B0
:105570008C01F5016083718382839383F6016081DE
:1055800071818281938120E030E040E05FE30E94FE
:10559000F1549B01AC01C801B7010E949E5318163B
:1055A0000CF4B4C08AE097EDA3E2BCE3F50180837C
:1055B0009183A283B383F4011082C557DF4F6881C2
:1055C000CB58D04081E06827CE010E94652A9EC05A
:1055D000CA57DF4F8881C658D0408823B1F1CE0129
:1055E0000E94A31C22EFC22ED12CCC0EDD1E8823DC
:1055F000A1F4F601E080F18002811381CE010E94C6
:10560000B31CA0E0B0E08E0D9F1DA01FB11FF601DE
:1056100080839183A283B38313C0F601E080F1807D
:1056200002811381CE010E94B31CA0E0B0E0E81A11
:10563000F90A0A0B1B0BF601E082F1820283138345
:10564000CA57DF4F1882C658D04096EE492E512CCB
:105650004C0E5D1EF2016080718082809380C65185
:10566000DF4FE990F99009911991A880B980CA801B
:10567000DB80CE5ED040C801B701A60195010E9433
:1056800039539B01AC01C401B3010E949E5318160B
:105690003CF0C401B301A60195010E943A5314C025
:1056A000C801B701A60195010E943A539B01AC01C4
:1056B000C401B3010E94ED54882364F0C401B30116
:1056C000A60195010E943953F201608371838283A0
:1056D00093831CC0F201E082F18202831383C8012C
:1056E000B70120E030E040E050E00E949E53882364
:1056F00051F0C801B70120E030E040E050E00E94E6
:105700009E53882319F4CE010E94392A60916E01BC
:1057100070916F0180E090E00E943B547B018C010E
:10572000CA51DF4F688179818A819B8120E030E016
:1057300048EC52E40E94A2539B01AC01C801B7019E
:105740000E94A2537B018C010E940F54E79769933A
:105750007993899399930E943B549B01AC01C801B2
:10576000B7010E943953688379838A839B83DF91D1
:10577000CF911F910F91FF90EF90DF90CF90BF904E
:10578000AF909F908F907F906F905F904F90089513
:10579000AF92BF92CF92DF92EF92FF920F931F933F
:1057A000CF93DF93EC018D8D882309F049C0CE01A2
:1057B0000E94DD1C882321F0CE010E94862A3EC073
:1057C000FE01E953FF4F80819181A281B381C553CE
:1057D000DF4FA880B980CA80DB80CB5CD0400196C7
:1057E000A11DB11D8A159B05AC05BD0518F081E012
:1057F0008E8F24C06081718182819381C65FDE4F6C
:105800000E943B5420E030E040E85FE30E943A53BE
:105810007B018C01C601B5010E943B549B01AC0188
:10582000C801B7010E94A253AB01BC01E881F98114
:10583000CA50D14080E09E0109951E8E81E08D8F77
:10584000DF91CF911F910F91FF90EF90DF90CF905C
:10585000BF90AF900895CF92DF92EF92FF920F9397
:105860001F93CF93DF93EC01FC01E154FF4F808144
:105870009181A281B3810097A105B10561F5C15560
:10588000DF4F89919991A991B99180839183A283E6
:10589000B38388819981AA81BB816096888399832B
:1058A000AA83BB83C35CD040FE01E953FF4F8081D4
:1058B0009181A281B3810196A11DB11D8083918345
:1058C000A283B383C556DF4F188219821A821B82C6
:1058D000CB59D0401D8EC556DF4F288139814A8172
:1058E0005B81CB59D04080916E0190916F01A0E017
:1058F000B0E0281739074A075B0708F47CC08D8D94
:10590000882319F4CE010E94C82B8E8D882309F4B8
:1059100044C0BE0169567F4FC156DF4FDB012D9158
:105920003D914D915C9188819981AA81BB81CF592C
:10593000D040FE01E556FF4F281739074A075B079D
:10594000D0F480819181A281B3810197A109B1092D
:1059500080839183A283B3832F5F3F4F4F4F5F4F6D
:10596000FB012083318342835383CE0161E070E0E9
:105970000E94291E59C1DB011D921D921D921C928D
:105980001397C953DF4F188219821A821B82108223
:10599000118212821382E897FBC0C155DF4F8881C4
:1059A0009981AA81BB81609688839983AA83BB83EE
:1059B0002C9788819981AA81BB816096888399837D
:1059C000AA83BB83C35CD040FE01E953FF4F8081B3
:1059D0009181A281B3810196A11DB11D8083918324
:1059E000A283B383C556DF4F188219821A821B82A5
:1059F000CB59D0401D8EFE01E556FF4F808191812D
:105A0000A281B3810196A11DB11D80839183A283E0
:105A1000B3836FE8C62ED12CCC0EDD1EF601E080DC
:105A2000F18002811381C801B70120E030E040E835
:105A30005FE30E94ED5488237CF0C801B70120E0A9
:105A400030E040E85FE30E943953D6016D937D93C7
:105A50008D939C931397ADC0FE01ED56FF4F80814F
:105A60009181A281B3810196A11DB11D8083918393
:105A7000A283B383C154DF4F288139814A815B817E
:105A8000CF5BD04082179307A407B50708F491C0F5
:105A9000C557DF4F8881CB58D040882319F46FEF6A
:105AA0007FEF02C061E070E0CA50DF4FE880F9800C
:105AB0000A811B81C65FD04017FF25C0FE01EE5052
:105AC000FF4F80819181A281B3819B01442737FDE3
:105AD0004095542F820F931FA41FB51F8E159F054D
