:100000000C9403020C94E9350C941A360C944B367C
:100010000C947C360C94AD360C94DE360C940F3771
:100020000C9440370C942E020C9439440C942E02FC
:100030000C942E020C942E020C942E020C94541745
:100040000C942E020C942E020C942E020C942E0270
:100050000C9482170C942E020C942E020C9471377F
:100060000C942E020C94AC390C94A53B0C942E02EB
:100070000C942E020C942E020C942E020C9438191F
:100080000C94A5180C94EB190C942E020C942E02CF
:100090000C942E020C942E0281089608AC08BD0820
:1000A000CF08E108F9080E091F09480959096C0928
:1000B00085099E09BE09EB09140A510A690A820AD8
:1000C0009B0AB40AC50AD60A020B9E0B010D010D4C
:1000D000010D010D010D010D010D010D010D010DB0
:1000E000010D010D010D010D010D010D010D010DA0
:1000F000010D010D010D010D010D010D010D010D90
:10010000010D010D010D010D010D010D010D010D7F
:10011000010D010D010D010D010D010D010D010D6F
:10012000010D010D010D010D010D010D010D010D5F
:10013000010D010D010D010D010D010D010D010D4F
:10014000010D010D010D010D010D010D010D010D3F
:10015000010D010D010D010D010D010DC40BD50B9C
:10016000E60BF70B080C190C2A0C3B0C500C620C1C
:10017000780C8D0C9E0CB40CC50CDA0CEB0CE11158
:10018000E411E811EC11F71100121F123B124A1290
:100190005912601264126F1273127C1285128E1241
:1001A0009712A312B012C3129713971397139713B2
:1001B00097139713971397139713971397139713EF
:1001C00097139713971397139713971397139713DF
:1001D00097139713971397139713971397139713CF
:1001E00097139713971397139713971397139713BF
:1001F00097139713971397139713971397139713AF
:10020000971397139713971397139713971397139E
:10021000971397139713971397139713971397138E
:10022000971397139713971397139713971397137E
:10023000971397139713971397139713971397136E
:100240009713D312D612DA12E412E712EB12F3125A
:10025000F9120F132C1330133E1357135C13611351
:1002600066136E137213861390130000210024008E
:1002700027002A002D003000000022002500280061
:100280002B002E0031000000200023002600290052
:100290002C002F00010101010101010102020202F3
:1002A000020202020303030303030303040404041E
:1002B00004040404050505050505050506060606EE
:1002C0000606060601020408102040800102040808
:1002D0001020408001020408102040800102040820
:1002E0001020408001020408102040800102040810
:1002F000102040800000000000000000000000000E
:1003000007030401000000000B0A090002080000B6
:1003100000000000000000000000000000000000DD
:10032000000000000001020304050607120110018D
:1003300002000008EB03442001000102030109024E
:100340003E00020100C03209040000010202010067
:1003500005240010010424020605240600010705F7
:1003600082030800FF09040100020A0000000705DB
:1003700004021000050705830210000504030904A8
:100380002E03440079006E0061006D006900630077
:10039000200050006500720063006500700074006A
:1003A00069006F006E0020004C004C00430000000C
:1003B0003C03440079006E0061006D006900630039
:1003C000200050006500720063006500700074003A
:1003D00069006F006E0020004300440043002000CD
:1003E000530065007200690061006C0000000E039C
:1003F0003000300034003500370033000000850342
:10040000603BDF3C7E0311241FBECFEFD0E2DEBF96
:10041000CDBF11E0A0E0B1E0E0E9F6E900E00BBFFC
:1004200002C007900D92AC38B107D9F71BBE17E098
:10043000ACE8B1E001C01D92AD39B107E1F713E0BE
:10044000C4E0D4E004C02297FE010E94374BCE3FA7
:10045000D107C9F70E947B3C0C943B4B0C940000E5
:1004600080911901109219010895813039F081307D
:1004700018F0823051F406C083E001C082E080931E
:100480001701089581E0809317010895E091D60542
:10049000F091D705309709F009950895EF92FF92F2
:1004A0000F931F93982F8091CA05882371F0992389
:1004B00029F08091D105882309F04CC090E080910B
:1004C000C905813009F047C017C080910F01909194
:1004D0001001A0E0B0E02091C1013091C201409133
:1004E000C3015091C40182179307A407B50730F0E8
:1004F0008091D105882311F491E02DC00E94B93775
:100500002091CD053091CE054091CF055091D00579
:10051000621B730B840B950BE0900F01F0901001A0
:1005200000E010E02091C1013091C2014091C3016F
:100530005091C4012E193F09400B510B62177307EC
:100540008407950738F08091D105811181E091E011
:10055000982701C090E0892F1F910F91FF90EF9095
:1005600008958F929F92AF92BF92CF92DF92EF92B7
:10057000FF920F931F938130910509F09BC06F5F2D
:100580007F4F09F0B0C080EB91E00E945D2FA1B2D7
:1005900087EC91E06DE270E040E150E020E230E075
:1005A00001E110E0E2E1EE2EF12CB3E1CB2ED12CF3
:1005B000BB24A5E08A2E912C0E94AC2BA1B28CEA20
:1005C00092E06EE270E045E150E024E130E00DE1C0
:1005D00010E0FEE1EF2EF12CEFE1CE2ED12CB6E0B3
:1005E0008B2E912C0E94AC2BA1B281E993E06FE29B
:1005F00070E042E250E021E230E00FE010E0ABE2D8
:10060000EA2EF12CFCE2CF2ED12CE7E08E2E912C9D
:100610000E94AC2B409100015091010186E794E0CB
:1006200067E577E026E030E001E411E00E947234F3
:1006300086ED94E00E94491B87ED94E067E00E94FC
:10064000012E40910001509101018BEF94E069E788
:1006500077E026E030E00E94723410925E0510923E
:100660005D0588EE93E0A0E0B0E080935F05909395
:100670006005A0936105B09362058EE491E09093CC
:100680005C0580935B05409100015091010187E674
:1006900095E06BE575E026E030E00E9472340E9440
:1006A000B9376093D2057093D3058093D4059093A6
:1006B000D50519C0892BB9F46F5F7F4FA1F48EE483
:1006C00091E090935C0580935B050E94751A81E927
:1006D00093E00E94A61B8CEA92E00E94A61B87EC86
:1006E00091E00E94A61B1F910F91FF90EF90DF9069
:1006F000CF90BF90AF909F908F90089580E090E052
:100700006FEF7FEF0E94B102089581E090E06FEFFC
:100710007FEF0E94B1020895A82FFB019A018091FA
:100720000E01823041F0833019F0813089F40AC023
:100730008BEF94E002C087E695E06A2FAF010E943C
:10074000D632089586E794E06A2FAF010E94D63230
:100750000895E82F9A01AB0180910E01823041F09B
:10076000833019F0813079F409C08BEF94E002C036
:1007700087E695E06E2F0E942233089586E794E085
:100780006E2F0E9422330895E82F9A01AB018091C9
:100790000E01823041F0833019F0813079F409C0C4
:1007A0008BEF94E002C087E695E06E2F0E946633DF
:1007B000089586E794E06E2F0E9466330895E82F2F
:1007C0009A01AB0180910E01823041F0833019F023
:1007D000813079F409C08BEF94E002C087E695E0A0
:1007E0006E2F0E944433089586E794E06E2F0E9496
:1007F00044330895282FAB0180910E01823041F0DF
:10080000833019F0813079F409C08BEF94E002C095
:1008100087E695E0622F0E948833089586E794E08A
:10082000622F0E9488330895282FAB0180910E011A
:10083000823041F0833019F0813079F409C08BEFB8
:1008400094E002C087E695E0622F0E94A4330895E9
:1008500086E794E0622F0E94A4330895282F462F44
:1008600080910E01823041F0833019F0813079F4AB
:1008700009C08BEF94E002C087E695E0622F0E94EA
:100880000233089586E794E0622F0E9402330895B0
:10089000682F80910E01823041F0833019F0813051
:1008A00069F408C08BEF94E002C087E695E00E94EF
:1008B0001C33089586E794E00E941C330895FA01E2
:1008C0006A3009F495C06B30D8F4653009F45AC029
:1008D000663048F46330E9F1643008F047C06230B4
:1008E00009F0D5C02FC0673009F467C0673008F43D
:1008F00054C0683009F46CC0693009F0C8C071C0D8
:10090000683609F496C0693680F4653609F482C009
:10091000663620F4643609F0BAC078C0663609F449
:100920007CC0673609F0B3C07FC06A3609F493C053
:100930006A3608F487C06B3609F496C06C3609F045
:10094000A6C099C090E08081811191E09093C6018A
:100950000BC086E794E0BA010E94922FAB01BC0164
:1009600080EB91E00E949F2E81E092C086E794E0A8
:10097000BA010E94922FAB01BC0180EB91E00E9472
:10098000202EF2CF86E794E0BA010E948A2FBC01A4
:1009900080EB91E00E941C2EE7CF86E794E0BA013D
:1009A0000E948A2FA0E0B0E08093BD019093BE0129
:1009B000A093BF01B093C001D7CF86E794E0BA01FE
:1009C0000E948A2FBC0180EB91E00E94262ECCCFA2
:1009D00060E08081811161E080EB91E00E94382E1F
:1009E000C3CF90E08081811191E09093C501BCCF8D
:1009F00086E794E0BA010E94922F6093C101709340
:100A0000C2018093C3019093C401AECF81E0609195
:100A1000C60127C00E94142E22C080EB91E00E94E4
:100A2000322EAB01BC012FC080EB91E00E942E2E34
:100A30000DC04091BD015091BE016091BF01709108
:100A4000C00121C080EB91E00E942A2EBC0181E010
:100A50000E941404089580EB91E00E943B2E682FC1
:100A600081E00E942E0408956091C50181E070E04C
:100A70000E94FA0308954091C1015091C201609112
:100A8000C3017091C40181E00E94DF03089580E0FA
:100A90000E94480408959C01C397C197E0F487EC35
:100AA00091E060E021E030E040E050E00E94072764
:100AB0008CEA92E060E021E030E040E050E00E940B
:100AC000072781E993E060E021E030E040E050E07A
:100AD0000E940727089525363105D8F087EC91E06C
:100AE00061E021E030E040E050E00E9407278CEA1E
:100AF00092E061E021E030E040E050E00E94072712
:100B000081E993E061E021E030E040E050E00E94C4
:100B10000727089544E00E94FA34089542E00E94B5
:100B2000FA340895809300011092010180E090E072
:100B300060E071E00E948E05089541E00E94FA3461
:100B40000895EF92FF920F931F93382F562F742F13
:100B5000E22F780186E794E0632F452F272F0E2F91
:100B60000E94B1321F910F91FF90EF900895EF9284
:100B7000FF920F931F93382F562F742FE22F780177
:100B800086E794E0632F452F272F0E2F0E94B13266
:100B90001F910F91FF90EF9008958F929F92AF92C7
:100BA000BF92CF92DF92EF92FF920F931F93B82ED6
:100BB000A62E942E822E680187E695E06B2D4A2D95
:100BC000292D082D76010E94B1328BEF94E06B2D18
:100BD0004A2D292D0E94B1321F910F91FF90EF9065
:100BE000DF90CF90BF90AF909F908F9008958091AD
:100BF000C501882331F08091E405882331F01092FB
:100C0000E40587ED94E066E006C081E08093E405AA
:100C100087ED94E064E00E94DA2D0895843021F499
:100C200087ED94E064E00EC0823079F48091A201F7
:100C30009091A30101969093A3018093A20187ED67
:100C400094E065E00E94DA2D0895863011F40E9448
:100C5000F705089587EC91E00E941A1C882361F43F
:100C60008CEA92E00E941A1C882331F481E993E017
:100C70000E941A1C8823F9F0809190018823D9F4EE
:100C800082E00E94460287EC91E00E94601CAC0169
:100C900060E070E082EF95E00E94211882EF95E01D
:100CA0006AE477E02FEF3FEF4FEF5FEF0E943818D5
:100CB00081E08093900108958F929F92BF92CF928E
:100CC000DF92EF92FF920F931F93CF93DF9386ED06
:100CD00094E00E94EE1AB82E87EC91E00E94CB1BA4
:100CE000882309F069C08CEA92E00E94CB1B88231C
:100CF00009F062C081E993E00E94CB1B882309F0D0
:100D00005BC087ED94E06B2D0E94DA2D5FC0E89CFC
:100D1000E001E99CD00DF89CD00D1124C953DE4FA1
:100D2000CE010E94CB1B8823C1F1CE010E94C51DBC
:100D3000892B51F00091A2011091A301CE010E94D4
:100D4000C51D8017910748F5CE010E94D51B882349
:100D500089F0CE010E941A1C8823D1F4CE010E9492
:100D6000AC1B682FCE0120E030E040E050E00E9454
:100D700007270EC0F6018081882339F4CE010E9436
:100D8000192B87ED94E063E006C0CE010E94192B79
:100D900087ED94E06B2D0E94DA2D0894E11CF11C84
:100DA00085EE90E0C80ED91E93E0E916F10409F033
:100DB000AECF0E942A060AC0A1EECA2EA1E0DA2E0A
:100DC000EE24FF24F5EE8F2E912CA1CFDF91CF9151
:100DD0001F910F91FF90EF90DF90CF90BF909F9069
:100DE0008F9008958F929F92AF92BF92CF92DF9291
:100DF000EF92FF920F931F93DF93CF9300D000D019
:100E0000CDB7DEB7EE24FF241CE0C12ED12CB5EE09
:100E10008B2E912C5E010894A11CB11CE89C8001D2
:100E2000E99C100DF89C100D112409531E4FC801A8
:100E30000E947723C8010E948A1D69837A838B836D
:100E40009C83C601B5010E948A050894E11CF11C2F
:100E500081E190E0C80ED91E93E0E916F104F1F6A5
:100E60001092900181E00E94460282EF95E00E947C
:100E700029180F900F900F900F90CF91DF911F9135
:100E80000F91FF90EF90DF90CF90BF90AF909F9029
:100E90008F900895AF92BF92CF92DF92EF92FF9220
:100EA0000F931F93CF93DF9329ECE22E21E0F22ED4
:100EB00000E010E095EEA92EB12C81E0C82ED12CD7
:100EC0000A9DE0010B9DD00D1A9DD00D1124C95330
:100ED000DE4FCE010E941A1C8823A9F0CE010E9489
:100EE000CE21CE010E94A723882369F09601F70145
:100EF000008002C0220F331F0A94E2F78091A10103
:100F0000822B8093A1010F5F1F4F85EE90E0E80ECA
:100F1000F91E03301105A1F681B39091A101892B2F
:100F200081BB81E090E00E94463891B38091A1019D
:100F30008095892381BB1092A10187EC91E00E94EA
:100F40001A1C882371F48CEA92E00E941A1C8823F0
:100F500041F481E993E00E941A1C882311F40E9455
:100F6000F206DF91CF911F910F91FF90EF90DF90EC
:100F7000CF90BF90AF90089587EC91E00E941A1C2B
:100F8000882361F48CEA92E00E941A1C882331F4D1
:100F900081E993E00E941A1C882311F00E94F20656
:100FA00087EC91E00E94F31C8CEA92E00E94F31C13
:100FB00081E993E00E94F31C0895CF93DF93EC0145
:100FC00087E2C031D80791F083E1C838D80771F0C3
:100FD0008FE0C03AD80751F087E0C03DD80731F024
:100FE00083E0C83ED80711F080E010C087EC91E0A4
:100FF000BE010E94351C8CEA92E0BE010E94351CA5
:1010000081E993E0BE010E94351C81E0DF91CF9120
:1010100008950E9403178091C7058650823048F4D6
:1010200060E080911801882309F461E088E10E9462
:1010300048398091C8058650823048F460E080913C
:101040001801882309F461E089E10E944839809100
:10105000D105863021F487ED94E061E003C087ED8F
:1010600094E062E00E94DA2D08958CE060E00E9436
:10107000483908958CE061E00E94483908950E9443
:10108000B93760939501709396018093970190937F
:10109000980181E08093990180919A01813031F427
:1010A0008CE060E00E94483910929A0186ED94E04D
:1010B0000E94EE1A882329F087ED94E061E00E94F7
:1010C000DA2D08956F927F928F929F92AF92BF9286
:1010D000CF92DF92EF92FF920F931F93CF93DF9304
:1010E000E82EDA0170E0FB013297E337F10508F0F2
:1010F00088C4E45BFF4FEE0FFF1F0590F491E02DD5
:10110000099490E0019725EE30E0829F8001839F53
:10111000100D929F100D112409531E4F60E08C9109
:10112000811161E0C8010E94F22114C090E0019792
:1011300025EE30E0829F8001839F100D929F100D5D
:10114000112409531E4F60E08C91811161E0C801A8
:101150000E94C61B81E056C490E0019725EE30E066
:10116000AC01429FC001439F900D529F900D1124EE
:1011700089539E4F0E947723EDCF90E0019725EE93
:1011800030E0FC01E29FC001E39F900DF29F900DC3
:10119000112489539E4F6C910E94C11BDBCF90E0BC
:1011A000019725EE30E0AC01429FC001439F900DB6
:1011B000529F900D112489539E4F6C910E94AE2531
:1011C000C9CF86E794E0BA010E948A2FBC018E2D18
:1011D00090E0019725EE30E0FC01E29FC001E39F23
:1011E000900DF29F900D112489539E4F0E94731C05
:1011F000B1CF90E0019725EE30E0829F8001839F80
:10120000100D929F100D112409531E4F60E08C9118
:10121000811161E0C8010E94FC219CCF90E0019700
:1012200025EE30E0AC01429FC001439F900D529FDC
:10123000900D112489539E4F0E944A1D8BCFFF248D
:101240000894E108F10885EE90E0E89E8001E99EAF
:10125000100DF89E100D11240894E11CF11C095387
:101260001E4FC8010E948A1DAB01BC0140938C0136
:1012700050938D0160938E0170938F01C8010E947D
:10128000521DC70154E0880F991F5A95E1F79EC07F
:1012900090E0019725EE30E0FC01E29FC001E39F62
:1012A000900DF29F900D112489539E4F0E945F294B
:1012B00010C090E0019725EE30E0AC01429FC001E4
:1012C000439F900D529F900D112489539E4F0E9471
:1012D00029290E942A063ECF86E794E0BA010E949F
:1012E000DE2FAB01BC018E2D90E0019725EE30E0A2
:1012F000FC01E29FC001E39F900DF29F900D11242D
:1013000089539E4F0E948A1C25CF86E794E0BA013C
:101310000E94DE2FAB01BC018E2D90E0019725EEDF
:1013200030E0FC01E29FC001E39F900DF29F900D21
:10133000112489539E4F0E94DA1B0CCFFA011191A0
:1013400086E794E0BF010E94922F5B016C018E2D15
:1013500090E0019725EE30E0829FF001839FF00D31
:10136000929FF00D1124E953FE4F60E0111161E0EE
:10137000CF01A60195010E940727ABCF86E794E035
:10138000BA010E94AE2FAB01BC0140938C01509377
:101390008D0160938E0170938F010E2D10E001502E
:1013A000104085EE90E09C01029FC001039F900DCC
:1013B000129F900D112489539E4F0E94621D44E09C
:1013C000000F111F4A95E1F7C80144966CE871E0DF
:1013D0000E948A05BFCE86E794E0BA010E94AE2F34
:1013E000AB01BC0140938C0150938D0160938E0141
:1013F00070938F010E2D10E00150104085EE90E0AB
:10140000FC010E9FC0010F9F900D1E9F900D112497
:1014100089539E4F0E94721D34E0000F111F3A95B0
:10142000E1F7C8014896D2CF4C91413081F490E069
:10143000019725EE30E0AC01429FC001439F900D23
:10144000529F900D112489539E4F64E011C0423089
:1014500091F490E0019725EE30E0FC01E29FC0019D
:10146000E39F900DF29F900D112489539E4F65E0EC
:101470000E94BA1C6FCE433081F490E0019725EEB4
:1014800030E0AC01429FC001439F900D529F900DF0
:10149000112489539E4F66E0EBCF80E00E94480400
:1014A00059CE86E794E0BA010E94822FBC018E2DAE
:1014B00090E0019725EE30E0FC01E29FC001E39F40
:1014C000900DF29F900D112489539E4F0E94BF1DD5
:1014D00041CE86E794E0BA010E94922FAB01BC0195
:1014E0008E2D90E0019725EE30E0FC01E29FC001D7
:1014F000E39F900DF29F900D112489539E4F0E94FF
:101500009B1D28CE86E794E0BA010E94922FAB0182
:10151000BC018E2D90E0019725EE30E0FC01E29FAA
:10152000C001E39F900DF29F900D112489539E4FAF
:101530000E94A71D0FCE86E794E0BA010E94922F69
:10154000AB01BC018E2D90E0019725EE30E0FC014F
:10155000E29FC001E39F900DF29F900D11248953EB
:101560009E4F0E94B31DF6CD90E0019725EE30E02E
:10157000AC01429FC001439F900D529F900D1124DA
:1015800089539E4F0E944D29A4CE90E0019725EEED
:1015900030E0FC01E29FC001E39F900DF29F900DAF
:1015A000112489539E4F0E943B2993CE90E00197CE
:1015B00025EE30E0829FE001839FD00D929FD00DF9
:1015C0001124C953DE4F8C8D882309F41BC20E945D
:1015D000B9372091C1013091C2014091C3015091AE
:1015E000C401621B730B840B950B6093CD05709344
:1015F000CE058093CF059093D00581E08C830E9427
:101600003F08A8CD90E0019725EE30E0829FE001F1
:10161000839FD00D929FD00D1124C953DE4F8C8D26
:10162000882309F4EFC1CE010E94C51D892B09F45E
:10163000ECC10091A2011091A301CE010E94C51D31
:101640000817190708F0E1C10AC001979093A30198
:101650008093A201CE010E94322A0E942A06609045
:10166000C1017090C2018090C3019090C40180EBD1
:1016700091E00E94322E5B016C0180EB91E00E94B0
:101680002E2E7C0180EB91E00E942A2E00E010E0DB
:10169000A0E0B0E0E80EF91E0A1F1B1FEA0CFB1CBD
:1016A0000C1D1D1DE614F7040805190548F40091EA
:1016B000C1011091C2012091C3013091C4011BC02E
:1016C00080EB91E00E94322E6B017C0180EB91E077
:1016D0000E942E2E8C0180EB91E00E942A2E20E0A9
:1016E00030E0A0E0B0E0080F191F2A1F3B1F0C0DCF
:1016F0001D1D2E1D3F1D8091910190919201A09181
:101700009301B091940180179107A207B30768F085
:10171000801B910BA20BB30B8093910190939201CC
:10172000A0939301B093940115CD10929101109262
:10173000920110929301109294010CCD90E00197C8
:1017400025EE30E0829F8001839F100D929F100D47
:10175000112409531E4FC8010E944A1DC80140E0D0
:1017600050E060E070E00E94521DC80140E050E08F
:1017700060E070E00E94621DC80140E050E060E05F
:1017800070E00E94721DE6CC90E0019725EE30E0FB
:10179000AC01429FC001439F900D529F900D1124B8
:1017A00089539E4F0E94CB1BB3C090E0019725EE5A
:1017B00030E0FC01E29FC001E39F900DF29F900D8D
:1017C000112489539E4F0E94BC1BA2C090E0019738
:1017D00025EE30E0AC01429FC001439F900D529F27
:1017E000900D112489539E4F0E94A71B91C090E039
:1017F000019725EE30E0FC01E29FC001E39F900DD0
:10180000F29F900D112489539E4F0E94AC1B80C003
:1018100090E0019725EE30E0AC01429FC001439F6C
:10182000900D529F900D112489539E4F0E942F1CA2
:10183000BCC090E0019725EE30E0FC01E29FC001C2
:10184000E39F900DF29F900D112489539E4F0E94AB
:101850005A1D84C090E0019725EE30E0AC01429F14
:10186000C001439F900D529F900D112489539E4FAC
:101870000E948A1D73C090E0019725EE30E0FC01C4
:10188000E29FC001E39F900DF29F900D11248953B8
:101890009E4F0E941A1C682F81E070E00E94FA039C
:1018A0008E2D90E0019725EE30E0AC01429FC00103
:1018B000439F900D529F900D112489539E4F0E947B
:1018C000101C10C090E0019725EE30E0FC01E29F73
:1018D000C001E39F900DF29F900D112489539E4FFC
:1018E0000E94021CAB01BC0181E00E94A90395C0CB
:1018F00090E0019725EE30E0AC01429FC001439F8C
:10190000900D529F900D112489539E4F0E94EE1C02
:10191000682F81E00E942E0480C090E0019725EEA0
:1019200030E0FC01E29FC001E39F900DF29F900D1B
:10193000112489539E4F0E946A1D10C090E00197A8
:1019400025EE30E0AC01429FC001439F900D529FB5
:10195000900D112489539E4F0E947A1DAB01BC014A
:1019600081E00E94C40359C090E0019725EE30E069
:10197000FC01E29FC001E39F900DF29F900D1124A6
:1019800089539E4F0E94A11D36C090E0019725EE1D
:1019900030E0AC01429FC001439F900D529F900DDB
:1019A000112489539E4F0E94C51DBC0181E00E94F5
:1019B000140433C090E0019725EE30E0FC01E29F73
:1019C000C001E39F900DF29F900D112489539E4F0B
:1019D0000E94AD1D10C090E0019725EE30E0AC01F3
:1019E000429FC001439F900D529F900D1124895337
:1019F0009E4F0E94B91DAB01BC0181E00E94DF0334
:101A00000CC080E00E94480408C08091A20190911F
:101A1000A301009709F019CE1DCEDF91CF911F9140
:101A20000F91FF90EF90DF90CF90BF90AF909F907D
:101A30008F907F906F9008951F93CF93DF93182F0F
:101A4000863029F4C0911301D091140104C0C091D3
:101A50001501D09116018091C705181711F090E07B
:101A600006C088E1609118010E94483991E0809198
:101A7000C805181731F489E1609118010E944839AE
:101A800002C0992369F0BE0180E090E049E058E08F
:101A90000E94A5160E94ED1687ED94E060E009C053
:101AA000163021F487ED94E061E003C087ED94E007
:101AB00062E00E94DA2DDF91CF911F910895FF928D
:101AC0000F931F93F82E062FE82FF0E0E953FA4FFB
:101AD000608381E0F816D9F1FF2019F482E00E94BA
:101AE000BD3518E1002329F4812F60E00E94C5383C
:101AF00033C006500230E8F0812F60E00E94C53804
:101B0000812F61E00E944839FF2021F081E0F81622
:101B100019F506C04091170182E065E371E105C047
:101B20004091170183E061E371E150E00E9441358B
:101B300013C0812F61E00E94C53860E080911801D8
:101B4000882309F461E0812F0E94483905C083E0B1
:101B50000E94BD3519E1C6CF1F910F91FF900895E6
:101B600080E06091C7050E945F0D81E06091C8052B
:101B70000E945F0D90E08091C705843009F491E0E8
:101B80008091C805843009F491E09093CA050895C6
:101B900042E00E949F34089544E00E949F340895DB
:101BA00041E00E949F3408952F923F924F925F929E
:101BB0006F927F928F929F92AF92BF92CF92DF925D
:101BC000EF92FF920F931F93DF93CF93CDB7DEB7C2
:101BD00061970FB6F894DEBF0FBECDBF80E090E0F6
:101BE00060E071E00E94C80D82E090E063E071E087
:101BF0004AE00E949F341A821B821C821D821E8230
:101C00001F82188619861A861B861C861D861E86CC
:101C10001F86188A198A1982CC24DD24ACE0EA2EAA
:101C2000F12CF6E02F2E312C2C0E3D1EEAE04E2E2C
:101C3000512C4C0E5D1E7EE0672E712C6C0E7D1EAD
:101C40004E010894811C911C65EEA62EB12CC70193
:101C5000BE016E5F7F4F0E94CC0DC7010496B1019B
:101C60000E94CC0DC7010896B2010E94CC0DC7019D
:101C70000C96B3010E94CC0DC7014096B4010E949E
:101C8000D00DCA9C8001CB9C100DDA9C100D112444
:101C900009531E4FC80169810E94AE254A815B81AC
:101CA0006C817D81C8010E94821D4E815F816885A3
:101CB0007985C8010E94521D4A855B856C857D85AA
:101CC000C8010E94621D4E855F8568897989C801B7
:101CD0000E94721D0894C11CD11C81E190E0E80EA5
:101CE000F91E93E0C916D10409F0B1CF61960FB681
:101CF000F894DEBF0FBECDBFCF91DF911F910F9142
:101D0000FF90EF90DF90CF90BF90AF909F908F901B
:101D10007F906F905F904F903F902F9008952F92FB
:101D20003F924F925F926F927F928F929F92AF926B
:101D3000BF92CF92DF92EF92FF920F931F93DF93A8
:101D4000CF93CDB7DEB761970FB6F894DEBF0FBE65
:101D5000CDBF83E090E00E94293580E090E060E014
:101D600071E00E948E0582E090E063E071E04AE05D
:101D70000E94FA341A821B821C821D821E821F82DC
:101D8000188619861A861B861C861D861E861F8647
:101D9000188A198A1982CC24DD249CE0E92EF12CC2
:101DA00082E0282E312C2C0E3D1E06E0402E512CB8
:101DB0004C0E5D1E1AE0612E712C6C0E7D1EBEE075
:101DC0008B2E912C8C0E9D1E5E010894A11CB11CC3
:101DD00085EE90E0C89E8001C99E100DD89E100D22
:101DE000112409531E4FC8010E948A1D6A837B83F8
:101DF0008C839D83C8010E945A1D6E837F838887D0
:101E00009987C8010E946A1D6A877B878C879D8796
:101E1000C8010E947A1D6E877F87888B998BC801C5
:101E20000E94A71B8983C701B1010E948A05C701CF
:101E30000496B2010E948A05C7010896B3010E9468
:101E40008A05C7010C96B4010E948A05C701409615
:101E5000B5010E949D050894C11CD11C81E190E050
:101E6000E80EF91E93E0C916D10409F0B1CF6196CE
:101E70000FB6F894DEBF0FBECDBFCF91DF911F919B
:101E80000F91FF90EF90DF90CF90BF90AF909F9019
:101E90008F907F906F905F904F903F902F9008951C
:101EA0000E94E534882339F00E94CB34039719F45B
:101EB0000E94D40D08950E948F0E08958091D80538
:101EC0008823A1F488ED95E00E948A3C892B71F06B
:101ED0000E94B9376093E0057093E1058093E205B5
:101EE0009093E30588ED95E00E94943C8091C705AE
:101EF000873051F08091C805873031F087ED94E04C
:101F000062E00E94DA2D08958091D105882371F452
:101F100087E08093D1050E94B9376093E005709304
:101F2000E1058093E2059093E30508950E94B93797
:101F30002091E0053091E1054091E2055091E305E3
:101F4000621B730B840B950B2091110130911201D0
:101F500040E050E0261737074807590728F4109249
:101F6000D10587E00E941C0D0895CF92DF92EF9279
:101F7000FF920F931F93CF93DF9386ED94E00E941F
:101F8000251B00E010E0EE24FF2425EEC22ED12C0C
:101F9000EC9CE001ED9CD00DFC9CD00D1124C953AC
:101FA000DE4FCE010E94CB1B8823A9F0CE010E94F8
:101FB000C51D892B81F00115110531F0CE010E945C
:101FC000C51D8017910718F0E114F10421F4CE012A
:101FD0000E94C51D8C010894E11CF11C83E0E816E9
:101FE000F104B1F6101611066CF48091A2019091E3
:101FF000A3010817190730F087ED94E061E00E9413
:10200000DA2D02C00E945C06DF91CF911F910F91E3
:10201000FF90EF90DF90CF9008950F931F9307EDFF
:1020200014E0C80161E049E351E10E94F12DC801CB
:1020300062E045EB5FE00E94F12DC80163E049E4F6
:1020400054E10E94F12DC80164E042E450E10E9495
:10205000F12DC80165E048E350E10E94F12DC8016F
:1020600066E04EE55FE00E94F12D1F910F9108950B
:1020700087ED94E060E00E94DA2D80EB91E00E9411
:10208000612E089587ED94E060E00E94DA2D80EBE8
:1020900091E00E94E42E0895FF920F931F93CF9337
:1020A000DF93F82E8B01C0E0D0E015C08F2D61E0EA
:1020B0000E9448396AEF70E080E090E00E94ED37BE
:1020C0008F2D60E00E9448396AEF70E080E090E078
:1020D0000E94ED372196C017D10744F3DF91CF91CD
:1020E0001F910F91FF9008951F93182F0E94F206E1
:1020F000113091F41092910110929201109293017B
:10210000109294011092A3011092A2011092E20188
:102110001092C7021092AC03109299010E94BC0762
:102120000E94EC2E1F9108951F93182F0E94B9371B
:102130002091D2053091D3054091D4055091D50519
:10214000621B730B840B950B6E5E72408040904057
:1021500008F485C00E94B9376093D2057093D30507
:102160008093D4059093D505E12FF0E0E953FA4F21
:1021700080818130B1F0883041F4809199018130C3
:1021800009F06DC00E94F2066AC0823031F08330DF
:1021900059F480919901882321F081E00E94741004
:1021A0005EC00E943F085BC0843021F481E08093D0
:1021B000C90555C0853001F587EC91E00E94AC1B44
:1021C00011E0682F612787EC91E00E94FC218CEAE6
:1021D00092E00E94AC1B682F61278CEA92E00E947B
:1021E000FC2181E993E00E94AC1B182781E993E070
:1021F000612F0E94FC2133C0893079F40E94F206DD
:1022000087EC91E00E944A1D8CEA92E00E944A1DF0
:1022100081E993E00E944A1D22C08A3001F50E94A4
:10222000F20687EC91E00E948A1DAB01BC0187ECAD
:1022300091E00E941F1C8CEA92E00E948A1DAB0173
:10224000BC018CEA92E00E941F1C81E993E00E948D
:102250008A1DAB01BC0181E993E00E941F1C1F9104
:10226000089581E00E949410089580E00E949410E7
:1022700008952091BD013091BE014091BF01509160
:10228000C001211531054105510579F08091A20168
:102290009091A301A0E0B0E082179307A407B507CF
:1022A00020F080E00E94741008958091CA05882370
:1022B00029F08091C905882309F467C08091C7057A
:1022C000863029F08091C805863009F057C081E03A
:1022D0000E944E02882309F451C086E08093D10504
:1022E0000E941C0D08950E94B9372091CD053091B0
:1022F000CE054091CF055091D005621B730B840B26
:10230000950B2091C1013091C2014091C3015091C0
:10231000C4016217730784079507B8F18091C6015D
:10232000882381F487ED94E062E00E94DA2D0E9418
:10233000B9376093CD057093CE058093CF05909308
:10234000D00508950E94142E8823F9F487ED94E0B7
:1023500060E00E94DA2D1092D1051092C9050E940A
:10236000B9376093CD057093CE058093CF059093D8
:10237000D00580EB91E00E94992E089586ED94E0BF
:102380000E94EE1A882351F2AECF08950E94EC2EDF
:102390000E94F2061092990108950F931F93CF9314
:1023A000DF93EB0190E0FC013297E637F10508F08E
:1023B000BEC1E154FF4FEE0FFF1F0590F491E02DD9
:1023C00009940E943F0802C00E94C61181E0B0C17A
:1023D00081E00E947410FACF88818093A001882345
:1023E00019F40E943508F2CF0E943A08EFCF60E05E
:1023F0008881811161E086ED94E00E949C1BE6CF0C
:102400008AE0E3E0F1E0DF011D928A95E9F780E0E0
:1024100090E0FE01E80FF91F2081222321F0FC014A
:10242000ED5FFE4F208301968B30910591F782E09E
:1024300090E063E071E04AE00E94FA34C7CF68811F
:10244000623008F474C1609300011092010186E7C4
:1024500094E070E00E94652F60910001709101018D
:1024600087E695E00E94652F80E090E060E071E0F3
:102470000E948E05ABCF8881833020F080E00E94DF
:102480004804A4CF882319F40E94381B9FCF0E94D0
:10249000641B9CCF87EC91E00E945F298CEA92E05C
:1024A0000E945F2981E993E00E945F290E942A0629
:1024B0008DCF86E794E00E948A2F0E94DD0786CFA9
:1024C00088810E94350208C080E068810E945F0D0B
:1024D00081E069810E945F0D0E94B00D77CF8881F5
:1024E00080939B0173CF86E794E00E948A2F90939C
:1024F000100180930F01F0CF86E794E00E948A2FAD
:102500009093120180931101E7CF86E794E00E9437
:102510008A2F9093140180931301DECF86E794E015
:102520000E948A2F9093160180931501D5CF688160
:10253000613019F46093180149CF662309F0F7C0A0
:102540001092180143CF86E794E00E94922F609387
:10255000A4017093A5018093A6019093A70136CFA3
:1025600086E794E00E94922F28EE33E040E050E0AE
:102570000E94C54A6093A8017093A9018093AA01A3
:102580009093AB0123CF87EC91E068810E94941D6A
:102590008CEA92E068810E94941D81E993E0688151
:1025A0000E94941D13CF81E066E0BEC081E060917F
:1025B0009901BAC0409191015091920160919301AB
:1025C0007091940181E09FC00E94142EABC081E005
:1025D00060910201A9C081E063E071E04AE050E04F
:1025E0000E948C03A7C087EC91E00E94651CBC018F
:1025F00071C08AE20E949638AA2797FDA095BA2F4B
:10260000BC01CD010E94AE4920E030EC4FE754E41C
:102610000E94184920E030E048EC51E415C089E2FE
:102620000E949638AA2797FDA095BA2FBC01CD012C
:102630000E94AE4920E030EC4FE754E40E94184974
:1026400020E030E040EA50E40E94624AAB01BC0165
:1026500081E00E94A9036EC081E06091170164C00F
:102660009091C70580E06091C80570E0682B792BD8
:102670007093CC056093CB0581E04FC01092CC05E0
:102680001092CB0588E10E947B39182F00E010934F
:10269000CC050093CB0589E10E947B39082B192BCF
:1026A0001093CC050093CB0581E0B80136C0609152
:1026B0000F01709110010EC0609111017091120113
:1026C00009C0609113017091140104C0609115015B
:1026D0007091160181E00E9414042CC081E0609189
:1026E000180122C06091A8017091A9018091AA01EE
:1026F0009091AB0128EE33E040E050E00E94F84AB0
:1027000081E0BA01A9010E94DF0314C087EC91E0C7
:102710000E94D51B682F81E070E00E94FA030AC076
:102720000E943002682F81E00E942E0403C080E0E6
:102730000E944804DF91CF911F910F9108950F934C
:102740001F93CF93DF93182F062FEA010E94B9370A
:1027500060939C0170939D0180939E0190939F01D3
:10276000143018F4113048F403C0143091F40BC045
:10277000802FBE010E94CD110FC0812F602FAE01AE
:102780000E94620809C084E0602FAE010E945F04CD
:1027900003C080E00E944804DF91CF911F910F9108
:1027A000089593E090930E010E949F130895EF9275
:1027B000FF920F931F93F82EE62E8A0182E08093FA
:1027C0000E010E94B93760939C0170939D01809324
:1027D0009E0190939F018F2D6E2DA8010E949F1343
:1027E0001F910F91FF90EF900895EF92FF920F933A
:1027F0001F93F82EE62E8A0181E080930E010E943D
:10280000B93760939C0170939D0180939E019093D2
:102810009F018F2D6E2DA8010E949F131F910F9174
:10282000FF90EF900895FA01623069F0633018F478
:10283000613071F505C0633051F0643049F50AC06C
:102840000E943F08089581E00E94741008950E943C
:10285000C611089540814230D8F040930001109293
:1028600001010E948F0E609100017091010186E7C5
:1028700094E00E94652F609100017091010187E64C
:1028800095E00E94652F8CE065E070E00E944C109E
:102890000895CF92DF92EF92FF920F931F93CF9301
:1028A000DF9341EEE42E41E0F42E00E010E035EE3F
:1028B000C32ED12C0C9DE0010D9DD00D1C9DD00D83
:1028C0001124C953DE4FCE010E94D51B882351F538
:1028D000F7018081882331F5CE010E941A1C8823DC
:1028E00009F12BC086ED94E00E94EE1A8823A1F036
:1028F00087ED94E061E00E94DA2D8091CB01813078
:1029000041F08091B002813021F0809195038130B7
:10291000A1F40E94C61111C087ED94E060E00E940E
:10292000DA2D0BC00F5F1F4F85EE90E0E80EF91E09
:102930000330110509F0BECFD5CFDF91CF911F91A4
:102940000F91FF90EF90DF90CF900895EF92FF925C
:102950000F931F93CF93DF9389E797E00E945B3D2E
:10296000892B31F081E090E09093FA048093F90490
:1029700086E794E00E94FB3387E695E00E94FB33F4
:102980008BEF94E00E94FB3387EC91E00E941A1CCD
:10299000882361F48CEA92E00E941A1C882331F4A7
:1029A00081E993E00E941A1C8823C9F080919B0161
:1029B0008823A9F00E94B93720919C0130919D0194
:1029C00040919E0150919F01621B730B840B950BEC
:1029D000695E73408040904010F00E94F20600E073
:1029E00010E055EEE52EF12C0E9DE0010F9DD00D6F
:1029F0001E9DD00D1124C953DE4FCE010E941A1C1A
:102A0000882319F0CE010E940A230F5F1F4F033065
:102A1000110551F780919901882309F47CC00E9427
:102A2000B9372091910130919201409193015091D9
:102A30009401E0909501F09096010091970110911A
:102A400098012E193F09400B510B260F371F481FC5
:102A5000591F209391013093920140939301509319
:102A600094016093950170939601809397019093E0
:102A7000980180919A01813019F480E00E947410CD
:102A800086ED94E00E94EE1A8823E9F02091A401DB
:102A90003091A5014091A6015091A7012115310562
:102AA0004105510581F08091910190919201A09191
:102AB0009301B0919401281739074A075B0718F46E
:102AC00081E00E94741086ED94E00E94EE1A882343
:102AD00049F40E94F11A882329F087ED94E061E01F
:102AE0000E94DA2D20919101309192014091930141
:102AF000509194018091A8019091A901A091AA01FF
:102B0000B091AB01281739074A075B0720F087ED22
:102B100094E00E94DD2DDF91CF911F910F91FF90E6
:102B2000EF900895EF92FF920F931F93CF93DF934F
:102B300089E797E040E855E260E070E00E94623D7E
:102B400064E670E080E090E00E94ED3763E876E0B4
:102B500080E090E00E948B1A0E94B9376093AC012C
:102B60007093AD018093AE019093AF018CE061E072
:102B70000E94C53880E061E00E94C53880E061E0D5
:102B80000E9448398AE260E00E94C53889E260E02C
:102B90000E94C5380E940D1087ED94E060E00E940D
:102BA000DA2D86ED94E061E00E949C1B8BE495E0B9
:102BB0000E94E91A80EB91E048E750E060E070E0A5
:102BC0000E94202E80EB91E060E070E00E94262EB3
:102BD00080EB91E060E070E00E941C2E80EB91E0C1
:102BE0006EE076E00E94172E87E597E040E051EE18
:102BF00060E070E00E94213A609100017091010153
:102C000086E794E00E94652F86E794E065EF73E124
:102C10000E94993286E794E06DEC75E00E94A5323F
:102C200086E794E063E174E10E949F3286E794E0D6
:102C300060E00E94602F609100017091010187E6C1
:102C400095E00E94652F87E695E067ED73E10E94AD
:102C5000993287E695E067EB75E00E94A53287E63A
:102C600095E063E174E10E949F3287E695E061E0C0
:102C70000E94602F60910001709101018BEF94E040
:102C80000E94652F8BEF94E061ED73E10E94993211
:102C90008BEF94E061EA75E00E94A5328BEF94E03F
:102CA00063E174E10E949F328BEF94E061E00E9447
:102CB000602F86E794E062E975E00E94742F87E652
:102CC00095E062E975E00E94742F8BEF94E062E971
:102CD00075E00E94742FC0E0D0E065EEE62EF12C86
:102CE000CE9D8001CF9D100DDE9D100D1124095346
:102CF0001E4FC80160E00E94C61BC80160E00E9430
:102D00006D23C80168E873E10E94351CC8016CEDB1
:102D100075E00E94731CC80161E00E94F221C801A5
:102D200064E00E94AE252196C330D105C9F60E9409
:102D3000500F8CE065E070E00E944C10DF91CF9165
:102D40001F910F91FF90EF90089561157105810516
:102D5000910569F481E090E0A0E0B0E08093E505A2
:102D60009093E605A093E705B093E80508C060934B
:102D7000E5057093E6058093E7059093E805509389
:102D8000EA054093E905809170008E7F8093700082
:102D90008091B0008C7F8093B0008091B100877FDC
:102DA0008093B1008091B6008F7D8093B6008091B2
:102DB00070008D7F809370008091B100846080935B
:102DC000B1008091B1008C7F8093B10086E090E0EB
:102DD0009093F1058093F00508951092EB05109201
:102DE000EC051092ED051092EE051092EF05809122
:102DF000F0059091F1058093B200E0E7F0E080816A
:102E0000816080830895E0E7F0E080818E7F808399
:102E100008958091EB059091EC05A091ED05B0919E
:102E2000EE050196A11DB11D8093EB059093EC0575
:102E3000A093ED05B093EE058091EB059091EC0524
:102E4000A091ED05B091EE052091E5053091E605E4
:102E50004091E7055091E80582179307A407B5074D
:102E600010F18091EF058823F1F481E08093EF0564
:102E70008091EB059091EC05A091ED05B091EE05E8
:102E8000821B930BA40BB50B8093EB059093EC0581
:102E9000A093ED05B093EE05E091E905F091EA0508
:102EA00009951092EF0508951F920F920FB60F9299
:102EB0000BB60F9211242F933F934F935F936F9311
:102EC0007F938F939F93AF93BF93EF93FF938091E3
:102ED000F0059091F1058093B2000E940917FF91CF
:102EE000EF91BF91AF919F918F917F916F915F9182
:102EF0004F913F912F910F900BBE0F900FBE0F90EF
:102F00001F9018951F920F920FB60F920BB60F924B
:102F100011242F933F934F935F936F937F938F93DE
:102F20009F93AF93BF93EF93FF93E091F605F091DA
:102F3000F7050995FF91EF91BF91AF919F918F9107
:102F40007F916F915F914F913F912F910F900BBEA9
:102F50000F900FBE0F901F901895FC01A3E0440F37
:102F6000551F661F771FAA95D1F7403080E058079C
:102F700081E0680780E0780714F481E010C033E056
:102F800075956795579547953A95D1F7403080E00C
:102F9000580781E0680780E078071CF482E08283AC
:102FA00039C023E075956795579547952A95D1F7D0
:102FB000403080E0580781E0680780E0780714F42B
:102FC00083E0EDCF92E075956795579547959A9573
:102FD000D1F7403080E0580781E0680780E078074B
:102FE00014F484E0DCCF82E075956795579547959A
:102FF0008A95D1F7403080E0580781E0680780E08B
:10300000780714F485E0CBCF85E082834FEF5FEF44
:1030100060E070E08FB78383F894518340835093CE
:1030200087004093860083818FBF80918100887FD5
:1030300080938100809181009281892B809381000F
:1030400008951092800020E1209381000E94AD1726
:103050000895EFE6F0E080818E7F80830895E1E8B7
:10306000F0E02081DC0112968C91282B20830895BA
:103070000F931F93CF93DF93EC018B01121613066E
:103080001406150624F4BA01A9010E94AD171D8388
:103090000C8381E080936F00CE010E942F18DF9196
:1030A000CF911F910F910895F999FECF72BD61BD27
:1030B000F89A80B50895F999FECF1FBA72BD61BD27
:1030C00040BD0FB6F894FA9AF99A0FBE0895282FCA
:1030D000909157069F5F943408F090E080915806D5
:1030E0008917E1F33FB7F89480915406882341F0A3
:1030F000E92FF0E0E75AF94F2083909357061DC05F
:1031000081E080935406209355061092560682E083
:1031100088BB8091710082608093710080919000E3
:103120008F738068809390008091940090919500B7
:10313000409690939900809398003FBF0895862F02
:103140000E94671881E090E008951F920F920FB6D9
:103150000F920BB60F9211242F933F934F935F93CF
:103160006F937F938F939F93EF93FF9340915406B8
:103170005091550620919800309199006091500629
:1031800070915106809156061FC0260F371F952F4C
:10319000917056954F5F9817B9F0992321F080915F
:1031A0009000806C04C0809190008F738068809341
:1031B0009000309399002093980090935606509376
:1031C0005506409354063BC04930F8F2493039F473
:1031D0008AE08093540680919000806C28C0809192
:1031E0005706E09158068E1769F4109254068091A4
:1031F00090008F7380939000809171008D7F8093F9
:1032000071001DC081E080935406EF5FE43408F044
:10321000E0E0E0935806F0E0E75AF94F80818093B0
:10322000550610925606809190008F7380688093A7
:103230009000260F371F3093990020939800FF913C
:10324000EF919F918F917F916F915F914F913F91FE
:103250002F910F900BBE0F900FBE0F901F901895DF
:10326000809154068823E1F708950E94301908954B
:103270001F920F920FB60F920BB60F9211241F934D
:103280002F933F934F935F936F937F938F939F936E
:10329000AF93BF93EF93FF932091960030919700E7
:1032A00090914C06992341F0809191008F7B8093FF
:1032B000910010924C0608C0809191008064809328
:1032C000910080E880934C0670914B06772331F58E
:1032D000992309F06CC080914E0690914F06820FA1
:1032E000931F90939B0080939A0084E088BB809109
:1032F0007100846080937100809150069091510616
:10330000280F391F96958795280F391F309353063C
:103310002093520681E080934B0649C040915206AB
:103320005091530610914C06E0915006F0915106D1
:1033300060914D06AA27BB27AE1BBF0BC901841B9A
:10334000950B97FD2CC06695612B7F5F8A0F9B1FA5
:10335000793018F44E0F5F1FF4CF60934D068091C3
:1033600071008B7F809371009091FA059F5F90357B
:1033700008F090E08091F905981739F0E92FF0E016
:10338000E550FA4F60839093FA05809191008F7B0E
:103390008093910010924C0610924B0608C06093E7
:1033A0004D06509353064093520670934B06FF917F
:1033B000EF91BF91AF919F918F917F916F915F91AD
:1033C0004F913F912F911F910F900BBE0F900FBE09
:1033D0000F901F9018951F920F920FB60F920BB679
:1033E0000F9211242F938F939F93EF93FF938091CC
:1033F00071008B7F80937100809191008F7B80930F
:10340000910090914B0680914C06805820914D067A
:1034100003C02695282B9F5F9930D8F320934D0643
:103420009091FA059F5F903508F090E08091F90542
:10343000981739F0E92FF0E0E550FA4F2083909388
:10344000FA0510924B06809191008F7B809391003A
:1034500010924C06FF91EF919F918F912F910F90B9
:103460000BBE0F900FBE0F901F9018958091FA051C
:10347000E091F9058E1719F42FEF3FEF0EC02E2FB4
:103480002F5F203508F020E0E22FF0E0E550FA4F02
:1034900080812093F905282F30E0C901089580919B
:1034A000FA05E091F9058E1719F4EFEFFFEF06C06A
:1034B000F0E0E550FA4F8081E82FF0E0CF01089569
:1034C0009091FA058091F905292F30E0482F50E0BE
:1034D000981710F4205B3F4F241B350BC90108954A
:1034E0008091F9058093FA0508950F931F9301E7E2
:1034F00010E0F80180818B7F808380818F7D8083C5
:103500000E94701A0E943019F80180818D7F80839B
:103510001F910F9108959B01AC012D3A8BE1380763
:1035200080E0480780E0580730F410927100109254
:10353000900081E814C063E056954795379527952C
:103540006A95D1F72D3A8BE1380780E0480780E093
:103550005807D0F5109271001092900082E8809385
:1035600091003093510620935006CA01B90125E21B
:1035700030E040E050E00E94C54A52E096958795C1
:10358000779567955A95D1F770934F0660934E06DD
:1035900087E162E00E94C53886E161E00E94483917
:1035A00086E161E00E94C53810924B061092FA0540
:1035B0001092F90510925406109257061092580670
:1035C00080E288BB80937100089581E08093A90612
:1035D00008959093AB068093AA060895FC0180811C
:1035E00008958091A9061092A906811181E008959D
:1035F0008091AC06882319F089B1847002C089B12A
:103600008870882359F40E94C7376093AD06709381
:10361000AE068093AF069093B00608950E94C73718
:103620002091AD063091AE064091AF065091B006A4
:10363000E091AA06F091AB06309731F0621B730B54
:10364000840B950BCB0109950895FC01808188239B
:1036500071F083E160E00E94483965E070E080E04D
:1036600090E00E94ED3783E161E00E9448390895BF
:103670008091AC060E94BD35089580E00E94BD3562
:1036800083E161E00E94C53883E161E00E9448392E
:103690000895FC01108282E060E00E94C53883E05A
:1036A00060E00E94C53883E160E00E94C53882E096
:1036B00061E00E94483983E061E00E94483983E17B
:1036C00061E00E94483908950F931F93082F01501D
:1036D0000230F8F48091AC060E94BD351092AC0621
:1036E000002319F081E08093AC06002311F013E071
:1036F00001C012E0812F60E00E94C538812F61E097
:103700000E944839802F68EF7AE141E050E00E9442
:1037100041351F910F91089583E160E00E94C53803
:1037200083E161E00E94483980E065EE7AE142E0A1
:1037300050E00E9441350895FC016083662319F032
:103740000E943D1B08950E948C1B08950895FC0162
:10375000E552FF4F80810895FC01ED59FF4F8081B4
:103760000895FC01E252FF4F0190F081E02D309767
:1037700011F0862F09950895FC01E452FF4F8081D6
:103780000895FC01E452FF4F60830895FC01E25A62
:10379000FF4F60830895FC01E25AFF4F8081089536
:1037A000FC01E05AFF4F80810895FC01E15AFF4F70
:1037B00080810895EF92FF920F931F93CF93DF9331
:1037C000EC017A018B01CB01BA0120E030E040E04E
:1037D00050E00E941449181674F4CB53DF4FC8010F
:1037E000B70120E030E048EC52E40E9418496883B9
:1037F00079838A839B83DF91CF911F910F91FF90F3
:10380000EF900895FC01EB53FF4F6081718182813D
:10381000938120E030E048EC52E40E94624A08952F
:10382000FC01E354FF4F2081318142815381B90172
:10383000CA010895FC01EF59FF4F80810895FC01F2
:10384000EE57FF4F40835183628373830895FC01D9
:10385000EE57FF4F60817181828193810895FC0151
:10386000E55AFF4F80819181089587E260317807A2
:1038700081F083E16838780761F08FE0603A78077B
:1038800041F087E0603D780721F083E0683E7807EB
:10389000B1F49B0140E050E060E472E48FE090E01E
:1038A0000E94F84A30931B0120931A0180E197E2AD
:1038B000B9010E94E44A70931D0160931C010895B0
:1038C00080911A0190911B01089520911A01309165
:1038D0001B0140E050E060E472E48FE090E00E9461
:1038E0001A4BC90108950F931F93CF93DF93EC01F7
:1038F0008B010E94651C8017910738F00115110596
:1039000021F0C55ADF4F19830883DF91CF911F91B2
:103910000F910895EF92FF920F931F93CF93DF9330
:10392000EC017A018B010E94651CA0E0B0E0BC01B3
:10393000CD010E94AC499B01AC01C801B7010E94B6
:103940005E4A181634F0CF53DF4FE882F9820A83BB
:103950001B83DF91CF911F910F91FF90EF900895FE
:10396000FC01E258FF4F2081318142815381B9012E
:10397000CA0108951F93CF93DF93EC01162F0E9485
:103980001A1C882339F5143049F4C052DF4F8BECF0
:103990009DE199838883C05ED04019C0153049F4F9
:1039A000C052DF4F80EC9EE18993999382E79FE1BB
:1039B0000AC0163079F4C052DF4F80EC9EE1899343
:1039C00099938AED9FE199838883C25ED040C35268
:1039D000DF4F1883DF91CF911F910895FC01E352CF
:1039E000FF4F80810895FC01E258FF4F1082118241
:1039F00012821382B89610821182128213823C9630
:103A000080E090E0A0E0B0E080839183A283B38364
:103A10003897119211921192119210821182128292
:103A200013820895CF93DF93EC01FC01E258FF4F1E
:103A30002081318142815381CB01AA2797FDA09536
:103A4000BA2F820F931FA41FB51F80839183A28377
:103A5000B383CD59DF4F8881C356D040882319F4F2
:103A6000709561957F4FFE01E753FF4F20813181B3
:103A700042815381CB01AA2797FDA095BA2F820FCF
:103A8000931FA41FB51F80839183A283B383DF910B
:103A9000CF910895FC01E753FF4F108211821282EB
:103AA00013820895FC01E353FF4F408351836283E7
:103AB00073830895FC01E353FF4F6081718182811C
:103AC00093810895FC01EF52FF4F4083518362833D
:103AD00073830895FC01EF52FF4F608171818281F1
:103AE00093810895FC01EB52FF4F40835183628321
:103AF00073830895FC01EB52FF4F608171818281D5
:103B000093810895FC01E753FF4F40835183628303
:103B100073830895FC01E753FF4F20813181428177
:103B20005381B901CA010895FC01128E662311F078
:103B300081E0828F0895FC0146875787608B718BE7
:103B40000895FC0166857785808991890895FC0137
:103B5000428B538B648B758B0895FC01628973894A
:103B6000848995890895FC01468B578B608F718FEE
:103B70000895FC0166897789808D918D0895FC01F7
:103B8000E752FF4F718360830895FC01E752FF4FB6
:103B90008081918108956F927F928F929F92AF92D0
:103BA000BF92CF92DF92EF92FF920F931F93CF932A
:103BB000DF93782E5A016B014901882321F0E90136
:103BC000CD5BDF4F02C0E901AB96E880F9800A8146
:103BD0001B81C601B501A80197010E94144918165E
:103BE0003CF0C601B501A80197010E94184929C0FF
:103BF000C601B501288939894A895B890E9414491F
:103C000018162CF0AC84BD84CE84DF8422C0C6019B
:103C1000B501A80197010E94AF48288539854A85DA
:103C20005B850E94AF482C813D814E815F810E945F
:103C300018499B01AC0160E070E080E89FE30E94BE
:103C4000AF482C853D854E855F850E94624A5B01A9
:103C50006C017720C9F560911C0170911D0180E015
:103C600090E00E94AC49A60195010E9418497B0191
:103C70008C010E94804926E830E0820E931EF401F8
:103C800061937193819391934F010E94AC499B0181
:103C9000AC01C801B7010E94AF48E4016883798391
:103CA0008A839B8320E030E040E85FE30E945E4A25
:103CB00018160CF056C080E090E0A0E0B0E08883D9
:103CC0009983AA83BB834DC0C601B5010E94804978
:103CD00026EA622E712C680C791CF30160837183D3
:103CE00082839383E401CE54DF4FE880F9800A8118
:103CF0001B810E94AC499B01AC01C601B5010E9429
:103D0000AF489B01AC01C801B7010E94B04868836D
:103D100079838A839B83688179818A819B8120E072
:103D200030E040E85FE30E945E4A8823D4F0688177
:103D300079818A819B8120E030E040E85FE30E9446
:103D4000AF48688379838A839B83F3018081918163
:103D5000A281B3810196A11DB11D80839183A283AD
:103D6000B383DF91CF911F910F91FF90EF90DF9080
:103D7000CF90BF90AF909F908F907F906F9008955D
:103D80008F929F92AF92BF92CF92DF92EF92FF926B
:103D90000F931F93CF93DF93E82EE901882321F03F
:103DA000C9018D5B9F4F02C0C9018B96CE51DF4F79
:103DB000E881F981C25ED04009955B016C01EE207B
:103DC000D1F560911C0170911D0180E090E00E948E
:103DD000AC49A60195010E9418497B018C01CA5784
:103DE000DF4F0E948049688379838A839B83609632
:103DF000688179818A819B810E94AC499B01AC01D9
:103E0000C801B7010E94AF482C97688379838A83E1
:103E10009B8320E030E040E85FE30E945E4A181692
:103E20000CF053C080E090E0A0E0B0E0888399837C
:103E3000AA83BB834AC00E94804936EA832E912C14
:103E40008C0E9D1EF4016083718382839383CE5414
:103E5000DF4FE880F9800A811B810E94AC499B01F9
:103E6000AC01C601B5010E94AF489B01AC01C8017D
:103E7000B7010E94B048688379838A839B836881F5
:103E800079818A819B8120E030E040E85FE30E94F5
:103E90005E4A8823D4F0688179818A819B8120E001
:103EA00030E040E85FE30E94AF48688379838A830B
:103EB0009B83F40180819181A281B3810196A11D30
:103EC000B11D80839183A283B383DF91CF911F9132
:103ED0000F91FF90EF90DF90CF90BF90AF909F90A9
:103EE0008F900895AF92BF92CF92DF92EF92FF92A0
:103EF0000F931F93CF93DF93EC017A018B01A8807E
:103F0000B980CA80DB80CB01BA01A60195010E946D
:103F1000144988233CF4C801B701A60195010E9409
:103F2000184929C0C801B701288939894A895B899C
:103F30000E94144918162CF0EC857D858E856F85BE
:103F400028C0C801B701A60195010E94AF48288585
:103F500039854A855B850E94AF482C813D814E8121
:103F60005F810E9418499B01AC0160E070E080E82D
:103F70009FE30E94AF487B018C012C853D854E85D7
:103F80005F850E94624AA80197010E94624AE62F5B
:103F9000692F2E2F372F482F562FB901CA01DF91D5
:103FA000CF911F910F91FF90EF90DF90CF90BF9036
:103FB000AF900895AF92BF92CF92DF92EF92FF92AF
:103FC0000F931F93CF93DF93EC017A018B01A880AD
:103FD000B980CA80DB80CB01BA01A60195010E949D
:103FE000144988237CF4C801B701A60195010E94F9
:103FF00018499B01AC0160E070E080E89FE30E94FB
:10400000AF4821C0C801B701288939894A895B892D
:104010000E94144918162CF0EC857D858E856F85DD
:104020002AC0C801B701A60195010E94AF482885A2
:1040300039854A855B850E94AF482C813D814E8140
:104040005F810E9418497B018C01AC84BD84CE84C1
:10405000DF84C601B501A80197010E94624AA80148
:1040600097010E94624A9B01AC01C601B5010E9402
:10407000AF48E62F692F2E2F372F482F562FB90123
:10408000CA01DF91CF911F910F91FF90EF90DF90C8
:10409000CF90BF90AF900895CF93DF93EB0120E0D6
:1040A00030E040E050E42C8B3D8B4E8B5F8BFC016D
:1040B000E352FF4FE081E53029F48AEF9FEFAFE351
:1040C000B0E406C0E63041F485EF91E0A0ECBFE338
:1040D0008C8B9D8BAE8BBF8BDF91CF9108952F92F0
:1040E0003F924F925F926F927F928F929F92AF9288
:1040F000BF92CF92DF92EF92FF920F931F93DF93C5
:10410000CF93CDB7DEB72A970FB6F894DEBF0FBEB8
:10411000CDBFFC012F83388749875A87EE55FF4F63
:1041200080819181A281B38189839A83AB83BC838F
:10413000E25AF040662329F4DF019B96BE83AD83EB
:1041400011C0CF018D5B9F4F9E838D83E655FF4F3E
:1041500080819181A281B38189839A83AB83BC835F
:10416000EA5AF040CF016D817E810E944C20C80147
:10417000B7010E94AC497B018C01C601B5010E94C8
:10418000AC49A80197010E9418495B016C01AD81FF
:10419000BE816D937D938D939C9313976F8D78A1C2
:1041A00089A19AA10E94AC49A80197010E941849CF
:1041B0003B014C01ED81FE81648375838683978387
:1041C000A60195010E94B0489B01AC0160E070E03F
:1041D00080E89FE30E94AF487B018C01AD81BE81E6
:1041E00018966D937D938D939C931B97C601B50193
:1041F000A80197010E94B048ED81FE81608B718B10
:10420000828B938B2488358846885788C601B501F0
:10421000A20191010E941849A80197010E94B0488B
:104220007B018C01C401B301A20191010E941849D4
:104230009B01AC01C801B7010E94B0489B01AC01D1
:104240006F81788589859A850E9418497B018C0148
:1042500069817A818B819C810E94AC499B01AC0170
:10426000C801B7010E941849AD81BE811C966D93AB
:104270007D938D939C931F972A960FB6F894DEBF7B
:104280000FBECDBFCF91DF911F910F91FF90EF90A7
:10429000DF90CF90BF90AF909F908F907F906F9066
:1042A0005F904F903F902F9008954F925F926F9242
:1042B0007F928F929F92AF92BF92CF92DF92EF92B6
:1042C000FF920F931F93DF93CF93CDB7DEB74C01CF
:1042D0002A013B01C801B70146EA50E0840E951E51
:1042E000F40110821182128213824CE050E0840E9D
:1042F000951E0F2EF0E0EF2EF0E0FF2EF0E00F2FD6
:10430000F0E01F2FF02DF401E082F182028313838D
:1043100048EF5FEF840E951EF40141925192619235
:1043200071924F01108211821282138248E050E094
:10433000840E951EF40120832AE43FEF820E931E23
:1043400000D000D00DB71EB70F5F1F4F0E94AC49C1
:104350009B01AC018B899C89AD89BE89F801808362
:104360009183A283B383C40161E0830172010E943F
:104370006F200F900F900F900F90CF91DF911F91B2
:104380000F91FF90EF90DF90CF90BF90AF909F90F4
:104390008F907F906F905F904F900895CF93DF93B1
:1043A000FC01EC01CB59DF4F88818823C1F0E6592D
:1043B000FF4F11921192119211921192119211923A
:1043C000119210821182128213823C9780E090E059
:1043D000A0E0B0E080839183A283B3831882DF9151
:1043E000CF910895FC01E05AFF4F6083E056F04002
:1043F00081A10E9448390895EF92FF921F93CF93B5
:10440000DF93EC01162F43E6E42EF12CE80EF91EA3
:10441000F7018081681759F08BA10E944839C35A6F
:10442000DF4F81E08883F701108325961883DF91A1
:10443000CF911F91FF90EF9008952F923F924F924E
:104440005F926F927F928F929F92AF92BF92CF9224
:10445000DF92EF92FF920F931F93CF93DF93EC01C4
:1044600074E6C72ED12CC80ED91EF60180816DEBE3
:10447000262E312C2C0E3D1E55EC452E512C4C0E6B
:104480005D1E8823E9F1F101608171818281938150
:10449000F20120813181428153810E94AF487B012A
:1044A0008C01F1016083718382839383F2016081C7
:1044B00071818281938120E030E040E05FE30E94DF
:1044C000624A9B01AC01C801B7010E941449181649
:1044D0000CF45CC08AE097EDA3E2BCE3F1018083B9
:1044E0009183A283B383F6011082CD59DF4F688197
:1044F000C356D04081E06827CE010E94FC2146C00F
:10450000F101A080B180C280D380CF53DF4F68809B
:1045100079808A809B80C15CD040F201E080F1808C
:1045200002811381C401B301A80197010E94AF4821
:104530009B01AC01C601B5010E94144918163CF05C
:10454000C601B501A80197010E94B04814C0C4017A
:10455000B301A80197010E94B0489B01AC01C601BC
:10456000B5010E945E4A882364F0C601B501A80126
:1045700097010E94AF48F101608371838283938326
:1045800005C0F101608271828282938260911C0178
:1045900070911D0180E090E00E94AC497B018C018C
:1045A000C354DF4F688179818A819B8120E030E0AC
:1045B00048EC52E40E9418499B01AC01C801B701C4
:1045C0000E9418497B018C010E948049E7976993FA
:1045D0007993899399930E94AC499B01AC01C801DE
:1045E000B7010E94AF48688379838A839B83DF91F8
:1045F000CF911F910F91FF90EF90DF90CF90BF90E0
:10460000AF909F908F907F906F905F904F903F9072
:104610002F900895AF92BF92CF92DF92EF92FF92C8
:104620000F931F93CF93DF93EC018D8D882309F0B7
:1046300049C0CE010E94D51B882321F0CE010E94E3
:104640001D223EC0FE01E256FF4F80819181A28172
:10465000B381CE55DF4FA880B980CA80DB80C25AB3
:10466000D0400196A11DB11D8A159B05AC05BD0565
:1046700018F081E08E8F24C06081718182819381E6
:10468000C052DF4F0E94AC4920E030E040E85FE3D9
:104690000E94B0487B018C01C601B5010E94AC4963
:1046A0009B01AC01C801B7010E941849AB01BC01D4
:1046B000E881F981C05ED04080E09E0109951E8EA0
:1046C00081E08D8FDF91CF911F910F91FF90EF903F
:1046D000DF90CF90BF90AF900895FC01E15AFF4F5B
:1046E0006083EF55F040CF010E941D220895CF93C3
:1046F000DF93EC01CF59DF4F1882249681E0888345
:10470000C556D0401E8E1D8EC354DF4F80E090E012
:10471000A0E0B0E088839983AA83BB83CD5BD040BF
:10472000CE010E94D01B882321F089A161E00E9464
:104730004839FE01EE59FF4FCE0160810E94FC21F5
:10474000CE0161E00E94B11BDF91CF910895CF921D
:10475000DF92EF92FF920F931F93CF93DF93EC01C1
:10476000FC01EA56FF4F80819181A281B3810097BD
:10477000A105B10509F040C0CA57DF4F8991999151
:10478000A991B99180839183A283B3838881998110
:10479000AA81BB81609688839983AA83BB832C9767
:1047A00088819981AA81BB81A49688839983AA83F1
:1047B000BB83A09788819981AA81BB8164968883F5
:1047C0009983AA83BB83C65AD040FE01E256FF4FAD
:1047D00080819181A281B3810196A11DB11D808349
:1047E0009183A283B383CE58DF4F188219821A8235
:1047F0001B82C257D0401D8EBE016E587F4FFB01F9
:10480000208131814281538180911C0190911D0151
:10481000A0E0B0E0281739074A075B0708F485C015
:104820008E8D882309F442C08E0102591F4FCA5849
:10483000DF4FF80120813181428153818881998144
:10484000AA81BB81C657D040281739074A075B07A2
:10485000D8F4FB0180819181A281B3810197A109E4
:10486000B10980839183A283B3832F5F3F4F4F4F62
:104870005F4FF8012083318342835383CE0161E08F
:1048800070E00E94121D68C1F8011082118212822C
:104890001382C256DF4F188219821A821B82FB01D3
:1048A0001082118212821382E8970BC1CA57DF4F20
:1048B00088819981AA81BB81609688839983AA8324
:1048C000BB832C9788819981AA81BB81609688835C
:1048D0009983AA83BB832C9788819981AA81BB8104
:1048E000A49688839983AA83BB83A09788819981A2
:1048F000AA81BB81649688839983AA83BB83C65AA5
:10490000D040FE01E256FF4F80819181A281B381A8
:104910000196A11DB11D80839183A283B383FB0106
:1049200010821182128213821D8EFE01EE58FF4FFB
:1049300080819181A281B3810196A11DB11D8083E7
:104940009183A283B383E6E6CE2ED12CCC0EDD1E5E
:10495000F601E080F18002811381C801B70120E0F7
:1049600030E040E85FE30E945E4A882374F0C801AB
:10497000B70120E030E040E85FE30E94AF48F60175
:104980006083718382839383ADC0FE01E659FF4F3C
:1049900080819181A281B3810196A11DB11D808387
:1049A0009183A283B383CA56DF4F288139814A811C
:1049B0005B81C659D04082179307A407B50708F456
:1049C00091C0CD59DF4F8881C356D040882319F458
:1049D0006FEF7FEF02C061E070E0C353DF4FE8800C
:1049E000F9800A811B81CD5CD04017FF25C0FE01F4
:1049F000E753FF4F80819181A281B3819B014427BE
:104A000037FD4095542F820F931FA41FB51F8E159D
:104A10009F05A007B1070CF44DC080819181A28150
:104A2000B381280F391F4A1F5B1F12161306140685
:104A300015060CF43FC024C0E114F1040105110572
:104A4000F9F0FE01E753FF4F80819181A281B3818C
:104A50009B01442737FD4095542F820F931FA41FBD
:104A6000B51FE816F9060A071B0724F1808191811A
:104A7000A281B381280F391F4A1F5B1F57FD1AC03F
:104A8000CA58DF4F288139814A815B81C657D0409F
:104A9000211531054105510579F1C259DF4F888152
:104AA0009981AA81BB81CE56D04082179307A40773
:104AB000B50710F1C259DF4F188219821A821B8282
:104AC000289780E090E0A0E0B0E089939993A993C3
:104AD000B993188219821A821B82CA56D040CE011D
:104AE0000E94772380E0DF91CF911F910F91FF907B
:104AF000EF90DF90CF900895C659DF4F188219824A
:104B00001A821B82CA56D040FE01E259FF4F8081B3
:104B10009181A281B3810196A11DB11D80839183F2
:104B2000A283B383CE0161E070E00E94121DC656DD
:104B3000DF4F288139814A815B818E010453104007
:104B4000F80160817181828193810E94B048F801EF
:104B5000608371838283938381E0C5CF6F927F925C
:104B60008F929F92AF92BF92CF92DF92EF92FF927D
:104B70000F931F93CF93DF93EC01FC01E552FF4F9E
:104B8000A0806083643081F0653018F4623041F4B5
:104B900005C0683059F0603119F40BC061E001C004
:104BA00060E010E000E008C060E001C061E011E0FA
:104BB000F9CF61E011E001E08DA10E9448398FA199
:104BC000612F0E94483989A5602F0E944839C5523B
:104BD000DF4FB880CB5DD040AB1409F4CBC0B9EC4B
:104BE000CB2ED12CCC0EDD1EA1ED8A2E912C8C0E5D
:104BF0009D1EF5ED6F2E712C6C0E7D1EC353DF4F85
:104C0000BA1408F05FC0F601E080F18002811381E0
:104C10008A2D90E06B2D70E00E94E44A9B014427AE
:104C200037FD4095542FC801B7010E941A4BC901A6
:104C3000DA01F60180839183A283B3838A2D90E009
:104C40006B2D70E00E94E44A9B01442737FD40959C
:104C5000542FF40160817181828193810E941A4BEB
:104C6000F40120833183428353838A2D90E06B2D9E
:104C700070E00E94E44A9B01442737FD4095542F81
:104C8000F30160817181828193810E941A4BF3014B
:104C900020833183428353838A2D90E06B2D70E013
:104CA0000E94E44A9B01442737FD4095542F6881B8
:104CB00079818A819B810E941A4B288339834A8398
:104CC0005B8358C0F60100811181228133818B2DD5
:104CD00090E06A2D70E00E94E44A882777FD809575
:104CE000982FA90198010E94C54AF601608371833B
:104CF000828393838B2D90E06A2D70E00E94E44ABA
:104D0000882777FD8095982FF40120813181428199
:104D100053810E94C54AF401608371838283938327
:104D20008B2D90E06A2D70E00E94E44A882777FD81
:104D30008095982FF30120813181428153810E9417
:104D4000C54AF30160837183828393838B2D90E046
:104D50006A2D70E00E94E44A882777FD8095982F9D
:104D6000288139814A815B810E94C54A68837983A1
:104D70008A839B83DF91CF911F910F91FF90EF90DA
:104D8000DF90CF90BF90AF909F908F907F906F906B
:104D90000895CF92DF92EF92FF921F93CF93DF930C
:104DA000EC01162F69017A010E94AC1BCE59DF4F2E
:104DB0008883C256D040CE01612F0E94FC21CE01D3
:104DC0000E941A1C8823D9F4CA58DF4FC882D9829E
:104DD000EA82FB82C657D040CE010E94D01B8823B6
:104DE00051F089A160E00E9448396AE070E080E0FB
:104DF00090E00E94ED37CF59DF4F81E08883DF914B
:104E0000CF911F91FF90EF90DF90CF9008952F9258
:104E10003F924F925F926F927F928F929F92AF924A
:104E2000BF92CF92DF92EF92FF920F931F93DF9387
:104E3000CF93CDB7DEB72B970FB6F894DEBF0FBE7A
:104E4000CDBF9B878A87698729013A010E94CB1BC6
:104E5000882309F474C08A859B850E94271C161636
:104E60001706180619060CF097C18A859B850E94C3
:104E7000B01C7B018C018A859B850E94271CE6164D
:104E8000F7060807190708F487C159C08A859B856A
:104E90000E94D51B882309F485C18A859B850E94C1
:104EA0001A1C8823B9F42A853B852A583F4FD9011B
:104EB0001D921D921D921C921397A657B040BB875E
:104EC000AA87CD01698520E030E040E050E00E94F3
:104ED000C92614C0EA85FB85ED59FF4F8081E35652
:104EE000F040FB87EA87F985F81741F02A853B8572
:104EF0002C593F4F81E0D9018C935DC18A859B85F8
:104F000063E047C18A859B8568E873E10E94351C90
:104F10000A851B85035A1F4FF8018081882351F0B1
:104F20008A859B850E94BC1B480E511C611C711C0C
:104F3000D8011C92411451046104710421F48A8542
:104F40009B8561E026C1EA85FB85EC51FF4F80819E
:104F5000E45EF040FB87EA87882309F001C1BF01C6
:104F6000655D7F4FCF010E944C208A859B850E9402
:104F7000651C4C018A859B850E942F1C382E292E8A
:104F8000C301B2010E94AC496D837E838F839887F1
:104F900020E030E040E85EE30E94624A7B018C0141
:104FA00020E030E048E453E40E94144987FD0AC041
:104FB0000F2EF0E0EF2EF0E0FF2EF8E40F2FF3E4D9
:104FC0001F2FF02DC801B701A80197010E94B0481A
:104FD0005B016C01832D922D9C018216930608F4CF
:104FE0009401B90180E090E00E94AC497B018C0102
:104FF000C601B501A80197010E94184920E030E0E0
:105000004AE754E40E94624AEA85FB85FF962081C4
:105010003181428153810E94624A69837A838B8302
:105020009C836D817E818F819885A60195010E9468
:10503000AF48A80197010E94184920E030E04AE7F4
:1050400054E40E94624A29813A814B815C810E942A
:10505000B0487B018C0120E030E048E452E40E943B
:105060001449882354F40F2EF0E0EF2EF0E0FF2EC9
:10507000F8E40F2FF2E41F2FF02DC801B7010E94B2
:1050800080497B018C0182EA882E912C2A853B8500
:10509000820E931EC801B7012AE030E040E050E0E4
:1050A0000E94F84AD4012D933D934D935C9313973E
:1050B00069817A818B819C8120E030E040E05FE370
:1050C0000E94624A0E9480495B016C0100D000D0BE
:1050D000EDB7FEB761837283838394838A859B8552
:1050E00060E02D813E814F8158850E946F20EA85C6
:1050F000FB85E256FF4F81E090E0A0E0B0E08083C6
:105100009183A283B38360817181828193810F90A7
:105110000F900F900F902A853B8520523F4F3B8781
:105120002A870E94AC497B018C01D4016D917D914D
:105130008D919C910E94AC499B01AC01C801B701C3
:105140000E941849AB01BC01AA85BB85ED91FC9179
:105150001197A05EB040BB87AA8780E09D010995AA
:10516000EA85FB85EA58FF4FDF0140825182628267
:105170007382A259BF4F1C92A45EB040BB87AA871E
:10518000CD016985A30192010E94C9268A859B856C
:1051900062E00E94B11B0FC041145104610471040C
:1051A00009F474CE8A859B850E94651C89589341B9
:1051B00008F4AECEA7CE2B960FB6F894DEBF0FBE86
:1051C000CDBFCF91DF911F910F91FF90EF90DF90B6
:1051D000CF90BF90AF909F908F907F906F905F9097
:1051E0004F903F902F900895EF92FF920F931F934F
:1051F000CF93DF93EC017A018B010E948A1D6E151B
:105200007F0580079107F1F0CB59DF4F81E088835C
:10521000C556D040CE010E948A1D9B01AC012E19BB
:105220003F09400B510B57FD02C060E008C050958C
:105230004095309521953F4F4F4F5F4F61E0CE0134
:105240000E940727DF91CF911F910F91FF90EF9060
:105250000895FC01E353FF4F4081518162817381C6
:10526000ED5CF040411551056105710519F0CF0164
:105270000E94F4280895FC01EB52FF4F40815181B8
:1052800062817381E55DF04041155105610571054D
:1052900019F0CF010E94F4280895FC01EF52FF4F4E
:1052A0004081518162817381E15DF040411551057A
:1052B0006105710519F0CF010E94F428089540E0BE
:1052C00050E060E070E00E94F42808952F923F9231
:1052D0004F925F926F927F928F929F92AF92BF9206
:1052E000CF92DF92EF92FF920F931F93DF93CF93B2
:1052F00000D000D00F92CDB7DEB73C0169832A837E
:105300003B834C835D83170128010E94CB1B8823BC
:10531000A9F0C3010E94271C1616170618061906C5
:1053200094F4C3010E94B01C7B018C01C3010E9454
:10533000271CE616F7060807190728F0C30161E0E5
:105340000E94B11B77C092EA892E912C860C971C83
:10535000C201B1012AE030E040E050E00E94F84A8A
:10536000D4012D933D934D935C93139700D000D0BF
:105370000DB71EB70F5F1F4F6A817B818C819D81A6
:105380000E94AC499B01AC018A8D9B8DAC8DBD8D7B
:10539000F80180839183A283B383C30160E082011B
:1053A00071010E946F20F301E256FF4F81E090E00F
:1053B000A0E0B0E080839183A283B3836081718198
:1053C000828193810F900F900F900F9020EE30E02C
:1053D000620E731E0E94AC497B018C01D4016D9159
:1053E0007D918D919C910E94AC499B01AC01C801BB
:1053F000B7010E941849AB01BC01D301ED91FC91AA
:1054000020E23FEF620E731E80E09301099584EE67
:1054100090E0680E791E81E0D3018C93ECE1FFEF00
:105420006E0E7F1EC30169812A813B814C815D81A3
:105430000E9407270F900F900F900F900F90CF9121
:10544000DF911F910F91FF90EF90DF90CF90BF9071
:10545000AF909F908F907F906F905F904F903F9014
:105460002F900895CF92DF92EF92FF920F931F93A8
:10547000CF93DF93EC010E94CB1B882379F02EEAB7
:10548000C22ED12CCC0EDD1EF6016081718182818D
:105490009381611571058105910579F4CE0161E073
:1054A0000E94B11B43C00197A109B109C255DF4F4A
:1054B00088839983AA83BB8339C00E94AC497B014E
:1054C0008C01C655DF4F688179818A819B810E945A
:1054D000AC499B01AC01C801B7010E941849AB015E
:1054E000BC01E696E881F981C05ED04081E09E0172
:1054F0000995CA55DF4F288139814A815B816096C1
:105500006881C65BD04081E06827CE010E940727F2
:10551000F60180819181A281B3810097A105B10537
:1055200011F680E090E0A0E0B0E0C0CFDF91CF9135
:105530001F910F91FF90EF90DF90CF900895AF9261
:10554000BF92CF92DF92EF92FF920F931F93CF9370
:10555000DF93EC010E94CB1B882349F1CE010E940E
:10556000271C16161706180619066CF4CE010E94A1
:10557000B01C7B018C01CE010E94271CE616F706A9
:1055800008071907A0F4FE01E255FF4F6081718101
:1055900082819381C655DF4FA880B980CA80DB80A5
:1055A000CA5AD0406A157B058C059D0528F0CE01AE
:1055B00061E00E94B11B32C06F5F7F4F8F4F9F4FE2
:1055C0006083718382839383C052DF4F0E94AC4912
:1055D0007B018C01C601B5010E94AC499B01AC0165
:1055E000C801B7010E941849AB01BC01E881F981EB
:1055F000C05ED04081E09E010995FE01EA55FF4F53
:1056000080819181A281B381208131814281538146
:10561000CE01CA54DF4F68810E940727DF91CF91E6
:105620001F910F91FF90EF90DF90CF90BF90AF90C0
:1056300008956F927F928F929F92AF92BF92CF9276
:10564000DF92EF92FF920F931F93CF93DF93EC01C2
:10565000FC01E753FF4F80819181A281B381CB523E
:10566000DF4F288139814A815B81C55DD040821737
:105670009307A407B50709F460C060807180828039
:105680009380621A730A840A950A97FC02C020E08C
:1056900009C09094809470946094611C711C811C6A
:1056A000911C21E08A8D9B8D882329F59923F9F49B
:1056B00000D000D04E855F8568897989AA88BB882B
:1056C000CC88DD888E899F89A88DB98DEDB7FEB70E
:1056D00081839283A383B483CE01840173010E94EA
:1056E000552181E08B8F0F900F900F900F90CE017E
:1056F0000E949F2A22C0992301F581E08B8F00D060
:1057000000D0EE84FF8408891989AA88BB88CC88D8
:10571000DD888E899F89A88DB98DEDB7FEB781830D
:105720009283A383B483CE01622FA40193010E94CC
:1057300066290F900F900F900F90DF91CF911F91DE
:105740000F91FF90EF90DF90CF90BF90AF909F9020
:105750008F907F906F9008952F923F924F925F921B
:105760006F927F928F929F92AF92BF92CF92DF9271
:10577000EF92FF920F931F93DF93CF93CDB7DEB7D6
:105780003C01862F96E7292E312C620C731CF30105
:105790001082118212821382B7E42B2E312C620CFC
:1057A000731CF3010F2EF0E02F2EF0E03F2EF0E0FF
:1057B0004F2EF0E05F2EF02D2192319241925192C6
:1057C0003F010F2EF0E02F2EF0E03F2EF8EC4F2E91
:1057D000F2E45F2EF02D2082318242825382ADEBC3
:1057E0002A2EAFEF3A2E620C731CF3011082118245
:1057F00012821382F9E32F2E312C620C731CF301F9
:105800001082118212821382EBEC2E2EEFEF3E2ECD
:10581000620C731CF30110821182128213826CE1FC
:10582000262E312C620C731CF301119211921192ED
:1058300011923F01108211821282138294EF292E5D
:105840009FEF392E620C731CF30111921192119289
:1058500011923F010F2EF0E02F2EF0E03F2EF0E0EE
:105860004F2EF0E05F2EF02D208231824282538253
:10587000BFE22B2E312C620C731CF301119211929A
:105880001192119211921192119211921192119200
:10589000119211923F011082118212821382A0EFA5
:1058A0002A2EAFEF3A2E620C731C0F2EF0E02F2E33
:1058B000F0E03F2EF0EA4F2EF1E45F2EF02DF301E1
:1058C0002082318242825382F1EC2F2EFFEF3F2E55
:1058D000620C731CF30111921192119211923F010B
:1058E0000F2EF0E02F2EF0E03F2EF0E04F2EF0E0F4
:1058F0005F2EF02D2082318242825382E8E02E2EEC
:10590000312C620C731CF3011082118212821382FB
:105910000F2EF0E02F2EF0E03F2EF0E04F2EF0E0C3
:105920005F2EF02D52924292329222923F0168E114
:10593000262E312C620C731CF3011082118212820C
:1059400013829CE0292E312C620C731C0F2EF0E088
:105950002F2EF0E03F2EF0E04F2EF0E05F2EF02DE6
:10596000F3012082318242825382B8EF2B2EBFEFA7
:105970003B2E620C731CF301119211921192119241
:105980003F011082118212821382A8E02A2E312C4C
:10599000620C731CF3011082FCEA2F2EFFEF3F2EE6
:1059A000620C731CF301119211923F011082E9EF16
:1059B0002E2EEFEF3E2E620C731CF301119211920A
:1059C000119211923F0110826AE7262E312C620C4F
:1059D000731C61E0F301619311923F0194E09083A5
:1059E00093E2292E9FEF392E620C731C0F2EF0E0EC
:1059F0002F2EF0E03F2EF0E04F2EF0E05F2EF02D46
:105A0000F30123A634A645A656A627A630AA41AA86
:105A100052AA23AA34AA45AA56AA27AA30AE41AE52
:105A200052AE23AE34AE45AE56AEBFE32B2E312C74
:105A3000620C731CF3010F2EF0E02F2EF0E03F2ECE
:105A4000F0E04F2EF0E05F2EF02D21923192419246
:105A500051922192319241925192219231924192EE
:105A600051922192319241925192219231924192DE
:105A7000519221923192419251923F012082318282
:105A800042825382AEE02A2E312C620C731CF30149
:105A90006083FBE92F2EFFEF3F2E620C731CF30196
:105AA000878F70A332A321A354A343A316A305A3F6
:105AB000F0A6E7A2D2A6C1A6B182A082938282827A
:105AC0001186128613861486158616861786108A06
:105AD000118A128A138A148A158A168A178A108ED6
