:100000000C9403020C94353E0C94663E0C94973E7F
:100010000C94C83E0C94F93E0C942A3F0C945B3F20
:100020000C948C3F0C942E020C94854C0C942E0254
:100030000C942E020C942E020C942E020C94C217D7
:100040000C942E020C942E020C942E020C942E0270
:100050000C94F0170C942E020C942E020C94BD3FBD
:100060000C942E020C94F8410C94F1430C942E0243
:100070000C942E020C942E020C942E020C94A619B1
:100080000C9413190C94591A0C942E020C942E02F1
:100090000C942E020C942E02ED0B020C180C290C61
:1000A000410C650C7D0C920CA30CCF0CE00CF30CF6
:1000B0000C0D250D5C0D8C0DB80DF50D0D0E260EDD
:1000C0003F0E580E690E7A0EA60E430FA810A81008
:1000D000A810A810A810A810A810A810A810A81060
:1000E000A810A810A810A810A810A810A810A81050
:1000F000A810A810A810A810A810A810A810A81040
:10010000A810A810A810A810A810A810A810A8102F
:10011000A810A810A810A810A810A810A810A8101F
:10012000A810A810A810A810A810A810A810A8100F
:10013000A810A810A810A810A810A810A810A810FF
:10014000A810A810A810A810A810A810A810A810EF
:10015000A810A810A810A810A810A8106B0F7C0F4A
:100160008D0F9E0FAF0FC00FD10FE20FF70F0910C9
:100170001F10341045105B106C10811092104C123F
:100180004F125312571262126B128A12A612B51234
:10019000C412CB12CF12DA12DE12E712F012F912E9
:1001A00002130E131B132E13FF13FF13FF13FF1362
:1001B000FF13FF13FF13FF13FF13FF13FF13FF13AF
:1001C000FF13FF13FF13FF13FF13FF13FF13FF139F
:1001D000FF13FF13FF13FF13FF13FF13FF13FF138F
:1001E000FF13FF13FF13FF13FF13FF13FF13FF137F
:1001F000FF13FF13FF13FF13FF13FF13FF13FF136F
:10020000FF13FF13FF13FF13FF13FF13FF13FF135E
:10021000FF13FF13FF13FF13FF13FF13FF13FF134E
:10022000FF13FF13FF13FF13FF13FF13FF13FF133E
:10023000FF13FF13FF13FF13FF13FF13FF13FF132E
:10024000FF133E13411345134F13521356135E13FE
:1002500064137A1397139B13A913C413C913CE13F2
:10026000D313DB13DF13F313F81300002100240072
:1002700027002A002D003000000022002500280061
:100280002B002E0031000000200023002600290052
:100290002C002F00010101010101010102020202F3
:1002A000020202020303030303030303040404041E
:1002B00004040404050505050505050506060606EE
:1002C0000606060601020408102040800102040808
:1002D0001020408001020408102040800102040820
:1002E0001020408001020408102040800102040810
:1002F000102040800000000000000000000000000E
:1003000007030401000000000B0A090002080000B6
:1003100000000000000000000000000000000000DD
:10032000000000000001020304050607120110018D
:1003300002000008EB03442001000102030109024E
:100340003E00020100C03209040000010202010067
:1003500005240010010424020605240600010705F7
:1003600082030800FF09040100020A0000000705DB
:1003700004021000050705830210000504030904A8
:100380002E03440079006E0061006D006900630077
:10039000200050006500720063006500700074006A
:1003A00069006F006E0020004C004C00430000000C
:1003B0003C03440079006E0061006D006900630039
:1003C000200050006500720063006500700074003A
:1003D00069006F006E0020004300440043002000CD
:1003E000530065007200690061006C0000000E039C
:1003F0003000300034003500370033000000850342
:10040000AC432B457E0311241FBECFEFD0E2DEBFED
:10041000CDBF11E0A0E0B1E0E8E2F7EA00E00BBFF9
:1004200002C007900D92AC38B107D9F71BBE18E097
:10043000ACE8B1E001C01D92AC31B107E1F713E0C7
:10044000C4E0D4E004C02297FE010E948353CE3F53
:10045000D107C9F70E94C7440C9487530C9400003D
:1004600080911901109219010895813039F081307D
:1004700018F0823051F406C083E001C082E080931E
:100480001701089581E0809317010895E0915506C2
:10049000F0915606309709F009950895EF92FF9272
:1004A0000F931F93982F80914906882371F0992309
:1004B00029F080915006882309F04CC090E080918B
:1004C0004806813009F047C017C080910F01909114
:1004D0001001A0E0B0E02091C2013091C301409131
:1004E000C4015091C50182179307A407B50730F0E6
:1004F00080915006882311F491E02DC00E940540A0
:1005000020914C0630914D0640914E0650914F0679
:10051000621B730B840B950BE0900F01F0901001A0
:1005200000E010E02091C2013091C3014091C4016C
:100530005091C5012E193F09400B510B62177307EB
:100540008407950738F080915006811181E091E091
:10055000982701C090E0892F1F910F91FF90EF9095
:1005600008958F929F92AF92BF92CF92DF92EF92B7
:10057000FF920F931F938130910509F09BC06F5F2D
:100580007F4F09F0B0C081EB91E00E94A937A1B282
:1005900088EC91E06DE270E040E150E020E230E074
:1005A00001E110E0E2E1EE2EF12CB3E1CB2ED12CF3
:1005B000BB24A5E08A2E912C0E942434A1B287EDA1
:1005C00092E06EE270E045E150E024E130E00DE1C0
:1005D00010E0FEE1EF2EF12CEFE1CE2ED12CB6E0B3
:1005E0008B2E912C0E942434A1B286EE93E06FE210
:1005F00070E042E250E021E230E00FE010E0ABE2D8
:10060000EA2EF12CFCE2CF2ED12CE7E08E2E912C9D
:100610000E942434409100015091010185EF94E043
:1006200066ED77E026E030E001E411E00E94BE3C98
:1006300085E595E00E94B71B86E595E067E00E949E
:100640004D3640910001509101018AE795E068EF35
:1006500077E026E030E00E94BE3C1092DD0510926B
:10066000DC0588EE93E0A0E0B0E08093DE05909397
:10067000DF05A093E005B093E1058EE491E090934F
:10068000DB058093DA05409100015091010186EE6F
:1006900095E06AED75E026E030E00E94BE3C0E94E5
:1006A00005406093510670935206809353069093D1
:1006B000540619C0892BB9F46F5F7F4FA1F48EE403
:1006C00091E09093DB058093DA050E94E31A86EEB1
:1006D00093E00E94141C87ED92E00E94141C88ECA9
:1006E00091E00E94141C1F910F91FF90EF90DF90FA
:1006F000CF90BF90AF909F908F90089580E090E052
:100700006FEF7FEF0E94B102089581E090E06FEFFC
:100710007FEF0E94B1020895A82FFB019A018091FA
:100720000E01823041F0833019F0813089F40AC023
:100730008AE795E002C086EE95E06A2FAF010E943D
:10074000223B089585EF94E06A2FAF010E94223B7F
:100750000895E82F9A01AB0180910E01823041F09B
:10076000833019F0813079F409C08AE795E002C03E
:1007700086EE95E06E2F0E946E3B089585EF94E023
:100780006E2F0E946E3B0895E82F9A01AB01809175
:100790000E01823041F0833019F0813079F409C0C4
:1007A0008AE795E002C086EE95E06E2F0E94B23B8C
:1007B000089585EF94E06E2F0E94B23B0895E82FD4
:1007C0009A01AB0180910E01823041F0833019F023
:1007D000813079F409C08AE795E002C086EE95E0A1
:1007E0006E2F0E94903B089585EF94E06E2F0E943B
:1007F000903B0895282FAB0180910E01823041F08B
:10080000833019F0813079F409C08AE795E002C09D
:1008100086EE95E0622F0E94D43B089585EF94E028
:10082000622F0E94D43B0895282FAB0180910E01C6
:10083000823041F0833019F0813079F409C08AE7C1
:1008400095E002C086EE95E0622F0E94F03B08958D
:1008500085EF94E0622F0E94F03B0895282F462FE9
:1008600080910E01823041F0833019F0813079F4AB
:1008700009C08AE795E002C086EE95E0622F0E94EB
:100880004E3B089585EF94E0622F0E944E3B089501
:10089000682F80910E01823041F0833019F0813051
:1008A00069F408C08AE795E002C086EE95E00E94F0
:1008B000683B089585EF94E00E94683B0895FA0133
:1008C0006A3009F495C06B30D8F4653009F45AC029
:1008D000663048F46330E9F1643008F047C06230B4
:1008E00009F0D5C02FC0673009F467C0673008F43D
:1008F00054C0683009F46CC0693009F0C8C071C0D8
:10090000683609F496C0693680F4653609F482C009
:10091000663620F4643609F0BAC078C0663609F449
:100920007CC0673609F0B3C07FC06A3609F493C053
:100930006A3608F487C06B3609F496C06C3609F045
:10094000A6C099C090E08081811191E09093C70189
:100950000BC085EF94E0BA010E94DE37AB01BC0109
:1009600081EB91E00E94EB3681E092C085EF94E04C
:10097000BA010E94DE37AB01BC0181EB91E00E941D
:100980006C36F2CF85EF94E0BA010E94D637BC01F5
:1009900081EB91E00E946836E7CF85EF94E0BA01E1
:1009A0000E94D637A0E0B0E08093BE019093BF01D3
:1009B000A093C001B093C101D7CF85EF94E0BA01F5
:1009C0000E94D637BC0181EB91E00E947236CCCFF9
:1009D00060E08081811161E081EB91E00E948436CA
:1009E000C3CF90E08081811191E09093C601BCCF8C
:1009F00085EF94E0BA010E94DE376093C2017093E4
:100A0000C3018093C4019093C501AECF81E0609192
:100A1000C70127C00E94603622C081EB91E00E948E
:100A20007E36AB01BC012FC081EB91E00E947A368B
:100A30000DC04091BE015091BF016091C001709105
:100A4000C10121C081EB91E00E947636BC0181E0BA
:100A50000E941404089581EB91E00E948736682F6C
:100A600081E00E942E0408956091C60181E070E04B
:100A70000E94FA0308954091C2015091C301609110
:100A8000C4017091C50181E00E94DF03089580E0F8
:100A90000E94480408959C01C397C197E0F488EC34
:100AA00091E060E021E030E040E050E00E941A2F49
:100AB00087ED92E060E021E030E040E050E00E940D
:100AC0001A2F86EE93E060E021E030E040E050E055
:100AD0000E941A2F089525363105D8F088EC91E050
:100AE00061E021E030E040E050E00E941A2F87ED05
:100AF00092E061E021E030E040E050E00E941A2FF7
:100B000086EE93E061E021E030E040E050E00E94BA
:100B10001A2F089541E00E94463D089544E00E9446
:100B2000463D089542E00E94463D089580930001AD
:100B30001092010180E090E060E071E00E94920577
:100B40000895EF92FF920F931F93382F562F742F13
:100B5000E22F780185EF94E0632F452F272F0E2F8A
:100B60000E94FD3A1F910F91FF90EF900895EF9230
:100B7000FF920F931F93382F562F742FE22F780177
:100B800085EF94E0632F452F272F0E2F0E94FD3A0B
:100B90001F910F91FF90EF9008958F929F92AF92C7
:100BA000BF92CF92DF92EF92FF920F931F93B82ED6
:100BB000A62E942E822E680186EE95E06B2D4A2D8E
:100BC000292D082D76010E94FD3A8AE795E06B2DCC
:100BD0004A2D292D0E94FD3A1F910F91FF90EF9011
:100BE000DF90CF90BF90AF909F908F9008958091AD
:100BF000C601882331F080916306882331F010927A
:100C0000630686E595E066E006C081E080936306B2
:100C100086E595E064E00E9426360895843021F44C
:100C200086E595E064E00EC0823079F48091A301FE
:100C30009091A40101969093A4018093A30186E56D
:100C400095E065E00E9426360895863011F40E94F2
:100C5000F705089588EC91E00E948F1C882361F4C9
:100C600087ED92E00E948F1C882331F486EE93E09A
:100C70000E948F1C8823F9F0809191018823D9F478
:100C800082E00E94460288EC91E00E94D51CAC01F3
:100C900060E070E081E796E00E948F1881E796E0BF
:100CA00062E377E02FEF3FEF4FEF5FEF0E94A61870
:100CB00081E08093910108959F92AF92BF92CF926D
:100CC000DF92EF92FF920F931F93CF93DF9385E50F
:100CD00095E00E945C1B982E88EC91E00E943B1CE2
:100CE000882309F04FC087ED92E00E943B1C8823C7
:100CF00009F048C086EE93E00E943B1C882309F06F
:100D000041C086E595E0692D0E94263646C0EA9CE2
:100D1000E001EB9CD00DFA9CD00D1124C853DE4F9E
:100D2000CE010E943B1C8823F9F0CE010E94A01E38
:100D3000892B51F00091A3011091A401CE010E94D2
:100D4000A01E8017910780F4CE010E948D33F6011A
:100D50008081882321F486E595E063E003C086E581
:100D600095E0692D0E9426360894E11CF11C8FE065
:100D700091E0C80ED91E93E0E916F10441F60E94F5
:100D80002A060BC0A2EECA2EA1E0DA2EEE24FF2422
:100D9000FFE0AF2EF1E0BF2EBACFDF91CF911F91D0
:100DA0000F91FF90EF90DF90CF90BF90AF909F900A
:100DB00008958F929F92AF92BF92CF92DF92EF925F
:100DC000FF920F931F93DF93CF9300D000D0CDB746
:100DD000DEB7EE24FF241CE0C12ED12CBFE08B2E09
:100DE000B1E09B2E5E010894A11CB11CE89C80011F
:100DF000E99C100DF89C100D112408531E4FC801DA
:100E00000E94B029C8010E94621E69837A838B8385
:100E10009C83C601B5010E948E050894E11CF11C5B
:100E200081E190E0C80ED91E93E0E916F104F1F6D5
:100E30001092910181E00E94460281E796E00E94B3
:100E400097180F900F900F900F90CF91DF911F91F7
:100E50000F91FF90EF90DF90CF90BF90AF909F9059
:100E60008F900895AF92BF92CF92DF92EF92FF9250
:100E70000F931F93CF93DF932AECE22E21E0F22E03
:100E800000E010E09FE0A92E91E0B92E81E0C82E8D
:100E9000D12C0A9DE0010B9DD00D1A9DD00D11247F
:100EA000C853DE4FCE010E948F1C8823A9F0CE01CB
:100EB0000E948C29CE010E94A22B882369F0960102
:100EC000F701008002C0220F331F0A94E2F78091DD
:100ED000A201822B8093A2010F5F1F4F8FE091E050
:100EE000E80EF91E03301105A1F681B39091A2011D
:100EF000892B81BB81E090E00E94924091B3809168
:100F0000A2018095892381BB1092A20188EC91E017
:100F10000E948F1C882371F487ED92E00E948F1C41
:100F2000882341F486EE93E00E948F1C882311F4FD
:100F30000E94D906DF91CF911F910F91FF90EF9002
:100F4000DF90CF90BF90AF90089588EC91E00E9421
:100F50008F1C882361F487ED92E00E948F1C882308
:100F600031F486EE93E00E948F1C882311F00E94DA
:100F7000D90688EC91E00E94811D87ED92E00E94E5
:100F8000811D86EE93E00E94811D0895CF93DF932B
:100F9000EC0187E2C031D80791F083E1C838D80767
:100FA00071F08FE0C03AD80751F087E0C03DD80714
:100FB00031F083E0C83ED80711F080E010C088EC23
:100FC00091E0BE010E94AA1C87ED92E0BE010E9442
:100FD000AA1C86EE93E0BE010E94AA1C81E0DF916C
:100FE000CF9108950E9471178091460686508230F5
:100FF00048F460E080911801882309F461E088E1F9
:101000000E949441809147068650823048F460E007
:1010100080911801882309F461E089E10E949441DC
:1010200080915006863021F486E595E061E003C0AA
:1010300086E595E062E00E94263608958CE060E047
:101040000E94944108958CE061E00E9494410895CB
:101050001F93CF93DF93182F863029F4C09113018B
:10106000D091140104C0C0911501D0911601809156
:101070004606181711F090E006C088E1609118014B
:101080000E94944191E080914706181731F489E15C
:10109000609118010E94944102C0992369F0BE0139
:1010A00080E090E042EF57E00E9413170E945B1728
:1010B00086E595E060E009C0163021F486E595E00C
:1010C00061E003C086E595E062E00E942636DF918C
:1010D000CF911F910895FF920F931F93F82E062F23
:1010E000E82FF0E0EA5BF94F608381E0F816D9F170
:1010F000FF2019F482E00E94093E18E1002329F440
:10110000812F60E00E94114133C006500230E8F0A8
:10111000812F60E00E941141812F61E00E94944183
:10112000FF2021F081E0F81619F506C04091170163
:1011300082E064E871E105C04091170183E060E856
:1011400071E150E00E948D3D13C0812F61E00E944B
:10115000114160E080911801882309F461E0812F3A
:101160000E94944105C083E00E94093E19E1C6CF68
:101170001F910F91FF90089580E0609146060E94B4
:101180006B0881E0609147060E946B0890E08091B7
:101190004606843009F491E080914706843009F4D2
:1011A00091E090934906089542E00E94EB3C089537
:1011B00044E00E94EB3C089541E00E94EB3C08951E
:1011C0002F923F924F925F926F927F928F929F9257
:1011D000AF92BF92CF92DF92EF92FF920F931F9345
:1011E000DF93CF93CDB7DEB761970FB6F894DEBF2C
:1011F0000FBECDBF80E090E060E071E00E94D408B7
:1012000082E090E063E071E04AE00E94EB3C1A82E9
:101210001B821C821D821E821F82188619861A86D6
:101220001B861C861D861E861F86188A198A1982AF
:10123000CC24DD247CE0E72EF12C66E0262E312C38
:101240002C0E3D1E5AE0452E512C4C0E5D1E4EE0DC
:10125000642E712C6C0E7D1E4E010894811C911C15
:101260003FE0A32E31E0B32EC701BE016E5F7F4F7A
:101270000E94D808C7010496B1010E94D808C7018E
:101280000896B2010E94D808C7010C96B3010E94CB
:10129000D808C7014096B4010E94DC08CA9C8001AE
:1012A000CB9C100DDA9C100D112408531E4FC80161
:1012B00069810E948D2D4A815B816C817D81C8018D
:1012C0000E945A1E4E815F8168857985C8010E94FF
:1012D0002A1E4A855B856C857D85C8010E943A1E61
:1012E0004E855F8568897989C8010E944A1E0894E5
:1012F000C11CD11C81E190E0E80EF91E93E0C916F3
:10130000D10409F0B1CF61960FB6F894DEBF0FBEDD
:10131000CDBFCF91DF911F910F91FF90EF90DF90A4
:10132000CF90BF90AF909F908F907F906F905F9085
:101330004F903F902F9008952F923F924F925F923F
:101340006F927F928F929F92AF92BF92CF92DF92D5
:10135000EF92FF920F931F93DF93CF93CDB7DEB73A
:1013600061970FB6F894DEBF0FBECDBF83E090E06B
:101370000E94753D80E090E060E071E00E9492057F
:1013800082E090E063E071E04AE00E94463D1A820C
:101390001B821C821D821E821F82188619861A8655
:1013A0001B861C861D861E861F86188A198A19822E
:1013B000CC24DD241CE0E12EF12CB2E02B2E312CCC
:1013C0002C0E3D1EA6E04A2E512C4C0E5D1EFAE05E
:1013D0006F2E712C6C0E7D1EEEE08E2E912C8C0EDD
:1013E0009D1E5E010894A11CB11C8FE091E0C89E77
:1013F0008001C99E100DD89E100D112408531E4F58
:10140000C8010E94621E6A837B838C839D83C8010E
:101410000E94321E6E837F8388879987C8010E944D
:10142000421E6A877B878C879D87C8010E94521E57
:101430006E877F87888B998BC8010E94151C8983D2
:10144000C701B1010E948E05C7010496B2010E9436
:101450008E05C7010896B3010E948E05C7010C9640
:10146000B4010E948E05C7014096B5010E948A050D
:101470000894C11CD11C81E190E0E80EF91E93E0B4
:10148000C916D10409F0B1CF61960FB6F894DEBF4A
:101490000FBECDBFCF91DF911F910F91FF90EF90C5
:1014A000DF90CF90BF90AF909F908F907F906F9084
:1014B0005F904F903F902F9008950E94313D882378
:1014C00039F00E94173D039719F40E94E00808952F
:1014D0000E949C090895809157068823A1F487E50E
:1014E00096E00E94D644892B71F00E9405406093DB
:1014F0005F0670936006809361069093620687E5AD
:1015000096E00E94E04480914606873051F0809139
:101510004706873031F086E595E062E00E94263686
:10152000089580915006882371F487E080935006D7
:101530000E94054060935F06709360068093610689
:101540009093620608950E94054020915F063091B5
:1015500060064091610650916206621B730B840B1A
:10156000950B209111013091120140E050E02617B7
:1015700037074807590728F41092500687E00E9461
:1015800028080895CF92DF92EF92FF920F931F9356
:10159000CF93DF9385E595E00E94931B00E010E078
:1015A000EE24FF248FE0C82E81E0D82EEC9CE001D1
:1015B000ED9CD00DFC9CD00D1124C853DE4FCE0104
:1015C0000E943B1C8823A9F0CE010E94A01E892BFB
:1015D00081F00115110531F0CE010E94A01E801787
:1015E000910718F0E114F10421F4CE010E94A01E2D
:1015F0008C010894E11CF11C83E0E816F104B1F6BB
:10160000101611066CF48091A3019091A4010817A3
:10161000190730F086E595E061E00E94263602C0A9
:101620000E945C06DF91CF911F910F91FF90EF9088
:10163000DF90CF9008950F931F9306E515E0C80142
:1016400061E048E851E10E943D36C80162E042ECA9
:101650005AE00E943D36C80163E041EB54E10E942C
:101660003D36C80164E040E55BE00E943D36C801BC
:1016700065E046E45BE00E943D36C80166E04BE66B
:101680005AE00E943D361F910F91089586E595E03E
:1016900060E00E94263681EB91E00E94AD3608950D
:1016A00086E595E060E00E94263681EB91E00E949D
:1016B00030370895FF920F931F93CF93DF93F82E47
:1016C0008B01C0E0D0E015C08F2D61E00E949441F5
:1016D0006AEF70E080E090E00E9439408F2D60E07A
:1016E0000E9494416AEF70E080E090E00E943940EF
:1016F0002196C017D10744F3DF91CF911F910F912D
:10170000FF900895EF92FF920F931F93CF93DF9373
:101710000E94054060939601709397018093980111
:101720009093990181E080939A0100E010E09FE09E
:10173000E92E91E0F92E0E9DE0010F9DD00D1E9D2A
:10174000D00D1124C853DE4FCE010E943B1C8823CC
:1017500021F0CE0160E00E94A61E0F5F1F4F0330F4
:10176000110549F780919B01813031F48CE060E0F4
:101770000E94944110929B0185E595E00E945C1BBC
:10178000882329F086E595E061E00E942636DF9106
:10179000CF911F910F91FF90EF9008956F927F92DC
:1017A0008F929F92AF92BF92CF92DF92EF92FF9271
:1017B0000F931F93CF93DF93082FDA0170E0FB01A3
:1017C0003297E337F10508F0C3C4E45BFF4FEE0F37
:1017D000FF1F0590F491E02D099490E001972FE010
:1017E00031E0829FA001839F500D929F500D1124E4
:1017F00048535E4F60E08C91811161E0CA010E9404
:10180000D22914C090E001972FE031E0829FA0011F
:10181000839F500D929F500D112448535E4F60E0FE
:101820008C91811161E0CA010E94361C81E091C453
:1018300090E001972FE031E0AC01429FC001439F4F
:10184000900D529F900D112488539E4F0E94B029F5
:10185000EDCF85EF94E0BA010E94D637BC01802F0E
:1018600090E001972FE031E0FC01E29FC001E39F8F
:10187000900DF29F900D112488539E4F0E94301CB2
:10188000D5CF6C916093900110E0015010408FE033
:1018900091E09C01029FC001039F900D129F900D4B
:1018A00011240F5F1F4F88539E4F0E948D2DC8013A
:1018B00054E0880F991F5A95E1F7800F911F0B96FE
:1018C00060E971E00E948A05B1CF85EF94E0BA012A
:1018D0000E94D637BC01802F90E001972FE031E0C5
:1018E000AC01429FC001439F900D529F900D112467
:1018F00088539E4F0E94E81C99CF90E001972FE0FB
:1019000031E0829FA001839F500D929F500D1124C2
:1019100048535E4F60E08C91811161E0CA010E94E2
:10192000DC2984CF90E001972FE031E0FC01E29FB9
:10193000C001E39F900DF29F900D112488539E4F9C
:101940000E94D81DC5C210E0015010408FE091E008
:10195000089F7001099FF00C189FF00C11240F5F75
:101960001F4F28EC31E0E20EF31EC7010E94621EF9
:10197000AB01BC0140938C0150938D0160938E01AB
:1019800070938F01C7010E942A1EC80144E0880F8E
:10199000991F4A95E1F7800F911F0197B8C090E019
:1019A00001972FE031E0AC01429FC001439F900DB1
:1019B000529F900D112488539E4F0E94D33110C026
:1019C00090E001972FE031E0FC01E29FC001E39F2E
:1019D000900DF29F900D112488539E4F0E94A731C5
:1019E0000E942A0623CF85EF94E0BA010E942A388C
:1019F000AB01BC01802F90E001972FE031E0FC01AA
:101A0000E29FC001E39F900DF29F900D1124885337
:101A10009E4F0E94FF1C0ACF85EF94E0BA010E94FE
:101A20002A38AB01BC01802F90E001972FE031E014
:101A3000FC01E29FC001E39F900DF29F900D1124E5
:101A400088539E4F0E94591CF1CEFA01A19085EF58
:101A500094E0BF010E94DE376B017C0161157105C6
:101A60008105910591F4802F90E001972FE031E0FE
:101A7000AC01429FC001439F900D529F900D1124D5
:101A800088539E4F61E00E944F1C802F90E0019789
:101A90002FE031E0829FA001839F500D929F500D57
:101AA000112448535E4F60E0A11061E0CA01A70114
:101AB00096010E941A2F94CF85EF94E0BA010E94FC
:101AC000FA37AB01BC0140938C0150938D016093B8
:101AD0008E0170938F0110E0015010408FE091E073
:101AE000FC010E9FC0010F9F900D1E9F900D1124B1
:101AF0000F5F1F4F88539E4F0E943A1EC80134E06B
:101B0000880F991F3A95E1F7800F911F03966CE8B3
:101B100071E00E948E058ACE85EF94E0BA010E94A2
:101B2000FA37AB01BC0140938C0150938D01609357
:101B30008E0170938F0110E0015010408FE091E012
:101B40009C01029FC001039F900D129F900D1124D4
:101B50000F5F1F4F88539E4F0E944A1EC80124E00A
:101B6000880F991F2A95E1F7800F911F0796CFCF15
:101B70004C91413081F490E001972FE031E0AC01CD
:101B8000429FC001439F900D529F900D1124885396
:101B90009E4F64E011C0423091F490E001972FE035
:101BA00031E0FC01E29FC001E39F900DF29F900D98
:101BB000112488539E4F65E00E94481D37CE433064
:101BC00081F490E001972FE031E0AC01429FC00129
:101BD000439F900D529F900D112488539E4F66E0B5
:101BE000EBCF80E00E94480421CE85EF94E0BA015B
:101BF0000E94CE37BC01802F90E001972FE031E0AA
:101C0000FC01E29FC001E39F900DF29F900D112413
:101C100088539E4F0E949A1E09CE85EF94E0BA0128
:101C20000E94DE37AB01BC01802F90E001972FE0CE
:101C300031E0FC01E29FC001E39F900DF29F900D07
:101C4000112488539E4F0E94761EF0CD85EF94E0BC
:101C5000BA010E94DE37AB01BC01802F90E00197F2
:101C60002FE031E0FC01E29FC001E39F900DF29F65
:101C7000900D112488539E4F0E94821ED7CD85EF70
:101C800094E0BA010E94DE37AB01BC01802F90E0E6
:101C900001972FE031E0FC01E29FC001E39F900D2E
:101CA000F29F900D112488539E4F0E948E1EBECD30
:101CB00090E001972FE031E0AC01429FC001439FCB
:101CC000900D529F900D112488539E4F0E94C63153
:101CD00087CE90E001972FE031E0FC01E29FC00148
:101CE000E39F900DF29F900D112488539E4F0E9408
:101CF000B93176CE90E001972FE031E0829FE0018C
:101D0000839FD00D929FD00D1124C853DE4F8C8D30
:101D1000882309F41EC20E9405402091C20130911F
:101D2000C3014091C4015091C501621B730B840B28
:101D3000950B60934C0670934D0680934E069093DE
:101D40004F0681E08C830E94820B70CD90E001975A
:101D50002FE031E0829FE001839FD00D929FD00D54
:101D60001124C853DE4F8C8D882309F4F2C1CE01B3
:101D70000E94A01E892B09F4EFC10091A3011091CC
:101D8000A401CE010E94A01E0817190708F0E4C1A3
:101D90000AC001979093A4018093A301CE010E94F1
:101DA000A6320E942A066090C2017090C301809002
:101DB000C4019090C50181EB91E00E947E365B01E9
:101DC0006C0181EB91E00E947A367C0181EB91E01D
:101DD0000E94763600E010E0A0E0B0E0E80EF91EC8
:101DE0000A1F1B1FEA0CFB1C0C1D1D1DE614F7042B
:101DF0000805190548F42091C2013091C3014091B2
:101E0000C4015091C5011CC081EB91E00E947E3657
:101E10006B017C0181EB91E00E947A368C0181EBB1
:101E200091E00E947636980140E050E0A0E0B0E0FA
:101E3000280F391F4A1F5B1F2C0D3D1D4E1D5F1DB6
:101E40008091920190919301A0919401B09195019C
:101E500082179307A407B50768F0821B930BA40BA6
:101E6000B50B8093920190939301A0939401B0934A
:101E70009501DCCC10929201109293011092940182
:101E800010929501D3CC90E001972FE031E0829F32
:101E90008001839F100D929F100D112408531E4F37
:101EA000C8010E94D81DC80140E050E060E070E029
:101EB0000E942A1EC80140E050E060E070E00E94ED
:101EC0003A1EC80140E050E060E070E00E944A1E07
:101ED0000E949C09ABCC90E001972FE031E0AC016F
:101EE000429FC001439F900D529F900D1124885333
:101EF0009E4F0E943B1CB3C090E001972FE031E061
:101F0000FC01E29FC001E39F900DF29F900D112410
:101F100088539E4F0E942A1CEFC090E001972FE04B
:101F200031E0AC01429FC001439F900D529F900D44
:101F3000112488539E4F0E94151C91C090E0019778
:101F40002FE031E0FC01E29FC001E39F900DF29F82
:101F5000900D112488539E4F0E941A1C80C090E05F
:101F600001972FE031E0AC01429FC001439F900DEB
:101F7000529F900D112488539E4F0E94A41CBCC0F8
:101F800090E001972FE031E0FC01E29FC001E39F68
:101F9000900DF29F900D112488539E4F0E94321E87
:101FA00084C090E001972FE031E0AC01429FC00176
:101FB000439F900D529F900D112488539E4F0E9475
:101FC000621E73C090E001972FE031E0FC01E29FB8
:101FD000C001E39F900DF29F900D112488539E4FF6
:101FE0000E948F1C682F81E070E00E94FA03802F0E
:101FF00090E001972FE031E0AC01429FC001439F88
:10200000900D529F900D112488539E4F0E94451CA5
:1020100010C090E001972FE031E0FC01E29FC00189
:10202000E39F900DF29F900D112488539E4F0E94C4
:10203000811CAB01BC0181E00E94A90395C090E026
:1020400001972FE031E0AC01429FC001439F900D0A
:10205000529F900D112488539E4F0E947C1D682F23
:1020600081E00E942E0480C090E001972FE031E0D3
:10207000FC01E29FC001E39F900DF29F900D11249F
:1020800088539E4F0E94421E10C090E001972FE09F
:1020900031E0AC01429FC001439F900D529F900DD3
:1020A000112488539E4F0E94521EAB01BC0181E057
:1020B0000E94C40359C090E001972FE031E0FC0179
:1020C000E29FC001E39F900DF29F900D1124885371
:1020D0009E4F0E947C1E36C090E001972FE031E0B9
:1020E000AC01429FC001439F900D529F900D11245F
:1020F00088539E4F0E94A01EBC0181E00E941404E0
:1021000033C090E001972FE031E0FC01E29FC00175
:10211000E39F900DF29F900D112488539E4F0E94D3
:10212000881E10C090E001972FE031E0AC01429F83
:10213000C001439F900D529F900D112488539E4FD4
:102140000E94941EAB01BC0181E00E94DF030CC021
:1021500080E00E94480408C08091A3019091A401EE
:10216000009709F016CE1ACEDF91CF911F910F91F3
:10217000FF90EF90DF90CF90BF90AF909F908F90A7
:102180007F906F9008951F93182F0E94D9061130E9
:1021900091F4109292011092930110929401109276
:1021A00095011092A4011092A3011092E3011092E4
:1021B000F2021092010410929A010E94A5070E9457
:1021C00038371F9108951F93182F0E9405402091C2
:1021D0005106309152064091530650915406621BAD
:1021E000730B840B950B6E5E72408040904008F438
:1021F00085C00E94054060935106709352068093FB
:10220000530690935406E12FF0E0EA5BF94F80818A
:102210008130B1F0883041F480919A01813009F029
:102220006DC00E94D9066AC0823031F0833059F403
:1022300080919A01882321F081E00E94C3105EC042
:102240000E94820B5BC0843021F481E080934806B9
:1022500055C0853001F588EC91E00E941A1C11E010
:10226000682F612788EC91E00E94DC2987ED92E0DD
:102270000E941A1C682F612787ED92E00E94DC29DA
:1022800086EE93E00E941A1C182786EE93E0612FD9
:102290000E94DC2933C0893079F40E94D90688EC89
:1022A00091E00E94D81D87ED92E00E94D81D86EE35
:1022B00093E00E94D81D22C08A3001F50E94D90601
:1022C00088EC91E00E94621EAB01BC0188EC91E0B9
:1022D0000E94941C87ED92E00E94621EAB01BC013B
:1022E00087ED92E00E94941C86EE93E00E94621EAD
:1022F000AB01BC0186EE93E00E94941C1F910895EF
:1023000081E00E94E310089580E00E94E3100895A8
:102310002091BE013091BF014091C0015091C10197
:10232000211531054105510559F08091A301909186
:10233000A401A0E0B0E082179307A407B507D0F48A
:102340008091C701882309F07EC088EC91E00E944B
:10235000A91E882309F477C087ED92E00E94A91E88
:10236000882309F470C086EE93E00E94A91E88239A
:1023700009F469C081E00E94C31008958091480665
:10238000882309F46DC080914606863029F080913B
:102390004706863009F05DC081E00E944E02882326
:1023A00009F457C086E0809350060E9428080895DB
:1023B0000E94054020914C0630914D0640914E06FA
:1023C00050914F06621B730B840B950B2091C20139
:1023D0003091C3014091C4015091C5016217730748
:1023E00084079507E8F18091C701882381F486E589
:1023F00095E062E00E9426360E94054060934C06FC
:1024000070934D0680934E0690934F0608950E9458
:102410006036882329F586E595E060E00E9426363F
:1024200010925006109248060E94054060934C0698
:1024300070934D0680934E0690934F0681EB91E08A
:102440000E94E536089580914906882309F096CFC9
:102450009ACF85E595E00E945C1B882321F2A8CFE6
:1024600008950E9438370E94D90610929A01089563
:102470000F931F93CF93DF93EB0190E0FC01329712
:10248000E637F10508F0BBC1E154FF4FEE0FFF1F27
:102490000590F491E02D09940E94820B02C00E94E5
:1024A000311281E0ADC181E00E94C310FACF888172
:1024B0008093A101882319F40E941E08F2CF0E9484
:1024C0002308EFCF60E08881811161E085E595E028
:1024D0000E940A1CE6CF8AE0E3E0F1E0DF011D92F2
:1024E0008A95E9F780E090E0FE01E80FF91F20816E
:1024F000222321F0FC01ED5FFE4F208301968B30FB
:10250000910591F782E090E063E071E04AE00E947B
:10251000463DC7CF6881623008F471C16093000105
:102520001092010185EF94E070E00E94B137609154
:1025300000017091010186EE95E00E94B13780E0C4
:1025400090E060E071E00E949205ABCF888183301B
:1025500020F080E00E944804A4CF882319F40E9450
:10256000A61B9FCF0E94D21B9CCF88EC91E00E94BB
:10257000D33187ED92E00E94D33186EE93E00E9442
:10258000D3310E942A068DCF85EF94E00E94D63782
:102590000E94C60786CF88810E94350208C080E06D
:1025A00068810E946B0881E069810E946B080E942B
:1025B000BC0877CF888180939C0173CF85EF94E02E
:1025C0000E94D6379093100180930F01F0CF85EFD2
:1025D00094E00E94D6379093120180931101E7CFC7
:1025E00085EF94E00E94D6379093140180931301F5
:1025F000DECF85EF94E00E94D6379093160180934A
:102600001501D5CF6881613019F46093180149CF65
:10261000662309F0F4C01092180143CF85EF94E0CF
:102620000E94DE376093A5017093A6018093A701F5
:102630009093A80136CF85EF94E00E94DE3728EE14
:1026400033E040E050E00E9411536093A901709381
:10265000AA018093AB019093AC0123CF88EC91E069
:1026600068810E946C1E87ED92E068810E946C1E5A
:1026700086EE93E068810E946C1E13CF81E066E0D5
:10268000BBC081E060919A01B7C040919201509126
:102690009301609194017091950181E0A1C00E9425
:1026A0006036A8C081E060910201A6C081E063E0CD
:1026B00071E04AE050E00E948C03A4C088EC91E0F5
:1026C0000E94DA1CBC0173C08AE20E94E240AA2781
:1026D00097FDA095BA2FBC01CD010E94FA5120E0D0
:1026E00030EC4FE754E40E94645120E030E048ECC5
:1026F00051E415C089E20E94E240AA2797FDA09507
:10270000BA2FBC01CD010E94FA5120E030EC4FE716
:1027100054E40E94645120E030E040EA50E40E941A
:10272000AE52AB01BC0181E00E94A9036BC081E005
:102730006091170161C09091460680E06091470664
:1027400070E0682B792B70934B0660934A0681E00A
:1027500018C010924B0610924A0688E10E94C741A9
:10276000182F00E010934B0600934A0689E10E945F
:10277000C741082B192B10934B0600934A0681E0A2
:10278000B8010E94FA033EC060910F0170911001E0
:102790000EC0609111017091120109C06091130186
:1027A0007091140104C0609115017091160181E0CF
:1027B0000E94140427C081E0609118011DC060913F
:1027C000A9017091AA018091AB019091AC0128EE12
:1027D00033E040E050E00E94445381E0BA01A90197
:1027E0000E94DF030FC088EC91E00E94731E02C0BC
:1027F0000E943002682F81E00E942E0403C080E016
:102800000E944804DF91CF911F910F9108950F937B
:102810001F93CF93DF93182F062FEA010E940540E4
:1028200060939D0170939E0180939F019093A001FE
:10283000143018F4113048F403C0143091F40BC074
:10284000802FBE010E9438120FC0812F602FAE0171
:102850000E94CE0B09C084E0602FAE010E945F048D
:1028600003C080E00E944804DF91CF911F910F9137
:10287000089593E090930E010E9407140895EF923B
:10288000FF920F931F93F82EE62E8A0182E0809329
:102890000E010E94054060939D0170939E018093FC
:1028A0009F019093A0018F2D6E2DA8010E94071407
:1028B0001F910F91FF90EF900895EF92FF920F9369
:1028C0001F93F82EE62E8A0181E080930E010E946C
:1028D000054060939D0170939E0180939F019093AA
:1028E000A0018F2D6E2DA8010E9407141F910F913A
:1028F000FF90EF900895FA01623069F0633018F4A8
:10290000613071F505C0633051F0643049F50AC09B
:102910000E94820B089581E00E94C31008950E94D6
:102920003112089540814230D8F040930001109256
:1029300001010E949C09609100017091010185EFE5
:1029400094E00E94B137609100017091010186EE20
:1029500095E00E94B1378CE065E070E00E945A0B70
:102960000895EF92FF920F931F93CF93DF9302EEA0
:1029700011E0C0E0D0E06FE0E62E61E0F62EF80155
:102980008081882371F5CE9DC001CF9D900DDE9D85
:10299000900D112488539E4F0E948F1C882309F1AB
:1029A00027C085E595E00E945C1B8823A1F086E5A1
:1029B00095E061E00E9426368091CC01813041F0A3
:1029C0008091DB02813021F08091EA03813081F433
:1029D0000E9431120DC086E595E060E00E94263627
:1029E00007C02196015F1E4FC330D10541F6D9CFF4
:1029F000DF91CF911F910F91FF90EF9008958091FB
:102A00009A01882319F00E94311208950E94D90674
:102A10000895EF92FF920F931F93CF93DF9388EF68
:102A200097E00E94A745892B31F081E090E09093D8
:102A300079058093780585EF94E00E94473C86EE07
:102A400095E00E94473C8AE795E00E94473C88EC6D
:102A500091E00E948F1C882361F487ED92E00E9430
:102A60008F1C882331F486EE93E00E948F1C88230C
:102A7000C9F080919C018823A9F00E940540209113
:102A80009D0130919E0140919F015091A001621BD8
:102A9000730B840B950B695E73408040904010F07F
:102AA0000E94D90600E010E07FE0E72E71E0F72EEB
:102AB0000E9DE0010F9DD00D1E9DD00D1124C85319
:102AC000DE4FCE010E948F1C882319F0CE010E9498
:102AD0003F2B0F5F1F4F0330110551F780919A0173
:102AE000882309F47BC00E94054020919201309117
:102AF00093014091940150919501E0909601F090DE
:102B0000970100919801109199012E193F09400BEE
:102B1000510B260F371F481F591F209392013093E6
:102B200093014093940150939501609396017093A3
:102B30009701809398019093990180919B01813036
:102B400011F40E94C31085E595E00E945C1B882368
:102B5000E9F02091A5013091A6014091A701509183
:102B6000A801211531054105510581F0809192019F
:102B700090919301A0919401B09195012817390784
:102B80004A075B0718F481E00E94C31085E595E0D1
:102B90000E945C1B882349F40E945F1B882329F054
:102BA00086E595E061E00E94263620919201309101
:102BB000930140919401509195018091A9019091C8
:102BC000AA01A091AB01B091AC01281739074A07BF
:102BD0005B0720F086E595E00E942936DF91CF91D2
:102BE0001F910F91FF90EF900895EF92FF920F9336
:102BF0001F93CF93DF9388EF97E040E855E260E0C2
:102C000070E00E94AE4564E670E080E090E00E94D3
:102C1000394063E876E080E090E00E94F91A0E9473
:102C200005406093AD017093AE018093AF01909326
:102C3000B0018CE061E00E94114180E061E00E94FF
:102C4000114180E061E00E9494418AE260E00E94CC
:102C5000114189E260E00E9411410E941B0B86E550
:102C600095E060E00E94263685E595E061E00E94EF
:102C70000A1C8BE495E00E94571B81EB91E048E72A
:102C800050E060E070E00E946C3681EB91E060E023
:102C900070E00E94723681EB91E060E070E00E948B
:102CA000683681EB91E06EE076E00E94633686ED57
:102CB00097E040E051EE60E070E00E946D4260916C
:102CC00000017091010185EF94E00E94B13785EF1A
:102CD00094E06DE574E10E94E53A85EF94E06DECD7
:102CE00075E00E94F13A85EF94E06BE774E10E9491
:102CF000EB3A85EF94E060E00E94AC376091000110
:102D00007091010186EE95E00E94B13786EE95E064
:102D10006FE374E10E94E53A86EE95E067EB75E0BB
:102D20000E94F13A86EE95E06BE774E10E94EB3A7F
:102D300086EE95E061E00E94AC37609100017091F1
:102D400001018AE795E00E94B1378AE795E069E3DF
:102D500074E10E94E53A8AE795E061EA75E00E9435
:102D6000F13A8AE795E06BE774E10E94EB3A8AE773
:102D700095E061E00E94AC3785EF94E066E975E08C
:102D80000E94C03786EE95E066E975E00E94C03784
:102D90008AE795E066E975E00E94C037C0E0D0E0C0
:102DA000EFE0EE2EE1E0FE2ECE9D8001CF9D100DD6
:102DB000DE9D100D112408531E4FC80160E00E94D3
:102DC000361CC80168E873E10E94AA1CC80140E0F3
:102DD00050E86BEB74E40E94FF1CC80161E00E94A4
:102DE000D229C80160E670E00E94301CC80164E08E
:102DF0000E948D2D2196C330D105B1F60E945D0A47
:102E00008CE065E070E00E945A0B81E06FEF74E1A6
:102E100042E050E00E948D3DDF91CF911F910F91D4
:102E2000FF90EF900895611571058105910569F492
:102E300081E090E0A0E0B0E08093640690936506A6
:102E4000A0936606B093670608C06093640670930B
:102E500065068093660690936706509369064093D3
:102E60006806809170008E7F809370008091B00022
:102E70008C7F8093B0008091B100877F8093B100F8
:102E80008091B6008F7D8093B600809170008D7F19
:102E9000809370008091B10084608093B100809134
:102EA000B1008C7F8093B10086E090E09093700633
:102EB00080936F06089510926A0610926B06109226
:102EC0006C0610926D0610926E0680916F069091BE
:102ED00070068093B200E0E7F0E08081816080833B
:102EE0000895E0E7F0E080818E7F808308958091EF
:102EF0006A0690916B06A0916C06B0916D060196E2
:102F0000A11DB11D80936A0690936B06A0936C0679
:102F1000B0936D0680916A0690916B06A0916C0645
:102F2000B0916D0620916406309165064091660669
:102F30005091670682179307A407B50710F1809197
:102F40006E068823F1F481E080936E0680916A0614
:102F500090916B06A0916C06B0916D06821B930B4D
:102F6000A40BB50B80936A0690936B06A0936C0636
:102F7000B0936D06E0916806F0916906099510928C
:102F80006E0608951F920F920FB60F920BB60F9216
:102F900011242F933F934F935F936F937F938F935E
:102FA0009F93AF93BF93EF93FF9380916F069091A0
:102FB00070068093B2000E947717FF91EF91BF9146
:102FC000AF919F918F917F916F915F914F913F91C1
:102FD0002F910F900BBE0F900FBE0F901F90189562
:102FE0001F920F920FB60F920BB60F9211242F93D0
:102FF0003F934F935F936F937F938F939F93AF9381
:10300000BF93EF93FF93E0917506F09176060995D3
:10301000FF91EF91BF91AF919F918F917F916F91B0
:103020005F914F913F912F910F900BBE0F900FBE6C
:103030000F901F901895FC01A3E0440F551F661FC9
:10304000771FAA95D1F7403080E0580781E06807E4
:1030500080E0780714F481E010C033E0759567953F
:10306000579547953A95D1F7403080E0580781E071
:10307000680780E078071CF482E0828339C023E08F
:1030800075956795579547952A95D1F7403080E01B
:10309000580781E0680780E0780714F483E0EDCFFB
:1030A00092E075956795579547959A95D1F7403079
:1030B00080E0580781E0680780E0780714F484E036
:1030C000DCCF82E075956795579547958A95D1F73E
:1030D000403080E0580781E0680780E0780714F40A
:1030E00085E0CBCF85E082834FEF5FEF60E070E05B
:1030F0008FB78383F8945183408350938700409324
:10310000860083818FBF80918100887F80938100BA
:10311000809181009281892B809381000895109283
:10312000800020E1209381000E941B180895EFE6A3
:10313000F0E080818E7F80830895E1E8F0E02081D7
:10314000DC0112968C91282B208308950F931F93F6
:10315000CF93DF93EC018B011216130614061506AC
:1031600024F4BA01A9010E941B181D830C8381E07D
:1031700080936F00CE010E949D18DF91CF911F9127
:103180000F910895F999FECF72BD61BDF89A80B58F
:103190000895F999FECF1FBA72BD61BD40BD0FB64B
:1031A000F894FA9AF99A0FBE0895282F9091D606AE
:1031B0009F5F943408F090E08091D7068917E1F37F
:1031C0003FB7F8948091D306882341F0E92FF0E0CF
:1031D000E852F94F20839093D6061DC081E080937A
:1031E000D3062093D4061092D50682E088BB809146
:1031F0007100826080937100809190008F7380686D
:1032000080939000809194009091950040969093C7
:103210009900809398003FBF0895862F0E94D5188B
:1032200081E090E008951F920F920FB60F920BB6B7
:103230000F9211242F933F934F935F936F937F933C
:103240008F939F93EF93FF934091D3065091D406B1
:1032500020919800309199006091CF067091D0062E
:103260008091D5061FC0260F371F952F9170569558
:103270004F5F9817B9F0992321F080919000806CEE
:1032800004C0809190008F73806880939000309389
:103290009900209398009093D5065093D4064093BC
:1032A000D3063BC04930F8F2493039F48AE08093C4
:1032B000D30680919000806C28C08091D606E09162
:1032C000D7068E1769F41092D306809190008F7301
:1032D00080939000809171008D7F809371001DC05C
:1032E00081E08093D306EF5FE43408F0E0E0E09300
:1032F000D706F0E0E852F94F80818093D40610920F
:10330000D506809190008F73806880939000260F7F
:10331000371F3093990020939800FF91EF919F9170
:103320008F917F916F915F914F913F912F910F906E
:103330000BBE0F900FBE0F901F9018958091D30673
:103340008823E1F708950E949E1908951F920F9215
:103350000FB60F920BB60F9211241F932F933F932A
:103360004F935F936F937F938F939F93AF93BF938D
:10337000EF93FF9320919600309197009091CB06A8
:10338000992341F0809191008F7B8093910010925E
:10339000CB0608C08091910080648093910080E802
:1033A0008093CB067091CA06772331F5992309F0F3
:1033B0006CC08091CD069091CE06820F931F9093A2
:1033C0009B0080939A0084E088BB809171008460A8
:1033D000809371008091CF069091D006280F391FFD
:1033E00096958795280F391F3093D2062093D106E2
:1033F00081E08093CA0649C04091D1065091D2061F
:103400001091CB06E091CF06F091D0066091CC06EA
:10341000AA27BB27AE1BBF0BC901841B950B97FDC9
:103420002CC06695612B7F5F8A0F9B1F793018F443
:103430004E0F5F1FF4CF6093CC06809171008B7F9D
:1034400080937100909179069F5F903508F090E02D
:1034500080917806981739F0E92FF0E0E658F94F97
:10346000608390937906809191008F7B8093910087
:103470001092CB061092CA0608C06093CC065093F7
:10348000D2064093D1067093CA06FF91EF91BF9187
:10349000AF919F918F917F916F915F914F913F91EC
:1034A0002F911F910F900BBE0F900FBE0F901F908A
:1034B00018951F920F920FB60F920BB60F92112410
:1034C0002F938F939F93EF93FF93809171008B7F46
:1034D00080937100809191008F7B809391009091F7
:1034E000CA068091CB0680582091CC0603C0269551
:1034F000282B9F5F9930D8F32093CC0690917906C2
:103500009F5F903508F090E080917806981739F029
:10351000E92FF0E0E658F94F208390937906109256
:10352000CA06809191008F7B809391001092CB0608
:10353000FF91EF919F918F912F910F900BBE0F9064
:103540000FBE0F901F90189580917906E091780634
:103550008E1719F42FEF3FEF0EC02E2F2F5F20355F
:1035600008F020E0E22FF0E0E658F94F8081209348
:103570007806282F30E0C901089580917906E091FE
:1035800078068E1719F4EFEFFFEF06C0F0E0E6586B
:10359000F94F8081E82FF0E0CF01089590917906EE
:1035A00080917806292F30E0482F50E0981710F4CA
:1035B000205B3F4F241B350BC9010895809178068D
:1035C0008093790608950F931F9301E710E0F801A7
:1035D00080818B7F808380818F7D80830E94DE1A33
:1035E0000E949E19F80180818D7F80831F910F9129
:1035F00008959B01AC012D3A8BE1380780E0480724
:1036000080E0580730F4109271001092900081E829
:1036100014C063E056954795379527956A95D1F77D
:103620002D3A8BE1380780E0480780E05807D0F555
:10363000109271001092900082E880939100309374
:10364000D0062093CF06CA01B90125E230E040E060
:1036500050E00E94115352E09695879577956795B3
:103660005A95D1F77093CE066093CD0687E162E05C
:103670000E94114186E161E00E94944186E161E08F
:103680000E9411411092CA06109279061092780693
:103690001092D3061092D6061092D70680E288BB0D
:1036A00080937100089581E0809328070895909396
:1036B0002A07809329070895FC018081089580914D
:1036C000280710922807811181E0089580912B0727
:1036D000882319F089B1847002C089B18870882369
:1036E00059F40E94134060932C0770932D07809328
:1036F0002E0790932F0708950E94134020912C07C6
:1037000030912D0740912E0750912F07E091290706
:10371000F0912A07309731F0621B730B840B950BE5
:10372000CB0109950895FC018081882371F083E124
:1037300060E00E94944165E070E080E090E00E94CB
:10374000394083E161E00E949441089580912B0704
:103750000E94093E089580E00E94093E83E161E0F5
:103760000E94114183E161E00E9494410895FC01AF
:10377000108282E060E00E94114183E060E00E94DC
:10378000114183E160E00E94114182E061E00E940A
:10379000944183E061E00E94944183E161E00E94F2
:1037A000944108950F931F93082F01500230F8F4AD
:1037B00080912B070E94093E10922B07002319F0DD
:1037C00081E080932B07002311F013E001C012E089
:1037D000812F60E00E941141812F61E00E9494419D
:1037E000802F66E67BE141E050E00E948D3D1F9115
:1037F0000F91089583E160E00E94114183E161E04F
:103800000E94944180E063E57BE142E050E00E9449
:103810008D3D0895FC016083662319F00E94AB1B67
:1038200008950E94FA1B08950895FC01EC5FFE4F75
:1038300080810895FC01E557FF4F80810895FC01C8
:10384000E85FFE4F0190F081E02D309711F0862F58
:1038500009950895FC01EB5FFE4F808191810895E9
:10386000FC01EB5FFE4F718360830895FC01E95713
:10387000FF4F60830895FC01E957FF4F8081089551
:10388000FC01E857FF4F80810895FC01EA51FF4F8A
:103890002081318142815381B901CA010895FC011F
:1038A000E257FF4F60830895FC01E257FF4F80818C
:1038B0000895EF92FF920F931F93CF93DF93EC0144
:1038C0007A018B01CB01BA0120E030E040E050E00A
:1038D0000E946051181674F4C251DF4FC801B7013D
:1038E00020E030E048EC52E40E9464516883798320
:1038F0008A839B83DF91CF911F910F91FF90EF906F
:103900000895FC01E251FF4F6081718182819381B2
:1039100020E030E048EC52E40E94AE520895FC01F1
:10392000E757FF4F80810895FC01E555FF4F408325
:103930005183628373830895FC01E555FF4F6081D5
:103940007181828193810895FC01EC57FF4F808142
:103950009181089587E26031780781F083E16838CA
:10396000780761F08FE0603A780741F087E0603DCA
:10397000780721F083E0683E7807B1F49B0140E0CE
:1039800050E060E472E48FE090E00E944453309392
:103990001B0120931A0180E197E2B9010E94305384
:1039A00070931D0160931C01089580911A019091FC
:1039B0001B01089520911A0130911B0140E050E055
:1039C00060E472E48FE090E00E946653C9010895BC
:1039D0000F931F93CF93DF93EC018B010E94DA1CAE
:1039E0008017910738F00115110521F0CC57DF4FF2
:1039F00019830883DF91CF911F910F910895EF9262
:103A0000FF920F931F93CF93DF93EC017A018B0109
:103A10000E94DA1CA0E0B0E0BC01CD010E94F85188
:103A20009B01AC01C801B7010E94AA521816FCF014
:103A3000C801B70120E030E040E050E00E94605152
:103A4000882364F414C0CA51DF4FE882F9820A83E4
:103A50001B83E082F1820283138309C0CE010E949E
:103A60008F1CFE01E651FF4F882399F7ECCFDF91C1
:103A7000CF911F910F91FF90EF900895FC01E955B0
:103A8000FF4F2081318142815381B901CA010895DC
:103A90001F93CF93DF93EC01162F0E948F1C882376
:103AA00039F5143049F4C65FDE4F8CEA9EE1998304
:103AB0008883CA50D14019C0153049F4C65FDE4F23
:103AC00080EE91E28993999385E594E20AC01630DD
:103AD00079F4C65FDE4F80EE91E2899399938FE18E
:103AE00095E299838883CC50D140C95FDE4F18831B
:103AF000DF91CF911F910895FC01E95FFE4F808116
:103B00000895FC01E955FF4F108211821282138241
:103B1000B89610821182128213823C9680E090E067
:103B2000A0E0B0E080839183A283B38338971192A1
:103B300011921192119210821182128213820895B1
:103B4000CF93DF93EC01FC01E955FF4F20813181D8
:103B500042815381CB01AA2797FDA095BA2F820FEE
:103B6000931FA41FB51F80839183A283B383C5577E
:103B7000DF4F8881CB58D040882319F47095619528
:103B80007F4FFE01EE50FF4F2081318142815381F2
:103B9000CB01AA2797FDA095BA2F820F931FA41FD0
:103BA000B51F80839183A283B383DF91CF91089562
:103BB000CF93DF93EC01FC01EA50FF4F208131816C
:103BC00042815381211531054105510581F0CE50C7
:103BD000DF4F88819981AA81BB81C25FD040281BB9
:103BE000390B4A0B5B0B2083318342835383BE0125
:103BF0006E507F4FFB012081318142815381FE0154
:103C0000E650FF4F80819181A281B381821B930B8B
:103C1000A40BB50B80839183A283B383FB01208126
:103C2000318142815381FE01E250FF4F80819181B9
:103C3000A281B381821B930BA40BB50B808391836C
:103C4000A283B383FB011082118212821382DF915F
:103C5000CF910895FC01EA50FF4F40835183628366
:103C600073830895FC01EA50FF4F60817181828166
:103C700093810895FC01E650FF4F40835183628396
:103C800073830895FC01E650FF4F6081718182814A
:103C900093810895FC01E250FF4F4083518362837A
:103CA00073830895FC01E250FF4F6081718182812E
:103CB00093810895FC01EE50FF4F4083518362834E
:103CC00073830895FC01EE50FF4F208131814281C2
:103CD0005381B901CA010895FC01128E662311F0C7
:103CE00081E0828F0895FC01828D0895FC01468752
:103CF0005787608B718B0895FC0166857785808975
:103D000091890895FC01428B538B648B758B0895C8
:103D1000FC0162897389848995890895FC01468B29
:103D2000578B608F718F0895FC0166897789808D2C
:103D3000918D0895FC01EE5FFE4F718360830895BD
:103D4000FC01EE5FFE4F808191810895FC0163A725
:103D50000895FC0183A508952F923F924F925F92A0
:103D60006F927F928F929F92AF92BF92CF92DF928B
:103D7000EF92FF920F931F93DF93CF93CDB7DEB7F0
:103D800068970FB6F894DEBF0FBECDBF182F3A016B
:103D90004B01388F2F8B882319F0285A3F4F04C0CE
:103DA0002F89388D245D3F4F3A872987A985BA85A9
:103DB0002D903D904D905C90C401B301A201910102
:103DC0000E94605118166CF0C401B301A201910168
:103DD0000E946451E985FA85248535854685578595
:103DE0003DC0C401B301A985BA8550962D913D917E
:103DF0004D915C9153970E94605188233CF4E98572
:103E0000FA85A484B584C684D7842CC0C401B301C8
:103E1000A20191010E94FB50A985BA8518962D91A7
:103E20003D914D915C911B970E94FB50E985FA856D
:103E300024813581468157810E9464519B01AC01E8
:103E400060E070E080E89FE30E94FB50A985BA859E
:103E50001C962D913D914D915C911F970E94AE5201
:103E60005B016C011123E9F560911C0170911D014A
:103E700080E090E00E94F851A60195010E946451F3
:103E80007B018C010E94CC51EF89F88DE155FF4FE9
:103E9000DF016D937D938D939D93B88FAF8B0E94BF
:103EA000F8519B01AC01C801B7010E94FB500F897A
:103EB000188DF801608371838283938320E030E062
:103EC00040E85FE30E94AA5218160CF060C280E03E
:103ED00090E0A0E0B0E0F80180839183A283B383F7
:103EE00056C2C401B301A20191010E94605118168B
:103EF0000CF4B5C0A985BA8558968D919D910D9009
:103F0000BC91A02D8B8B9C8BAD8BBE8BEF89F88DDC
:103F1000E952FF4FA080B180C280D3803897808162
:103F20009181A281B381EF5CF040F88FEF8BE9853E
:103F3000FA85E0A0F1A002A113A18E159F05A007AC
:103F4000B107A8F4C401B301A20191010E9460511C
:103F5000882369F0C601B5010E94F8519B01AC01AC
:103F60006B897C898D899E890E94AE5204C0C801EC
:103F7000B7010E94F8515B016C010E94CC51EFEC3B
:103F80006E2E712C2F89388D620E731ED3016D93A6
:103F90007D938D939C9313976BED862E912C820EBF
:103FA000931EF401E080F180028113816D917D9177
:103FB0008D919C910E94F8519B01AC01C601B50105
:103FC0000E94FB509B01AC01C801B7010E94FC504C
:103FD000D4016D937D938D939C9313976D917D91F7
:103FE0008D919C9120E030E040E85FE30E94AA526E
:103FF0008823ECF0F401608171818281938120E05B
:1040000030E040E85FE30E94FB50D4016D937D9364
:104010008D939C931397F30180819181A281B38149
:104020000196A11DB11D80839183A283B3832F8943
:10403000388D21533F4FD9012D913D914D915C9188
:10404000E985FA8580A191A1A2A1B3A1821B930B5E
:10405000A40BB50B80A391A3A2A3B3A398C1A98578
:10406000BA8550962D903D904D905C905397C40129
:10407000B301A20191010E9460512F89388D215313
:104080003F4F18160CF492C0F90180819181A281F2
:10409000B381E985FA85E0A4F1A402A513A5E81689
:1040A000F9060A071B0740F0C401B301A201910100
:1040B0000E946051882331F4C801B7010E94F85171
:1040C0005B016C01C601B5010E94CC515FEC652E0D
:1040D000712C2F89388D620E731ED3016D937D93E1
:1040E0008D939C9313974BED842E912C820E931EEF
:1040F000F401E080F180028113816D917D918D91B9
:104100009C910E94F8519B01AC01C601B5010E942F
:10411000FB509B01AC01C801B7010E94FC50D401C7
:104120006D937D938D939C9313976D917D918D915C
:104130009C9120E030E040E85FE30E94AA5288238F
:10414000ECF0F401608171818281938120E030E0A4
:1041500040E85FE30E94FB50D4016D937D938D9303
:104160009C931397F30180819181A281B381019681
:10417000A11DB11D80839183A283B3832F89388DC4
:1041800021533F4FD9012D913D914D915C91E9858E
:10419000FA8580A591A5A2A5B3A5821B930BA40BBC
:1041A000B50B80A791A7A2A7B3A7F1C0A985BA852F
:1041B0001C968D919D910D90BC91A02D8D839E8319
:1041C000AF83B887A985BA855C968D919D910D9036
:1041D000BC91A02D8F87988BA98BBA8BEF89F88D16
:1041E000E952FF4FF88FEF8B80819181A281B381DB
:1041F00089839A83AB83BC83E75DF040F88FEF8BB4
:10420000E688F788008D118D82899389A489B58904
:104210008B879C87AD87BE872684378440885188EA
:10422000F90180819181A281B381E985FA85A4A0F9
:10423000B5A0C6A0D7A0A816B906CA06DB0698F195
:10424000C401B30120E030E040E85FE30E94605128
:10425000882349F189819A81AB81BC81E80EF91EDE
:104260000A1F1B1F8B859C85AD85BE85E80EF91E38
:104270000A1F1B1FE218F30804091509C801B7013A
:104280000E94F8519B01AC016F85788989899A89D0
:104290000E94AE529B01AC016D817E818F81988519
:1042A0000E94FB5004C0C601B5010E94F8515B0199
:1042B0006C010E94CC512FEC622E712CAF89B88D0D
:1042C0006A0E7B1EF30160837183828393838BED7F
:1042D000882E912C8A0E9B1ED401ED90FD900D919D
:1042E0001C9160817181828193810E94F8519B01B0
:1042F000AC01C601B5010E94FB509B01AC01C80195
:10430000B7010E94FC50F401608371838283938320
:10431000608171818281938120E030E040E85FE339
:104320000E94AA528823E4F0D4016D917D918D9171
:104330009C9120E030E040E85FE30E94FB50F401F4
:104340006083718382839383F30180819181A28151
:10435000B3810196A11DB11D80839183A283B38394
:104360002F89388D21533F4FD9012D913D914D918A
:104370005C91E985FA8584A195A1A6A1B7A1821BCC
:10438000930BA40BB50B84A395A3A6A3B7A3689620
:104390000FB6F894DEBF0FBECDBFCF91DF911F9156
:1043A0000F91FF90EF90DF90CF90BF90AF909F90D4
:1043B0008F907F906F905F904F903F902F900895D7
:1043C0002F923F924F925F926F927F928F929F9225
:1043D000AF92BF92CF92DF92EF92FF920F931F9313
:1043E000DF93CF9300D000D0CDB7DEB7182F3A01BE
:1043F0004B013C832B83882319F0285A3F4F04C07C
:104400002B813C81245D3F4F3A8329838B819C81A2
:10441000845F9E4F9C838B83DC01ED91FC9111970F
:10442000AC50B140BC83AB8389819A81B401A301B4
:104430009D01012F09955B016C01112309F048C012
:1044400060911C0170911D0180E090E00E94F85184
:10445000A60195010E9464517B018C01EB81FC81D6
:10446000E155FF4FFC83EB830E94CC51AB81BC81B3
:104470006D937D938D939C9313975096BC83AB83E0
:104480006D917D918D919C910E94F8519B01AC01A1
:10449000C801B7010E94FB500B811C810C501040D9
:1044A000F801608371838283938320E030E040E8E9
:1044B0005FE30E94AA5218160CF0E0C180E090E081
:1044C000A0E0B0E0F80180839183A283B383D6C1DA
:1044D000A981BA812D903D904D905C90C401B301AB
:1044E000A20191010E94605118160CF491C0E9815B
:1044F000FA81E0A0F1A002A113A1C601B5010E94BA
:10450000CC516E157F058007910740F4C401B301BB
:10451000A20191010E946051882331F4C801B701C2
:104520000E94F8515B016C01C601B5010E94CC519B
:104530005FEC652E712C2B813C81620E731ED301C2
:104540006D937D938D939C9313974BED842E912CBB
:10455000820E931EF401E080F180028113816D913F
:104560007D918D919C910E94F8519B01AC01C601F7
:10457000B5010E94FB509B01AC01C801B7010E942C
:10458000FC50D4016D937D938D939C9313976D9103
:104590007D918D919C9120E030E040E85FE30E94A6
:1045A000AA528823ECF0F4016081718182819381A9
:1045B00020E030E040E85FE30E94FB50D4016D93BF
:1045C0007D938D939C931397F30180819181A281B8
:1045D000B3810196A11DB11D80839183A283B38312
:1045E0002B813C8121533F4FD9012D913D914D911C
:1045F0005C91E981FA8180A191A1A2A1B3A1821B62
:10460000930BA40BB50B80A391A3A2A3B3A336C1B4
:10461000A981BA8150962D903D904D905C90539712
:10462000C401B301A20191010E94605118160CF45B
:1046300091C0E981FA81E0A4F1A402A513A5C60105
:10464000B5010E94CC51E616F7060807190740F09D
:10465000C401B301A20191010E946051882331F489
:10466000C801B7010E94F8515B016C01C601B50198
:104670000E94CC512FEC622E712C2B813C81620E5A
:10468000731ED3016D937D938D939C9313978BED44
:10469000882E912C820E931EF401E080F18002811D
:1046A00013816D917D918D919C910E94F8519B0198
:1046B000AC01C601B5010E94FB509B01AC01C801D1
:1046C000B7010E94FC50D4016D937D938D939C9310
:1046D00013976D917D918D919C9120E030E040E8A1
:1046E0005FE30E94AA528823ECF0F401608171819B
:1046F0008281938120E030E040E85FE30E94FB503C
:10470000D4016D937D938D939C931397F3018081D6
:104710009181A281B3810196A11DB11D80839183F6
:10472000A283B3832B813C8121533F4FD9012D912B
:104730003D914D915C91E981FA8180A591A5A2A559
:10474000B3A5821B930BA40BB50B80A791A7A2A7BF
:10475000B3A794C0A981BA819496ED90FD900D9174
:104760001C919797C601B5010E94CC51E616F70639
:104770000807190750F0C401B30120E030E040E819
:104780005FE30E946051882331F4C801B7010E94A1
:10479000F8515B016C01C601B5010E94CC510FECD0
:1047A000602E712CEB81FC816E0E7F1ED3016D9308
:1047B0007D938D939C9313971BED812E912C8E0EE0
:1047C0009F1EF401E080F180028113816D917D9143
:1047D0008D919C910E94F8519B01AC01C601B501DD
:1047E0000E94FB509B01AC01C801B7010E94FC5024
:1047F000D4016D937D938D939C9313976D917D91CF
:104800008D919C9120E030E040E85FE30E94AA5245
:104810008823ECF0F401608171818281938120E032
:1048200030E040E85FE30E94FB50D4016D937D933C
:104830008D939C931397F30180819181A281B38121
:104840000196A11DB11D80839183A283B3832B8127
:104850003C8121533F4FD9012D913D914D915C9168
:10486000E981FA8184A195A1A6A1B7A1821B930B2E
:10487000A40BB50B84A395A3A6A3B7A30F900F9089
:104880000F900F90CF91DF911F910F91FF90EF90BC
:10489000DF90CF90BF90AF909F908F907F906F9060
:1048A0005F904F903F902F9008956F927F928F92DC
:1048B0009F92AF92BF92CF92DF92EF92FF920F93AF
:1048C0001F93CF93DF933C016A017B01E901002331
:1048D00009F445C0CB01BA01D3012D913D914D9111
:1048E0005C910E946051882384F4C952DF4F688133
:1048F00079818A819B810E94F8517B018C01F301AF
:10490000208D318D428D538D7DC0C701B601D301FD
:1049100050962D913D914D915C9153970E9460511D
:1049200018160CF03DC0CD52DF4F699179918991F5
:1049300099916F5F7F4F8F4F9F4F288139814A81B7
:104940005B81621B730B840B950B0E94F8517B01FA
:104950008C01F301248D358D468D578D53C0DC01BC
:104960008D909D90AD90BC90CB01BA01A5019401B2
:104970000E94605188233CF4C701B601A50194014F
:104980000E94645138C0C701B601D30150962D91E1
:104990003D914D915C9153970E94605188236CF436
:1049A000D3011C96EC911C971D967C911D971E9629
:1049B0008C911E971F966C912DC0C701B601A50161
:1049C00094010E94FB50F301208531854285538577
:1049D0000E94FB50D30114962D913D914D915C9115
:1049E00017970E9464519B01AC0160E070E080E881
:1049F0009FE30E94FB507B018C01F30124853585E8
:104A0000468557850E94AE52A80197010E94AE527A
:104A1000E62F692F2E2F372F482F562FB901CA01A5
:104A2000DF91CF911F910F91FF90EF90DF90CF908A
:104A3000BF90AF909F908F907F906F9008956F92EE
:104A40007F928F929F92AF92BF92CF92DF92EF921E
:104A5000FF920F931F93CF93DF933C016A017B0179
:104A6000E901002309F463C0CB01BA01D3012D9100
:104A70003D914D915C910E9460518823E4F46A89D4
:104A80007B898C899D896F5F7F4F8F4F9F4FC95264
:104A9000DF4F288139814A815B81621B730B840B54
:104AA000950B0E94F8517B018C01F301208D318D13
:104AB000428D538D2CC0C701B601F3012089318985
:104AC000428953890E94605118160CF060C06E89AB
:104AD0007F89888D998DC952DF4F288139814A811C
:104AE0005B81620F731F841F951FFE0152914291DB
:104AF00032912291621B730B840B950B0E94F8512B
:104B00007B018C01F301248D358D468D578D0E94DC
:104B1000AE52A80197010E94AE529B01AC01D30195
:104B20001C966D917D918D919C911F9768C0FC01A1
:104B300080809180A280B380CB01BA01A50194014D
:104B40000E9460518823C4F4C701B601A5019401F5
:104B50000E9464519B01AC0160E070E080E89FE33B
:104B60000E94FB507B018C01D3011C96AD90BD903F
:104B7000CD90DC901F9735C0C701B601F3012089A5
:104B80003189428953890E94605188236CF4D30192
:104B90001C96EC911C971D967C911D971E968C91EE
:104BA0001E971F966C912FC0C701B601A5019401F5
:104BB0000E94FB50F30120853185428553850E9478
:104BC000FB50D30114962D913D914D915C91179717
:104BD0000E9464517B018C01F301A484B584C684D6
:104BE000D784C601B501A80197010E94AE52A80161
:104BF00097010E94AE529B01AC01C601B5010E9413
:104C0000FB50E62F692F2E2F372F482F562FB90133
:104C1000CA01DF91CF911F910F91FF90EF90DF902C
:104C2000CF90BF90AF909F908F907F906F9008959E
:104C3000CF93DF93EB0120E030E040E050E42C8B99
:104C40003D8B4E8B5F8BFC01E95FFE4FE081E530D1
:104C500029F480E090E0A0E4B0E406C0E63041F43E
:104C600080E090E0A0ECBFE38C8B9D8BAE8BBF8B84
:104C7000DF91CF9108952F923F924F925F926F9262
:104C80007F928F929F92AF92BF92CF92DF92EF92DC
:104C9000FF920F931F93DF93CF93CDB7DEB76D973E
:104CA0000FB6F894DEBF0FBECDBF4C01698B2A8BC7
:104CB0003B8B4C8B5D8BAE8ABF8AC88ED98E2BEC1A
:104CC00030E0820E931ED4018D919D910D90BC9188
:104CD000A02D8D879E87AF87B88BE5E3FFEF8E0E03
:104CE0009F1E662331F4BCE22B2E312C280C391C7C
:104CF00017C0A8E52A2E312C280C391C23ED30E0F2
:104D0000820E931ED4018D919D910D90BC91A02D8A
:104D10008D879E87AF87B88BEDE2FFEF8E0E9F1ECB
:104D2000C401B1010E941826C801B7010E94F851C0
:104D30007B018C016E897F89888D998D0E94F85145
:104D4000A80197010E9464512B013C01D1016D9390
:104D50007D938D939C9313976AA97BA98CA99DA998
:104D60000E94F851A80197010E9464515B016C01F7
:104D7000F1016483758386839783A30192010E9466
:104D8000FC509B01AC0160E070E080E89FE30E9472
:104D9000FB507B018C01D10118966D937D938D930F
:104DA0009C931B97C301B201A80197010E94FC507C
:104DB000F101608B718B828B938BD10154962D9175
:104DC0003D914D915C9157972A8F3B8F4C8F5D8F12
:104DD000B989BB2309F4D7C1C301B2010E94645150
:104DE000A80197010E94FC507B018C01C601B5010E
:104DF0002A8D3B8D4C8D5D8D0E9464519B01AC01D1
:104E0000C801B7010E94FC509B01AC016A897B89F3
:104E10008C899D890E94645169877A878B879C87DA
:104E20001D821E821F821886F1E0EF2EF12C012DCB
:104E3000112DE7E0CE2EE1E0DE2EC80CD91C24C0F7
:104E4000F6018081843049F42D813E814F8158855F
:104E50002E0D3F1D401F511F0EC0C801B701A801F4
:104E600097010E9411532D813E814F815885260F55
:104E7000371F481F591F2D833E834F83588708943F
:104E8000E11CF11C011D111D8E899F89A88DB98D12
:104E90008E159F05A007B10798F619821A821B820A
:104EA0001C8271E0E72EF12C012D112D67E0C62E3A
:104EB00061E0D62EC80CD91C24C0D6018C91843058
:104EC00049F429813A814B815C812E0D3F1D401FA1
:104ED000511F0EC0C801B701A80197010E941153CC
:104EE00029813A814B815C81260F371F481F591F4A
:104EF00029833A834B835C830894E11CF11C011DD8
:104F0000111D8AA99BA9ACA9BDA98E159F05A00753
:104F1000B10798F6D6018C91863009F090C069856A
:104F20007A858B859C85A30192010E94AE5220E078
:104F300030E040E450E40E9464510E94CC517B0177
:104F40008C01F10160A371A382A393A369857A8583
:104F50008B859C8524813581468157810E94AE5284
:104F60003B014C0120E030E040E450E40E946451F9
:104F70000E94CC515B016C01D10194966D937D939D
:104F80008D939C939797C801B7010E94F8517B01BC
:104F90008C016D817E818F8198850E94F8519B01E3
:104FA000AC01C801B7010E946451F101608F718F9B
:104FB000828F938FC601B5010E94F8517B018C014D
:104FC00069817A818B819C810E94F8519B01AC019F
:104FD000C801B7010E946451D1015C966D937D9325
:104FE0008D939C935F9769857A858B859C852D91A0
:104FF0003D914D915C910E94AE52F1012489358919
:10500000468957890E9464510E94CC51D1019096E3
:105010006D937D938D939C939397C401B3015496A4
:105020002D913D914D915C9157970E9464510E9442
:10503000CC51F10164A375A386A397A367C06985CA
:105040007A858B859C85A30192010E94AE522A8DA0
:105050003B8D4C8D5D8D0E9464510E94CC517B0133
:105060008C01D10190966D937D938D939C93939732
:1050700069857A858B859C8514962D913D914D91FE
:105080005C9117970E94AE52F101248935894689B7
:1050900057890E9464510E94CC515B016C01D1017F
:1050A00094966D937D938D939C939797C801B701C8
:1050B0000E94F8517B018C016D817E818F819885E2
:1050C0000E94F8519B01AC01C801B7010E946451D4
:1050D000F101608F718F828F938FC601B5010E949D
:1050E000F8517B018C0169817A818B819C810E94BE
:1050F000F8519B01AC01C801B7010E946451D10174
:105100005C966D937D938D939C935F97F10160A165
:1051100071A182A193A10E94F8519B01AC016A89FF
:105120007B898C899D890E94FB507B018C01D10178
:1051300094966D917D918D919C9197970E94F851D5
:105140009B01AC01C801B7010E94FB500E94CC51E9
:10515000F10160A771A782A793A76D857E858F85D2
:1051600098890E94F8519B01AC0169857A858B85ED
:105170009C850E946451D1011C966D937D938D9303
:105180009C931F9737C0C301B2012A8D3B8D4C8D74
:105190005D8D0E946451A80197010E94FC507B0123
:1051A0008C01C601B5012A8D3B8D4C8D5D8D0E9411
:1051B00064519B01AC01C801B7010E94FC509B01E6
:1051C000AC016A897B898C899D890E9464517B012D
:1051D0008C016D857E858F8598890E94F8519B0191
:1051E000AC01C801B7010E946451F1016487758761
:1051F000868797876D960FB6F894DEBF0FBECDBF3A
:10520000CF91DF911F910F91FF90EF90DF90CF90A2
:10521000BF90AF909F908F907F906F905F904F90D6
:105220003F902F9008954F925F926F927F928F924E
:105230009F92AF92BF92CF92DF92EF92FF920F9325
:105240001F93DF93CF93CDB7DEB74C012A013B010B
:10525000C801B7014FEC50E0840E951EF401108296
:105260001182128213824CE050E0840E951E0F2EA4
:10527000F0E0EF2EF0E0FF2EF0E00F2FF0E01F2F18
:10528000F02DF401E082F1820283138348EF5FEF97
:10529000840E951EF40141925192619271924F01D8
:1052A000108211821282138248E050E0840E951E13
:1052B000F401208321E23FEF820E931E00D000D044
:1052C0000DB71EB70F5F1F4F0E94F8519B01AC0135
:1052D0008B899C89AD89BE89F80180839183A283E3
:1052E000B383C40161E0830172010E943B260F90E9
:1052F0000F900F900F90CF91DF911F910F91FF9022
:10530000EF90DF90CF90BF90AF909F908F907F9065
:105310006F905F904F900895CF93DF93FC01EC0165
:10532000C357DF4F88818823C1F0ED56FF4F11929C
:105330001192119211921192119211921192108266
:105340001182128213823C9780E090E0A0E0B0E0EE
:1053500080839183A283B3831882DF91CF910895D4
:10536000CF93DF93EC01C757DF4F1882249681E07B
:105370008883CD58D0401E8E1D8EC257DF4F1882B5
:10538000CE58D040CE010E94401C882321F089A134
:1053900061E00E949441CE0161E00E941F1CDF91F8
:1053A000CF910895FC01E857FF4F6083E858F04023
:1053B00081A10E9494410895EF92FF921F93CF9391
:1053C000DF93EC01162F8BE8E82EF12CEC0EFD1E7E
:1053D000F7018081681759F08BA10E949441CA5748
:1053E000DF4F81E08883F701108324961883DF91D3
:1053F000CF911F91FF90EF9008954F925F926F921F
:105400007F928F929F92AF92BF92CF92DF92EF9254
:10541000FF920F931F93CF93DF93EC015CE8852EEF
:10542000912C880E991EF4018081882309F447C0CD
:1054300046EEA42EB12CAC0EBD1E3EEEC32ED12CDA
:10544000CC0EDD1EF5016081718182819381F601B0
:1054500020813181428153810E94FB507B018C016C
:10546000F5016083718382839383F601608171818A
:105470008281938120E030E040E05FE30E94AE5201
:105480009B01AC01C801B7010E94605118160CF4D1
:10549000B4C08AE097EDA3E2BCE3F5018083918379
:1054A000A283B383F4011082C557DF4F6881CB58C4
:1054B000D04081E06827CE010E94DC299EC0CA57F7
:1054C000DF4F8881C658D0408823B1F1CE010E94B9
:1054D0001A1C22EFC22ED12CCC0EDD1E8823A1F483
:1054E000F601E080F18002811381CE010E942A1C26
:1054F000A0E0B0E08E0D9F1DA01FB11FF6018083BC
:105500009183A283B38313C0F601E080F18002810E
:105510001381CE010E942A1CA0E0B0E0E81AF90A2B
:105520000A0B1B0BF601E082F18202831383CA5738
:10553000DF4F1882C658D04096EE492E512C4C0EA3
:105540005D1EF2016080718082809380C651DF4FC2
:10555000E990F99009911991A880B980CA80DB80FF
:10556000CE5ED040C801B701A60195010E94FB5054
:105570009B01AC01C401B3010E94605118163CF0BC
:10558000C401B301A60195010E94FC5014C0C801DA
:10559000B701A60195010E94FC509B01AC01C4011A
:1055A000B3010E94AA52882364F0C401B301A6018A
:1055B00095010E94FB50F201608371838283938383
:1055C0001CC0F201E082F18202831383C801B7019B
:1055D00020E030E040E050E00E946051882351F02C
:1055E000C801B70120E030E040E050E00E94605187
:1055F000882319F4CE010E94B02960911C0170919A
:105600001D0180E090E00E94F8517B018C01CA519D
:10561000DF4F688179818A819B8120E030E048EC0E
:1056200052E40E9464519B01AC01C801B7010E9481
:1056300064517B018C010E94CC51E7976993799367
:10564000899399930E94F8519B01AC01C801B7015D
:105650000E94FB50688379838A839B83DF91CF917B
:105660001F910F91FF90EF90DF90CF90BF90AF9080
:105670009F908F907F906F905F904F900895AF9222
:10568000BF92CF92DF92EF92FF920F931F93CF932F
:10569000DF93EC018D8D882309F049C0CE010E9473
:1056A000541C882321F0CE010E94FD293EC0FE013A
:1056B000E953FF4F80819181A281B381C553DF4FB0
:1056C000A880B980CA80DB80CB5CD0400196A11D48
:1056D000B11D8A159B05AC05BD0518F081E08E8FC4
:1056E00024C06081718182819381C65FDE4F0E94F8
:1056F000F85120E030E040E85FE30E94FC507B017D
:105700008C01C601B5010E94F8519B01AC01C80192
:10571000B7010E946451AB01BC01E881F981CA5014
:10572000D14080E09E0109951E8E81E08D8FDF9132
:10573000CF911F910F91FF90EF90DF90CF90BF908E
:10574000AF900895CF92DF92EF92FF920F931F9345
:10575000CF93DF93EC01FC01E154FF4F80819181F5
:10576000A281B3810097A105B10561F5C155DF4F55
:1057700089919991A991B99180839183A283B383EF
:1057800088819981AA81BB81609688839983AA8345
:10579000BB83C35CD040FE01E953FF4F8081918100
:1057A000A281B3810196A11DB11D80839183A28343
:1057B000B383C556DF4F188219821A821B82CB59D8
:1057C000D0401D8EC556DF4F288139814A815B81CB
:1057D000CB59D04080911C0190911D01A0E0B0E018
:1057E000281739074A075B0708F47CC08D8D88238A
:1057F00019F4CE010E943F2B8E8D882309F444C0FA
:10580000BE0169567F4FC156DF4FDB012D913D919F
:105810004D915C9188819981AA81BB81CF59D040FB
:10582000FE01E556FF4F281739074A075B07D0F4FA
:1058300080819181A281B3810197A109B1098083FF
:105840009183A283B3832F5F3F4F4F4F5F4FFB0185
:105850002083318342835383CE0161E070E00E9454
:10586000A01D59C1DB011D921D921D921C92139720
:10587000C953DF4F188219821A821B82108211824B
:1058800012821382E897FBC0C155DF4F888199814E
:10589000AA81BB81609688839983AA83BB832C9756
:1058A00088819981AA81BB81609688839983AA8324
:1058B000BB83C35CD040FE01E953FF4F80819181DF
:1058C000A281B3810196A11DB11D80839183A28322
:1058D000B383C556DF4F188219821A821B82CB59B7
:1058E000D0401D8EFE01E556FF4F80819181A2813F
:1058F000B3810196A11DB11D80839183A283B383DF
:105900006FE8C62ED12CCC0EDD1EF601E080F180B2
:1059100002811381C801B70120E030E040E85FE375
:105920000E94AA5288237CF0C801B70120E030E031
:1059300040E85FE30E94FB50D6016D937D938D9309
:105940009C931397ADC0FE01ED56FF4F808191816E
:10595000A281B3810196A11DB11D80839183A28391
:10596000B383C154DF4F288139814A815B81CF5B8A
:10597000D04082179307A407B50708F491C0C55714
:10598000DF4F8881CB58D040882319F46FEF7FEF29
:1059900002C061E070E0CA50DF4FE880F9800A8100
:1059A0001B81C65FD04017FF25C0FE01EE50FF4FA0
:1059B00080819181A281B3819B01442737FD40956D
:1059C000542F820F931FA41FB51F8E159F05A0078C
:1059D000B1070CF44DC080819181A281B381280F61
:1059E000391F4A1F5B1F12161306140615060CF406
:1059F0003FC024C0E114F10401051105F9F0FE01D6
:105A0000EE50FF4F80819181A281B3819B01442799
:105A100037FD4095542F820F931FA41FB51FE81622
:105A2000F9060A071B0724F180819181A281B381C5
:105A3000280F391F4A1F5B1F57FD1AC0C156DF4F81
:105A4000288139814A815B81CF59D04021153105A8
:105A50004105510579F1C956DF4F88819981AA81A5
:105A6000BB81C759D04082179307A407B50710F12F
:105A7000C956DF4F188219821A821B82289780E04C
:105A800090E0A0E0B0E089939993A993B99318822C
:105A900019821A821B82C359D040CE010E94B029BC
:105AA00080E0DF91CF911F910F91FF90EF90DF90F9
:105AB000CF900895CD56DF4F188219821A821B822B
:105AC000C359D040FE01E956FF4F80819181A281E8
:105AD000B3810196A11DB11D80839183A283B383FD
