:100000000C9404020C94B03F0C94E13F0C94124009
:100010000C9443400C9474400C94A5400C94D6402E
:100020000C9407410C942F020C94004E0C942F0258
:100030000C942F020C942F020C942F020C94C918CC
:100040000C942F020C942F020C942F020C942F026C
:100050000C94F7180C942F020C942F020C94384136
:100060000C942F020C9473430C946C450C942F0247
:100070000C942F020C942F020C942F020C94AD1AA6
:100080000C941A1A0C94601B0C942F020C942F02DF
:100090000C942F020C942F02920CA40CB70CC80CD9
:1000A000E00C040D1C0D2E0D3F0D6B0D7C0D8F0D06
:1000B000A80DC10DF60D260E470E840E9C0EB50E32
:1000C000CE0EE70EF80E090F350FD20FFA0F1B10E8
:1000D0007F117F117F117F117F117F117F117F11A0
:1000E0007F117F117F117F117F117F117F117F1190
:1000F0007F117F117F117F117F117F117F117F1180
:100100007F117F117F117F117F117F117F117F116F
:100110007F117F117F117F117F117F117F117F115F
:100120007F117F117F117F117F117F117F117F114F
:100130007F117F117F117F117F117F117F117F113F
:100140007F117F117F117F117F117F117F117F112F
:100150007F117F117F117F117F117F114710581080
:1001600069107A108B109C10AD10BE10CF10E010EB
:10017000F6100B111C1132114311581169113B1368
:100180003E134213461355135E137D139913A813A0
:10019000B713BE13C213CD13D113DA13E313EC1349
:1001A000F51301140E14211431143514FE14FE1429
:1001B000FE14FE14FE14FE14FE14FE14FE14FE14AF
:1001C000FE14FE14FE14FE14FE14FE14FE14FE149F
:1001D000FE14FE14FE14FE14FE14FE14FE14FE148F
:1001E000FE14FE14FE14FE14FE14FE14FE14FE147F
:1001F000FE14FE14FE14FE14FE14FE14FE14FE146F
:10020000FE14FE14FE14FE14FE14FE14FE14FE145E
:10021000FE14FE14FE14FE14FE14FE14FE14FE144E
:10022000FE14FE14FE14FE14FE14FE14FE14FE143E
:10023000FE14FE14FE14FE14FE14FE14FE14FE142E
:10024000FE1439143C1440144A144D14511459141A
:100250005F14751492149614A414BF14C414C91412
:10026000CE14D614DA14EE14F314F814000021009E
:10027000240027002A002D00300000002200250065
:1002800028002B002E003100000020002300260053
:1002900029002C002F0001010101010101010202CE
:1002A0000202020202020303030303030303040422
:1002B00004040404040405050505050505050606F2
:1002C0000606060606060102040810204080010208
:1002D0000408102040800102040810204080010220
:1002E0000408102040800102040810204080010210
:1002F0000408102040800000000000000000000002
:10030000000007030401000000000B0A09000208B6
:1003100000000000000000000000000000000000DD
:10032000000000000000000102030405060712019E
:10033000100102000008EB03442001000102030148
:1003400009023E00020100C032090400000102025D
:100350000100052400100104240206052406000102
:10036000070582030800FF09040100020A000000DB
:1003700007050402100005070583021000050403A9
:1003800009042E03440079006E0061006D006900CD
:10039000630020005000650072006300650070007B
:1003A000740069006F006E0020004C004C00430098
:1003B00000003C03440079006E0061006D0069009C
:1003C000630020005000650072006300650070004B
:1003D000740069006F006E00200043004400430079
:1003E0002000530065007200690061006C0000008D
:1003F0000E033000300034003500370033000000B9
:1004000086032745A6467F0311241FBECFEFD0E207
:10041000DEBFCDBF11E0A0E0B1E0EEE1FAEA00E01E
:100420000BBF02C007900D92AC38B107D9F71BBEC5
:1004300018E0ACE8B1E001C01D92AE31B107E1F7C0
:1004400014E0C6E0D4E004C02297FE010E94FE54EE
:10045000C030D107C9F70E9442460C9402550C9453
:10046000000080911901109219010895813039F02E
:10047000813018F0823051F406C083E001C082E080
:1004800080931701089581E0809317010895E0910A
:100490005606F0915706309709F009950895EF92A6
:1004A000FF920F931F93982F80914A06882371F033
:1004B000992329F080915106882309F04CC090E0DF
:1004C00080914906813009F047C017C080910F0123
:1004D00090911001A0E0B0E02091C3013091C401DF
:1004E0004091C5015091C60182179307A407B50733
:1004F00030F080915106882311F491E02DC00E94C4
:10050000804120914D0630914E0640914F0650910A
:100510005006621B730B840B950BE0900F01F0905B
:10052000100100E010E02091C3013091C40140911E
:10053000C5015091C6012E193F09400B510B62179E
:1005400073078407950738F080915106811181E087
:1005500091E0982701C090E0892F1F910F91FF90A3
:10056000EF9008958F929F92AF92BF92CF92DF92B9
:10057000EF92FF920F931F938130910509F09BC07A
:100580006F5F7F4F09F0B0C082EB91E00E94243989
:10059000A1B289EC91E06DE270E040E150E020E230
:1005A00030E001E110E0E2E1EE2EF12CB3E1CB2EE0
:1005B000D12CBB24A5E08A2E912C0E949A35A1B2A1
:1005C00088ED92E06EE270E045E150E024E130E039
:1005D0000DE110E0FEE1EF2EF12CEFE1CE2ED12C5B
:1005E000B6E08B2E912C0E949A35A1B287EE93E053
:1005F0006FE270E042E250E021E230E00FE010E014
:10060000ABE2EA2EF12CFCE2CF2ED12CE7E08E2ECD
:10061000912C0E949A35409100015091010186EF82
:1006200094E068ED77E026E030E001E411E00E941C
:10063000393E86E595E00E94BE1C87E595E067E0BF
:100640000E94C83740910001509101018BE795E06D
:100650006AEF77E026E030E00E94393E1092DE0536
:100660001092DD0588EE93E0A0E0B0E08093DF0516
:100670009093E005A093E105B093E2058EE491E04C
:100680009093DC058093DB054091000150910101BE
:1006900087EE95E06BED75E026E030E00E94393E94
:1006A0000E948041609352067093530680935406D3
:1006B0009093550619C0892BB9F46F5F7F4FA1F451
:1006C0008EE491E09093DC058093DB050E94EA1BA9
:1006D00087EE93E00E941B1D88ED92E00E941B1D97
:1006E00089EC91E00E941B1D1F910F91FF90EF90EC
:1006F000DF90CF90BF90AF909F908F90089580E053
:1007000090E06FEF7FEF0E94B202089581E090E0E9
:100710006FEF7FEF0E94B2020895FB019A01909162
:100720000E01923059F0933019F09130C1F40FC09E
:1007300060E0811161E08BE795E005C060E0811128
:1007400061E087EE95E0AF010E949D3C089560E076
:10075000811161E086EF94E0AF010E949D3C089515
:100760009A01AB0190910E01923059F0933019F03B
:100770009130B1F40EC060E0811161E08BE795E04B
:1007800005C060E0811161E087EE95E00E94E93CE0
:10079000089560E0811161E086EF94E00E94E93CF9
:1007A00008959A01AB0190910E01923059F0933067
:1007B00019F09130B1F40EC060E0811161E08BE777
:1007C00095E005C060E0811161E087EE95E00E9450
:1007D0002D3D089560E0811161E086EF94E00E9474
:1007E0002D3D08959A01AB0190910E01923059F080
:1007F000933019F09130B1F40EC060E0811161E0E6
:100800008BE795E005C060E0811161E087EE95E03F
:100810000E940B3D089560E0811161E086EF94E055
:100820000E940B3D0895AB0190910E01923059F05A
:10083000933019F09130B1F40EC060E0811161E0A5
:100840008BE795E005C060E0811161E087EE95E0FF
:100850000E944F3D089560E0811161E086EF94E0D1
:100860000E944F3D0895AB0190910E01923059F0D6
:10087000933019F09130B1F40EC060E0811161E065
:100880008BE795E005C060E0811161E087EE95E0BF
:100890000E946B3D089560E0811161E086EF94E075
:1008A0000E946B3D0895462F90910E01923059F0B1
:1008B000933019F09130B1F40EC060E0811161E025
:1008C0008BE795E005C060E0811161E087EE95E07F
:1008D0000E94C93C089560E0811161E086EF94E0D8
:1008E0000E94C93C089590910E01923059F09330C6
:1008F00019F09130B1F40EC060E0811161E08BE736
:1009000095E005C060E0811161E087EE95E00E940E
:10091000E33C089560E0811161E086EF94E00E947D
:10092000E33C0895FA016A3009F48EC06B30D8F4C4
:10093000653009F453C0663048F46330E9F164303F
:1009400008F040C0623009F0CEC02FC0673009F413
:1009500060C0673008F44DC0683009F465C0693084
:1009600009F0C1C06AC0683609F48FC0693680F4E6
:10097000653609F47BC0663620F4643609F0B3C0EE
:1009800071C0663609F475C0673609F0ACC078C02E
:100990006A3609F48CC06A3608F480C06B3609F4F4
:1009A0008FC06C3609F09FC092C090E080818111A9
:1009B00091E09093C80104C082EB91E00E94AB38B3
:1009C00081E092C086EF94E0BA010E945939AB01F0
:1009D000BC0182EB91E00E94E737F2CF86EF94E012
:1009E000BA010E945139BC0182EB91E00E94E337C9
:1009F000E7CF86EF94E0BA010E945139A0E0B0E061
:100A00008093BF019093C001A093C101B093C20134
:100A1000D7CF86EF94E0BA010E945139BC0182EB36
:100A200091E00E94ED37CCCF60E08081811161E0E0
:100A300082EB91E00E94FF37C3CF90E0808181116B
:100A400091E09093C701BCCF86EF94E0BA010E9479
:100A500059396093C3017093C4018093C501909389
:100A6000C601AECF81E06091C80127C00E94DB378C
:100A700022C082EB91E00E94F937AB01BC012FC08C
:100A800082EB91E00E94F5370DC04091BF0150917B
:100A9000C0016091C1017091C20121C082EB91E05F
:100AA0000E94F137BC0181E00E943304089582EB7B
:100AB00091E00E940238682F81E00E94530408955B
:100AC0006091C70181E070E00E9413040895409195
:100AD000C3015091C4016091C5017091C60181E0CC
:100AE0000E94F203089580E00E94730408959C011F
:100AF000C397C197E0F489EC91E060E021E030E039
:100B000040E050E00E94163088ED92E060E021E085
:100B100030E040E050E00E94163087EE93E060E065
:100B200021E030E040E050E00E9416300895253684
:100B30003105D8F089EC91E061E021E030E040E05F
:100B400050E00E94163088ED92E061E021E030E054
:100B500040E050E00E94163087EE93E061E021E033
:100B600030E040E050E00E9416300895AF92BF920E
:100B7000CF92DF92EF92FF920F931F93CF93DF9369
:100B8000C0E0D0E0BFE0AB2EB1E0BB2ECA9D80013B
:100B9000CB9D100DDA9D100D112407531E4FC80177
:100BA0000E943A1F6B017C01C8010E944A1FAB01E1
:100BB000BC01C8010E94321FC801B701A6010E94F2
:100BC000421F2196C330D10509F7DF91CF911F91C4
:100BD0000F91FF90EF90DF90CF90BF90AF9008956E
:100BE00041E00E94C13E089544E00E94C13E089544
:100BF00042E00E94C13E08958093000110920101DD
:100C000080E090E060E071E00E94F8050895EF92C6
:100C1000FF920F931F93382F562F742FE22F7801D6
:100C200086EF94E0632F452F272F0E2F0E94783CEC
:100C30001F910F91FF90EF900895EF92FF920F9305
:100C40001F93382F562F742FE22F780186EF94E0F0
:100C5000632F452F272F0E2F0E94783C1F910F9155
:100C6000FF90EF9008958F929F92AF92BF92CF9294
:100C7000DF92EF92FF920F931F93B82EA62E942E21
:100C8000822E680187EE95E06B2D4A2D292D082DC7
:100C900076010E94783C8BE795E06B2D4A2D292D3B
:100CA0000E94783C1F910F91FF90EF90DF90CF90C2
:100CB000BF90AF909F908F9008958091C701882337
:100CC00031F080916506882331F01092650687E542
:100CD00095E066E006C081E08093650687E595E0D3
:100CE00064E00E94A1370895843021F487E595E0FF
:100CF00064E00EC0823079F48091A3019091A40148
:100D000001969093A4018093A30187E595E065E0A7
:100D10000E94A1370895863011F40E945D0608955F
:100D200087E595E060E00E94A13782EB91E00E94A8
:100D3000AB38089589EC91E00E94961D882361F4F8
:100D400088ED92E00E94961D882331F487EE93E0AF
:100D50000E94961D8823F9F0809191018823D9F48F
:100D600082E00E94470289EC91E00E94DC1DAC0108
:100D700060E070E083E796E00E94961983E796E0D2
:100D800063EC77E02FEF3FEF4FEF5FEF0E94AD197D
:100D900081E08093910108956F927F929F92AF922C
:100DA000BF92CF92DF92EF92FF920F931F93CF9358
:100DB000DF9386E595E00E94631C982E89EC91E014
:100DC0000E94421D882309F06CC088ED92E00E94C9
:100DD000421D882309F065C087EE93E00E94421D02
:100DE000882309F05EC087E595E0692D0E94A13750
:100DF00063C0C69CE001C79CD00DD69CD00D1124C9
:100E0000C753DE4FCE010E94421D8823D9F1CE0187
:100E10000E94941F892B31F10091A3011091A4012C
:100E2000CE010E94941F8017910728F0CE010E94E6
:100E3000671F823039F5CE010E94671F823091F41E
:100E4000E0909201F090930100919401109195012E
:100E5000CE010E94941FA0E0B0E08E159F05A00770
:100E6000B10780F4CE010E94F634F5018081882319
:100E700021F487E595E063E003C087E595E0692DFF
:100E80000E94A1370894C11CD11C8FE091E0A80EEC
:100E9000B91E93E0C916D10409F0ABCF0E949A069F
:100EA0000BC003EEA02E01E0B02ECC24DD241FE009
:100EB000612E11E0712E9DCFDF91CF911F910F9187
:100EC000FF90EF90DF90CF90BF90AF909F907F907A
:100ED0006F9008958F929F92AF92BF92CF92DF92C0
:100EE000EF92FF920F931F93DF93CF9300D000D028
:100EF000CDB7DEB7EE24FF249CE0C92ED12C8FE0C5
:100F0000882E81E0982E5E010894A11CB11CE89CFB
:100F10008001E99C100DF89C100D112407531E4F01
:100F2000C8010E949D2AC8010E945A1F69837A83C2
:100F30008B839C83C601B5010E94F4050894E11CD3
:100F4000F11C81E190E0C80ED91E93E0E916F1048E
:100F5000F1F61092910181E00E94470283E796E04A
:100F60000E949E190F900F900F900F90CF91DF91DC
:100F70001F910F91FF90EF90DF90CF90BF90AF90B7
:100F80009F908F900895AF92BF92CF92DF92EF9291
:100F9000FF920F931F93CF93DF934BECE42E41E02E
:100FA000F42E00E010E03FE0A32E31E0B32E21E06C
:100FB000C22ED12C0A9DE0010B9DD00D1A9DD00DA3
:100FC0001124C753DE4FCE010E94961D8823A9F03D
:100FD000CE010E94792ACE010E949F2C882369F0BD
:100FE0009601F701008002C0220F331F0A94E2F736
:100FF0008091A201822B8093A2010F5F1F4F8FE08F
:1010000091E0E80EF91E03301105A1F681B390912D
:10101000A201892B81BB81E090E00E940D4291B337
:101020008091A2018095892381BB1092A20189EC55
:1010300091E00E94961D882371F488ED92E00E9451
:10104000961D882341F487EE93E00E94961D882325
:1010500011F40E946A07DF91CF911F910F91FF90C9
:10106000EF90DF90CF90BF90AF90089589EC91E022
:101070000E94961D882361F488ED92E00E94961DDF
:10108000882331F487EE93E00E94961D882311F0A7
:101090000E946A0789EC91E00E94791E88ED92E037
:1010A0000E94791E87EE93E00E94791E0895CF93E7
:1010B000DF93EC0187E2C031D80791F083E1C838B3
:1010C000D80771F08FE0C03AD80751F087E0C03DF3
:1010D000D80731F083E0C83ED80711F080E010C097
:1010E00089EC91E0BE010E94B11D88ED92E0BE0145
:1010F0000E94B11D87EE93E0BE010E94B11D81E008
:10110000DF91CF9108950E9478188091470686500C
:10111000823048F460E080911801882309F461E08E
:1011200088E10E940F43809148068650823048F43F
:1011300060E080911801882309F461E089E10E9450
:101140000F4380915106863021F487E595E061E0F8
:1011500003C087E595E062E00E94A13708958CE026
:1011600060E00E940F4308958CE061E00E940F430D
:1011700008951F93CF93DF93182F863029F4C091E1
:101180001301D091140104C0C0911501D091160132
:1011900080914706181711F090E006C088E1609131
:1011A00018010E940F4391E080914806181731F40E
:1011B00089E1609118010E940F4302C0992369F0F0
:1011C000BE0180E090E043E858E00E941A180E94B7
:1011D000621887E595E060E009C0163021F487E5E4
:1011E00095E061E003C087E595E062E00E94A137E9
:1011F000DF91CF911F910895FF920F931F93F82EC7
:10120000062FE82FF0E0E95BF94F608381E0F816E4
:10121000D9F1FF2019F482E00E94843F18E10023F5
:1012200029F4812F60E00E948C4233C006500230C6
:10123000E8F0812F60E00E948C42812F61E00E94E3
:101240000F43FF2021F081E0F81619F506C0409108
:10125000170182E066E672E105C04091170183E064
:1012600062E672E150E00E94083F13C0812F61E006
:101270000E948C4260E080911801882309F461E0AB
:10128000812F0E940F4305C083E00E94843F19E133
:10129000C6CF1F910F91FF90089580E0609147069F
:1012A0000E94FC0881E0609148060E94FC0890E0E2
:1012B00080914706843009F491E08091480684309B
:1012C00009F491E090934A06089542E00E94663E38
:1012D000089544E00E94663E089541E00E94663E03
:1012E00008952F923F924F925F926F927F928F92CA
:1012F0009F92AF92BF92CF92DF92EF92FF920F93A5
:101300001F93DF93CF93CDB7DEB761970FB6F894F5
:10131000DEBF0FBECDBF80E090E060E071E00E94D4
:10132000650982E090E063E071E04AE00E94663E79
:101330001A821B821C821D821E821F8218861986B9
:101340001A861B861C861D861E861F86188A198A89
:101350001982CC24DD24FCE0EF2EF12CE6E02E2EC9
:10136000312C2C0E3D1E7AE0472E512C4C0E5D1E6A
:101370006EE0662E712C6C0E7D1E4E010894811C51
:10138000911C5FE0A52E51E0B52EC701BE016E5F36
:101390007F4F0E946909C7010496B1010E94690943
:1013A000C7010896B2010E946909C7010C96B301F2
:1013B0000E946909C7014096B4010E946D09CA9C48
:1013C0008001CB9C100DDA9C100D112407531E4F89
:1013D000C80169810E94892E4A815B816C817D816F
:1013E000C8010E94521F4E815F8168857985C801BE
:1013F0000E94221F4A855B856C857D85C8010E94FD
:10140000321F4E855F8568897989C8010E94421F15
:101410000894C11CD11C81E190E0E80EF91E93E014
:10142000C916D10409F0B1CF61960FB6F894DEBFAA
:101430000FBECDBFCF91DF911F910F91FF90EF9025
:10144000DF90CF90BF90AF909F908F907F906F90E4
:101450005F904F903F902F9008952F923F924F9220
:101460005F926F927F928F929F92AF92BF92CF9234
:10147000DF92EF92FF920F931F93DF93CF93CDB73D
:10148000DEB761970FB6F894DEBF0FBECDBF83E025
:1014900090E00E94F03E80E090E060E071E00E9409
:1014A000F80582E090E063E071E04AE00E94C13E0E
:1014B0001A821B821C821D821E821F821886198638
:1014C0001A861B861C861D861E861F86188A198A08
:1014D0001982CC24DD248CE0E82EF12C02E0202EB1
:1014E000312C2C0E3D1E16E0412E512C4C0E5D1E53
:1014F000BAE06B2E712C6C0E7D1EAEE08A2E912C04
:101500008C0E9D1E5E010894A11CB11C8FE091E021
:10151000C89E8001C99E100DD89E100D112407533E
:101520001E4FC8010E945A1F6A837B838C839D8350
:10153000C8010E942A1F6E837F8388879987C8010C
:101540000E943A1F6A877B878C879D87C8010E940B
:101550004A1F6E877F87888B998BC8010E941C1D4C
:101560008983C701B1010E94F405C7010496B20145
:101570000E94F405C7010896B3010E94F405C70153
:101580000C96B4010E94F405C7014096B5010E9473
:10159000F0050894C11CD11C81E190E0E80EF91E11
:1015A00093E0C916D10409F0B1CF61960FB6F89453
:1015B000DEBF0FBECDBFCF91DF911F910F91FF9086
:1015C000EF90DF90CF90BF90AF909F908F907F90E3
:1015D0006F905F904F903F902F9008950E94AC3E87
:1015E000882339F00E94923E039719F40E947109F2
:1015F00008950E942D0A0895809159068823A1F428
:1016000089E596E00E945146892B71F00E94804145
:1016100060936106709362068093630690936406FC
:1016200089E596E00E945B4680914706873051F03D
:1016300080914806873031F087E595E062E00E94AE
:10164000A137089580915106882371F487E0809333
:1016500051060E94804160936106709362068093F8
:1016600063069093640608950E948041209161066C
:10167000309162064091630650916406621B730BC1
:10168000840B950B209111013091120140E050E044
:10169000261737074807590728F41092510687E0A4
:1016A0000E94B9080895CF92DF92EF92FF920F93B4
:1016B0001F93CF93DF9386E595E00E949A1C00E08C
:1016C00010E0EE24FF249FE0C92E91E0D92EEC9C7F
:1016D000E001ED9CD00DFC9CD00D1124C753DE4FD2
:1016E000CE010E94421D8823A9F0CE010E94941FC2
:1016F000892B81F00115110531F0CE010E94941F54
:101700008017910718F0E114F10421F4CE010E9432
:10171000941F8C010894E11CF11C83E0E816F1048D
:10172000B1F6101611065CF58091A3019091A40109
:101730000817190730F089EC91E00E94671F82308A
:10174000C1F489EC91E00E94671F8230C1F49801D6
:10175000442737FD4095542F809192019091930139
:10176000A0919401B0919501281739074A075B07AA
:1017700030F087E595E061E00E94A13702C00E9449
:10178000CC06DF91CF911F910F91FF90EF90DF90EA
:10179000CF9008950F931F9307E515E0C80161E00E
:1017A0004AE652E10E94B837C80162E043E55BE0D7
:1017B0000E94B837C80163E044E955E10E94B83798
:1017C000C80164E040E956E00E94B837C80165E00E
:1017D00045EF5BE00E94B837C80166E04CEF5AE085
:1017E0000E94B8371F910F91089587E595E060E05A
:1017F0000E94A13782EB91E00E9428380895FF9261
:101800000F931F93CF93DF93F82E8B01C0E0D0E0AE
:1018100015C08F2D61E00E940F436AEF70E080E0F9
:1018200090E00E94B4418F2D60E00E940F436AEF68
:1018300070E080E090E00E94B4412196C017D1078B
:1018400044F3DF91CF911F910F91FF900895EF9294
:10185000FF920F931F93CF93DF930E948041609379
:10186000960170939701809398019093990181E07C
:1018700080939A0100E010E02FE0E22E21E0F22EAA
:101880000E9DE0010F9DD00D1E9DD00D1124C7535C
:10189000DE4FCE010E94421D882321F0CE0160E080
:1018A0000E949A1F0F5F1F4F0330110549F7809167
:1018B0009B01813031F48CE060E00E940F43109274
:1018C0009B0186E595E00E94631C882329F087E54B
:1018D00095E061E00E94A137DF91CF911F910F91B8
:1018E000FF90EF9008956F927F928F929F92AF92A8
:1018F000BF92CF92DF92EF92FF920F931F93CF93FD
:10190000DF93082FDA0170E0FB013297E337F1052E
:1019100008F0F5C4E45BFF4FEE0FFF1F0590F49154
:10192000E02D099490E001972FE031E0AC01429F57
:10193000C001439F900D529F900D112487539E4FDD
:101940006C910E94C92A11C090E001972FE031E00C
:10195000FC01E29FC001E39F900DF29F900D1124C6
:1019600087539E4F6C910E943D1D81E0C9C490E059
:1019700001972FE031E0AC01429FC001439F900DE1
:10198000529F900D112487539E4F0E949D2AEDCFA8
:1019900086EF94E0BA010E945139BC01802F90E09B
:1019A00001972FE031E0FC01E29FC001E39F900D21
:1019B000F29F900D112487539E4F0E94371DD5CF63
:1019C0006C916093900110E0015010408FE091E025
:1019D0009C01029FC001039F900D129F900D112446
:1019E0000F5F1F4F87539E4F0E94892EC80164E0EE
:1019F000880F991F6A95E1F7800F911F0B9660E998
:101A000071E00E94F005B1CF86EF94E0BA010E9428
:101A10005139BC01802F90E001972FE031E0AC01FB
:101A2000429FC001439F900D529F900D11248753F8
:101A30009E4F0E94EF1D99CF90E001972FE031E07B
:101A4000FC01E29FC001E39F900DF29F900D1124D5
:101A500087539E4F6C910E94D72A87CF90E00197C1
:101A60002FE031E0AC01429FC001439F900D529F97
:101A7000900D112487539E4F0E94D01EB8C210E0D3
:101A8000015010408FE091E0089F7001099FF00C19
:101A9000189FF00C11240F5F1F4F89EC91E0E80EA6
:101AA000F91EC7010E945A1FAB01BC0140938C0173
:101AB00050938D0160938E0170938F01C7010E9436
:101AC000221FC80154E0880F991F5A95E1F7800F33
:101AD000911F0197B6C090E001972FE031E0FC0123
:101AE000E29FC001E39F900DF29F900D1124875358
:101AF0009E4F0E94E13210C090E001972FE031E04C
:101B0000AC01429FC001439F900D529F900D112444
:101B100087539E4F0E94B5320E949A0626CF86EFC9
:101B200094E0BA010E94A539AB01BC01802F90E07E
:101B300001972FE031E0FC01E29FC001E39F900D8F
:101B4000F29F900D112487539E4F0E94061E0DCFC9
:101B500086EF94E0BA010E94A539AB01BC01802F49
:101B600090E001972FE031E0FC01E29FC001E39F8C
:101B7000900DF29F900D112487539E4F0E94601D7F
:101B8000F4CEFA01A19086EF94E0BF010E9459398A
:101B90006B017C01611571058105910591F4802F20
:101BA00090E001972FE031E0AC01429FC001439FDC
:101BB000900D529F900D112487539E4F61E00E941B
:101BC000561D802F90E001972FE031E0FC01E29F4D
:101BD000C001E39F900DF29F900D112487539E4FFB
:101BE0006A2DA70196010E94163096CF86EF94E0E9
:101BF000BA010E947539AB01BC0140938C0150932E
:101C00008D0160938E0170938F0110E001501040A0
:101C10008FE091E09C01029FC001039F900D129FF5
:101C2000900D11240F5F1F4F87539E4F0E94321F4C
:101C3000C80144E0880F991F4A95E1F7800F911F72
:101C400003966CE871E00E94F4058FCE86EF94E075
:101C5000BA010E947539AB01BC0140938C015093CD
:101C60008D0160938E0170938F0110E00150104040
:101C70008FE091E0FC010E9FC0010F9F900D1E9F11
:101C8000900D11240F5F1F4F87539E4FF4C14C914D
:101C9000413081F490E001972FE031E0AC01429FA8
:101CA000C001439F900D529F900D112487539E4F6A
:101CB00064E011C0423091F490E001972FE031E0F0
:101CC000FC01E29FC001E39F900DF29F900D112453
:101CD00087539E4F65E00E94401E47CE433081F4FB
:101CE00090E001972FE031E0AC01429FC001439F9B
:101CF000900D529F900D112487539E4F66E0EBCFBD
:101D000080E00E94730431CE86EF94E0BA010E9415
:101D10004939BC01802F90E001972FE031E0FC01B0
:101D2000E29FC001E39F900DF29F900D1124875315
:101D30009E4F0E948E1F19CE86EF94E0BA010E943A
:101D40005939AB01BC01802F90E001972FE031E0C1
:101D5000FC01E29FC001E39F900DF29F900D1124C2
:101D600087539E4F0E946A1F00CE86EF94E0BA010F
:101D70000E945939AB01BC01802F90E001972FE000
:101D800031E0FC01E29FC001E39F900DF29F900DB6
:101D9000112487539E4F0E94761FE7CD86EF94E073
:101DA000BA010E945939AB01BC01802F90E0019724
:101DB0002FE031E0FC01E29FC001E39F900DF29F14
:101DC000900D112487539E4F0E94821FCECD90E02C
:101DD00001972FE031E0AC01429FC001439F900D7D
:101DE000529F900D112487539E4F0E94D43294CE5F
:101DF00090E001972FE031E0FC01E29FC001E39FFA
:101E0000900DF29F900D112487539E4F0E94C73270
:101E100083CE90E001972FE031E0829FE001839F25
:101E2000D00D929FD00D1124C753DE4F8B8D882388
:101E300009F466C20E9480412091C3013091C4011F
:101E40004091C5015091C601621B730B840B950B29
:101E500060934D0670934E0680934F069093500604
:101E600081E08C830E94270C80CD90E001972FE0C9
:101E700031E0829FE001839FD00D929FD00D11240D
:101E8000C753DE4F8B8D882309F43AC2CE010E94DE
:101E9000941F892B09F437C20091A3011091A4016A
:101EA000CE010E94941F0817190708F02CC20AC01F
:101EB00001979093A4018093A301CE010E940F3457
:101EC0000E949A066090C3017090C4018090C50181
:101ED0009090C60182EB91E00E94F9375B016C01A2
:101EE00082EB91E00E94F5377C0182EB91E00E9449
:101EF000F13700E010E0A0E0B0E0E80EF91E0A1FA4
:101F00001B1FEA0CFB1C0C1D1D1DE614F704080525
:101F1000190548F42091C3013091C4014091C501D5
:101F20005091C6011CC082EB91E00E94F9376B0111
:101F30007C0182EB91E00E94F5378C0182EB91E00D
:101F40000E94F137980140E050E0A0E0B0E0280F97
:101F5000391F4A1F5B1F2C0D3D1D4E1D5F1D8091BB
:101F6000920190919301A0919401B09195018217F3
:101F70009307A407B50768F0821B930BA40BB50B5E
:101F80008093920190939301A0939401B093950153
:101F9000ECCC109292011092930110929401109245
:101FA0009501E3CC90E001972FE031E0829F800122
:101FB000839F100D929F100D112407531E4FC801CF
:101FC0000E94D01EC80140E050E060E070E00E9436
:101FD000221FC80140E050E060E070E00E94321F24
:101FE000C80140E050E060E070E00E94421F0E94A3
:101FF0002D0ABBCC10E0015010408FE091E0089F0B
:102000007001099FF00C189FF00C11240F5F1F4FF7
:1020100029EC31E0E20EF31EC7010E945A1FAB010A
:10202000BC0140938C0150938D0160938E0170939D
:102030008F01C701FBCD10E0015010408FE091E00F
:10204000089F7001099FF00C189FF00C11240F5F7E
:102050001F4F49EC51E0E40EF51EC7010E945A1FC4
:10206000AB01BC0140938C0150938D0160938E01B4
:1020700070938F01C7010E94421FC80134E0880F8E
:10208000991F3A95E1F7800F911F0796DACD90E0FE
:1020900001972FE031E0FC01E29FC001E39F900D2A
:1020A000F29F900D112487539E4F0E94421DAEC097
:1020B00090E001972FE031E0AC01429FC001439FC7
:1020C000900D529F900D112487539E4F0E94311DF9
:1020D000EAC090E001972FE031E0FC01E29FC001EF
:1020E000E39F900DF29F900D112487539E4F0E9405
:1020F0001C1D8CC090E001972FE031E0AC01429FA5
:10210000C001439F900D529F900D112487539E4F05
:102110000E94211D7BC090E001972FE031E0FC017F
:10212000E29FC001E39F900DF29F900D1124875311
:102130009E4F0E94AB1DB7C090E001972FE031E0A9
:10214000AC01429FC001439F900D529F900D1124FE
:1021500087539E4F0E942A1F7FC090E001972FE077
:1021600031E0FC01E29FC001E39F900DF29F900DD2
:10217000112487539E4F0E945A1F6EC090E0019712
:102180002FE031E0AC01429FC001439F900D529F70
:10219000900D112487539E4F0E94961D37C090E0EA
:1021A00001972FE031E0FC01E29FC001E39F900D19
:1021B000F29F900D112487539E4F0E944C1D10C01A
:1021C00090E001972FE031E0AC01429FC001439FB6
:1021D000900D529F900D112487539E4F0E94881D91
:1021E000AB01BC0181E00E94B00395C090E0019773
:1021F0002FE031E0FC01E29FC001E39F900DF29FD0
:10220000900D112487539E4F0E94741E682F81E009
:102210000E94530480C090E001972FE031E0AC01B0
:10222000429FC001439F900D529F900D11248753F0
:102230009E4F0E943A1F10C090E001972FE031E0BE
:10224000FC01E29FC001E39F900DF29F900D1124CD
:1022500087539E4F0E944A1FAB01BC0181E00E9440
:10226000D10359C090E001972FE031E0AC01429FCB
:10227000C001439F900D529F900D112487539E4F94
:102280000E94701F36C090E001972FE031E0FC0102
:10229000E29FC001E39F900DF29F900D11248753A0
:1022A0009E4F0E94941FBC0181E00E94330433C002
:1022B00090E001972FE031E0AC01429FC001439FC5
:1022C000900D529F900D112487539E4F0E947C1FAA
:1022D00010C090E001972FE031E0FC01E29FC001C7
:1022E000E39F900DF29F900D112487539E4F0E9403
:1022F000881FAB01BC0181E00E94F2030CC080E0AA
:102300000E94730408C08091A3019091A4010097DA
:1023100009F0CECDD2CDDF91CF911F910F91FF90DB
:10232000EF90DF90CF90BF90AF909F908F907F9075
:102330006F9008951F93182F0E946A071130C1F4FF
:1023400010929201109293011092940110929501B3
:102350001092A4011092A30189EC91E00E94A01FA9
:1023600088ED92E00E94A01F87EE93E00E94A01FDC
:1023700010929A010E9436080E94B3381F91089566
:102380001F93182F0E9480412091520630915306CE
:102390004091540650915506621B730B840B950BAC
:1023A0006E5E72408040904008F48AC00E94804176
:1023B000609352067093530680935406909355068B
:1023C000E12FF0E0E95BF94F80818130B1F0883096
:1023D00041F480919A01813009F072C00E946A072D
:1023E0006FC0823031F0833059F480919A01882394
:1023F00021F081E00E949A1163C00E94270C60C006
:10240000843021F481E0809349065AC0853029F553
:1024100089EC91E00E94211D60E0882309F461E0CD
:1024200089EC91E00E94D72A88ED92E00E94211D5C
:1024300060E0882309F461E088ED92E00E94D72AE9
:1024400087EE93E00E94211D60E0882309F461E09B
:1024500087EE93E00E94D72A33C0893079F40E9436
:102460006A0789EC91E00E94D01E88ED92E00E94FC
:10247000D01E87EE93E00E94D01E22C08A3001F564
:102480000E946A0789EC91E00E945A1FAB01BC01CF
:1024900089EC91E00E949B1D88ED92E00E945A1FFA
:1024A000AB01BC0188ED92E00E949B1D87EE93E09A
:1024B0000E945A1FAB01BC0187EE93E00E949B1D56
:1024C0001F91089581E00E94C011089580E00E944C
:1024D000C01108952091BF013091C0014091C10108
:1024E0005091C201211531054105510559F08091E6
:1024F000A3019091A401A0E0B0E082179307A40784
:10250000B507D0F48091C801882309F08BC089EC0D
:1025100091E00E949D1F882309F484C088ED92E019
:102520000E949D1F882309F47DC087EE93E00E94DE
:102530009D1F882309F476C081E00E949A11809142
:10254000A501882309F47BC00E94B6050E94270CD0
:10255000089580914906882309F471C08091470647
:10256000863029F080914806863009F061C081E00C
:102570000E944F02882309F45BC086E080935106D5
:102580000E94B90808950E94804120914D06309123
:102590004E0640914F0650915006621B730B840B00
:1025A000950B2091C3013091C4014091C501509118
:1025B000C601621773078407950720F48091C8014C
:1025C0008823E9F58091C801882381F487E595E0A7
:1025D00062E00E94A1370E94804160934D06709393
:1025E0004E0680934F069093500608950E94DB3765
:1025F000882329F587E595E060E00E94A1371092D5
:102600005106109249060E94804160934D067093D6
:102610004E0680934F069093500682EB91E00E9405
:102620006038089580914A06882309F092CF96CFAA
:1026300086E595E00E94631C882321F2A4CF0895CB
:102640000E94B3380E946A0710929A0108950F936E
:102650001F93CF93DF93EB0190E0FC013297E737B4
:10266000F10508F0CBC1E154FF4FEE0FFF1F0590BD
:10267000F491E02D09940E94270C02C00E942013BF
:1026800081E0BDC181E00E949A11FACF8091580685
:10269000882331F40E94AF0881E080935806F0CF80
:1026A0000E94B40810925806EBCF60E08881811137
:1026B00061E086E595E00E94111DE2CF8AE0E3E04B
:1026C000F1E0DF011D928A95E9F780E090E0FE01DC
:1026D000E80FF91F2081222321F0FC01ED5FFE4F5E
:1026E000208301968B30910591F782E090E063E0C2
:1026F00071E04AE00E94C13EC3CF6881623008F4B5
:102700007DC1609300011092010186EF94E070E0BA
:102710000E942C39609100017091010187EE95E0D3
:102720000E942C3980E090E060E071E00E94F805A2
:10273000A7CF8881833020F080E00E947304A0CF6F
:10274000882319F40E94AD1C9BCF0E94D91C98CFFE
:1027500089EC91E00E94E13288ED92E00E94E13242
:1027600087EE93E00E94E1320E949A0689CF86EFBD
:1027700094E00E9451390E94570882CF88810E94BC
:10278000360208C080E068810E94FC0881E069810F
:102790000E94FC080E944D0973CF888180939C01A0
:1027A0006FCF86EF94E00E9451399093100180938F
:1027B0000F01F0CF86EF94E00E94513990931201FF
:1027C00080931101E7CF86EF94E00E9451399093F6
:1027D000140180931301DECF86EF94E00E945139FB
:1027E0009093160180931501D5CF6881613019F45B
:1027F0006093180145CF662309F000C110921801BB
:102800003FCF86EF94E00E9459396093A601709300
:10281000A7018093A8019093A90132CF86EF94E09D
:102820000E94593928EE33E040E050E00E948C5479
:102830006093AA017093AB018093AC019093AD01BA
:102840001FCF89EC91E068810E94641F88ED92E0BF
:1028500068810E94641F87EE93E068810E94641F74
:102860000FCF88818093A1010BCF88818093A50130
:1028700007CF81E066E0BFC081E060919A01BBC0F4
:102880004091920150919301609194017091950152
:1028900081E0A1C00E94DB37A8C081E06091020105
:1028A000AAC081E063E071E04AE050E00E948D033D
:1028B000A8C089EC91E00E94E11DBC0173C08AE2CE
:1028C0000E945D42AA2797FDA095BA2FBC01CD01B9
:1028D0000E94755320E030EC4FE754E40E94DF5231
:1028E00020E030E048EC51E415C089E20E945D42EE
:1028F000AA2797FDA095BA2FBC01CD010E94755360
:1029000020E030EC4FE754E40E94DF5220E030E05A
:1029100040EA50E40E942954AB01BC0181E00E94CE
:10292000B0036FC081E06091170165C090914706C8
:1029300080E06091480670E0682B792B70934C061C
:1029400060934B0681E018C010924C0610924B0623
:1029500088E10E944243182F00E010934C06009338
:102960004B0689E10E944243082B192B10934C0619
:1029700000934B0681E0B8010E94130442C06091AD
:102980000F01709110010EC0609111017091120140
:1029900009C0609113017091140104C06091150188
:1029A0007091160181E00E9433042BC081E0609198
:1029B000180121C06091AA017091AB018091AC0116
:1029C0009091AD0128EE33E040E050E00E94BF540A
:1029D00081E0BA01A9010E94F20313C089EC91E0E1
:1029E0000E94671F02C00E943102682F81E003C06D
:1029F00081E06091A1010E94530403C080E00E9425
:102A00007304DF91CF911F910F9108950F931F933E
:102A1000CF93DF93082F162FEA010E948041609325
:102A20009D0170939E0180939F019093A0010430BB
:102A300028F48091A101013078F403C0043021F51D
:102A40001DC0813021F4173111F01837E9F4812FBE
:102A5000BE010E9427131BC0813051F4133041F096
:102A6000143031F0163021F01D3011F01F3061F4B8
:102A7000802F612FAE010E94730C09C084E0612F8A
:102A8000AE010E94920403C080E00E947304DF91B3
:102A9000CF911F910F91089593E090930E010E94A2
:102AA0000615089592E090930E010E940615089570
:102AB00091E090930E010E9406150895FA0162308C
:102AC00069F0633018F4613071F505C0633051F07E
:102AD000643049F50AC00E94270C089581E00E94E5
:102AE0009A1108950E942013089540814230D8F031
:102AF00040930001109201010E942D0A6091000193
:102B00007091010186EF94E00E942C3960910001E0
:102B10007091010187EE95E00E942C398CE065E010
:102B200070E00E94FF0B0895EF92FF920F931F93A6
:102B3000CF93DF9303EE11E0C0E0D0E07FE0E72E1B
:102B400071E0F72EF8018081882371F5CE9DC001D8
:102B5000CF9D900DDE9D900D112487539E4F0E94B6
:102B6000961D813009F527C086E595E00E94631C1B
:102B70008823A1F087E595E061E00E94A13780916C
:102B8000CD01813041F08091DC02813021F08091D3
:102B9000EB03813081F40E9420130DC087E595E09E
:102BA00060E00E94A13707C02196015F1E4FC3302D
:102BB000D10541F6D9CFDF91CF911F910F91FF90B1
:102BC000EF90089580919A01882319F00E942013B4
:102BD00008950E946A070895EF92FF920F931F9342
:102BE000CF93DF938AEF97E00E942247892B31F041
:102BF00081E090E090937A058093790586EF94E0E8
:102C00000E94C23D87EE95E00E94C23D8BE795E0B1
:102C10000E94C23D0E9480412091AE013091AF01DF
:102C20004091B0015091B101621B730B840B950B65
:102C3000655F71408040904050F00E9480416093F9
:102C4000AE017093AF018093B0019093B10189EC14
:102C500091E00E94961D882361F488ED92E00E9425
:102C6000961D882331F487EE93E00E94961D8823F9
:102C7000C9F080919C018823A9F00E948041209195
:102C80009D0130919E0140919F015091A001621BD6
:102C9000730B840B950B695E73408040904010F07D
:102CA0000E946A0700E010E0EFE0EE2EE1E0FE2E69
:102CB0000E9DE0010F9DD00D1E9DD00D1124C75318
:102CC000DE4FCE010E94961D882319F0CE010E948E
:102CD0003C2C0F5F1F4F0330110551F780919A0173
:102CE000882309F47BC00E94804120919201309199
:102CF00093014091940150919501E0909601F090DC
:102D0000970100919801109199012E193F09400BEC
:102D1000510B260F371F481F591F209392013093E4
:102D200093014093940150939501609396017093A1
:102D30009701809398019093990180919B01813034
:102D400011F40E949A1186E595E00E94631C882385
:102D5000E9F02091A6013091A7014091A80150917E
:102D6000A901211531054105510581F0809192019C
:102D700090919301A0919401B09195012817390782
:102D80004A075B0718F481E00E949A1186E595E0F6
:102D90000E94631C882349F40E94661C882329F042
:102DA00087E595E061E00E94A13720919201309182
:102DB000930140919401509195018091AA019091C5
:102DC000AB01A091AC01B091AD01281739074A07BA
:102DD0005B0720F087E595E00E94A437DF91CF9153
:102DE0001F910F91FF90EF900895EF92FF920F9334
:102DF0001F93CF93DF938AEF97E040E05BE460E0BE
:102E000070E00E94294764E670E080E090E00E9454
:102E1000B44163E876E080E090E00E94001C0E94EC
:102E200080416093AE017093AF018093B0019093A5
:102E3000B1018CE061E00E948C4280E061E00E9480
:102E40008C4280E061E00E940F438AE260E00E94D1
:102E50008C4289E260E00E948C420E94CA0B87E5A6
:102E600095E060E00E94A13786E595E061E00E9470
:102E7000111D87E795E00E945E1C82EB91E048E718
:102E800050E060E070E00E94E73782EB91E060E0A4
:102E900070E00E94ED3782EB91E060E070E00E940C
:102EA000E33782EB91E064E776E00E94DE3788ED5D
:102EB00097E040E051EE60E070E00E94E8436091EE
:102EC00000017091010186EF94E00E942C3986EF99
:102ED00094E068E575E10E94603C86EF94E063E36E
:102EE00076E00E946C3C86EF94E06EE575E10E940E
:102EF000663C86EF94E060E00E9427396091000113
:102F00007091010187EE95E00E942C3987EE95E0E3
:102F100062E575E10E94603C87EE95E06DE176E048
:102F20000E946C3C87EE95E06EE575E10E94663C80
:102F300087EE95E061E00E94273960910001709171
:102F400001018BE795E00E942C398BE795E06CE45A
:102F500075E10E94603C8BE795E067E076E00E94B7
:102F60006C3C8BE795E06EE575E10E94663C8BE773
:102F700095E061E00E94273986EF94E06CEF75E000
:102F80000E943B3987EE95E06CEF75E00E943B397B
:102F90008BE795E06CEF75E00E943B39C0E0D0E034
:102FA000FFE0EF2EF1E0FF2ECE9D8001CF9D100DB2
:102FB000DE9D100D112407531E4FC80160E00E94D2
:102FC0003D1DC80168E873E10E94B11DC80140E0E1
:102FD00050E06AE774E40E94061EC80140E050E633
:102FE0006AE676E40E94601DC80161E00E94C92A79
:102FF000C80160E670E00E94371DC80164E00E94CD
:10300000892E2196C330D10579F60E94EE0A8CE014
:1030100065E070E00E94FF0B81E062EE75E142E046
:1030200050E00E94083FDF91CF911F910F91FF90D8
:10303000EF900895611571058105910569F481E0AE
:1030400090E0A0E0B0E08093660690936706A093BE
:103050006806B093690608C06093660670936706B9
:10306000809368069093690650936B0640936A06B6
:10307000809170008E7F809370008091B0008C7F73
:103080008093B0008091B100877F8093B1008091E0
:10309000B6008F7D8093B600809170008D7F809305
:1030A00070008091B10084608093B1008091B10084
:1030B0008C7F8093B10086E090E0909372068093BD
:1030C0007106089510926C0610926D0610926E06AD
:1030D00010926F06109270068091710690917206A0
:1030E0008093B200E0E7F0E0808181608083089502
:1030F000E0E7F0E080818E7F8083089580916C0608
:1031000090916D06A0916E06B0916F060196A11D7B
:10311000B11D80936C0690936D06A0936E06B093DC
:103120006F0680916C0690916D06A0916E06B0912D
:103130006F062091660630916706409168065091AF
:10314000690682179307A407B50710F180917006EE
:103150008823F1F481E08093700680916C06909151
:103160006D06A0916E06B0916F06821B930BA40BA7
:10317000B50B80936C0690936D06A0936E06B0938A
:103180006F06E0916A06F0916B0609951092700641
:1031900008951F920F920FB60F920BB60F92112443
:1031A0002F933F934F935F936F937F938F939F934F
:1031B000AF93BF93EF93FF93809171069091720646
:1031C0008093B2000E947E18FF91EF91BF91AF9162
:1031D0009F918F917F916F915F914F913F912F912F
:1031E0000F900BBE0F900FBE0F901F9018951F925F
:1031F0000F920FB60F920BB60F9211242F933F939D
:103200004F935F936F937F938F939F93AF93BF93EE
:10321000EF93FF93E0917706F09178060995FF917F
:10322000EF91BF91AF919F918F917F916F915F913E
:103230004F913F912F910F900BBE0F900FBE0F90AB
:103240001F901895FC01A3E0440F551F661F771FC0
:10325000AA95D1F7403080E0580781E0680780E008
:10326000780714F481E010C033E0759567955795A1
:1032700047953A95D1F7403080E0580781E06807DC
:1032800080E078071CF482E0828339C023E07595E2
:103290006795579547952A95D1F7403080E05807B4
:1032A00081E0680780E0780714F483E0EDCF92E0D6
:1032B00075956795579547959A95D1F7403080E079
:1032C000580781E0680780E0780714F484E0DCCFD9
:1032D00082E075956795579547958A95D1F7403067
:1032E00080E0580781E0680780E0780714F485E003
:1032F000CBCF85E082834FEF5FEF60E070E08FB768
:103300008383F894518340835093870040938600D1
:1033100083818FBF80918100887F8093810080911D
:1033200081009281892B8093810008951092800002
:1033300020E1209381000E9422190895EFE6F0E039
:1033400080818E7F80830895E1E8F0E02081DC01B8
:1033500012968C91282B208308950F931F93CF935F
:10336000DF93EC018B01121613061406150624F4E4
:10337000BA01A9010E9422191D830C8381E0809368
:103380006F00CE010E94A419DF91CF911F910F9180
:103390000895F999FECF72BD61BDF89A80B5089580
:1033A000F999FECF1FBA72BD61BD40BD0FB6F8944A
:1033B000FA9AF99A0FBE0895282F9091D8069F5F28
:1033C000943408F090E08091D9068917E1F33FB773
:1033D000F8948091D506882341F0E92FF0E0E65279
:1033E000F94F20839093D8061DC081E08093D506C5
:1033F0002093D6061092D70682E088BB8091710098
:10340000826080937100809190008F7380688093B8
:10341000900080919400909195004096909399002F
:10342000809398003FBF0895862F0E94DC1981E0A9
:1034300090E008951F920F920FB60F920BB60F9265
:1034400011242F933F934F935F936F937F938F93A9
:103450009F93EF93FF934091D5065091D60620910C
:103460009800309199006091D1067091D2068091B8
:10347000D7061FC0260F371F952F917056954F5FA7
:103480009817B9F0992321F080919000806C04C0C6
:10349000809190008F7380688093900030939900A2
:1034A000209398009093D7065093D6064093D50664
:1034B0003BC04930F8F2493039F48AE08093D506B0
:1034C00080919000806C28C08091D806E091D90648
:1034D0008E1769F41092D506809190008F738093B7
:1034E0009000809171008D7F809371001DC081E0FC
:1034F0008093D506EF5FE43408F0E0E0E093D9066E
:10350000F0E0E652F94F80818093D6061092D706FC
:10351000809190008F73806880939000260F371FF2
:103520003093990020939800FF91EF919F918F9194
:103530007F916F915F914F913F912F910F900BBEB3
:103540000F900FBE0F901F9018958091D50688237D
:10355000E1F708950E94A51A08951F920F920FB6E1
:103560000F920BB60F9211241F932F933F934F93FB
:103570005F936F937F938F939F93AF93BF93EF93DB
:10358000FF9320919600309197009091CD0699235A
:1035900041F0809191008F7B809391001092CD0635
:1035A00008C08091910080648093910080E88093AE
:1035B000CD067091CC06772331F5992309F06CC0C4
:1035C0008091CF069091D006820F931F90939B001D
:1035D00080939A0084E088BB80917100846080931E
:1035E00071008091D1069091D206280F391F9695CF
:1035F0008795280F391F3093D4062093D30681E096
:103600008093CC0649C04091D3065091D4061091C6
:10361000CD06E091D106F091D2066091CE06AA27A0
:10362000BB27AE1BBF0BC901841B950B97FD2CC09C
:103630006695612B7F5F8A0F9B1F793018F44E0FC0
:103640005F1FF4CF6093CE06809171008B7F8093D3
:10365000710090917B069F5F903508F090E080911B
:103660007A06981739F0E92FF0E0E458F94F6083B3
:1036700090937B06809191008F7B809391001092B4
:10368000CD061092CC0608C06093CE065093D406A7
:103690004093D3067093CC06FF91EF91BF91AF9109
:1036A0009F918F917F916F915F914F913F912F915A
:1036B0001F910F900BBE0F900FBE0F901F9018958B
:1036C0001F920F920FB60F920BB60F9211242F93E9
:1036D0008F939F93EF93FF93809171008B7F8093E3
:1036E0007100809191008F7B809391009091CC0626
:1036F0008091CD0680582091CE0603C02695282BB8
:103700009F5F9930D8F32093CE0690917B069F5F00
:10371000903508F090E080917A06981739F0E92FFB
:10372000F0E0E458F94F208390937B061092CC068A
:10373000809191008F7B809391001092CD06FF9134
:10374000EF919F918F912F910F900BBE0F900FBE15
:103750000F901F90189580917B06E0917A068E1746
:1037600019F42FEF3FEF0EC02E2F2F5F203508F0FA
:1037700020E0E22FF0E0E458F94F808120937A06B0
:10378000282F30E0C901089580917B06E0917A06E8
:103790008E1719F4EFEFFFEF06C0F0E0E458F94F91
:1037A0008081E82FF0E0CF01089590917B06809111
:1037B0007A06292F30E0482F50E0981710F4205B4C
:1037C0003F4F241B350BC901089580917A068093E1
:1037D0007B0608950F931F9301E710E0F8018081A5
:1037E0008B7F808380818F7D80830E94E51B0E9478
:1037F000A51AF80180818D7F80831F910F91089514
:103800009B01AC012D3A8BE1380780E0480780E04E
:10381000580730F4109271001092900081E814C0A3
:1038200063E056954795379527956A95D1F72D3AD8
:103830008BE1380780E0480780E05807D0F5109208
:1038400071001092900082E8809391003093D2062C
:103850002093D106CA01B90125E230E040E050E0F2
:103860000E948C5452E096958795779567955A9566
:10387000D1F77093D0066093CF0687E162E00E9493
:103880008C4286E161E00E940F4386E161E00E9484
:103890008C421092CC0610927B0610927A061092FF
:1038A000D5061092D8061092D90680E288BB809384
:1038B0007100089581E080932A07089590932C0762
:1038C00080932B070895FC018081089580912A0739
:1038D00010922A07811181E0089580912D07882395
:1038E00019F089B1847002C089B18870882359F4B5
:1038F0000E948E4160932E0770932F0780933007AC
:103900009093310708950E948E4120912E073091A7
:103910002F074091300750913107E0912B07F0912C
:103920002C07309731F0621B730B840B950BCB0186
:1039300009950895FC018081882371F083E160E09E
:103940000E940F4365E070E080E090E00E94B44187
:1039500083E161E00E940F43089580912D070E944A
:10396000843F089580E00E94843F83E161E00E94EB
:103970008C4283E161E00E940F430895FC011082B4
:1039800082E060E00E948C4283E060E00E948C4212
:1039900083E160E00E948C4282E061E00E940F437C
:1039A00083E061E00E940F4383E161E00E940F43E6
:1039B00008950F931F93082F01500230F8F480915F
:1039C0002D070E94843F10922D07002319F081E0FB
:1039D00080932D07002311F013E001C012E0812F26
:1039E00060E00E948C42812F61E00E940F43802F93
:1039F0006DE67CE141E050E00E94083F1F910F918D
:103A0000089583E160E00E948C4283E161E00E94BE
:103A10000F4380E06AE57CE142E050E00E94083F0D
:103A20000895FC016083662319F00E94B21C08957A
:103A30000E94011D08950895FC01EC5FFE4F8081F6
:103A40000895FC01E657FF4F80810895FC01E85F6F
:103A5000FE4F0190F081E02D309711F0862F0995EF
:103A60000895FC01EB5FFE4F808191810895FC0178
:103A7000EB5FFE4F718360830895FC01EA57FF4FAF
:103A800060830895FC01EA57FF4F80810895FC018F
:103A9000E957FF4F80810895FC01EA51FF4F2081D3
:103AA000318142815381B901CA010895FC01E35774
:103AB000FF4F60830895FC01E357FF4F8081089515
:103AC000EF92FF920F931F93CF93DF93EC017A0154
:103AD0008B01CB01BA0120E030E040E050E00E94D1
:103AE000DB52181674F4C251DF4FC801B70120E051
:103AF00030E048EC52E40E94DF52688379838A8385
:103B00009B83DF91CF911F910F91FF90EF900895CC
:103B1000FC01E251FF4F608171818281938120E03D
:103B200030E048EC52E40E9429540895FC01E85723
:103B3000FF4F80810895FC01E555FF4F408351837D
:103B4000628373830895FC01E555FF4F60817181A5
:103B5000828193810895FC01ED57FF4F808191810F
:103B6000089587E26031780781F083E1683878074B
:103B700061F08FE0603A780741F087E0603D7807B8
:103B800021F083E0683E7807B1F49B0140E050E00B
:103B900060E472E48FE090E00E94BF5430931B0118
:103BA00020931A0180E197E2B9010E94AB5470930F
:103BB0001D0160931C01089580911A0190911B01D1
:103BC000089520911A0130911B0140E050E060E41B
:103BD00072E48FE090E00E94E154C90108950F93D0
:103BE0001F93CF93DF93EC018B010E94E11D80179F
:103BF000910738F00115110521F0CD57DF4F1983DA
:103C00000883DF91CF911F910F910895EF92FF925A
:103C10000F931F93CF93DF93EC017A018B010E94E6
:103C2000E11DA0E0B0E0BC01CD010E9473539B01F7
:103C3000AC01C801B7010E942554181684F0C801D0
:103C4000B70120E030E040E050E00E94DB5287FD09
:103C500006C0C651DF4FE882F9820A831B83DF91D9
:103C6000CF911F910F91FF90EF900895FC01E955BE
:103C7000FF4F2081318142815381B901CA010895EA
:103C80001F93CF93DF93EC01162F0E94961D88237C
:103C900039F5143049F4C65FDE4F85EA9FE1998318
:103CA0008883CA50D14019C0153049F4C65FDE4F31
:103CB00089ED92E28993999382E495E20AC01630E5
:103CC00079F4C65FDE4F89ED92E2899399938CE097
:103CD00096E299838883CC50D140C95FDE4F188328
:103CE000DF91CF911F910895FC01E95FFE4F808124
:103CF0000895FC01E955FF4F108211821282138250
:103D0000B89610821182128213823C9680E090E075
:103D1000A0E0B0E080839183A283B38338971192AF
:103D200011921192119210821182128213820895BF
:103D3000CF93DF93EC01FC01E955FF4F20813181E6
:103D400042815381CB01AA2797FDA095BA2F820FFC
:103D5000931FA41FB51F80839183A283B383C6578B
:103D6000DF4F8881CA58D040882319F47095619537
:103D70007F4FFE01EE50FF4F208131814281538100
:103D8000CB01AA2797FDA095BA2F820F931FA41FDE
:103D9000B51F80839183A283B383DF91CF91089570
:103DA000CF93DF93EC01FC01EA50FF4F208131817A
:103DB00042815381211531054105510581F0CE50D5
:103DC000DF4F88819981AA81BB81C25FD040281BC7
:103DD000390B4A0B5B0B2083318342835383BE0133
:103DE0006E507F4FFB012081318142815381FE0162
:103DF000E650FF4F80819181A281B381821B930B9A
:103E0000A40BB50B80839183A283B383FB01208134
:103E1000318142815381FE01E250FF4F80819181C7
:103E2000A281B381821B930BA40BB50B808391837A
:103E3000A283B383FB011082118212821382DF916D
:103E4000CF910895FC01EA50FF4F40835183628374
:103E500073830895FC01EA50FF4F60817181828174
:103E600093810895FC01E650FF4F408351836283A4
:103E700073830895FC01E650FF4F60817181828158
:103E800093810895FC01E250FF4F40835183628388
:103E900073830895FC01E250FF4F6081718182813C
:103EA00093810895FC01EE50FF4F4083518362835C
:103EB00073830895FC01EE50FF4F208131814281D0
:103EC0005381B901CA010895FC01628F0895FC0174
:103ED000828D0895FC0146875787608B718B08950A
:103EE000FC0166857785808991890895FC01428B64
:103EF000538B648B758B0895FC0162897389848967
:103F000095890895FC01468B578B608F718F0895BA
:103F1000FC0166897789808D918D0895FC01EE5FA3
:103F2000FE4F718360830895FC01EE5FFE4F808138
:103F300091810895FC0162A70895FC0182A508956E
:103F4000FC01E257FF4F108208952F923F924F924B
:103F50005F926F927F928F929F92AF92BF92CF9219
:103F6000DF92EF92FF920F931F93DF93CF93CDB722
:103F7000DEB768970FB6F894DEBF0FBECDBF182F1F
:103F80003A014B01388F2F8B813019F4295A3F4F5A
:103F900004C02F89388D255D3F4F3A872987A98531
:103FA000BA852D903D904D905C90C401B301A20163
:103FB00091010E94DB5218166CF0C401B301A201FA
:103FC00091010E94DF52E985FA8524853585468571
:103FD00057853DC0C401B301A985BA8550962D917E
:103FE0003D914D915C9153970E94DB5288233CF4A4
:103FF000E985FA85A484B584C684D7842CC0C4011D
:10400000B301A20191010E947652A985BA85189642
:104010002D913D914D915C911B970E947652E985BF
:10402000FA8524813581468157810E94DF529B01A8
:10403000AC0160E070E080E89FE30E947652A985C1
:10404000BA851C962D913D914D915C911F970E94D0
:1040500029545B016C011123E9F560911C017091F9
:104060001D0180E090E00E947353A60195010E941B
:10407000DF527B018C010E944753EF89F88DE15597
:10408000FF4FDF016D937D938D939D93B88FAF8B21
:104090000E9473539B01AC01C801B7010E94765284
:1040A0000F89188DF801608371838283938320E0E8
:1040B00030E040E85FE30E94255488230CF460C29E
:1040C00080E090E0A0E0B0E0F80180839183A283DB
:1040D000B38356C2C401B301A20191010E94DB5215
:1040E00018160CF4B5C0A985BA8558968D919D9186
:1040F0000D90BC91A02D8B8B9C8BAD8BBE8BEF89D3
:10410000F88DE952FF4FA080B180C280D3803897EC
:1041100080819181A281B381EF5CF040F88FEF8BB9
:10412000E985FA85E0A0F1A002A113A18E159F05F3
:10413000A007B107A8F4C401B301A20191010E9434
:10414000DB52882369F0C601B5010E9473539B01BD
:10415000AC016B897C898D899E890E94295404C099
:10416000C801B7010E9473535B016C010E94475361
:10417000EFEC6E2E712C2F89388D620E731ED301D9
:104180006D937D938D939C9313976BED862E912C5D
:10419000820E931EF401E080F180028113816D9103
:1041A0007D918D919C910E9473539B01AC01C6013E
:1041B000B5010E9476529B01AC01C801B7010E9473
:1041C0007752D4016D937D938D939C9313976D914A
:1041D0007D918D919C9120E030E040E85FE30E946A
:1041E00025548823ECF0F4016081718182819381F0
:1041F00020E030E040E85FE30E947652D4016D9306
:104200007D938D939C931397F30180819181A2817B
:10421000B3810196A11DB11D80839183A283B383D5
:104220002F89388D21533F4FD9012D913D914D91CB
:104230005C91E985FA8580A191A1A2A1B3A1821B1D
:10424000930BA40BB50B80A391A3A2A3B3A398C116
:10425000A985BA8550962D903D904D905C905397CE
:10426000C401B301A20191010E94DB522F89388D54
:1042700021533F4F18160CF492C0F90180819181AF
:10428000A281B381E985FA85E0A4F1A402A513A572
:10429000E816F9060A071B0740F0C401B301A201A2
:1042A00091010E94DB52882331F4C801B7010E94BA
:1042B00073535B016C01C601B5010E9447535FEC6B
:1042C000652E712C2F89388D620E731ED3016D936C
:1042D0007D938D939C9313974BED842E912C820E9E
:1042E000931EF401E080F180028113816D917D9134
:1042F0008D919C910E9473539B01AC01C601B50145
:104300000E9476529B01AC01C801B7010E9477520E
:10431000D4016D937D938D939C9313976D917D91B3
:104320008D919C9120E030E040E85FE30E942554AD
:104330008823ECF0F401608171818281938120E017
:1043400030E040E85FE30E947652D4016D937D93A4
:104350008D939C931397F30180819181A281B38106
:104360000196A11DB11D80839183A283B3832F8900
:10437000388D21533F4FD9012D913D914D915C9145
:10438000E985FA8580A591A5A2A5B3A5821B930B0B
:10439000A40BB50B80A791A7A2A7B3A7F1C0A985CD
:1043A000BA851C968D919D910D90BC91A02D8D8309
:1043B0009E83AF83B887A985BA855C968D919D91C0
:1043C0000D90BC91A02D8F87988BA98BBA8BEF890C
:1043D000F88DE952FF4FF88FEF8B80819181A28198
:1043E000B38189839A83AB83BC83E75DF040F88F08
:1043F000EF8BE688F788008D118D82899389A489D7
:10440000B5898B879C87AD87BE8726843784408893
:104410005188F90180819181A281B381E985FA8572
:10442000A4A0B5A0C6A0D7A0A816B906CA06DB06E8
:1044300098F1C401B30120E030E040E85FE30E945E
:10444000DB52882349F189819A81AB81BC81E80ED6
:10445000F91E0A1F1B1F8B859C85AD85BE85E80E46
:10446000F91E0A1F1B1FE218F30804091509C801E9
:10447000B7010E9473539B01AC016F8578898989CC
:104480009A890E9429549B01AC016D817E818F81A4
:1044900098850E94765204C0C601B5010E947353EC
:1044A0005B016C010E9447532FEC622E712CAF8987
:1044B000B88D6A0E7B1EF3016083718382839383C0
:1044C0008BED882E912C8A0E9B1ED401ED90FD90D1
:1044D0000D911C9160817181828193810E9473533F
:1044E0009B01AC01C601B5010E9476529B01AC0153
:1044F000C801B7010E947752F401608371838283FF
:104500009383608171818281938120E030E040E873
:104510005FE30E9425548823E4F0D4016D917D91DE
:104520008D919C9120E030E040E85FE30E9476525C
:10453000F4016083718382839383F301808191818D
:10454000A281B3810196A11DB11D80839183A283B5
:10455000B3832F89388D21533F4FD9012D913D9140
:104560004D915C91E985FA8584A195A1A6A1B7A199
:10457000821B930BA40BB50B84A395A3A6A3B7A38F
:1045800068960FB6F894DEBF0FBECDBFCF91DF9116
:104590001F910F91FF90EF90DF90CF90BF90AF9061
:1045A0009F908F907F906F905F904F903F902F9053
:1045B00008952F923F924F925F926F927F928F92C7
:1045C0009F92AF92BF92CF92DF92EF92FF920F93A2
:1045D0001F93DF93CF9300D000D0CDB7DEB7182F55
:1045E0003A014B013C832B83813019F4295A3F4F08
:1045F00004C02B813C81255D3F4F3A8329838B8109
:104600009C81845F9E4F9C838B83DC01ED91FC91A8
:104610001197AC50B140BC83AB8389819A81B401BE
:10462000A3019D01012F09955B016C011123E9F59F
:1046300060911C0170911D0180E090E00E94735315
:10464000A60195010E94DF527B018C010E94475315
:10465000EB81FC81E155FF4FDF016D937D938D93DD
:104660009D93BC83AB830E9473539B01AC01C80133
:10467000B7010E9476520B811C81F801608371831F
:104680008283938320E030E040E85FE30E9425547A
:1046900088230CF4E0C180E090E0A0E0B0E0F801F5
:1046A00080839183A283B383D6C1A981BA812D90DF
:1046B0003D904D905C90C401B301A20191010E9414
:1046C000DB5218160CF491C0E981FA81E0A0F1A048
:1046D00002A113A1C601B5010E9447536E157F05C3
:1046E0008007910740F4C401B301A20191010E9427
:1046F000DB52882331F4C801B7010E9473535B0178
:104700006C01C601B5010E9447535FEC652E712C08
:104710002B813C81620E731ED3016D937D938D932B
:104720009C9313974BED842E912C820E931EF401D3
:10473000E080F180028113816D917D918D919C913A
:104740000E9473539B01AC01C601B5010E947652D1
:104750009B01AC01C801B7010E947752D4016D934F
:104760007D938D939C9313976D917D918D919C91E9
:1047700020E030E040E85FE30E9425548823ECF01D
:10478000F401608171818281938120E030E040E812
:104790005FE30E947652D4016D937D938D939C9339
:1047A0001397F30180819181A281B3810196A11DAC
:1047B000B11D80839183A283B3832B813C812153DC
:1047C0003F4FD9012D913D914D915C91E981FA8145
:1047D00080A191A1A2A1B3A1821B930BA40BB50B45
:1047E00080A391A3A2A3B3A336C1A981BA81509695
:1047F0002D903D904D905C905397C401B301A20160
:1048000091010E94DB5218160CF491C0E981FA81E3
:10481000E0A4F1A402A513A5C601B5010E94475367
:10482000E616F7060807190740F0C401B301A20114
:1048300091010E94DB52882331F4C801B7010E9424
:1048400073535B016C01C601B5010E9447532FEC05
:10485000622E712C2B813C81620E731ED3016D93ED
:104860007D938D939C9313978BED882E912C820EC4
:10487000931EF401E080F180028113816D917D919E
:104880008D919C910E9473539B01AC01C601B501AF
:104890000E9476529B01AC01C801B7010E94775279
:1048A000D4016D937D938D939C9313976D917D911E
:1048B0008D919C9120E030E040E85FE30E94255418
:1048C0008823ECF0F401608171818281938120E082
:1048D00030E040E85FE30E947652D4016D937D930F
:1048E0008D939C931397F30180819181A281B38171
:1048F0000196A11DB11D80839183A283B3832B8177
:104900003C8121533F4FD9012D913D914D915C91B7
:10491000E981FA8180A591A5A2A5B3A5821B930B7D
:10492000A40BB50B80A791A7A2A7B3A794C0A98198
:10493000BA819496ED90FD900D911C919797C601C8
:10494000B5010E944753E616F7060807190750F00D
:10495000C401B30120E030E040E85FE30E94DB5295
:10496000882331F4C801B7010E9473535B016C01C5
:10497000C601B5010E9447530FEC602E712CEB81EC
:10498000FC816E0E7F1ED3016D937D938D939C935E
:1049900013971BED812E912C8E0E9F1EF401E0804B
:1049A000F180028113816D917D918D919C910E9486
:1049B00073539B01AC01C601B5010E9476529B0165
:1049C000AC01C801B7010E947752D4016D937D9369
:1049D0008D939C9313976D917D918D919C9120E087
:1049E00030E040E85FE30E9425548823ECF0F401B6
:1049F000608171818281938120E030E040E85FE353
:104A00000E947652D4016D937D938D939C9313975E
:104A1000F30180819181A281B3810196A11DB11D15
:104A200080839183A283B3832B813C8121533F4FA9
:104A3000D9012D913D914D915C91E981FA8184A13B
:104A400095A1A6A1B7A1821B930BA40BB50B84A3C0
:104A500095A3A6A3B7A30F900F900F900F90CF919F
:104A6000DF911F910F91FF90EF90DF90CF90BF905B
:104A7000AF909F908F907F906F905F904F903F90FE
:104A80002F9008956F927F928F929F92AF92BF92D4
:104A9000CF92DF92EF92FF920F931F93CF93DF930A
:104AA0003C016A017B01E901002309F445C0CB0107
:104AB000BA01D3012D913D914D915C910E94DB5241
:104AC000882384F4C952DF4F688179818A819B8170
:104AD0000E9473537B018C01F301208D318D428D37
:104AE000538D7DC0C701B601D30150962D913D91E4
:104AF0004D915C9153970E94DB5218160CF03DC00B
:104B0000CD52DF4F69917991899199916F5F7F4F74
:104B10008F4F9F4F288139814A815B81621B730BC4
:104B2000840B950B0E9473537B018C01F301248D40
:104B3000358D468D578D53C0DC018D909D90AD9085
:104B4000BC90CB01BA01A50194010E94DB528823DD
:104B50003CF4C701B601A50194010E94DF5238C0A0
:104B6000C701B601D30150962D913D914D915C91B5
:104B700053970E94DB5288236CF4D3011C96EC916E
:104B80001C971D967C911D971E968C911E971F96C3
:104B90006C912DC0C701B601A50194010E94765207
:104BA000F30120853185428553850E947652D301D9
:104BB00014962D913D914D915C9117970E94DF5273
:104BC0009B01AC0160E070E080E89FE30E947652B8
:104BD0007B018C01F30124853585468557850E942C
:104BE0002954A80197010E942954E62F692F2E2FDE
:104BF000372F482F562FB901CA01DF91CF911F914E
:104C00000F91FF90EF90DF90CF90BF90AF909F906B
:104C10008F907F906F9008956F927F928F929F9266
:104C2000AF92BF92CF92DF92EF92FF920F931F93BA
:104C3000CF93DF933C016A017B01E901002309F472
:104C400063C0CB01BA01D3012D913D914D915C918F
:104C50000E94DB528823E4F46A897B898C899D89D0
:104C60006F5F7F4F8F4F9F4FC952DF4F2881398130
:104C70004A815B81621B730B840B950B0E947353FB
:104C80007B018C01F301208D318D428D538D2CC021
:104C9000C701B601F30120893189428953890E94F5
:104CA000DB5218160CF060C06E897F89888D998D53
:104CB000C952DF4F288139814A815B81620F731F9E
:104CC000841F951FFE015291429132912291621BE5
:104CD000730B840B950B0E9473537B018C01F301C2
:104CE000248D358D468D578D0E942954A80197013A
:104CF0000E9429549B01AC01D3011C966D917D91BA
:104D00008D919C911F9768C0FC0180809180A2804A
:104D1000B380CB01BA01A50194010E94DB52882324
:104D2000C4F4C701B601A50194010E94DF529B01A2
:104D3000AC0160E070E080E89FE30E9476527B0166
:104D40008C01D3011C96AD90BD90CD90DC901F9747
:104D500035C0C701B601F3012089318942895389E1
:104D60000E94DB5288236CF4D3011C96EC911C97B3
:104D70001D967C911D971E968C911E971F966C9187
:104D80002FC0C701B601A50194010E947652F3011C
:104D900020853185428553850E947652D301149631
:104DA0002D913D914D915C9117970E94DF527B01AF
:104DB0008C01F301A484B584C684D784C601B501EF
:104DC000A80197010E942954A80197010E94295423
:104DD0009B01AC01C601B5010E947652E62F692FF6
:104DE0002E2F372F482F562FB901CA01DF91CF91AF
:104DF0001F910F91FF90EF90DF90CF90BF90AF90F9
:104E00009F908F907F906F900895CF93DF93EB01E9
:104E100020E030E040E050E42C8B3D8B4E8B5F8BEC
:104E2000FC01E95FFE4FE081E53029F480E090E08D
:104E3000A0E4B0E406C0E63041F480E090E0A0ECED
:104E4000BFE38C8B9D8BAE8BBF8BDF91CF91089591
:104E50002F923F924F925F926F927F928F929F928A
:104E6000AF92BF92CF92DF92EF92FF920F931F9378
:104E7000DF93CF93CDB7DEB76D970FB6F894DEBF53
:104E80000FBECDBF4C01698B2A8B3B8B4C8B5D8B4E
:104E9000AE8ABF8AC88ED98E2BEC30E0820E931E6C
:104EA000D4018D919D910D90BC91A02D8D879E87F1
:104EB000AF87B88BE5E3FFEF8E0E9F1E613031F0B8
:104EC000BBE22B2E312C280C391C17C0A7E52A2E4B
:104ED000312C280C391C23ED30E0820E931ED401B6
:104EE0008D919D910D90BC91A02D8D879E87AF8750
:104EF000B88BEDE2FFEF8E0E9F1EC401B1010E9440
:104F00000527C801B7010E9473537B018C016E898C
:104F10007F89888D998D0E947353A80197010E9403
:104F2000DF522B013C01D1016D937D938D939C93B6
:104F300013976AA97BA98CA99DA90E947353A80104
:104F400097010E94DF525B016C01F101648375835C
:104F500086839783A30192010E9477529B01AC0143
:104F600060E070E080E89FE30E9476527B018C0154
:104F7000D10118966D937D938D939C931B97C301DC
:104F8000B201A80197010E947752F101608B718BE9
:104F9000828B938BD10154962D913D914D915C91D3
:104FA00057972A8F3B8F4C8F5D8FB989B13009F0AD
:104FB000D7C1C301B2010E94DF52A80197010E942C
:104FC00077527B018C01C601B5012A8D3B8D4C8D3A
:104FD0005D8D0E94DF529B01AC01C801B7010E94A8
:104FE00077529B01AC016A897B898C899D890E94DB
:104FF000DF5269877A878B879C871D821E821F827A
:105000001886F1E0EF2EF12C012D112DE7E0CE2EC8
:10501000E1E0DE2EC80CD91C24C0F601808184306A
:1050200049F42D813E814F8158852E0D3F1D401F33
:10503000511F0EC0C801B701A80197010E948C54EE
:105040002D813E814F815885260F371F481F591FDC
:105050002D833E834F8358870894E11CF11C011D6A
:10506000111D8E899F89A88DB98D8E159F05A0076A
:10507000B10798F619821A821B821C8271E0E72E12
:10508000F12C012D112D67E0C62E61E0D62EC80C43
:10509000D91C24C0D6018C91843049F429813A81ED
:1050A0004B815C812E0D3F1D401F511F0EC0C8015A
:1050B000B701A80197010E948C5429813A814B8144
:1050C0005C81260F371F481F591F29833A834B8362
:1050D0005C830894E11CF11C011D111D8AA99BA988
:1050E000ACA9BDA98E159F05A007B10798F6D601FA
:1050F0008C91863009F090C069857A858B859C8576
:10510000A30192010E94295420E030E040E450E4E1
:105110000E94DF520E9447537B018C01F10160A382
:1051200071A382A393A369857A858B859C8524814D
:105130003581468157810E9429543B014C0120E072
:1051400030E040E450E40E94DF520E9447535B018C
:105150006C01D10194966D937D938D939C93979759
:10516000C801B7010E9473537B018C016D817E8160
:105170008F8198850E9473539B01AC01C801B701D0
:105180000E94DF52F101608F718F828F938FC60171
:10519000B5010E9473537B018C0169817A818B81F7
:1051A0009C810E9473539B01AC01C801B7010E940E
:1051B000DF52D1015C966D937D938D939C935F97A5
:1051C00069857A858B859C852D913D914D915C916A
:1051D0000E942954F10124893589468957890E9402
:1051E000DF520E944753D10190966D937D938D932A
:1051F0009C939397C401B30154962D913D914D9189
:105200005C9157970E94DF520E944753F10164A3BB
:1052100075A386A397A367C069857A858B859C85CE
:10522000A30192010E9429542A8D3B8D4C8D5D8DE6
:105230000E94DF520E9447537B018C01D10190965E
:105240006D937D938D939C93939769857A858B85D8
:105250009C8514962D913D914D915C9117970E94DC
:105260002954F10124893589468957890E94DF52E2
:105270000E9447535B016C01D10194966D937D931D
:105280008D939C939797C801B7010E9473537B013C
:105290008C016D817E818F8198850E9473539B0163
:1052A000AC01C801B7010E94DF52F101608F718F1C
:1052B000828F938FC601B5010E9473537B018C01CD
:1052C00069817A818B819C810E9473539B01AC011F
:1052D000C801B7010E94DF52D1015C966D937D93A6
:1052E0008D939C935F97F10160A171A182A193A11D
:1052F0000E9473539B01AC016A897B898C899D89CB
:105300000E9476527B018C01D10194966D917D9122
:105310008D919C9197970E9473539B01AC01C8019A
:10532000B7010E9476520E944753F10160A771A70E
:1053300082A793A76D857E858F8598890E94735378
:105340009B01AC0169857A858B859C850E94DF5223
:10535000D1011C966D937D938D939C931F9737C0BD
:10536000C301B2012A8D3B8D4C8D5D8D0E94DF52B1
:10537000A80197010E9477527B018C01C601B501FB
:105380002A8D3B8D4C8D5D8D0E94DF529B01AC01BF
:10539000C801B7010E9477529B01AC016A897B89E1
:1053A0008C899D890E94DF527B018C016D857E85F1
:1053B0008F8598890E9473539B01AC01C801B70186
:1053C0000E94DF52F10164877587868797876D9603
:1053D0000FB6F894DEBF0FBECDBFCF91DF911F9106
:1053E0000F91FF90EF90DF90CF90BF90AF909F9084
:1053F0008F907F906F905F904F903F902F90089587
:105400004F925F926F927F928F929F92AF92BF92D4
:10541000CF92DF92EF92FF920F931F93DF93CF9380
:10542000CDB7DEB74C012A013B01C801B7014FECF3
:1054300050E0840E951EF4011082118212821382B4
:105440004CE050E0840E951E0F2EF0E0EF2EF0E0C1
:10545000FF2EF0E00F2FF0E01F2FF02DF401E0827F
:10546000F1820283138348EF5FEF840E951EF401EF
:1054700041925192619271924F0110821182128277
:10548000138248E050E0840E951EF401208321E24F
:105490003FEF820E931E00D000D00DB71EB70F5FF6
:1054A0001F4F0E9473539B01AC018B899C89AD896E
:1054B000BE89F80180839183A283B383C40161E034
:1054C000830172010E9428270F900F900F900F9078
:1054D000CF91DF911F910F91FF90EF90DF90CF90D0
:1054E000BF90AF909F908F907F906F905F904F9004
:1054F0000895CF93DF93FC01EC01C457DF4F8881FF
:105500008823C1F0ED56FF4F119211921192119222
:1055100011921192119211921082118212821382B1
:105520003C9780E090E0A0E0B0E080839183A2838C
:10553000B3831882DF91CF910895CF93DF93EC016D
:10554000C857DF4F1882249681E08883CC58D0401A
:105550001D8E1C8EC357DF4F1882C75ADF4F80E065
:1055600090E0A0E0B0E088839983AA83BB83C65E05
:10557000D040CE010E94471D882321F088A161E020
:105580000E940F43CE0161E00E94261DDF91CF9162
:105590000895FC01E957FF4F6083E758F04090E021
:1055A000611191E080A1692F0E940F430895EF924D
:1055B000FF921F93CF93DF93EC01162F8AE8E82E1A
:1055C000F12CEC0EFD1EF7018081681759F08AA1BD
:1055D0000E940F43CB57DF4F81E08883F701108390
:1055E00024961883DF91CF911F91FF90EF9008953B
:1055F0004F925F926F927F928F929F92AF92BF92E3
:10560000CF92DF92EF92FF920F931F93CF93DF938E
:10561000EC015BE8852E912C880E991EF4018081A7
:10562000882309F449C046EEA42EB12CAC0EBD1E51
:105630003EEEC32ED12CCC0EDD1EF50160817181B2
:1056400082819381F60120813181428153810E94C0
:1056500076527B018C01F501608371838283938391
:10566000F601608171818281938120E030E040E029
:105670005FE30E9429549B01AC01C801B7010E945D
:10568000DB5218160CF4B6C08AE097EDA3E2BCE337
:10569000F50180839183A283B383F401108260E0DB
:1056A000C657DF4F8881CA58D040882309F461E08B
:1056B000CE010E94D72A9EC0CB57DF4F8881C558A4
:1056C000D0408130B1F5CE010E94211D22EFC22EC3
:1056D000D12CCC0EDD1E8823A1F4F601E080F180F0
:1056E00002811381CE010E94311DA0E0B0E08E0D39
:1056F0009F1DA01FB11FF60180839183A283B383F6
:1057000013C0F601E080F18002811381CE010E9476
:10571000311DA0E0B0E0E81AF90A0A0B1B0BF601F4
:10572000E082F18202831383CB57DF4F1882C55882
:10573000D04096EE492E512C4C0E5D1EF201608039
:10574000718082809380C651DF4FE990F990099172
:105750001991A880B980CA80DB80CE5ED040C80194
:10576000B701A60195010E9476529B01AC01C401CC
:10577000B3010E94DB5218163CF0C401B301A6012C
:1057800095010E94775214C0C801B701A601950186
:105790000E9477529B01AC01C401B3010E942554C1
:1057A000882364F0C401B301A60195010E947652DA
:1057B000F20160837183828393831CC0F201E082D3
:1057C000F18202831383C801B70120E030E040E09A
:1057D00050E00E94DB52882351F0C801B70120E05D
:1057E00030E040E050E00E94DB52882319F4CE0103
:1057F0000E949D2A60911C0170911D0180E090E043
:105800000E9473537B018C01CA51DF4F68817981FB
:105810008A819B8120E030E048EC52E40E94DF5214
:105820009B01AC01C801B7010E94DF527B018C01D2
:105830000E944753E79769937993899399930E94BC
:1058400073539B01AC01C801B7010E947652688373
:1058500079838A839B83DF91CF911F910F91FF9072
:10586000EF90DF90CF90BF90AF909F908F907F9000
:105870006F905F904F900895AF92BF92CF92DF925A
:10588000EF92FF920F931F93CF93DF93EC018C8DD8
:10589000882309F049C0CE010E945B1D882321F0B6
:1058A000CE010E94F82A3EC0FE01E953FF4F8081DD
:1058B0009181A281B381C553DF4FA880B980CA808E
:1058C000DB80CB5CD0400196A11DB11D8A159B05E4
:1058D000AC05BD0518F081E08D8F24C06081718119
:1058E00082819381C65FDE4F0E94735320E030E0D7
:1058F00040E85FE30E9477527B018C01C601B5014D
:105900000E9473539B01AC01C801B7010E94DF5292
:10591000AB01BC01E881F981CA50D14080E09E0111
:1059200009951D8E81E08C8FDF91CF911F910F9192
:10593000FF90EF90DF90CF90BF90AF900895CF92FF
:10594000DF92EF92FF920F931F93CF93DF93EC01BF
:10595000FC01E154FF4F80819181A281B3810097C6
:10596000A105B10561F5C155DF4F89919991A991C3
:10597000B99180839183A283B38388819981AA811D
:10598000BB81609688839983AA83BB83C35CD04024
:10599000FE01E953FF4F80819181A281B38101967D
:1059A000A11DB11D80839183A283B383C556DF4FB0
:1059B000188219821A821B82CB59D0401C8EC55680
:1059C000DF4F288139814A815B81CB59D04080915A
:1059D0001C0190911D01A0E0B0E0281739074A078B
:1059E0005B0708F47CC08C8D882319F4CE010E94DB
:1059F0003C2C8D8D882309F444C0BE0169567F4F2D
:105A0000C156DF4FDB012D913D914D915C91888115
:105A10009981AA81BB81CF59D040FE01E556FF4F45
:105A2000281739074A075B07D0F480819181A2814A
:105A3000B3810197A109B10980839183A283B383C4
:105A40002F5F3F4F4F4F5F4FFB01208331834283D6
:105A50005383CE0161E070E00E94981E58C1DB01C3
:105A60001D921D921D921C921397C953DF4F1882ED
:105A700019821A821B821082118212821382E89785
:105A8000FAC0C155DF4F88819981AA81BB81609698
:105A900088839983AA83BB832C9788819981AA8163
:105AA000BB81609688839983AA83BB83C35CD04003
:105AB000FE01E953FF4F80819181A281B38101965C
:105AC000A11DB11D80839183A283B383C556DF4F8F
:105AD000188219821A821B82CB59D0401C8EFE017B
