:100000000C941A010C943C2B0C946D2B0C949E2B8D
:100010000C94CF2B0C94002C0C94312C0C94622C4F
:100020000C94932C0C9445010C9497390C94450135
:100030000C9445010C9445010C9445010C949411C9
:100040000C9445010C9445010C9445010C94450118
:100050000C94C2110C9445010C9445010C94C42CD1
:100060000C9445010C94CF2E0C94C8300C9445018F
:100070000C9445010C9445010C9445010C947813A3
:100080000C94E5120C942B140C9445010C9445012E
:100090000C9445010C944501000021002400270028
:1000A0002A002D00300000002200250028002B002F
:1000B0002E003100000020002300260029002C0023
:1000C0002F000101010101010101020202020202ED
:1000D00002020303030303030303040404040404EC
:1000E00004040505050505050505060606060606BC
:1000F00006060102040810204080010204081020B6
:1001000040800102040810204080010204081020F1
:1001100040800102040810204080010204081020E1
:100120004080000000000000000000000000070305
:100130000401000000000B0A090002080000000092
:1001400000000000000000000000000000000000AF
:10015000000000010203040506071201100102005D
:100160000008EB03442001000102030109023E00E4
:10017000020100C03209040000010202010005244E
:10018000001001042402060524060001070582036D
:100190000800FF09040100020A000000070504022C
:1001A00010000507058302100005040309042E034F
:1001B000440079006E0061006D006900630020005A
:1001C00050006500720063006500700074006900F3
:1001D0006F006E0020004C004C00430000003C0308
:1001E000440079006E0061006D006900630020002A
:1001F00050006500720063006500700074006900C3
:100200006F006E00200043004400430020005300B4
:1002100065007200690061006C0000000E03300090
:100220003000340035003700330000000B0283300B
:100230003D32040211241FBECFEFD0E2DEBFCDBF9E
:1002400011E0A0E0B1E0ECE4F1E800E00BBF02C097
:1002500007900D92A43BB107D9F71BBE16E0A4EBA3
:10026000B1E001C01D92A03DB107E1F712E0C2E389
:10027000D2E004C02297FE010E949540CC32D10703
:10028000C9F70E949E310C9499400C940000E091B3
:100290001405F0911505309709F0099508958F928E
:1002A0009F92AF92BF92CF92DF92EF92FF920F9305
:1002B0001F938130910509F083C06F5F7F4F09F074
:1002C00098C08AEC91E00E940D25A1B281EE91E0E8
:1002D0006DE270E040E150E020E230E001E110E04A
:1002E000E2E1EE2EF12CB3E1CB2ED12CBB24A5E024
:1002F0008A2E912C0E941122A1B281EA92E06EE234
:1003000070E045E150E024E130E00DE110E0FEE175
:10031000EF2EF12CEFE1CE2ED12CB6E08B2E912CCE
:100320000E941122A1B281E693E06FE270E042E206
:1003300050E021E230E00FE010E0ABE2EA2EF12CD9
:10034000FCE2CF2ED12CE7E08E2E912C0E941122C0
:1003500040912E0181E294E06AE876E050E025E0E9
:1003600030E008E611E00E94C52981E894E00E948F
:10037000891582E894E066E00E94B1231092A704F8
:100380001092A60488EE93E0A0E0B0E08093A80469
:100390009093A904A093AA04B093AB0485E791E0DD
:1003A0009093A5048093A40440912E0180EB94E0E7
:1003B00064EA74E050E025E030E00E94C52919C0ED
:1003C000892BB9F46F5F7F4FA1F485E791E090939B
:1003D000A5048093A4040E94B51481E693E00E94D2
:1003E000E61581EA92E00E94E61581EE91E00E9416
:1003F000E6151F910F91FF90EF90DF90CF90BF9087
:10040000AF909F908F90089580E090E06FEF7FEF26
:100410000E944F01089581E090E06FEF7FEF0E940E
:100420004F010895A82FFB019A018091400182306D
:1004300019F480EB94E002C081E294E06A2FAF01EE
:100440000E9425280895E82F9A01AB018091400170
:10045000823019F480EB94E002C081E294E06E2FC8
:100460000E9471280895E82F9A01AB018091400104
:10047000823019F480EB94E002C081E294E06E2FA8
:100480000E94B9280895E82F9A01AB01809140019C
:10049000823019F480EB94E002C081E294E06E2F88
:1004A0000E9497280895282FAB0180914001823047
:1004B00019F480EB94E002C081E294E0622F0E9484
:1004C000DB280895282FAB0180914001823019F478
:1004D00080EB94E002C081E294E0622F0E94F72852
:1004E0000895282F462F80914001823019F480EB27
:1004F00094E002C081E294E0622F0E9451280895A6
:10050000682F80914001823019F480EB94E002C0A2
:1005100081E294E00E946B2808953F924F925F928F
:100520006F927F928F929F92AF92BF92CF92DF9203
:10053000EF92FF920F931F93DF93CF9300D000D0E1
:1005400000D0CDB7DEB7182F7B01FB0130800181D1
:1005500023E030E0E20EF31E81E294E0B7010E9456
:100560003A2569837A838B839C8345E050E0E40ECF
:10057000F51E81E294E0B7010E943A252B013C016F
:1005800085E090E0E80EF91E81E294E0B7010E9458
:100590003A254B015C01E5E0F0E0EE0EFF1E81E242
:1005A00094E0B7010E943A256B017C01212F30E0D5
:1005B000002309F44AC0A901415050405E834D8395
:1005C00000D000D0EDB7FEB7319680EC90E09A01F4
:1005D000289FA001299F500D389F500D11244F5185
:1005E0005E4F20E0311021E0C082D182E282F382AE
:1005F000CA01B301A201E980FA800B811C81650167
:1006000054010E943A1BED81FE81EE0FFF1F4D81C8
:100610005E81E40FF51F86E0EE0FFF1F8A95E1F77C
:10062000EF5FFD4F81E0808380EC90E0489FF00118
:10063000499FF00D589FF00D1124EF51FE4F168E7B
:100640000F900F900F900F903DC02150304080ECE4
:1006500090E0289FD001299FB00D389FB00D112444
:10066000AF51BE4F81E05E968C935E97F901EE0F1D
:10067000FF1FE20FF31F16E0EE0FFF1F1A95E1F7C1
:10068000EF5FFD4F108251963C92519756968D9296
:100690009D92AD92BC9259975A96CD92DD92ED9271
:1006A000FC925D9752964D925D926D927C92559719
:1006B00029813A814B815C811D962D933D934D9309
:1006C0005C93509726960FB6F894DEBF0FBECDBF51
:1006D000CF91DF911F910F91FF90EF90DF90CF901E
:1006E000BF90AF909F908F907F906F905F904F9052
:1006F0003F9008954F925F926F927F928F929F9258
:10070000AF92BF92CF92DF92EF92FF920F931F931F
:10071000DF93CF9300D000D0CDB7DEB7E82E8B01AA
:10072000FB01D19081E294E0BF010E943A256983E8
:100730007A838B839C830A5F1F4F81E294E0B80128
:100740000E943A252B013C010B5F1F4F81E294E090
:10075000B8010E943A254B015C010B5F1F4F81E2FB
:1007600094E0B8010E943A25AB01BC0100D000D052
:10077000ADB7BEB71196FF240894E108F10880ECEC
:1007800090E0E89E9001E99E300DF89E300D112416
:100790002F513E4FE0E0D110E1E04D935D936D931A
:1007A0007C931397C9016E2F29813A814B815C811B
:1007B00083017201650154010E9469200F900F901E
:1007C0000F900F900F900F900F900F90CF91DF919F
:1007D0001F910F91FF90EF90DF90CF90BF90AF905F
:1007E0009F908F907F906F905F904F900895FA0147
:1007F0006A3009F495C06B30D8F4653009F45AC0FA
:10080000663048F46330E9F1643008F047C0623084
:1008100009F0D5C02FC0673009F467C0673008F40D
:1008200054C0683009F46CC0693009F0C8C071C0A8
:10083000683609F496C0693680F4653609F482C0DA
:10084000663620F4643609F0BAC078C0663609F41A
:100850007CC0673609F0B3C07FC06A3609F493C024
:100860006A3608F487C06B3609F496C06C3609F016
:10087000A6C099C090E08081811191E09093E00141
:100880000BC081E294E0BA010E943A25AB01BC01A1
:100890008AEC91E00E944F2481E092C081E294E0D2
:1008A000BA010E943A25AB01BC018AEC91E00E949A
:1008B000D023F2CF81E294E0BA010E943225BC013C
:1008C0008AEC91E00E94CC23E7CF81E294E0BA0168
:1008D0000E943225A0E0B0E08093D7019093D80128
:1008E000A093D901B093DA01D7CF81E294E0BA01A5
:1008F0000E943225BC018AEC91E00E94D623CCCF25
:1009000060E08081811161E08AEC91E00E94E8233F
:10091000089590E08081811191E09093DF01BCCF38
:1009200081E294E0BA010E943A256093DB01709362
:10093000DC018093DD019093DE01AECF81E0609118
:10094000E00127C00E94C42322C08AEC91E00E94EB
:10095000E223AB01BC012FC08AEC91E00E94DE23B0
:100960000DC04091D7015091D8016091D90170918B
:10097000DA0121C08AEC91E00E94DA23BC0181E017
:100980000E94620208958AEC91E00E94EB23682F96
:1009900081E00E94710208956091DF0181E070E0C2
:1009A0000E94530208954091DB015091DC01609157
:1009B000DD017091DE0181E00E944302089580E034
:1009C0000E94800208959C01C397C197E0F481EED4
:1009D00091E060E021E030E040E050E00E945A1EEB
:1009E00081EA92E060E021E030E040E050E00E94E7
:1009F0005A1E81E693E060E021E030E040E050E004
:100A00000E945A1E089525363105D8F081EE91E0F6
:100A100061E021E030E040E050E00E945A1E81EAAF
:100A200092E061E021E030E040E050E00E945A1E98
:100A300081E693E061E021E030E040E050E00E9498
:100A40005A1E089541E00E944D2A089580932E0178
:100A500080E090E06EE271E00E9422050895EF923E
:100A6000FF920F931F93382F562F742FE22F780188
:100A700081E294E0632F452F272F0E2F0E9400283C
:100A80001F910F91FF90EF900895EF92FF920F93B7
:100A90001F93382F562F742FE22F780180EB94E0AC
:100AA000632F452F272F0E2F0E9400281F910F9193
:100AB000FF90EF9008958091DF01882331F08091BD
:100AC0001705882331F01092170582E894E062E060
:100AD00006C081E08093170582E894E064E00E94FC
:100AE0008A230895843021F482E894E064E00EC003
:100AF000823079F48091C0019091C1010196909368
:100B0000C1018093C00182E894E065E00E948A23DD
:100B10000895863011F40E945B0508958091B40118
:100B20008823D9F482E00E94470181EE91E00E947F
:100B30008016AC0160E070E085E295E00E946112F1
:100B400085E295E063EB76E02FEF3FEF4FEF5FEF4D
:100B50000E94781281E08093B40108952F923F9211
:100B60005F926F927F928F929F92AF92BF92CF923D
:100B7000DF92EF92FF920F931F93DF93CF9300D0FA
:100B800000D0CDB7DEB78CEA96E060E071E00E945D
:100B90000C3281E894E00E942E15582E81EE91E0EF
:100BA0000E940B16882309F0A8C081EA92E00E94F7
:100BB0000B16882309F0A1C081E693E00E940B1672
:100BC000882309F09AC082E894E0652D0E948A2368
:100BD0009EC0629CC001639C900D729C900D11247C
:100BE0008F519E4F9C838B830E940B16882309F4A0
:100BF00075C08B819C810E941A168823A9F08B8175
:100C00009C810E942A16882309F05BC08B819C81FD
:100C10000E94EC15682F8B819C8120E030E040E041
:100C200050E00E945A1E4DC0D40153968C918130E1
:100C300029F48B819C810E949A214BC0F4019189F7
:100C40009130B1F582898823E1F5928B00D000D0F4
:100C50008DB79EB701969A83898360E08481811164
:100C600061E0D4012D913D914D915C9113971596C2
:100C7000ED90FD900D911C9118971996AD90BD9037
:100C8000CD90DC901C971D968D919D910D90BC91FF
:100C9000A02DE981FA8180839183A283B3838B8124
:100CA0009C810E9469200F900F900F900F9009C0B7
:100CB0008B819C810E943716611571058105910514
:100CC00021F482E894E0652D07C08B819C810E940D
:100CD000552082E894E063E00E948A230894611C16
:100CE000711C80EC90E0880E991E93E069167104E7
:100CF00009F06FCF0E948E050AC03EEE832E31E0D0
:100D0000932E6624772420EC222E312C62CF0F9074
:100D10000F900F900F90CF91DF911F910F91FF9047
:100D2000EF90DF90CF90BF90AF909F908F907F908B
:100D30006F905F903F902F90089581EE91E00E9418
:100D4000021C81EA92E00E94021C81E693E00E946C
:100D5000021C1092B40181E00E94470185E295E0F7
:100D60000E9469120895AF92BF92CF92DF92EF92E4
:100D7000FF920F931F93CF93DF9381B3909116054A
:100D8000892B81BB81E090E00E94992D91B38091E5
:100D900016058095892381BB1092160567EEE62E15
:100DA00061E0F62E00E010E050ECA52EB12C41E001
:100DB000C42ED12C0A9DE0010B9DD00D1A9DD00DA3
:100DC0001124CF51DE4FCE010E942A168823A9F0AC
:100DD000CE010E94B31BCE010E94241C882369F01F
:100DE0009601F701008002C0220F331F0A94E2F738
:100DF00080911605822B809316050F5F1F4F80ECA4
:100E000090E0E80EF91E03301105A1F681EE91E0A5
:100E10000E942A16882371F481EA92E00E942A1621
:100E2000882341F481E693E00E942A16882311F476
:100E30000E949D06DF91CF911F910F91FF90EF903F
:100E4000DF90CF90BF90AF900895CF93DF93EC01E8
:100E500087E2C031D80791F083E1C838D80771F034
:100E60008FE0C03AD80751F087E0C03DD80731F095
:100E700083E0C83ED80711F080E010C081EE91E019
:100E8000BE010E94551681EA92E0BE010E945516ED
:100E900081E693E0BE010E94551681E0DF91CF917B
:100EA000089541E00E94F229089580E090E06EE20A
:100EB00071E00E94510782E090E060E371E040E160
:100EC0000E94F229089582E090E00E947C2A80E04E
:100ED00090E06EE271E00E94220582E090E060E323
:100EE00071E040E10E944D2A08950E94382A88232B
:100EF00039F00E941E2A029719F40E94550708959E
:100F00000E94630708958CE060E00E949B2E089584
:100F10008CE061E00E949B2E08950E940C2D60934E
:100F2000B9017093BA018093BB019093BC0181E039
:100F30008093BD018091BE01813031F48CE060E08E
:100F40000E949B2E1092BE0181E894E00E942E1513
:100F5000882329F082E894E061E00E948A230895C2
:100F60006F927F928F929F92AF92BF92CF92DF92B9
:100F7000EF92FF920F931F93CF93DF93E82EEA0136
:100F8000623109F4F3C16331A0F5693009F42CC171
:100F90006A30B0F4653009F4AEC0663050F46330A6
:100FA00009F47AC0643008F08DC0623009F001C4E1
:100FB0005EC0673009F4C2C0683008F0D8C0ACC069
:100FC0006D3009F46EC16E3038F46B3009F441C1F4
:100FD0006C3008F060C121C16F3009F488C16F30F6
:100FE00008F463C1603109F494C1613109F0E1C3CF
:100FF000A5C1683609F431C36936F0F4663109F4E5
:101000002BC2673148F4643109F4D2C1282F30E093
:10101000653108F0EBC1BBC1653609F4EBC2663639
:1010200020F4643609F0C5C3D4C2663609F4F3C2AD
:10103000673609F0BEC300C36C3609F453C36D367E
:1010400048F46A3609F42BC3282F30E06B3608F0D9
:1010500037C314C36E3609F471C36E3608F458C32F
:101060006F3609F47EC3603709F0A3C38DC390E0E7
:10107000019720EC30E0829FD001839FB00D929FBA
:10108000B00D1124AF51BE4F60E08881811161E045
:10109000CD010E94061614C090E0019720EC30E0CC
:1010A000829FD001839FB00D929FB00D1124AF514C
:1010B000BE4F60E08881811161E0CD010E94E11B9B
:1010C00081E078C381E294E0BA010E943A25AB0145
:1010D000BC018E2D90E0019720EC30E0FC01E29FF6
:1010E000C001E39F900DF29F900D11248F519E4FF0
:1010F0000E943F16E5CF90E0019720EC30E0AC0174
:10110000429FC001439F900D529F900D11248F511B
:101110009E4F0E949F17D4CF90E0019720EC30E0C3
:10112000BC01629FC001639F900D729F900D1124BE
:101130008F519E4F68810E940116C2CF81E294E0D8
:10114000BA010E945625AB01BC018E2D90E001979B
:1011500020EC30E0FC01E29FC001E39F900DF29F84
:10116000900D11248F519E4F0E94AA16A9CF48813D
:10117000413081F490E0019720EC30E0AC01429FD7
:10118000C001439F900D529F900D11248F519E4F8F
:1011900064E011C0423091F490E0019720EC30E01F
:1011A000BC01629FC001639F900D729F900D11243E
:1011B0008F519E4F65E00E940F1782CF433081F41C
:1011C00090E0019720EC30E0FC01E29FC001E39F3A
:1011D000900DF29F900D11248F519E4F66E0EBCF42
:1011E00080E00E9480026CCF81E294E0BA010E940C
:1011F0003A252E2D30E02150304040EC50E0249F25
:10120000F001259FF00D349FF00D1124EF51FE4F9A
:10121000608371838283938353CF81E294E0BA0128
:101220000E9432252E2D30E02150304040EC50E01D
:10123000B901649F9001659F300D749F300D11249A
:10124000AC0160E070E0C9018F519E4F0E942F16E3
:1012500037CFFA01119181E294E0BF010E943A2553
:10126000AB01BC018E2D90E0019720EC30E0829F15
:10127000F001839FF00D929FF00D1124EF51FE4F6E
:10128000A0E01111A1E09A0140E050E0CF016A2FE7
:101290000E945A1E03C0BA010E947A030E948E0562
:1012A0000FCFBA010E948D020BCFFF240894E108F2
:1012B000F10880EC90E0E89E8001E99E100DF89E18
:1012C000100D11240F511E4FC8010E944817F8013C
:1012D000168EF701EE0FFF1FEE0DFF1D66E0EE0FFD
:1012E000FF1F6A95E1F7EF5FFD4F1082E9CE90E0B6
:1012F000019720EC30E0AC01429FC001439F900D6C
:10130000529F900D11248F519E4F68810E94A81DFD
:10131000D7CE90E0019720EC30E0829FD001839FF0
:10132000B00D929FB00D1124AF51BE4F60E0888187
:10133000811161E0CD010E94D71BC2CE81E294E011
:10134000BA010E943225BC018E2D90E0019720EC5D
:1013500030E0FC01E29FC001E39F900DF29F900DF1
:1013600011248F519E4F0E949316AACE90E00197B0
:1013700020EC30E0AC01429FC001439F900D529F92
:10138000900D11248F519E4F0E942D2087CF215008
:10139000304080EC90E0BC01269FC001279F900D5B
:1013A000369F900D11248F519E4F0E94021C88CEB3
:1013B00090E001979C01220F331F280F391FF9017C
:1013C00046E0EE0FFF1F4A95E1F7EF5FFD4F80818A
:1013D000882309F4EFC1F90136E0EE0FFF1F3A95BB
:1013E000E1F7E751FE4F888180836ACEC9010197FA
:1013F0008C01000F111F080F191FF80186E0EE0F76
:10140000FF1F8A95E1F7EF5FFD4F8081882309F484
:10141000D1C10E940C2D2091DB013091DC01409163
:10142000DD015091DE01621B730B840B950B609301
:101430001005709311058093120590931305F80120
:1014400006E0EE0FFF1F0A95E1F7E751FE4F81E03E
:1014500080830E948D0734CE282F30E02150304009
:10146000F901EE0FFF1FE20FF31FB6E0EE0FFF1FB3
:10147000BA95E1F7EF5FFD4F8081882309F49AC1A7
:1014800080EC90E0289FF001299FF00D389FF00D2F
:101490001124EF51FE4F40815181628173814115CA
:1014A00051056105710559F08091C0019091C1010C
:1014B000A0E0B0E084179507A607B707D8F08091A1
:1014C000C0019091C101009729F001979093C1014B
:1014D0008093C00180EC90E0FC012E9FC0012F9F03
:1014E000900D3E9F900D11248F519E4F0E942D21F3
:1014F0000E948E056090DB017090DC018090DD0120
:101500009090DE018AEC91E00E94E2235B016C0185
:101510008AEC91E00E94DE237C018AEC91E00E943B
:10152000DA2300E010E0A0E0B0E0E80EF91E0A1FA8
:101530001B1FEA0CFB1C0C1D1D1DE614F7040805FF
:10154000190548F40091DB011091DC012091DD01C7
:101550003091DE011BC08AEC91E00E94E2236B0116
:101560007C018AEC91E00E94DE238C018AEC91E000
:101570000E94DA2320E030E0A0E0B0E0080F191F5D
:101580002A1F3B1F0C0D1D1D2E1D3F1D8091B501F7
:101590009091B601A091B701B091B8018017910761
:1015A000A207B30768F0801B910BA20BB30B8093CB
:1015B000B5019093B601A093B701B093B80180CD67
:1015C0001092B5011092B6011092B7011092B801B5
:1015D00077CD90E0019720EC30E0AC01429FC00154
:1015E000439F900D529F900D11248F519E4F0E944A
:1015F0000B16B4C090E0019720EC30E0BC01629F74
:10160000C001639F900D729F900D11248F519E4FCA
:101610000E94EC15A3C090E0019720EC30E0FC01A3
:10162000E29FC001E39F900DF29F900D11248F5116
:101630009E4F0E94471666C090E0019720EC30E074
:10164000AC01429FC001439F900D529F900D112409
:101650008F519E4F0E94051755C090E0019720ECD6
:1016600030E0BC01629FC001639F900D729F900D9E
:1016700011248F519E4F0E94FC1570C021503040A4
:1016800080EC90E0FC012E9FC0012F9F900D3E9FAB
:10169000900D11248F519E4F0E941F1685C090E01F
:1016A000019720EC30E0AC01429FC001439F900DB8
:1016B000529F900D11248F519E4F0E9443174EC090
:1016C0002150304080EC90E0289FF001299FF00DE0
:1016D000389FF00D1124EF51FE4F408151816281FE
:1016E000738112C090E0019720EC30E0BC01629F52
:1016F000C001639F900D729F900D11248F519E4FDA
:101700000E943716AB01BC0181E00E94430254C025
:1017100090E0019720EC30E0FC01E29FC001E39FE4
:10172000900DF29F900D11248F519E4F0E94A7178C
:10173000AB01BC0181E00E9433023EC090E0019702
:1017400020EC30E0AC01429FC001439F900D529FBE
:10175000900D11248F519E4F0E94E715682F81E054
:1017600010C090E00197FC01EE0FFF1FE80FF91F7A
:1017700076E0EE0FFF1F7A95E1F7E751FE4F81E02B
:1017800060810E94710218C090E0019720EC30E067
:10179000BC01629FC001639F900D729F900D112448
:1017A0008F519E4F0E944F16BC0181E00E94620241
:1017B00003C080E00E948002DF91CF911F910F91C2
:1017C000FF90EF90DF90CF90BF90AF909F908F9061
:1017D0007F906F900895CF92DF92EF92FF920F93D8
:1017E0001F93CF93DF9381E894E00E9465158CEA04
:1017F00096E06BE071E00E940C3201EE11E0EE2405
:10180000FF24E0ECCE2ED12CEC9CE001ED9CD00D21
:10181000FC9CD00D1124CF51DE4FCE010E940B163F
:101820008823C1F0F80180A18130A1F420813181A9
:1018300042815381211531054105510559F08091AF
:10184000C0019091C101A0E0B0E082179307A40706
:10185000B507F8F0CE010E940B16882319F1F801A4
:1018600080A18823F9F4208131814281538121159F
:10187000310541055105B1F08091B5019091B60156
:10188000A091B701B091B80182179307A407B507DB
:1018900048F482E894E061E00E948A230EC00E942E
:1018A000AE050BC00894E11CF11C00541F4FF3E07F
:1018B000EF16F10409F0A8CFF2CFDF91CF911F917D
:1018C0000F91FF90EF90DF90CF9008950F931F93AB
:1018D00002E814E0C80161E041EF5CE00E94A1234E
:1018E000C80162E04BEE5BE00E94A123C80163E007
:1018F00043E15FE00E94A123C80164E045E95CE0A8
:101900000E94A123C80165E04BE85CE00E94A1238E
:101910001F910F91089582E894E060E00E948A236D
:101920008AEC91E00E941124089582E894E060E03E
:101930000E948A238AEC91E00E9494240895FF92E9
:101940000F931F93CF93DF93F82E8B01C0E0D0E06D
:1019500015C08F2D61E00E949B2E6AEF70E080E041
:1019600090E00E94402D8F2D60E00E949B2E6AEF38
:1019700070E080E090E00E94402D2196C017D107D2
:1019800044F3DF91CF911F910F91FF9008951F9322
:10199000182F0E949D06113091F41092B5011092FB
:1019A000B6011092B7011092B8011092C1011092C5
:1019B000C001109200021092C00210928003109297
:1019C000BD0181EE91E00E94481781EA92E00E94F9
:1019D000481781E693E00E9448170E949C241F91BB
:1019E00008952091D7013091D8014091D9015091AB
:1019F000DA01211531054105510579F08091C001C9
:101A00009091C101A0E0B0E082179307A407B50749
:101A100020F080E00E94C70C089581E894E00E94C5
:101A20002E158823D9F00E940C2D2091100530919D
:101A300011054091120550911305621B730B840B25
:101A4000950B2091DB013091DC014091DD0150913B
:101A5000DE01621773078407950758F18091E00152
:101A6000882381F482E894E062E00E948A230E9445
:101A70000C2D6093100570931105809312059093BF
:101A8000130508950E94C423882399F482E894E002
:101A900060E00E948A230E940C2D609310057093D1
:101AA000110580931205909313058AEC91E00E9432
:101AB000492408950E949C240E949D061092BD0115
:101AC0000895CF93DF93EB018C3009F4D7C08D30AC
:101AD00040F5863009F466C0873080F4833009F41D
:101AE0004EC0843020F4823009F054C145C08430A7
:101AF00009F449C0853009F04DC149C0893009F465
:101B000086C08A3038F4873009F455C0883009F02F
:101B100041C15EC08A3009F493C08B3009F03AC1EC
:101B20009EC0883609F4E2C0893698F4853609F4F7
:101B3000C8C0863638F48D3009F4A7C0843609F061
:101B400029C1BCC0863609F4C0C0873609F022C15D
:101B5000C8C08B3609F4E1C08C3638F4893609F4F4
:101B6000CBC08A3609F016C1CFC08C3609F4EBC061
:101B70008D3609F00FC104C10E948D0702C00E947A
:101B80005A0D81E008C181E00E94C70CFACF88811C
:101B90008093BF01882319F40E948307F2CF0E942B
:101BA0008807EFCF60E08881811161E081E894E0EF
:101BB0000E94DC15E6CF81E294E00E943A25609312
:101BC000C2017093C3018093C4019093C501D9CF22
:101BD00080E1E0E3F1E0DF011D928A95E9F780E022
:101BE00090E0FE01E80FF91F2081222321F0FC0183
:101BF000E05DFE4F208301968031910591F782E0F0
:101C000090E060E371E040E10E944D2ABACF688124
:101C1000623008F4BFC060932E0181E294E070E06E
:101C20000E94152560912E0180EB94E070E00E94E7
:101C3000152580E090E06EE271E00E942205A1CFC0
:101C40008881833020F080E00E9480029ACF882330
:101C500019F40E94781595CF0E94A41592CF81EEB9
:101C600091E00E942D2081EA92E00E942D2081E6E1
:101C700093E00E942D200E948E0583CF81E294E0A4
:101C80000E9432250E94250786C060E0888181116C
:101C900061E081EE91E00E94151660E0888181117B
:101CA00061E081EA92E00E94151660E0888181116E
:101CB00061E081E693E00E94151663CF81E065E064
:101CC00018C081E06091BD0114C04091B5015091F0
:101CD000B6016091B7017091B80181E00E944302A2
:101CE0005CC00E94C423682F81E003C081E0609142
:101CF0002F010E94710251C081E060E371E040E178
:101D000050E00E94120249C081EE91E00E948516C7
:101D1000BC0181E00E94620240C08AE20E94E92D7B
:101D2000AA2797FDA095BA2FBC01CD010E940C3FB8
:101D300020E030EC4FE754E40E94763E20E030E0B3
:101D400048EC51E415C089E20E94E92DAA2797FDCD
:101D5000A095BA2FBC01CD010E940C3F20E030ECD1
:101D60004FE754E40E94763E20E030E040EA50E441
:101D70000E94C03FAB01BC0181E00E9423020DC064
:101D800081EE91E00E941A16682F81E070E00E94B7
:101D9000530203C080E00E948002DF91CF9108953A
:101DA000843018F4813048F403C0843069F408C0EA
:101DB000862FBA010E94610D08950E94B007089510
:101DC00084E00E94F703089580E00E948002089555
:101DD00092E0909340010E94D00E089591E090937C
:101DE00040010E94D00E0895623069F0633018F40B
:101DF0006130C1F405C0633051F0643099F40AC019
:101E00000E948D07089581E00E94C70C08950E94EA
:101E10005A0D089580E00E94442A8CE06AE070E048
:101E20000E949F0C0895CF92DF92EF92FF920F9342
:101E30001F93CF93DF93AFEFEA2EA1E0FA2E00E0DD
:101E400010E0F0ECCF2ED12C0C9DE0010D9DD00DBB
:101E50001C9DD00D1124CF51DE4FCE010E941A16C9
:101E6000882351F5F7018081882331F5CE010E9446
:101E70002A16882309F12BC081E894E00E942E15D0
:101E80008823A1F082E894E061E00E948A23809197
:101E9000E901813041F08091A902813021F08091E7
:101EA00069038130A1F40E945A0D11C082E894E0C8
:101EB00060E00E948A230BC00F5F1F4F80EC90E010
:101EC000E80EF91E0330110509F0BECFD5CFDF9122
:101ED000CF911F910F91FF90EF90DF90CF900895D9
:101EE000EF92FF920F931F9381E294E00E944E299C
:101EF00080EB94E00E944E298091BD01882309F473
:101F000067C00E940C2D2091B5013091B60140911F
:101F1000B7015091B801E090B901F090BA01009179
:101F2000BB011091BC012E193F09400B510B260F2C
:101F3000371F481F591F2093B5013093B6014093B6
:101F4000B7015093B8016093B9017093BA018093BF
:101F5000BB019093BC018091BE01813019F480E0F7
:101F60000E94C70C81E894E00E942E158823E9F0B6
:101F70002091C2013091C3014091C4015091C5012B
:101F8000211531054105510581F08091B5019091F0
:101F9000B601A091B701B091B801281739074A07D7
:101FA0005B0718F481E00E94C70C81E894E00E946E
:101FB0002E15882349F40E943115882329F082E8E0
:101FC00094E061E00E948A2382E894E00E948D23DD
:101FD0001F910F91FF90EF900895EF92FF920F9352
:101FE0001F93CF93DF938CEA96E040E855E260E0E0
:101FF00070E00E94C03264E670E080E090E00E94F1
:10200000402D63E876E080E090E00E94CB1484EA03
:1020100094E06FE171E00E940C328CEA96E06BE292
:1020200071E00E940C320E940C2D6093C6017093E7
:10203000C7018093C8019093C9018CE061E00E94C0
:10204000182E80E061E00E94182E80E061E00E947E
:102050009B2E8AE260E00E94182E89E260E00E94D6
:10206000182E0E9475070E94660C82E894E060E0DA
:102070000E948A2381E894E061E00E94DC1583EEEF
:1020800094E00E9429158AEC91E048E750E060E076
:1020900070E00E94D0238AEC91E060E070E00E9442
:1020A000D6238AEC91E060E070E00E94CC238AECB9
:1020B00091E062E775E00E94C7238AE896E040E07D
:1020C00051EE60E070E00E94442F60912E0181E2A9
:1020D00094E070E00E94152581E294E06EEE7EE0CF
:1020E0000E94E82781E294E065E475E00E94F4270D
:1020F00081E294E064EF7EE00E94EE2781E294E0CA
:1021000060E00E94102560912E0180EB94E070E069
:102110000E94152580EB94E068EE7EE00E94E8279F
:1021200080EB94E06FE275E00E94F42780EB94E08E
:1021300064EF7EE00E94EE2780EB94E061E00E9475
:10214000102581E294E066E275E00E94242580EB90
:1021500094E066E275E00E942425C0E0D0E0B0EC97
:10216000EB2EF12CCE9D8001CF9D100DDE9D100D2C
:1021700011240F511E4FC80160E00E940616C801CD
:1021800060E00E941516C80160EA7FE00E945516C3
:10219000C80160E273E00E949316C80161E00E94EA
:1021A000D71BC80164E00E94A81D2196C330D10549
:1021B000C9F68CE065E070E00E949F0CDF91CF9142
:1021C0001F910F91FF90EF900895611571058105A2
:1021D000910569F481E090E0A0E0B0E080931805FB
:1021E00090931905A0931A05B0931B0508C060933E
:1021F00018057093190580931A0590931B05509349
:102200001D0540931C05809170008E7F80937000A7
:102210008091B0008C7F8093B0008091B100877F67
:102220008093B1008091B6008F7D8093B60080913D
:1022300070008D7F809370008091B10084608093E6
:10224000B1008091B1008C7F8093B10086E090E076
:102250009093240580932305089510921E051092F3
:102260001F051092200510922105109222058091E1
:102270002305909124058093B200E0E7F0E080818F
:10228000816080830895E0E7F0E080818E7F808325
:10229000089580911E0590911F05A0912005B09191
:1022A00021050196A11DB11D80931E0590931F0568
:1022B000A0932005B093210580911E0590911F05E4
:1022C000A0912005B09121052091180530911905A4
:1022D00040911A0550911B0582179307A407B50773
:1022E00010F1809122058823F1F481E0809322058A
:1022F00080911E0590911F05A0912005B0912105A8
:10230000821B930BA40BB50B80931E0590931F05A6
:10231000A0932005B0932105E0911C05F0911D05C7
:1023200009951092220508951F920F920FB60F92F1
:102330000BB60F9211242F933F934F935F936F939C
:102340007F938F939F93AF93BF93EF93FF9380916E
:102350002305909124058093B2000E944911FF91BA
:10236000EF91BF91AF919F918F917F916F915F910D
:102370004F913F912F910F900BBE0F900FBE0F907A
:102380001F9018951F920F920FB60F920BB60F92D7
:1023900011242F933F934F935F936F937F938F936A
:1023A0009F93AF93BF93EF93FF93E0912905F09133
:1023B0002A050995FF91EF91BF91AF919F918F9160
:1023C0007F916F915F914F913F912F910F900BBE35
:1023D0000F900FBE0F901F901895FC01A3E0440FC3
:1023E000551F661F771FAA95D1F7403080E0580728
:1023F00081E0680780E0780714F481E010C033E0E2
:1024000075956795579547953A95D1F7403080E097
:10241000580781E0680780E078071CF482E0828337
:1024200039C023E075956795579547952A95D1F75B
:10243000403080E0580781E0680780E0780714F4B6
:1024400083E0EDCF92E075956795579547959A95FE
:10245000D1F7403080E0580781E0680780E07807D6
:1024600014F484E0DCCF82E0759567955795479525
:102470008A95D1F7403080E0580781E0680780E016
:10248000780714F485E0CBCF85E082834FEF5FEFD0
:1024900060E070E08FB78383F8945183408350935A
:1024A00087004093860083818FBF80918100887F61
:1024B00080938100809181009281892B809381009B
:1024C00008951092800020E1209381000E94ED1178
:1024D0000895EFE6F0E080818E7F80830895E1E843
:1024E000F0E02081DC0112968C91282B2083089546
:1024F0000F931F93CF93DF93EC018B0112161306FA
:102500001406150624F4BA01A9010E94ED111D83D9
:102510000C8381E080936F00CE010E946F12DF91E7
:10252000CF911F910F910895F999FECF72BD61BDB2
:10253000F89A80B50895F999FECF1FBA72BD61BDB2
:1025400040BD0FB6F894FA9AF99A0FBE0895282F55
:1025500090918A059F5F943408F090E080918B05FC
:102560008917E1F33FB7F89480918705882341F0FC
:10257000E92FF0E0E457FA4F208390938A051DC0BD
:1025800081E080938705209388051092890582E079
:1025900088BB80917100826080937100809190006F
:1025A0008F73806880939000809194009091950043
:1025B000409690939900809398003FBF0895862F8E
:1025C0000E94A71281E090E008951F920F920FB62B
:1025D0000F920BB60F9211242F933F934F935F935B
:1025E0006F937F938F939F93EF93FF934091870512
:1025F0005091880520919800309199006091830551
:1026000070918405809189051FC0260F371F952F73
:10261000917056954F5F9817B9F0992321F08091EA
:102620009000806C04C0809190008F7380688093CC
:1026300090003093990020939800909389055093CF
:102640008805409387053BC04930F8F2493039F49A
:102650008AE08093870580919000806C28C08091EB
:102660008A05E0918B058E1769F410928705809199
:1026700090008F7380939000809171008D7F809384
:1026800071001DC081E080938705EF5FE43408F09E
:10269000E0E0E0938B05F0E0E457FA4F808180930F
:1026A000880510928905809190008F7380688093CF
:1026B0009000260F371F3093990020939800FF91C8
:1026C000EF919F918F917F916F915F914F913F918A
:1026D0002F910F900BBE0F900FBE0F901F9018956B
:1026E000809187058823E1F708950E94701308956B
:1026F0001F920F920FB60F920BB60F9211241F93D9
:102700002F933F934F935F936F937F938F939F93F9
:10271000AF93BF93EF93FF93209196003091970072
:1027200090917F05992341F0809191008F7B809358
:10273000910010927F0508C0809191008064809381
:10274000910080E880937F0570917E05772331F5B5
:10275000992309F06CC08091810590918205820FC8
:10276000931F90939B0080939A0084E088BB809194
:10277000710084608093710080918305909184053D
:10278000280F391F96958795280F391F3093860596
:102790002093850581E080937E0549C040918505A1
:1027A0005091860510917F05E0918305F091840595
:1027B00060918005AA27BB27AE1BBF0BC901841BF4
:1027C000950B97FD2CC06695612B7F5F8A0F9B1F31
:1027D000793018F44E0F5F1FF4CF6093800580911D
:1027E00071008B7F8093710090912D059F5F9035D4
:1027F00008F090E080912C05981739F0E92FF0E06F
:10280000E25DFA4F608390932D05809191008F7B5C
:102810008093910010927F0510927E0508C060930E
:102820008005509386054093850570937E05FF9142
:10283000EF91BF91AF919F918F917F916F915F9138
:102840004F913F912F911F910F900BBE0F900FBE94
:102850000F901F9018951F920F920FB60F920BB604
:102860000F9211242F938F939F93EF93FF93809157
:1028700071008B7F80937100809191008F7B80939A
:10288000910090917E0580917F0580582091800570
:1028900003C02695282B9F5F9930D8F3209380059D
:1028A00090912D059F5F903508F090E080912C0568
:1028B000981739F0E92FF0E0E25DFA4F208390930A
:1028C0002D0510927E05809191008F7B8093910061
:1028D00010927F05FF91EF919F918F912F910F9013
:1028E0000BBE0F900FBE0F901F90189580912D0575
:1028F000E0912C058E1719F42FEF3FEF0EC02E2F0D
:102900002F5F203508F020E0E22FF0E0E25DFA4F83
:10291000808120932C05282F30E0C90108958091F3
:102920002D05E0912C058E1719F4EFEFFFEF06C08F
:10293000F0E0E25DFA4F8081E82FF0E0CF010895EA
:1029400090912D0580912C05292F30E0482F50E0E3
:10295000981710F4205B3F4F241B350BC9010895D5
:1029600080912C0580932D0508950F931F9301E707
:1029700010E0F80180818B7F808380818F7D808350
:102980000E94B0140E947013F80180818D7F8083B3
:102990001F910F9108959B01AC012D3A8BE13807EF
:1029A00080E0480780E0580730F4109271001092E0
:1029B000900081E814C063E05695479537952795B8
:1029C0006A95D1F72D3A8BE1380780E0480780E01F
:1029D0005807D0F5109271001092900082E8809311
:1029E00091003093840520938305CA01B90125E243
:1029F00030E040E050E00E94234052E096958795F9
:102A0000779567955A95D1F7709382056093810504
:102A100087E162E00E94182E86E161E00E949B2E11
:102A200086E161E00E94182E10927E0510922D051D
:102A300010922C051092870510928A0510928B0532
:102A400080E288BB80937100089581E08093DC056B
:102A500008959093DE058093DD050895FC01808143
:102A600008958091DC051092DC05811181E00895C4
:102A70008091DF05882319F089B1847002C089B183
:102A80008870882359F40E941A2D6093E005709392
:102A9000E1058093E2059093E30508950E941A2DC5
:102AA0002091E0053091E1054091E2055091E30568
:102AB000E091DD05F091DE05309731F0621B730B7C
:102AC000840B950BCB0109950895FC018081882327
:102AD00071F083E160E00E949B2E65E070E080E091
:102AE00090E00E94402D83E161E00E949B2E0895BA
:102AF0008091DF050E94102B089580E00E94102B2A
:102B000083E161E00E94182E83E161E00E949B2E28
:102B10000895FC01108282E060E00E94182E83E09C
:102B200060E00E94182E83E160E00E94182E82E08F
:102B300061E00E949B2E83E061E00E949B2E83E176
:102B400061E00E949B2E08950F931F93082F015060
:102B50000230F8F48091DF050E94102B1092DF05FF
:102B6000002319F081E08093DF05002311F013E0CA
:102B700001C012E0812F60E00E94182E812F61E0D9
:102B80000E949B2E802F68E375E141E050E00E9497
:102B9000942A1F910F91089583E160E00E94182EFE
:102BA00083E161E00E949B2E80E065E275E142E0F6
:102BB00050E00E94942A0895FC016083662319F076
:102BC0000E947D1508950E94CC1508950895FC017A
:102BD000EA54FF4F80810895FC01EB59FF4F80813B
:102BE0000895FC01E754FF4F0190F081E02D3097EC
:102BF00011F0862F09950895FC01E954FF4F80815B
:102C00000895FC01E954FF4F60830895FC01E05AE8
:102C1000FF4F60830895FC01E05AFF4F80810895C3
:102C2000FC01EE59FF4F80810895FC01EF59FF4FE1
:102C300060830895FC01EF59FF4F80810895FC01E6
:102C4000E255FF4F60817181828193810E94DE3E57
:102C5000CB010895FC01ED59FF4F80810895FC01DF
:102C6000E855FF4F40835183628373830895FC01CD
:102C7000E855FF4F60817181828193810895FC0145
:102C8000ED57FF4F40835183628373830895FC01A6
:102C9000ED57FF4F60817181828193810895FC011E
:102CA000E35AFF4F80819181089587E26031780770
:102CB00081F083E16838780761F08FE0603A780747
:102CC00041F087E0603D780721F083E0683E7807B7
:102CD000B1F49B0140E050E060E472E48FE090E0EA
:102CE0000E945640309342012093410188EE93E0C8
:102CF000B9010E94424070934401609343010895DA
:102D000080914101909142010895209141013091BB
:102D1000420140E050E060E472E48FE090E00E9405
:102D20007840C90108950F931F93CF93DF93EC016F
:102D30008B010E9485168017910738F00115110547
:102D400021F0C35ADF4F19830883DF91CF911F9180
:102D50000F910895AF92BF92CF92DF92EF92FF92C0
:102D60000F931F93CF93DF93EC015A016B010E94E5
:102D70008516A0E0B0E0BC01CD010E940A3F9B0196
:102D8000AC01C601B5010E94BC3F18169CF1C255AA
:102D9000DF4FA882B982CA82DB82609143017091C1
:102DA000440180E090E00E940A3F7B018C01C60153
:102DB000B50120E030E04AE754E40E94763E9B01F2
:102DC000AC01C801B7010E94763E7B018C010E94D4
:102DD000DE3EA79769937993899399930E940A3F5E
:102DE0009B01AC01C801B7010E940D3E6883798345
:102DF0008A839B83DF91CF911F910F91FF90EF907A
:102E0000DF90CF90BF90AF900895FC01E158FF4F45
:102E10002081318142815381B901CA0108951F93F4
:102E2000CF93DF93EC01162F0E942A16882339F5E1
:102E3000143049F4C554DF4F81EB97E199838883BF
:102E4000CB5BD04019C0153049F4C554DF4F80EA40
:102E500098E1899399938DE499E10AC0163079F449
:102E6000C554DF4F80EA98E18993999385EB99E106
:102E700099838883CD5BD040C854DF4F1883DF919E
:102E8000CF911F910895FC01E854FF4F8081089570
:102E9000FC01E158FF4F1082118212821382789652
:102EA00010821182128213823C9680E090E0A0E0B2
:102EB000B0E080839183A283B383389711921192FB
:102EC0001192119210821182128213820895CF936F
:102ED000DF93EC01FC01E158FF4F208131814281F9
:102EE0005381CB01AA2797FDA095BA2F820F931F7C
:102EF000A41FB51F80839183A283B383CB59DF4F77
:102F00008881C556D040882319F4709561957F4F0C
:102F1000FE01EE54FF4F2081318142815381CB016C
:102F2000AA2797FDA095BA2F820F931FA41FB51F44
:102F300080839183A283B383DF91CF910895FC01B5
:102F4000EE54FF4F10821182128213820895FC0109
:102F5000EE54FF4F2081318142815381B901CA0172
:102F600008956F927F928F929F92AF92BF92CF926D
:102F7000DF92EF92FF920F931F93CF93DF93782E00
:102F80005A016B014901882321F0E901CB5BDF4F36
:102F900002C0E901AD96E880F9800A811B81C60173
:102FA000B501A80197010E94723E18163CF0C601B7
:102FB000B501A80197010E94763E29C0C601B5015E
:102FC000288939894A895B890E94723E18162CF03B
:102FD000EC84FD840E851F8522C0C601B501A801C1
:102FE00097010E940D3E288539854A855B850E94A0
:102FF0000D3E2C813D814E815F810E94763E9B017A
:10300000AC0160E070E080E89FE30E940D3E2C85FB
:103010003D854E855F850E94C03F7B018C017720F6
:10302000C9F5609143017091440180E090E00E94F5
:103030000A3FA80197010E94763E7B018C010E9405
:10304000DE3E27E830E0820E931EF4016193719317
:10305000819391934F010E940A3F9B01AC01C801EB
:10306000B7010E940D3EE401688379838A839B83C4
:1030700020E030E040E85FE30E94BC3F18160CF00F
:1030800050C080E090E0A0E0B0E088839983AA83FC
:10309000BB8347C0C801B7010E94DE3E5B016C01E3
:1030A00087E9682E712C680C791CF301A082B1822B
:1030B000C282D382E401CD55DF4FC601B5010E9423
:1030C0000A3F9B01AC01C801B7010E940D3E288157
:1030D00039814A815B810E940E3E7B018C016883AD
:1030E00079838A839B8320E030E040E85FE30E949D
:1030F000BC3F8823B4F0C801B70120E030E040E8CD
:103100005FE30E940D3E688379838A839B83D601A7
:10311000C5010196A11DB11DF30180839183A28396
:10312000B383DF91CF911F910F91FF90EF90DF90CC
:10313000CF90BF90AF909F908F907F906F900895A9
:103140008F929F92AF92BF92CF92DF92EF92FF92B7
:103150000F931F93CF93DF93D82EE901882321F09B
:10316000C9018B5B9F4F02C0C9018D96C354DF4FCD
:10317000E881F981CD5BD04009957B018C01DD2090
:10318000D9F5609143017091440180E090E00E9484
:103190000A3FA80197010E94763E7B018C010E94A4
:1031A000DE3EFE01E957FF4F608371838283938384
:1031B00060817181828193810E940A3F9B01AC01F1
:1031C000C801B7010E940D3EC557DF4F6883798360
:1031D0008A839B8320E030E040E85FE30E94BC3FAD
:1031E00018160CF04DC080E090E0A0E0B0E08883BD
:1031F0009983AA83BB8344C00E94DE3E5B016C01BD
:1032000097E9892E912C8C0E9D1EF401A082B1822B
:10321000C282D382CD55DF4FC601B5010E940A3F5D
:103220009B01AC01C801B7010E940D3E2881398184
:103230004A815B810E940E3E7B018C016883798309
:103240008A839B8320E030E040E85FE30E94BC3F3C
:103250008823B4F0C801B70120E030E040E85FE324
:103260000E940D3E688379838A839B83D601C501C2
:103270000196A11DB11DF40180839183A283B383C4
:10328000DF91CF911F910F91FF90EF90DF90CF9042
:10329000BF90AF909F908F900895AF92BF92CF92C2
:1032A000DF92EF92FF920F931F93CF93DF93EC0186
:1032B0007A018B01A880B980CA80DB80CB01BA017A
:1032C000A60195010E94723E88233CF4C801B70113
:1032D000A60195010E94763E29C0C801B701288940
:1032E00039894A895B890E94723E18162CF0EC8558
:1032F0007D858E856F8528C0C801B701A60195011F
:103300000E940D3E288539854A855B850E940D3EC9
:103310002C813D814E815F810E94763E9B01AC01F4
:1033200060E070E080E89FE30E940D3E7B018C012D
:103330002C853D854E855F850E94C03FA801970181
:103340000E94C03FE62F692F2E2F372F482F562F70
:10335000B901CA01DF91CF911F910F91FF90EF90BA
:10336000DF90CF90BF90AF900895AF92BF92CF9271
:10337000DF92EF92FF920F931F93CF93DF93EC01B5
:103380007A018B01A880B980CA80DB80CB01BA01A9
:10339000A60195010E94723E88237CF4C801B70102
:1033A000A60195010E94763E9B01AC0160E070E0B1
:1033B00080E89FE30E940D3E21C0C801B701288923
:1033C00039894A895B890E94723E18162CF0EC8577
:1033D0007D858E856F852AC0C801B701A60195013C
:1033E0000E940D3E288539854A855B850E940D3EE9
:1033F0002C813D814E815F810E94763E7B018C0154
:10340000AC84BD84CE84DF84C601B501A8019701D8
:103410000E94C03FA80197010E94C03F9B01AC01E0
:10342000C601B5010E940D3EE62F692F2E2F372FC2
:10343000482F562FB901CA01DF91CF911F910F91EB
:10344000FF90EF90DF90CF90BF90AF900895CF9313
:10345000DF93EB0120E030E040E050E42C8B3D8B2B
:103460004E8B5F8BFC01E854FF4FE081E53029F47F
:103470008AEF9FEFAFE3B0E406C0E63041F485EF9A
:1034800091E0A0ECBFE38C8B9D8BAE8BBF8BDF916B
:10349000CF9108952F923F924F925F926F927F92B9
:1034A0008F929F92AF92BF92CF92DF92EF92FF9254
:1034B0000F931F93DF93CF93CDB7DEB72A970FB645
:1034C000F894DEBF0FBECDBFFC012F83388749873C
:1034D0005A8735014601ED56FF4F80819181A281C7
:1034E000B38189839A83AB83BC83E359F04066231D
:1034F00029F4DF019D96BE83AD8311C0CF018B5BA4
:103500009F4F9E838D83E556FF4F80819181A281DD
:10351000B38189839A83AB83BC83EB59F040CF019D
:103520006D817E810E94271AC801B7010E940A3F5F
:103530005B016C01C401B3010E940A3FA601950121
:103540000E94763E7B018C01AD81BE816D937D939F
:103550008D939C9313976F8D78A189A19AA10E9456
:103560000A3FA60195010E94763E3B014C01ED8188
:10357000FE816483758386839783A80197010E94E7
:103580000E3E9B01AC0160E070E080E89FE30E948A
:103590000D3E5B016C01AD81BE8118966D937D93EC
:1035A0008D939C931B97C801B701A60195010E94BA
:1035B0000E3EED81FE81608B718B828B938B248814
:1035C000358846885788C801B701A20191010E9439
:1035D000763EA60195010E940E3E7B018C01C4013E
:1035E000B301A20191010E94763E9B01AC01C8018A
:1035F000B7010E940E3E9B01AC016F8178858985E1
:103600009A850E94763EA60195010E94C03F7B01EB
:103610008C0169817A818B819C810E940A3FA6017D
:1036200095010E94C03F9B01AC01C801B7010E94F7
:10363000763EAD81BE811C966D937D938D939C9358
:103640001F972A960FB6F894DEBF0FBECDBFCF915D
:10365000DF911F910F91FF90EF90DF90CF90BF907F
:10366000AF909F908F907F906F905F904F903F9022
:103670002F9008954F925F926F927F928F929F92B8
:10368000AF92BF92CF92DF92EF92FF920F931F9370
:10369000DF93CF93CDB7DEB74C012A013B01C801C0
:1036A000B70147E950E0840E951EF40110821182A3
:1036B000128213824CE050E0840E951E0F2EF0E033
:1036C000EF2EF0E0FF2EF0E00F2FF0E01F2FF02D97
:1036D000F401E082F1820283138348EF5FEF840EEE
:1036E000951EF40141925192619271924F011082A4
:1036F00011821282138248E050E0840E951EF4017C
:10370000208329E53FEF820E931E00D000D00DB735
:103710001EB70F5F1F4F0E940A3F9B01AC018B89B0
:103720009C89AD89BE89F80180839183A283B3838C
:10373000C40161E0830172010E944A1A0F900F9048
:103740000F900F90CF91DF911F910F91FF90EF900D
:10375000DF90CF90BF90AF909F908F907F906F90B1
:103760005F904F900895CF93DF93FC01EC01CA590D
:10377000DF4F88818823C1F0E559FF4F11921192E4
:103780001192119211921192119211921082118242
:10379000128213823C9780E090E0A0E0B0E080834A
:1037A0009183A283B3831882DF91CF910895FC01A6
:1037B000EE59FF4F6083E256F04083A10E949B2E9A
:1037C0000895EF92FF921F93CF93DF93EC01162F92
:1037D00025E6E22EF12CE80EF91EF701808168172C
:1037E00059F08DA10E949B2EC15ADF4F81E0888342
:1037F000F701108325961883DF91CF911F91FF90D9
:10380000EF900895CF93DF93EC01CD59DF4F1882ED
:10381000239681E08883C656D040CE010E941016C0
:10382000882321F08BA161E00E949B2EFE01EC59C0
:10383000FF4FCE0160810E94E11BCE0161E00E943A
:10384000F115DF91CF9108958F929F92AF92BF9221
:10385000CF92DF92EF92FF920F931F93CF93DF935C
:10386000EC01C958DF4FE880F9800A811B81C757F6
:10387000D040E114F1040105110509F491C0F3E70A
:103880008F2E912C8C0E9D1EF4012081318142815E
:1038900053818091430190914401A0E0B0E028174A
:1038A00039074A075B0708F47BC0BE0161577F4FA9
:1038B000FB0180819181A281B381CD56DF4FA88029
:1038C000B980CA80DB80C359D0408A159B05AC05FE
:1038D000BD05C1F5EFE6CE2ED12CCC0EDD1EF601D6
:1038E00080819181A281B3818E159F05A007B107C8
:1038F000B8F42150304040405040F40120833183DF
:10390000428353830196A11DB11DF60180839183EB
:10391000A283B383CE0161E070E00E94671716C1F5
:10392000F6011082118212821382FB011082118231
:1039300012821382F4011082118212821382C959F9
:10394000DF4FB5C0FB0180819181A281B3810196D7
:10395000A11DB11D80839183A283B3836081718196
:1039600082819381C554DF4F0E940A3F7B018C0105
:10397000C601B5010E940A3F9B01AC01C801B70115
:103980000E94763EAB01BC01E881F981CB5BD0405F
:1039900080E09E010995F401108211821282138247
:1039A000FE01ED58FF4F80819181A281B381019684
:1039B000A11DB11D80839183A283B38337E6C32EFB
:1039C000D12CCC0EDD1EF601E080F1800281138146
:1039D000C801B70120E030E040E85FE30E94BC3F4F
:1039E000882374F0C801B70120E030E040E85FE3CD
:1039F0000E940D3EF601608371838283938368C0C9
:103A0000FE01E559FF4F80819181A281B38101962A
:103A1000A11DB11D80839183A283B383C957DF4F5A
:103A2000288139814A815B81C758D040821793072A
:103A3000A407B50708F44CC0CD57DF4F2881398162
:103A40004A815B81C358D04021153105410551059C
:103A500069F0C158DF4F88819981AA81BB81CF5716
:103A6000D04082179307A407B507D0F4C958DF4F99
:103A7000288139814A815B81C757D04021153105A2
:103A80004105510599F1C159DF4F88819981AA817A
:103A9000BB81CF56D04082179307A407B50730F1FA
:103AA000C159DF4F188219821A821B82289780E041
:103AB00090E0A0E0B0E089939993A993B99318821C
:103AC00019821A821B82CB56D040CE010E94021C62
:103AD00080E0DF91CF911F910F91FF90EF90DF90E9
:103AE000CF90BF90AF909F908F900895C559DF4FB2
:103AF000188219821A821B82CB56D040FE01E159EE
:103B0000FF4F80819181A281B3810196A11DB11DDA
:103B100080839183A283B383CE0161E070E00E9431
:103B200067178E0109591F4FC557DF4FF801608194
:103B3000718182819381288139814A815B810E94D0
:103B40000E3EF801608371838283938381E0C1CF4D
:103B5000DF92EF92FF920F931F93CF93DF93EC01CD
:103B6000FC01EA54FF4FD0806083643081F06530FF
:103B700018F4623041F405C0683059F0603119F42E
:103B80000BC061E001C060E010E000E008C060E050
:103B900001C061E011E0F9CF61E011E001E08FA127
:103BA0000E949B2E89A5612F0E949B2E8BA5602FC2
:103BB0000E949B2ECA54DF4F6881C65BD040D61648
:103BC00099F1CE54DF4F6D15C8F4E880F9800A8171
:103BD0001B818D2D90E070E00E9442409B014427A4
:103BE00037FD4095542FC801B7010E947840C901A4
:103BF000DA0188839983AA83BB8316C0088119815F
:103C00002A813B81862F90E06D2D70E00E9442401A
:103C1000882777FD8095982FA90198010E9423405D
:103C2000688379838A839B83DF91CF911F910F9162
:103C3000FF90EF90DF900895CF92DF92EF92FF9286
:103C40001F93CF93DF93EC01162F69017A010E9435
:103C5000EC15CC59DF4F8883C456D040CE01612F7C
:103C60000E94E11BCE010E942A168823D9F4C9586C
:103C7000DF4FC882D982EA82FB82C757D040CE018B
:103C80000E941016882351F08BA160E00E949B2EA9
:103C90006AE070E080E090E00E94402DCD59DF4F57
:103CA00081E08883DF91CF911F91FF90EF90DF90AB
:103CB000CF9008953F924F925F926F927F928F9232
:103CC0009F92AF92BF92CF92DF92EF92FF920F93AB
:103CD0001F93DF93CF93CDB7DEB72A970FB6F89433
:103CE000DEBF0FBECDBF9A878987362E29013A01E4
:103CF0000E940B16882309F45FC089859A850E946B
:103D00004716611571058105910509F497C18985EB
:103D10009A850E9405177B018C0189859A850E94EE
:103D20004716E616F7060807190708F487C144C0C6
:103D300089859A850E941A16882309F485C1898588
:103D40009A850E942A168823B1F429853A85295834
:103D50003F4FD9011D921D921D921C921397A75798
:103D6000B040BA87A987CD01632D20E030E040E064
:103D700050E00E941C1E89859A8563E045C18985B3
:103D80009A8568E873E10E94551609851A85015ADB
:103D90001F4FF8018081882351F089859A850E9400
:103DA000FC15480E511C611C711CD8011C92411459
:103DB00051046104710421F489859A8561E024C16C
:103DC000E985FA85E154FF4F8081EF5BF040FA8787
:103DD000E987882309F0FFC0BF01635D7F4FCF01F2
:103DE0000E94271A89859A850E9485168C018985EB
:103DF0009A850E944F16F82EE92EF0E24F16F3E056
:103E00005F06F0E06F06F0E07F0628F020E030E08B
:103E100048E453E40DC0C301B201B2E09695879522
:103E200077956795BA95D1F70E940A3F9B01AC013F
:103E3000CA01B9010E940E3E69837A838B839C83F9
:103E4000C301B2010E940A3F6D837E838F839887EE
:103E50008F2D9E2D9C010217130708F49801B901BC
:103E600080E090E00E940A3F7B018C0169817A81A9
:103E70008B819C81A80197010E94763E20E030E072
:103E80004AE754E40E94C03FE985FA85EF5BFF4FA3
:103E900020813181428153810E94C03F5B016C01CE
:103EA0006D817E818F81988529813A814B815C81EA
:103EB0000E940D3EA80197010E94763E20E030E06E
:103EC0004AE754E40E94C03FA60195010E940E3EBD
:103ED00020E030E040E85FE30E940E3E7B018C0171
:103EE00020E030E048E452E40E94723E882354F41B
:103EF0000F2EF0E0EF2EF0E0FF2EF8E40F2FF2E4AB
:103F00001F2FF02DC801B7010E94DE3E7B018C01FE
:103F1000A3E98A2E912C29853A85820E931ED4011D
:103F20006D937D938D939C931397C601B50120E00B
:103F300030E040E05FE30E94C03F0E94DE3E5B0154
:103F40006C0100D000D0EDB7FEB76183728383832C
:103F5000948389859A8560E02D813E814F815885C3
:103F60000E944A1AE985FA85E157FF4F81E090E007
:103F7000A0E0B0E080839183A283B38360817181EC
:103F8000828193810F900F900F900F9029853A8531
:103F900025543F4F3A8729870E940A3F7B018C01B5
:103FA000D4016D917D918D919C910E940A3F9B015E
:103FB000AC01C801B7010E94763EAB01BC01A985E6
:103FC000BA85ED91FC911197AB5BB040BA87A98798
:103FD00080E09D010995E985FA85E958FF4FDF01E9
:103FE0004082518262827382A85BBF4F1C92AF5B9A
:103FF000B040BA87A987CD01632DA30192010E9429
:104000001C1E89859A8562E00E94F1152A960FB6DA
:10401000F894DEBF0FBECDBFCF91DF911F910F91FE
:10402000FF90EF90DF90CF90BF90AF909F908F90D8
:104030007F906F905F904F903F900895411451048E
:104040006104710409F474CE89859A850E948516ED
:104050008958934108F499CE92CECF93DF93EC0127
:104060000E94A7176115710581059105D9F0CA59FC
:10407000DF4F81E08883C45BDF4F288139814A812B
:104080005B81C25BD04057FD02C060E008C0509524
:104090004095309521953F4F4F4F5F4F61E0CE01E6
:1040A0000E945A1EDF91CF910895FF920F931F93A4
:1040B0008C010E94EC15F82EC8010E9437169B0156
:1040C000AC01C8016F2D0E945A1E1F910F91FF90E5
:1040D00008952F923F924F925F926F927F928F92AC
:1040E0009F92AF92BF92CF92DF92EF92FF920F9387
:1040F0001F93DF93CF9300D000D00F92CDB7DEB7E0
:104100003C0169832A833B834C835D83170128012B
:104110000E940B168823A9F0C3010E94471661155F
:1041200071058105910591F0C3010E9405177B017E
:104130008C01C3010E944716E616F7060807190707
:1041400028F0C30161E00E94F1156FC013E9812ED0
:10415000912C860C971CD4012D923D924D925C922D
:10416000139700D000D00DB71EB70F5F1F4F6A81A5
:104170007B818C819D810E940A3F9B01AC018A8DCD
:104180009B8DAC8DBD8DF80180839183A283B38319
:10419000C30160E0820171010E944A1AF301E157F4
:1041A000FF4F81E090E0A0E0B0E080839183A283A4
:1041B000B38360817181828193810F900F900F9002
:1041C0000F902BEB30E0620E731E0E940A3F7B01C2
:1041D0008C01D4016D917D918D919C910E940A3F3B
:1041E0009B01AC01C801B7010E94763EAB01BC0146
:1041F000D301ED91FC9125E43FEF620E731E80E048
:10420000930109958FEB90E0680E791E81E0D30150
:104210008C93E1E4FFEF6E0E7F1EC30169812A815A
:104220003B814C815D810E945A1E0F900F900F9030
:104230000F900F90CF91DF911F910F91FF90EF9012
:10424000DF90CF90BF90AF909F908F907F906F90B6
:104250005F904F903F902F900895CF92DF92EF9212
:10426000FF920F931F93CF93DF93EC010E940B16E5
:10427000882379F00FE9C02ED12CCC0EDD1EF6017B
:10428000608171818281938161157105810591053C
:1042900079F4CE0161E00E94F11543C00197A109B4
:1042A000B109C156DF4F88839983AA83BB8339C084
:1042B0000E940A3F7B018C01C556DF4F68817981DE
:1042C0008A819B810E940A3F9B01AC01C801B70112
:1042D0000E94763EAB01BC01A096E881F981CB5BE0
:1042E000D04081E09E010995C955DF4F688181E08A
:1042F00068276097288139814A815B81C759D040FE
:10430000CE010E945A1EF60180819181A281B38163
:104310000097A105B10511F680E090E0A0E0B0E0C3
:10432000C0CFDF91CF911F910F91FF90EF90DF9061
:10433000CF900895AF92BF92CF92DF92EF92FF920B
:104340000F931F93CF93DF93EC010E940B168823EA
:1043500049F1CE010E94471661157105810591054D
:1043600069F0CE010E9405177B018C01CE010E94ED
:104370004716E616F70608071907A0F4FE01E156EE
:10438000FF4F6081718182819381C556DF4FA88084
:10439000B980CA80DB80CB59D0406A157B058C057B
:1043A0009D0528F0CE0161E00E94F1152FC06F5FDE
:1043B0007F4F8F4F9F4F6083718382839383C55458
:1043C000DF4F0E940A3F7B018C01C601B5010E94AC
:1043D0000A3F9B01AC01C801B7010E94763EAB01C8
:1043E000BC01E881F981CB5BD04081E09E01099559
:1043F000C956DF4F288139814A815B81C759D04036
:10440000CE01C955DF4F68810E945A1EDF91CF91BE
:104410001F910F91FF90EF90DF90CF90BF90AF90E2
:1044200008952F923F924F925F926F927F928F9258
:104430009F92AF92BF92CF92DF92EF92FF920F9333
:104440001F93DF93CF93CDB7DEB73C01862FE7E70D
:10445000F0E06E0E7F1EF301108211821282138231
:10446000E7E3F0E06E0E7F1E0F2EF0E02F2EF0E05F
:104470003F2EF8EC4F2EF2E45F2EF02DF301208258
:10448000318242825382E1EDFFEF6E0E7F1EF30117
:104490001082118212821382E9E2F0E06E0E7F1E1A
:1044A000F3011082118212821382EBEDFFEF6E0E88
:1044B0007F1EF3011082118212821382ECE0F0E081
:1044C0006E0E7F1EF30111921192119211923F0113
:1044D0001082118212821382E4EFFFEF6E0E7F1EB4
:1044E000F30111921192119211923F010F2EF0E0FF
:1044F0002F2EF0E03F2EF0E04F2EF0E05F2EF02D5B
:104500002082318242825382E7E2F0E06E0E7F1E0B
:10451000F3011082118212821382E5EEFFEF6E0E1C
:104520007F1EF3011082118212821382ECE0F0E010
:104530006E0E7F1EF3012082318242825382E8EFA9
:10454000FFEF6E0E7F1EF3011192119211921192E4
:104550003F011082118212821382E8E0F0E06E0EB9
:104560007F1EF3011082EDEBFFEF6E0E7F1EF30155
:1045700011923F011082EAEFFFEF6E0E7F1EF301F2
:1045800011921192119211923F011082E3E5F0E035
:104590006E0E7F1E61E0F301619311923F0194E082
:1045A0009083E8E4FFEF6E0E7F1EF30125A636A68A
:1045B00047A650AA21AA32AA43AA54AA25AA36AAD3
:1045C00047AA50AE21AE32AE43AE54AEEDE3F0E0BA
:1045D0006E0E7F1EF30121923192419251922192EF
:1045E0003192419251922192319241925192219273
:1045F0003192419251922192319241925192219263
:1046000031924192519221923192419251923F01C5
:104610002082318242825382EDE0F0E06E0E7F1EF6
:10462000F3016083EAE9FFEF6E0E7F1EF30181A3C1
:1046300072A334A323A356A345A310A707A3F2A6EE
:10464000E1A6D4A6C3A6B582A482978286821586E7
:1046500016861786108A118A128A138A148A158A76
:10466000168A178A108E118E128E138E148E158E46
:10467000168E178E10A2108211821282138210865B
:104680000E94182EF30183A161E00E94182EF3010D
:1046900085A161E00E94182EF30187A161E00E94CC
:1046A000182EF30181A561E00E94182EF30183A565
:1046B00061E00E94182E8FEB90E0680E791EF301E6
:1046C00010828EE99FEF680E791E88EE93E0F30169
:1046D000918380838EE590E0680E791E81EB97E1EF
:1046E000F301819391938DE499E191838083CF913C
:1046F000DF911F910F91FF90EF90DF90CF90BF90CF
:10470000AF909F908F907F906F905F904F903F9071
:104710002F900895FC0160830895DC01EC911196BF
:104720008C911197E81760F4F0E03196EE0FFF1FBF
:10473000EA0FFB1F0190F081E02D309709F00995F9
:104740000895DC0111968C911197681748F4E62FB3
:10475000F0E03196EE0FFF1FEA0FFB1F51834083FD
:104760000895CF93DF93DC010296FC0180E2EF0114
:1047700019928A95E9F71C92613108F060E111966F
:104780006C93DF91CF9108958091E4050895709323
:10479000E6056093E5050895FC017187608708953B
:1047A000FC0144835583668377830895FC017387F6
:1047B00062870895FC01828593850895FC018085B8
:1047C00091850895FC0164817581868197810895A2
:1047D000FC0164870895FC018485089561157105C5
:1047E00049F4E091E505F091E6053097C9F086E0DF
:1047F0000995089583E08093E70580E090E04CE917
:1048000054E20E94E5100E942D1181E08093E4059E
:10481000E091E505F091E605309711F085E0099506
:104820000895FC01628573850E94EE230895CF935D
:10483000DF93EB016115710541F4E091E505F0911D
:10484000E605309719F184E020C08091470161E0CE
:104850000E949B2E8091480161E00E949B2E82E085
:104860008093E705BE0180E090E04CE954E20E94AD
:10487000E5100E942D1181E08093E405E091E505AB
:10488000F091E605309711F083E00995DF91CF9123
:104890000895FC01608571850E9417240895EF92A8
:1048A000FF920F931F93FC017A018B014115510573
:1048B0006105710541F4E091E505F091E605309759
:1048C00071F182E02BC081E08093E7058485882325
:1048D00051F08091470161E00E949B2E8091480138
:1048E00061E00E949B2E8091450161E00E949B2E19
:1048F0008091460161E00E949B2EC801B7014CE9FE
:1049000054E20E94E5100E942D1181E08093E4059D
:10491000E091E505F091E605309709F009951F91C2
:104920000F91FF90EF900895FC01448155816681BD
:1049300077810E944F2408950E9443118091E705DA
:104940008130B1F48091450160E00E949B2E8091FE
:10495000460160E00E949B2E8091470160E00E942A
:104960009B2E8091480160E00E949B2E82E00FC048
:10497000823011F086E00BC08091470160E00E9418
:104980009B2E8091480160E00E949B2E84E0109253
:10499000E7051092E405E091E505F091E605309712
:1049A00009F0099508950F931F938C01809145019B
:1049B00061E00E94182E8091460161E00E94182E4D
:1049C0008091470161E00E94182E8091480161E0CA
:1049D0000E94182EF801108211821282138214860E
:1049E00081E090E0A0E0B0E0818B928BA38BB48B50
:1049F000168A158616861786108A158A84E690E030
:104A0000A0E0B0E084839583A683B78311861086E7
:104A1000138612861F910F9108950E94D324089542
:104A2000FC01EB5AFF4F60830895FC01DC01A05BA1
:104A3000BF4F6C9311967C930280F381E02D3097E9
:104A400011F0862F09950895FC0173836283089500
:104A50009C012A5F3F4FC9010895FC01EE5AFF4FA8
:104A600080810895FB018181308120E0280F311D74
:104A7000C9010895FB01818190E0A0E0B0E0DC0174
:104A800099278827228130E040E050E0542F432FBF
:104A9000322F22276381260F311D411D511D282BE6
:104AA000392B4A2B5B2BB901CA010895DF93CF93B1
:104AB00000D000D0CDB7DEB7FB012181808190E02E
:104AC000A0E0B0E0BA2FA92F982F8827820F911D60
:104AD000A11DB11DDC0199278827228130E040E02B
:104AE00050E0542F432F322F22276381260F311D90
:104AF000411D511D282B392B4A2B5B2B29833A83CF
:104B00004B835C83E22FFA81AB81BC81BF01CD0175
:104B10000F900F900F900F90CF91DF910895FC01AF
:104B2000ED5AFF4F80810895FC01EC5AFF4F8081C0
:104B30000895FC01EB5AFF4F8081E555F040882332
:104B400069F45C9A0480F581E02DA081B1812D91FA
:104B50003C91CF01F90109955C9808950480F58195
:104B6000E02DA081B1812D913C91CF01F9010995F2
:104B70000895EF92FF920F931F93CF93DF93EC0171
:104B8000062FF42EE22EFC01ED5AFF4F613011F496
:104B9000608301C0108210E0CE0160E00E94992580
:104BA0001F5F1530C9F7CE016FEF0E949925CE0126
:104BB000602F0E949925CE0160E00E949925CE01C8
:104BC0006F2D0E949925CE016E2D0E949925DF91AF
:104BD000CF911F910F91FF90EF900895DF92EF9288
:104BE000FF920F931F93CF93DF93EC01F62EE42EE9
:104BF000D22EFC01ED5AFF4F81E0681711F460835B
:104C000001C0108210E0CE0160E00E9499251F5F74
:104C10001530C9F7CE016FEF0E949925CE016F2D97
:104C20000E949925CE016E2D0E949925CE016D2DF1
:104C30000E949925CE01602F0E949925DF91CF9186
:104C40001F910F91FF90EF90DF900895FF920F93C7
:104C50001F938C01F62E672F0E949925C8016F2D96
:104C60000E9499251F910F91FF900895EF92FF9256
:104C70000F931F938C017B01672F770F770B0E9497
:104C80009925C8016E2D0E9499251F910F91FF90C3
:104C9000EF900895CF92DF92EF92FF920F931F93C0
:104CA0006C017A018B01212F332744275527622F6E
:104CB0000E949925980144275527C601622F0E941A
:104CC00099255527412F302F2F2DC601622F0E9485
:104CD0009925C6016E2D0E9499251F910F91FF9075
:104CE000EF90DF90CF900895CF92DF92EF92FF92F6
:104CF0000F931F936C017A018B01272F552727FDF6
:104D00005095352F452F622F0E94992598015527E0
:104D100037FD5095452FC601622F0E9499255527D2
:104D200017FD5A95412F302F2F2DC601622F0E945B
:104D30009925C6016E2D0E9499251F910F91FF9014
:104D4000EF90DF90CF900895FC01DC01969690E003
:104D5000953021F08C91882321F01BC083A58F3FD3
:104D6000C1F49F5F1196963099F724A5208385A5FD
:104D70008183213011F485E0089530E0E05BFF4F3E
:104D8000808191812817390711F481E0089584E02A
:104D9000089583E00895CF93DF93EC010BC0EC817D
:104DA000FD81A081B1811A962D913C911B97CF0175
:104DB000F9010995EC81FD81A081B18114962D91B5
:104DC0003C911597CF01F9010995181619063CF386
:104DD000DF91CF910895CF92DF92EF92FF920F93E0
:104DE0001F93CF93DF93EC016B01EC81FD81A081D8
:104DF000B18114962D913C911597CF01F901099538
:104E00001816190604F10E940C2D7B018C010DC0AF
:104E10000E940C2D6E197F09800B910B6536710570
:104E20008105910510F082E01CC0EC81FD81A0811C
:104E3000B18114962D913C911597CF01F9010995F7
:104E4000181619062CF7EC81FD81A081B181169608
:104E50002D913C911797CF01F9010995F6018083B7
:104E600081E0DF91CF911F910F91FF90EF90DF9044
:104E7000CF900895CF92DF92EF92FF920F931F93FE
:104E8000CF93DF93EC01CD5ADF4F19921882C455AE
:104E9000D040EC81FD81A081B18114962D913C918F
:104EA0001597CF01F901099518161906BCF4CE0122
:104EB0008696FC018AE2DF011D928A95E9F700E0FF
:104EC00010E0B8016A5D7F4F6C0F7D1FCE010E941C
:104ED000EB26813029F0CE010E94CB2640E059C05C
:104EE0000F5F1F4F0A30110561F78FA51AE0C82E1A
:104EF000DD24B9E0EB2EF12CEC0CFD1C0AC06A5D40
:104F00007F4F6C0F7D1FCE010E94EB26813019F779
:104F10001F5F612F70E0E616F7068CF7CE010E9446
:104F2000A426982F82508230B0F2953039F4CD5AB1
:104F3000DF4F81E08883C355D04008C0913031F005
:104F4000CC5ADF4F81E08883C455D040CE010E9407
:104F5000CB264EA5CE010696FC0180E2DF011D9214
:104F60008A95E9F7FE01EE5AFF4F1082DE0120E03C
:104F700030E00BC09F968C919F9715968C93159758
:104F800080818F5F80832F5F3F4F11962C153D05E9
:104F90008CF3842FDF91CF911F910F91FF90EF90B1
:104FA000DF90CF900895FC0175836483E05BFF4F31
:104FB000419351931082E255F040138212828CE1AA
:104FC00061E00E94182E8CE160E00E949B2E089503
:104FD000FC01EA5AFF4F718360830895FC01E65A91
:104FE000FF4F718360830895FC01E85AFF4F71837E
:104FF00060830895FC01E25AFF4F808191810895FA
:10500000CF92DF92EF92FF920F931F93CF93DF9394
:105010006C01102F0E94EE25C0E0D0E0012F10E0BF
:1050200008C0F701EC0FFD1FC60160810E949925A1
:105030002196C017D107ACF3DF91CF911F910F914B
:10504000FF90EF90DF90CF900895CF92DF92EF9294
:10505000FF920F931F93CF93DF938C01762F6A01FA
:1050600079012F5F60E0472F0E94B925C80166E0F3
:105070000E949925C0E0D0E008C0F601EC0FFD1FAA
:10508000C80160810E9499252196CE15DF05ACF3F9
:10509000DF91CF911F910F91FF90EF90DF90CF9014
:1050A0000895FF920F931F93182F092F262FF42E88
:1050B00060E0422F22E00E94B925812F902F60E00E
:1050C0000E949925812F902F6F2D0E9499251F9165
:1050D0000F91FF900895462F60E020E00E94B925CF
:1050E0000895CF92DF92EF92FF920F931F93D82EE5
:1050F000C92E762F79018A0160E0472F25E00E94B2
:10510000B9258D2D9C2D65E00E949925C801B70118
:105110000E94DE3EAB01BC018D2D9C2D0E944A26D3
:105120001F910F91FF90EF90DF90CF900895CF9255
:10513000DF92EF92FF920F931F93D82EC92E762FF6
:1051400079018A0160E0472F25E00E94B9258D2D65
:105150009C2D64E00E9499258D2D9C2DB801A701FE
:105160000E944A261F910F91FF90EF90DF90CF9001
:105170000895CF92DF92EF92FF920F931F93D82E54
:10518000C92E762F79018A0160E0472F25E00E9421
:10519000B9258D2D9C2D63E00E9499258D2D9C2D88
:1051A000B801A7010E9474261F910F91FF90EF9004
:1051B000DF90CF900895EF92FF920F931F93182FD7
:1051C000092F262F7A0160E0422F23E00E94B925A3
:1051D000812F902F62E00E949925812F902FB70197
:1051E0000E9436261F910F91FF90EF900895EF9245
:1051F000FF920F931F93182F092F262F7A0160E03B
:10520000422F23E00E94B925812F902F61E00E9458
:105210009925812F902FB7010E9426261F910F916B
:10522000FF90EF900895CF93DF93EC01FB01808115
:10523000823079F0833018F4813049F505C083302D
:1052400099F0843021F51BC0CE0161E041E050E0CF
:1052500013C0CE010E94FA27AC01CE0161E028E024
:1052600030E00E94252817C0C45ADF4F4881598179
:10527000CC55D040CE0161E00E94F7280CC061817E
:10528000CE0170E00E941525CE0161E002C0CE0182
:1052900060E00E946B28DF91CF910895AF92BF929A
:1052A000CF92DF92EF92FF920F931F93CF93DF93F2
:1052B000EC01E82ECD2E0E943A27A82E882309F46F
:1052C00047C0CE010E9494258823B9F0C85ADF4F09
:1052D000C880D980C855D040E880B980CE010E94EE
:1052E0002D25F82ECE010E9428258C018E2D6B2DA8
:1052F0004A2D2F2DF60109950FC0CE010E948F2552
:10530000882391F581E0A81679F5CE010E94282521
:10531000BC01CE010E941329AA241AC08E2D9C2DF7
:105320000E948F25882341F106C08E2D9C2D0E945E
:105330008F25882369F4F80100811181F9808E2D71
:105340009C2D0E942825AC018F2D6A2DF80109950E
:105350008A2DDF91CF911F910F91FF90EF90DF90F9
:10536000CF90BF90AF9008958E01065A1F4FF8015D
:1053700080819181892B91F68E010A5A1F4FF80185
:1053800080819181892B89F6E3CFCF92DF92EF92D2
:10539000FF920F931F937C0169010E94D32786E53A
:1053A00090E0E80EF91EF7011182108286E090E08D
:1053B000E80EF91EF701C192D19200831183F80122
:1053C00020E09081892F80528F3508F090E39193EF
:1053D0002F5F2830B1F71F910F91FF90EF90DF9072
:1053E000CF900895DF92EF92FF920F931F93CF9388
:1053F000DF93EC019B01D42E80914901811123960A
:10540000BE0179010BC08B010F5F1F4F8BE295E04E
:105410000E949412F70181937F01B801862F8C1BA3
:105420008D1588F3DF91CF911F910F91FF90EF9031
:10543000DF90089542E00E94F2290895DF93CF9310
:1054400000D0CDB7DEB71A8219821092490181E0EF
:1054500090E0BE016F5F7F4F0E941A2A81E0809327
:10546000490189819A810F900F90CF91DF91089522
:105470008BE295E060E070E00E94941290E0882357
:1054800009F491E0892F089541E048278BE295E0E7
:1054900060E070E00E949B120895DF92EF92FF920D
:1054A0000F931F93CF93DF93EC019B01D42E809138
:1054B000490181112396BE0179010BC08B010F5F59
:1054C0001F4FF70141917F018BE295E00E949B12F3
:1054D000B801862F8C1B8D1588F381E00E94442A29
:1054E000DF91CF911F910F91FF90EF90DF90089582
:1054F00042E00E944D2A0895DF93CF9300D0CDB7AC
:10550000DEB79A8389831092490181E090E0BE0161
:105510006F5F7F4F0E94782A81E0809349010F904E
:105520000F90CF91DF910895883008F078C0E82F70
:10553000F0E0EE0FFF1FE851FA4F71836083833074
:10554000D9F0843030F4813009F444C0823060F402
:1055500039C0853051F18530D8F0863009F446C025
:10556000873009F05CC04FC0809169008C7F842B2C
:1055700080936900E89A089580916900440F551F4F
:10558000440F551F837F842B80936900E99A089507
:105590008091690074E0440F551F7A95E1F78F7C84
:1055A000842B80936900EA9A08958091690066E0EF
:1055B000440F551F6A95E1F78F73842B8093690020
:1055C000EB9A089580916A008C7F842B80936A0007
:1055D000EC9A089580916A00440F551F440F551F9F
:1055E000837F842B80936A00ED9A089580916A00EE
:1055F00024E0440F551F2A95E1F78F7C842B80937C
:105600006A00EE9A089580916A0096E0440F551F53
:105610009A95E1F78F73842B80936A00EF9A08952F
:10562000883048F5833091F0843028F48130B1F02F
:10563000823050F411C0853069F0853048F08630F2
:1056400079F0873081F40EC0E8980DC0E9980BC05E
:10565000EA9809C0EB9807C0EC9805C0ED9803C024
:10566000EE9801C0EF98E82FF0E0EE0FFF1FE85131
:10567000FA4F1182108208951F920F920FB60F9267
:105680000BB60F9211242F933F934F935F936F9319
:105690007F938F939F93AF93BF93EF93FF938091EB
:1056A000EC059091ED05892B29F0E091EC05F09146
:1056B000ED050995FF91EF91BF91AF919F918F916A
:1056C0007F916F915F914F913F912F910F900BBE02
:1056D0000F900FBE0F901F9018951F920F920FB64C
:1056E0000F920BB60F9211242F933F934F935F931A
:1056F0006F937F938F939F93AF93BF93EF93FF939A
:105700008091EE059091EF05892B29F0E091EE054F
:10571000F091EF050995FF91EF91BF91AF919F91A6
:105720008F917F916F915F914F913F912F910F904A
:105730000BBE0F900FBE0F901F9018951F920F92E7
:105740000FB60F920BB60F9211242F933F934F93E6
:105750005F936F937F938F939F93AF93BF93EF93D9
:10576000FF938091F0059091F105892B29F0E0914C
:10577000F005F091F1050995FF91EF91BF91AF917F
:105780009F918F917F916F915F914F913F912F9159
:105790000F900BBE0F900FBE0F901F9018951F9289
:1057A0000F920FB60F920BB60F9211242F933F93C7
:1057B0004F935F936F937F938F939F93AF93BF9319
:1057C000EF93FF938091F2059091F305892B29F0D7
:1057D000E091F205F091F3050995FF91EF91BF91EA
:1057E000AF919F918F917F916F915F914F913F9179
:1057F0002F910F900BBE0F900FBE0F901F9018951A
:105800001F920F920FB60F920BB60F9211242F9387
:105810003F934F935F936F937F938F939F93AF9338
:10582000BF93EF93FF938091E8059091E905892B51
:1058300029F0E091E805F091E9050995FF91EF91D4
:10584000BF91AF919F918F917F916F915F914F9198
:105850003F912F910F900BBE0F900FBE0F901F9096
:1058600018951F920F920FB60F920BB60F9211243C
:105870002F933F934F935F936F937F938F939F9358
:10588000AF93BF93EF93FF938091EA059091EB055F
:10589000892B29F0E091EA05F091EB050995FF913C
:1058A000EF91BF91AF919F918F917F916F915F9198
:1058B0004F913F912F910F900BBE0F900FBE0F9005
:1058C0001F9018951F920F920FB60F920BB60F9262
:1058D00011242F933F934F935F936F937F938F93F5
:1058E0009F93AF93BF93EF93FF938091F4059091B3
:1058F000F505892B29F0E091F405F091F50509955E
:10590000FF91EF91BF91AF919F918F917F916F9197
:105910005F914F913F912F910F900BBE0F900FBE53
:105920000F901F9018951F920F920FB60F920BB603
:105930000F9211242F933F934F935F936F937F9315
:105940008F939F93AF93BF93EF93FF938091F6054F
:105950009091F705892B29F0E091F605F091F70574
:105960000995FF91EF91BF91AF919F918F917F9199
:105970006F915F914F913F912F910F900BBE0F90C0
:105980000FBE0F901F9018951F920F920FB60F9297
:1059900011242F933F938F939F93AF93BF93809145
:1059A000FC059091FD05A091FE05B091FF05309199
:1059B00000060196A11DB11D232F2D5F2D3720F06C
:1059C0002D570196A11DB11D209300068093FC0563
:1059D0009093FD05A093FE05B093FF058091F80517
:1059E0009091F905A091FA05B091FB050196A11DD2
:1059F000B11D8093F8059093F905A093FA05B09333
:105A0000FB05BF91AF919F918F913F912F910F9087
:105A10000FBE0F901F9018958FB7F8942091FC053A
:105A20003091FD054091FE055091FF058FBFB901F2
:105A3000CA0108959FB7F8942091F8053091F905AF
:105A40004091FA055091FB0586B5A89B06C08F3F93
:105A500021F02F5F3F4F4F4F5F4F9FBF542F432F7A
:105A6000322F2227280F311D411D511D82E0220FA8
:105A7000331F441F551F8A95D1F7B901CA010895F4
:105A80009B01AC017FB7F8948091F8059091F905DE
:105A9000A091FA05B091FB0566B5A89B05C06F3FC4
:105AA00019F00196A11DB11D7FBFBA2FA92F982F04
:105AB0008827860F911DA11DB11D62E0880F991FD7
:105AC000AA1FBB1F6A95D1F7BC012DC0FFB7F89480
:105AD0008091F8059091F905A091FA05B091FB0528
