:100000000C94E70B0C941AB10C944BB10C947CB18A
:100010000C94ADB10C94DEB10C940FB20C9440B2C0
:100020000C9471B20C94120C0C9433AB0C94120C13
:100030000C94120C0C94120C0C94120C0C94AC7BBF
:100040000C94120C0C94120C0C94120C0C94120CB8
:100050000C94DA7B0C94120C0C94120C0C94A2B23B
:100060000C94120C0C94DDB40C94D6B60C94120CB7
:100070000C94120C0C94120C0C94120C0C94907D99
:100080000C94FD7C0C94437E0C94120C0C94120C7A
:100090000C94120C0C94120CEA53065430544C5429
:1000A0007254A854CE54F2540A553B556A558F5594
:1000B000EF5513569056B656DC5639576B57935733
:1000C000B757DB57E657F157E45D18585158635856
:1000D00080589D58B658DC58E45DE45DE45DE45D0D
:1000E000E45DE45DFB5824594859E45DE45DE45D5A
:1000F000E45DE45DE45DE45D6C598459B259E45D0E
:10010000E45DE45DE45DE45DE45DE45DE45DE45DE7
:10011000E45DE45DE45DE45DE45DE45DE45DE45DD7
:10012000E45DE45DE45DE45DE45DE45DE45DE45DC7
:10013000E45DE45DE45DE45DE45DE45DE45DE45DB7
:10014000E45DE45DE45DE45DE45DE45DE45DE45DA7
:10015000E45DE45DE45DE45DE45DE45D545A7A5A97
:100160009F5AC55AEB5A145B345B755B9B5BBA5B59
:10017000DD5B035C245C4A5C6B5C8C5CAD5CCE5CE0
:10018000E95C005D215D345D5A5D725D9D5D476592
:100190006E2E004D6F742E0043616D2E004B662E47
:1001A0000056656C206F66207265717565737465A5
:1001B00064204B463A2000506F73206F66207265B2
:1001C00071756573746564204B463A200054696DFF
:1001D00065206F6620726571756573746564204B68
:1001E000463A200050726F672E202520636F6D7095
:1001F0006C6574653A20004D61782070726F67728B
:10020000616D2074696D652028696E636C2E2073A2
:10021000746172742064656C6179293A20004B46E0
:100220002043757272656E742072756E2074696DEC
:10023000653A200052756E2073746174653A20002F
:10024000436F6E742E2076696420647572617469E0
:100250006F6E3A2000416363656C2076616C69645F
:100260003A200056656C2076616C69643A20004142
:100270006363656C2061742074696D6520783A2031
:100280000056656C2061742074696D6520783A2091
:1002900000506F736974696F6E2061742074696DAA
:1002A0006520783A20004D6F746F722076656C205F
:1002B000757064617465207261746520286D73299E
:1002C0003A20004B6579206672616D6520636F7519
:1002D0006E743A200054616B696E672075702062FD
:1002E00061636B6C6173680053746F7070696E67E3
:1002F000206B662070726F6772616D00506175735C
:10030000696E67206B662070726F6772616D005254
:10031000756E6E696E672F726573756D696E672095
:100320006B662070726F6772616D005365747469DB
:100330006E6720636F6E742E207669642E206D6F59
:1003400076652074696D653A2000456E64696E6754
:10035000204B46207472616E736D697373696F6EA2
:100360000053657474696E672075647061746520EC
:10037000726174653A200053657474696E67207603
:10038000656C6F636974793A200053657474696EA3
:100390006720706F736974696F6E3A2000536574DB
:1003A00074696E672061627363697373613A2000D8
:1003B00053657474696E67206B6579206672616D30
:1003C0006520636F756E743A200053656C656374C5
:1003D000696E6720617869733A200041766F6964BD
:1003E000206F66667365743A2000496E7465727694
:1003F000616C6F6D65746572206D6F64653F203A46
:1004000020004B6565702D616C6976653F203A2050
:100410000054657374206D6F64653F203A2000536B
:10042000686F74732066697265643A2000496E745F
:10043000657276616C2074696D653A20004D697251
:10044000726F722075703F203A2000466F6375739B
:1004500020772F20736875747465723F203A2000EE
:1004600044656C61792074696D653A20004D61784E
:100470002073686F74733A2000466F63757320743D
:10048000696D653A20005472696767657220746906
:100490006D653A200042757379206578706F7369D5
:1004A0006E673F203A2000456E61626C65643F20B4
:1004B0003A200053657474696E6720696E746572C2
:1004C00076616C6F6D65746572206D6F64653A203E
:1004D0000053657474696E67206B6565702D616C7F
:1004E0006976653A200053657474696E6720746597
:1004F0007374206D6F64653A200053657474696E7F
:100500006720696E74657276616C2074696D653AF6
:10051000200053657474696E67207265706561743C
:10052000206379636C65733A200053657474696E57
:100530006720666F63757320772F206578706F73FF
:100540007572653A200053657474696E672064653E
:100550006C61792074696D653A2000536574746923
:100560006E67206D61782073686F74733A20005352
:10057000657474696E6720666F6375732074696D46
:10058000653A200053657474696E672074726967F8
:100590006765722074696D653A20004578706F73E5
:1005A000696E67206E6F77210053657420656E61F8
:1005B000626C65643A200049732073656E64696EED
:1005C000673F3A2000506C6174666F726D207261F3
:1005D00074696F3A200047656172626F78207261BA
:1005E00074696F3A2000556E697420636F64653AD0
:1005F0002000436865636B696E6720322D7074203C
:1006000076656C2076616C69646974793A20004C77
:100610006561642D6F75743A200049732070726FA4
:100620006772616D2076616C69643F203A200053E7
:100630006C6565703A200050726F6772616D20645E
:100640006563656C206C656E6774683A2000507253
:100650006F6772616D20616363656C206C656E67A6
:1006600074683A20004C6561642D696E3A2000542C
:10067000726176656C206C656E6774683A20005311
:10068000746F7020706F733A20005374617274201D
:10069000706F733A2000456173696E673A200041BC
:1006A0006363656C3A200053706565643A200052BC
:1006B000756E6E696E673F203A20004375727265F1
:1006C0006E7420706F733A2000456E6420706F73F3
:1006D0003A20004D61782073706565643A200044CB
:1006E0006972656374696F6E3A20004D6963726F59
:1006F00073746570733A20004261636B6C61736858
:100700003A2000456E61626C65643A20005365745E
:1007100074696E672073746F702D6D6F74696F6E7E
:10072000206D6F64653A200053657474696E6720AC
:10073000706C6174666F726D20726174696F3A20BB
:100740000053657474696E672067656172626F78C3
:1007500020726174696F3A200053657474696E6722
:1007600020756E6974733A200053657474696E67FE
:1007700020656E6420706F736974696F6E20746F8A
:100780003A200053657474696E67206375727265F0
:100790006E7420706F736974696F6E20746F3A2085
:1007A0000053656E64696E6720746F3A200053656C
:1007B0007474696E672073746F7020686572650069
:1007C00053657474696E6720737461727420686510
:1007D0007265004175746F2D73657474696E67205E
:1007E0006D6963726F7374657073005265736574BD
:1007F000696E67206C696D69747320616E64207323
:10080000746172742F73746F7020706F696E74737B
:100810000053657474696E67206C656164206F7540
:10082000743A200053656E64696E6720746F20739C
:10083000746F70200053656E64696E6720746F205A
:1008400073746172740053657474696E67206465B3
:1008500063656C206C656E6774683A20005365743C
:1008600074696E6720616363656C206C656E677484
:10087000683A200053657474696E672074726176FB
:10088000656C206C656E6774683A200053657474FB
:10089000696E67206C6561642D696E3A200053654E
:1008A0007474696E6720656173696E67206D6F642B
:1008B000653A200053657474696E672073746F70B5
:1008C0003A200053657474696E67207374617274A2
:1008D0003A2000436F6D6D616E64656420737465CA
:1008E00070733A200053657474696E6720616363A6
:1008F000656C65726174696F6E3A2000536574743B
:10090000696E6720636F6E742E2073706565643A3C
:10091000200053657474696E67206A6F7973746917
:10092000636B2073706565643A200053656E64697B
:100930006E6720746F20656E640053656E64696E27
:100940006720746F20686F6D650053657474696EFD
:100950006720656E6420686572653A20005365748F
:1009600074696E6720686F6D6520686572650053F5
:10097000657474696E6720646972656374696F6E0B
:100980003A200053657474696E67206D6178207336
:10099000706565643A200053657474696E67206DF4
:1009A0006963726F73746570733A20005365747471
:1009B000696E67206261636B6C6173683A200053F3
:1009C000746F7070696E67206D6F746F720053651D
:1009D0007474696E6720656E61626C653A200053BD
:1009E000657474696E6720736C6565703A20005297
:1009F000756E696E672073656C6620646961676EE9
:100A00006F737469630046726565206D656D6F7202
:100A1000793A20004772616666696B206D6F646584
:100A20003A200050726F6772616D2072756E20738C
:100A300074617475733A2000456E6420706F732082
:100A4000726573746F72653A200053746172742F0B
:100A500073746F7020706F7320726573746F72653A
:100A60003A200043757220706F7320726573746F43
:100A700072653A2000416C6C206D6F746F72207348
:100A80006C656570207374617465733A20005072F0
:100A90006F6772616D2076616C69643F3A20004136
:100AA0006E79206D6F746F72732072756E6E696EE1
:100AB000673F3A200046505320666C61673A200039
:100AC00049732070726F6772616D20636F6D706C17
:100AD0006574653F3A2000546F74616C2070726FCA
:100AE0006772616D2074696D653A2000546F74619E
:100AF0006C2070726F6772616D2074696D653A2049
:100B0000002520436F6D706C6574653A2000576155
:100B1000746368646F67206D6F64653F203A2000DE
:100B200050696E67706F6E67206D6F64653A200064
:100B30004A6F79737469636B206D6F64653A200046
:100B4000506C616E20747970653A20005374617244
:100B5000742064656C61793A2000416C7420696E80
:100B60007075742065646765206465746563746975
:100B70006F6E3A2000537570706C792063757272D5
:100B8000656E743A2000537570706C7920766F6CC6
:100B9000746167653A20004D617820737465702038
:100BA000726174653A200043757272656E742072CA
:100BB000756E2074696D653A200052756E207374ED
:100BC000617475733A200053657474696E672061AF
:100BD0007070206D6F64653A200053657474696E9F
:100BE00067204772616666696B206D6F64653A20A5
:100BF0000053657474696E6720656E6420706F734E
:100C000020726573746F72653A200053657474695D
:100C10006E672073746172742F73746F7020706FBD
:100C20007320726573746F72653A20005365747433
:100C3000696E672063757220706F732072657374BC
:100C40006F72653A2000526576657273696E67202F
:100C500073746172742F73746F7020706F696E7427
:100C6000730053657474696E672046505320666C38
:100C700061673A200053657474696E672073746FFE
:100C80007020706F73206865726520666F722061D6
:100C90006C6C206D6F746F72732E2E2E0053656E08
:100CA00064696E67206D6F746F727320746F207348
:100CB0007461727420706F736974696F6E0053652C
:100CC0007474696E672070696E672D706F6E67202F
:100CD0006D6F64650053657474696E67206A6F791F
:100CE000737469636B206D6F646500536574746918
:100CF0006E672070726F6772616D206D6F64653A08
:100D0000200053657474696E672073746172742077
:100D100064656C61793A200053657474696E67206C
:100D20007761746368646F67206D6F64653A200053
:100D300053657474696E67206C696D69742073778C
:100D4000697463682065646765206D6F64653A2027
:100D50000053657474696E67206D617820737465E3
:100D60007020726174652028616C6C206D6F746FE7
:100D70007273293A200053656E64696E6720616C56
:100D80006C206D6F746F727320686F6D65005365B2
:100D90007474696E6720616464726573733A2000CD
:100DA000546F67676C696E67206465627567204C75
:100DB00045440053746F7070696E672070726F677E
:100DC00072616D0050617573696E672070726F6734
:100DD00072616D005374617274696E67202F2072A6
:100DE0006573756D696E672070726F6772616D00F3
:100DF00053657474696E67206E65772061646472F0
:100E00006573732100426C7565746F6F74682000A0
:100E10004D6F636F42757320005375626164647235
:100E20003A0020636F6D6D616E643A0020627566F2
:100E30005B305D3A2000206275665B315D3A2000D0
:100E4000206275665B325D3A2000206275665B3316
:100E50005D3A2000206275665B345D3A200074695B
:100E60006D65200053656E64696E67206D6F746FE9
:100E70007220007265766572736553746172745383
:100E8000746F702829004D6F742E3133202D20414E
:100E900075746F2D7374617274696E6720636F6E01
:100EA00074696E756F7573206D6F7665004A6F7922
:100EB000737469636B3A20004D6F746F72732061B5
:100EC00072652072756E6E696E672C2063616E2785
:100ED00074206175746F2D736574206D6963726F12
:100EE0007374657073005265717565737465642001
:100EF0004D6963726F73746570733A200054727930
:100F0000696E6720746F206175746F2D736574202E
:100F10006D6963726F737465707300457863657390
:100F20007369766520737065656420726571756597
:100F30007374656400546F7020737065656420720B
:100F400065717565737465643A20004D6963726FED
:100F500073746570733A20004F7574206F66206C4F
:100F60006F6F7020616E64206D6F76696E67206FA1
:100F70006E21004D6963726F73746570733A20005F
:100F800047657474696E6720766964206D6F766555
:100F90002074696D653A200047657474696E672036
:100FA000544C206D6F76652074696D653A2000534E
:100FB00068757474657220646F6E652C207265614B
:100FC000647920666F72206D6F76650054696D6577
:100FD000206174206578706F737572653A200054D3
:100FE000696D6520617420666F6375733A20006BCC
:100FF000665F43616D657261436865636B28292094
:101000002D204261696C696E672066726F6D206386
:10101000616D657261206379636C65206174207015
:101020006F696E742032006B665F43616D6572613B
:10103000436865636B2829202D20536B69707069A4
:101040006E672073686F742C2077616974696E67AE
:1010500020666F722065787465726E616C207472A0
:1010600069676765720053656E64696E6720746FA7
:10107000200041626F757420746F2073656E642068
:10108000746F206C6F636174696F6E20233A200067
:1010900053656E64696E67206D6F746F7273207430
:1010A0006F206E6577206C6F636174696F6E73007B
:1010B0005374617274696E67206E6577206B662069
:1010C000626F756E63652070726F6772616D00523A
:1010D0006576657273696E67206B657920706F69DC
:1010E0006E7473005374617274696E672070696EF8
:1010F000672D706F6E672070686173650053746F41
:101100007070696E67206B662070726F6772616DB8
:10111000005374617274696E67206B65657020613D
:101120006C697665207068617365005061757365E0
:10113000206C656E6774683A200053544F505049D4
:101140004E47204B462050524F4752414D0053745A
:101150006F7070696E67206D6F746F722000504100
:101160005553494E47204B462050524F4752414D10
:1011700000204B462070726F6772616D005374617E
:101180007274696E67206E657720747970652000CF
:101190002A2A2A2056656C6F636974696573202A50
:1011A0002A2A002A2A2A20506F736974696F6E7385
:1011B000202A2A2A002A2A2A20416273636973732B
:1011C0006173202A2A2A00207E7E7E7E7E7E007E1B
:1011D0007E7E7E7E7E20415849532000436F6E7490
:1011E0002E20766964656F2074696D653A20005021
:1011F000726F6772616D206D6F64653A2000506593
:101200007263656E7420636F6D706C6574653A20EF
:101210000043757272656E742072756E2074696D0C
:10122000653A200052756E207374617475733A20AC
:10123000004D6178206D6F76652074696D653A2088
:10124000004D61782063616D6572612074696D6520
:101250003A20007E7E7E7E7E7E2047656E657261CE
:101260006C2050726F6772616D20506172616D7396
:10127000207E7E7E7E7E7E004175746F207061755B
:1012800073696E67212121006379636C6553686F10
:10129000744F4B2829202D20616C74466F72636552
:1012A00053686F74206E6F74206465746563746531
:1012B00064006379636C6553686F744F4B28292011
:1012C0002D20616C74466F72636553686F7420647F
:1012D00065746563746564202A2A2A2A2A2A2A2AC0
:1012E0002A2A2A2A006379636C6553686F744F4B0E
:1012F0002829202D204578742E20696E7465727619
:10130000616C206D6F64652061637469766500634C
:1013100079636C6553686F744F4B2829202D2045E5
:101320006E7465722066756E6374696F6E006379A2
:10133000636C6543616D6572612829202D205374AB
:10134000617274696E67206578706F73757265205D
:101350006379636C65006379636C6543616D657285
:10136000612829202D2043616D65726120627573AB
:10137000793A20006379636C6543616D6572612819
:1013800029202D204261696C696E672066726F6D3D
:101390002063616D657261206379636C652061749F
:1013A00020706F696E742033004D6F746F7220006F
:1013B0006379636C6543616D6572612829202D2016
:1013C00053686F74733A20006379636C6543616D91
:1013D0006572612829202D204261696C696E672041
:1013E00066726F6D2063616D657261206379636CF5
:1013F0006520617420706F696E74203200637963B8
:101400006C6543616D6572612829202D20536B69DD
:101410007070696E672073686F742C2077616974CF
:10142000696E6720666F722065787465726E616C94
:101430002074726967676572006379636C654361E4
:101440006D6572612829202D204261696C696E6783
:101450002066726F6D2063616D65726120637963D0
:101460006C6520617420706F696E742031006D733B
:10147000206F66206C6561642D6F75742072656DD8
:1014800061696E696E67006379636C6543616D6560
:1014900072612829202D205468657265206172656B
:1014A00020006379636C6543616D65726128292052
:1014B0002D20416C6C206D6F7420646F6E65206D03
:1014C0006F76696E67006379636C6543616D657201
:1014D000612829202D2050617573696E670063793A
:1014E000636C6543616D6572612829202D205374FA
:1014F0006172740063616D43616C6C4261636B285F
:1015000029202D2053746F700063616D43616C6CF2
:101510004261636B2829202D20537461727400206E
:101520006C656164496E3A20002073686F74733A89
:10153000200020547970653A200020656E61626C4D
:10154000653A20002072756E6E696E673A20002041
:10155000656E64506F733A20002073746F70506F23
:10156000733A2000207374617274506F733A2000D4
:10157000206261636B6C6173683A200020636F6E58
:1015800074696E696F75732053706565643A2000E5
:1015900043757272656E7420537465707320004FCA
:1015A0004D43616D6572613A3A73746F70282920FA
:1015B0002D2053657474696E672077616974207398
:1015C00074617465004F4D43616D6572613A3A73A1
:1015D000746F702829202D2053746F7070696E67A6
:1015E00020666F637573004F4D43616D6572613A9C
:1015F0003A73746F702829202D2053746F707069AE
:101600006E67206578706F73757265004F4D43612A
:101610006D6572613A3A73746F702829202D2045E8
:101620006E746572696E672066756E6374696F6E3D
:10163000001201100102000008EB03442001000128
:1016400002030109023E00020100C0320904000049
:1016500001020201000524001001042402060524F1
:10166000060001070582030800FF09040100020AC1
:1016700000000007050402100005070583021000A2
:1016800005040309042E03440079006E0061006D17
:10169000006900630020005000650072006300656F
:1016A000007000740069006F006E0020004C004C58
:1016B00000430000003C03440079006E0061006DAF
:1016C000006900630020005000650072006300653F
:1016D000007000740069006F006E00200043004439
:1016E0000043002000530065007200690061006C37
:1016F0000000000E033000300034003500370033A6
:1017000000000000002100240027002A002D0030E6
:101710000000002200250028002B002E00310000D0
:101720000020002300260029002C002F00010101C9
:10173000010101010102020202020202020303038B
:10174000030303030304040404040404040505055B
:101750000505050505060606060606060601020439
:10176000081020408001020408102040800102047B
:10177000081020408001020408102040800102046B
:101780000810204080010204081020408000000062
:10179000000000000000000000070304010000003A
:1017A000000B0A0900020800000000000000000011
:1017B0000000000000000000000000000000010226
:1017C0000304050607008B1791B6B9BA84171124D4
:1017D0001FBECFEFD0E2DEBFCDBF14E0A0E0B1E08E
:1017E000E0E3FBE801E00BBF02C007900D92A830D8
:1017F000B107D9F71BBE12E1A8E0B4E001C01D9209
:10180000A03CB107E1F717E1CCECD7E104C0229787
:10181000FE010E9450C5C63CD107C9F70E94ACB773
:101820000C948BC50C940000CF93DF93BC018230E5
:10183000910510F462E070E0A091B812B091B91275
:10184000ED01E0E0F0E040E050E021C088819981C6
:101850008617970769F48A819B81309719F09383E3
:10186000828304C09093B9128093B812FE0134C0F1
:101870006817790738F44115510519F08417950751
:1018800008F4AC01FE018A819B819C01E90120974B
:10189000E9F641155105A9F1CA01861B970B04977A
:1018A00008F4BA01E0E0F0E02AC08D919C91119714
:1018B00084179507F9F46417750781F412968D91D2
:1018C0009C911397309719F09383828304C090936F
:1018D000B9128093B812FD0132964CC0CA01861B22
:1018E000970BFD01E80FF91F6193719302978D9398
:1018F0009C9340C0FD01828193819C01D901109786
:10190000A1F68091B6129091B712892B41F4809183
:101910001203909113039093B7128093B6124091E3
:101920001403509115034115510541F44DB75EB7AD
:101930008091100390911103481B590B2091B6120E
:101940003091B712CA01821B930B8617970780F05C
:10195000AB014E5F5F4F8417950750F0420F531F46
:101960005093B7124093B612F9016193719302C07C
:10197000E0E0F0E0CF01DF91CF910895CF93DF93C6
:10198000009709F450C0EC0122971B821A82A091A3
:10199000B812B091B912109709F140E050E0AC17BD
:1019A000BD0708F1BB83AA83FE0121913191E20FAB
:1019B000F31FAE17BF0779F48D919C911197280FF3
:1019C000391F2E5F3F4F3983288312968D919C914A
:1019D00013979B838A834115510571F4D093B912F3
:1019E000C093B81220C012968D919C911397AD01AF
:1019F000009711F0DC01D3CFFA01D383C283219188
:101A00003191E20FF31FCE17DF0769F488819981C6
:101A1000280F391F2E5F3F4FFA01318320838A81BF
:101A20009B8193838283DF91CF910895A0E0B0E002
:101A3000ECE1FDE00C9456C56C01009729F4CB0154
:101A40000E94140C6C01C1C08EEF882E8FEF982E6F
:101A50008C0C9D1C8601060F171F0815190508F42C
:101A6000B2C0F401A081B181A617B707B8F0A530C4
:101A7000B10508F4AAC0CD0104978617970708F4AA
:101A8000A4C01297A61BB70BF801A193B193D40180
:101A90006D937C93CF010E94BE0C97C07B01EA1A24
:101AA000FB0AEEEFFFEFEE0EFF1E36016A0E7B1E05
:101AB000C091B812D091B91244245524AA24BB2451
:101AC0004AC0C615D705E1F5488159814E155F0515
:101AD000B8F1CA0104978E159F05B0F41296A40FB1
:101AE000B51FF401B183A0832A813B8141145104C5
:101AF00031F0D20113963C932E93129766C0309327
:101B0000B9122093B81261C08A819B81F801938336
:101B10008283425050404E195F09518340834114E3
:101B2000510431F0D20113961C930E93129704C006
:101B30001093B9120093B812F4017183608345C009
:101B400088819981A816B90608F45C012E018A8162
:101B50009B819C01E901209709F0B3CF8091B612D7
:101B60009091B71286159705E9F4A616B706D0F43A
:101B700020911403309115032115310541F42DB73F
:101B80003EB78091100390911103281B390B021767
:101B90001307C8F41093B7120093B612D4016D93D3
:101BA0007C9313C0CB010E94140CEC01009759F0F8
:101BB000F40140815181B6010E94F20DC6010E94DC
:101BC000BE0C6E0102C0CC24DD24C601CDB7DEB749
:101BD000E0E10C9472C5FB01DC0105900D92002040
:101BE000E1F70895FB01DC0102C001900D92415024
:101BF0005040D8F70895FB01DC0101900D920020C0
:101C0000E1F70895FB019F01E8944230C4F04532AA
:101C1000B4F44A3029F497FB1EF4909581959F4FB8
:101C2000642F77270E94EAC4805D8A330CF0895DB7
:101C30008193CB010097A1F716F45DE251931082D6
:101C4000C9010C946510FA01CF93FF93EF932230F2
:101C5000CCF02532BCF4C22F2C2F33274427552734
:101C6000FF93EF930E9411C5EF91FF91605D6A337E
:101C70000CF0695D6193B901CA0160507040804009
:101C8000904051F710828F919F91CF910C946510E5
:101C9000FB019F01423074F0453264F4642F7727D2
:101CA0000E94EAC4805D8A330CF0895D8193CB0188
:101CB0000097A1F71082C9010C946510A0E0B0E074
:101CC000E4E6FEE00C9464C59E01275F3F4F8D81E2
:101CD0009E816F817885A9010E94720E2096E2E0B4
:101CE0000C9480C5ABE0B0E0E8E7FEE00C9454C58E
:101CF0003C012B015A01FC0117821682838181FD70
:101D000003C06FEF7FEFC6C19AE0892E1E010894D1
:101D1000211C311CF3012381F20123FD859123FF56
:101D200081912F01882309F4B2C1853239F423FD52
:101D3000859123FF81912F01853229F490E0B30131
:101D40000E947510E7CF982FFF24EE249924FFE11D
:101D5000FF15D0F09B3269F09C3228F4903259F094
:101D6000933291F40EC09D3249F0903369F441E012
:101D700024C052E0F52A84E0F82A28C098E0F92A25
:101D800025C0E0E1FE2A22C0F7FC29C0892F80533C
:101D90008A3070F4F6FE05C0989C902C1124980EA1
:101DA00015C0E89CE02C1124E80EF0E2FF2A0EC0DA
:101DB0009E3229F4F6FC6BC140E4F42A07C09C363D
:101DC00019F450E8F52A02C0983649F4F20123FDCF
:101DD000959123FF91912F01992309F0B8CF892F75
:101DE0008554833018F08052833038F444E050E05A
:101DF000A40EB51E5FE359830FC0933631F09337BD
:101E000079F0933509F056C020C0F50180818983AF
:101E100042E050E0A40EB51E610101E010E012C0E6
:101E2000F501C080D180F6FC03C06FEF7FEF02C0E8
:101E3000692D70E042E050E0A40EB51EC6010E947C
:101E40005A108C015FE7F52214C0F501C080D180E3
:101E5000F6FC03C06FEF7FEF02C0692D70E042E037
:101E600050E0A40EB51EC6010E944F108C0150E830
:101E7000F52AF3FE07C01AC080E290E0B3010E9489
:101E80007510EA948E2D90E008171907A8F30EC07C
:101E9000F601F7FC8591F7FE81916F0190E0B301A7
:101EA0000E947510E110EA940150104001151105CF
:101EB00079F7EAC0943611F0993669F5F7FE08C053
:101EC000F501208131814281538184E090E00AC094
:101ED000F501808191819C01442737FD4095542F65
:101EE00082E090E0A80EB91E9FE6F92257FF09C0D4
:101EF00050954095309521953F4F4F4F5F4FE0E80B
:101F0000FE2ACA01B901A1012AE030E00E94A11015
:101F1000D82ED21840C0953729F41F2D1F7E2AE0F5
:101F200030E01DC01F2D197F9F3661F0903720F4DF
:101F3000983509F0ACC00FC0903739F0983709F0E8
:101F4000A6C004C028E030E00AC0106114FD14608F
:101F500020E130E004C014FD166020E132E017FFFC
:101F600008C0F501608171818281938144E050E075
:101F700008C0F50180819181BC0180E090E042E0E1
:101F800050E0A40EB51EA1010E94A110D82ED218B7
:101F90008FE7F82EF122F6FE0BC05EEFF522D91482
:101FA00038F4F4FE07C0F2FC05C08FEEF82202C040
:101FB0001D2D01C0192DF4FE0DC0FE01ED0DF11D0A
:101FC0008081803319F499EEF92208C01F5FF2FE78
:101FD00005C003C08F2D867809F01F5F0F2DF3FC1D
:101FE00014C0F0FE0FC01E1510F09D2C0BC09D2CD0
:101FF0009E0C911A1E2D06C080E290E0B3010E9453
:1020000075101F5F1E15C0F304C01E1510F4E11AF1
:1020100001C0EE2404FF0FC080E390E0B3010E94F2
:10202000751002FF1DC001FD03C088E790E00EC0DF
:1020300088E590E00BC0802F867891F001FF02C008
:102040008BE201C080E2F7FC8DE290E0B3010E94D8
:10205000751006C080E390E0B3010E9475109A9459
:10206000D914C0F3DA94F101ED0DF11D808190E0F7
:10207000B3010E947510DD20A9F706C080E290E050
:10208000B3010E947510EA94EE20C1F743CEF3012C
:1020900066817781CB012B96E2E10C9470C5FC013F
:1020A0000590615070400110D8F7809590958E0F83
:1020B0009F1F0895FC016150704001900110D8F7F6
:1020C000809590958E0F9F1F0895DC01FC01672F6E
:1020D00071917723E1F7329704C07C916D937083FF
:1020E0006291AE17BF07C8F308950F931F93CF9364
:1020F000DF938C01EB018B8181FF1BC082FF0DC040
:102100002E813F818C819D812817390764F4E881F5
:10211000F9810193F983E88306C0E885F985802F6A
:102120000995892B31F48E819F8101969F838E833F
:1021300002C00FEF1FEFC801DF91CF911F910F91E8
:102140000895FA01AA27283051F1203181F1E8944D
:102150006F936E7F6E5F7F4F8F4F9F4FAF4FB1E09A
:102160003ED0B4E03CD0670F781F891F9A1FA11D95
:10217000680F791F8A1F911DA11D6A0F711D811D96
:10218000911DA11D20D009F468943F912AE0269F5B
:1021900011243019305D3193DEF6CF010895462FBA
:1021A0004770405D4193B3E00FD0C9F7F6CF462F9B
:1021B0004F70405D4A3318F0495D31FD4052419304
:1021C00002D0A9F7EACFB4E0A695979587957795C1
:1021D0006795BA95C9F700976105710508959B0148
:1021E000AC010A2E06945795479537952795BA95D1
:1021F000C9F7620F731F841F951FA01D0895FC016E
:102200001082118281E082830895FC0174836383CC
:102210000E94FF100895FC0180810895FC016183F4
:10222000862F0895FC016283862F08951F93CF9314
:10223000DF93EC01162F68838981882399F083E965
:1022400092E160E071E00E9491B983E992E1612F2F
:1022500042E050E00E9406B983E992E167E171E053
:102260000E9441BA8A81882399F08B819C8160E029
:1022700071E00E9491B98B819C81612F42E050E016
:102280000E9406B98B819C8167E171E00E9441BA8E
:10229000DF91CF911F91089580911204089580914C
:1022A0004A0410924A0408958091750310927503B0
:1022B000089580930B04882311F010920C04089564
:1022C00080910B04089580930C04882311F01092E0
:1022D0000B04089580910C04089580934B0480931F
:1022E0004C04089580914B04811181E0089581E0B0
:1022F0008093F80C08950F931F93CF93DF93EC0115
:102300008EE46132780718F060E27EE405C064363E
:10231000710510F464E670E080E090E00E944DC327
:102320002FEF30E0C29F8001C39F100DD29F100D90
:1023300011240150134F0F501F4FF80161937193F7
:10234000819391938F0120E030E040E05FE30E94B1
:1023500003C4F8016083718382839383DF91CF91FB
:102360001F910F9108952F923F924F925F926F921B
:102370007F928F929F92AF92BF92CF92DF92EF9215
:10238000FF920F931F93DF93CF9300D000D0CDB770
:10239000DEB73C018FEF90E0689EB001699E700D42
:1023A000789E700D1124FB01E150F34FDF01A7511E
:1023B000BF4FE351FF4F20813181428153818D9185
:1023C0009D910D90BC91A02D281739074A075B07F6
:1023D00009F43FC1FB01EF5FF24F80E090E020E0A5
:1023E00030E040E050E0208331834283538320AFCC
:1023F00031AF42AF53AF148E158E168E178E0196E5
:1024000034968730910579F78FEF90E0689E8001D0
:10241000699E100D789E100D11240150134F055028
:102420001F4FD8016D917D918D919C9120E030E0FE
:1024300040EA51E40E9403C42FE632E143E852E44B
:102440000E94B4C26B017C0106501040D8018D91EE
:102450009D910D90BC91A02D89839A83AB83BC8301
:10246000F801B290A29092908290C701B601A501A6
:1024700094010E94FFC3181614F4750164018FEFD4
:1024800090E0689EF001699EF00D789EF00D112499
:10249000E951F24F8081882321F4F7FAF094F7F89C
:1024A000F094C701B60129813A814B815C810E9479
:1024B000B4C21B012C01E89457F88FEF90E0689E9E
:1024C000F001699EF00D789EF00D1124E150F34F5C
:1024D0002282338244825582E751FF4F808191816D
:1024E000A281B381E95EF040868F978FA0A3B1A34C
:1024F000C2AED3AEE4AEF5AEC701B60120E030E027
:1025000040E050E00E94FFC318164CF489819A8184
:10251000AB81BC81B05889839A83AB83BC838FEF36
:1025200090E0689E8001699E100D789E100D112428
:102530000150134F86E5682E712C600E711E898143
:102540009A81AB81BC81F30180839183A283B383A1
:102550000F2EF0E08F2EF0E09F2EF0E0AF2EF0E097
:10256000BF2EF02DD80116968D929D92AD92BC9201
:1025700019975E966D917D918D919C9191970E9496
:102580004FC36B017C01C201B101F80122AD33AD33
:1025900044AD55AD0E9403C49B01AC01C701B60117
:1025A0000E944CC26B017C0169817A818B819C8184
:1025B00020E030E040E05FE30E9403C4A20191010B
:1025C0000E9403C4A20191010E9403C49B01AC01BB
:1025D000C701B6010E944CC20E941CC36B017C0162
:1025E000D80192966D937D938D939C939597025C01
:1025F0001F4FF80180829182A282B382045E1F4F36
:10260000D8018D929D92AD92BC921397F301608197
:1026100071818281938120E030E040E05FE30E949D
:1026200003C4D3016D937D938D939C9313970D56A3
:102630001F4FF801C082D182E282F382095010401C
:10264000D8018D929D92AD92BC921397F80112928F
:1026500012920F900F900F900F90CF91DF911F91DA
:102660000F91FF90EF90DF90CF90BF90AF909F9031
:102670008F907F906F905F904F903F902F90089534
:1026800080E090E00E94B31181E090E00E94B311DD
:1026900082E090E00E94B311089520E0039708F4CF
:1026A00021E0822F08952F923F924F925F926F9276
:1026B0007F928F929F92AF92BF92CF92DF92EF92D2
:1026C000FF920F931F93DF93CF93CDB7DEB7609741
:1026D0000FB6F894DEBF0FBECDBF8C0149875A8775
:1026E0006B877C873E872D878FEF90E0089FF001F6
:1026F000099FF00D189FF00D1124E951F24F8081D0
:10270000882359F40F2EF0E0CF2EF0E0DF2EF0EA10
:10271000EF2EF1ECFF2EF02D0AC00F2EF0E0CF2EA1
:10272000F0E0DF2EF0EAEF2EF1E4FF2EF02D8FEF38
:1027300090E0089F9001099F300D189F300D1124E3
:102740002150334F25503F4FD9012D903D904D9052
:102750005C9022513040D9018D919D910D90BC919A
:10276000A02D8D839E83AF83B88729853A854B85BD
:102770005C8582179307A407B5072CF04FEF5FEF36
:10278000588B4F8704C081E090E0988B8F87C201FF
:10279000B10120E030E040E050E00E94B0C2882368
:1027A00009F44BC18FEF90E0089FF001099FF00DF5
:1027B000189FF00D1124E951F24F808190E0AF8510
:1027C000B889FC01AE9FC001AF9F900DBE9F900DD8
:1027D000112497FF32C1C8010E94B3113CC18FEF91
:1027E00090E0089FF001099FF00D189FF00D112453
:1027F000E150F34FEF50FF4F6190719081909190B5
:1028000080819181A281B38189839A83AB83BC83C8
:10281000C701B601A20191010E9403C42FE632E173
:1028200043E852E40E94B4C27B018C01E89417F99A
:10283000C801B701A40193010E94B0C287FD15C071
:102840000F2EF0E06F2EF0E07F2EF0E08F2EF0E004
:102850009F2EF02D0F2EF0E02F2EF0E03F2EF0E017
:102860004F2EFFE35F2EF02D35C0C401B301A80148
:1028700097010E944BC229813A814B815C810E9461
:10288000B4C23B014C0120E030E040E05FE30E9435
:10289000B0C287FD15C00F2EF0E06F2EF0E07F2E46
:1028A000F0E08F2EFFE39F2EF02D0F2EF0E02F2E65
:1028B000F0E03F2EF0E04F2EF0E05F2EF02D0AC04A
:1028C00060E070E080E09FE3A40193010E944BC2AE
:1028D0001B012C0169817A818B819C81A401930168
:1028E0000E9403C49B01AC01C801B7010E944CC205
:1028F0005B016C01C801B701A40193010E9403C4EC
:102900007B018C0169817A818B819C8120E030E0A0
:1029100040E05FE30E9403C4A40193010E9403C44A
:10292000A40193010E9403C49B01AC01C801B7013B
:102930000E944CC20E941CC30E944FC37B018C01A9
:10294000C201B101A60195010E9403C49B01AC0123
:10295000C801B7010E944CC20E941CC30E944FC311
:102960007B018C01C601B501A60195010E9403C43B
:1029700020E030E040E05FE30E9403C429813A8117
:102980004B815C810E94B4C29B01AC01C801B701BC
:102990000E944CC20E941CC3EF85F8899F01442706
:1029A00037FD4095542F0E94CBC42D813E814F812D
:1029B0005885620F731F841F951F4F8558894130BA
:1029C000510551F429853A854B855C8526173707D3
:1029D000480759078CF40EC04F8558894F5F5F4FE9
:1029E00059F429853A854B855C85621773078407FE
:1029F000950714F4CA01B901AD85BE856D937D9329
:102A00008D939C93139781E060960FB6F894DEBF88
:102A10000FBECDBFCF91DF911F910F91FF90EF902F
:102A2000DF90CF90BF90AF909F908F907F906F90EE
:102A30005F904F903F902F90089529853A854B8560
:102A40005C858D819E81AF81B885281739074A073B
:102A50005B0709F0C4CE80E0D7CF809115040895BC
:102A600080913104882339F48091BC04882319F4BF
:102A700020E030E00AC020913C0430913D04809178
:102A8000130490911404280F391FC901089510925E
:102A900014041092130410923D0410923C04089503
:102AA000209134043091350440913604509137041C
:102AB0008091290490912A04A0912B04B0912C04B8
:102AC000280F391F4A1F5B1FB901CA010895809161
:102AD000BC04882319F420E030E00BC08091BD04D1
:102AE000882319F421E030E004C0813011F422E0A1
:102AF00030E0C901089520913804309139044091A3
:102B00003A0450913B048091A8049091A904A091AB
:102B1000AA04B091AB04280F391F4A1F5B1FB901EB
:102B2000CA010895813039F0813018F0823051F4B3
:102B300006C083E001C082E080932D03089581E008
:102B400080932D030895E0911010F09111103097AB
:102B500009F009950895809151040895823010F488
:102B6000809333040895809133040895809116046E
:102B700008951F9380913104882311F011E007C05C
:102B80008091BC04882311F015E001C010E0809111
:102B90004704882311F0136004C08091BD048111A3
:102BA000166080914604811118600E94B61581114B
:102BB00010610E94B31581111062812F1F91089539
:102BC000FC0110820895FC0180810895FC011686A5
:102BD000178608951F93FC018081882309F455C04E
:102BE00070E0615070402185328543855485DA015B
:102BF000C901062E04C0B695A795979587950A94A6
:102C0000D2F7182F117085819681A781B085062E85
:102C100004C0B695A795979587950A94D2F780FF3B
:102C200017C081E090E0A0E0B0E004C0880F991FD9
:102C3000AA1FBB1F6A95D2F7822B932BA42BB52B0F
:102C400081879287A387B4871130E9F481E01EC0A1
:102C500081E090E0A0E0B0E004C0880F991FAA1FB7
:102C6000BB1F6A95D2F780959095A095B095822369
:102C70009323A423B52381879287A387B487113038
:102C800021F482E003C083E001C080E01F91089539
:102C900008951092301008950895AF92BF92CF9288
:102CA000DF92EF92FF920F931F935A016B01CB01BA
:102CB000BA0120E030E040E053E40E944BC27B01C7
:102CC0008C0120E030E040E050E00E94FFC3181685
:102CD0005CF4C801B70120E030E040E251E40E941A
:102CE000B0C21816ACF00AC0C801B70120E030E04D
:102CF00040E251EC0E94FFC3882354F00F2EF0E015
:102D0000AF2EF0E0BF2EF0E0CF2EF3E4DF2EF02D5B
:102D1000B501C6011F910F91FF90EF90DF90CF900A
:102D2000BF90AF9008958F929F92AF92BF92CF9233
:102D3000DF92EF92FF920F931F938130910509F07C
:102D4000B3C06F5F7F4F09F0D4C082E594E00E946A
:102D500018838CE694E00E94188386E894E00E9431
:102D600018831092C1041092C00488EE93E0A0E092
:102D7000B0E08093C2049093C304A093C404B093C2
:102D8000C50489EC93E09093BF048093BE04409106
:102D90002203509123038AEC94E06EEB74E023E469
:102DA00030E00BEA13E00E9425A8409122035091E5
:102DB00023038CE295E063E972E123E430E00E94B2
:102DC00025A840912203509123038EE895E061E706
:102DD00072E123E430E00E9425A880EF95E00E9494
:102DE000608681EF95E00E943CA3A1B286E096E068
:102DF0006DE270E040E150E020E230E001E110E0FF
:102E0000E2E1EE2EF12CB3E1CB2ED12CBB24A5E0D8
:102E10008A2E912C0E94679FA1B28DEF97E06EE2FF
:102E200070E045E150E024E130E00DE110E0FEE12A
:102E3000EF2EF12CEFE1CE2ED12CB6E08B2E912C83
:102E40000E94679FA1B284EF99E06FE270E042E2D6
:102E500050E021E230E00FE010E0ABE2EA2EF12C8E
:102E6000FCE2CF2ED12CE7E08E2E912C0E94679FA2
:102E70008BEE9BE067E00E949EA18EE09CE06EE8F6
:102E800075E00E94ED7A84E19CE06EE07CE00E94B7
:102E900005110E94EAB260930C1070930D1080939C
:102EA0000E1090930F1025C0892B19F56F5F7F4F7F
:102EB00001F584EF99E00E94BD868DEF97E00E94B6
:102EC000BD8686E096E00E94BD8689EC93E09093F3
:102ED000BF048093BE040E94CD7E86E894E00E94E9
:102EE000C3858CE694E00E94C38582E594E00E944D
:102EF000C3851F910F91FF90EF90DF90CF90BF900F
:102F0000AF909F908F90089580E090E06FEF7FEFFB
:102F10000E949316089581E090E06FEF7FEF0E948A
:102F2000931608950F931F938C0186E096E0F801A5
:102F300060850E94E9978DEF97E0F80161850E9416
:102F4000E99784EF99E0F80162850E94E9971F9163
:102F50000F910895AF92BF92CF92DF92EF92FF92BE
:102F60000F931F938C01B6E0AB2EB6E0BB2EC501CC
:102F70000E94BE86F8018087ADEFCA2EA7E0DA2E48
:102F8000C6010E94BE86F8018187F4EFEF2EF9E0BA
:102F9000FF2EC7010E94BE86F8018287C50164E04A
:102FA0000E94E997C60160E10E94E997C70160E1CC
:102FB0000E94E9971F910F91FF90EF90DF90CF90C3
:102FC000BF90AF90089541E00E9452A8089542E05A
:102FD0000E9452A8089541E00E9452A8089541E03D
:102FE0000E9452A8089544E00E9452A8089541E02A
:102FF0000E94ADA808950F931F93CF93DF938FE0A6
:10300000689F800111240E5B1F4FCDEAD0E107C0FD
:10301000C801BE010E94F7170F5F1F4F219680E184
:10302000CC3BD807A9F7DF91CF911F910F9108955D
:1030300041E00E94ADA8089542E00E94ADA8089525
:10304000809322031092230380E090E062E273E019
:103050000E941C18089541E00E94ADA8089544E024
:103060000E94ADA808950E94F9A9089521E2209335
:10307000AD1229E02093AE1221E032E03093B0127D
:103080002093AF121092B2121092B11220E330E0EE
:103090003093B4122093B3121092A7000E94C1AED5
:1030A00090E0882309F491E0892F0895FC01808144
:1030B0008823C9F066874787409346038685813019
:1030C00021F48FEF8093470302C0109247031092C0
:1030D000480310924903858580934E0385E493E06D
:1030E00060E30E9436180895CF93DF93EC018C8D36
:1030F000882309F454C00E94EAB29B01AC0189A55F
:103100009AA5ABA5BCA5281B390B4A0B5B0B6FA17D
:1031100078A561157105D1F0CB01A0E0B0E02817CA
:1031200039074A075B0768F018A61FA289A19AA170
:103130009EA38DA388A18F5F88A380E390E161E0C7
:1031400020C0621B730B78A76FA323C06DA17EA163
:1031500061157105F1F0CB01A0E0B0E02817390747
:103160004A075B0790F08F8D81508F8F882311F471
:103170001C8E04C08BA19CA198A78FA380E390E133
:1031800060E04EEF0E94561804C0621B730B7EA3D2
:103190006DA30E94EAB269A77AA78BA79CA7DF91CB
:1031A000CF910895FC01148E80E390E160E040E04F
:1031B0000E9456180895CF93DF93EC01222319F44F
:1031C0000E94D21812C081E08C8F2F8F18A258A7AE
:1031D0004FA35CA34BA37AA369A31EA21DA20E94C6
:1031E000EAB269A77AA78BA79CA7DF91CF91089530
:1031F00066E970E044E650E021E00E94DB180895A3
:103200007F928F929F92AF92BF92CF92DF92EF9276
:10321000FF920F931F93CF93DF934C01742EE9011C
:1032200080E390E10E94EA15833019F5BE0180E049
:1032300090E00E944DC37B018C012AE939E949E104
:103240005EE30E9403C40E9421C35B016C01C801BC
:10325000B7012AE939E949E55FE30E9403C40E9406
:1032600021C39B01AC01C401B501A901272D0E9416
:10327000DB18DF91CF911F910F91FF90EF90DF90BE
:10328000CF90BF90AF909F908F907F9008959F9226
:10329000AF92BF92CF92DF92EF92FF920F931F9364
:1032A000CF93DF93EC01162FA42E6901902E80E3BB
:1032B00090E1642F0E94EA15982F8091C110882315
:1032C00029F08091C010A81609F078C0933009F059
:1032D00060C0112399F5A092C01081E08093C110C5
:1032E0000E94EAB26093BC107093BD108093BE1030
:1032F0009093BF10B70180E090E00E944DC37B0126
:103300008C012AE939E949E15EE30E9403C40E9485
:1033100021C35B016C01C801B7012AE939E949E51C
:103320005FE30E9403C40E9421C39B01AC01CE0154
:10333000B501A9012FEF0E94DB1840C0133011F036
:103340001130E1F5B70180E090E00E944DC37B01B0
:103350008C012AE939E949E15EE30E9403C40E9435
:1033600021C35B016C01C801B7012AE939E949E5CC
:103370005FE30E9403C40E9421C39B01AC01CE0104
:10338000B501A901292D0E94DB1881E08093C210AC
:1033900015C0923099F48091C210813019F41092C6
:1033A000C2100CC0882351F4CE010E94D218109292
:1033B000C11088A1F601808381E001C080E0DF9127
:1033C000CF911F910F91FF90EF90DF90CF90BF9022
:1033D000AF909F900895FC0180818823F1F02585AE
:1033E000413049F481E090E002C0880F991F6A954E
:1033F000E2F7282B09C081E090E002C0880F991FF6
:103400006A95E2F7809528232587858580934E036A
:1034100085E493E060E30E9436180895EF92FF92EE
:103420000F931F93CF93DF937C018FE0689F800100
:1034300011240E5B1F4FCDEAD0E107C0C801BE01C9
:103440000E94E3170F5F1F4F219680E1CC3BD80706
:10345000A9F740E0F70185A5882309F441E080E35E
:1034600090E162E00E94EB19DF91CF911F910F91E3
:10347000FF90EF900895FC018AE086A717A610AA96
:1034800011AA81E085A784AB16AA82E082AB13AAB9
:1034900017AA10AE15AA83AF12AE11AE80E390E169
:1034A00062E040E00E94EB1908950F931F938C0196
:1034B00080E390E10E94E015F801118280E88383A7
:1034C000848385838683138E1782148EC8010E949D
:1034D0003B1AF801128281EF95E060E00E94E1A1C1
:1034E00081E080930506F80110821F910F910895E5
:1034F0000F931F93CF93DF93EC018B01888184FF9F
:103500000FC08981882321F083E992E10E9441BAAA
:103510008A81882329F08B819C81B8010E9441BA5D
:10352000DF91CF911F910F9108950F931F93CF9328
:10353000DF93EC018B01888183FF0FC08981882391
:1035400021F083E992E10E9441BA8A81882329F01F
:103550008B819C81B8010E9441BADF91CF911F916C
:103560000F9108959C0181E08093A7008091A900AC
:103570008F7B8093A9008091A60080FD06C080917A
:10358000A90080648093A9000BC06091F60070913F
:10359000F700C90140E050E00E94A0A9882311F083
:1035A00080E008958091A6008E778093A600809198
:1035B000A90080648093A90081E00895CF93DF93F0
:1035C000EC018091B5128B30E1F488818823C9F039
:1035D00011C08A899B89AC89BD898D839E83AF8305
:1035E000B8878E8989838F898A83888D8B83898D1B
:1035F0008C8307C0CE01409660E30E94B21A8823F4
:1036000041F7DF91CF9108950F9381E863E041E0A6
:1036100020E430E000E00E94F4A882E063E042E0B1
:1036200020E430E00E94F4A80F910895DF93CF9337
:10363000CDB7DEB7C851D2400FB6F894DEBF0FBE8B
:10364000CDBF81E060E0AE01495F5F4F22E10E94A3
:10365000D1AF882309F05BC081E0BE016F5F7F4F6F
:10366000AE01475E5F4F20E032E00E94BBAC882392
:1036700009F04DC08F8598898C54954009F047C05A
:1036800089899A898856924009F041C081E00E9458
:10369000EEAF8823E1F50E94041B82E48B838CE06B
:1036A0008C831D821E8281E28093AD1289E080931B
:1036B000AE1284EF93E09093B0128093AF12109209
:1036C000B2121092B11284E090E09093B412809301
:1036D000B3121092A700CE0103960E94C1AE8823B8
:1036E000B1F480E8809331108093321080933310CE
:1036F0008093341080E390E10E94E61581E080938E
:10370000301084E19CE068E171E00E94781AC85EA4
:10371000DD4F0FB6F894DEBF0FBECDBFCF91DF9166
:103720000895A82FFB019A0180911603823041F081
:10373000833019F0813089F40AC08CE295E002C030
:103740008AEC94E06A2FAF010E9492A608958EE859
:1037500095E06A2FAF010E9492A60895E82F9A0182
:10376000AB0180911603823041F0833019F0813033
:1037700079F409C08CE295E002C08AEC94E06E2FE7
:103780000E940AA708958EE895E06E2F0E940AA76E
:103790000895E82F9A01AB0180911603823041F021
:1037A000833019F0813079F409C08CE295E002C0D1
:1037B0008AEC94E06E2F0E94E3A608958EE895E0CF
:1037C0006E2F0E94E3A60895282FAB018091160367
:1037D000823041F0833019F0813079F409C08CE2F5
:1037E00095E002C08AEC94E0622F0E9431A7089510
:1037F0008EE895E0622F0E9431A70895282FAB0133
:1038000080911603823041F0833019F0813079F4D1
:1038100009C08CE295E002C08AEC94E0622F0E941D
:1038200052A708958EE895E0622F0E9452A708954E
:10383000282F462F80911603823041F0833019F0F3
:10384000813079F409C08CE295E002C08AEC94E002
:10385000622F0E94BEA608958EE895E0622F0E9416
:10386000BEA60895682F80911603823041F0833000
:1038700019F0813069F408C08CE295E002C08AEC4E
:1038800094E00E94DDA608958EE895E00E94DDA6F2
:1038900008950F931F93CF93DF93EC018B018881E1
:1038A00083FF0FC08981882321F083E992E10E9480
:1038B00055BA8A81882329F08B819C81B8010E94A6
:1038C00055BADF91CF911F910F910895EF92FF921A
:1038D0000F931F93CF93DF93EC017A018B018881C3
:1038E00084FF14C08981882331F083E992E122E0CA
:1038F00030E00E942DBA8A81882341F08B819C811F
:10390000B801A70122E030E00E942DBADF91CF91EB
:103910001F910F91FF90EF9008959C01C397C1975D
:10392000E0F486E096E060E021E030E040E050E046
:103930000E946D9C8DEF97E060E021E030E040E078
:1039400050E00E946D9C84EF99E060E021E030E05F
:1039500040E050E00E946D9C089525363105D8F076
:1039600086E096E061E021E030E040E050E00E9437
:103970006D9C8DEF97E061E021E030E040E050E0A9
:103980000E946D9C84EF99E061E021E030E040E02E
:1039900050E00E946D9C08952F923F924F925F924B
:1039A0006F927F928F929F92AF92BF92CF92DF924F
:1039B000EF92FF920F931F93CF93DF930E94EAB28F
:1039C0006624772443014424552437EF232E31E025
:1039D000332E429CE001439CD00D529CD00D11240B
:1039E000CA5FD94FCE010E94EA868823F1F0CE014A
:1039F0000E9455895B016C01CE010E942C897B01DC
:103A00008C01CE010E945589A80197012A0D3B1D0A
:103A10004C1D5D1D260F371F481F591F6216730668
:103A20008406950610F439014A010894411C511C82
:103A300083E04816510469F60E942389882391F493
:103A400081EF95E00E94EEA1A0E0B0E08615970519
:103A5000A805B90538F481EF95E00E94EEA13C017C
:103A6000882499240E942389882339F460911304BF
:103A70007091140480E090E014C06091250470916E
:103A800026048091270490912804209142043091CB
:103A900043044091440450914504621B730B840B12
:103AA000950B0E944DC37B018C01C401B3010E94A0
:103AB0004DC39B01AC01C801B7010E94B4C220E014
:103AC00030E048EC52E40E9403C47B018C0120E00A
:103AD00030E040E050E00E94FFC388234CF0C80172
:103AE000B70120E030E040E05FE30E944CC208C034
:103AF000C801B70120E030E040E05FE30E944BC224
:103B00000E941CC3162F662301F58091EA108823BA
:103B1000E1F00E9460118823C1F484E68093EA10EA
:103B20008091EA10DF91CF911F910F91FF90EF905C
:103B3000DF90CF90BF90AF909F908F907F906F90CD
:103B40005F904F903F902F9008951093EA10E8CF28
:103B50004F925F926F927F928F929F92AF92BF929D
:103B6000CF92DF92EF92FF920F931F93CF93DF9349
:103B70000E942389882381F566247724C0E0D0E061
:103B800047EF442E41E0542EC49D8001C59D100D89
:103B9000D49D100D11240A5F194FC8010E94558948
:103BA0004B015C01C8010E942C896B017C01C8019A
:103BB0000E946889C601880D991D860F971F681697
:103BC000790608F43C012196C330D105E9F681EF6E
:103BD00095E0B3010E94EAA1DF91CF911F910F916F
:103BE000FF90EF90DF90CF90BF90AF909F908F901D
:103BF0007F906F905F904F9008952F923F924F92D9
:103C00005F926F927F928F929F92AF92BF92CF926C
:103C1000DF92EF92FF920F931F93DF93CF9300D029
:103C200000D0CDB7DEB72224332421011A821982B5
:103C300049815A8187EF91E0489F9001499F300D5B
:103C4000589F300D11242A5F394F3C832B83C901C3
:103C50000E94EA86882309F44CC00E9423898823A5
:103C600039F581EF95E00E94BFA13B014C018B81AA
:103C70009C810E9455895B016C018B819C810E9413
:103C80002C897B018C018B819C810E946889EA0CC4
:103C9000FB1C0C1D1D1DE60EF71E081F191FC80179
:103CA000B701A40193010E94CBC49B01AC011AC0CF
:103CB0008B819C810E9455895B016C018B819C8169
:103CC0000E942C897B018C018B819C810E946889D8
:103CD000A80197012A0D3B1D4C1D5D1D260F371FA6
:103CE000481F591F221633064406550610F41901C1
:103CF0002A01E981FA813196FA83E983339709F041
:103D000097CF209142043091430440914404509154
:103D10004504220D331D441D551DB901CA010F90E4
:103D20000F900F900F90CF91DF911F910F91FF9007
:103D3000EF90DF90CF90BF90AF909F908F907F904B
:103D40006F905F904F903F902F90089586E096E09F
:103D50000E944887882371F48DEF97E00E9448877E
:103D6000882341F484EF99E00E944887882319F062
:103D700081E0089581E0089586E096E00E949387AF
:103D800008951F93CF93DF93EC01162F888184FF52
:103D900013C08981882331F083E992E14AE050E041
:103DA0000E9406B98A81882339F08B819C81612F1A
:103DB0004AE050E00E9406B9DF91CF911F9108952B
:103DC0001F93CF93DF93EC01162F888183FF13C0DD
:103DD0008981882331F083E992E14AE050E00E9432
:103DE000F4B88A81882339F08B819C81612F4AE065
:103DF00050E00E94F4B8DF91CF911F9108951F9376
:103E0000CF93DF93EC01162F888180FF13C0898147
:103E1000882331F083E992E14AE050E00E94F4B84F
:103E20008A81882339F08B819C81612F4AE050E0A0
:103E30000E94F4B8DF91CF911F910895FF920F93E4
:103E40001F93CF93DF93EC01F62E8A01888180FFC8
:103E500010C08981882321F083E992E10E94F4B89F
:103E60008A81882331F08B819C816F2DA8010E946B
:103E7000F4B8DF91CF911F910F91FF9008951F9398
:103E8000CF93DF93EC01162F888184FF13C08981C3
:103E9000882331F083E992E14AE050E00E94F4B8CF
:103EA0008A81882339F08B819C81612F4AE050E020
:103EB0000E94F4B8DF91CF911F9108950F931F9343
:103EC000CF93DF93EC018B01888183FF0FC0898141
:103ED000882321F083E992E10E9491B98A818823A5
:103EE00029F08B819C81B8010E9491B9DF91CF911B
:103EF0001F910F9108950F931F93CF93DF93EC01C0
:103F00008B01888180FF0FC08981882321F083E99C
:103F100092E10E9491B98A81882329F08B819C814A
:103F2000B8010E9491B9DF91CF911F910F9108952F
:103F30000F931F93CF93DF93EC018B01888180FF58
:103F40000FC08981882321F083E992E10E9491B911
:103F50008A81882329F08B819C81B8010E9491B9C4
:103F6000DF91CF911F910F9108950F931F93CF93DE
:103F7000DF93EC018B01888184FF0FC08981882346
:103F800021F083E992E10E9491B98A81882329F086
:103F90008B819C81B8010E9491B9DF91CF911F91D3
:103FA0000F910895DF92EF92FF920F931F93CF939B
:103FB000DF93D82E80913C0C90913D0C823091057E
:103FC00009F49FC08330910534F4009769F001979C
:103FD00009F046C128C08330910509F42EC184360A
:103FE000910509F03DC12EC18DE0D81609F43CC100
:103FF0009AE0D91609F438C181E090E090933D0C25
:1040000080933C0C90933F0C80933E0C1092400C9C
:104010001092410C1092420C1092430C1092440CDE
:104020001092450C21C180913B0C883631F4E9E6B1
:10403000DE1609F015C18AE00DC08D3629F4F3E7CC
:10404000DF1659F48EE106C0833761F481E6D81695
:1040500009F582E38093400CF2C09DE6D91651F435
:1040600088E246C08E3661F4E0E7DE1609F0F8C05B
:104070008FE13EC0F0E7DF1609F0F2C08BE238C0F6
:104080008A3731F48DE6D81609F0EAC08CE230C0E8
:10409000833731F49DE6D91609F0E2C08AE228C0E0
:1040A000803731F4E2E7DE1609F0DAC089E220C099
:1040B000823631F4F6E6DF1609F0D2C08CE318C080
:1040C000873631F48FE6D81609F0CAC08DE3C2CF27
:1040D0008A3631F49DE6D91609F0C2C086E408C0DC
:1040E000893609F0BDC0EDE6DE1609F0B9C087E4F7
:1040F0008093400C82E090E090933D0C80933C0CC8
:10410000B3C09D2D90539A3020F0FDE2DF1609F0E8
:1041100065C080913B0C8032C1F58091410C8F5F6E
:104120008093410C883248F083E992E168E271E0C3
:104130000E9491B983E090E0DFCFE82FF0E0EE0F2E
:10414000FF1FEE0FFF1FE25CF34F108211821282FD
:1041500013828DE2D81639F48FEF9FEF90933F0CC6
:1041600080933E0C81C081E090E090933F0C80935F
:104170003E0C8D2D90E0C097AA2797FDA095BA2FF1
:1041800080839183A283B3836FC09A3038F56091A6
:10419000410CC62FD0E0CC0FDD1FCC0FDD1FC25C61
:1041A000D34FED2CFF24E0EDFFEFEE0EFF1E0027B6
:1041B000F7FC0095102F688179818A819B812AE024
:1041C00030E040E050E00E94CBC4E60EF71E081F2E
:1041D000191FE882F9820A831B8346C0F0E2DF16CA
:1041E00021F08DE0D81609F03FC080913B0C805340
:1041F0008A30F8F40091410C0023D9F010E0000F50
:10420000111F000F111F025C134F20913E0C3091C3
:104210003F0C442737FD4095542FF8016081718190
:10422000828193810E94CBC4F80160837183828371
:104230009383FDE0DF16C1F402C01092400C84E6C7
:1042400090E05ACF8AE0D81679F480913B0C8D30FB
:1042500059F48091400C10923D0C10923C0C05C01A
:1042600010923D0C10923C0C80E0D0923B0CDF9100
:10427000CF911F910F91FF90EF90DF900895EF92F3
:10428000FF920F931F93CF93DF93EC017A018B0181
:10429000888183FF14C08981882331F083E992E10A
:1042A0002AE030E00E9456B98A81882341F08B8150
:1042B0009C81B801A7012AE030E00E9456B9DF9145
:1042C000CF911F910F91FF90EF900895EF92FF9281
:1042D0000F931F93CF93DF93EC017A018B018881B9
:1042E00084FF14C08981882331F083E992E12AE0B8
:1042F00030E00E9456B98A81882341F08B819C81ED
:10430000B801A7012AE030E00E9456B9DF91CF91B1
:104310001F910F91FF90EF900895EF92FF920F93EE
:104320001F93CF93DF93EC017A018B01888184FF87
:1043300014C08981882331F083E992E12AE030E0DA
:104340000E94CFB88A81882341F08B819C81B8017B
:10435000A7012AE030E00E94CFB8DF91CF911F91F2
:104360000F91FF90EF900895EF92FF920F931F939C
:10437000382F562F742FE22F78018EE895E0632FA7
:10438000452F272F0E2F0E946DA61F910F91FF9092
:10439000EF900895EF92FF920F931F93382F562FAF
:1043A000742FE22F78018EE895E0632F452F272F99
:1043B0000E2F0E946DA61F910F91FF90EF90089510
:1043C0008F929F92AF92BF92CF92DF92EF92FF9225
:1043D0000F931F93B82EA62E942E822E68018AEC7E
:1043E00094E06B2D4A2D292D082D76010E946DA693
:1043F0008CE295E06B2D4A2D292D0E946DA61F9110
:104400000F91FF90EF90DF90CF90BF90AF909F9073
:104410008F9008950F931F93BC0102E110E1C80132
:104420000E94EB0DC8011F910F9108954F925F926A
:104430007F928F929F92AF92BF92CF92DF92EF9234
:10444000FF920F931F93DF93CF93CDB7DEB7CB5778
:10445000D0400FB6F894DEBF0FBECDBF782E4B0113
:104460002A01EC960CAF1DAF2EAF3FAFEC97F8E0F2
:10447000CF2ED12CCC0EDD1EC6016FE371E00E9461
:1044800039BC0E94EAB2AB01BC017E010894E11C78
:10449000F11CC7012AE00E946CBCC601B7010E9452
:1044A000E8BB66E471E00E94CCBBBC018E01015FF9
:1044B0001F4FC8010E9418BD84E19CE0B8010E9412
:1044C000491CC8010E9429BDC7010E9423BDC60125
:1044D0000E9429BD83E0871520F081E07816B0F5B1
:1044E00009C084E0781609F473C085E0781609F0F5
:1044F000FEC0A9C08EE891E00E940A22BC01EDE155
:10450000CE2ED12CCC0EDD1EC6010E9439BC56E148
:10451000E52EF12CEC0EFD1EC701B4014AE00E940D
:104520009EBCC601B7010E94E8BB66E471E00E9430
:10453000CCBB8C01C2010E940A22BC01C8010E94AE
:10454000CCBBBC018E010C5D1F4F6DC083E991E0B7
:104550000E940A22BC0142E3A42EB12CAC0EBD1E67
:10456000C5010E9439BC3BE2C32ED12CCC0EDD1E0E
:10457000C601B4014AE00E949EBCC501B6010E947A
:10458000E8BB6AE471E00E94CCBB8C0129E3E22E17
:10459000F12CEC0EFD1E672D70E061507040C701DC
:1045A0004AE00E949EBCC801B7010E94E8BB66E4D5
:1045B00071E00E94CCBB8C01C2010E940A22BC01A6
:1045C000C8010E94CCBBBC018E01005C1F4F7BC0A8
:1045D00088E991E00E940A22BC019EE4C92ED12CF8
:1045E000CC0EDD1EC6010E9439BC87E4E82EF12CFA
:1045F000EC0EFD1EC701B4014AE00E949EBCC6013C
:10460000B7010E94E8BB66E471E00E94CCBB8C015C
:10461000C2010E940A22BC01C8010E94CCBBBC019D
:104620008E010B5A1F4FC8010E9418BD84E19CE007
:10463000B8010E94491CC8010E9429BDC7010E94FF
:1046400023BDC60152C08DE991E00E940A22BC013F
:1046500003E6A02EB12CAC0EBD1EC5010E9439BCD4
:104660001CE5C12ED12CCC0EDD1EC601B4014AE0E2
:104670000E949EBCC501B6010E94E8BB64E571E0E2
:104680000E94CCBB8C010E944883BC01BAE6EB2E91
:10469000F12CEC0EFD1EC7014AE00E949EBCC80131
:1046A000B7010E94E8BB66E471E00E94CCBB8C01BC
:1046B000C2010E940A22BC01C8010E94CCBBBC01FD
:1046C0008E010F581F4FC8010E9418BD84E19CE065
:1046D000B8010E94491CC8010E9429BDC7010E945F
:1046E00023BDC6010E9423BDC5010E9429BDEC96D1
:1046F0006CAD7DAD8EAD9FADEC9728E23BE64EE60E
:104700005EEC0E94B0C2882339F484E19CE06DE540
:1047100071E00E94951A26C08091140C83FF22C07C
:104720008091150C882361F083E992E1EC964CAD01
:104730005DAD6EAD7FADEC9722E030E00E942DBA0A
:104740008091160C882371F08091170C9091180CB1
:10475000EC964CAD5DAD6EAD7FADEC9722E030E0F8
:104760000E942DBAC558DF4F0FB6F894DEBF0FBEBA
:10477000CDBFCF91DF911F910F91FF90EF90DF9010
:10478000CF90BF90AF909F908F907F905F904F9011
:1047900008950F931F9308E21BE62EE63EEC0E945D
:1047A00016221F910F910895EF92FF920F931F937E
:1047B000F82EE62E8A0189E19EE00E940A22BC01C1
:1047C00084E19CE00E94981F84E19CE06F2D0E9490
:1047D000FF1E82E29EE00E940A22BC0184E19CE06E
:1047E0000E94981F84E19CE06E2D0E94FF1E8CE2C7
:1047F0009EE00E940A22BC0184E19CE00E94981F76
:1048000084E19CE0F801608140E150E00E941E1FBD
:1048100086E39EE00E940A22BC0184E19CE00E94A3
:10482000981F84E19CE0F801618140E150E00E9422
:104830001E1F80E49EE00E940A22BC0184E19CE0ED
:104840000E94981F84E19CE0F801628140E150E001
:104850000E941E1F8AE49EE00E940A22BC0184E19D
:104860009CE00E94981F84E19CE0F801638140E194
:1048700050E00E941E1F84E59EE00E940A22BC01B7
:1048800084E19CE00E94981F84E19CE0F80164812F
:1048900040E150E00E941E1F8EE59EE00E940A2229
:1048A000BC0184E19CE00E94981FE0904D04F090D0
:1048B0004E0400914F04109150048091140C80FF1D
:1048C0001AC08091150C882341F083E992E1B80168
:1048D000A7012AE030E00E94CFB88091160C88230F
:1048E00051F08091170C9091180CB801A7012AE0A3
:1048F00030E00E94CFB88091140C80FF16C08091E8
:10490000150C882331F083E992E16DE571E00E9496
:1049100041BA8091160C882341F08091170C909138
:10492000180C6DE571E00E9441BA1F910F91FF9044
:10493000EF9008950F931F93CF93DF93EC018B01BA
:10494000888184FF0FC08981882321F083E992E167
:104950000E94F3B78A81882329F08B819C81B8015A
:104960000E94F3B7DF91CF911F910F9108950F939C
:104970001F93CF93DF93EC018B01888183FF0FC0DE
:104980008981882321F083E992E10E9434B88A81E9
:10499000882329F08B819C81B8010E9434B8DF9173
:1049A000CF911F910F9108952F923F924F925F9256
:1049B0006F927F928F929F92AF92BF92CF92DF922F
:1049C000EF92FF920F931F93DF93CF93CDB7DEB794
:1049D0002E970FB6F894DEBF0FBECDBF84E19CE0EA
:1049E00063E77EE00E94B72488249924B7EFAB2EBA
:1049F000B1E0BB2E8A9C80018B9C100D9A9C100DFF
:104A000011240A5F194FC8010E94F6886B017C01CE
:104A1000C8010E940689AB01BC01C8010E94EE8852
:104A2000C801B701A6010E94FE880894811C911C50
:104A300023E082169104F1F61E821D828D819E81F3
:104A40000E9443838D819E81EAE1F0E08E9F700198
:104A50008F9FF00C9E9FF00C112422E534E0E20EB3
:104A6000F31EC7010E945C832C01009709F4AAC0C1
:104A70009E878D878C01000F111F000F111FC80129
:104A80000E94140C9A873C018987C8010E94140C6B
:104A90009B874C018887C8010E94140C9C875C018D
:104AA0008F83B20161507040C7010E948183698386
:104AB0007A838B839C8322243324CC24DD2435C049
:104AC000C7016D857E850E9481839B01AC018301B6
:104AD0000C0D1D1D69817A818B819C810E944BC2C6
:104AE000F8016083718382839383C7016D857E851E
:104AF0000E94BC83F401EC0DFD1D608371838283F1
:104B00009383C7016D857E850E94F783F501EC0DC7
:104B1000FD1D905860837183828393830894211CC8
:104B2000311C24E030E0C20ED31E8D859E85019796
:104B30009E878D87241435041CF2C7010E947D8353
:104B4000C7010E94B883C7010E94F383C701B20165
:104B50000E94C68500E010E0CC24DD2424C0F301CF
:104B6000EC0DFD1D4081518162817381C7010E945E
:104B70006083F401EC0DFD1D4081518162817381E0
:104B8000C7010E949383F501EC0DFD1D4081518109
:104B900062817381C7010E94CE830F5F1F4FE4E0E3
:104BA000F0E0CE0EDF1E04151505CCF289859A853E
:104BB0000E94BE0C88859B850E94BE0C8F819C85BF
:104BC0000E94BE0C2D813E812F5F3F4F3E832D837F
:104BD0002330310509F032CF2E960FB6F894DEBFA0
:104BE0000FBECDBFCF91DF911F910F91FF90EF903E
:104BF000DF90CF90BF90AF909F908F907F906F90FD
:104C00005F904F903F902F9008950F931F93CF93F5
:104C1000DF93EC018B01888184FF0FC08981882399
:104C200021F083E992E10E9434B88A81882329F037
:104C30008B819C81B8010E9434B8DF91CF911F9184
:104C40000F910895EF92FF920F931F93E82E84E146
:104C50009CE06FE073E10E94052680911104882397
:104C6000F1F084E19CE065EE72E10E940526EE2001
:104C700021F080910110882371F58091100481301A
:104C800039F484E19CE062EB72E10E9405261AC0CF
:104C900084E19CE068E872E10E9405261CC0E09077
:104CA0002503F090260300E010E081EF95E00E94DC
:104CB000BFA1E616F7060807190798F080910110C2
:104CC000882379F481E008C090910110911191E05E
:104CD00081E0892701C080E01F910F91FF90EF9044
:104CE00008950E94EAB27B018C018091FD0F9091A2
:104CF000FE0FA091FF0FB0910010E81AF90A0A0BFD
:104D00001B0B81EF95E00E94BFA1209125033091FC
:104D1000260340E050E0621B730B840B950BE616F4
:104D2000F70608071907B8F2CFCF0F931F93DF9349
:104D3000CF93CDB7DEB727970FB6F894DEBF0FBE7F
:104D4000CDBF809351048091140C83FF16C08091D5
:104D5000150C882331F083E992E16DEA7EE00E9430
:104D6000F3B78091160C882341F08091170C909135
:104D7000180C6DEA7EE00E94F3B78E010F5F1F4FA3
:104D8000C801609151044AE00E94CFBC8091140C8C
:104D900083FF16C08091150C882329F083E992E1E6
:104DA000B8010E9488BA8091160C882349F080913E
:104DB000170C9091180CBE016F5F7F4F0E9488BA4C
:104DC000CE0101960E9423BD809151048823C9F031
:104DD00086E096E040E050E060E070E00E94B88736
:104DE0008DEF97E040E050E060E070E00E94B8870F
:104DF00084EF99E040E050E060E070E00E94B88706
:104E000003C080E00E946D1127960FB6F894DEBFB4
:104E10000FBECDBFCF91DF911F910F9108950F93DA
:104E20001F93CF93DF93EC018B01888184FF0FC028
:104E30008981882321F083E992E10E9488BA8A81DE
:104E4000882329F08B819C81B8010E9488BADF9168
:104E5000CF911F910F9108952F923F924F925F92A1
:104E60006F927F928F929F92AF92BF92CF92DF927A
:104E7000EF92FF920F931F93DF93CF9300D000D058
:104E80000F92CDB7DEB7D82E6D83809112048823A0
:104E900009F455C02D2D30E087EF91E0AC01249F3F
:104EA000C001259F900D349F900D11248A5F994F6A
:104EB0000E9466913B014C0181EF95E00E94D3A1D5
:104EC0007C0181EF95E00E94DBA11B012C0181EFA9
:104ED00095E00E94D7A15C01C401B30120E030E05D
:104EE0004AEF55E40E94B4C220E030E04AE754E4BF
:104EF0000E9403C43B014C0100E010E0CC24DD24FF
:104F0000EA0CFB1C0C1D1D1DE20CF31C041D151DE1
:104F1000C801B7010E944DC39B01AC01C401B3019C
:104F20000E944BC20E9421C3AB01BC0181EF95E0FE
:104F30000E94B9A15D81552309F0B4C0B5C00E949B
:104F40002389882309F04DC081EF95E00E94BFA11D
:104F50007B018C0181EF95E00E94D3A13C0181EFA0
:104F600095E00E94DBA11B012C0181EF95E00E94DE
:104F7000D7A15C012D2D30E087EF91E0FC012E9F41
:104F8000C0012F9F900D3E9F900D11248A5F994F75
:104F90000E94669169837A838B839C8388249924F9
:104FA000E618F70808091909E218F30804091509B1
:104FB000CC24DD24EA18FB080C091D09C801B7013F
:104FC0000E944DC320E030E04AE754E40E94B4C29E
:104FD0009B01AC0169817A818B819C810E94B4C262
:104FE00014C00E942389882391F08D2D90E027EF33
:104FF00031E0AC01429FC001439F900D529F900D44
:1050000011248A5F994F0E9466917B018C0184E193
:105010009CE065E37FE00E949A2484E19CE0B80173
:10502000A7010E94661CC801B70120E030E04AE7F2
:1050300056E40E94FFC3882344F084E19CE06BE1C6
:105040007FE00E94052680E032C05D81552361F13A
:10505000C801B70120E030E04AEF55E40E94FFC3E9
:10506000882364F0C801B70120E030E04AE756E445
:105070000E94B0C2882314F484E019C0C801B701AB
:1050800020E030E04AEF55E40E94B0C2882374F477
:10509000C801B70120E030E04AE755E40E94FFC3B1
:1050A000181624F488E003C081E001C080E10F906D
:1050B0000F900F900F900F90CF91DF911F910F9154
:1050C000FF90EF90DF90CF90BF90AF909F908F9028
:1050D0007F906F905F904F903F902F900895CF9268
:1050E000DF92EF92FF920F931F93DF93CF930F9274
:1050F000CDB7DEB7D82EC62E84E19CE06DEF7EE002
:105100000E9405260E94EAB280913104882309F0AA
:105110004DC0ED2CFF2487EF91E0E89E8001E99ED1
:10512000100DF89E100D11240A5F194FC8010E943E
:1051300048878823D9F58D2D61E00E942C27682FA0
:10514000CC2021F0882339F161E025C0882311F4B7
:105150006FEF21C08983C8010E94E997C701880FBA
:10516000991F9C0113E0220F331F1A95E1F7820F5C
:10517000931F4C96BE016F5F7F4F0E94181884E109
:105180009CE066EE7EE00E949A2484E19CE06981C6
:105190000E94C11E6981862F0F90CF91DF911F91D0
:1051A0000F91FF90EF90DF90CF90089584E19CE005
:1051B00068EB7EE00E94052660E0EDCF60E00E9493
:1051C0006F28089560E00E942C270895EF92FF92C7
:1051D0001F93CF93DF9310E0C0E0D0E081E0E82E92
:1051E000F12C8C2F0E94E228813041F4C7010C2E53
:1051F00002C0880F991F0A94E2F7182B2196C3303A
:10520000D10579F7812FDF91CF911F91FF90EF901A
:10521000089590E027EF31E0AC01429FC001439F29
:10522000900D529F900D11248A5F994F0E94EF8636
:105230000895EF92FF921F93CF93DF9310E0C0E0A9
:10524000D0E091E0E92EF12C8C2F0E9409298130C9
:1052500041F4C7010C2E02C0880F991F0A94E2F78F
:10526000182B2196C330D10579F7812FDF91CF918B
:105270001F91FF90EF9008950F931F93DF93CF93AB
:105280000F92CDB7DEB76983082F10E087EF91E06A
:10529000AC01049FC001059F900D149F900D112437
:1052A0008A5F994F0E94CF93000F111FC80123E01E
:1052B000880F991F2A95E1F7080F191FC8014D960D
:1052C000BE016F5F7F4F0E942B180F90CF91DF912F
:1052D0001F910F9108952F923F924F925F926F927C
:1052E0007F928F929F92AF92BF92CF92DF92EF9276
:1052F000FF920F931F93DF93CF93CDB7DEB76297E3
:105300000FB6F894DEBF0FBECDBF80E090E062E242
:1053100073E00E94E71782E090E067E173E04AE003
:105320000E9452A882E490E068E074E00E94EB17CB
:1053300083E490E06AE074E00E94EB1784E490E07C
:1053400069E074E00E94EB1780910804823010F04D
:105350001092080480910A04823010F010920A041E
:1053600080910904823010F01092090419821A8287
:105370001B821C821D821E821F82188619861A8635
:105380001B861C861D861E861F86188A198A1A8A05
:10539000F9E1AF2EF4E0BF2ECC24DD24ECE1EE2EBB
:1053A000F12C77E0272E312C2C0E3D1E6BE0462E83
:1053B000512C4C0E5D1E5FE0652E712C6C0E7D1E17
:1053C00047EF842E41E0942EC701BE016F5F7F4FEF
:1053D0000E94EB17C7010196BE016E5F7F4F0E94CE
:1053E000EF17C7014097BE016D5F7F4F0E94F31713
:1053F000C7010897B1010E94F317C7010497B201D2
:105400000E94F317C7010C97B3010E94F317C89CC1
:105410008001C99C100DD89C100D11240A5F194FF2
:10542000C80169810E94E997C8016A810E94CF93EF
:1054300080910804882339F04B815C816D817E81E5
:10544000C8010E940E8980910A04882371F04F815F
:10545000588569857A85C8010E94EE884B855C85F0
:105460006D857E85C8010E94FE888091090488238D
:1054700049F08F859889A989BA89F501808391833C
:10548000A283B3830894C11CD11C82E190E0E80E92
:10549000F91EE4E0F0E0AE0EBF1EF3E0CF16D1043B
:1054A00009F092CF02E410E0B80165597F4EC801BF
:1054B0000E94E3170F5F1F4F01351105A9F7629690
:1054C0000FB6F894DEBF0FBECDBFCF91DF911F9115
:1054D0000F91FF90EF90DF90CF90BF90AF909F9093
:1054E0008F907F906F905F904F903F902F90089596
:1054F00080910406882331F08091E910882391F08F
:105500001092E91080910E04873041F080910F04D1
:10551000873021F08BEE9BE062E00AC08BEE9BE0CF
:1055200066E006C081E08093E9108BEE9BE064E0CA
:105530000E9477A10895843051F484E19CE069E0F1
:1055400075E10E9405268BEE9BE064E014C082307A
:10555000A9F484E19CE064EF74E10E940526809147
:1055600013049091140401969093140480931304EF
:105570008BEE9BE065E00E9477A10895863011F4E0
:105580000E94782A08958BEE9BE060E00E9477A14C
:1055900081EF95E00E9498A2089586E096E00E942F
:1055A0004887882361F48DEF97E00E94488788231D
:1055B00031F484EF99E00E9448878823F9F08091C4
:1055C00017048823D9F482E00E94A31586E096E0B0
:1055D0000E948E87AC0160E070E08DE091E10E9456
:1055E000797C8DE091E168E971E32FEF3FEF4FEFB8
:1055F0005FEF0E94907C81E08093170408954F92A2
:105600005F926F927F928F929F92AF92BF92CF9252
:10561000DF92EF92FF920F931F93CF93DF93582E59
:105620003A014B01422E222309F042C0282F30E0DC
:1056300087EF91E0289F6001299FD00C389FD00C04
:10564000112486E096E0C80ED91EC60164E00E94CF
:10565000E997C6010E94BE86E82EC6010E94C38655
:105660005C01C401B3010E944FC33B014C01FF2404
:1056700000E010E0C801B7010E944DC37B018C011E
:10568000CC24B7FCC094DC2CC601B5010E944FC3EA
:105690009B01AC01C801B7010E94B4C29B01AC01DF
:1056A000C401B3010E9403C40E941CC33B014C010E
:1056B00084E19CE064E67EE00E949A2484E19CE020
:1056C000652D0E943F1F84E19CE06EE571E00E9421
:1056D000B51F84E19CE0B401A3010E946621252D41
:1056E00030E087EF91E0289FE001299FD00D389F9F
:1056F000D00D1124CA5FD94F6091300370913103EE
:1057000080E090E00E944DC3AB01BC01CE010E943D
:10571000B887CE01B401A30121E00E94FD9B84E182
:105720009CE06CE671E00E94B51FCE010E94FE86EF
:10573000AB01BC0184E19CE00E94661C84E19CE01A
:1057400064E771E00E94B51FCE010E940D87682FAB
:1057500084E19CE00E94C11E0E94CD2A442021F4D5
:10576000CE0161E00E94C792DF91CF911F910F910E
:10577000FF90EF90DF90CF90BF90AF909F908F9071
:105780007F906F905F904F90089520E00E94FF2AD5
:1057900008950F931F9390E027EF31E0829F8001DF
:1057A000839F100D929F100D11240A5F194FC8019D
:1057B00064E00E94E997609130037091310380E0CA
:1057C00090E00E944DC3AB01BC01C8010E94B887A4
:1057D000C8010E94499C0E94CD2AC80161E00E9434
:1057E000C7921F910F91089586E096E00E94488726
:1057F0008823A1F48DEF97E00E944887882371F4F5
:1058000084EF99E00E944887882341F40E94C92BC5
:1058100081E00E94C92B82E00E94C92B08956F92FB
:105820007F928F929F92AF92BF92CF92DF92EF9230
:10583000FF920F931F93CF93DF9390E027EF31E018
:10584000829FE001839FD00D929FD00D1124CA5FEB
:10585000D94FCE010E9406897B018C01CE010E94A6
:10586000F6885B016C01CE010E94F6883B014C0179
:10587000CE010E94168930E0EA18FB080C091D09C8
:105880001E141F04100611060CF431E020E0661A05
:10589000770A880A990A16141704180419040CF4D4
:1058A00021E0321719F0CE0161E002C0CE0160E0C4
:1058B0000E948792CE0164E00E94E99760913003D4
:1058C0007091310380E090E00E944DC3AB01BC01B8
:1058D000CE010E94B887CE010E94579C0E94CD2A1B
:1058E000CE0161E00E94C792DF91CF911F910F918D
:1058F000FF90EF90DF90CF90BF90AF909F908F90F0
:105900007F906F90089586E096E00E9448878823F4
:10591000A1F48DEF97E00E944887882371F484EF0B
:1059200099E00E944887882341F40E940F2C81E06F
:105930000E940F2C82E00E940F2C08952F923F921C
:105940004F925F926F927F928F929F92AF92BF928F
:10595000CF92DF92EF92FF920F931F93DF93CF933B
:1059600000D000D000D0CDB7DEB749835A836B8317
:105970007C8327EF31E0829FA001839F500D929F8F
:10598000500D11244A5F594F5E834D83CA010E9416
:10599000F4867B018C0169817A818B819C8120E076
:1059A00030E040E050E00E94FFC318162CF46980FC
:1059B0007A808B809C8008C069807A808B809C80F4
:1059C00097FA909497F89094609130037091310316
:1059D00080E090E00E944DC35B016C01C401B30103
:1059E000A60195010E94FFC318162CF0A980BA8069
:1059F000CB80DC8010C069817A818B819C8120E022
:105A000030E040E050E00E94B0C2882324F4D7FA8E
:105A1000D094D7F8D0948D819E81B601A5010E94C3
:105A2000B887C801B70120E030E040E050E00E94B4
:105A3000FFC318165CF4C801B70120E030E040E86D
:105A40005FE30E94B0C287FD0BC03BC0C801B70135
:105A500020E030E040E85FEB0E94FFC3181604F539
:105A6000C601B50120E030E040E050E00E94FFC3F5
:105A7000181664F4C601B50120E030E040E85FE3A9
:105A80000E94FFC318160CF47DC00AC0C601B50100
:105A900020E030E040E85FEB0E94B0C287FD5CC0D0
:105AA000C801B70120E030E040E050E00E94FFC3B1
:105AB00018163CF01701280157FA509457F85094E3
:105AC00002C017012801C601B50120E030E040E026
:105AD00050E00E94FFC318161CF43501460106C0B1
