:100000000C941A010C944A2B0C947B2B0C94AC2B63
:100010000C94DD2B0C940E2C0C943F2C0C94702C17
:100020000C94A12C0C9445010C9464390C9445015A
:100030000C9445010C9445010C9445010C94A211BB
:100040000C9445010C9445010C9445010C94450118
:100050000C94D0110C9445010C9445010C94D22CB5
:100060000C9445010C94DD2E0C94D6300C94450173
:100070000C9445010C9445010C9445010C94861395
:100080000C94F3120C9439140C9445010C94450112
:100090000C9445010C944501000021002400270028
:1000A0002A002D00300000002200250028002B002F
:1000B0002E003100000020002300260029002C0023
:1000C0002F000101010101010101020202020202ED
:1000D00002020303030303030303040404040404EC
:1000E00004040505050505050505060606060606BC
:1000F00006060102040810204080010204081020B6
:1001000040800102040810204080010204081020F1
:1001100040800102040810204080010204081020E1
:100120004080000000000000000000000000070305
:100130000401000000000B0A090002080000000092
:1001400000000000000000000000000000000000AF
:10015000000000010203040506071201100102005D
:100160000008EB03442001000102030109023E00E4
:10017000020100C03209040000010202010005244E
:10018000001001042402060524060001070582036D
:100190000800FF09040100020A000000070504022C
:1001A00010000507058302100005040309042E034F
:1001B000440079006E0061006D006900630020005A
:1001C00050006500720063006500700074006900F3
:1001D0006F006E0020004C004C00430000003C0308
:1001E000440079006E0061006D006900630020002A
:1001F00050006500720063006500700074006900C3
:100200006F006E00200043004400430020005300B4
:1002100065007200690061006C0000000E03300090
:100220003000340035003700330000000B029130FD
:100230004B32040211241FBECFEFD0E2DEBFCDBF90
:1002400011E0A0E0B1E0E6EEF0E800E00BBF02C094
:1002500007900D92A43AB107D9F71BBE16E0A4EAA5
:10026000B1E001C01D92AC3BB107E1F712E0C2E37F
:10027000D2E004C02297FE010E946240CC32D10736
:10028000C9F70E94AC310C9466400C940000E091D8
:100290000005F0910105309709F0099508958F92B6
:1002A0009F92AF92BF92CF92DF92EF92FF920F9305
:1002B0001F938130910509F083C06F5F7F4F09F074
:1002C00098C086EB91E00E941B25A1B28DEC91E0D5
:1002D0006DE270E040E150E020E230E001E110E04A
:1002E000E2E1EE2EF12CB3E1CB2ED12CBB24A5E024
:1002F0008A2E912C0E941F22A1B28DE892E06EE21C
:1003000070E045E150E024E130E00DE110E0FEE175
:10031000EF2EF12CEFE1CE2ED12CB6E08B2E912CCE
:100320000E941F22A1B28DE493E06FE270E042E2EE
:1003300050E021E230E00FE010E0ABE2EA2EF12CD9
:10034000FCE2CF2ED12CE7E08E2E912C0E941F22B2
:1003500040911F018DE094E066E776E050E025E0F3
:1003600030E009E511E00E94D3298DE694E00E9477
:1003700097158EE694E066E00E94BF2310929304E6
:100380001092920488EE93E0A0E0B0E08093940491
:1003900090939504A0939604B093970486E691E019
:1003A000909391048093900440911F018CE994E014
:1003B00060E974E050E025E030E00E94D32919C0E4
:1003C000892BB9F46F5F7F4FA1F486E691E090939B
:1003D0009104809390040E94C3148DE493E00E94E2
:1003E000F4158DE892E00E94F4158DEC91E00E94E6
:1003F000F4151F910F91FF90EF90DF90CF90BF9079
:10040000AF909F908F90089580E090E06FEF7FEF26
:100410000E944F01089581E090E06FEF7FEF0E940E
:100420004F010895A82FFB019A018091310182307C
:1004300019F48CE994E002C08DE094E06A2FAF01DA
:100440000E9433280895E82F9A01AB018091310171
:10045000823019F48CE994E002C08DE094E06E2FB4
:100460000E947F280895E82F9A01AB018091310105
:10047000823019F48CE994E002C08DE094E06E2F94
:100480000E94C7280895E82F9A01AB01809131019D
:10049000823019F48CE994E002C08DE094E06E2F74
:1004A0000E94A5280895282FAB0180913101823048
:1004B00019F48CE994E002C08DE094E0622F0E9470
:1004C000E9280895282FAB0180913101823019F479
:1004D0008CE994E002C08DE094E0622F0E9405292F
:1004E0000895282F462F80913101823019F48CE92C
:1004F00094E002C08DE094E0622F0E945F2808958E
:10050000682F80913101823019F48CE994E002C0A7
:100510008DE094E00E94792808952F923F924F92A7
:100520005F926F927F928F929F92AF92BF92CF9283
:10053000DF92EF92FF920F931F93DF93CF9300D040
:1005400000D000D0CDB7DEB7182F7B01FB01B08003
:10055000018123E030E0E20EF31E8DE094E0B7016C
:100560000E94482569837A838B839C8345E050E011
:10057000E40EF51E8DE094E0B7010E9448253B0192
:100580004C0185E090E0E80EF91E8DE094E0B701A3
:100590000E9448251B012C01E5E0F0E0EE0EFF1E55
:1005A0008DE094E0B7010E9448256B017C01212F6A
:1005B00030E0002309F452C0A901415050405E834D
:1005C0004D8300D000D0EDB7FEB7319680EC90E0BF
:1005D0009A01289FA001299F500D389F500D11248A
:1005E00043535E4F20E0B11021E0C082D182E2820D
:1005F000F382CA01B401A301E980FA800B811C8156
:10060000620151010E94481BED81FE81EE0FFF1F28
:100610004D815E81E40FF51F86E0EE0FFF1F8A9586
:10062000E1F7E351FE4F81E080836092C301709255
:10063000C4018092C5019092C60180EC90E0489F71
:10064000F001499FF00D589FF00D1124E353FE4F28
:10065000168E0F900F900F900F903DC0215030409C
:1006600080EC90E0289FD001299FB00D389FB00DFD
:100670001124A353BE4F81E05E968C935E97F901DF
:10068000EE0FFF1FE20FF31F16E0EE0FFF1F1A958C
:10069000E1F7E351FE4F10825196BC925197569666
:1006A0002D923D924D925C9259975A96CD92DD9241
:1006B000ED92FC925D9752966D927D928D929C92F6
:1006C000559729813A814B815C811D962D933D93ED
:1006D0004D935C93509726960FB6F894DEBF0FBEED
:1006E000CDBFCF91DF911F910F91FF90EF90DF90E1
:1006F000CF90BF90AF909F908F907F906F905F90C2
:100700004F903F902F9008954F925F926F927F92FB
:100710008F929F92AF92BF92CF92DF92EF92FF9211
:100720000F931F93DF93CF9300D000D0CDB7DEB7E8
:10073000E82E8B01FB01D1908DE094E0BF010E9477
:10074000482569837A838B839C830A5F1F4F8DE0E2
:1007500094E0B8010E9448252B013C010B5F1F4F1C
:100760008DE094E0B8010E9448254B015C010B5FCD
:100770001F4F8DE094E0B8010E944825AB01BC01F9
:1007800000D000D0ADB7BEB71196FF240894E108A1
:10079000F10880EC90E0E89E9001E99E300DF89E13
:1007A000300D112423533E4FE0E0D110E1E04D9392
:1007B0005D936D937C931397C9016E2F29813A81C4
:1007C0004B815C8183017201650154010E94772095
:1007D0000F900F900F900F900F900F900F900F9021
:1007E000CF91DF911F910F91FF90EF90DF90CF900D
:1007F000BF90AF909F908F907F906F905F904F9041
:100800000895FA016A3009F495C06B30D8F4653068
:1008100009F45AC0663048F46330E9F1643008F0F6
:1008200047C0623009F0D5C02FC0673009F467C0F7
:10083000673008F454C0683009F46CC0693009F0BE
:10084000C8C071C0683609F496C0693680F4653650
:1008500009F482C0663620F4643609F0BAC078C064
:10086000663609F47CC0673609F0B3C07FC06A36CB
:1008700009F493C06A3608F487C06B3609F496C051
:100880006C3609F0A6C099C090E08081811191E09A
:100890009093CC010BC08DE094E0BA010E944825F2
:1008A000AB01BC0186EB91E00E945D2481E092C027
:1008B0008DE094E0BA010E944825AB01BC0186EBB3
:1008C00091E00E94DE23F2CF8DE094E0BA010E9415
:1008D0004025BC0186EB91E00E94DA23E7CF8DE052
:1008E00094E0BA010E944025A0E0B0E08093C301EB
:1008F0009093C401A093C501B093C601D7CF8DE0FA
:1009000094E0BA010E944025BC0186EB91E00E9470
:10091000E423CCCF60E08081811161E086EB91E03F
:100920000E94F623089590E08081811191E09093D8
:10093000CB01BCCF8DE094E0BA010E9448256093C2
:10094000C7017093C8018093C9019093CA01AECFCB
:1009500081E06091CC0127C00E94D22322C086EBA7
:1009600091E00E94F023AB01BC012FC086EB91E027
:100970000E94EC230DC04091C3015091C4016091CD
:10098000C5017091C60121C086EB91E00E94E82369
:10099000BC0181E00E946202089586EB91E00E9412
:1009A000F923682F81E00E94710208956091CB01C4
:1009B00081E070E00E94530208954091C701509178
:1009C000C8016091C9017091CA0181E00E9443028F
:1009D000089580E00E94800208959C01C397C1970A
:1009E000E0F48DEC91E060E021E030E040E050E0A8
:1009F0000E94681E8DE892E060E021E030E040E077
:100A000050E00E94681E8DE493E060E021E030E059
:100A100040E050E00E94681E089525363105D8F068
:100A20008DEC91E061E021E030E040E050E00E9498
:100A3000681E8DE892E061E021E030E040E050E0A7
:100A40000E94681E8DE493E061E021E030E040E028
:100A500050E00E94681E089541E00E945B2A0895BC
:100A600080931F0180E090E06FE171E00E942C050F
:100A70000895EF92FF920F931F93382F562F742FE4
:100A8000E22F78018DE094E0632F452F272F0E2F62
:100A90000E940E281F910F91FF90EF900895EF9202
:100AA000FF920F931F93382F562F742FE22F780148
:100AB0008CE994E0632F452F272F0E2F0E940E28DC
:100AC0001F910F91FF90EF9008958091CB018823A3
:100AD00031F080910305882331F0109203058EE6F2
:100AE00094E062E006C081E0809303058EE694E026
:100AF00064E00E9498230895843021F48EE694E007
:100B000064E00EC0823079F48091B0019091B1011F
:100B100001969093B1018093B0018EE694E065E078
:100B20000E9498230895863011F40E946505089567
:100B30008091A4018823D9F482E00E9447018DECC2
:100B400091E00E948E16AC0160E070E081E195E0DA
:100B50000E946F1281E195E06DEB76E02FEF3FEFA1
:100B60004FEF5FEF0E94861281E08093A401089509
:100B70002F923F925F926F927F928F929F92AF924D
:100B8000BF92CF92DF92EF92FF920F931F93DF936A
:100B9000CF9300D000D0CDB7DEB788E996E060E013
:100BA00071E00E941A328DE694E00E943C15582EA6
:100BB0008DEC91E00E941916882309F0A8C08DE8F9
:100BC00092E00E941916882309F0A1C08DE493E0F9
:100BD0000E941916882309F09AC08EE694E0652DCC
:100BE0000E9498239EC0629CC001639C900D729CE1
:100BF000900D112483539E4F9C838B830E94191662
:100C0000882309F475C08B819C810E942816882353
:100C1000A9F08B819C810E943816882309F05BC063
:100C20008B819C810E94FA15682F8B819C8120E02A
:100C300030E040E050E00E94681E4DC0D401539661
:100C40008C91813029F48B819C810E94A8214BC01A
:100C5000F40191899130B1F582898823E1F5928B75
:100C600000D000D08DB79EB701969A83898360E04B
:100C70008481811161E0D4012D913D914D915C9170
:100C800013971596ED90FD900D911C91189719965C
:100C9000AD90BD90CD90DC901C971D968D919D914F
:100CA0000D90BC91A02DE981FA8180839183A2836C
:100CB000B3838B819C810E9477200F900F900F90BF
:100CC0000F9009C08B819C810E94451661157105AA
:100CD0008105910521F48EE694E0652D07C08B8196
:100CE0009C810E9463208EE694E063E00E9498233A
:100CF0000894611C711C80EC90E0880E991E93E0B2
:100D00006916710409F06FCF0E9498050AC03AED88
:100D1000832E31E0932E6624772420EC222E312C72
:100D200062CF0F900F900F900F90CF91DF911F9196
:100D30000F91FF90EF90DF90CF90BF90AF909F907A
:100D40008F907F906F905F903F902F9008958DECE3
:100D500091E00E94101C8DE892E00E94101C8DE42E
:100D600093E00E94101C1092A40181E00E944701B0
:100D700081E195E00E9477120895AF92BF92CF92E1
:100D8000DF92EF92FF920F931F93CF93DF9381B384
:100D900090910205892B81BB81E090E00E94A72DF4
:100DA00091B3809102058095892381BB1092020541
:100DB00063EDE62E61E0F62E00E010E050ECA52E8B
:100DC000B12C41E0C42ED12C0A9DE0010B9DD00D29
:100DD0001A9DD00D1124C353DE4FCE010E94381648
:100DE0008823A9F0CE010E94C11BCE010E94321CB3
:100DF000882369F09601F701008002C0220F331F9B
:100E00000A94E2F780910205822B809302050F5F1E
:100E10001F4F80EC90E0E80EF91E03301105A1F69B
:100E20008DEC91E00E943816882371F48DE892E0F1
:100E30000E943816882341F48DE493E00E9438160E
:100E4000882311F40E94A706DF91CF911F910F9183
:100E5000FF90EF90DF90CF90BF90AF9008958DEC12
:100E600091E00E943816882361F48DE892E00E9498
:100E70003816882331F48DE493E00E9438168823D5
:100E800011F00E94A7068DEC91E00E9456178DE8A4
:100E900092E00E9456178DE493E00E945617089541
:100EA000CF93DF93EC0187E2C031D80791F083E163
:100EB000C838D80771F08FE0C03AD80751F087E002
:100EC000C03DD80731F083E0C83ED80711F080E07C
:100ED00010C08DEC91E0BE010E9463168DE892E097
:100EE000BE010E9463168DE493E0BE010E9463166A
:100EF00081E0DF91CF91089541E00E94002A08959A
:100F000080E090E06FE171E00E947C0782E090E079
:100F100061E271E040E10E94002A089582E090E0E1
:100F20000E948A2A80E090E06FE171E00E942C0527
:100F300082E090E061E271E040E10E945B2A089566
:100F40000E94462A882339F00E942C2A029719F41D
:100F50000E94800708950E948E0708958CE060E04B
:100F60000E94A92E08958CE061E00E94A92E0895A8
:100F70000E941A2D6093A9017093AA018093AB017E
:100F80009093AC0181E08093AD018091AE018130FE
:100F900031F48CE060E00E94A92E1092AE018DE643
:100FA00094E00E943C15882329F08EE694E061E0ED
:100FB0000E94982308956F927F928F929F92AF9292
:100FC000BF92CF92DF92EF92FF920F931F93CF9336
:100FD000DF93E82EEA01623109F4F3C16331A0F531
:100FE000693009F42CC16A30B0F4653009F4AEC040
:100FF000663050F4633009F47AC0643008F08DC074
:10100000623009F001C45EC0673009F4C2C06830C4
:1010100008F0D8C0ACC06D3009F46EC16E3038F441
:101020006B3009F441C16C3008F060C121C16F30F0
:1010300009F488C16F3008F463C1603109F494C1C8
:10104000613109F0E1C3A5C1683609F431C36936DD
:10105000F0F4663109F42BC2673148F4643109F4C5
:10106000D2C1282F30E0653108F0EBC1BBC1653635
:1010700009F4EBC2663620F4643609F0C5C3D4C265
:10108000663609F4F3C2673609F0BEC300C36C3696
:1010900009F453C36D3648F46A3609F42BC3282F7C
:1010A00030E06B3608F037C314C36E3609F471C3F1
:1010B0006E3608F458C36F3609F47EC3603709F002
:1010C000A3C38DC390E0019720EC30E0829FD00154
:1010D000839FB00D929FB00D1124A353BE4F60E0CB
:1010E0008881811161E0CD010E94141614C090E046
:1010F000019720EC30E0829FD001839FB00D929F3A
:10110000B00D1124A353BE4F60E08881811161E0CE
:10111000CD010E94EF1B81E078C38DE094E0BA011D
:101120000E944825AB01BC018E2D90E0019720EC78
:1011300030E0FC01E29FC001E39F900DF29F900D13
:10114000112483539E4F0E944D16E5CF90E00197E6
:1011500020EC30E0AC01429FC001439F900D529FB4
:10116000900D112483539E4F0E94AD17D4CF90E071
:10117000019720EC30E0BC01629FC001639F900D9D
:10118000729F900D112483539E4F68810E940F1609
:10119000C2CF8DE094E0BA010E946425AB01BC018E
:1011A0008E2D90E0019720EC30E0FC01E29FC00121
:1011B000E39F900DF29F900D112483539E4F0E9448
:1011C000B816A9CF4881413081F490E0019720EC16
:1011D00030E0AC01429FC001439F900D529F900DA3
:1011E000112483539E4F64E011C0423091F490E08B
:1011F000019720EC30E0BC01629FC001639F900D1D
:10120000729F900D112483539E4F65E00E941D171D
:1012100082CF433081F490E0019720EC30E0FC0174
:10122000E29FC001E39F900DF29F900D1124835324
:101230009E4F66E0EBCF80E00E9480026CCF8DE095
:1012400094E0BA010E9448252E2D30E02150304014
:1012500040EC50E0249FF001259FF00D349FF00DED
:101260001124E353FE4F608371838283938353CFB2
:101270008DE094E0BA010E9440252E2D30E02150EF
:10128000304040EC50E0B901649F9001659F300D03
:10129000749F300D1124AC0160E070E0C9018353EC
:1012A0009E4F0E943D1637CFFA0111918DE094E0D8
:1012B000BF010E944825AB01BC018E2D90E0019733
:1012C00020EC30E0829FF001839FF00D929FF00DA3
:1012D0001124E353FE4FA0E01111A1E09A0140E078
:1012E00050E0CF016A2F0E94681E03C0BA010E941D
:1012F00084030E9498050FCFBA010E948D020BCF84
:10130000FF240894E108F10880EC90E0E89E800159
:10131000E99E100DF89E100D112403531E4FC801B5
:101320000E945617F801168EF701EE0FFF1FEE0D03
:10133000FF1D66E0EE0FFF1F6A95E1F7E351FE4FD8
:101340001082E9CE90E0019720EC30E0AC01429FA2
:10135000C001439F900D529F900D112483539E4FC7
:1013600068810E94B61DD7CE90E0019720EC30E056
:10137000829FD001839FB00D929FB00D1124A35383
:10138000BE4F60E08881811161E0CD010E94E51BC4
:10139000C2CE8DE094E0BA010E944025BC018E2DA2
:1013A00090E0019720EC30E0FC01E29FC001E39F58
:1013B000900DF29F900D112483539E4F0E94A11611
:1013C000AACE90E0019720EC30E0AC01429FC00132
:1013D000439F900D529F900D112483539E4F0E9466
:1013E0003B2087CF2150304080EC90E0BC01269F0D
:1013F000C001279F900D369F900D112483539E4F5F
:101400000E94101C88CE90E001979C01220F331F90
:10141000280F391FF90146E0EE0FFF1F4A95E1F74B
:10142000E351FE4F8081882309F4EFC1F90136E0D2
:10143000EE0FFF1F3A95E1F7EB52FE4F8881808354
:101440006ACEC90101978C01000F111F080F191FE7
:10145000F80186E0EE0FFF1F8A95E1F7E351FE4F9A
:101460008081882309F4D1C10E941A2D2091C701DF
:101470003091C8014091C9015091CA01621B730BA0
:10148000840B950B6093FC047093FD048093FE0421
:101490009093FF04F80106E0EE0FFF1F0A95E1F7B5
:1014A000EB52FE4F81E080830E94B80734CE282F94
:1014B00030E021503040F901EE0FFF1FE20FF31F23
:1014C000B6E0EE0FFF1FBA95E1F7E351FE4F8081C2
:1014D000882309F49AC180EC90E0289FF001299FAD
:1014E000F00D389FF00D1124E353FE4F40815181E0
:1014F00062817381411551056105710559F0809133
:10150000B0019091B101A0E0B0E084179507A60763
:10151000B707D8F08091B0019091B101009729F000
:1015200001979093B1018093B00180EC90E0FC01B1
:101530002E9FC0012F9F900D3E9F900D112483532D
:101540009E4F0E943B210E9498056090C7017090B9
:10155000C8018090C9019090CA0186EB91E00E9479
:10156000F0235B016C0186EB91E00E94EC237C018F
:1015700086EB91E00E94E82300E010E0A0E0B0E0FC
:10158000E80EF91E0A1F1B1FEA0CFB1C0C1D1D1D7B
:10159000E614F7040805190548F40091C7011091F5
:1015A000C8012091C9013091CA011BC086EB91E0AE
:1015B0000E94F0236B017C0186EB91E00E94EC23FA
:1015C0008C0186EB91E00E94E82320E030E0A0E06F
:1015D000B0E0080F191F2A1F3B1F0C0D1D1D2E1DEB
:1015E0003F1D8091A5019091A601A091A701B09106
:1015F000A80180179107A207B30768F0801B910B21
:10160000A20BB30B8093A5019093A601A093A70111
:10161000B093A80180CD1092A5011092A60110925E
:10162000A7011092A80177CD90E0019720EC30E05F
:10163000AC01429FC001439F900D529F900D112419
:1016400083539E4F0E941916B4C090E0019720EC7E
:1016500030E0BC01629FC001639F900D729F900DAE
:10166000112483539E4F0E94FA15A3C090E0019766
:1016700020EC30E0FC01E29FC001E39F900DF29F5F
:10168000900D112483539E4F0E94551666C090E022
:10169000019720EC30E0AC01429FC001439F900DC8
:1016A000529F900D112483539E4F0E94131755C0D3
:1016B00090E0019720EC30E0BC01629FC001639F85
:1016C000900D729F900D112483539E4F0E940A1615
:1016D00070C02150304080EC90E0FC012E9FC00192
:1016E0002F9F900D3E9F900D112483539E4F0E947B
:1016F0002D1685C090E0019720EC30E0AC01429FB0
:10170000C001439F900D529F900D112483539E4F13
:101710000E9451174EC02150304080EC90E0289F2D
:10172000F001299FF00D389FF00D1124E353FE4F77
:10173000408151816281738112C090E0019720EC59
:1017400030E0BC01629FC001639F900D729F900DBD
:10175000112483539E4F0E944516AB01BC0181E0CA
:101760000E94430254C090E0019720EC30E0FC015D
:10177000E29FC001E39F900DF29F900D11248353CF
:101780009E4F0E94B517AB01BC0181E00E9433025D
:101790003EC090E0019720EC30E0AC01429FC001D8
:1017A000439F900D529F900D112483539E4F0E9492
:1017B000F515682F81E010C090E00197FC01EE0F55
:1017C000FF1FE80FF91F76E0EE0FFF1F7A95E1F794
:1017D000EB52FE4F81E060810E94710218C090E0E0
:1017E000019720EC30E0BC01629FC001639F900D27
:1017F000729F900D112483539E4F0E945D16BC0171
:1018000081E00E94620203C080E00E948002DF91BA
:10181000CF911F910F91FF90EF90DF90CF90BF90ED
:10182000AF909F908F907F906F900895CF92DF92AE
:10183000EF92FF920F931F93CF93DF938DE694E087
:101840000E94731588E996E06BE071E00E941A32FD
:101850000DEC11E0EE24FF24E0ECCE2ED12CEC9C1C
:10186000E001ED9CD00DFC9CD00D1124C353DE4F44
:10187000CE010E9419168823C1F0F80180A18130A1
:10188000A1F4208131814281538121153105410527
:10189000510559F08091B0019091B101A0E0B0E004
:1018A00082179307A407B507F8F0CE010E94191616
:1018B000882319F1F80180A18823F9F4208131816E
:1018C000428153812115310541055105B1F08091C7
:1018D000A5019091A601A091A701B091A80182173E
:1018E0009307A407B50748F48EE694E061E00E94F0
:1018F00098230EC00E94B8050BC00894E11CF11C8F
:1019000000541F4FF3E0EF16F10409F0A8CFF2CF17
:10191000DF91CF911F910F91FF90EF90DF90CF90CB
:1019200008950F931F930EE614E0C80161E042E1B1
:101930005DE00E94AF23C80162E046E15CE00E94E6
:10194000AF23C80163E045E45FE00E94AF23C80114
:1019500064E040EC5CE00E94AF23C80165E046EB28
:101960005CE00E94AF231F910F9108958EE694E0F2
:1019700060E00E94982386EB91E00E941F24089566
:101980008EE694E060E00E94982386EB91E00E944E
:10199000A2240895FF920F931F93CF93DF93F82E05
:1019A0008B01C0E0D0E015C08F2D61E00E94A92E10
:1019B0006AEF70E080E090E00E944E2D8F2D60E095
:1019C0000E94A92E6AEF70E080E090E00E944E2D08
:1019D0002196C017D10744F3DF91CF911F910F914A
:1019E000FF9008951F93182F0E94A706113091F4BD
:1019F0001092A5011092A6011092A7011092A801C1
:101A00001092B1011092B0011092EC011092AC0250
:101A100010926C031092AD010E942F070E94AA241D
:101A20001F9108952091C3013091C4014091C501D7
:101A30005091C601211531054105510579F080917C
:101A4000B0019091B101A0E0B0E082179307A40724
:101A5000B50720F080E00E94F20C08958DE694E036
:101A60000E943C158823D9F00E941A2D2091FC0475
:101A70003091FD044091FE045091FF04621B730BF2
:101A8000840B950B2091C7013091C8014091C90189
:101A90005091CA01621773078407950758F1809126
:101AA000CC01882381F48EE694E062E00E949823C2
:101AB0000E941A2D6093FC047093FD048093FE0431
:101AC0009093FF0408950E94D223882399F48EE610
:101AD00094E060E00E9498230E941A2D6093FC0419
:101AE0007093FD048093FE049093FF0486EB91E0D5
:101AF0000E94572408950E94AA240E94A7061092CB
:101B0000AD010895CF93DF93EB018C3009F4D7C07A
:101B10008D3040F5863009F466C0873080F483301C
:101B200009F44EC0843020F4823009F054C145C01D
:101B3000843009F449C0853009F04DC149C089306D
:101B400009F486C08A3038F4873009F455C08830EB
:101B500009F041C15EC08A3009F493C08B3009F0AE
:101B60003AC19EC0883609F4E2C0893698F48536B9
:101B700009F4C8C0863638F48D3009F4A7C084361D
:101B800009F029C1BCC0863609F4C0C0873609F007
:101B900022C1C8C08B3609F4E1C08C3638F48936CE
:101BA00009F4CBC08A3609F016C1CFC08C3609F4CF
:101BB000EBC08D3609F00FC104C10E94B80702C006
:101BC0000E947B0D81E008C181E00E94F20CFACFF7
:101BD00088818093AF01882319F40E94AE07F2CF69
:101BE0000E94B307EFCF60E08881811161E08DE64C
:101BF00094E00E94EA15E6CF8DE094E00E9448252B
:101C00006093B2017093B3018093B4019093B501D6
:101C1000D9CF80E1E1E2F1E0DF011D928A95E9F799
:101C200080E090E0FE01E80FF91F2081222321F0DF
:101C3000FC01EF5DFE4F208301968031910591F705
:101C400082E090E061E271E040E10E945B2ABACF5D
:101C50006881623008F4BFC060931F018DE094E09A
:101C600070E00E94232560911F018CE994E070E0F0
:101C70000E94232580E090E06FE171E00E942C0536
:101C8000A1CF8881833020F080E00E9480029ACF2B
:101C9000882319F40E94861595CF0E94B21592CF21
:101CA0008DEC91E00E943B208DE892E00E943B2069
:101CB0008DE493E00E943B200E94980583CF8DE045
:101CC00094E00E9440250E94500786C060E0888111
:101CD000811161E08DEC91E00E94231660E0888123
:101CE000811161E08DE892E00E94231660E0888116
:101CF000811161E08DE493E00E94231663CF81E0BF
:101D000065E018C081E06091AD0114C04091A5016B
:101D10005091A6016091A7017091A80181E00E94F5
:101D200043025CC00E94D223682F81E003C081E09F
:101D3000609120010E94710251C081E061E271E076
:101D400040E150E00E94120249C08DEC91E00E94F7
:101D50009316BC0181E00E94620240C08AE20E94A8
:101D6000F72DAA2797FDA095BA2FBC01CD010E949F
:101D7000D93E20E030EC4FE754E40E94433E20E09F
:101D800030E048EC51E415C089E20E94F72DAA2703
:101D900097FDA095BA2FBC01CD010E94D93E20E04D
:101DA00030EC4FE754E40E94433E20E030E040EA4C
:101DB00050E40E948D3FAB01BC0181E00E942302F0
:101DC0000DC08DEC91E00E942816682F81E070E034
:101DD0000E94530203C080E00E948002DF91CF91F5
:101DE0000895843018F4813048F403C0843069F4D5
:101DF00008C0862FBA010E94820D08950E94DB0759
:101E0000089584E00E940104089580E00E94800209
:101E1000089592E0909331010E94F10E089591E0AF
:101E2000909331010E94F10E0895FA01623069F039
:101E3000633018F4613041F505C0633051F064300F
:101E400019F50AC00E94B807089581E00E94F20CBB
:101E500008950E947B0D0895808180931F010E9448
:101E60008E0760911F018DE094E070E00E942325B1
:101E700060911F018CE994E070E00E9423258CE0C2
:101E800065E070E00E94CA0C0895CF92DF92EF9255
:101E9000FF920F931F93CF93DF93ABEEEA2EA1E057
:101EA000FA2E00E010E0F0ECCF2ED12C0C9DE001DA
:101EB0000D9DD00D1C9DD00D1124C353DE4FCE01BE
:101EC0000E942816882351F5F7018081882331F577
:101ED000CE010E943816882309F12BC08DE694E0CC
:101EE0000E943C158823A1F08EE694E061E00E94F8
:101EF00098238091D501813041F080919502813005
:101F000021F0809155038130A1F40E947B0D11C016
:101F10008EE694E060E00E9498230BC00F5F1F4F95
:101F200080EC90E0E80EF91E0330110509F0BECFF9
:101F3000D5CFDF91CF911F910F91FF90EF90DF9060
:101F4000CF900895EF92FF920F931F938DE094E04E
:101F50000E945C298CE994E00E945C298091AD018B
:101F6000882309F467C00E941A2D2091A5013091A1
:101F7000A6014091A7015091A801E090A901F0901D
:101F8000AA010091AB011091AC012E193F09400B41
:101F9000510B260F371F481F591F2093A50130935F
:101FA000A6014093A7015093A8016093A9017093E3
:101FB000AA018093AB019093AC018091AE01813076
:101FC00019F480E00E94F20C8DE694E00E943C152A
:101FD0008823E9F02091B2013091B3014091B4011E
:101FE0005091B501211531054105510581F08091D0
:101FF000A5019091A601A091A701B091A801281771
:1020000039074A075B0718F481E00E94F20C8DE65D
:1020100094E00E943C15882349F40E943F158823D0
:1020200029F08EE694E061E00E9498238EE694E029
:102030000E949B231F910F91FF90EF900895EF92C4
:10204000FF920F931F93CF93DF9363E876E080E0D6
:1020500090E00E94D9148CE061E00E94262E80E07E
:1020600061E00E94262E80E061E00E94A92E8AE2B3
:1020700060E00E94262E89E260E00E94262E0E94E7
:10208000A0070E94910C8EE694E060E00E949823E5
:102090008DE694E061E00E94EA158DEE94E00E94E6
:1020A000371586EB91E048E750E060E070E00E9471
:1020B000DE2386EB91E060E070E00E94E42386EB93
:1020C00091E060E070E00E94DA2386EB91E06CE73B
:1020D00075E00E94D52386E796E040E051EE60E08F
:1020E00070E00E94522F60911F018DE094E070E03B
:1020F0000E9423258DE094E06FE07FE00E94F627A8
:102100008DE094E06FE475E00E9402288DE094E099
:1021100065E17FE00E94FC278DE094E060E00E9492
:102120001E2560911F018CE994E070E00E94232538
:102130008CE994E069E07FE00E94F6278CE994E066
:1021400069E375E00E9402288CE994E065E17FE094
:102150000E94FC278CE994E061E00E941E258DE03E
:1021600094E060E375E00E9432258CE994E060E33E
:1021700075E00E943225C0E0D0E0B0ECEB2EF12CEF
:10218000CE9D8001CF9D100DDE9D100D11240353B7
:102190001E4FC80160E00E941416C80160E00E9452
:1021A0002316C80160EA7FE00E946316C80160E25E
:1021B00073E00E94A116C80161E00E94E51BC801FE
:1021C00064E00E94B61D2196C330D105C9F68CE0AB
:1021D00065E070E00E94CA0CDF91CF911F910F91D2
:1021E000FF90EF900895611571058105910569F4DF
:1021F00081E090E0A0E0B0E08093040590930505B5
:10220000A0930605B093070508C06093040570937A
:1022100005058093060590930705509309054093A3
:102220000805809170008E7F809370008091B000CF
:102230008C7F8093B0008091B100877F8093B10044
:102240008091B6008F7D8093B600809170008D7F65
:10225000809370008091B10084608093B100809180
:10226000B1008C7F8093B10086E090E090931005E0
:1022700080930F05089510920A0510920B05109295
:102280000C0510920D0510920E0580910F0590918E
:1022900010058093B200E0E7F0E0808181608083E8
:1022A0000895E0E7F0E080818E7F8083089580913B
:1022B0000A0590910B05A0910C05B0910D050196B2
:1022C000A11DB11D80930A0590930B05A0930C05E9
:1022D000B0930D0580910A0590910B05A0910C0516
:1022E000B0910D052091040530910505409106053A
:1022F0005091070582179307A407B50710F1809145
:102300000E058823F1F481E080930E0580910A0583
:1023100090910B05A0910C05B0910D05821B930BBC
:10232000A40BB50B80930A0590930B05A0930C05A5
:10233000B0930D05E0910805F091090509951092FB
:102340000E0508951F920F920FB60F920BB60F92C3
:1023500011242F933F934F935F936F937F938F93AA
:102360009F93AF93BF93EF93FF9380910F0590914D
:1023700010058093B2000E945711FF91EF91BF9119
:10238000AF919F918F917F916F915F914F913F910D
:102390002F910F900BBE0F900FBE0F901F901895AE
:1023A0001F920F920FB60F920BB60F9211242F931C
:1023B0003F934F935F936F937F938F939F93AF93CD
:1023C000BF93EF93FF93E0911505F09116050995E2
:1023D000FF91EF91BF91AF919F918F917F916F91FD
:1023E0005F914F913F912F910F900BBE0F900FBEB9
:1023F0000F901F901895FC01A3E0440F551F661F16
:10240000771FAA95D1F7403080E0580781E0680730
:1024100080E0780714F481E010C033E0759567958B
:10242000579547953A95D1F7403080E0580781E0BD
:10243000680780E078071CF482E0828339C023E0DB
:1024400075956795579547952A95D1F7403080E067
:10245000580781E0680780E0780714F483E0EDCF47
:1024600092E075956795579547959A95D1F74030C5
:1024700080E0580781E0680780E0780714F484E082
:10248000DCCF82E075956795579547958A95D1F78A
:10249000403080E0580781E0680780E0780714F456
:1024A00085E0CBCF85E082834FEF5FEF60E070E0A7
:1024B0008FB78383F8945183408350938700409370
:1024C000860083818FBF80918100887F8093810007
:1024D000809181009281892B8093810008951092D0
:1024E000800020E1209381000E94FB110895EFE617
:1024F000F0E080818E7F80830895E1E8F0E0208124
:10250000DC0112968C91282B208308950F931F9342
:10251000CF93DF93EC018B011216130614061506F8
:1025200024F4BA01A9010E94FB111D830C8381E0F0
:1025300080936F00CE010E947D12DF91CF911F9199
:102540000F910895F999FECF72BD61BDF89A80B5DB
:102550000895F999FECF1FBA72BD61BD40BD0FB697
:10256000F894FA9AF99A0FBE0895282F909176055B
:102570009F5F943408F090E0809177058917E1F32C
:102580003FB7F89480917305882341F0E92FF0E07C
:10259000E858FA4F2083909376051DC081E0809320
:1025A0007305209374051092750582E088BB8091B5
:1025B0007100826080937100809190008F738068B9
:1025C0008093900080919400909195004096909314
:1025D0009900809398003FBF0895862F0E94B512FE
:1025E00081E090E008951F920F920FB60F920BB604
:1025F0000F9211242F933F934F935F936F937F9389
:102600008F939F93EF93FF934091730550917405BF
:10261000209198003091990060916F05709170053C
:10262000809175051FC0260F371F952F9170569505
:102630004F5F9817B9F0992321F080919000806C3A
:1026400004C0809190008F738068809390003093D5
:1026500099002093980090937505509374054093CA
:1026600073053BC04930F8F2493039F48AE0809371
:10267000730580919000806C28C080917605E09170
:1026800077058E1769F410927305809190008F730F
:1026900080939000809171008D7F809371001DC0A8
:1026A00081E080937305EF5FE43408F0E0E0E093AD
:1026B0007705F0E0E858FA4F808180937405109216
:1026C0007505809190008F73806880939000260F2D
:1026D000371F3093990020939800FF91EF919F91BD
:1026E0008F917F916F915F914F913F912F910F90BB
:1026F0000BBE0F900FBE0F901F9018958091730521
:102700008823E1F708950E947E1308951F920F9287
:102710000FB60F920BB60F9211241F932F933F9376
:102720004F935F936F937F938F939F93AF93BF93D9
:10273000EF93FF93209196003091970090916B0555
:10274000992341F0809191008F7B809391001092AA
:102750006B0508C08091910080648093910080E8AF
:1027600080936B0570916A05772331F5992309F001
:102770006CC080916D0590916E05820F931F9093B0
:102780009B0080939A0084E088BB809171008460F4
:102790008093710080916F0590917005280F391F0B
:1027A00096958795280F391F3093720520937105F0
:1027B00081E080936A0549C040917105509172058E
:1027C00010916B05E0916F05F091700560916C05BB
:1027D000AA27BB27AE1BBF0BC901841B950B97FD16
:1027E0002CC06695612B7F5F8A0F9B1F793018F490
:1027F0004E0F5F1FF4CF60936C05809171008B7F4B
:1028000080937100909119059F5F903508F090E0DA
:1028100080911805981739F0E92FF0E0E65EFA4F3D
:10282000608390931905809191008F7B8093910034
:1028300010926B0510926A0508C060936C05509366
:1028400072054093710570936A05FF91EF91BF91F6
:10285000AF919F918F917F916F915F914F913F9138
:102860002F911F910F900BBE0F900FBE0F901F90D6
:1028700018951F920F920FB60F920BB60F9211245C
:102880002F938F939F93EF93FF93809171008B7F92
:1028900080937100809191008F7B80939100909143
:1028A0006A0580916B05805820916C0503C02695C0
:1028B000282B9F5F9930D8F320936C0590911905D0
:1028C0009F5F903508F090E080911805981739F0D7
:1028D000E92FF0E0E65EFA4F2083909319051092FD
:1028E0006A05809191008F7B8093910010926B0517
:1028F000FF91EF919F918F912F910F900BBE0F90B1
:102900000FBE0F901F90189580911905E091180542
:102910008E1719F42FEF3FEF0EC02E2F2F5F2035AB
:1029200008F020E0E22FF0E0E65EFA4F808120938D
:102930001805282F30E0C901089580911905E0910C
:1029400018058E1719F4EFEFFFEF06C0F0E0E65E12
:10295000FA4F8081E82FF0E0CF010895909119059A
:1029600080911805292F30E0482F50E0981710F477
:10297000205B3F4F241B350BC9010895809118053A
:102980008093190508950F931F9301E710E0F80154
:1029900080818B7F808380818F7D80830E94BE14A5
:1029A0000E947E13F80180818D7F80831F910F919B
:1029B00008959B01AC012D3A8BE1380780E0480770
:1029C00080E0580730F4109271001092900081E876
:1029D00014C063E056954795379527956A95D1F7CA
:1029E0002D3A8BE1380780E0480780E05807D0F5A2
:1029F000109271001092900082E8809391003093C1
:102A0000700520936F05CA01B90125E230E040E06E
:102A100050E00E94F03F52E0969587957795679534
:102A20005A95D1F770936E0560936D0587E162E06A
:102A30000E94262E86E161E00E94A92E86E161E0D7
:102A40000E94262E10926A05109219051092180500
:102A500010927305109276051092770580E288BB7C
:102A600080937100089581E08093C8050895909344
:102A7000CA058093C9050895FC018081089580915D
:102A8000C8051092C805811181E008958091CB0599
:102A9000882319F089B1847002C089B188708823B5
:102AA00059F40E94282D6093CC057093CD05809336
:102AB000CE059093CF0508950E94282D2091CC0536
:102AC0003091CD054091CE055091CF05E091C905DB
:102AD000F091CA05309731F0621B730B840B950B94
:102AE000CB0109950895FC018081882371F083E171
:102AF00060E00E94A92E65E070E080E090E00E9416
:102B00004E2D83E161E00E94A92E08958091CB05AE
:102B10000E941E2B089580E00E941E2B83E161E03D
:102B20000E94262E83E161E00E94A92E0895FC01F7
:102B3000108282E060E00E94262E83E060E00E9426
:102B4000262E83E160E00E94262E82E061E00E9452
:102B5000A92E83E061E00E94A92E83E161E00E943A
:102B6000A92E08950F931F93082F01500230F8F4F7
:102B70008091CB050E941E2B1092CB05002319F0EB
:102B800081E08093CB05002311F013E001C012E037
:102B9000812F60E00E94262E812F61E00E94A92EE5
:102BA000802F66E475E141E050E00E94A22A1F9167
:102BB0000F91089583E160E00E94262E83E161E099
:102BC0000E94A92E80E063E375E142E050E00E949C
:102BD000A22A0895FC016083662319F00E948B15D8
:102BE00008950E94DA1508950895FC01EA54FF4FF4
:102BF00080810895FC01EB59FF4F80810895FC010D
:102C0000E754FF4F0190F081E02D309711F0862FAF
:102C100009950895FC01E954FF4F80810895FC0156
:102C2000E954FF4F60830895FC01E05AFF4F608331
:102C30000895FC01E05AFF4F80810895FC01EE5990
:102C4000FF4F80810895FC01EF59FF4F6083089585
:102C5000FC01EF59FF4F80810895FC01E255FF4FC1
:102C600060817181828193810E94AB3ECB01089586
:102C7000FC01ED59FF4F80810895FC01E855FF4F9D
:102C800040835183628373830895FC01E855FF4FAD
:102C900060817181828193810895FC01ED57FF4F1E
:102CA00040835183628373830895FC01ED57FF4F86
:102CB00060817181828193810895FC01E35AFF4F05
:102CC00080819181089587E26031780781F083E106
:102CD0006838780761F08FE0603A780741F087E064
:102CE000603D780721F083E0683E7807B1F49B01EE
:102CF00040E050E060E472E48FE090E00E94234006
:102D0000309333012093320188EE93E0B9010E94A1
:102D10000F40709335016093340108958091320122
:102D2000909133010895209132013091330140E0B8
:102D300050E060E472E48FE090E00E944540C901F9
:102D400008950F931F93CF93DF93EC018B010E94A3
:102D500093168017910738F00115110521F0C35A19
:102D6000DF4F19830883DF91CF911F910F91089551
:102D7000AF92BF92CF92DF92EF92FF920F931F9389
:102D8000CF93DF93EC015A016B010E949316A0E0F0
:102D9000B0E0BC01CD010E94D73E9B01AC01C60151
:102DA000B5010E94893F18169CF1C255DF4FA882D9
:102DB000B982CA82DB82609134017091350180E072
:102DC00090E00E94D73E7B018C01C601B50120E056
:102DD00030E04AE754E40E94433E9B01AC01C80145
:102DE000B7010E94433E7B018C010E94AB3EA79736
:102DF00069937993899399930E94D73E9B01AC0183
:102E0000C801B7010E94DA3D688379838A839B8376
:102E1000DF91CF911F910F91FF90EF90DF90CF90B6
:102E2000BF90AF900895FC01E158FF4F20813181A0
:102E300042815381B901CA0108951F93CF93DF9353
:102E4000EC01162F0E943816882339F5143049F406
:102E5000C554DF4F8FEB97E199838883CB5BD040DC
:102E600019C0153049F4C554DF4F8EEA98E18993B3
:102E700099938BE599E10AC0163079F4C554DF4F78
:102E80008EEA98E18993999383EC99E199838883F9
:102E9000CD5BD040C854DF4F1883DF91CF911F9195
:102EA0000895FC01E854FF4F80810895FC01E1582A
:102EB000FF4F108211821282138278961082118243
:102EC000128213823C9680E090E0A0E0B0E0808324
:102ED0009183A283B3833897119211921192119228
:102EE00010821182128213820895CF93DF93EC0136
:102EF000FC01E158FF4F2081318142815381CB0198
:102F0000AA2797FDA095BA2F820F931FA41FB51F64
:102F100080839183A283B383CB59DF4F8881C556C9
:102F2000D040882319F4709561957F4FFE01EE54CF
:102F3000FF4F2081318142815381CB01AA2797FD28
:102F4000A095BA2F820F931FA41FB51F8083918372
:102F5000A283B383DF91CF910895FC01EE54FF4F1C
:102F600010821182128213820895FC01EE54FF4FE9
:102F70002081318142815381B901CA0108956F9244
:102F80007F928F929F92AF92BF92CF92DF92EF92F9
:102F9000FF920F931F93CF93DF93782E5A016B010B
:102FA0004901882321F0E901CB5BDF4F02C0E90131
:102FB000AD96E880F9800A811B81C601B501A801A0
:102FC00097010E943F3E18163CF0C601B501A801CA
:102FD00097010E94433E29C0C601B501288939895D
:102FE0004A895B890E943F3E18162CF0EC84FD84D0
:102FF0000E851F8522C0C601B501A80197010E9458
:10300000DA3D288539854A855B850E94DA3D2C8129
:103010003D814E815F810E94433E9B01AC0160E097
:1030200070E080E89FE30E94DA3D2C853D854E8567
:103030005F850E948D3F7B018C017720C9F56091EF
:1030400034017091350180E090E00E94D73EA801E4
:1030500097010E94433E7B018C010E94AB3E27E812
:1030600030E0820E931EF4016193719381939193EA
:103070004F010E94D73E9B01AC01C801B7010E94DD
:10308000DA3DE401688379838A839B8320E030E022
:1030900040E85FE30E94893F18160CF050C080E0C2
:1030A00090E0A0E0B0E088839983AA83BB8347C007
:1030B000C801B7010E94AB3E5B016C0187E9682E35
:1030C000712C680C791CF301A082B182C282D38278
:1030D000E401CD55DF4FC601B5010E94D73E9B01EB
:1030E000AC01C801B7010E94DA3D288139814A81CB
:1030F0005B810E94DB3D7B018C01688379838A833D
:103100009B8320E030E040E85FE30E94893F882312
:10311000B4F0C801B70120E030E040E85FE30E946E
:10312000DA3D688379838A839B83D601C501019642
:10313000A11DB11DF30180839183A283B383DF912D
:10314000CF911F910F91FF90EF90DF90CF90BF90A4
:10315000AF909F908F907F906F9008958F929F92E5
:10316000AF92BF92CF92DF92EF92FF920F931F9395
:10317000CF93DF93D82EE901882321F0C9018B5B1F
:103180009F4F02C0C9018D96C354DF4FE881F9817A
:10319000CD5BD04009957B018C01DD20D9F5609194
:1031A00034017091350180E090E00E94D73EA80183
:1031B00097010E94433E7B018C010E94AB3EFE01C1
:1031C000E957FF4F608371838283938360817181AC
:1031D000828193810E94D73E9B01AC01C801B70157
:1031E0000E94DA3DC557DF4F688379838A839B83CA
:1031F00020E030E040E85FE30E94893F18160CF0C1
:103200004DC080E090E0A0E0B0E088839983AA837D
:10321000BB8344C00E94AB3E5B016C0197E9892EE1
:10322000912C8C0E9D1EF401A082B182C282D382A9
:10323000CD55DF4FC601B5010E94D73E9B01AC01C1
:10324000C801B7010E94DA3D288139814A815B813A
:103250000E94DB3D7B018C01688379838A839B8399
:1032600020E030E040E85FE30E94893F8823B4F02B
:10327000C801B70120E030E040E85FE30E94DA3D9A
:10328000688379838A839B83D601C5010196A11D3A
:10329000B11DF40180839183A283B383DF91CF9129
:1032A0001F910F91FF90EF90DF90CF90BF90AF9064
:1032B0009F908F900895AF92BF92CF92DF92EF923E
:1032C000FF920F931F93CF93DF93EC017A018B0151
:1032D000A880B980CA80DB80CB01BA01A601950124
:1032E0000E943F3E88233CF4C801B701A601950126
:1032F0000E94433E29C0C801B701288939894A89FB
:103300005B890E943F3E18162CF0EC857D858E85EA
:103310006F8528C0C801B701A60195010E94DA3D5A
:10332000288539854A855B850E94DA3D2C813D815F
:103330004E815F810E94433E9B01AC0160E070E0E2
:1033400080E89FE30E94DA3D7B018C012C853D855E
:103350004E855F850E948D3FA80197010E948D3F99
:10336000E62F692F2E2F372F482F562FB901CA016C
:10337000DF91CF911F910F91FF90EF90DF90CF9051
:10338000BF90AF900895AF92BF92CF92DF92EF922D
:10339000FF920F931F93CF93DF93EC017A018B0180
:1033A000A880B980CA80DB80CB01BA01A601950153
:1033B0000E943F3E88237CF4C801B701A601950115
:1033C0000E94433E9B01AC0160E070E080E89FE317
:1033D0000E94DA3D21C0C801B701288939894A898C
:1033E0005B890E943F3E18162CF0EC857D858E850A
:1033F0006F852AC0C801B701A60195010E94DA3D78
:10340000288539854A855B850E94DA3D2C813D817E
:103410004E815F810E94433E7B018C01AC84BD8460
:10342000CE84DF84C601B501A80197010E948D3FBB
:10343000A80197010E948D3F9B01AC01C601B50117
:103440000E94DA3DE62F692F2E2F372F482F562F57
:10345000B901CA01DF91CF911F910F91FF90EF90B9
:10346000DF90CF90BF90AF900895CF93DF93EB01A3
:1034700020E030E040E050E42C8B3D8B4E8B5F8BA6
:10348000FC01E854FF4FE081E53029F48AEF9FEF1B
:10349000AFE3B0E406C0E63041F485EF91E0A0EC84
:1034A000BFE38C8B9D8BAE8BBF8BDF91CF9108954B
:1034B0002F923F924F925F926F927F928F929F9244
:1034C000AF92BF92CF92DF92EF92FF920F931F9332
:1034D000DF93CF93CDB7DEB72A970FB6F894DEBF50
:1034E0000FBECDBFFC012F83388749875A8735012E
:1034F0004601ED56FF4F80819181A281B38189837E
:103500009A83AB83BC83E359F040662329F4DF013F
:103510009D96BE83AD8311C0CF018B5B9F4F9E8371
:103520008D83E556FF4F80819181A281B38189838C
:103530009A83AB83BC83EB59F040CF016D817E81D0
:103540000E94351AC801B7010E94D73E5B016C0189
:10355000C401B3010E94D73EA60195010E94433EDB
:103560007B018C01AD81BE816D937D938D939C9386
:1035700013976F8D78A189A19AA10E94D73EA601C9
:1035800095010E94433E3B014C01ED81FE81648325
:10359000758386839783A80197010E94DB3D9B0179
:1035A000AC0160E070E080E89FE30E94DA3D5B01DF
:1035B0006C01AD81BE8118966D937D938D939C9324
:1035C0001B97C801B701A60195010E94DB3DED8163
:1035D000FE81608B718B828B938B24883588468823
:1035E0005788C801B701A20191010E94433EA6017C
:1035F00095010E94DB3D7B018C01C401B301A20156
:1036000091010E94433E9B01AC01C801B7010E9499
:10361000DB3D9B01AC016F81788589859A850E948D
:10362000433EA60195010E948D3F7B018C0169817B
:103630007A818B819C810E94D73EA60195010E94D0
:103640008D3F9B01AC01C801B7010E94433EAD8193
:10365000BE811C966D937D938D939C931F972A96A4
:103660000FB6F894DEBF0FBECDBFCF91DF911F9193
:103670000F91FF90EF90DF90CF90BF90AF909F9011
:103680008F907F906F905F904F903F902F90089514
:103690004F925F926F927F928F929F92AF92BF9262
:1036A000CF92DF92EF92FF920F931F93DF93CF930E
:1036B000CDB7DEB74C012A013B01C801B70147E98C
:1036C00050E0840E951EF401108211821282138242
:1036D0004CE050E0840E951E0F2EF0E0EF2EF0E04F
:1036E000FF2EF0E00F2FF0E01F2FF02DF401E0820D
:1036F000F1820283138348EF5FEF840E951EF4017D
:1037000041925192619271924F0110821182128204
:10371000138248E050E0840E951EF401208329E5D1
:103720003FEF820E931E00D000D00DB71EB70F5F83
:103730001F4F0E94D73E9B01AC018B899C89AD89AC
:10374000BE89F80180839183A283B383C40161E0C1
:10375000830172010E94581A0F900F900F900F90E2
:10376000CF91DF911F910F91FF90EF90DF90CF905D
:10377000BF90AF909F908F907F906F905F904F9091
:103780000895CF93DF93FC01EC01CA59DF4F888184
:103790008823C1F0E559FF4F1192119211921192B5
:1037A000119211921192119210821182128213823F
:1037B0003C9780E090E0A0E0B0E080839183A2831A
:1037C000B3831882DF91CF910895FC01EE59FF4F2A
:1037D0006083E256F04083A10E94A92E0895EF92E3
:1037E000FF921F93CF93DF93EC01162F25E6E22E75
:1037F000F12CE80EF91EF7018081681759F08DA1B0
:103800000E94A92EC15ADF4F81E08883F7011083FF
:1038100025961883DF91CF911F91FF90EF90089527
:10382000CF93DF93EC01CD59DF4F1882239681E0CF
:103830008883C656D040CE010E941E16882321F0F0
:103840008BA161E00E94A92EFE01EC59FF4FCE0131
:1038500060810E94EF1BCE0161E00E94FF15DF91A5
:10386000CF9108958F929F92AF92BF92CF92DF92A5
:10387000EF92FF920F931F93CF93DF93EC01C95800
:10388000DF4FE880F9800A811B81C757D040E114DF
:10389000F1040105110509F491C0F3E78F2E912C75
:1038A0008C0E9D1EF40120813181428153818091D3
:1038B000340190913501A0E0B0E0281739074A079C
:1038C0005B0708F47BC0BE0161577F4FFB0180811D
:1038D0009181A281B381CD56DF4FA880B980CA8083
:1038E000DB80C359D0408A159B05AC05BD05C1F5E9
:1038F000EFE6CE2ED12CCC0EDD1EF601808191811B
:10390000A281B3818E159F05A007B107B8F421509D
:10391000304040405040F401208331834283538340
:103920000196A11DB11DF60180839183A283B3830B
:10393000CE0161E070E00E94751716C1F601108299
:10394000118212821382FB01108211821282138271
:10395000F4011082118212821382C959DF4FB5C05F
:10396000FB0180819181A281B3810196A11DB11DCE
:1039700080839183A283B3836081718182819381EB
:10398000C554DF4F0E94D73E7B018C01C601B501B3
:103990000E94D73E9B01AC01C801B7010E94433E83
:1039A000AB01BC01E881F981CB5BD04080E09E0196
:1039B0000995F4011082118212821382FE01ED58E2
:1039C000FF4F80819181A281B3810196A11DB11D1C
:1039D00080839183A283B38337E6C32ED12CCC0E90
:1039E000DD1EF601E080F18002811381C801B7017C
:1039F00020E030E040E85FE30E94893F882374F0D4
:103A0000C801B70120E030E040E85FE30E94DA3D02
:103A1000F601608371838283938368C0FE01E55958
:103A2000FF4F80819181A281B3810196A11DB11DBB
:103A300080839183A283B383C957DF4F2881398163
:103A40004A815B81C758D04082179307A407B50706
:103A500008F44CC0CD57DF4F288139814A815B8102
:103A6000C358D040211531054105510569F0C158B1
:103A7000DF4F88819981AA81BB81CF57D0408217BF
:103A80009307A407B507D0F4C958DF4F28813981BF
:103A90004A815B81C757D040211531054105510549
:103AA00099F1C159DF4F88819981AA81BB81CF5695
:103AB000D04082179307A407B50730F1C159DF4FF3
:103AC000188219821A821B82289780E090E0A0E079
:103AD000B0E089939993A993B993188219821A82B5
:103AE0001B82CB56D040CE010E94101C80E0DF919B
:103AF000CF911F910F91FF90EF90DF90CF90BF90EB
:103B0000AF909F908F900895C559DF4F188219820A
:103B10001A821B82CB56D040FE01E159FF4F8081B3
:103B20009181A281B3810196A11DB11D80839183F2
:103B3000A283B383CE0161E070E00E9475178E010D
:103B400009591F4FC557DF4FF8016081718182818C
:103B50009381288139814A815B810E94DB3DF80194
:103B6000608371838283938381E0C1CFDF92EF9280
:103B7000FF920F931F93CF93DF93EC01FC01EA5464
:103B8000FF4FD0806083643081F0653018F462307C
:103B900041F405C0683059F0603119F40BC061E0A0
:103BA00001C060E010E000E008C060E001C061E03A
:103BB00011E0F9CF61E011E001E08FA10E94A92E90
:103BC00089A5612F0E94A92E8BA5602F0E94A92E86
:103BD000CA54DF4F6881C65BD040D61699F1CE54E7
:103BE000DF4F6D15C8F4E880F9800A811B818D2DA7
:103BF00090E070E00E940F409B01442737FD409504
:103C0000542FC801B7010E944540C901DA018883D9
:103C10009983AA83BB8316C0088119812A813B81BD
:103C2000862F90E06D2D70E00E940F40882777FD71
:103C30008095982FA90198010E94F03F68837983AD
:103C40008A839B83DF91CF911F910F91FF90EF901B
:103C5000DF900895CF92DF92EF92FF921F93CF9360
:103C6000DF93EC01162F69017A010E94FA15CC59F5
:103C7000DF4F8883C456D040CE01612F0E94EF1BD6
:103C8000CE010E9438168823D9F4C958DF4FC88264
:103C9000D982EA82FB82C757D040CE010E941E160D
:103CA000882351F08BA160E00E94A92E6AE070E0A9
:103CB00080E090E00E944E2DCD59DF4F81E0888357
:103CC000DF91CF911F91FF90EF90DF90CF900895FB
:103CD0003F924F925F926F927F928F929F92AF929C
:103CE000BF92CF92DF92EF92FF920F931F93DF93D9
:103CF000CF93CDB7DEB72A970FB6F894DEBF0FBECD
:103D0000CDBF9A878987362E29013A010E9419165C
:103D1000882309F45FC089859A850E94551661152C
:103D200071058105910509F497C189859A850E94DD
:103D300013177B018C0189859A850E945516E6161A
:103D4000F7060807190708F487C144C089859A85D2
:103D50000E942816882309F485C189859A850E94C6
:103D600038168823B1F429853A8529583F4FD9015F
:103D70001D921D921D921C921397A757B040BA87AF
:103D8000A987CD01632D20E030E040E050E00E94A3
:103D90002A1E89859A8563E045C189859A8568E8E8
:103DA00073E10E94631609851A85015A1F4FF801B5
:103DB0008081882351F089859A850E940A16480ED1
:103DC000511C611C711CD8011C92411451046104E6
:103DD000710421F489859A8561E024C1E985FA8519
:103DE000E154FF4F8081EF5BF040FA87E987882339
:103DF00009F0FFC0BF01635D7F4FCF010E94351AFC
:103E000089859A850E9493168C0189859A850E94DE
:103E10005D16F82EE92EF0E24F16F3E05F06F0E0B3
:103E20006F06F0E07F0628F020E030E048E453E43D
:103E30000DC0C301B201B2E096958795779567955D
:103E4000BA95D1F70E94D73E9B01AC01CA01B901D6
:103E50000E94DB3D69837A838B839C83C301B2011B
:103E60000E94D73E6D837E838F8398878F2D9E2DF2
:103E70009C010217130708F49801B90180E090E053
:103E80000E94D73E7B018C0169817A818B819C8164
:103E9000A80197010E94433E20E030E04AE754E445
:103EA0000E948D3FE985FA85EF5BFF4F20813181CC
:103EB000428153810E948D3F5B016C016D817E8147
:103EC0008F81988529813A814B815C810E94DA3DFE
:103ED000A80197010E94433E20E030E04AE754E405
:103EE0000E948D3FA60195010E94DB3D20E030E05D
:103EF00040E85FE30E94DB3D7B018C0120E030E085
:103F000048E452E40E943F3E882354F40F2EF0E030
:103F1000EF2EF0E0FF2EF8E40F2FF2E41F2FF02D2C
:103F2000C801B7010E94AB3E7B018C01A3E98A2E38
:103F3000912C29853A85820E931ED4016D937D9331
:103F40008D939C931397C601B50120E030E040E0CB
:103F50005FE30E948D3F0E94AB3E5B016C0100D08D
:103F600000D0EDB7FEB76183728383839483898524
:103F70009A8560E02D813E814F8158850E94581AB4
:103F8000E985FA85E157FF4F81E090E0A0E0B0E0DD
:103F900080839183A283B3836081718182819381C5
:103FA0000F900F900F900F9029853A8525543F4F21
:103FB0003A8729870E94D73E7B018C01D4016D91FD
:103FC0007D918D919C910E94D73E9B01AC01C801CF
:103FD000B7010E94433EAB01BC01A985BA85ED91B2
:103FE000FC911197AB5BB040BA87A98780E09D0137
:103FF0000995E985FA85E958FF4FDF014082518232
:1040000062827382A85BBF4F1C92AF5BB040BA87DD
:10401000A987CD01632DA30192010E942A1E8985E3
:104020009A8562E00E94FF152A960FB6F894DEBFCB
:104030000FBECDBFCF91DF911F910F91FF90EF90F9
:10404000DF90CF90BF90AF909F908F907F906F90B8
:104050005F904F903F9008954114510461047104A2
:1040600009F474CE89859A850E94931689589341E4
:1040700008F499CE92CECF93DF93EC010E94B5174E
:104080006115710581059105D9F0CA59DF4F81E0AD
:104090008883C45BDF4F288139814A815B81C25BA1
:1040A000D04057FD02C060E008C050954095309563
:1040B00021953F4F4F4F5F4F61E0CE010E94681E38
:1040C000DF91CF910895FF920F931F938C010E946F
:1040D000FA15F82EC8010E9445169B01AC01C801D3
:1040E0006F2D0E94681E1F910F91FF9008952F92CF
:1040F0003F924F925F926F927F928F929F92AF9278
:10410000BF92CF92DF92EF92FF920F931F93DF93B4
:10411000CF9300D000D00F92CDB7DEB73C016983BA
:104120002A833B834C835D83170128010E94191663
:104130008823A9F0C3010E945516611571058105F8
:10414000910591F0C3010E9413177B018C01C301FB
:104150000E945516E616F7060807190728F0C3014E
:1041600061E00E94FF156FC013E9812E912C860C2F
:10417000971CD4012D923D924D925C92139700D0E2
:1041800000D00DB71EB70F5F1F4F6A817B818C81F6
:104190009D810E94D73E9B01AC018A8D9B8DAC8D89
:1041A000BD8DF80180839183A283B383C30160E056
:1041B000820171010E94581AF301E157FF4F81E01B
:1041C00090E0A0E0B0E080839183A283B38360811C
:1041D0007181828193810F900F900F900F902BEB44
:1041E00030E0620E731E0E94D73E7B018C01D40129
:1041F0006D917D918D919C910E94D73E9B01AC0168
:10420000C801B7010E94433EAB01BC01D301ED914F
:10421000FC9125E43FEF620E731E80E09301099547
:104220008FEB90E0680E791E81E0D3018C93E1E47E
:10423000FFEF6E0E7F1EC30169812A813B814C8195
:104240005D810E94681E0F900F900F900F900F904D
:10425000CF91DF911F910F91FF90EF90DF90CF9062
:10426000BF90AF909F908F907F906F905F904F9096
:104270003F902F900895CF92DF92EF92FF920F938D
:104280001F93CF93DF93EC010E941916882379F0D6
:104290000FE9C02ED12CCC0EDD1EF601608171819C
:1042A00082819381611571058105910579F4CE01B3
:1042B00061E00E94FF1543C00197A109B109C156F1
:1042C000DF4F88839983AA83BB8339C00E94D73E7E
:1042D0007B018C01C556DF4F688179818A819B8182
:1042E0000E94D73E9B01AC01C801B7010E94433E2A
:1042F000AB01BC01A096E881F981CB5BD04081E0A5
:104300009E010995C955DF4F688181E06827609754
:10431000288139814A815B81C759D040CE010E94F2
:10432000681EF60180819181A281B3810097A10569
:10433000B10511F680E090E0A0E0B0E0C0CFDF91E1
:10434000CF911F910F91FF90EF90DF90CF90089544
:10435000AF92BF92CF92DF92EF92FF920F931F9393
:10436000CF93DF93EC010E941916882349F1CE0107
:104370000E945516611571058105910569F0CE0100
:104380000E9413177B018C01CE010E945516E61680
:10439000F70608071907A0F4FE01E156FF4F6081F8
:1043A000718182819381C556DF4FA880B980CA8010
:1043B000DB80CB59D0406A157B058C059D0528F024
:1043C000CE0161E00E94FF152FC06F5F7F4F8F4FBE
:1043D0009F4F6083718382839383C554DF4F0E9414
:1043E000D73E7B018C01C601B5010E94D73E9B01DF
:1043F000AC01C801B7010E94433EAB01BC01E8819A
:10440000F981CB5BD04081E09E010995C956DF4F11
:10441000288139814A815B81C759D040CE01C95575
:10442000DF4F68810E94681EDF91CF911F910F912D
:10443000FF90EF90DF90CF90BF90AF9008952F92B4
:104440003F924F925F926F927F928F929F92AF9224
:10445000BF92CF92DF92EF92FF920F931F93DF9361
:10446000CF93CDB7DEB73C01862FE7E7F0E06E0EC5
:104470007F1EF3011082118212821382E7E3F0E0C3
:104480006E0E7F1E0F2EF0E02F2EF0E03F2EF8EC88
:104490004F2EF2E45F2EF02DF30120823182428212
:1044A0005382E1EDFFEF6E0E7F1EF3011082118249
:1044B00012821382E9E2F0E06E0E7F1EF301108299
:1044C000118212821382EBEDFFEF6E0E7F1EF3015D
:1044D0001082118212821382ECE0F0E06E0E7F1ED9
:1044E000F30111921192119211923F0110821182E7
:1044F00012821382E4EFFFEF6E0E7F1EF301119222
:104500001192119211923F010F2EF0E02F2EF0E048
:104510003F2EF0E04F2EF0E05F2EF02D2082318212
:1045200042825382E7E2F0E06E0E7F1EF3011082BA
:10453000118212821382E5EEFFEF6E0E7F1EF301F1
:104540001082118212821382ECE0F0E06E0E7F1E68
:10455000F3012082318242825382E8EFFFEF6E0E38
:104560007F1EF30111921192119211923F0110825C
:10457000118212821382E8E0F0E06E0E7F1EF301DA
:104580001082EDEBFFEF6E0E7F1EF30111923F01E3
:104590001082EAEFFFEF6E0E7F1EF301119211926F
:1045A000119211923F011082E3E5F0E06E0E7F1E42
:1045B00061E0F301619311923F0194E09083E8E49C
:1045C000FFEF6E0E7F1EF30125A636A647A650AA62
:1045D00021AA32AA43AA54AA25AA36AA47AA50AEAB
:1045E00021AE32AE43AE54AEEDE3F0E06E0E7F1E70
:1045F000F301219231924192519221923192419252
:104600005192219231924192519221923192419252
:104610005192219231924192519221923192419242
:10462000519221923192419251923F0120823182E6
:1046300042825382EDE0F0E06E0E7F1EF301608354
:10464000EAE9FFEF6E0E7F1EF30181A372A334A38C
:1046500023A356A345A310A707A3F2A6E1A6D4A6B9
:10466000C3A6B582A482978286821586168617868F
:10467000108A118A128A138A148A158A168A178A4E
:10468000108E118E128E138E148E158E168E178E1E
:1046900010A2108211821282138210860E94262E8E
:1046A000F30183A161E00E94262EF30185A161E060
:1046B0000E94262EF30187A161E00E94262EF301BD
:1046C00081A561E00E94262EF30183A561E00E948E
:1046D000262E8FEB90E0680E791EF30110828EE992
:1046E0009FEF680E791E88EE93E0F301918380833B
:1046F0008EE590E0680E791E8FEB97E1F3018193D0
:1047000091938BE599E191838083CF91DF911F9104
:104710000F91FF90EF90DF90CF90BF90AF909F9060
:104720008F907F906F905F904F903F902F90089563
:10473000FC0160830895DC01EC9111968C91119736
:10474000E81760F4F0E03196EE0FFF1FEA0FFB1F51
:104750000190F081E02D309709F009950895DC0172
:1047600011968C911197681748F4E62FF0E0319676
:10477000EE0FFF1FEA0FFB1F518340830895CF9375
:10478000DF93DC010296FC0180E2EF0119928A9529
:10479000E9F71C92613108F060E111966C93DF91AA
:1047A000CF9108958091D00508957093D2056093BC
:1047B000D1050895FC01718760870895FC01448349
:1047C0005583668377830895FC0173876287089514
:1047D000FC01828593850895FC018085918508956B
:1047E000FC0164817581868197810895FC0164874D
:1047F0000895FC01848508956115710549F4E091DF
:10480000D105F091D2053097C9F086E00995089559
:1048100083E08093D30580E090E04AEA54E20E946E
:10482000F3100E943B1181E08093D005E091D10507
:10483000F091D205309711F085E009950895FC01BB
:10484000628573850E94FC230895CF93DF93EB016B
:104850006115710541F4E091D105F091D2053097D1
:1048600019F184E020C08091380161E00E94A92EF6
:104870008091390161E00E94A92E82E08093D305E6
:10488000BE0180E090E04AEA54E20E94F3100E94E8
:104890003B1181E08093D005E091D105F091D205E4
:1048A000309711F083E00995DF91CF910895FC01D5
:1048B000608571850E9425240895EF92FF920F93E1
:1048C0001F93FC017A018B014115510561057105AA
:1048D00041F4E091D105F091D205309771F182E079
:1048E0002BC081E08093D3058485882351F080918B
:1048F000380161E00E94A92E8091390161E00E9497
:10490000A92E8091360161E00E94A92E8091370185
:1049100061E00E94A92EC801B7014AEA54E20E9450
:10492000F3100E943B1181E08093D005E091D10506
:10493000F091D205309709F009951F910F91FF90E2
:10494000EF900895FC0144815581668177810E9432
:104950005D2408950E9451118091D3058130B1F4F6
:104960008091360160E00E94A92E8091370160E0BD
:104970000E94A92E8091380160E00E94A92E8091AA
:10498000390160E00E94A92E82E00FC0823011F050
:1049900086E00BC08091380160E00E94A92E8091D2
:1049A000390160E00E94A92E84E01092D305109294
:1049B000D005E091D105F091D205309709F0099525
:1049C00008950F931F938C018091360161E00E943E
:1049D000262E8091370161E00E94262E80913801B9
:1049E00061E00E94262E8091390161E00E94262E0E
:1049F000F8011082118212821382148681E090E005
:104A0000A0E0B0E0818B928BA38BB48B168A1586C5
:104A100016861786108A158A84E690E0A0E0B0E03A
:104A200084839583A683B7831186108613861286A6
:104A30001F910F9108950E94E1240895FC01EB5A03
:104A4000FF4F60830895FC01DC01A05BBF4F6C93B6
:104A500011967C930280F381E02D309711F0862F20
:104A600009950895FC017383628308959C012A5F70
:104A70003F4FC9010895FC01EE5AFF4F8081089510
:104A8000FB018181308120E0280F311DC90108958B
:104A9000FB01818190E0A0E0B0E0DC01992788274C
:104AA000228130E040E050E0542F432F322F222764
:104AB0006381260F311D411D511D282B392B4A2B97
:104AC0005B2BB901CA010895DF93CF9300D000D0CA
:104AD000CDB7DEB7FB012181808190E0A0E0B0E09E
:104AE000BA2FA92F982F8827820F911DA11DB11DC4
:104AF000DC0199278827228130E040E050E0542FE4
:104B0000432F322F22276381260F311D411D511D56
:104B1000282B392B4A2B5B2B29833A834B835C83CD
:104B2000E22FFA81AB81BC81BF01CD010F900F90C4
:104B30000F900F90CF91DF910895FC01ED5AFF4F38
:104B400080810895FC01EC5AFF4F80810895FC019B
:104B5000EB5AFF4F8081E555F040882369F45C9A59
:104B60000480F581E02DA081B1812D913C91CF0190
:104B7000F90109955C9808950480F581E02DA081E4
:104B8000B1812D913C91CF01F90109950895EF92E2
:104B9000FF920F931F93CF93DF93EC01062FF42E18
:104BA000E22EFC01ED5AFF4F613011F4608301C029
:104BB000108210E0CE0160E00E94A7251F5F153033
:104BC000C9F7CE016FEF0E94A725CE01602F0E948A
:104BD000A725CE0160E00E94A725CE016F2D0E947F
:104BE000A725CE016E2D0E94A725DF91CF911F91A1
:104BF0000F91FF90EF900895DF92EF92FF920F9345
:104C00001F93CF93DF93EC01F62EE42ED22EFC01FE
:104C1000ED5AFF4F81E0681711F4608301C01082E4
:104C200010E0CE0160E00E94A7251F5F1530C9F794
:104C3000CE016FEF0E94A725CE016F2D0E94A72500
:104C4000CE016E2D0E94A725CE016D2D0E94A725B5
:104C5000CE01602F0E94A725DF91CF911F910F9168
:104C6000FF90EF90DF900895FF920F931F938C01B8
:104C7000F62E672F0E94A725C8016F2D0E94A72539
:104C80001F910F91FF900895EF92FF920F931F9342
:104C90008C017B01672F770F770B0E94A725C80136
:104CA0006E2D0E94A7251F910F91FF90EF90089500
:104CB000CF92DF92EF92FF920F931F936C017A01D4
:104CC0008B01212F332744275527622F0E94A725C8
:104CD000980144275527C601622F0E94A725552712
:104CE000412F302F2F2DC601622F0E94A725C6010C
:104CF0006E2D0E94A7251F910F91FF90EF90DF90DE
:104D0000CF900895CF92DF92EF92FF920F931F936F
:104D10006C017A018B01272F552727FD5095352FE0
:104D2000452F622F0E94A7259801552737FD5095E2
:104D3000452FC601622F0E94A725552717FD5A95BA
:104D4000412F302F2F2DC601622F0E94A725C601AB
:104D50006E2D0E94A7251F910F91FF90EF90DF907D
:104D6000CF900895FC01DC01969690E0953021F0FB
:104D70008C91882321F01BC083A58F3FC1F49F5FD6
:104D80001196963099F724A5208385A5818321303B
:104D900011F485E0089530E0E05BFF4F8081918160
:104DA0002817390711F481E0089584E0089583E01D
:104DB0000895CF93DF93EC010BC0EC81FD81A081BE
:104DC000B1811A962D913C911B97CF01F90109955C
:104DD000EC81FD81A081B18114962D913C911597B4
:104DE000CF01F9010995181619063CF3DF91CF910F
:104DF0000895CF92DF92EF92FF920F931F93CF937C
:104E0000DF93EC016B01EC81FD81A081B1811496EF
:104E10002D913C911597CF01F901099518161906A6
:104E200004F10E941A2D7B018C010DC00E941A2DE5
:104E30006E197F09800B910B65367105810591050F
:104E400010F082E01CC0EC81FD81A081B18114963C
:104E50002D913C911597CF01F90109951816190666
:104E60002CF7EC81FD81A081B18116962D913C91AA
:104E70001797CF01F9010995F601808381E0DF9151
:104E8000CF911F910F91FF90EF90DF90CF900895F9
:104E9000CF92DF92EF92FF920F931F93CF93DF9306
:104EA000EC01CD5ADF4F19921882C455D040EC81E5
:104EB000FD81A081B18114962D913C911597CF0170
:104EC000F901099518161906BCF4CE018696FC0165
:104ED0008AE2DF011D928A95E9F700E010E0B8014F
:104EE0006A5D7F4F6C0F7D1FCE010E94F9268130D5
:104EF00029F0CE010E94D92640E059C00F5F1F4F14
:104F00000A30110561F78FA51AE0C82EDD24B9E03B
:104F1000EB2EF12CEC0CFD1C0AC06A5D7F4F6C0F70
:104F20007D1FCE010E94F926813019F71F5F612F86
:104F300070E0E616F7068CF7CE010E94B226982F95
:104F400082508230B0F2953039F4CD5ADF4F81E093
:104F50008883C355D04008C0913031F0CC5ADF4F20
:104F600081E08883C455D040CE010E94D9264EA549
:104F7000CE010696FC0180E2DF011D928A95E9F7D9
:104F8000FE01EE5AFF4F1082DE0120E030E00BC040
:104F90009F968C919F9715968C93159780818F5F24
:104FA00080832F5F3F4F11962C153D058CF3842F86
:104FB000DF91CF911F910F91FF90EF90DF90CF90F5
:104FC0000895FC0175836483E05BFF4F4193519327
:104FD0001082E255F040138212828CE161E00E945F
:104FE000262E8CE160E00E94A92E0895FC01EA5A69
:104FF000FF4F718360830895FC01E65AFF4F718370
:1050000060830895FC01E85AFF4F7183608308951F
:10501000FC01E25AFF4F808191810895CF92DF9287
:10502000EF92FF920F931F93CF93DF936C01102F9A
:105030000E94FC25C0E0D0E0012F10E008C0F7017D
:10504000EC0FFD1FC60160810E94A7252196C017A5
:10505000D107ACF3DF91CF911F910F91FF90EF90AB
:10506000DF90CF900895CF92DF92EF92FF920F934F
:105070001F93CF93DF938C01762F6A0179012F5F05
:1050800060E0472F0E94C725C80166E00E94A7255F
:10509000C0E0D0E008C0F601EC0FFD1FC801608140
:1050A0000E94A7252196CE15DF05ACF3DF91CF91A5
:1050B0001F910F91FF90EF90DF90CF900895FF9296
:1050C0000F931F93182F092F262FF42E60E0422FE5
:1050D00022E00E94C725812F902F60E00E94A72523
:1050E000812F902F6F2D0E94A7251F910F91FF9068
:1050F0000895462F60E020E00E94C7250895CF92D2
:10510000DF92EF92FF920F931F93D82EC92E762F26
:1051100079018A0160E0472F25E00E94C7258D2D87
:105120009C2D65E00E94A725C801B7010E94AB3EF7
:10513000AB01BC018D2D9C2D0E9458261F910F9113
:10514000FF90EF90DF90CF900895CF92DF92EF9293
:10515000FF920F931F93D82EC92E762F79018A01C3
:1051600060E0472F25E00E94C7258D2D9C2D64E02F
:105170000E94A7258D2D9C2DB801A7010E945826BD
:105180001F910F91FF90EF90DF90CF900895CF92F5
:10519000DF92EF92FF920F931F93D82EC92E762F96
:1051A00079018A0160E0472F25E00E94C7258D2DF7
:1051B0009C2D63E00E94A7258D2D9C2DB801A70191
:1051C0000E9482261F910F91FF90EF90DF90CF9069
:1051D0000895EF92FF920F931F93182F092F262FF8
:1051E0007A0160E0422F23E00E94C725812F902F93
:1051F00062E00E94A725812F902FB7010E944426CC
:105200001F910F91FF90EF900895EF92FF920F93EF
:105210001F93182F092F262F7A0160E0422F23E0D9
:105220000E94C725812F902F61E00E94A725812F22
:10523000902FB7010E9434261F910F91FF90EF909D
:105240000895CF93DF93EC01FB018081823079F0E8
:10525000833018F4813049F505C0833099F08430EB
:1052600021F51BC0CE0161E041E050E013C0CE014A
:105270000E940828AC01CE0161E028E030E00E94E5
:10528000332817C0C45ADF4F48815981CC55D040CC
:10529000CE0161E00E9405290CC06181CE0170E061
:1052A0000E942325CE0161E002C0CE0160E00E9491
:1052B0007928DF91CF910895AF92BF92CF92DF927C
:1052C000EF92FF920F931F93CF93DF93EC01E82EA1
:1052D000CD2E0E944827A82E882309F447C0CE016E
:1052E0000E94A2258823B9F0C85ADF4FC880D98010
:1052F000C855D040E880B980CE010E943B25F82EE9
:10530000CE010E9436258C018E2D6B2D4A2D2F2D1E
:10531000F60109950FC0CE010E949D25882391F5C5
:1053200081E0A81679F5CE010E943625BC01CE0198
:105330000E942129AA241AC08E2D9C2D0E949D25F1
:10534000882341F106C08E2D9C2D0E949D25882327
:1053500069F4F80100811181F9808E2D9C2D0E9445
:105360003625AC018F2D6A2DF80109958A2DDF9124
:10537000CF911F910F91FF90EF90DF90CF90BF9052
:10538000AF9008958E01065A1F4FF80180819181D8
:10539000892B91F68E010A5A1F4FF8018081918165
:1053A000892B89F6E3CFCF92DF92EF92FF920F9392
:1053B0001F937C0169010E94E12786E590E0E80ED9
:1053C000F91EF7011182108286E090E0E80EF91EC6
:1053D000F701C192D19200831183F80120E09081FE
:1053E000892F80528F3508F090E391932F5F2830FA
:1053F000B1F71F910F91FF90EF90DF90CF9008953C
:10540000DF92EF92FF920F931F93CF93DF93EC0104
:105410009B01D42E80913A0181112396BE0179011E
:105420000BC08B010F5F1F4F87E195E00E94A21216
:10543000F70181937F01B801862F8C1B8D1588F3AE
:10544000DF91CF911F910F91FF90EF90DF90089522
:1054500042E00E94002A0895DF93CF9300D0CDB799
:10546000DEB71A82198210923A0181E090E0BE0103
:105470006F5F7F4F0E94282A81E080933A018981E3
:105480009A810F900F90CF91DF91089587E195E079
:1054900060E070E00E94A21290E0882309F491E09D
:1054A000892F089541E0482787E195E060E070E0AA
:1054B0000E94A9120895DF92EF92FF920F931F931B
:1054C000CF93DF93EC019B01D42E80913A0181119F
:1054D0002396BE0179010BC08B010F5F1F4FF701AF
:1054E00041917F0187E195E00E94A912B801862FC2
:1054F0008C1B8D1588F381E00E94522ADF91CF9199
:105500001F910F91FF90EF90DF90089542E00E946D
:105510005B2A0895DF93CF9300D0CDB7DEB79A838F
:10552000898310923A0181E090E0BE016F5F7F4F66
:105530000E94862A81E080933A010F900F90CF91CC
:10554000DF910895883008F078C0E82FF0E0EE0F82
:10555000FF1FEC52FA4F718360838330D9F084309F
:1055600030F4813009F444C0823060F439C08530B1
:1055700051F18530D8F0863009F446C0873009F003
:105580005CC04FC0809169008C7F842B8093690040
:10559000E89A089580916900440F551F440F551FE4
:1055A000837F842B80936900E99A08958091690034
:1055B00074E0440F551F7A95E1F78F7C842B80931C
:1055C0006900EA9A08958091690066E0440F551FCA
:1055D0006A95E1F78F73842B80936900EB9A0895A5
:1055E00080916A008C7F842B80936A00EC9A0895E6
:1055F00080916A00440F551F440F551F837F842BF1
:1056000080936A00ED9A089580916A0024E0440F27
:10561000551F2A95E1F78F7C842B80936A00EE9AC0
:10562000089580916A0096E0440F551F9A95E1F71E
:105630008F73842B80936A00EF9A0895883048F521
:10564000833091F0843028F48130B1F0823050F40E
:1056500011C0853069F0853048F0863079F08730A8
:1056600081F40EC0E8980DC0E9980BC0EA9809C013
:10567000EB9807C0EC9805C0ED9803C0EE9801C008
:10568000EF98E82FF0E0EE0FFF1FEC52FA4F118277
:10569000108208951F920F920FB60F920BB60F92C1
:1056A00011242F933F934F935F936F937F938F9327
:1056B0009F93AF93BF93EF93FF938091D805909101
:1056C000D905892B29F0E091D805F091D9050995E4
:1056D000FF91EF91BF91AF919F918F917F916F91CA
:1056E0005F914F913F912F910F900BBE0F900FBE86
:1056F0000F901F9018951F920F920FB60F920BB636
:105700000F9211242F933F934F935F936F937F9347
:105710008F939F93AF93BF93EF93FF938091DA059D
:105720009091DB05892B29F0E091DA05F091DB05FA
:105730000995FF91EF91BF91AF919F918F917F91CB
:105740006F915F914F913F912F910F900BBE0F90F2
:105750000FBE0F901F9018951F920F920FB60F92C9
:105760000BB60F9211242F933F934F935F936F9338
:105770007F938F939F93AF93BF93EF93FF9380910A
:10578000DC059091DD05892B29F0E091DC05F09195
:10579000DD050995FF91EF91BF91AF919F918F9199
:1057A0007F916F915F914F913F912F910F900BBE21
:1057B0000F900FBE0F901F9018951F920F920FB66B
:1057C0000F920BB60F9211242F933F934F935F9339
:1057D0006F937F938F939F93AF93BF93EF93FF93B9
:1057E0008091DE059091DF05892B29F0E091DE059F
:1057F000F091DF050995FF91EF91BF91AF919F91D6
:105800008F917F916F915F914F913F912F910F9069
:105810000BBE0F900FBE0F901F9018951F920F9206
:105820000FB60F920BB60F9211242F933F934F9305
:105830005F936F937F938F939F93AF93BF93EF93F8
:10584000FF938091D4059091D505892B29F0E091A3
:10585000D405F091D5050995FF91EF91BF91AF91D6
:105860009F918F917F916F915F914F913F912F9178
:105870000F900BBE0F900FBE0F901F9018951F92A8
:105880000F920FB60F920BB60F9211242F933F93E6
:105890004F935F936F937F938F939F93AF93BF9338
:1058A000EF93FF938091D6059091D705892B29F02E
:1058B000E091D605F091D7050995FF91EF91BF9141
:1058C000AF919F918F917F916F915F914F913F9198
:1058D0002F910F900BBE0F900FBE0F901F90189539
:1058E0001F920F920FB60F920BB60F9211242F93A7
:1058F0003F934F935F936F937F938F939F93AF9358
:10590000BF93EF93FF938091E0059091E105892B80
:1059100029F0E091E005F091E1050995FF91EF9103
:10592000BF91AF919F918F917F916F915F914F91B7
:105930003F912F910F900BBE0F900FBE0F901F90B5
:1059400018951F920F920FB60F920BB60F9211245B
:105950002F933F934F935F936F937F938F939F9377
:10596000AF93BF93EF93FF938091E2059091E3058E
:10597000892B29F0E091E205F091E3050995FF916B
:10598000EF91BF91AF919F918F917F916F915F91B7
:105990004F913F912F910F900BBE0F900FBE0F9024
:1059A0001F9018951F920F920FB60F9211242F93EC
:1059B0003F938F939F93AF93BF938091E80590910E
:1059C000E905A091EA05B091EB053091EC0501964F
:1059D000A11DB11D232F2D5F2D3720F02D570196CE
:1059E000A11DB11D2093EC058093E8059093E90576
:1059F000A093EA05B093EB058091E4059091E5054D
:105A0000A091E605B091E7050196A11DB11D809317
:105A1000E4059093E505A093E605B093E705BF91F3
:105A2000AF919F918F913F912F910F900FBE0F904B
:105A30001F9018958FB7F8942091E8053091E905EB
:105A40004091EA055091EB058FBFB901CA01089555
:105A50009FB7F8942091E4053091E5054091E60563
:105A60005091E70586B5A89B06C08F3F21F02F5FB8
:105A70003F4F4F4F5F4F9FBF542F432F322F22274F
:105A8000280F311D411D511D82E0220F331F441F7D
:105A9000551F8A95D1F7B901CA0108959B01AC0140
:105AA0007FB7F8948091E4059091E505A091E60513
:105AB000B091E70566B5A89B05C06F3F19F0019648
:105AC000A11DB11D7FBFBA2FA92F982F8827860F40
:105AD000911DA11DB11D62E0880F991FAA1FBB1F58
